{
	"contracts/legacy/Pandora.sol": {
		"Pandora": {
			"abi": [
				{
					"inputs": [
						{
							"internalType": "address",
							"name": "_owner",
							"type": "address"
						}
					],
					"stateMutability": "nonpayable",
					"type": "constructor"
				},
				{
					"inputs": [],
					"name": "AlreadyExists",
					"type": "error"
				},
				{
					"inputs": [],
					"name": "InvalidOwner",
					"type": "error"
				},
				{
					"inputs": [],
					"name": "InvalidRecipient",
					"type": "error"
				},
				{
					"inputs": [],
					"name": "InvalidSender",
					"type": "error"
				},
				{
					"inputs": [],
					"name": "NotFound",
					"type": "error"
				},
				{
					"inputs": [],
					"name": "Unauthorized",
					"type": "error"
				},
				{
					"inputs": [],
					"name": "UnsafeRecipient",
					"type": "error"
				},
				{
					"anonymous": false,
					"inputs": [
						{
							"indexed": true,
							"internalType": "address",
							"name": "owner",
							"type": "address"
						},
						{
							"indexed": true,
							"internalType": "address",
							"name": "spender",
							"type": "address"
						},
						{
							"indexed": false,
							"internalType": "uint256",
							"name": "amount",
							"type": "uint256"
						}
					],
					"name": "Approval",
					"type": "event"
				},
				{
					"anonymous": false,
					"inputs": [
						{
							"indexed": true,
							"internalType": "address",
							"name": "owner",
							"type": "address"
						},
						{
							"indexed": true,
							"internalType": "address",
							"name": "operator",
							"type": "address"
						},
						{
							"indexed": false,
							"internalType": "bool",
							"name": "approved",
							"type": "bool"
						}
					],
					"name": "ApprovalForAll",
					"type": "event"
				},
				{
					"anonymous": false,
					"inputs": [
						{
							"indexed": true,
							"internalType": "address",
							"name": "from",
							"type": "address"
						},
						{
							"indexed": true,
							"internalType": "address",
							"name": "to",
							"type": "address"
						},
						{
							"indexed": false,
							"internalType": "uint256",
							"name": "amount",
							"type": "uint256"
						}
					],
					"name": "ERC20Transfer",
					"type": "event"
				},
				{
					"anonymous": false,
					"inputs": [
						{
							"indexed": true,
							"internalType": "address",
							"name": "owner",
							"type": "address"
						},
						{
							"indexed": true,
							"internalType": "address",
							"name": "spender",
							"type": "address"
						},
						{
							"indexed": true,
							"internalType": "uint256",
							"name": "id",
							"type": "uint256"
						}
					],
					"name": "ERC721Approval",
					"type": "event"
				},
				{
					"anonymous": false,
					"inputs": [
						{
							"indexed": true,
							"internalType": "address",
							"name": "user",
							"type": "address"
						},
						{
							"indexed": true,
							"internalType": "address",
							"name": "newOwner",
							"type": "address"
						}
					],
					"name": "OwnershipTransferred",
					"type": "event"
				},
				{
					"anonymous": false,
					"inputs": [
						{
							"indexed": true,
							"internalType": "address",
							"name": "from",
							"type": "address"
						},
						{
							"indexed": true,
							"internalType": "address",
							"name": "to",
							"type": "address"
						},
						{
							"indexed": true,
							"internalType": "uint256",
							"name": "id",
							"type": "uint256"
						}
					],
					"name": "Transfer",
					"type": "event"
				},
				{
					"inputs": [
						{
							"internalType": "address",
							"name": "",
							"type": "address"
						},
						{
							"internalType": "address",
							"name": "",
							"type": "address"
						}
					],
					"name": "allowance",
					"outputs": [
						{
							"internalType": "uint256",
							"name": "",
							"type": "uint256"
						}
					],
					"stateMutability": "view",
					"type": "function"
				},
				{
					"inputs": [
						{
							"internalType": "address",
							"name": "spender",
							"type": "address"
						},
						{
							"internalType": "uint256",
							"name": "amountOrId",
							"type": "uint256"
						}
					],
					"name": "approve",
					"outputs": [
						{
							"internalType": "bool",
							"name": "",
							"type": "bool"
						}
					],
					"stateMutability": "nonpayable",
					"type": "function"
				},
				{
					"inputs": [
						{
							"internalType": "address",
							"name": "",
							"type": "address"
						}
					],
					"name": "balanceOf",
					"outputs": [
						{
							"internalType": "uint256",
							"name": "",
							"type": "uint256"
						}
					],
					"stateMutability": "view",
					"type": "function"
				},
				{
					"inputs": [],
					"name": "baseTokenURI",
					"outputs": [
						{
							"internalType": "string",
							"name": "",
							"type": "string"
						}
					],
					"stateMutability": "view",
					"type": "function"
				},
				{
					"inputs": [],
					"name": "dataURI",
					"outputs": [
						{
							"internalType": "string",
							"name": "",
							"type": "string"
						}
					],
					"stateMutability": "view",
					"type": "function"
				},
				{
					"inputs": [],
					"name": "decimals",
					"outputs": [
						{
							"internalType": "uint8",
							"name": "",
							"type": "uint8"
						}
					],
					"stateMutability": "view",
					"type": "function"
				},
				{
					"inputs": [
						{
							"internalType": "uint256",
							"name": "",
							"type": "uint256"
						}
					],
					"name": "getApproved",
					"outputs": [
						{
							"internalType": "address",
							"name": "",
							"type": "address"
						}
					],
					"stateMutability": "view",
					"type": "function"
				},
				{
					"inputs": [
						{
							"internalType": "address",
							"name": "",
							"type": "address"
						},
						{
							"internalType": "address",
							"name": "",
							"type": "address"
						}
					],
					"name": "isApprovedForAll",
					"outputs": [
						{
							"internalType": "bool",
							"name": "",
							"type": "bool"
						}
					],
					"stateMutability": "view",
					"type": "function"
				},
				{
					"inputs": [],
					"name": "minted",
					"outputs": [
						{
							"internalType": "uint256",
							"name": "",
							"type": "uint256"
						}
					],
					"stateMutability": "view",
					"type": "function"
				},
				{
					"inputs": [],
					"name": "name",
					"outputs": [
						{
							"internalType": "string",
							"name": "",
							"type": "string"
						}
					],
					"stateMutability": "view",
					"type": "function"
				},
				{
					"inputs": [],
					"name": "owner",
					"outputs": [
						{
							"internalType": "address",
							"name": "",
							"type": "address"
						}
					],
					"stateMutability": "view",
					"type": "function"
				},
				{
					"inputs": [
						{
							"internalType": "uint256",
							"name": "id",
							"type": "uint256"
						}
					],
					"name": "ownerOf",
					"outputs": [
						{
							"internalType": "address",
							"name": "owner",
							"type": "address"
						}
					],
					"stateMutability": "view",
					"type": "function"
				},
				{
					"inputs": [],
					"name": "revokeOwnership",
					"outputs": [],
					"stateMutability": "nonpayable",
					"type": "function"
				},
				{
					"inputs": [
						{
							"internalType": "address",
							"name": "from",
							"type": "address"
						},
						{
							"internalType": "address",
							"name": "to",
							"type": "address"
						},
						{
							"internalType": "uint256",
							"name": "id",
							"type": "uint256"
						}
					],
					"name": "safeTransferFrom",
					"outputs": [],
					"stateMutability": "nonpayable",
					"type": "function"
				},
				{
					"inputs": [
						{
							"internalType": "address",
							"name": "from",
							"type": "address"
						},
						{
							"internalType": "address",
							"name": "to",
							"type": "address"
						},
						{
							"internalType": "uint256",
							"name": "id",
							"type": "uint256"
						},
						{
							"internalType": "bytes",
							"name": "data",
							"type": "bytes"
						}
					],
					"name": "safeTransferFrom",
					"outputs": [],
					"stateMutability": "nonpayable",
					"type": "function"
				},
				{
					"inputs": [
						{
							"internalType": "address",
							"name": "operator",
							"type": "address"
						},
						{
							"internalType": "bool",
							"name": "approved",
							"type": "bool"
						}
					],
					"name": "setApprovalForAll",
					"outputs": [],
					"stateMutability": "nonpayable",
					"type": "function"
				},
				{
					"inputs": [
						{
							"internalType": "string",
							"name": "_dataURI",
							"type": "string"
						}
					],
					"name": "setDataURI",
					"outputs": [],
					"stateMutability": "nonpayable",
					"type": "function"
				},
				{
					"inputs": [
						{
							"internalType": "string",
							"name": "_name",
							"type": "string"
						},
						{
							"internalType": "string",
							"name": "_symbol",
							"type": "string"
						}
					],
					"name": "setNameSymbol",
					"outputs": [],
					"stateMutability": "nonpayable",
					"type": "function"
				},
				{
					"inputs": [
						{
							"internalType": "string",
							"name": "_tokenURI",
							"type": "string"
						}
					],
					"name": "setTokenURI",
					"outputs": [],
					"stateMutability": "nonpayable",
					"type": "function"
				},
				{
					"inputs": [
						{
							"internalType": "address",
							"name": "target",
							"type": "address"
						},
						{
							"internalType": "bool",
							"name": "state",
							"type": "bool"
						}
					],
					"name": "setWhitelist",
					"outputs": [],
					"stateMutability": "nonpayable",
					"type": "function"
				},
				{
					"inputs": [],
					"name": "symbol",
					"outputs": [
						{
							"internalType": "string",
							"name": "",
							"type": "string"
						}
					],
					"stateMutability": "view",
					"type": "function"
				},
				{
					"inputs": [
						{
							"internalType": "uint256",
							"name": "id",
							"type": "uint256"
						}
					],
					"name": "tokenURI",
					"outputs": [
						{
							"internalType": "string",
							"name": "",
							"type": "string"
						}
					],
					"stateMutability": "view",
					"type": "function"
				},
				{
					"inputs": [],
					"name": "totalSupply",
					"outputs": [
						{
							"internalType": "uint256",
							"name": "",
							"type": "uint256"
						}
					],
					"stateMutability": "view",
					"type": "function"
				},
				{
					"inputs": [
						{
							"internalType": "address",
							"name": "to",
							"type": "address"
						},
						{
							"internalType": "uint256",
							"name": "amount",
							"type": "uint256"
						}
					],
					"name": "transfer",
					"outputs": [
						{
							"internalType": "bool",
							"name": "",
							"type": "bool"
						}
					],
					"stateMutability": "nonpayable",
					"type": "function"
				},
				{
					"inputs": [
						{
							"internalType": "address",
							"name": "from",
							"type": "address"
						},
						{
							"internalType": "address",
							"name": "to",
							"type": "address"
						},
						{
							"internalType": "uint256",
							"name": "amountOrId",
							"type": "uint256"
						}
					],
					"name": "transferFrom",
					"outputs": [],
					"stateMutability": "nonpayable",
					"type": "function"
				},
				{
					"inputs": [
						{
							"internalType": "address",
							"name": "_owner",
							"type": "address"
						}
					],
					"name": "transferOwnership",
					"outputs": [],
					"stateMutability": "nonpayable",
					"type": "function"
				},
				{
					"inputs": [
						{
							"internalType": "address",
							"name": "",
							"type": "address"
						}
					],
					"name": "whitelist",
					"outputs": [
						{
							"internalType": "bool",
							"name": "",
							"type": "bool"
						}
					],
					"stateMutability": "view",
					"type": "function"
				}
			],
			"devdoc": {
				"kind": "dev",
				"methods": {
					"approve(address,uint256)": {
						"details": "This function assumes id / native if amount less than or equal to current max id"
					},
					"transferFrom(address,address,uint256)": {
						"details": "This function assumes id / native if amount less than or equal to current max id"
					}
				},
				"version": 1
			},
			"evm": {
				"assembly": "    /* \"contracts/legacy/Pandora.sol\":138:2231  contract Pandora is ERC404Legacy {... */\n  mstore(0x40, 0xc0)\n    /* \"contracts/legacy/Pandora.sol\":231:398  constructor(... */\n  callvalue\n  dup1\n  iszero\n  tag_1\n  jumpi\n  0x00\n  dup1\n  revert\ntag_1:\n  pop\n  mload(0x40)\n  sub(codesize, bytecodeSize)\n  dup1\n  bytecodeSize\n  dup4\n  codecopy\n  dup2\n  dup2\n  add\n  0x40\n  mstore\n  dup2\n  add\n  swap1\n  tag_2\n  swap2\n  swap1\n  tag_3\n  jump\t// in\ntag_2:\n    /* \"contracts/legacy/ERC404Legacy.sol\":3771:4056  constructor(... */\n  mload(0x40)\n  dup1\n  0x40\n  add\n  0x40\n  mstore\n  dup1\n  0x07\n  dup2\n  mstore\n  0x20\n  add\n  0x50616e646f726100000000000000000000000000000000000000000000000000\n  dup2\n  mstore\n  pop\n  mload(0x40)\n  dup1\n  0x40\n  add\n  0x40\n  mstore\n  dup1\n  0x07\n  dup2\n  mstore\n  0x20\n  add\n  0x50414e444f524100000000000000000000000000000000000000000000000000\n  dup2\n  mstore\n  pop\n    /* \"contracts/legacy/Pandora.sol\":302:304  18 */\n  0x12\n    /* \"contracts/legacy/Pandora.sol\":306:311  10000 */\n  0x2710\n    /* \"contracts/legacy/Pandora.sol\":313:319  _owner */\n  dup5\n    /* \"contracts/legacy/ERC404Legacy.sol\":3920:3926  _owner */\n  dup1\n    /* \"contracts/legacy/ERC404Legacy.sol\":393:394  0 */\n  0x00\n    /* \"contracts/legacy/ERC404Legacy.sol\":375:395  _owner == address(0) */\n  0xffffffffffffffffffffffffffffffffffffffff\n  and\n    /* \"contracts/legacy/ERC404Legacy.sol\":375:381  _owner */\n  dup2\n    /* \"contracts/legacy/ERC404Legacy.sol\":375:395  _owner == address(0) */\n  0xffffffffffffffffffffffffffffffffffffffff\n  and\n  sub\n    /* \"contracts/legacy/ERC404Legacy.sol\":371:418  if (_owner == address(0)) revert InvalidOwner() */\n  tag_8\n  jumpi\n    /* \"contracts/legacy/ERC404Legacy.sol\":404:418  InvalidOwner() */\n  mload(0x40)\n  0x49e27cff00000000000000000000000000000000000000000000000000000000\n  dup2\n  mstore\n  0x04\n  add\n  mload(0x40)\n  dup1\n  swap2\n  sub\n  swap1\n  revert\n    /* \"contracts/legacy/ERC404Legacy.sol\":371:418  if (_owner == address(0)) revert InvalidOwner() */\ntag_8:\n    /* \"contracts/legacy/ERC404Legacy.sol\":433:439  _owner */\n  dup1\n    /* \"contracts/legacy/ERC404Legacy.sol\":425:430  owner */\n  0x00\n  dup1\n    /* \"contracts/legacy/ERC404Legacy.sol\":425:439  owner = _owner */\n  0x0100\n  exp\n  dup2\n  sload\n  dup2\n  0xffffffffffffffffffffffffffffffffffffffff\n  mul\n  not\n  and\n  swap1\n  dup4\n  0xffffffffffffffffffffffffffffffffffffffff\n  and\n  mul\n  or\n  swap1\n  sstore\n  pop\n    /* \"contracts/legacy/ERC404Legacy.sol\":484:490  _owner */\n  dup1\n    /* \"contracts/legacy/ERC404Legacy.sol\":451:491  OwnershipTransferred(address(0), _owner) */\n  0xffffffffffffffffffffffffffffffffffffffff\n  and\n    /* \"contracts/legacy/ERC404Legacy.sol\":480:481  0 */\n  0x00\n    /* \"contracts/legacy/ERC404Legacy.sol\":451:491  OwnershipTransferred(address(0), _owner) */\n  0xffffffffffffffffffffffffffffffffffffffff\n  and\n  0x8be0079c531659141344cd1fd0a4f28419497f9722a3daafe3b4186f6b6457e0\n  mload(0x40)\n  mload(0x40)\n  dup1\n  swap2\n  sub\n  swap1\n  log3\n    /* \"contracts/legacy/ERC404Legacy.sol\":337:496  constructor(address _owner) {... */\n  pop\n    /* \"contracts/legacy/ERC404Legacy.sol\":3941:3946  _name */\n  dup5\n    /* \"contracts/legacy/ERC404Legacy.sol\":3934:3938  name */\n  0x01\n    /* \"contracts/legacy/ERC404Legacy.sol\":3934:3946  name = _name */\n  swap1\n  dup2\n  tag_10\n  swap2\n  swap1\n  tag_11\n  jump\t// in\ntag_10:\n  pop\n    /* \"contracts/legacy/ERC404Legacy.sol\":3961:3968  _symbol */\n  dup4\n    /* \"contracts/legacy/ERC404Legacy.sol\":3952:3958  symbol */\n  0x02\n    /* \"contracts/legacy/ERC404Legacy.sol\":3952:3968  symbol = _symbol */\n  swap1\n  dup2\n  tag_12\n  swap2\n  swap1\n  tag_11\n  jump\t// in\ntag_12:\n  pop\n    /* \"contracts/legacy/ERC404Legacy.sol\":3985:3994  _decimals */\n  dup3\n    /* \"contracts/legacy/ERC404Legacy.sol\":3974:3994  decimals = _decimals */\n  0xff\n  and\n  0x80\n  dup2\n  0xff\n  and\n  dup2\n  mstore\n  pop\n  pop\n    /* \"contracts/legacy/ERC404Legacy.sol\":4042:4050  decimals */\n  mload(0x80)\n    /* \"contracts/legacy/ERC404Legacy.sol\":4036:4038  10 */\n  0x0a\n    /* \"contracts/legacy/ERC404Legacy.sol\":4036:4050  10 ** decimals */\n  tag_13\n  swap2\n  swap1\n  tag_14\n  jump\t// in\ntag_13:\n    /* \"contracts/legacy/ERC404Legacy.sol\":4014:4032  _totalNativeSupply */\n  dup3\n    /* \"contracts/legacy/ERC404Legacy.sol\":4014:4051  _totalNativeSupply * (10 ** decimals) */\n  tag_15\n  swap2\n  swap1\n  tag_16\n  jump\t// in\ntag_15:\n    /* \"contracts/legacy/ERC404Legacy.sol\":4000:4051  totalSupply = _totalNativeSupply * (10 ** decimals) */\n  0xa0\n  dup2\n  dup2\n  mstore\n  pop\n  pop\n    /* \"contracts/legacy/ERC404Legacy.sol\":3771:4056  constructor(... */\n  pop\n  pop\n  pop\n  pop\n  pop\n    /* \"contracts/legacy/Pandora.sol\":347:351  true */\n  0x01\n    /* \"contracts/legacy/Pandora.sol\":327:336  whitelist */\n  0x0b\n    /* \"contracts/legacy/Pandora.sol\":327:344  whitelist[_owner] */\n  0x00\n    /* \"contracts/legacy/Pandora.sol\":337:343  _owner */\n  dup4\n    /* \"contracts/legacy/Pandora.sol\":327:344  whitelist[_owner] */\n  0xffffffffffffffffffffffffffffffffffffffff\n  and\n  0xffffffffffffffffffffffffffffffffffffffff\n  and\n  dup2\n  mstore\n  0x20\n  add\n  swap1\n  dup2\n  mstore\n  0x20\n  add\n  0x00\n  keccak256\n  0x00\n    /* \"contracts/legacy/Pandora.sol\":327:351  whitelist[_owner] = true */\n  0x0100\n  exp\n  dup2\n  sload\n  dup2\n  0xff\n  mul\n  not\n  and\n  swap1\n  dup4\n  iszero\n  iszero\n  mul\n  or\n  swap1\n  sstore\n  pop\n    /* \"contracts/legacy/Pandora.sol\":377:393  10000 * 10 ** 18 */\n  0x021e19e0c9bab2400000\n    /* \"contracts/legacy/Pandora.sol\":357:366  balanceOf */\n  0x04\n    /* \"contracts/legacy/Pandora.sol\":357:374  balanceOf[_owner] */\n  0x00\n    /* \"contracts/legacy/Pandora.sol\":367:373  _owner */\n  dup4\n    /* \"contracts/legacy/Pandora.sol\":357:374  balanceOf[_owner] */\n  0xffffffffffffffffffffffffffffffffffffffff\n  and\n  0xffffffffffffffffffffffffffffffffffffffff\n  and\n  dup2\n  mstore\n  0x20\n  add\n  swap1\n  dup2\n  mstore\n  0x20\n  add\n  0x00\n  keccak256\n    /* \"contracts/legacy/Pandora.sol\":357:393  balanceOf[_owner] = 10000 * 10 ** 18 */\n  dup2\n  swap1\n  sstore\n  pop\n    /* \"contracts/legacy/Pandora.sol\":231:398  constructor(... */\n  pop\n    /* \"contracts/legacy/Pandora.sol\":138:2231  contract Pandora is ERC404Legacy {... */\n  jump(tag_18)\n    /* \"#utility.yul\":88:205   */\ntag_20:\n    /* \"#utility.yul\":197:198   */\n  0x00\n    /* \"#utility.yul\":194:195   */\n  dup1\n    /* \"#utility.yul\":187:199   */\n  revert\n    /* \"#utility.yul\":334:460   */\ntag_22:\n    /* \"#utility.yul\":371:378   */\n  0x00\n    /* \"#utility.yul\":411:453   */\n  0xffffffffffffffffffffffffffffffffffffffff\n    /* \"#utility.yul\":404:409   */\n  dup3\n    /* \"#utility.yul\":400:454   */\n  and\n    /* \"#utility.yul\":389:454   */\n  swap1\n  pop\n    /* \"#utility.yul\":334:460   */\n  swap2\n  swap1\n  pop\n  jump\t// out\n    /* \"#utility.yul\":466:562   */\ntag_23:\n    /* \"#utility.yul\":503:510   */\n  0x00\n    /* \"#utility.yul\":532:556   */\n  tag_57\n    /* \"#utility.yul\":550:555   */\n  dup3\n    /* \"#utility.yul\":532:556   */\n  tag_22\n  jump\t// in\ntag_57:\n    /* \"#utility.yul\":521:556   */\n  swap1\n  pop\n    /* \"#utility.yul\":466:562   */\n  swap2\n  swap1\n  pop\n  jump\t// out\n    /* \"#utility.yul\":568:690   */\ntag_24:\n    /* \"#utility.yul\":641:665   */\n  tag_59\n    /* \"#utility.yul\":659:664   */\n  dup2\n    /* \"#utility.yul\":641:665   */\n  tag_23\n  jump\t// in\ntag_59:\n    /* \"#utility.yul\":634:639   */\n  dup2\n    /* \"#utility.yul\":631:666   */\n  eq\n    /* \"#utility.yul\":621:684   */\n  tag_60\n  jumpi\n    /* \"#utility.yul\":680:681   */\n  0x00\n    /* \"#utility.yul\":677:678   */\n  dup1\n    /* \"#utility.yul\":670:682   */\n  revert\n    /* \"#utility.yul\":621:684   */\ntag_60:\n    /* \"#utility.yul\":568:690   */\n  pop\n  jump\t// out\n    /* \"#utility.yul\":696:839   */\ntag_25:\n    /* \"#utility.yul\":753:758   */\n  0x00\n    /* \"#utility.yul\":784:790   */\n  dup2\n    /* \"#utility.yul\":778:791   */\n  mload\n    /* \"#utility.yul\":769:791   */\n  swap1\n  pop\n    /* \"#utility.yul\":800:833   */\n  tag_62\n    /* \"#utility.yul\":827:832   */\n  dup2\n    /* \"#utility.yul\":800:833   */\n  tag_24\n  jump\t// in\ntag_62:\n    /* \"#utility.yul\":696:839   */\n  swap3\n  swap2\n  pop\n  pop\n  jump\t// out\n    /* \"#utility.yul\":845:1196   */\ntag_3:\n    /* \"#utility.yul\":915:921   */\n  0x00\n    /* \"#utility.yul\":964:966   */\n  0x20\n    /* \"#utility.yul\":952:961   */\n  dup3\n    /* \"#utility.yul\":943:950   */\n  dup5\n    /* \"#utility.yul\":939:962   */\n  sub\n    /* \"#utility.yul\":935:967   */\n  slt\n    /* \"#utility.yul\":932:1051   */\n  iszero\n  tag_64\n  jumpi\n    /* \"#utility.yul\":970:1049   */\n  tag_65\n  tag_20\n  jump\t// in\ntag_65:\n    /* \"#utility.yul\":932:1051   */\ntag_64:\n    /* \"#utility.yul\":1090:1091   */\n  0x00\n    /* \"#utility.yul\":1115:1179   */\n  tag_66\n    /* \"#utility.yul\":1171:1178   */\n  dup5\n    /* \"#utility.yul\":1162:1168   */\n  dup3\n    /* \"#utility.yul\":1151:1160   */\n  dup6\n    /* \"#utility.yul\":1147:1169   */\n  add\n    /* \"#utility.yul\":1115:1179   */\n  tag_25\n  jump\t// in\ntag_66:\n    /* \"#utility.yul\":1105:1179   */\n  swap2\n  pop\n    /* \"#utility.yul\":1061:1189   */\n  pop\n    /* \"#utility.yul\":845:1196   */\n  swap3\n  swap2\n  pop\n  pop\n  jump\t// out\n    /* \"#utility.yul\":1202:1301   */\ntag_26:\n    /* \"#utility.yul\":1254:1260   */\n  0x00\n    /* \"#utility.yul\":1288:1293   */\n  dup2\n    /* \"#utility.yul\":1282:1294   */\n  mload\n    /* \"#utility.yul\":1272:1294   */\n  swap1\n  pop\n    /* \"#utility.yul\":1202:1301   */\n  swap2\n  swap1\n  pop\n  jump\t// out\n    /* \"#utility.yul\":1307:1487   */\ntag_27:\n    /* \"#utility.yul\":1355:1432   */\n  0x4e487b7100000000000000000000000000000000000000000000000000000000\n    /* \"#utility.yul\":1352:1353   */\n  0x00\n    /* \"#utility.yul\":1345:1433   */\n  mstore\n    /* \"#utility.yul\":1452:1456   */\n  0x41\n    /* \"#utility.yul\":1449:1450   */\n  0x04\n    /* \"#utility.yul\":1442:1457   */\n  mstore\n    /* \"#utility.yul\":1476:1480   */\n  0x24\n    /* \"#utility.yul\":1473:1474   */\n  0x00\n    /* \"#utility.yul\":1466:1481   */\n  revert\n    /* \"#utility.yul\":1493:1673   */\ntag_28:\n    /* \"#utility.yul\":1541:1618   */\n  0x4e487b7100000000000000000000000000000000000000000000000000000000\n    /* \"#utility.yul\":1538:1539   */\n  0x00\n    /* \"#utility.yul\":1531:1619   */\n  mstore\n    /* \"#utility.yul\":1638:1642   */\n  0x22\n    /* \"#utility.yul\":1635:1636   */\n  0x04\n    /* \"#utility.yul\":1628:1643   */\n  mstore\n    /* \"#utility.yul\":1662:1666   */\n  0x24\n    /* \"#utility.yul\":1659:1660   */\n  0x00\n    /* \"#utility.yul\":1652:1667   */\n  revert\n    /* \"#utility.yul\":1679:1999   */\ntag_29:\n    /* \"#utility.yul\":1723:1729   */\n  0x00\n    /* \"#utility.yul\":1760:1761   */\n  0x02\n    /* \"#utility.yul\":1754:1758   */\n  dup3\n    /* \"#utility.yul\":1750:1762   */\n  div\n    /* \"#utility.yul\":1740:1762   */\n  swap1\n  pop\n    /* \"#utility.yul\":1807:1808   */\n  0x01\n    /* \"#utility.yul\":1801:1805   */\n  dup3\n    /* \"#utility.yul\":1797:1809   */\n  and\n    /* \"#utility.yul\":1828:1846   */\n  dup1\n    /* \"#utility.yul\":1818:1899   */\n  tag_71\n  jumpi\n    /* \"#utility.yul\":1884:1888   */\n  0x7f\n    /* \"#utility.yul\":1876:1882   */\n  dup3\n    /* \"#utility.yul\":1872:1889   */\n  and\n    /* \"#utility.yul\":1862:1889   */\n  swap2\n  pop\n    /* \"#utility.yul\":1818:1899   */\ntag_71:\n    /* \"#utility.yul\":1946:1948   */\n  0x20\n    /* \"#utility.yul\":1938:1944   */\n  dup3\n    /* \"#utility.yul\":1935:1949   */\n  lt\n    /* \"#utility.yul\":1915:1933   */\n  dup2\n    /* \"#utility.yul\":1912:1950   */\n  sub\n    /* \"#utility.yul\":1909:1993   */\n  tag_72\n  jumpi\n    /* \"#utility.yul\":1965:1983   */\n  tag_73\n  tag_28\n  jump\t// in\ntag_73:\n    /* \"#utility.yul\":1909:1993   */\ntag_72:\n    /* \"#utility.yul\":1730:1999   */\n  pop\n    /* \"#utility.yul\":1679:1999   */\n  swap2\n  swap1\n  pop\n  jump\t// out\n    /* \"#utility.yul\":2005:2146   */\ntag_30:\n    /* \"#utility.yul\":2054:2058   */\n  0x00\n    /* \"#utility.yul\":2077:2080   */\n  dup2\n    /* \"#utility.yul\":2069:2080   */\n  swap1\n  pop\n    /* \"#utility.yul\":2100:2103   */\n  dup2\n    /* \"#utility.yul\":2097:2098   */\n  0x00\n    /* \"#utility.yul\":2090:2104   */\n  mstore\n    /* \"#utility.yul\":2134:2138   */\n  0x20\n    /* \"#utility.yul\":2131:2132   */\n  0x00\n    /* \"#utility.yul\":2121:2139   */\n  keccak256\n    /* \"#utility.yul\":2113:2139   */\n  swap1\n  pop\n    /* \"#utility.yul\":2005:2146   */\n  swap2\n  swap1\n  pop\n  jump\t// out\n    /* \"#utility.yul\":2152:2245   */\ntag_31:\n    /* \"#utility.yul\":2189:2195   */\n  0x00\n    /* \"#utility.yul\":2236:2238   */\n  0x20\n    /* \"#utility.yul\":2231:2233   */\n  0x1f\n    /* \"#utility.yul\":2224:2229   */\n  dup4\n    /* \"#utility.yul\":2220:2234   */\n  add\n    /* \"#utility.yul\":2216:2239   */\n  div\n    /* \"#utility.yul\":2206:2239   */\n  swap1\n  pop\n    /* \"#utility.yul\":2152:2245   */\n  swap2\n  swap1\n  pop\n  jump\t// out\n    /* \"#utility.yul\":2251:2358   */\ntag_32:\n    /* \"#utility.yul\":2295:2303   */\n  0x00\n    /* \"#utility.yul\":2345:2350   */\n  dup3\n    /* \"#utility.yul\":2339:2343   */\n  dup3\n    /* \"#utility.yul\":2335:2351   */\n  shl\n    /* \"#utility.yul\":2314:2351   */\n  swap1\n  pop\n    /* \"#utility.yul\":2251:2358   */\n  swap3\n  swap2\n  pop\n  pop\n  jump\t// out\n    /* \"#utility.yul\":2364:2757   */\ntag_33:\n    /* \"#utility.yul\":2433:2439   */\n  0x00\n    /* \"#utility.yul\":2483:2484   */\n  0x08\n    /* \"#utility.yul\":2471:2481   */\n  dup4\n    /* \"#utility.yul\":2467:2485   */\n  mul\n    /* \"#utility.yul\":2506:2603   */\n  tag_78\n    /* \"#utility.yul\":2536:2602   */\n  0xffffffffffffffffffffffffffffffffffffffffffffffffffffffffffffffff\n    /* \"#utility.yul\":2525:2534   */\n  dup3\n    /* \"#utility.yul\":2506:2603   */\n  tag_32\n  jump\t// in\ntag_78:\n    /* \"#utility.yul\":2624:2663   */\n  tag_79\n    /* \"#utility.yul\":2654:2662   */\n  dup7\n    /* \"#utility.yul\":2643:2652   */\n  dup4\n    /* \"#utility.yul\":2624:2663   */\n  tag_32\n  jump\t// in\ntag_79:\n    /* \"#utility.yul\":2612:2663   */\n  swap6\n  pop\n    /* \"#utility.yul\":2696:2700   */\n  dup1\n    /* \"#utility.yul\":2692:2701   */\n  not\n    /* \"#utility.yul\":2685:2690   */\n  dup5\n    /* \"#utility.yul\":2681:2702   */\n  and\n    /* \"#utility.yul\":2672:2702   */\n  swap4\n  pop\n    /* \"#utility.yul\":2745:2749   */\n  dup1\n    /* \"#utility.yul\":2735:2743   */\n  dup7\n    /* \"#utility.yul\":2731:2750   */\n  and\n    /* \"#utility.yul\":2724:2729   */\n  dup5\n    /* \"#utility.yul\":2721:2751   */\n  or\n    /* \"#utility.yul\":2711:2751   */\n  swap3\n  pop\n    /* \"#utility.yul\":2440:2757   */\n  pop\n  pop\n    /* \"#utility.yul\":2364:2757   */\n  swap4\n  swap3\n  pop\n  pop\n  pop\n  jump\t// out\n    /* \"#utility.yul\":2763:2840   */\ntag_34:\n    /* \"#utility.yul\":2800:2807   */\n  0x00\n    /* \"#utility.yul\":2829:2834   */\n  dup2\n    /* \"#utility.yul\":2818:2834   */\n  swap1\n  pop\n    /* \"#utility.yul\":2763:2840   */\n  swap2\n  swap1\n  pop\n  jump\t// out\n    /* \"#utility.yul\":2846:2906   */\ntag_35:\n    /* \"#utility.yul\":2874:2877   */\n  0x00\n    /* \"#utility.yul\":2895:2900   */\n  dup2\n    /* \"#utility.yul\":2888:2900   */\n  swap1\n  pop\n    /* \"#utility.yul\":2846:2906   */\n  swap2\n  swap1\n  pop\n  jump\t// out\n    /* \"#utility.yul\":2912:3054   */\ntag_36:\n    /* \"#utility.yul\":2962:2971   */\n  0x00\n    /* \"#utility.yul\":2995:3048   */\n  tag_83\n    /* \"#utility.yul\":3013:3047   */\n  tag_84\n    /* \"#utility.yul\":3022:3046   */\n  tag_85\n    /* \"#utility.yul\":3040:3045   */\n  dup5\n    /* \"#utility.yul\":3022:3046   */\n  tag_34\n  jump\t// in\ntag_85:\n    /* \"#utility.yul\":3013:3047   */\n  tag_35\n  jump\t// in\ntag_84:\n    /* \"#utility.yul\":2995:3048   */\n  tag_34\n  jump\t// in\ntag_83:\n    /* \"#utility.yul\":2982:3048   */\n  swap1\n  pop\n    /* \"#utility.yul\":2912:3054   */\n  swap2\n  swap1\n  pop\n  jump\t// out\n    /* \"#utility.yul\":3060:3135   */\ntag_37:\n    /* \"#utility.yul\":3103:3106   */\n  0x00\n    /* \"#utility.yul\":3124:3129   */\n  dup2\n    /* \"#utility.yul\":3117:3129   */\n  swap1\n  pop\n    /* \"#utility.yul\":3060:3135   */\n  swap2\n  swap1\n  pop\n  jump\t// out\n    /* \"#utility.yul\":3141:3410   */\ntag_38:\n    /* \"#utility.yul\":3251:3290   */\n  tag_88\n    /* \"#utility.yul\":3282:3289   */\n  dup4\n    /* \"#utility.yul\":3251:3290   */\n  tag_36\n  jump\t// in\ntag_88:\n    /* \"#utility.yul\":3312:3403   */\n  tag_89\n    /* \"#utility.yul\":3361:3402   */\n  tag_90\n    /* \"#utility.yul\":3385:3401   */\n  dup3\n    /* \"#utility.yul\":3361:3402   */\n  tag_37\n  jump\t// in\ntag_90:\n    /* \"#utility.yul\":3353:3359   */\n  dup5\n    /* \"#utility.yul\":3346:3350   */\n  dup5\n    /* \"#utility.yul\":3340:3351   */\n  sload\n    /* \"#utility.yul\":3312:3403   */\n  tag_33\n  jump\t// in\ntag_89:\n    /* \"#utility.yul\":3306:3310   */\n  dup3\n    /* \"#utility.yul\":3299:3404   */\n  sstore\n    /* \"#utility.yul\":3217:3410   */\n  pop\n    /* \"#utility.yul\":3141:3410   */\n  pop\n  pop\n  pop\n  jump\t// out\n    /* \"#utility.yul\":3416:3489   */\ntag_39:\n    /* \"#utility.yul\":3461:3464   */\n  0x00\n    /* \"#utility.yul\":3416:3489   */\n  swap1\n  jump\t// out\n    /* \"#utility.yul\":3495:3684   */\ntag_40:\n    /* \"#utility.yul\":3572:3604   */\n  tag_93\n  tag_39\n  jump\t// in\ntag_93:\n    /* \"#utility.yul\":3613:3678   */\n  tag_94\n    /* \"#utility.yul\":3671:3677   */\n  dup2\n    /* \"#utility.yul\":3663:3669   */\n  dup5\n    /* \"#utility.yul\":3657:3661   */\n  dup5\n    /* \"#utility.yul\":3613:3678   */\n  tag_38\n  jump\t// in\ntag_94:\n    /* \"#utility.yul\":3548:3684   */\n  pop\n    /* \"#utility.yul\":3495:3684   */\n  pop\n  pop\n  jump\t// out\n    /* \"#utility.yul\":3690:3876   */\ntag_41:\n    /* \"#utility.yul\":3750:3870   */\ntag_96:\n    /* \"#utility.yul\":3767:3770   */\n  dup2\n    /* \"#utility.yul\":3760:3765   */\n  dup2\n    /* \"#utility.yul\":3757:3771   */\n  lt\n    /* \"#utility.yul\":3750:3870   */\n  iszero\n  tag_98\n  jumpi\n    /* \"#utility.yul\":3821:3860   */\n  tag_99\n    /* \"#utility.yul\":3858:3859   */\n  0x00\n    /* \"#utility.yul\":3851:3856   */\n  dup3\n    /* \"#utility.yul\":3821:3860   */\n  tag_40\n  jump\t// in\ntag_99:\n    /* \"#utility.yul\":3794:3795   */\n  0x01\n    /* \"#utility.yul\":3787:3792   */\n  dup2\n    /* \"#utility.yul\":3783:3796   */\n  add\n    /* \"#utility.yul\":3774:3796   */\n  swap1\n  pop\n    /* \"#utility.yul\":3750:3870   */\n  jump(tag_96)\ntag_98:\n    /* \"#utility.yul\":3690:3876   */\n  pop\n  pop\n  jump\t// out\n    /* \"#utility.yul\":3882:4425   */\ntag_42:\n    /* \"#utility.yul\":3983:3985   */\n  0x1f\n    /* \"#utility.yul\":3978:3981   */\n  dup3\n    /* \"#utility.yul\":3975:3986   */\n  gt\n    /* \"#utility.yul\":3972:4418   */\n  iszero\n  tag_101\n  jumpi\n    /* \"#utility.yul\":4017:4055   */\n  tag_102\n    /* \"#utility.yul\":4049:4054   */\n  dup2\n    /* \"#utility.yul\":4017:4055   */\n  tag_30\n  jump\t// in\ntag_102:\n    /* \"#utility.yul\":4101:4130   */\n  tag_103\n    /* \"#utility.yul\":4119:4129   */\n  dup5\n    /* \"#utility.yul\":4101:4130   */\n  tag_31\n  jump\t// in\ntag_103:\n    /* \"#utility.yul\":4091:4099   */\n  dup2\n    /* \"#utility.yul\":4087:4131   */\n  add\n    /* \"#utility.yul\":4284:4286   */\n  0x20\n    /* \"#utility.yul\":4272:4282   */\n  dup6\n    /* \"#utility.yul\":4269:4287   */\n  lt\n    /* \"#utility.yul\":4266:4315   */\n  iszero\n  tag_104\n  jumpi\n    /* \"#utility.yul\":4305:4313   */\n  dup2\n    /* \"#utility.yul\":4290:4313   */\n  swap1\n  pop\n    /* \"#utility.yul\":4266:4315   */\ntag_104:\n    /* \"#utility.yul\":4328:4408   */\n  tag_105\n    /* \"#utility.yul\":4384:4406   */\n  tag_106\n    /* \"#utility.yul\":4402:4405   */\n  dup6\n    /* \"#utility.yul\":4384:4406   */\n  tag_31\n  jump\t// in\ntag_106:\n    /* \"#utility.yul\":4374:4382   */\n  dup4\n    /* \"#utility.yul\":4370:4407   */\n  add\n    /* \"#utility.yul\":4357:4368   */\n  dup3\n    /* \"#utility.yul\":4328:4408   */\n  tag_41\n  jump\t// in\ntag_105:\n    /* \"#utility.yul\":3987:4418   */\n  pop\n  pop\n    /* \"#utility.yul\":3972:4418   */\ntag_101:\n    /* \"#utility.yul\":3882:4425   */\n  pop\n  pop\n  pop\n  jump\t// out\n    /* \"#utility.yul\":4431:4548   */\ntag_43:\n    /* \"#utility.yul\":4485:4493   */\n  0x00\n    /* \"#utility.yul\":4535:4540   */\n  dup3\n    /* \"#utility.yul\":4529:4533   */\n  dup3\n    /* \"#utility.yul\":4525:4541   */\n  shr\n    /* \"#utility.yul\":4504:4541   */\n  swap1\n  pop\n    /* \"#utility.yul\":4431:4548   */\n  swap3\n  swap2\n  pop\n  pop\n  jump\t// out\n    /* \"#utility.yul\":4554:4723   */\ntag_44:\n    /* \"#utility.yul\":4598:4604   */\n  0x00\n    /* \"#utility.yul\":4631:4682   */\n  tag_109\n    /* \"#utility.yul\":4679:4680   */\n  0x00\n    /* \"#utility.yul\":4675:4681   */\n  not\n    /* \"#utility.yul\":4667:4672   */\n  dup5\n    /* \"#utility.yul\":4664:4665   */\n  0x08\n    /* \"#utility.yul\":4660:4673   */\n  mul\n    /* \"#utility.yul\":4631:4682   */\n  tag_43\n  jump\t// in\ntag_109:\n    /* \"#utility.yul\":4627:4683   */\n  not\n    /* \"#utility.yul\":4712:4716   */\n  dup1\n    /* \"#utility.yul\":4706:4710   */\n  dup4\n    /* \"#utility.yul\":4702:4717   */\n  and\n    /* \"#utility.yul\":4692:4717   */\n  swap2\n  pop\n    /* \"#utility.yul\":4605:4723   */\n  pop\n    /* \"#utility.yul\":4554:4723   */\n  swap3\n  swap2\n  pop\n  pop\n  jump\t// out\n    /* \"#utility.yul\":4728:5023   */\ntag_45:\n    /* \"#utility.yul\":4804:4808   */\n  0x00\n    /* \"#utility.yul\":4950:4979   */\n  tag_111\n    /* \"#utility.yul\":4975:4978   */\n  dup4\n    /* \"#utility.yul\":4969:4973   */\n  dup4\n    /* \"#utility.yul\":4950:4979   */\n  tag_44\n  jump\t// in\ntag_111:\n    /* \"#utility.yul\":4942:4979   */\n  swap2\n  pop\n    /* \"#utility.yul\":5012:5015   */\n  dup3\n    /* \"#utility.yul\":5009:5010   */\n  0x02\n    /* \"#utility.yul\":5005:5016   */\n  mul\n    /* \"#utility.yul\":4999:5003   */\n  dup3\n    /* \"#utility.yul\":4996:5017   */\n  or\n    /* \"#utility.yul\":4988:5017   */\n  swap1\n  pop\n    /* \"#utility.yul\":4728:5023   */\n  swap3\n  swap2\n  pop\n  pop\n  jump\t// out\n    /* \"#utility.yul\":5028:6423   */\ntag_11:\n    /* \"#utility.yul\":5145:5182   */\n  tag_113\n    /* \"#utility.yul\":5178:5181   */\n  dup3\n    /* \"#utility.yul\":5145:5182   */\n  tag_26\n  jump\t// in\ntag_113:\n    /* \"#utility.yul\":5247:5265   */\n  0xffffffffffffffff\n    /* \"#utility.yul\":5239:5245   */\n  dup2\n    /* \"#utility.yul\":5236:5266   */\n  gt\n    /* \"#utility.yul\":5233:5289   */\n  iszero\n  tag_114\n  jumpi\n    /* \"#utility.yul\":5269:5287   */\n  tag_115\n  tag_27\n  jump\t// in\ntag_115:\n    /* \"#utility.yul\":5233:5289   */\ntag_114:\n    /* \"#utility.yul\":5313:5351   */\n  tag_116\n    /* \"#utility.yul\":5345:5349   */\n  dup3\n    /* \"#utility.yul\":5339:5350   */\n  sload\n    /* \"#utility.yul\":5313:5351   */\n  tag_29\n  jump\t// in\ntag_116:\n    /* \"#utility.yul\":5398:5465   */\n  tag_117\n    /* \"#utility.yul\":5458:5464   */\n  dup3\n    /* \"#utility.yul\":5450:5456   */\n  dup3\n    /* \"#utility.yul\":5444:5448   */\n  dup6\n    /* \"#utility.yul\":5398:5465   */\n  tag_42\n  jump\t// in\ntag_117:\n    /* \"#utility.yul\":5492:5493   */\n  0x00\n    /* \"#utility.yul\":5516:5520   */\n  0x20\n    /* \"#utility.yul\":5503:5520   */\n  swap1\n  pop\n    /* \"#utility.yul\":5548:5550   */\n  0x1f\n    /* \"#utility.yul\":5540:5546   */\n  dup4\n    /* \"#utility.yul\":5537:5551   */\n  gt\n    /* \"#utility.yul\":5565:5566   */\n  0x01\n    /* \"#utility.yul\":5560:6178   */\n  dup2\n  eq\n  tag_119\n  jumpi\n    /* \"#utility.yul\":6222:6223   */\n  0x00\n    /* \"#utility.yul\":6239:6245   */\n  dup5\n    /* \"#utility.yul\":6236:6313   */\n  iszero\n  tag_120\n  jumpi\n    /* \"#utility.yul\":6288:6297   */\n  dup3\n    /* \"#utility.yul\":6283:6286   */\n  dup8\n    /* \"#utility.yul\":6279:6298   */\n  add\n    /* \"#utility.yul\":6273:6299   */\n  mload\n    /* \"#utility.yul\":6264:6299   */\n  swap1\n  pop\n    /* \"#utility.yul\":6236:6313   */\ntag_120:\n    /* \"#utility.yul\":6339:6406   */\n  tag_121\n    /* \"#utility.yul\":6399:6405   */\n  dup6\n    /* \"#utility.yul\":6392:6397   */\n  dup3\n    /* \"#utility.yul\":6339:6406   */\n  tag_45\n  jump\t// in\ntag_121:\n    /* \"#utility.yul\":6333:6337   */\n  dup7\n    /* \"#utility.yul\":6326:6407   */\n  sstore\n    /* \"#utility.yul\":6195:6417   */\n  pop\n    /* \"#utility.yul\":5530:6417   */\n  jump(tag_118)\n    /* \"#utility.yul\":5560:6178   */\ntag_119:\n    /* \"#utility.yul\":5612:5616   */\n  0x1f\n    /* \"#utility.yul\":5608:5617   */\n  not\n    /* \"#utility.yul\":5600:5606   */\n  dup5\n    /* \"#utility.yul\":5596:5618   */\n  and\n    /* \"#utility.yul\":5646:5683   */\n  tag_122\n    /* \"#utility.yul\":5678:5682   */\n  dup7\n    /* \"#utility.yul\":5646:5683   */\n  tag_30\n  jump\t// in\ntag_122:\n    /* \"#utility.yul\":5705:5706   */\n  0x00\n    /* \"#utility.yul\":5719:5927   */\ntag_123:\n    /* \"#utility.yul\":5733:5740   */\n  dup3\n    /* \"#utility.yul\":5730:5731   */\n  dup2\n    /* \"#utility.yul\":5727:5741   */\n  lt\n    /* \"#utility.yul\":5719:5927   */\n  iszero\n  tag_125\n  jumpi\n    /* \"#utility.yul\":5812:5821   */\n  dup5\n    /* \"#utility.yul\":5807:5810   */\n  dup10\n    /* \"#utility.yul\":5803:5822   */\n  add\n    /* \"#utility.yul\":5797:5823   */\n  mload\n    /* \"#utility.yul\":5789:5795   */\n  dup3\n    /* \"#utility.yul\":5782:5824   */\n  sstore\n    /* \"#utility.yul\":5863:5864   */\n  0x01\n    /* \"#utility.yul\":5855:5861   */\n  dup3\n    /* \"#utility.yul\":5851:5865   */\n  add\n    /* \"#utility.yul\":5841:5865   */\n  swap2\n  pop\n    /* \"#utility.yul\":5910:5912   */\n  0x20\n    /* \"#utility.yul\":5899:5908   */\n  dup6\n    /* \"#utility.yul\":5895:5913   */\n  add\n    /* \"#utility.yul\":5882:5913   */\n  swap5\n  pop\n    /* \"#utility.yul\":5756:5760   */\n  0x20\n    /* \"#utility.yul\":5753:5754   */\n  dup2\n    /* \"#utility.yul\":5749:5761   */\n  add\n    /* \"#utility.yul\":5744:5761   */\n  swap1\n  pop\n    /* \"#utility.yul\":5719:5927   */\n  jump(tag_123)\ntag_125:\n    /* \"#utility.yul\":5955:5961   */\n  dup7\n    /* \"#utility.yul\":5946:5953   */\n  dup4\n    /* \"#utility.yul\":5943:5962   */\n  lt\n    /* \"#utility.yul\":5940:6119   */\n  iszero\n  tag_126\n  jumpi\n    /* \"#utility.yul\":6013:6022   */\n  dup5\n    /* \"#utility.yul\":6008:6011   */\n  dup10\n    /* \"#utility.yul\":6004:6023   */\n  add\n    /* \"#utility.yul\":5998:6024   */\n  mload\n    /* \"#utility.yul\":6056:6104   */\n  tag_127\n    /* \"#utility.yul\":6098:6102   */\n  0x1f\n    /* \"#utility.yul\":6090:6096   */\n  dup10\n    /* \"#utility.yul\":6086:6103   */\n  and\n    /* \"#utility.yul\":6075:6084   */\n  dup3\n    /* \"#utility.yul\":6056:6104   */\n  tag_44\n  jump\t// in\ntag_127:\n    /* \"#utility.yul\":6048:6054   */\n  dup4\n    /* \"#utility.yul\":6041:6105   */\n  sstore\n    /* \"#utility.yul\":5963:6119   */\n  pop\n    /* \"#utility.yul\":5940:6119   */\ntag_126:\n    /* \"#utility.yul\":6165:6166   */\n  0x01\n    /* \"#utility.yul\":6161:6162   */\n  0x02\n    /* \"#utility.yul\":6153:6159   */\n  dup9\n    /* \"#utility.yul\":6149:6163   */\n  mul\n    /* \"#utility.yul\":6145:6167   */\n  add\n    /* \"#utility.yul\":6139:6143   */\n  dup9\n    /* \"#utility.yul\":6132:6168   */\n  sstore\n    /* \"#utility.yul\":5567:6178   */\n  pop\n  pop\n  pop\n    /* \"#utility.yul\":5530:6417   */\ntag_118:\n  pop\n    /* \"#utility.yul\":5120:6423   */\n  pop\n  pop\n  pop\n    /* \"#utility.yul\":5028:6423   */\n  pop\n  pop\n  jump\t// out\n    /* \"#utility.yul\":6429:6609   */\ntag_46:\n    /* \"#utility.yul\":6477:6554   */\n  0x4e487b7100000000000000000000000000000000000000000000000000000000\n    /* \"#utility.yul\":6474:6475   */\n  0x00\n    /* \"#utility.yul\":6467:6555   */\n  mstore\n    /* \"#utility.yul\":6574:6578   */\n  0x11\n    /* \"#utility.yul\":6571:6572   */\n  0x04\n    /* \"#utility.yul\":6564:6579   */\n  mstore\n    /* \"#utility.yul\":6598:6602   */\n  0x24\n    /* \"#utility.yul\":6595:6596   */\n  0x00\n    /* \"#utility.yul\":6588:6603   */\n  revert\n    /* \"#utility.yul\":6615:6717   */\ntag_47:\n    /* \"#utility.yul\":6657:6665   */\n  0x00\n    /* \"#utility.yul\":6704:6709   */\n  dup2\n    /* \"#utility.yul\":6701:6702   */\n  0x01\n    /* \"#utility.yul\":6697:6710   */\n  shr\n    /* \"#utility.yul\":6676:6710   */\n  swap1\n  pop\n    /* \"#utility.yul\":6615:6717   */\n  swap2\n  swap1\n  pop\n  jump\t// out\n    /* \"#utility.yul\":6723:7571   */\ntag_48:\n    /* \"#utility.yul\":6784:6789   */\n  0x00\n    /* \"#utility.yul\":6791:6795   */\n  dup1\n    /* \"#utility.yul\":6815:6821   */\n  dup3\n    /* \"#utility.yul\":6806:6821   */\n  swap2\n  pop\n    /* \"#utility.yul\":6839:6844   */\n  dup4\n    /* \"#utility.yul\":6830:6844   */\n  swap1\n  pop\n    /* \"#utility.yul\":6853:7565   */\ntag_131:\n    /* \"#utility.yul\":6874:6875   */\n  0x01\n    /* \"#utility.yul\":6864:6872   */\n  dup6\n    /* \"#utility.yul\":6861:6876   */\n  gt\n    /* \"#utility.yul\":6853:7565   */\n  iszero\n  tag_133\n  jumpi\n    /* \"#utility.yul\":6969:6973   */\n  dup1\n    /* \"#utility.yul\":6964:6967   */\n  dup7\n    /* \"#utility.yul\":6960:6974   */\n  div\n    /* \"#utility.yul\":6954:6958   */\n  dup2\n    /* \"#utility.yul\":6951:6975   */\n  gt\n    /* \"#utility.yul\":6948:6998   */\n  iszero\n  tag_134\n  jumpi\n    /* \"#utility.yul\":6978:6996   */\n  tag_135\n  tag_46\n  jump\t// in\ntag_135:\n    /* \"#utility.yul\":6948:6998   */\ntag_134:\n    /* \"#utility.yul\":7028:7029   */\n  0x01\n    /* \"#utility.yul\":7018:7026   */\n  dup6\n    /* \"#utility.yul\":7014:7030   */\n  and\n    /* \"#utility.yul\":7011:7462   */\n  iszero\n  tag_136\n  jumpi\n    /* \"#utility.yul\":7443:7447   */\n  dup1\n    /* \"#utility.yul\":7436:7441   */\n  dup3\n    /* \"#utility.yul\":7432:7448   */\n  mul\n    /* \"#utility.yul\":7423:7448   */\n  swap2\n  pop\n    /* \"#utility.yul\":7011:7462   */\ntag_136:\n    /* \"#utility.yul\":7493:7497   */\n  dup1\n    /* \"#utility.yul\":7487:7491   */\n  dup2\n    /* \"#utility.yul\":7483:7498   */\n  mul\n    /* \"#utility.yul\":7475:7498   */\n  swap1\n  pop\n    /* \"#utility.yul\":7523:7555   */\n  tag_137\n    /* \"#utility.yul\":7546:7554   */\n  dup6\n    /* \"#utility.yul\":7523:7555   */\n  tag_47\n  jump\t// in\ntag_137:\n    /* \"#utility.yul\":7511:7555   */\n  swap5\n  pop\n    /* \"#utility.yul\":6853:7565   */\n  jump(tag_131)\ntag_133:\n    /* \"#utility.yul\":6723:7571   */\n  swap5\n  pop\n  swap5\n  swap3\n  pop\n  pop\n  pop\n  jump\t// out\n    /* \"#utility.yul\":7577:8650   */\ntag_49:\n    /* \"#utility.yul\":7631:7636   */\n  0x00\n    /* \"#utility.yul\":7822:7830   */\n  dup3\n    /* \"#utility.yul\":7812:7852   */\n  tag_139\n  jumpi\n    /* \"#utility.yul\":7843:7844   */\n  0x01\n    /* \"#utility.yul\":7834:7844   */\n  swap1\n  pop\n    /* \"#utility.yul\":7845:7850   */\n  jump(tag_138)\n    /* \"#utility.yul\":7812:7852   */\ntag_139:\n    /* \"#utility.yul\":7871:7875   */\n  dup2\n    /* \"#utility.yul\":7861:7897   */\n  tag_140\n  jumpi\n    /* \"#utility.yul\":7888:7889   */\n  0x00\n    /* \"#utility.yul\":7879:7889   */\n  swap1\n  pop\n    /* \"#utility.yul\":7890:7895   */\n  jump(tag_138)\n    /* \"#utility.yul\":7861:7897   */\ntag_140:\n    /* \"#utility.yul\":7957:7961   */\n  dup2\n    /* \"#utility.yul\":8005:8006   */\n  0x01\n    /* \"#utility.yul\":8000:8027   */\n  dup2\n  eq\n  tag_142\n  jumpi\n    /* \"#utility.yul\":8041:8042   */\n  0x02\n    /* \"#utility.yul\":8036:8227   */\n  dup2\n  eq\n  tag_143\n  jumpi\n    /* \"#utility.yul\":7950:8227   */\n  jump(tag_141)\n    /* \"#utility.yul\":8000:8027   */\ntag_142:\n    /* \"#utility.yul\":8018:8019   */\n  0x01\n    /* \"#utility.yul\":8009:8019   */\n  swap2\n  pop\n    /* \"#utility.yul\":8020:8025   */\n  pop\n  jump(tag_138)\n    /* \"#utility.yul\":8036:8227   */\ntag_143:\n    /* \"#utility.yul\":8081:8084   */\n  0xff\n    /* \"#utility.yul\":8071:8079   */\n  dup5\n    /* \"#utility.yul\":8068:8085   */\n  gt\n    /* \"#utility.yul\":8065:8108   */\n  iszero\n  tag_144\n  jumpi\n    /* \"#utility.yul\":8088:8106   */\n  tag_145\n  tag_46\n  jump\t// in\ntag_145:\n    /* \"#utility.yul\":8065:8108   */\ntag_144:\n    /* \"#utility.yul\":8137:8145   */\n  dup4\n    /* \"#utility.yul\":8134:8135   */\n  0x02\n    /* \"#utility.yul\":8130:8146   */\n  exp\n    /* \"#utility.yul\":8121:8146   */\n  swap2\n  pop\n    /* \"#utility.yul\":8172:8175   */\n  dup5\n    /* \"#utility.yul\":8165:8170   */\n  dup3\n    /* \"#utility.yul\":8162:8176   */\n  gt\n    /* \"#utility.yul\":8159:8199   */\n  iszero\n  tag_146\n  jumpi\n    /* \"#utility.yul\":8179:8197   */\n  tag_147\n  tag_46\n  jump\t// in\ntag_147:\n    /* \"#utility.yul\":8159:8199   */\ntag_146:\n    /* \"#utility.yul\":8212:8217   */\n  pop\n  jump(tag_138)\n    /* \"#utility.yul\":7950:8227   */\ntag_141:\n  pop\n    /* \"#utility.yul\":8336:8338   */\n  0x20\n    /* \"#utility.yul\":8326:8334   */\n  dup4\n    /* \"#utility.yul\":8323:8339   */\n  lt\n    /* \"#utility.yul\":8317:8320   */\n  0x0133\n    /* \"#utility.yul\":8311:8315   */\n  dup4\n    /* \"#utility.yul\":8308:8321   */\n  lt\n    /* \"#utility.yul\":8304:8340   */\n  and\n    /* \"#utility.yul\":8286:8288   */\n  0x4e\n    /* \"#utility.yul\":8276:8284   */\n  dup5\n    /* \"#utility.yul\":8273:8289   */\n  lt\n    /* \"#utility.yul\":8268:8270   */\n  0x0b\n    /* \"#utility.yul\":8262:8266   */\n  dup5\n    /* \"#utility.yul\":8259:8271   */\n  lt\n    /* \"#utility.yul\":8255:8290   */\n  and\n    /* \"#utility.yul\":8239:8350   */\n  or\n    /* \"#utility.yul\":8236:8482   */\n  iszero\n  tag_148\n  jumpi\n    /* \"#utility.yul\":8392:8400   */\n  dup3\n    /* \"#utility.yul\":8386:8390   */\n  dup3\n    /* \"#utility.yul\":8382:8401   */\n  exp\n    /* \"#utility.yul\":8373:8401   */\n  swap1\n  pop\n    /* \"#utility.yul\":8427:8430   */\n  dup4\n    /* \"#utility.yul\":8420:8425   */\n  dup2\n    /* \"#utility.yul\":8417:8431   */\n  gt\n    /* \"#utility.yul\":8414:8454   */\n  iszero\n  tag_149\n  jumpi\n    /* \"#utility.yul\":8434:8452   */\n  tag_150\n  tag_46\n  jump\t// in\ntag_150:\n    /* \"#utility.yul\":8414:8454   */\ntag_149:\n    /* \"#utility.yul\":8467:8472   */\n  jump(tag_138)\n    /* \"#utility.yul\":8236:8482   */\ntag_148:\n    /* \"#utility.yul\":8507:8549   */\n  tag_151\n    /* \"#utility.yul\":8545:8548   */\n  dup5\n    /* \"#utility.yul\":8535:8543   */\n  dup5\n    /* \"#utility.yul\":8529:8533   */\n  dup5\n    /* \"#utility.yul\":8526:8527   */\n  0x01\n    /* \"#utility.yul\":8507:8549   */\n  tag_48\n  jump\t// in\ntag_151:\n    /* \"#utility.yul\":8492:8549   */\n  swap3\n  pop\n  swap1\n  pop\n    /* \"#utility.yul\":8581:8585   */\n  dup2\n    /* \"#utility.yul\":8576:8579   */\n  dup5\n    /* \"#utility.yul\":8572:8586   */\n  div\n    /* \"#utility.yul\":8565:8570   */\n  dup2\n    /* \"#utility.yul\":8562:8587   */\n  gt\n    /* \"#utility.yul\":8559:8610   */\n  iszero\n  tag_152\n  jumpi\n    /* \"#utility.yul\":8590:8608   */\n  tag_153\n  tag_46\n  jump\t// in\ntag_153:\n    /* \"#utility.yul\":8559:8610   */\ntag_152:\n    /* \"#utility.yul\":8639:8643   */\n  dup2\n    /* \"#utility.yul\":8632:8637   */\n  dup2\n    /* \"#utility.yul\":8628:8644   */\n  mul\n    /* \"#utility.yul\":8619:8644   */\n  swap1\n  pop\n    /* \"#utility.yul\":7577:8650   */\ntag_138:\n  swap4\n  swap3\n  pop\n  pop\n  pop\n  jump\t// out\n    /* \"#utility.yul\":8656:8742   */\ntag_50:\n    /* \"#utility.yul\":8691:8698   */\n  0x00\n    /* \"#utility.yul\":8731:8735   */\n  0xff\n    /* \"#utility.yul\":8724:8729   */\n  dup3\n    /* \"#utility.yul\":8720:8736   */\n  and\n    /* \"#utility.yul\":8709:8736   */\n  swap1\n  pop\n    /* \"#utility.yul\":8656:8742   */\n  swap2\n  swap1\n  pop\n  jump\t// out\n    /* \"#utility.yul\":8748:9029   */\ntag_14:\n    /* \"#utility.yul\":8806:8811   */\n  0x00\n    /* \"#utility.yul\":8830:8853   */\n  tag_156\n    /* \"#utility.yul\":8848:8852   */\n  dup3\n    /* \"#utility.yul\":8830:8853   */\n  tag_34\n  jump\t// in\ntag_156:\n    /* \"#utility.yul\":8822:8853   */\n  swap2\n  pop\n    /* \"#utility.yul\":8874:8899   */\n  tag_157\n    /* \"#utility.yul\":8890:8898   */\n  dup4\n    /* \"#utility.yul\":8874:8899   */\n  tag_50\n  jump\t// in\ntag_157:\n    /* \"#utility.yul\":8862:8899   */\n  swap3\n  pop\n    /* \"#utility.yul\":8918:9022   */\n  tag_158\n    /* \"#utility.yul\":8955:9021   */\n  0xffffffffffffffffffffffffffffffffffffffffffffffffffffffffffffffff\n    /* \"#utility.yul\":8945:8953   */\n  dup5\n    /* \"#utility.yul\":8939:8943   */\n  dup5\n    /* \"#utility.yul\":8918:9022   */\n  tag_49\n  jump\t// in\ntag_158:\n    /* \"#utility.yul\":8909:9022   */\n  swap1\n  pop\n    /* \"#utility.yul\":8748:9029   */\n  swap3\n  swap2\n  pop\n  pop\n  jump\t// out\n    /* \"#utility.yul\":9035:9445   */\ntag_16:\n    /* \"#utility.yul\":9075:9082   */\n  0x00\n    /* \"#utility.yul\":9098:9118   */\n  tag_160\n    /* \"#utility.yul\":9116:9117   */\n  dup3\n    /* \"#utility.yul\":9098:9118   */\n  tag_34\n  jump\t// in\ntag_160:\n    /* \"#utility.yul\":9093:9118   */\n  swap2\n  pop\n    /* \"#utility.yul\":9132:9152   */\n  tag_161\n    /* \"#utility.yul\":9150:9151   */\n  dup4\n    /* \"#utility.yul\":9132:9152   */\n  tag_34\n  jump\t// in\ntag_161:\n    /* \"#utility.yul\":9127:9152   */\n  swap3\n  pop\n    /* \"#utility.yul\":9187:9188   */\n  dup3\n    /* \"#utility.yul\":9184:9185   */\n  dup3\n    /* \"#utility.yul\":9180:9189   */\n  mul\n    /* \"#utility.yul\":9209:9239   */\n  tag_162\n    /* \"#utility.yul\":9227:9238   */\n  dup2\n    /* \"#utility.yul\":9209:9239   */\n  tag_34\n  jump\t// in\ntag_162:\n    /* \"#utility.yul\":9198:9239   */\n  swap2\n  pop\n    /* \"#utility.yul\":9388:9389   */\n  dup3\n    /* \"#utility.yul\":9379:9386   */\n  dup3\n    /* \"#utility.yul\":9375:9390   */\n  div\n    /* \"#utility.yul\":9372:9373   */\n  dup5\n    /* \"#utility.yul\":9369:9391   */\n  eq\n    /* \"#utility.yul\":9349:9350   */\n  dup4\n    /* \"#utility.yul\":9342:9351   */\n  iszero\n    /* \"#utility.yul\":9322:9405   */\n  or\n    /* \"#utility.yul\":9299:9438   */\n  tag_163\n  jumpi\n    /* \"#utility.yul\":9418:9436   */\n  tag_164\n  tag_46\n  jump\t// in\ntag_164:\n    /* \"#utility.yul\":9299:9438   */\ntag_163:\n    /* \"#utility.yul\":9083:9445   */\n  pop\n    /* \"#utility.yul\":9035:9445   */\n  swap3\n  swap2\n  pop\n  pop\n  jump\t// out\n    /* \"contracts/legacy/Pandora.sol\":138:2231  contract Pandora is ERC404Legacy {... */\ntag_18:\n  mload(0x80)\n  mload(0xa0)\n  codecopy(0x00, dataOffset(sub_0), dataSize(sub_0))\n  0x00\n  assignImmutable(\"0xdbae32e539e8739fc624de6baca4733f021b71f9ebe8eab474497b82fc314c90\")\n  0x00\n  assignImmutable(\"0x8daa2fd0bd035dbe856aeb0cf4a9c58ddc36a58ca2b562643b5027489d09ec1b\")\n  return(0x00, dataSize(sub_0))\nstop\n\nsub_0: assembly {\n        /* \"contracts/legacy/Pandora.sol\":138:2231  contract Pandora is ERC404Legacy {... */\n      mstore(0x40, 0x80)\n      callvalue\n      dup1\n      iszero\n      tag_1\n      jumpi\n      0x00\n      dup1\n      revert\n    tag_1:\n      pop\n      jumpi(tag_2, lt(calldatasize, 0x04))\n      shr(0xe0, calldataload(0x00))\n      dup1\n      0x70a08231\n      gt\n      tag_30\n      jumpi\n      dup1\n      0xc87b56dd\n      gt\n      tag_31\n      jumpi\n      dup1\n      0xe0df5b6f\n      gt\n      tag_32\n      jumpi\n      dup1\n      0xe0df5b6f\n      eq\n      tag_26\n      jumpi\n      dup1\n      0xe985e9c5\n      eq\n      tag_27\n      jumpi\n      dup1\n      0xf28ca1dd\n      eq\n      tag_28\n      jumpi\n      dup1\n      0xf2fde38b\n      eq\n      tag_29\n      jumpi\n      jump(tag_2)\n    tag_32:\n      dup1\n      0xc87b56dd\n      eq\n      tag_23\n      jumpi\n      dup1\n      0xd547cfb7\n      eq\n      tag_24\n      jumpi\n      dup1\n      0xdd62ed3e\n      eq\n      tag_25\n      jumpi\n      jump(tag_2)\n    tag_31:\n      dup1\n      0x9b19251a\n      gt\n      tag_33\n      jumpi\n      dup1\n      0x9b19251a\n      eq\n      tag_19\n      jumpi\n      dup1\n      0xa22cb465\n      eq\n      tag_20\n      jumpi\n      dup1\n      0xa9059cbb\n      eq\n      tag_21\n      jumpi\n      dup1\n      0xb88d4fde\n      eq\n      tag_22\n      jumpi\n      jump(tag_2)\n    tag_33:\n      dup1\n      0x70a08231\n      eq\n      tag_16\n      jumpi\n      dup1\n      0x8da5cb5b\n      eq\n      tag_17\n      jumpi\n      dup1\n      0x95d89b41\n      eq\n      tag_18\n      jumpi\n      jump(tag_2)\n    tag_30:\n      dup1\n      0x2b968958\n      gt\n      tag_34\n      jumpi\n      dup1\n      0x4f02c420\n      gt\n      tag_35\n      jumpi\n      dup1\n      0x4f02c420\n      eq\n      tag_12\n      jumpi\n      dup1\n      0x504334c2\n      eq\n      tag_13\n      jumpi\n      dup1\n      0x53d6fd59\n      eq\n      tag_14\n      jumpi\n      dup1\n      0x6352211e\n      eq\n      tag_15\n      jumpi\n      jump(tag_2)\n    tag_35:\n      dup1\n      0x2b968958\n      eq\n      tag_9\n      jumpi\n      dup1\n      0x313ce567\n      eq\n      tag_10\n      jumpi\n      dup1\n      0x42842e0e\n      eq\n      tag_11\n      jumpi\n      jump(tag_2)\n    tag_34:\n      dup1\n      0x06fdde03\n      eq\n      tag_3\n      jumpi\n      dup1\n      0x081812fc\n      eq\n      tag_4\n      jumpi\n      dup1\n      0x095ea7b3\n      eq\n      tag_5\n      jumpi\n      dup1\n      0x18160ddd\n      eq\n      tag_6\n      jumpi\n      dup1\n      0x18d217c3\n      eq\n      tag_7\n      jumpi\n      dup1\n      0x23b872dd\n      eq\n      tag_8\n      jumpi\n    tag_2:\n      0x00\n      dup1\n      revert\n        /* \"contracts/legacy/ERC404Legacy.sol\":2473:2491  string public name */\n    tag_3:\n      tag_36\n      tag_37\n      jump\t// in\n    tag_36:\n      mload(0x40)\n      tag_38\n      swap2\n      swap1\n      tag_39\n      jump\t// in\n    tag_38:\n      mload(0x40)\n      dup1\n      swap2\n      sub\n      swap1\n      return\n        /* \"contracts/legacy/ERC404Legacy.sol\":3132:3178  mapping(uint256 => address) public getApproved */\n    tag_4:\n      tag_40\n      0x04\n      dup1\n      calldatasize\n      sub\n      dup2\n      add\n      swap1\n      tag_41\n      swap2\n      swap1\n      tag_42\n      jump\t// in\n    tag_41:\n      tag_43\n      jump\t// in\n    tag_40:\n      mload(0x40)\n      tag_44\n      swap2\n      swap1\n      tag_45\n      jump\t// in\n    tag_44:\n      mload(0x40)\n      dup1\n      swap2\n      sub\n      swap1\n      return\n        /* \"contracts/legacy/ERC404Legacy.sol\":4802:5345  function approve(... */\n    tag_5:\n      tag_46\n      0x04\n      dup1\n      calldatasize\n      sub\n      dup2\n      add\n      swap1\n      tag_47\n      swap2\n      swap1\n      tag_48\n      jump\t// in\n    tag_47:\n      tag_49\n      jump\t// in\n    tag_46:\n      mload(0x40)\n      tag_50\n      swap2\n      swap1\n      tag_51\n      jump\t// in\n    tag_50:\n      mload(0x40)\n      dup1\n      swap2\n      sub\n      swap1\n      return\n        /* \"contracts/legacy/ERC404Legacy.sol\":2688:2724  uint256 public immutable totalSupply */\n    tag_6:\n      tag_52\n      tag_53\n      jump\t// in\n    tag_52:\n      mload(0x40)\n      tag_54\n      swap2\n      swap1\n      tag_55\n      jump\t// in\n    tag_54:\n      mload(0x40)\n      dup1\n      swap2\n      sub\n      swap1\n      return\n        /* \"contracts/legacy/Pandora.sol\":402:492  function setDataURI(string memory _dataURI) public onlyOwner {... */\n    tag_7:\n      tag_56\n      0x04\n      dup1\n      calldatasize\n      sub\n      dup2\n      add\n      swap1\n      tag_57\n      swap2\n      swap1\n      tag_58\n      jump\t// in\n    tag_57:\n      tag_59\n      jump\t// in\n    tag_56:\n      stop\n        /* \"contracts/legacy/ERC404Legacy.sol\":5721:7121  function transferFrom(... */\n    tag_8:\n      tag_60\n      0x04\n      dup1\n      calldatasize\n      sub\n      dup2\n      add\n      swap1\n      tag_61\n      swap2\n      swap1\n      tag_62\n      jump\t// in\n    tag_61:\n      tag_63\n      jump\t// in\n    tag_60:\n      stop\n        /* \"contracts/legacy/ERC404Legacy.sol\":703:840  function revokeOwnership() public virtual onlyOwner {... */\n    tag_9:\n      tag_64\n      tag_65\n      jump\t// in\n    tag_64:\n      stop\n        /* \"contracts/legacy/ERC404Legacy.sol\":2595:2626  uint8 public immutable decimals */\n    tag_10:\n      tag_66\n      tag_67\n      jump\t// in\n    tag_66:\n      mload(0x40)\n      tag_68\n      swap2\n      swap1\n      tag_69\n      jump\t// in\n    tag_68:\n      mload(0x40)\n      dup1\n      swap2\n      sub\n      swap1\n      return\n        /* \"contracts/legacy/ERC404Legacy.sol\":7370:7705  function safeTransferFrom(... */\n    tag_11:\n      tag_70\n      0x04\n      dup1\n      calldatasize\n      sub\n      dup2\n      add\n      swap1\n      tag_71\n      swap2\n      swap1\n      tag_62\n      jump\t// in\n    tag_71:\n      tag_72\n      jump\t// in\n    tag_70:\n      stop\n        /* \"contracts/legacy/ERC404Legacy.sol\":2816:2837  uint256 public minted */\n    tag_12:\n      tag_73\n      tag_74\n      jump\t// in\n    tag_73:\n      mload(0x40)\n      tag_75\n      swap2\n      swap1\n      tag_55\n      jump\t// in\n    tag_75:\n      mload(0x40)\n      dup1\n      swap2\n      sub\n      swap1\n      return\n        /* \"contracts/legacy/Pandora.sol\":598:735  function setNameSymbol(... */\n    tag_13:\n      tag_76\n      0x04\n      dup1\n      calldatasize\n      sub\n      dup2\n      add\n      swap1\n      tag_77\n      swap2\n      swap1\n      tag_78\n      jump\t// in\n    tag_77:\n      tag_79\n      jump\t// in\n    tag_76:\n      stop\n        /* \"contracts/legacy/ERC404Legacy.sol\":4189:4292  function setWhitelist(address target, bool state) public onlyOwner {... */\n    tag_14:\n      tag_80\n      0x04\n      dup1\n      calldatasize\n      sub\n      dup2\n      add\n      swap1\n      tag_81\n      swap2\n      swap1\n      tag_82\n      jump\t// in\n    tag_81:\n      tag_83\n      jump\t// in\n    tag_80:\n      stop\n        /* \"contracts/legacy/ERC404Legacy.sol\":4357:4524  function ownerOf(uint256 id) public view virtual returns (address owner) {... */\n    tag_15:\n      tag_84\n      0x04\n      dup1\n      calldatasize\n      sub\n      dup2\n      add\n      swap1\n      tag_85\n      swap2\n      swap1\n      tag_42\n      jump\t// in\n    tag_85:\n      tag_86\n      jump\t// in\n    tag_84:\n      mload(0x40)\n      tag_87\n      swap2\n      swap1\n      tag_45\n      jump\t// in\n    tag_87:\n      mload(0x40)\n      dup1\n      swap2\n      sub\n      swap1\n      return\n        /* \"contracts/legacy/ERC404Legacy.sol\":2912:2956  mapping(address => uint256) public balanceOf */\n    tag_16:\n      tag_88\n      0x04\n      dup1\n      calldatasize\n      sub\n      dup2\n      add\n      swap1\n      tag_89\n      swap2\n      swap1\n      tag_90\n      jump\t// in\n    tag_89:\n      tag_91\n      jump\t// in\n    tag_88:\n      mload(0x40)\n      tag_92\n      swap2\n      swap1\n      tag_55\n      jump\t// in\n    tag_92:\n      mload(0x40)\n      dup1\n      swap2\n      sub\n      swap1\n      return\n        /* \"contracts/legacy/ERC404Legacy.sol\":214:234  address public owner */\n    tag_17:\n      tag_93\n      tag_94\n      jump\t// in\n    tag_93:\n      mload(0x40)\n      tag_95\n      swap2\n      swap1\n      tag_45\n      jump\t// in\n    tag_95:\n      mload(0x40)\n      dup1\n      swap2\n      sub\n      swap1\n      return\n        /* \"contracts/legacy/ERC404Legacy.sol\":2520:2540  string public symbol */\n    tag_18:\n      tag_96\n      tag_97\n      jump\t// in\n    tag_96:\n      mload(0x40)\n      tag_98\n      swap2\n      swap1\n      tag_39\n      jump\t// in\n    tag_98:\n      mload(0x40)\n      dup1\n      swap2\n      sub\n      swap1\n      return\n        /* \"contracts/legacy/ERC404Legacy.sol\":3708:3749  mapping(address => bool) public whitelist */\n    tag_19:\n      tag_99\n      0x04\n      dup1\n      calldatasize\n      sub\n      dup2\n      add\n      swap1\n      tag_100\n      swap2\n      swap1\n      tag_90\n      jump\t// in\n    tag_100:\n      tag_101\n      jump\t// in\n    tag_99:\n      mload(0x40)\n      tag_102\n      swap2\n      swap1\n      tag_51\n      jump\t// in\n    tag_102:\n      mload(0x40)\n      dup1\n      swap2\n      sub\n      swap1\n      return\n        /* \"contracts/legacy/ERC404Legacy.sol\":5389:5582  function setApprovalForAll(address operator, bool approved) public virtual {... */\n    tag_20:\n      tag_103\n      0x04\n      dup1\n      calldatasize\n      sub\n      dup2\n      add\n      swap1\n      tag_104\n      swap2\n      swap1\n      tag_82\n      jump\t// in\n    tag_104:\n      tag_105\n      jump\t// in\n    tag_103:\n      stop\n        /* \"contracts/legacy/ERC404Legacy.sol\":7173:7300  function transfer(address to, uint256 amount) public virtual returns (bool) {... */\n    tag_21:\n      tag_106\n      0x04\n      dup1\n      calldatasize\n      sub\n      dup2\n      add\n      swap1\n      tag_107\n      swap2\n      swap1\n      tag_48\n      jump\t// in\n    tag_107:\n      tag_108\n      jump\t// in\n    tag_106:\n      mload(0x40)\n      tag_109\n      swap2\n      swap1\n      tag_51\n      jump\t// in\n    tag_109:\n      mload(0x40)\n      dup1\n      swap2\n      sub\n      swap1\n      return\n        /* \"contracts/legacy/ERC404Legacy.sol\":7793:8155  function safeTransferFrom(... */\n    tag_22:\n      tag_110\n      0x04\n      dup1\n      calldatasize\n      sub\n      dup2\n      add\n      swap1\n      tag_111\n      swap2\n      swap1\n      tag_112\n      jump\t// in\n    tag_111:\n      tag_113\n      jump\t// in\n    tag_110:\n      stop\n        /* \"contracts/legacy/Pandora.sol\":739:2229  function tokenURI(uint256 id) public view override returns (string memory) {... */\n    tag_23:\n      tag_114\n      0x04\n      dup1\n      calldatasize\n      sub\n      dup2\n      add\n      swap1\n      tag_115\n      swap2\n      swap1\n      tag_42\n      jump\t// in\n    tag_115:\n      tag_116\n      jump\t// in\n    tag_114:\n      mload(0x40)\n      tag_117\n      swap2\n      swap1\n      tag_39\n      jump\t// in\n    tag_117:\n      mload(0x40)\n      dup1\n      swap2\n      sub\n      swap1\n      return\n        /* \"contracts/legacy/Pandora.sol\":200:226  string public baseTokenURI */\n    tag_24:\n      tag_118\n      tag_119\n      jump\t// in\n    tag_118:\n      mload(0x40)\n      tag_120\n      swap2\n      swap1\n      tag_39\n      jump\t// in\n    tag_120:\n      mload(0x40)\n      dup1\n      swap2\n      sub\n      swap1\n      return\n        /* \"contracts/legacy/ERC404Legacy.sol\":3019:3083  mapping(address => mapping(address => uint256)) public allowance */\n    tag_25:\n      tag_121\n      0x04\n      dup1\n      calldatasize\n      sub\n      dup2\n      add\n      swap1\n      tag_122\n      swap2\n      swap1\n      tag_123\n      jump\t// in\n    tag_122:\n      tag_124\n      jump\t// in\n    tag_121:\n      mload(0x40)\n      tag_125\n      swap2\n      swap1\n      tag_55\n      jump\t// in\n    tag_125:\n      mload(0x40)\n      dup1\n      swap2\n      sub\n      swap1\n      return\n        /* \"contracts/legacy/Pandora.sol\":496:594  function setTokenURI(string memory _tokenURI) public onlyOwner {... */\n    tag_26:\n      tag_126\n      0x04\n      dup1\n      calldatasize\n      sub\n      dup2\n      add\n      swap1\n      tag_127\n      swap2\n      swap1\n      tag_58\n      jump\t// in\n    tag_127:\n      tag_128\n      jump\t// in\n    tag_126:\n      stop\n        /* \"contracts/legacy/ERC404Legacy.sol\":3236:3304  mapping(address => mapping(address => bool)) public isApprovedForAll */\n    tag_27:\n      tag_129\n      0x04\n      dup1\n      calldatasize\n      sub\n      dup2\n      add\n      swap1\n      tag_130\n      swap2\n      swap1\n      tag_123\n      jump\t// in\n    tag_130:\n      tag_131\n      jump\t// in\n    tag_129:\n      mload(0x40)\n      tag_132\n      swap2\n      swap1\n      tag_51\n      jump\t// in\n    tag_132:\n      mload(0x40)\n      dup1\n      swap2\n      sub\n      swap1\n      return\n        /* \"contracts/legacy/Pandora.sol\":175:196  string public dataURI */\n    tag_28:\n      tag_133\n      tag_134\n      jump\t// in\n    tag_133:\n      mload(0x40)\n      tag_135\n      swap2\n      swap1\n      tag_39\n      jump\t// in\n    tag_135:\n      mload(0x40)\n      dup1\n      swap2\n      sub\n      swap1\n      return\n        /* \"contracts/legacy/ERC404Legacy.sol\":500:699  function transferOwnership(address _owner) public virtual onlyOwner {... */\n    tag_29:\n      tag_136\n      0x04\n      dup1\n      calldatasize\n      sub\n      dup2\n      add\n      swap1\n      tag_137\n      swap2\n      swap1\n      tag_90\n      jump\t// in\n    tag_137:\n      tag_138\n      jump\t// in\n    tag_136:\n      stop\n        /* \"contracts/legacy/ERC404Legacy.sol\":2473:2491  string public name */\n    tag_37:\n      0x01\n      dup1\n      sload\n      tag_139\n      swap1\n      tag_140\n      jump\t// in\n    tag_139:\n      dup1\n      0x1f\n      add\n      0x20\n      dup1\n      swap2\n      div\n      mul\n      0x20\n      add\n      mload(0x40)\n      swap1\n      dup2\n      add\n      0x40\n      mstore\n      dup1\n      swap3\n      swap2\n      swap1\n      dup2\n      dup2\n      mstore\n      0x20\n      add\n      dup3\n      dup1\n      sload\n      tag_141\n      swap1\n      tag_140\n      jump\t// in\n    tag_141:\n      dup1\n      iszero\n      tag_142\n      jumpi\n      dup1\n      0x1f\n      lt\n      tag_143\n      jumpi\n      0x0100\n      dup1\n      dup4\n      sload\n      div\n      mul\n      dup4\n      mstore\n      swap2\n      0x20\n      add\n      swap2\n      jump(tag_142)\n    tag_143:\n      dup3\n      add\n      swap2\n      swap1\n      0x00\n      mstore\n      keccak256(0x00, 0x20)\n      swap1\n    tag_144:\n      dup2\n      sload\n      dup2\n      mstore\n      swap1\n      0x01\n      add\n      swap1\n      0x20\n      add\n      dup1\n      dup4\n      gt\n      tag_144\n      jumpi\n      dup3\n      swap1\n      sub\n      0x1f\n      and\n      dup3\n      add\n      swap2\n    tag_142:\n      pop\n      pop\n      pop\n      pop\n      pop\n      dup2\n      jump\t// out\n        /* \"contracts/legacy/ERC404Legacy.sol\":3132:3178  mapping(uint256 => address) public getApproved */\n    tag_43:\n      mstore(0x20, 0x06)\n      dup1\n      0x00\n      mstore\n      keccak256(0x00, 0x40)\n      0x00\n      swap2\n      pop\n      sload\n      swap1\n      0x0100\n      exp\n      swap1\n      div\n      0xffffffffffffffffffffffffffffffffffffffff\n      and\n      dup2\n      jump\t// out\n        /* \"contracts/legacy/ERC404Legacy.sol\":4802:5345  function approve(... */\n    tag_49:\n        /* \"contracts/legacy/ERC404Legacy.sol\":4892:4896  bool */\n      0x00\n        /* \"contracts/legacy/ERC404Legacy.sol\":4922:4928  minted */\n      sload(0x03)\n        /* \"contracts/legacy/ERC404Legacy.sol\":4908:4918  amountOrId */\n      dup3\n        /* \"contracts/legacy/ERC404Legacy.sol\":4908:4928  amountOrId <= minted */\n      gt\n      iszero\n        /* \"contracts/legacy/ERC404Legacy.sol\":4908:4946  amountOrId <= minted && amountOrId > 0 */\n      dup1\n      iszero\n      tag_146\n      jumpi\n      pop\n        /* \"contracts/legacy/ERC404Legacy.sol\":4945:4946  0 */\n      0x00\n        /* \"contracts/legacy/ERC404Legacy.sol\":4932:4942  amountOrId */\n      dup3\n        /* \"contracts/legacy/ERC404Legacy.sol\":4932:4946  amountOrId > 0 */\n      gt\n        /* \"contracts/legacy/ERC404Legacy.sol\":4908:4946  amountOrId <= minted && amountOrId > 0 */\n    tag_146:\n        /* \"contracts/legacy/ERC404Legacy.sol\":4904:5323  if (amountOrId <= minted && amountOrId > 0) {... */\n      iszero\n      tag_147\n      jumpi\n        /* \"contracts/legacy/ERC404Legacy.sol\":4956:4969  address owner */\n      0x00\n        /* \"contracts/legacy/ERC404Legacy.sol\":4972:4980  _ownerOf */\n      0x08\n        /* \"contracts/legacy/ERC404Legacy.sol\":4972:4992  _ownerOf[amountOrId] */\n      0x00\n        /* \"contracts/legacy/ERC404Legacy.sol\":4981:4991  amountOrId */\n      dup5\n        /* \"contracts/legacy/ERC404Legacy.sol\":4972:4992  _ownerOf[amountOrId] */\n      dup2\n      mstore\n      0x20\n      add\n      swap1\n      dup2\n      mstore\n      0x20\n      add\n      0x00\n      keccak256\n      0x00\n      swap1\n      sload\n      swap1\n      0x0100\n      exp\n      swap1\n      div\n      0xffffffffffffffffffffffffffffffffffffffff\n      and\n        /* \"contracts/legacy/ERC404Legacy.sol\":4956:4992  address owner = _ownerOf[amountOrId] */\n      swap1\n      pop\n        /* \"contracts/legacy/ERC404Legacy.sol\":5019:5024  owner */\n      dup1\n        /* \"contracts/legacy/ERC404Legacy.sol\":5005:5024  msg.sender != owner */\n      0xffffffffffffffffffffffffffffffffffffffff\n      and\n        /* \"contracts/legacy/ERC404Legacy.sol\":5005:5015  msg.sender */\n      caller\n        /* \"contracts/legacy/ERC404Legacy.sol\":5005:5024  msg.sender != owner */\n      0xffffffffffffffffffffffffffffffffffffffff\n      and\n      eq\n      iszero\n        /* \"contracts/legacy/ERC404Legacy.sol\":5005:5064  msg.sender != owner && !isApprovedForAll[owner][msg.sender] */\n      dup1\n      iszero\n      tag_148\n      jumpi\n      pop\n        /* \"contracts/legacy/ERC404Legacy.sol\":5029:5045  isApprovedForAll */\n      0x07\n        /* \"contracts/legacy/ERC404Legacy.sol\":5029:5052  isApprovedForAll[owner] */\n      0x00\n        /* \"contracts/legacy/ERC404Legacy.sol\":5046:5051  owner */\n      dup3\n        /* \"contracts/legacy/ERC404Legacy.sol\":5029:5052  isApprovedForAll[owner] */\n      0xffffffffffffffffffffffffffffffffffffffff\n      and\n      0xffffffffffffffffffffffffffffffffffffffff\n      and\n      dup2\n      mstore\n      0x20\n      add\n      swap1\n      dup2\n      mstore\n      0x20\n      add\n      0x00\n      keccak256\n        /* \"contracts/legacy/ERC404Legacy.sol\":5029:5064  isApprovedForAll[owner][msg.sender] */\n      0x00\n        /* \"contracts/legacy/ERC404Legacy.sol\":5053:5063  msg.sender */\n      caller\n        /* \"contracts/legacy/ERC404Legacy.sol\":5029:5064  isApprovedForAll[owner][msg.sender] */\n      0xffffffffffffffffffffffffffffffffffffffff\n      and\n      0xffffffffffffffffffffffffffffffffffffffff\n      and\n      dup2\n      mstore\n      0x20\n      add\n      swap1\n      dup2\n      mstore\n      0x20\n      add\n      0x00\n      keccak256\n      0x00\n      swap1\n      sload\n      swap1\n      0x0100\n      exp\n      swap1\n      div\n      0xff\n      and\n        /* \"contracts/legacy/ERC404Legacy.sol\":5028:5064  !isApprovedForAll[owner][msg.sender] */\n      iszero\n        /* \"contracts/legacy/ERC404Legacy.sol\":5005:5064  msg.sender != owner && !isApprovedForAll[owner][msg.sender] */\n    tag_148:\n        /* \"contracts/legacy/ERC404Legacy.sol\":5001:5106  if (msg.sender != owner && !isApprovedForAll[owner][msg.sender]) {... */\n      iszero\n      tag_149\n      jumpi\n        /* \"contracts/legacy/ERC404Legacy.sol\":5083:5097  Unauthorized() */\n      mload(0x40)\n      0x82b4290000000000000000000000000000000000000000000000000000000000\n      dup2\n      mstore\n      0x04\n      add\n      mload(0x40)\n      dup1\n      swap2\n      sub\n      swap1\n      revert\n        /* \"contracts/legacy/ERC404Legacy.sol\":5001:5106  if (msg.sender != owner && !isApprovedForAll[owner][msg.sender]) {... */\n    tag_149:\n        /* \"contracts/legacy/ERC404Legacy.sol\":5140:5147  spender */\n      dup4\n        /* \"contracts/legacy/ERC404Legacy.sol\":5114:5125  getApproved */\n      0x06\n        /* \"contracts/legacy/ERC404Legacy.sol\":5114:5137  getApproved[amountOrId] */\n      0x00\n        /* \"contracts/legacy/ERC404Legacy.sol\":5126:5136  amountOrId */\n      dup6\n        /* \"contracts/legacy/ERC404Legacy.sol\":5114:5137  getApproved[amountOrId] */\n      dup2\n      mstore\n      0x20\n      add\n      swap1\n      dup2\n      mstore\n      0x20\n      add\n      0x00\n      keccak256\n      0x00\n        /* \"contracts/legacy/ERC404Legacy.sol\":5114:5147  getApproved[amountOrId] = spender */\n      0x0100\n      exp\n      dup2\n      sload\n      dup2\n      0xffffffffffffffffffffffffffffffffffffffff\n      mul\n      not\n      and\n      swap1\n      dup4\n      0xffffffffffffffffffffffffffffffffffffffff\n      and\n      mul\n      or\n      swap1\n      sstore\n      pop\n        /* \"contracts/legacy/ERC404Legacy.sol\":5177:5184  spender */\n      dup4\n        /* \"contracts/legacy/ERC404Legacy.sol\":5161:5197  Approval(owner, spender, amountOrId) */\n      0xffffffffffffffffffffffffffffffffffffffff\n      and\n        /* \"contracts/legacy/ERC404Legacy.sol\":5170:5175  owner */\n      dup2\n        /* \"contracts/legacy/ERC404Legacy.sol\":5161:5197  Approval(owner, spender, amountOrId) */\n      0xffffffffffffffffffffffffffffffffffffffff\n      and\n      0x8c5be1e5ebec7d5bd14f71427d1e84f3dd0314c0f7b2291e5b200ac8c7c3b925\n        /* \"contracts/legacy/ERC404Legacy.sol\":5186:5196  amountOrId */\n      dup6\n        /* \"contracts/legacy/ERC404Legacy.sol\":5161:5197  Approval(owner, spender, amountOrId) */\n      mload(0x40)\n      tag_150\n      swap2\n      swap1\n      tag_55\n      jump\t// in\n    tag_150:\n      mload(0x40)\n      dup1\n      swap2\n      sub\n      swap1\n      log3\n        /* \"contracts/legacy/ERC404Legacy.sol\":4948:5204  {... */\n      pop\n        /* \"contracts/legacy/ERC404Legacy.sol\":4904:5323  if (amountOrId <= minted && amountOrId > 0) {... */\n      jump(tag_151)\n    tag_147:\n        /* \"contracts/legacy/ERC404Legacy.sol\":5251:5261  amountOrId */\n      dup2\n        /* \"contracts/legacy/ERC404Legacy.sol\":5218:5227  allowance */\n      0x05\n        /* \"contracts/legacy/ERC404Legacy.sol\":5218:5239  allowance[msg.sender] */\n      0x00\n        /* \"contracts/legacy/ERC404Legacy.sol\":5228:5238  msg.sender */\n      caller\n        /* \"contracts/legacy/ERC404Legacy.sol\":5218:5239  allowance[msg.sender] */\n      0xffffffffffffffffffffffffffffffffffffffff\n      and\n      0xffffffffffffffffffffffffffffffffffffffff\n      and\n      dup2\n      mstore\n      0x20\n      add\n      swap1\n      dup2\n      mstore\n      0x20\n      add\n      0x00\n      keccak256\n        /* \"contracts/legacy/ERC404Legacy.sol\":5218:5248  allowance[msg.sender][spender] */\n      0x00\n        /* \"contracts/legacy/ERC404Legacy.sol\":5240:5247  spender */\n      dup6\n        /* \"contracts/legacy/ERC404Legacy.sol\":5218:5248  allowance[msg.sender][spender] */\n      0xffffffffffffffffffffffffffffffffffffffff\n      and\n      0xffffffffffffffffffffffffffffffffffffffff\n      and\n      dup2\n      mstore\n      0x20\n      add\n      swap1\n      dup2\n      mstore\n      0x20\n      add\n      0x00\n      keccak256\n        /* \"contracts/legacy/ERC404Legacy.sol\":5218:5261  allowance[msg.sender][spender] = amountOrId */\n      dup2\n      swap1\n      sstore\n      pop\n        /* \"contracts/legacy/ERC404Legacy.sol\":5296:5303  spender */\n      dup3\n        /* \"contracts/legacy/ERC404Legacy.sol\":5275:5316  Approval(msg.sender, spender, amountOrId) */\n      0xffffffffffffffffffffffffffffffffffffffff\n      and\n        /* \"contracts/legacy/ERC404Legacy.sol\":5284:5294  msg.sender */\n      caller\n        /* \"contracts/legacy/ERC404Legacy.sol\":5275:5316  Approval(msg.sender, spender, amountOrId) */\n      0xffffffffffffffffffffffffffffffffffffffff\n      and\n      0x8c5be1e5ebec7d5bd14f71427d1e84f3dd0314c0f7b2291e5b200ac8c7c3b925\n        /* \"contracts/legacy/ERC404Legacy.sol\":5305:5315  amountOrId */\n      dup5\n        /* \"contracts/legacy/ERC404Legacy.sol\":5275:5316  Approval(msg.sender, spender, amountOrId) */\n      mload(0x40)\n      tag_152\n      swap2\n      swap1\n      tag_55\n      jump\t// in\n    tag_152:\n      mload(0x40)\n      dup1\n      swap2\n      sub\n      swap1\n      log3\n        /* \"contracts/legacy/ERC404Legacy.sol\":4904:5323  if (amountOrId <= minted && amountOrId > 0) {... */\n    tag_151:\n        /* \"contracts/legacy/ERC404Legacy.sol\":5336:5340  true */\n      0x01\n        /* \"contracts/legacy/ERC404Legacy.sol\":5329:5340  return true */\n      swap1\n      pop\n        /* \"contracts/legacy/ERC404Legacy.sol\":4802:5345  function approve(... */\n      swap3\n      swap2\n      pop\n      pop\n      jump\t// out\n        /* \"contracts/legacy/ERC404Legacy.sol\":2688:2724  uint256 public immutable totalSupply */\n    tag_53:\n      immutable(\"0xdbae32e539e8739fc624de6baca4733f021b71f9ebe8eab474497b82fc314c90\")\n      dup2\n      jump\t// out\n        /* \"contracts/legacy/Pandora.sol\":402:492  function setDataURI(string memory _dataURI) public onlyOwner {... */\n    tag_59:\n        /* \"contracts/legacy/ERC404Legacy.sol\":292:297  owner */\n      0x00\n      dup1\n      sload\n      swap1\n      0x0100\n      exp\n      swap1\n      div\n      0xffffffffffffffffffffffffffffffffffffffff\n      and\n        /* \"contracts/legacy/ERC404Legacy.sol\":278:297  msg.sender != owner */\n      0xffffffffffffffffffffffffffffffffffffffff\n      and\n        /* \"contracts/legacy/ERC404Legacy.sol\":278:288  msg.sender */\n      caller\n        /* \"contracts/legacy/ERC404Legacy.sol\":278:297  msg.sender != owner */\n      0xffffffffffffffffffffffffffffffffffffffff\n      and\n      eq\n        /* \"contracts/legacy/ERC404Legacy.sol\":274:320  if (msg.sender != owner) revert Unauthorized() */\n      tag_154\n      jumpi\n        /* \"contracts/legacy/ERC404Legacy.sol\":306:320  Unauthorized() */\n      mload(0x40)\n      0x82b4290000000000000000000000000000000000000000000000000000000000\n      dup2\n      mstore\n      0x04\n      add\n      mload(0x40)\n      dup1\n      swap2\n      sub\n      swap1\n      revert\n        /* \"contracts/legacy/ERC404Legacy.sol\":274:320  if (msg.sender != owner) revert Unauthorized() */\n    tag_154:\n        /* \"contracts/legacy/Pandora.sol\":479:487  _dataURI */\n      dup1\n        /* \"contracts/legacy/Pandora.sol\":469:476  dataURI */\n      0x0c\n        /* \"contracts/legacy/Pandora.sol\":469:487  dataURI = _dataURI */\n      swap1\n      dup2\n      tag_156\n      swap2\n      swap1\n      tag_157\n      jump\t// in\n    tag_156:\n      pop\n        /* \"contracts/legacy/Pandora.sol\":402:492  function setDataURI(string memory _dataURI) public onlyOwner {... */\n      pop\n      jump\t// out\n        /* \"contracts/legacy/ERC404Legacy.sol\":5721:7121  function transferFrom(... */\n    tag_63:\n        /* \"contracts/legacy/ERC404Legacy.sol\":5844:5850  minted */\n      sload(0x03)\n        /* \"contracts/legacy/ERC404Legacy.sol\":5830:5840  amountOrId */\n      dup2\n        /* \"contracts/legacy/ERC404Legacy.sol\":5830:5850  amountOrId <= minted */\n      gt\n        /* \"contracts/legacy/ERC404Legacy.sol\":5826:7117  if (amountOrId <= minted) {... */\n      tag_159\n      jumpi\n        /* \"contracts/legacy/ERC404Legacy.sol\":5872:5880  _ownerOf */\n      0x08\n        /* \"contracts/legacy/ERC404Legacy.sol\":5872:5892  _ownerOf[amountOrId] */\n      0x00\n        /* \"contracts/legacy/ERC404Legacy.sol\":5881:5891  amountOrId */\n      dup3\n        /* \"contracts/legacy/ERC404Legacy.sol\":5872:5892  _ownerOf[amountOrId] */\n      dup2\n      mstore\n      0x20\n      add\n      swap1\n      dup2\n      mstore\n      0x20\n      add\n      0x00\n      keccak256\n      0x00\n      swap1\n      sload\n      swap1\n      0x0100\n      exp\n      swap1\n      div\n      0xffffffffffffffffffffffffffffffffffffffff\n      and\n        /* \"contracts/legacy/ERC404Legacy.sol\":5864:5892  from != _ownerOf[amountOrId] */\n      0xffffffffffffffffffffffffffffffffffffffff\n      and\n        /* \"contracts/legacy/ERC404Legacy.sol\":5864:5868  from */\n      dup4\n        /* \"contracts/legacy/ERC404Legacy.sol\":5864:5892  from != _ownerOf[amountOrId] */\n      0xffffffffffffffffffffffffffffffffffffffff\n      and\n      eq\n        /* \"contracts/legacy/ERC404Legacy.sol\":5860:5935  if (from != _ownerOf[amountOrId]) {... */\n      tag_160\n      jumpi\n        /* \"contracts/legacy/ERC404Legacy.sol\":5911:5926  InvalidSender() */\n      mload(0x40)\n      0xddb5de5e00000000000000000000000000000000000000000000000000000000\n      dup2\n      mstore\n      0x04\n      add\n      mload(0x40)\n      dup1\n      swap2\n      sub\n      swap1\n      revert\n        /* \"contracts/legacy/ERC404Legacy.sol\":5860:5935  if (from != _ownerOf[amountOrId]) {... */\n    tag_160:\n        /* \"contracts/legacy/ERC404Legacy.sol\":5961:5962  0 */\n      0x00\n        /* \"contracts/legacy/ERC404Legacy.sol\":5947:5963  to == address(0) */\n      0xffffffffffffffffffffffffffffffffffffffff\n      and\n        /* \"contracts/legacy/ERC404Legacy.sol\":5947:5949  to */\n      dup3\n        /* \"contracts/legacy/ERC404Legacy.sol\":5947:5963  to == address(0) */\n      0xffffffffffffffffffffffffffffffffffffffff\n      and\n      sub\n        /* \"contracts/legacy/ERC404Legacy.sol\":5943:6009  if (to == address(0)) {... */\n      tag_161\n      jumpi\n        /* \"contracts/legacy/ERC404Legacy.sol\":5982:6000  InvalidRecipient() */\n      mload(0x40)\n      0x9c8d2cd200000000000000000000000000000000000000000000000000000000\n      dup2\n      mstore\n      0x04\n      add\n      mload(0x40)\n      dup1\n      swap2\n      sub\n      swap1\n      revert\n        /* \"contracts/legacy/ERC404Legacy.sol\":5943:6009  if (to == address(0)) {... */\n    tag_161:\n        /* \"contracts/legacy/ERC404Legacy.sol\":6044:6048  from */\n      dup3\n        /* \"contracts/legacy/ERC404Legacy.sol\":6030:6048  msg.sender != from */\n      0xffffffffffffffffffffffffffffffffffffffff\n      and\n        /* \"contracts/legacy/ERC404Legacy.sol\":6030:6040  msg.sender */\n      caller\n        /* \"contracts/legacy/ERC404Legacy.sol\":6030:6048  msg.sender != from */\n      0xffffffffffffffffffffffffffffffffffffffff\n      and\n      eq\n      iszero\n        /* \"contracts/legacy/ERC404Legacy.sol\":6030:6095  msg.sender != from &&... */\n      dup1\n      iszero\n      tag_162\n      jumpi\n      pop\n        /* \"contracts/legacy/ERC404Legacy.sol\":6061:6077  isApprovedForAll */\n      0x07\n        /* \"contracts/legacy/ERC404Legacy.sol\":6061:6083  isApprovedForAll[from] */\n      0x00\n        /* \"contracts/legacy/ERC404Legacy.sol\":6078:6082  from */\n      dup5\n        /* \"contracts/legacy/ERC404Legacy.sol\":6061:6083  isApprovedForAll[from] */\n      0xffffffffffffffffffffffffffffffffffffffff\n      and\n      0xffffffffffffffffffffffffffffffffffffffff\n      and\n      dup2\n      mstore\n      0x20\n      add\n      swap1\n      dup2\n      mstore\n      0x20\n      add\n      0x00\n      keccak256\n        /* \"contracts/legacy/ERC404Legacy.sol\":6061:6095  isApprovedForAll[from][msg.sender] */\n      0x00\n        /* \"contracts/legacy/ERC404Legacy.sol\":6084:6094  msg.sender */\n      caller\n        /* \"contracts/legacy/ERC404Legacy.sol\":6061:6095  isApprovedForAll[from][msg.sender] */\n      0xffffffffffffffffffffffffffffffffffffffff\n      and\n      0xffffffffffffffffffffffffffffffffffffffff\n      and\n      dup2\n      mstore\n      0x20\n      add\n      swap1\n      dup2\n      mstore\n      0x20\n      add\n      0x00\n      keccak256\n      0x00\n      swap1\n      sload\n      swap1\n      0x0100\n      exp\n      swap1\n      div\n      0xff\n      and\n        /* \"contracts/legacy/ERC404Legacy.sol\":6060:6095  !isApprovedForAll[from][msg.sender] */\n      iszero\n        /* \"contracts/legacy/ERC404Legacy.sol\":6030:6095  msg.sender != from &&... */\n    tag_162:\n        /* \"contracts/legacy/ERC404Legacy.sol\":6030:6144  msg.sender != from &&... */\n      dup1\n      iszero\n      tag_163\n      jumpi\n      pop\n        /* \"contracts/legacy/ERC404Legacy.sol\":6121:6132  getApproved */\n      0x06\n        /* \"contracts/legacy/ERC404Legacy.sol\":6121:6144  getApproved[amountOrId] */\n      0x00\n        /* \"contracts/legacy/ERC404Legacy.sol\":6133:6143  amountOrId */\n      dup3\n        /* \"contracts/legacy/ERC404Legacy.sol\":6121:6144  getApproved[amountOrId] */\n      dup2\n      mstore\n      0x20\n      add\n      swap1\n      dup2\n      mstore\n      0x20\n      add\n      0x00\n      keccak256\n      0x00\n      swap1\n      sload\n      swap1\n      0x0100\n      exp\n      swap1\n      div\n      0xffffffffffffffffffffffffffffffffffffffff\n      and\n        /* \"contracts/legacy/ERC404Legacy.sol\":6107:6144  msg.sender != getApproved[amountOrId] */\n      0xffffffffffffffffffffffffffffffffffffffff\n      and\n        /* \"contracts/legacy/ERC404Legacy.sol\":6107:6117  msg.sender */\n      caller\n        /* \"contracts/legacy/ERC404Legacy.sol\":6107:6144  msg.sender != getApproved[amountOrId] */\n      0xffffffffffffffffffffffffffffffffffffffff\n      and\n      eq\n      iszero\n        /* \"contracts/legacy/ERC404Legacy.sol\":6030:6144  msg.sender != from &&... */\n    tag_163:\n        /* \"contracts/legacy/ERC404Legacy.sol\":6017:6193  if (... */\n      iszero\n      tag_164\n      jumpi\n        /* \"contracts/legacy/ERC404Legacy.sol\":6170:6184  Unauthorized() */\n      mload(0x40)\n      0x82b4290000000000000000000000000000000000000000000000000000000000\n      dup2\n      mstore\n      0x04\n      add\n      mload(0x40)\n      dup1\n      swap2\n      sub\n      swap1\n      revert\n        /* \"contracts/legacy/ERC404Legacy.sol\":6017:6193  if (... */\n    tag_164:\n        /* \"contracts/legacy/ERC404Legacy.sol\":6220:6230  _getUnit() */\n      tag_165\n        /* \"contracts/legacy/ERC404Legacy.sol\":6220:6228  _getUnit */\n      tag_166\n        /* \"contracts/legacy/ERC404Legacy.sol\":6220:6230  _getUnit() */\n      jump\t// in\n    tag_165:\n        /* \"contracts/legacy/ERC404Legacy.sol\":6201:6210  balanceOf */\n      0x04\n        /* \"contracts/legacy/ERC404Legacy.sol\":6201:6216  balanceOf[from] */\n      0x00\n        /* \"contracts/legacy/ERC404Legacy.sol\":6211:6215  from */\n      dup6\n        /* \"contracts/legacy/ERC404Legacy.sol\":6201:6216  balanceOf[from] */\n      0xffffffffffffffffffffffffffffffffffffffff\n      and\n      0xffffffffffffffffffffffffffffffffffffffff\n      and\n      dup2\n      mstore\n      0x20\n      add\n      swap1\n      dup2\n      mstore\n      0x20\n      add\n      0x00\n      keccak256\n      0x00\n        /* \"contracts/legacy/ERC404Legacy.sol\":6201:6230  balanceOf[from] -= _getUnit() */\n      dup3\n      dup3\n      sload\n      tag_167\n      swap2\n      swap1\n      tag_168\n      jump\t// in\n    tag_167:\n      swap3\n      pop\n      pop\n      dup2\n      swap1\n      sstore\n      pop\n        /* \"contracts/legacy/ERC404Legacy.sol\":6276:6286  _getUnit() */\n      tag_169\n        /* \"contracts/legacy/ERC404Legacy.sol\":6276:6284  _getUnit */\n      tag_166\n        /* \"contracts/legacy/ERC404Legacy.sol\":6276:6286  _getUnit() */\n      jump\t// in\n    tag_169:\n        /* \"contracts/legacy/ERC404Legacy.sol\":6259:6268  balanceOf */\n      0x04\n        /* \"contracts/legacy/ERC404Legacy.sol\":6259:6272  balanceOf[to] */\n      0x00\n        /* \"contracts/legacy/ERC404Legacy.sol\":6269:6271  to */\n      dup5\n        /* \"contracts/legacy/ERC404Legacy.sol\":6259:6272  balanceOf[to] */\n      0xffffffffffffffffffffffffffffffffffffffff\n      and\n      0xffffffffffffffffffffffffffffffffffffffff\n      and\n      dup2\n      mstore\n      0x20\n      add\n      swap1\n      dup2\n      mstore\n      0x20\n      add\n      0x00\n      keccak256\n      0x00\n        /* \"contracts/legacy/ERC404Legacy.sol\":6259:6286  balanceOf[to] += _getUnit() */\n      dup3\n      dup3\n      sload\n      add\n      swap3\n      pop\n      pop\n      dup2\n      swap1\n      sstore\n      pop\n        /* \"contracts/legacy/ERC404Legacy.sol\":6326:6328  to */\n      dup2\n        /* \"contracts/legacy/ERC404Legacy.sol\":6303:6311  _ownerOf */\n      0x08\n        /* \"contracts/legacy/ERC404Legacy.sol\":6303:6323  _ownerOf[amountOrId] */\n      0x00\n        /* \"contracts/legacy/ERC404Legacy.sol\":6312:6322  amountOrId */\n      dup4\n        /* \"contracts/legacy/ERC404Legacy.sol\":6303:6323  _ownerOf[amountOrId] */\n      dup2\n      mstore\n      0x20\n      add\n      swap1\n      dup2\n      mstore\n      0x20\n      add\n      0x00\n      keccak256\n      0x00\n        /* \"contracts/legacy/ERC404Legacy.sol\":6303:6328  _ownerOf[amountOrId] = to */\n      0x0100\n      exp\n      dup2\n      sload\n      dup2\n      0xffffffffffffffffffffffffffffffffffffffff\n      mul\n      not\n      and\n      swap1\n      dup4\n      0xffffffffffffffffffffffffffffffffffffffff\n      and\n      mul\n      or\n      swap1\n      sstore\n      pop\n        /* \"contracts/legacy/ERC404Legacy.sol\":6343:6354  getApproved */\n      0x06\n        /* \"contracts/legacy/ERC404Legacy.sol\":6343:6366  getApproved[amountOrId] */\n      0x00\n        /* \"contracts/legacy/ERC404Legacy.sol\":6355:6365  amountOrId */\n      dup3\n        /* \"contracts/legacy/ERC404Legacy.sol\":6343:6366  getApproved[amountOrId] */\n      dup2\n      mstore\n      0x20\n      add\n      swap1\n      dup2\n      mstore\n      0x20\n      add\n      0x00\n      keccak256\n      0x00\n        /* \"contracts/legacy/ERC404Legacy.sol\":6336:6366  delete getApproved[amountOrId] */\n      0x0100\n      exp\n      dup2\n      sload\n      swap1\n      0xffffffffffffffffffffffffffffffffffffffff\n      mul\n      not\n      and\n      swap1\n      sstore\n        /* \"contracts/legacy/ERC404Legacy.sol\":6409:6426  uint256 updatedId */\n      0x00\n        /* \"contracts/legacy/ERC404Legacy.sol\":6429:6435  _owned */\n      0x09\n        /* \"contracts/legacy/ERC404Legacy.sol\":6429:6441  _owned[from] */\n      0x00\n        /* \"contracts/legacy/ERC404Legacy.sol\":6436:6440  from */\n      dup6\n        /* \"contracts/legacy/ERC404Legacy.sol\":6429:6441  _owned[from] */\n      0xffffffffffffffffffffffffffffffffffffffff\n      and\n      0xffffffffffffffffffffffffffffffffffffffff\n      and\n      dup2\n      mstore\n      0x20\n      add\n      swap1\n      dup2\n      mstore\n      0x20\n      add\n      0x00\n      keccak256\n        /* \"contracts/legacy/ERC404Legacy.sol\":6464:6465  1 */\n      0x01\n        /* \"contracts/legacy/ERC404Legacy.sol\":6442:6448  _owned */\n      0x09\n        /* \"contracts/legacy/ERC404Legacy.sol\":6442:6454  _owned[from] */\n      0x00\n        /* \"contracts/legacy/ERC404Legacy.sol\":6449:6453  from */\n      dup8\n        /* \"contracts/legacy/ERC404Legacy.sol\":6442:6454  _owned[from] */\n      0xffffffffffffffffffffffffffffffffffffffff\n      and\n      0xffffffffffffffffffffffffffffffffffffffff\n      and\n      dup2\n      mstore\n      0x20\n      add\n      swap1\n      dup2\n      mstore\n      0x20\n      add\n      0x00\n      keccak256\n        /* \"contracts/legacy/ERC404Legacy.sol\":6442:6461  _owned[from].length */\n      dup1\n      sload\n      swap1\n      pop\n        /* \"contracts/legacy/ERC404Legacy.sol\":6442:6465  _owned[from].length - 1 */\n      tag_170\n      swap2\n      swap1\n      tag_168\n      jump\t// in\n    tag_170:\n        /* \"contracts/legacy/ERC404Legacy.sol\":6429:6466  _owned[from][_owned[from].length - 1] */\n      dup2\n      sload\n      dup2\n      lt\n      tag_171\n      jumpi\n      tag_172\n      tag_173\n      jump\t// in\n    tag_172:\n    tag_171:\n      swap1\n      0x00\n      mstore\n      keccak256(0x00, 0x20)\n      add\n      sload\n        /* \"contracts/legacy/ERC404Legacy.sol\":6409:6466  uint256 updatedId = _owned[from][_owned[from].length - 1] */\n      swap1\n      pop\n        /* \"contracts/legacy/ERC404Legacy.sol\":6514:6523  updatedId */\n      dup1\n        /* \"contracts/legacy/ERC404Legacy.sol\":6474:6480  _owned */\n      0x09\n        /* \"contracts/legacy/ERC404Legacy.sol\":6474:6486  _owned[from] */\n      0x00\n        /* \"contracts/legacy/ERC404Legacy.sol\":6481:6485  from */\n      dup7\n        /* \"contracts/legacy/ERC404Legacy.sol\":6474:6486  _owned[from] */\n      0xffffffffffffffffffffffffffffffffffffffff\n      and\n      0xffffffffffffffffffffffffffffffffffffffff\n      and\n      dup2\n      mstore\n      0x20\n      add\n      swap1\n      dup2\n      mstore\n      0x20\n      add\n      0x00\n      keccak256\n        /* \"contracts/legacy/ERC404Legacy.sol\":6487:6498  _ownedIndex */\n      0x0a\n        /* \"contracts/legacy/ERC404Legacy.sol\":6487:6510  _ownedIndex[amountOrId] */\n      0x00\n        /* \"contracts/legacy/ERC404Legacy.sol\":6499:6509  amountOrId */\n      dup6\n        /* \"contracts/legacy/ERC404Legacy.sol\":6487:6510  _ownedIndex[amountOrId] */\n      dup2\n      mstore\n      0x20\n      add\n      swap1\n      dup2\n      mstore\n      0x20\n      add\n      0x00\n      keccak256\n      sload\n        /* \"contracts/legacy/ERC404Legacy.sol\":6474:6511  _owned[from][_ownedIndex[amountOrId]] */\n      dup2\n      sload\n      dup2\n      lt\n      tag_175\n      jumpi\n      tag_176\n      tag_173\n      jump\t// in\n    tag_176:\n    tag_175:\n      swap1\n      0x00\n      mstore\n      keccak256(0x00, 0x20)\n      add\n        /* \"contracts/legacy/ERC404Legacy.sol\":6474:6523  _owned[from][_ownedIndex[amountOrId]] = updatedId */\n      dup2\n      swap1\n      sstore\n      pop\n        /* \"contracts/legacy/ERC404Legacy.sol\":6544:6550  _owned */\n      0x09\n        /* \"contracts/legacy/ERC404Legacy.sol\":6544:6556  _owned[from] */\n      0x00\n        /* \"contracts/legacy/ERC404Legacy.sol\":6551:6555  from */\n      dup6\n        /* \"contracts/legacy/ERC404Legacy.sol\":6544:6556  _owned[from] */\n      0xffffffffffffffffffffffffffffffffffffffff\n      and\n      0xffffffffffffffffffffffffffffffffffffffff\n      and\n      dup2\n      mstore\n      0x20\n      add\n      swap1\n      dup2\n      mstore\n      0x20\n      add\n      0x00\n      keccak256\n        /* \"contracts/legacy/ERC404Legacy.sol\":6544:6562  _owned[from].pop() */\n      dup1\n      sload\n      dup1\n      tag_178\n      jumpi\n      tag_179\n      tag_180\n      jump\t// in\n    tag_179:\n    tag_178:\n      0x01\n      swap1\n      sub\n      dup2\n      dup2\n      swap1\n      0x00\n      mstore\n      keccak256(0x00, 0x20)\n      add\n      0x00\n      swap1\n      sstore\n      swap1\n      sstore\n        /* \"contracts/legacy/ERC404Legacy.sol\":6634:6645  _ownedIndex */\n      0x0a\n        /* \"contracts/legacy/ERC404Legacy.sol\":6634:6657  _ownedIndex[amountOrId] */\n      0x00\n        /* \"contracts/legacy/ERC404Legacy.sol\":6646:6656  amountOrId */\n      dup4\n        /* \"contracts/legacy/ERC404Legacy.sol\":6634:6657  _ownedIndex[amountOrId] */\n      dup2\n      mstore\n      0x20\n      add\n      swap1\n      dup2\n      mstore\n      0x20\n      add\n      0x00\n      keccak256\n      sload\n        /* \"contracts/legacy/ERC404Legacy.sol\":6609:6620  _ownedIndex */\n      0x0a\n        /* \"contracts/legacy/ERC404Legacy.sol\":6609:6631  _ownedIndex[updatedId] */\n      0x00\n        /* \"contracts/legacy/ERC404Legacy.sol\":6621:6630  updatedId */\n      dup4\n        /* \"contracts/legacy/ERC404Legacy.sol\":6609:6631  _ownedIndex[updatedId] */\n      dup2\n      mstore\n      0x20\n      add\n      swap1\n      dup2\n      mstore\n      0x20\n      add\n      0x00\n      keccak256\n        /* \"contracts/legacy/ERC404Legacy.sol\":6609:6657  _ownedIndex[updatedId] = _ownedIndex[amountOrId] */\n      dup2\n      swap1\n      sstore\n      pop\n        /* \"contracts/legacy/ERC404Legacy.sol\":6694:6700  _owned */\n      0x09\n        /* \"contracts/legacy/ERC404Legacy.sol\":6694:6704  _owned[to] */\n      0x00\n        /* \"contracts/legacy/ERC404Legacy.sol\":6701:6703  to */\n      dup5\n        /* \"contracts/legacy/ERC404Legacy.sol\":6694:6704  _owned[to] */\n      0xffffffffffffffffffffffffffffffffffffffff\n      and\n      0xffffffffffffffffffffffffffffffffffffffff\n      and\n      dup2\n      mstore\n      0x20\n      add\n      swap1\n      dup2\n      mstore\n      0x20\n      add\n      0x00\n      keccak256\n        /* \"contracts/legacy/ERC404Legacy.sol\":6710:6720  amountOrId */\n      dup3\n        /* \"contracts/legacy/ERC404Legacy.sol\":6694:6721  _owned[to].push(amountOrId) */\n      swap1\n      dup1\n      0x01\n      dup2\n      sload\n      add\n      dup1\n      dup3\n      sstore\n      dup1\n      swap2\n      pop\n      pop\n      0x01\n      swap1\n      sub\n      swap1\n      0x00\n      mstore\n      keccak256(0x00, 0x20)\n      add\n      0x00\n      swap1\n      swap2\n      swap1\n      swap2\n      swap1\n      swap2\n      pop\n      sstore\n        /* \"contracts/legacy/ERC404Legacy.sol\":6810:6811  1 */\n      0x01\n        /* \"contracts/legacy/ERC404Legacy.sol\":6790:6796  _owned */\n      0x09\n        /* \"contracts/legacy/ERC404Legacy.sol\":6790:6800  _owned[to] */\n      0x00\n        /* \"contracts/legacy/ERC404Legacy.sol\":6797:6799  to */\n      dup6\n        /* \"contracts/legacy/ERC404Legacy.sol\":6790:6800  _owned[to] */\n      0xffffffffffffffffffffffffffffffffffffffff\n      and\n      0xffffffffffffffffffffffffffffffffffffffff\n      and\n      dup2\n      mstore\n      0x20\n      add\n      swap1\n      dup2\n      mstore\n      0x20\n      add\n      0x00\n      keccak256\n        /* \"contracts/legacy/ERC404Legacy.sol\":6790:6807  _owned[to].length */\n      dup1\n      sload\n      swap1\n      pop\n        /* \"contracts/legacy/ERC404Legacy.sol\":6790:6811  _owned[to].length - 1 */\n      tag_183\n      swap2\n      swap1\n      tag_168\n      jump\t// in\n    tag_183:\n        /* \"contracts/legacy/ERC404Legacy.sol\":6764:6775  _ownedIndex */\n      0x0a\n        /* \"contracts/legacy/ERC404Legacy.sol\":6764:6787  _ownedIndex[amountOrId] */\n      0x00\n        /* \"contracts/legacy/ERC404Legacy.sol\":6776:6786  amountOrId */\n      dup5\n        /* \"contracts/legacy/ERC404Legacy.sol\":6764:6787  _ownedIndex[amountOrId] */\n      dup2\n      mstore\n      0x20\n      add\n      swap1\n      dup2\n      mstore\n      0x20\n      add\n      0x00\n      keccak256\n        /* \"contracts/legacy/ERC404Legacy.sol\":6764:6811  _ownedIndex[amountOrId] = _owned[to].length - 1 */\n      dup2\n      swap1\n      sstore\n      pop\n        /* \"contracts/legacy/ERC404Legacy.sol\":6844:6854  amountOrId */\n      dup2\n        /* \"contracts/legacy/ERC404Legacy.sol\":6840:6842  to */\n      dup4\n        /* \"contracts/legacy/ERC404Legacy.sol\":6825:6855  Transfer(from, to, amountOrId) */\n      0xffffffffffffffffffffffffffffffffffffffff\n      and\n        /* \"contracts/legacy/ERC404Legacy.sol\":6834:6838  from */\n      dup6\n        /* \"contracts/legacy/ERC404Legacy.sol\":6825:6855  Transfer(from, to, amountOrId) */\n      0xffffffffffffffffffffffffffffffffffffffff\n      and\n      0xddf252ad1be2c89b69c2b068fc378daa952ba7f163c4a11628f55a4df523b3ef\n      mload(0x40)\n      mload(0x40)\n      dup1\n      swap2\n      sub\n      swap1\n      log4\n        /* \"contracts/legacy/ERC404Legacy.sol\":6888:6890  to */\n      dup3\n        /* \"contracts/legacy/ERC404Legacy.sol\":6868:6903  ERC20Transfer(from, to, _getUnit()) */\n      0xffffffffffffffffffffffffffffffffffffffff\n      and\n        /* \"contracts/legacy/ERC404Legacy.sol\":6882:6886  from */\n      dup5\n        /* \"contracts/legacy/ERC404Legacy.sol\":6868:6903  ERC20Transfer(from, to, _getUnit()) */\n      0xffffffffffffffffffffffffffffffffffffffff\n      and\n      0xe59fdd36d0d223c0c7d996db7ad796880f45e1936cb0bb7ac102e7082e031487\n        /* \"contracts/legacy/ERC404Legacy.sol\":6892:6902  _getUnit() */\n      tag_184\n        /* \"contracts/legacy/ERC404Legacy.sol\":6892:6900  _getUnit */\n      tag_166\n        /* \"contracts/legacy/ERC404Legacy.sol\":6892:6902  _getUnit() */\n      jump\t// in\n    tag_184:\n        /* \"contracts/legacy/ERC404Legacy.sol\":6868:6903  ERC20Transfer(from, to, _getUnit()) */\n      mload(0x40)\n      tag_185\n      swap2\n      swap1\n      tag_55\n      jump\t// in\n    tag_185:\n      mload(0x40)\n      dup1\n      swap2\n      sub\n      swap1\n      log3\n        /* \"contracts/legacy/ERC404Legacy.sol\":5852:6910  {... */\n      pop\n        /* \"contracts/legacy/ERC404Legacy.sol\":5826:7117  if (amountOrId <= minted) {... */\n      jump(tag_186)\n    tag_159:\n        /* \"contracts/legacy/ERC404Legacy.sol\":6924:6939  uint256 allowed */\n      0x00\n        /* \"contracts/legacy/ERC404Legacy.sol\":6942:6951  allowance */\n      0x05\n        /* \"contracts/legacy/ERC404Legacy.sol\":6942:6957  allowance[from] */\n      0x00\n        /* \"contracts/legacy/ERC404Legacy.sol\":6952:6956  from */\n      dup6\n        /* \"contracts/legacy/ERC404Legacy.sol\":6942:6957  allowance[from] */\n      0xffffffffffffffffffffffffffffffffffffffff\n      and\n      0xffffffffffffffffffffffffffffffffffffffff\n      and\n      dup2\n      mstore\n      0x20\n      add\n      swap1\n      dup2\n      mstore\n      0x20\n      add\n      0x00\n      keccak256\n        /* \"contracts/legacy/ERC404Legacy.sol\":6942:6969  allowance[from][msg.sender] */\n      0x00\n        /* \"contracts/legacy/ERC404Legacy.sol\":6958:6968  msg.sender */\n      caller\n        /* \"contracts/legacy/ERC404Legacy.sol\":6942:6969  allowance[from][msg.sender] */\n      0xffffffffffffffffffffffffffffffffffffffff\n      and\n      0xffffffffffffffffffffffffffffffffffffffff\n      and\n      dup2\n      mstore\n      0x20\n      add\n      swap1\n      dup2\n      mstore\n      0x20\n      add\n      0x00\n      keccak256\n      sload\n        /* \"contracts/legacy/ERC404Legacy.sol\":6924:6969  uint256 allowed = allowance[from][msg.sender] */\n      swap1\n      pop\n        /* \"contracts/legacy/ERC404Legacy.sol\":6993:7010  type(uint256).max */\n      0xffffffffffffffffffffffffffffffffffffffffffffffffffffffffffffffff\n        /* \"contracts/legacy/ERC404Legacy.sol\":6982:6989  allowed */\n      dup2\n        /* \"contracts/legacy/ERC404Legacy.sol\":6982:7010  allowed != type(uint256).max */\n      eq\n        /* \"contracts/legacy/ERC404Legacy.sol\":6978:7070  if (allowed != type(uint256).max)... */\n      tag_187\n      jumpi\n        /* \"contracts/legacy/ERC404Legacy.sol\":7060:7070  amountOrId */\n      dup2\n        /* \"contracts/legacy/ERC404Legacy.sol\":7050:7057  allowed */\n      dup2\n        /* \"contracts/legacy/ERC404Legacy.sol\":7050:7070  allowed - amountOrId */\n      tag_188\n      swap2\n      swap1\n      tag_168\n      jump\t// in\n    tag_188:\n        /* \"contracts/legacy/ERC404Legacy.sol\":7020:7029  allowance */\n      0x05\n        /* \"contracts/legacy/ERC404Legacy.sol\":7020:7035  allowance[from] */\n      0x00\n        /* \"contracts/legacy/ERC404Legacy.sol\":7030:7034  from */\n      dup7\n        /* \"contracts/legacy/ERC404Legacy.sol\":7020:7035  allowance[from] */\n      0xffffffffffffffffffffffffffffffffffffffff\n      and\n      0xffffffffffffffffffffffffffffffffffffffff\n      and\n      dup2\n      mstore\n      0x20\n      add\n      swap1\n      dup2\n      mstore\n      0x20\n      add\n      0x00\n      keccak256\n        /* \"contracts/legacy/ERC404Legacy.sol\":7020:7047  allowance[from][msg.sender] */\n      0x00\n        /* \"contracts/legacy/ERC404Legacy.sol\":7036:7046  msg.sender */\n      caller\n        /* \"contracts/legacy/ERC404Legacy.sol\":7020:7047  allowance[from][msg.sender] */\n      0xffffffffffffffffffffffffffffffffffffffff\n      and\n      0xffffffffffffffffffffffffffffffffffffffff\n      and\n      dup2\n      mstore\n      0x20\n      add\n      swap1\n      dup2\n      mstore\n      0x20\n      add\n      0x00\n      keccak256\n        /* \"contracts/legacy/ERC404Legacy.sol\":7020:7070  allowance[from][msg.sender] = allowed - amountOrId */\n      dup2\n      swap1\n      sstore\n      pop\n        /* \"contracts/legacy/ERC404Legacy.sol\":6978:7070  if (allowed != type(uint256).max)... */\n    tag_187:\n        /* \"contracts/legacy/ERC404Legacy.sol\":7079:7110  _transfer(from, to, amountOrId) */\n      tag_189\n        /* \"contracts/legacy/ERC404Legacy.sol\":7089:7093  from */\n      dup5\n        /* \"contracts/legacy/ERC404Legacy.sol\":7095:7097  to */\n      dup5\n        /* \"contracts/legacy/ERC404Legacy.sol\":7099:7109  amountOrId */\n      dup5\n        /* \"contracts/legacy/ERC404Legacy.sol\":7079:7088  _transfer */\n      tag_190\n        /* \"contracts/legacy/ERC404Legacy.sol\":7079:7110  _transfer(from, to, amountOrId) */\n      jump\t// in\n    tag_189:\n      pop\n        /* \"contracts/legacy/ERC404Legacy.sol\":6916:7117  {... */\n      pop\n        /* \"contracts/legacy/ERC404Legacy.sol\":5826:7117  if (amountOrId <= minted) {... */\n    tag_186:\n        /* \"contracts/legacy/ERC404Legacy.sol\":5721:7121  function transferFrom(... */\n      pop\n      pop\n      pop\n      jump\t// out\n        /* \"contracts/legacy/ERC404Legacy.sol\":703:840  function revokeOwnership() public virtual onlyOwner {... */\n    tag_65:\n        /* \"contracts/legacy/ERC404Legacy.sol\":292:297  owner */\n      0x00\n      dup1\n      sload\n      swap1\n      0x0100\n      exp\n      swap1\n      div\n      0xffffffffffffffffffffffffffffffffffffffff\n      and\n        /* \"contracts/legacy/ERC404Legacy.sol\":278:297  msg.sender != owner */\n      0xffffffffffffffffffffffffffffffffffffffff\n      and\n        /* \"contracts/legacy/ERC404Legacy.sol\":278:288  msg.sender */\n      caller\n        /* \"contracts/legacy/ERC404Legacy.sol\":278:297  msg.sender != owner */\n      0xffffffffffffffffffffffffffffffffffffffff\n      and\n      eq\n        /* \"contracts/legacy/ERC404Legacy.sol\":274:320  if (msg.sender != owner) revert Unauthorized() */\n      tag_192\n      jumpi\n        /* \"contracts/legacy/ERC404Legacy.sol\":306:320  Unauthorized() */\n      mload(0x40)\n      0x82b4290000000000000000000000000000000000000000000000000000000000\n      dup2\n      mstore\n      0x04\n      add\n      mload(0x40)\n      dup1\n      swap2\n      sub\n      swap1\n      revert\n        /* \"contracts/legacy/ERC404Legacy.sol\":274:320  if (msg.sender != owner) revert Unauthorized() */\n    tag_192:\n        /* \"contracts/legacy/ERC404Legacy.sol\":777:778  0 */\n      0x00\n        /* \"contracts/legacy/ERC404Legacy.sol\":761:766  owner */\n      dup1\n      0x00\n        /* \"contracts/legacy/ERC404Legacy.sol\":761:779  owner = address(0) */\n      0x0100\n      exp\n      dup2\n      sload\n      dup2\n      0xffffffffffffffffffffffffffffffffffffffff\n      mul\n      not\n      and\n      swap1\n      dup4\n      0xffffffffffffffffffffffffffffffffffffffff\n      and\n      mul\n      or\n      swap1\n      sstore\n      pop\n        /* \"contracts/legacy/ERC404Legacy.sol\":832:833  0 */\n      0x00\n        /* \"contracts/legacy/ERC404Legacy.sol\":791:835  OwnershipTransferred(msg.sender, address(0)) */\n      0xffffffffffffffffffffffffffffffffffffffff\n      and\n        /* \"contracts/legacy/ERC404Legacy.sol\":812:822  msg.sender */\n      caller\n        /* \"contracts/legacy/ERC404Legacy.sol\":791:835  OwnershipTransferred(msg.sender, address(0)) */\n      0xffffffffffffffffffffffffffffffffffffffff\n      and\n      0x8be0079c531659141344cd1fd0a4f28419497f9722a3daafe3b4186f6b6457e0\n      mload(0x40)\n      mload(0x40)\n      dup1\n      swap2\n      sub\n      swap1\n      log3\n        /* \"contracts/legacy/ERC404Legacy.sol\":703:840  function revokeOwnership() public virtual onlyOwner {... */\n      jump\t// out\n        /* \"contracts/legacy/ERC404Legacy.sol\":2595:2626  uint8 public immutable decimals */\n    tag_67:\n      immutable(\"0x8daa2fd0bd035dbe856aeb0cf4a9c58ddc36a58ca2b562643b5027489d09ec1b\")\n      dup2\n      jump\t// out\n        /* \"contracts/legacy/ERC404Legacy.sol\":7370:7705  function safeTransferFrom(... */\n    tag_72:\n        /* \"contracts/legacy/ERC404Legacy.sol\":7471:7497  transferFrom(from, to, id) */\n      tag_195\n        /* \"contracts/legacy/ERC404Legacy.sol\":7484:7488  from */\n      dup4\n        /* \"contracts/legacy/ERC404Legacy.sol\":7490:7492  to */\n      dup4\n        /* \"contracts/legacy/ERC404Legacy.sol\":7494:7496  id */\n      dup4\n        /* \"contracts/legacy/ERC404Legacy.sol\":7471:7483  transferFrom */\n      tag_63\n        /* \"contracts/legacy/ERC404Legacy.sol\":7471:7497  transferFrom(from, to, id) */\n      jump\t// in\n    tag_195:\n        /* \"contracts/legacy/ERC404Legacy.sol\":7533:7534  0 */\n      0x00\n        /* \"contracts/legacy/ERC404Legacy.sol\":7515:7517  to */\n      dup3\n        /* \"contracts/legacy/ERC404Legacy.sol\":7515:7529  to.code.length */\n      0xffffffffffffffffffffffffffffffffffffffff\n      and\n      extcodesize\n        /* \"contracts/legacy/ERC404Legacy.sol\":7515:7534  to.code.length != 0 */\n      eq\n      iszero\n        /* \"contracts/legacy/ERC404Legacy.sol\":7515:7655  to.code.length != 0 &&... */\n      dup1\n      iszero\n      tag_196\n      jumpi\n      pop\n        /* \"contracts/legacy/ERC404Legacy.sol\":7615:7655  ERC721Receiver.onERC721Received.selector */\n      shl(0xe0, 0x150b7a02)\n        /* \"contracts/legacy/ERC404Legacy.sol\":7544:7655  ERC721Receiver(to).onERC721Received(msg.sender, from, id, \"\") !=... */\n      not(0xffffffffffffffffffffffffffffffffffffffffffffffffffffffff)\n      and\n        /* \"contracts/legacy/ERC404Legacy.sol\":7559:7561  to */\n      dup3\n        /* \"contracts/legacy/ERC404Legacy.sol\":7544:7579  ERC721Receiver(to).onERC721Received */\n      0xffffffffffffffffffffffffffffffffffffffff\n      and\n      0x150b7a02\n        /* \"contracts/legacy/ERC404Legacy.sol\":7580:7590  msg.sender */\n      caller\n        /* \"contracts/legacy/ERC404Legacy.sol\":7592:7596  from */\n      dup7\n        /* \"contracts/legacy/ERC404Legacy.sol\":7598:7600  id */\n      dup6\n        /* \"contracts/legacy/ERC404Legacy.sol\":7544:7605  ERC721Receiver(to).onERC721Received(msg.sender, from, id, \"\") */\n      mload(0x40)\n      dup5\n      0xffffffff\n      and\n      0xe0\n      shl\n      dup2\n      mstore\n      0x04\n      add\n      tag_197\n      swap4\n      swap3\n      swap2\n      swap1\n      tag_198\n      jump\t// in\n    tag_197:\n      0x20\n      mload(0x40)\n      dup1\n      dup4\n      sub\n      dup2\n      0x00\n      dup8\n      gas\n      call\n      iszero\n      dup1\n      iszero\n      tag_200\n      jumpi\n      returndatasize\n      0x00\n      dup1\n      returndatacopy\n      revert(0x00, returndatasize)\n    tag_200:\n      pop\n      pop\n      pop\n      pop\n      mload(0x40)\n      returndatasize\n      not(0x1f)\n      0x1f\n      dup3\n      add\n      and\n      dup3\n      add\n      dup1\n      0x40\n      mstore\n      pop\n      dup2\n      add\n      swap1\n      tag_201\n      swap2\n      swap1\n      tag_202\n      jump\t// in\n    tag_201:\n        /* \"contracts/legacy/ERC404Legacy.sol\":7544:7655  ERC721Receiver(to).onERC721Received(msg.sender, from, id, \"\") !=... */\n      not(0xffffffffffffffffffffffffffffffffffffffffffffffffffffffff)\n      and\n      eq\n      iszero\n        /* \"contracts/legacy/ERC404Legacy.sol\":7515:7655  to.code.length != 0 &&... */\n    tag_196:\n        /* \"contracts/legacy/ERC404Legacy.sol\":7504:7701  if (... */\n      iszero\n      tag_203\n      jumpi\n        /* \"contracts/legacy/ERC404Legacy.sol\":7677:7694  UnsafeRecipient() */\n      mload(0x40)\n      0x3da6393100000000000000000000000000000000000000000000000000000000\n      dup2\n      mstore\n      0x04\n      add\n      mload(0x40)\n      dup1\n      swap2\n      sub\n      swap1\n      revert\n        /* \"contracts/legacy/ERC404Legacy.sol\":7504:7701  if (... */\n    tag_203:\n        /* \"contracts/legacy/ERC404Legacy.sol\":7370:7705  function safeTransferFrom(... */\n      pop\n      pop\n      pop\n      jump\t// out\n        /* \"contracts/legacy/ERC404Legacy.sol\":2816:2837  uint256 public minted */\n    tag_74:\n      sload(0x03)\n      dup2\n      jump\t// out\n        /* \"contracts/legacy/Pandora.sol\":598:735  function setNameSymbol(... */\n    tag_79:\n        /* \"contracts/legacy/ERC404Legacy.sol\":292:297  owner */\n      0x00\n      dup1\n      sload\n      swap1\n      0x0100\n      exp\n      swap1\n      div\n      0xffffffffffffffffffffffffffffffffffffffff\n      and\n        /* \"contracts/legacy/ERC404Legacy.sol\":278:297  msg.sender != owner */\n      0xffffffffffffffffffffffffffffffffffffffff\n      and\n        /* \"contracts/legacy/ERC404Legacy.sol\":278:288  msg.sender */\n      caller\n        /* \"contracts/legacy/ERC404Legacy.sol\":278:297  msg.sender != owner */\n      0xffffffffffffffffffffffffffffffffffffffff\n      and\n      eq\n        /* \"contracts/legacy/ERC404Legacy.sol\":274:320  if (msg.sender != owner) revert Unauthorized() */\n      tag_205\n      jumpi\n        /* \"contracts/legacy/ERC404Legacy.sol\":306:320  Unauthorized() */\n      mload(0x40)\n      0x82b4290000000000000000000000000000000000000000000000000000000000\n      dup2\n      mstore\n      0x04\n      add\n      mload(0x40)\n      dup1\n      swap2\n      sub\n      swap1\n      revert\n        /* \"contracts/legacy/ERC404Legacy.sol\":274:320  if (msg.sender != owner) revert Unauthorized() */\n    tag_205:\n        /* \"contracts/legacy/Pandora.sol\":700:730  _setNameSymbol(_name, _symbol) */\n      tag_207\n        /* \"contracts/legacy/Pandora.sol\":715:720  _name */\n      dup3\n        /* \"contracts/legacy/Pandora.sol\":722:729  _symbol */\n      dup3\n        /* \"contracts/legacy/Pandora.sol\":700:714  _setNameSymbol */\n      tag_208\n        /* \"contracts/legacy/Pandora.sol\":700:730  _setNameSymbol(_name, _symbol) */\n      jump\t// in\n    tag_207:\n        /* \"contracts/legacy/Pandora.sol\":598:735  function setNameSymbol(... */\n      pop\n      pop\n      jump\t// out\n        /* \"contracts/legacy/ERC404Legacy.sol\":4189:4292  function setWhitelist(address target, bool state) public onlyOwner {... */\n    tag_83:\n        /* \"contracts/legacy/ERC404Legacy.sol\":292:297  owner */\n      0x00\n      dup1\n      sload\n      swap1\n      0x0100\n      exp\n      swap1\n      div\n      0xffffffffffffffffffffffffffffffffffffffff\n      and\n        /* \"contracts/legacy/ERC404Legacy.sol\":278:297  msg.sender != owner */\n      0xffffffffffffffffffffffffffffffffffffffff\n      and\n        /* \"contracts/legacy/ERC404Legacy.sol\":278:288  msg.sender */\n      caller\n        /* \"contracts/legacy/ERC404Legacy.sol\":278:297  msg.sender != owner */\n      0xffffffffffffffffffffffffffffffffffffffff\n      and\n      eq\n        /* \"contracts/legacy/ERC404Legacy.sol\":274:320  if (msg.sender != owner) revert Unauthorized() */\n      tag_210\n      jumpi\n        /* \"contracts/legacy/ERC404Legacy.sol\":306:320  Unauthorized() */\n      mload(0x40)\n      0x82b4290000000000000000000000000000000000000000000000000000000000\n      dup2\n      mstore\n      0x04\n      add\n      mload(0x40)\n      dup1\n      swap2\n      sub\n      swap1\n      revert\n        /* \"contracts/legacy/ERC404Legacy.sol\":274:320  if (msg.sender != owner) revert Unauthorized() */\n    tag_210:\n        /* \"contracts/legacy/ERC404Legacy.sol\":4282:4287  state */\n      dup1\n        /* \"contracts/legacy/ERC404Legacy.sol\":4262:4271  whitelist */\n      0x0b\n        /* \"contracts/legacy/ERC404Legacy.sol\":4262:4279  whitelist[target] */\n      0x00\n        /* \"contracts/legacy/ERC404Legacy.sol\":4272:4278  target */\n      dup5\n        /* \"contracts/legacy/ERC404Legacy.sol\":4262:4279  whitelist[target] */\n      0xffffffffffffffffffffffffffffffffffffffff\n      and\n      0xffffffffffffffffffffffffffffffffffffffff\n      and\n      dup2\n      mstore\n      0x20\n      add\n      swap1\n      dup2\n      mstore\n      0x20\n      add\n      0x00\n      keccak256\n      0x00\n        /* \"contracts/legacy/ERC404Legacy.sol\":4262:4287  whitelist[target] = state */\n      0x0100\n      exp\n      dup2\n      sload\n      dup2\n      0xff\n      mul\n      not\n      and\n      swap1\n      dup4\n      iszero\n      iszero\n      mul\n      or\n      swap1\n      sstore\n      pop\n        /* \"contracts/legacy/ERC404Legacy.sol\":4189:4292  function setWhitelist(address target, bool state) public onlyOwner {... */\n      pop\n      pop\n      jump\t// out\n        /* \"contracts/legacy/ERC404Legacy.sol\":4357:4524  function ownerOf(uint256 id) public view virtual returns (address owner) {... */\n    tag_86:\n        /* \"contracts/legacy/ERC404Legacy.sol\":4415:4428  address owner */\n      0x00\n        /* \"contracts/legacy/ERC404Legacy.sol\":4444:4452  _ownerOf */\n      0x08\n        /* \"contracts/legacy/ERC404Legacy.sol\":4444:4456  _ownerOf[id] */\n      0x00\n        /* \"contracts/legacy/ERC404Legacy.sol\":4453:4455  id */\n      dup4\n        /* \"contracts/legacy/ERC404Legacy.sol\":4444:4456  _ownerOf[id] */\n      dup2\n      mstore\n      0x20\n      add\n      swap1\n      dup2\n      mstore\n      0x20\n      add\n      0x00\n      keccak256\n      0x00\n      swap1\n      sload\n      swap1\n      0x0100\n      exp\n      swap1\n      div\n      0xffffffffffffffffffffffffffffffffffffffff\n      and\n        /* \"contracts/legacy/ERC404Legacy.sol\":4436:4456  owner = _ownerOf[id] */\n      swap1\n      pop\n        /* \"contracts/legacy/ERC404Legacy.sol\":4484:4485  0 */\n      0x00\n        /* \"contracts/legacy/ERC404Legacy.sol\":4467:4486  owner == address(0) */\n      0xffffffffffffffffffffffffffffffffffffffff\n      and\n        /* \"contracts/legacy/ERC404Legacy.sol\":4467:4472  owner */\n      dup2\n        /* \"contracts/legacy/ERC404Legacy.sol\":4467:4486  owner == address(0) */\n      0xffffffffffffffffffffffffffffffffffffffff\n      and\n      sub\n        /* \"contracts/legacy/ERC404Legacy.sol\":4463:4520  if (owner == address(0)) {... */\n      tag_213\n      jumpi\n        /* \"contracts/legacy/ERC404Legacy.sol\":4503:4513  NotFound() */\n      mload(0x40)\n      0xc5723b5100000000000000000000000000000000000000000000000000000000\n      dup2\n      mstore\n      0x04\n      add\n      mload(0x40)\n      dup1\n      swap2\n      sub\n      swap1\n      revert\n        /* \"contracts/legacy/ERC404Legacy.sol\":4463:4520  if (owner == address(0)) {... */\n    tag_213:\n        /* \"contracts/legacy/ERC404Legacy.sol\":4357:4524  function ownerOf(uint256 id) public view virtual returns (address owner) {... */\n      swap2\n      swap1\n      pop\n      jump\t// out\n        /* \"contracts/legacy/ERC404Legacy.sol\":2912:2956  mapping(address => uint256) public balanceOf */\n    tag_91:\n      mstore(0x20, 0x04)\n      dup1\n      0x00\n      mstore\n      keccak256(0x00, 0x40)\n      0x00\n      swap2\n      pop\n      swap1\n      pop\n      sload\n      dup2\n      jump\t// out\n        /* \"contracts/legacy/ERC404Legacy.sol\":214:234  address public owner */\n    tag_94:\n      0x00\n      dup1\n      sload\n      swap1\n      0x0100\n      exp\n      swap1\n      div\n      0xffffffffffffffffffffffffffffffffffffffff\n      and\n      dup2\n      jump\t// out\n        /* \"contracts/legacy/ERC404Legacy.sol\":2520:2540  string public symbol */\n    tag_97:\n      0x02\n      dup1\n      sload\n      tag_214\n      swap1\n      tag_140\n      jump\t// in\n    tag_214:\n      dup1\n      0x1f\n      add\n      0x20\n      dup1\n      swap2\n      div\n      mul\n      0x20\n      add\n      mload(0x40)\n      swap1\n      dup2\n      add\n      0x40\n      mstore\n      dup1\n      swap3\n      swap2\n      swap1\n      dup2\n      dup2\n      mstore\n      0x20\n      add\n      dup3\n      dup1\n      sload\n      tag_215\n      swap1\n      tag_140\n      jump\t// in\n    tag_215:\n      dup1\n      iszero\n      tag_216\n      jumpi\n      dup1\n      0x1f\n      lt\n      tag_217\n      jumpi\n      0x0100\n      dup1\n      dup4\n      sload\n      div\n      mul\n      dup4\n      mstore\n      swap2\n      0x20\n      add\n      swap2\n      jump(tag_216)\n    tag_217:\n      dup3\n      add\n      swap2\n      swap1\n      0x00\n      mstore\n      keccak256(0x00, 0x20)\n      swap1\n    tag_218:\n      dup2\n      sload\n      dup2\n      mstore\n      swap1\n      0x01\n      add\n      swap1\n      0x20\n      add\n      dup1\n      dup4\n      gt\n      tag_218\n      jumpi\n      dup3\n      swap1\n      sub\n      0x1f\n      and\n      dup3\n      add\n      swap2\n    tag_216:\n      pop\n      pop\n      pop\n      pop\n      pop\n      dup2\n      jump\t// out\n        /* \"contracts/legacy/ERC404Legacy.sol\":3708:3749  mapping(address => bool) public whitelist */\n    tag_101:\n      mstore(0x20, 0x0b)\n      dup1\n      0x00\n      mstore\n      keccak256(0x00, 0x40)\n      0x00\n      swap2\n      pop\n      sload\n      swap1\n      0x0100\n      exp\n      swap1\n      div\n      0xff\n      and\n      dup2\n      jump\t// out\n        /* \"contracts/legacy/ERC404Legacy.sol\":5389:5582  function setApprovalForAll(address operator, bool approved) public virtual {... */\n    tag_105:\n        /* \"contracts/legacy/ERC404Legacy.sol\":5511:5519  approved */\n      dup1\n        /* \"contracts/legacy/ERC404Legacy.sol\":5470:5486  isApprovedForAll */\n      0x07\n        /* \"contracts/legacy/ERC404Legacy.sol\":5470:5498  isApprovedForAll[msg.sender] */\n      0x00\n        /* \"contracts/legacy/ERC404Legacy.sol\":5487:5497  msg.sender */\n      caller\n        /* \"contracts/legacy/ERC404Legacy.sol\":5470:5498  isApprovedForAll[msg.sender] */\n      0xffffffffffffffffffffffffffffffffffffffff\n      and\n      0xffffffffffffffffffffffffffffffffffffffff\n      and\n      dup2\n      mstore\n      0x20\n      add\n      swap1\n      dup2\n      mstore\n      0x20\n      add\n      0x00\n      keccak256\n        /* \"contracts/legacy/ERC404Legacy.sol\":5470:5508  isApprovedForAll[msg.sender][operator] */\n      0x00\n        /* \"contracts/legacy/ERC404Legacy.sol\":5499:5507  operator */\n      dup5\n        /* \"contracts/legacy/ERC404Legacy.sol\":5470:5508  isApprovedForAll[msg.sender][operator] */\n      0xffffffffffffffffffffffffffffffffffffffff\n      and\n      0xffffffffffffffffffffffffffffffffffffffff\n      and\n      dup2\n      mstore\n      0x20\n      add\n      swap1\n      dup2\n      mstore\n      0x20\n      add\n      0x00\n      keccak256\n      0x00\n        /* \"contracts/legacy/ERC404Legacy.sol\":5470:5519  isApprovedForAll[msg.sender][operator] = approved */\n      0x0100\n      exp\n      dup2\n      sload\n      dup2\n      0xff\n      mul\n      not\n      and\n      swap1\n      dup4\n      iszero\n      iszero\n      mul\n      or\n      swap1\n      sstore\n      pop\n        /* \"contracts/legacy/ERC404Legacy.sol\":5558:5566  operator */\n      dup2\n        /* \"contracts/legacy/ERC404Legacy.sol\":5531:5577  ApprovalForAll(msg.sender, operator, approved) */\n      0xffffffffffffffffffffffffffffffffffffffff\n      and\n        /* \"contracts/legacy/ERC404Legacy.sol\":5546:5556  msg.sender */\n      caller\n        /* \"contracts/legacy/ERC404Legacy.sol\":5531:5577  ApprovalForAll(msg.sender, operator, approved) */\n      0xffffffffffffffffffffffffffffffffffffffff\n      and\n      0x17307eab39ab6107e8899845ad3d59bd9653f200f220920489ca2b5937696c31\n        /* \"contracts/legacy/ERC404Legacy.sol\":5568:5576  approved */\n      dup4\n        /* \"contracts/legacy/ERC404Legacy.sol\":5531:5577  ApprovalForAll(msg.sender, operator, approved) */\n      mload(0x40)\n      tag_220\n      swap2\n      swap1\n      tag_51\n      jump\t// in\n    tag_220:\n      mload(0x40)\n      dup1\n      swap2\n      sub\n      swap1\n      log3\n        /* \"contracts/legacy/ERC404Legacy.sol\":5389:5582  function setApprovalForAll(address operator, bool approved) public virtual {... */\n      pop\n      pop\n      jump\t// out\n        /* \"contracts/legacy/ERC404Legacy.sol\":7173:7300  function transfer(address to, uint256 amount) public virtual returns (bool) {... */\n    tag_108:\n        /* \"contracts/legacy/ERC404Legacy.sol\":7243:7247  bool */\n      0x00\n        /* \"contracts/legacy/ERC404Legacy.sol\":7262:7295  _transfer(msg.sender, to, amount) */\n      tag_222\n        /* \"contracts/legacy/ERC404Legacy.sol\":7272:7282  msg.sender */\n      caller\n        /* \"contracts/legacy/ERC404Legacy.sol\":7284:7286  to */\n      dup5\n        /* \"contracts/legacy/ERC404Legacy.sol\":7288:7294  amount */\n      dup5\n        /* \"contracts/legacy/ERC404Legacy.sol\":7262:7271  _transfer */\n      tag_190\n        /* \"contracts/legacy/ERC404Legacy.sol\":7262:7295  _transfer(msg.sender, to, amount) */\n      jump\t// in\n    tag_222:\n        /* \"contracts/legacy/ERC404Legacy.sol\":7255:7295  return _transfer(msg.sender, to, amount) */\n      swap1\n      pop\n        /* \"contracts/legacy/ERC404Legacy.sol\":7173:7300  function transfer(address to, uint256 amount) public virtual returns (bool) {... */\n      swap3\n      swap2\n      pop\n      pop\n      jump\t// out\n        /* \"contracts/legacy/ERC404Legacy.sol\":7793:8155  function safeTransferFrom(... */\n    tag_113:\n        /* \"contracts/legacy/ERC404Legacy.sol\":7919:7945  transferFrom(from, to, id) */\n      tag_224\n        /* \"contracts/legacy/ERC404Legacy.sol\":7932:7936  from */\n      dup6\n        /* \"contracts/legacy/ERC404Legacy.sol\":7938:7940  to */\n      dup6\n        /* \"contracts/legacy/ERC404Legacy.sol\":7942:7944  id */\n      dup6\n        /* \"contracts/legacy/ERC404Legacy.sol\":7919:7931  transferFrom */\n      tag_63\n        /* \"contracts/legacy/ERC404Legacy.sol\":7919:7945  transferFrom(from, to, id) */\n      jump\t// in\n    tag_224:\n        /* \"contracts/legacy/ERC404Legacy.sol\":7981:7982  0 */\n      0x00\n        /* \"contracts/legacy/ERC404Legacy.sol\":7963:7965  to */\n      dup5\n        /* \"contracts/legacy/ERC404Legacy.sol\":7963:7977  to.code.length */\n      0xffffffffffffffffffffffffffffffffffffffff\n      and\n      extcodesize\n        /* \"contracts/legacy/ERC404Legacy.sol\":7963:7982  to.code.length != 0 */\n      eq\n      iszero\n        /* \"contracts/legacy/ERC404Legacy.sol\":7963:8105  to.code.length != 0 &&... */\n      dup1\n      iszero\n      tag_225\n      jumpi\n      pop\n        /* \"contracts/legacy/ERC404Legacy.sol\":8065:8105  ERC721Receiver.onERC721Received.selector */\n      shl(0xe0, 0x150b7a02)\n        /* \"contracts/legacy/ERC404Legacy.sol\":7992:8105  ERC721Receiver(to).onERC721Received(msg.sender, from, id, data) !=... */\n      not(0xffffffffffffffffffffffffffffffffffffffffffffffffffffffff)\n      and\n        /* \"contracts/legacy/ERC404Legacy.sol\":8007:8009  to */\n      dup5\n        /* \"contracts/legacy/ERC404Legacy.sol\":7992:8027  ERC721Receiver(to).onERC721Received */\n      0xffffffffffffffffffffffffffffffffffffffff\n      and\n      0x150b7a02\n        /* \"contracts/legacy/ERC404Legacy.sol\":8028:8038  msg.sender */\n      caller\n        /* \"contracts/legacy/ERC404Legacy.sol\":8040:8044  from */\n      dup9\n        /* \"contracts/legacy/ERC404Legacy.sol\":8046:8048  id */\n      dup8\n        /* \"contracts/legacy/ERC404Legacy.sol\":8050:8054  data */\n      dup8\n      dup8\n        /* \"contracts/legacy/ERC404Legacy.sol\":7992:8055  ERC721Receiver(to).onERC721Received(msg.sender, from, id, data) */\n      mload(0x40)\n      dup7\n      0xffffffff\n      and\n      0xe0\n      shl\n      dup2\n      mstore\n      0x04\n      add\n      tag_226\n      swap6\n      swap5\n      swap4\n      swap3\n      swap2\n      swap1\n      tag_227\n      jump\t// in\n    tag_226:\n      0x20\n      mload(0x40)\n      dup1\n      dup4\n      sub\n      dup2\n      0x00\n      dup8\n      gas\n      call\n      iszero\n      dup1\n      iszero\n      tag_229\n      jumpi\n      returndatasize\n      0x00\n      dup1\n      returndatacopy\n      revert(0x00, returndatasize)\n    tag_229:\n      pop\n      pop\n      pop\n      pop\n      mload(0x40)\n      returndatasize\n      not(0x1f)\n      0x1f\n      dup3\n      add\n      and\n      dup3\n      add\n      dup1\n      0x40\n      mstore\n      pop\n      dup2\n      add\n      swap1\n      tag_230\n      swap2\n      swap1\n      tag_202\n      jump\t// in\n    tag_230:\n        /* \"contracts/legacy/ERC404Legacy.sol\":7992:8105  ERC721Receiver(to).onERC721Received(msg.sender, from, id, data) !=... */\n      not(0xffffffffffffffffffffffffffffffffffffffffffffffffffffffff)\n      and\n      eq\n      iszero\n        /* \"contracts/legacy/ERC404Legacy.sol\":7963:8105  to.code.length != 0 &&... */\n    tag_225:\n        /* \"contracts/legacy/ERC404Legacy.sol\":7952:8151  if (... */\n      iszero\n      tag_231\n      jumpi\n        /* \"contracts/legacy/ERC404Legacy.sol\":8127:8144  UnsafeRecipient() */\n      mload(0x40)\n      0x3da6393100000000000000000000000000000000000000000000000000000000\n      dup2\n      mstore\n      0x04\n      add\n      mload(0x40)\n      dup1\n      swap2\n      sub\n      swap1\n      revert\n        /* \"contracts/legacy/ERC404Legacy.sol\":7952:8151  if (... */\n    tag_231:\n        /* \"contracts/legacy/ERC404Legacy.sol\":7793:8155  function safeTransferFrom(... */\n      pop\n      pop\n      pop\n      pop\n      pop\n      jump\t// out\n        /* \"contracts/legacy/Pandora.sol\":739:2229  function tokenURI(uint256 id) public view override returns (string memory) {... */\n    tag_116:\n        /* \"contracts/legacy/Pandora.sol\":799:812  string memory */\n      0x60\n        /* \"contracts/legacy/Pandora.sol\":853:854  0 */\n      0x00\n        /* \"contracts/legacy/Pandora.sol\":830:842  baseTokenURI */\n      0x0d\n        /* \"contracts/legacy/Pandora.sol\":824:850  bytes(baseTokenURI).length */\n      dup1\n      sload\n      tag_233\n      swap1\n      tag_140\n      jump\t// in\n    tag_233:\n      swap1\n      pop\n        /* \"contracts/legacy/Pandora.sol\":824:854  bytes(baseTokenURI).length > 0 */\n      gt\n        /* \"contracts/legacy/Pandora.sol\":820:2225  if (bytes(baseTokenURI).length > 0) {... */\n      iszero\n      tag_234\n      jumpi\n        /* \"contracts/legacy/Pandora.sol\":885:897  baseTokenURI */\n      0x0d\n        /* \"contracts/legacy/Pandora.sol\":899:919  Strings.toString(id) */\n      tag_235\n        /* \"contracts/legacy/Pandora.sol\":916:918  id */\n      dup4\n        /* \"contracts/legacy/Pandora.sol\":899:915  Strings.toString */\n      tag_236\n        /* \"contracts/legacy/Pandora.sol\":899:919  Strings.toString(id) */\n      jump\t// in\n    tag_235:\n        /* \"contracts/legacy/Pandora.sol\":871:920  string.concat(baseTokenURI, Strings.toString(id)) */\n      add(0x20, mload(0x40))\n      tag_237\n      swap3\n      swap2\n      swap1\n      tag_238\n      jump\t// in\n    tag_237:\n      mload(0x40)\n      0x20\n      dup2\n      dup4\n      sub\n      sub\n      dup2\n      mstore\n      swap1\n      0x40\n      mstore\n        /* \"contracts/legacy/Pandora.sol\":864:920  return string.concat(baseTokenURI, Strings.toString(id)) */\n      swap1\n      pop\n      jump(tag_232)\n        /* \"contracts/legacy/Pandora.sol\":820:2225  if (bytes(baseTokenURI).length > 0) {... */\n    tag_234:\n        /* \"contracts/legacy/Pandora.sol\":941:951  uint8 seed */\n      0x00\n        /* \"contracts/legacy/Pandora.sol\":994:996  id */\n      dup3\n        /* \"contracts/legacy/Pandora.sol\":977:997  abi.encodePacked(id) */\n      add(0x20, mload(0x40))\n      tag_240\n      swap2\n      swap1\n      tag_241\n      jump\t// in\n    tag_240:\n      mload(0x40)\n      0x20\n      dup2\n      dup4\n      sub\n      sub\n      dup2\n      mstore\n      swap1\n      0x40\n      mstore\n        /* \"contracts/legacy/Pandora.sol\":967:998  keccak256(abi.encodePacked(id)) */\n      dup1\n      mload\n      swap1\n      0x20\n      add\n      keccak256\n        /* \"contracts/legacy/Pandora.sol\":954:1000  uint8(bytes1(keccak256(abi.encodePacked(id)))) */\n      0xf8\n      shr\n        /* \"contracts/legacy/Pandora.sol\":941:1000  uint8 seed = uint8(bytes1(keccak256(abi.encodePacked(id)))) */\n      swap1\n      pop\n        /* \"contracts/legacy/Pandora.sol\":1008:1027  string memory image */\n      0x60\n        /* \"contracts/legacy/Pandora.sol\":1035:1054  string memory color */\n      dup1\n        /* \"contracts/legacy/Pandora.sol\":1075:1078  100 */\n      0x64\n        /* \"contracts/legacy/Pandora.sol\":1067:1071  seed */\n      dup4\n        /* \"contracts/legacy/Pandora.sol\":1067:1078  seed <= 100 */\n      0xff\n      and\n      gt\n        /* \"contracts/legacy/Pandora.sol\":1063:1466  if (seed <= 100) {... */\n      tag_242\n      jumpi\n        /* \"contracts/legacy/Pandora.sol\":1090:1105  image = \"1.gif\" */\n      mload(0x40)\n      dup1\n      0x40\n      add\n      0x40\n      mstore\n      dup1\n      0x05\n      dup2\n      mstore\n      0x20\n      add\n      0x312e676966000000000000000000000000000000000000000000000000000000\n      dup2\n      mstore\n      pop\n      swap2\n      pop\n        /* \"contracts/legacy/Pandora.sol\":1115:1130  color = \"Green\" */\n      mload(0x40)\n      dup1\n      0x40\n      add\n      0x40\n      mstore\n      dup1\n      0x05\n      dup2\n      mstore\n      0x20\n      add\n      0x477265656e000000000000000000000000000000000000000000000000000000\n      dup2\n      mstore\n      pop\n      swap1\n      pop\n        /* \"contracts/legacy/Pandora.sol\":1063:1466  if (seed <= 100) {... */\n      jump(tag_243)\n    tag_242:\n        /* \"contracts/legacy/Pandora.sol\":1157:1160  160 */\n      0xa0\n        /* \"contracts/legacy/Pandora.sol\":1149:1153  seed */\n      dup4\n        /* \"contracts/legacy/Pandora.sol\":1149:1160  seed <= 160 */\n      0xff\n      and\n      gt\n        /* \"contracts/legacy/Pandora.sol\":1145:1466  if (seed <= 160) {... */\n      tag_244\n      jumpi\n        /* \"contracts/legacy/Pandora.sol\":1172:1187  image = \"2.gif\" */\n      mload(0x40)\n      dup1\n      0x40\n      add\n      0x40\n      mstore\n      dup1\n      0x05\n      dup2\n      mstore\n      0x20\n      add\n      0x322e676966000000000000000000000000000000000000000000000000000000\n      dup2\n      mstore\n      pop\n      swap2\n      pop\n        /* \"contracts/legacy/Pandora.sol\":1197:1211  color = \"Blue\" */\n      mload(0x40)\n      dup1\n      0x40\n      add\n      0x40\n      mstore\n      dup1\n      0x04\n      dup2\n      mstore\n      0x20\n      add\n      0x426c756500000000000000000000000000000000000000000000000000000000\n      dup2\n      mstore\n      pop\n      swap1\n      pop\n        /* \"contracts/legacy/Pandora.sol\":1145:1466  if (seed <= 160) {... */\n      jump(tag_245)\n    tag_244:\n        /* \"contracts/legacy/Pandora.sol\":1238:1241  210 */\n      0xd2\n        /* \"contracts/legacy/Pandora.sol\":1230:1234  seed */\n      dup4\n        /* \"contracts/legacy/Pandora.sol\":1230:1241  seed <= 210 */\n      0xff\n      and\n      gt\n        /* \"contracts/legacy/Pandora.sol\":1226:1466  if (seed <= 210) {... */\n      tag_246\n      jumpi\n        /* \"contracts/legacy/Pandora.sol\":1253:1268  image = \"3.gif\" */\n      mload(0x40)\n      dup1\n      0x40\n      add\n      0x40\n      mstore\n      dup1\n      0x05\n      dup2\n      mstore\n      0x20\n      add\n      0x332e676966000000000000000000000000000000000000000000000000000000\n      dup2\n      mstore\n      pop\n      swap2\n      pop\n        /* \"contracts/legacy/Pandora.sol\":1278:1294  color = \"Purple\" */\n      mload(0x40)\n      dup1\n      0x40\n      add\n      0x40\n      mstore\n      dup1\n      0x06\n      dup2\n      mstore\n      0x20\n      add\n      0x507572706c650000000000000000000000000000000000000000000000000000\n      dup2\n      mstore\n      pop\n      swap1\n      pop\n        /* \"contracts/legacy/Pandora.sol\":1226:1466  if (seed <= 210) {... */\n      jump(tag_247)\n    tag_246:\n        /* \"contracts/legacy/Pandora.sol\":1321:1324  240 */\n      0xf0\n        /* \"contracts/legacy/Pandora.sol\":1313:1317  seed */\n      dup4\n        /* \"contracts/legacy/Pandora.sol\":1313:1324  seed <= 240 */\n      0xff\n      and\n      gt\n        /* \"contracts/legacy/Pandora.sol\":1309:1466  if (seed <= 240) {... */\n      tag_248\n      jumpi\n        /* \"contracts/legacy/Pandora.sol\":1336:1351  image = \"4.gif\" */\n      mload(0x40)\n      dup1\n      0x40\n      add\n      0x40\n      mstore\n      dup1\n      0x05\n      dup2\n      mstore\n      0x20\n      add\n      0x342e676966000000000000000000000000000000000000000000000000000000\n      dup2\n      mstore\n      pop\n      swap2\n      pop\n        /* \"contracts/legacy/Pandora.sol\":1361:1377  color = \"Orange\" */\n      mload(0x40)\n      dup1\n      0x40\n      add\n      0x40\n      mstore\n      dup1\n      0x06\n      dup2\n      mstore\n      0x20\n      add\n      0x4f72616e67650000000000000000000000000000000000000000000000000000\n      dup2\n      mstore\n      pop\n      swap1\n      pop\n        /* \"contracts/legacy/Pandora.sol\":1309:1466  if (seed <= 240) {... */\n      jump(tag_249)\n    tag_248:\n        /* \"contracts/legacy/Pandora.sol\":1404:1407  255 */\n      0xff\n        /* \"contracts/legacy/Pandora.sol\":1396:1400  seed */\n      dup4\n        /* \"contracts/legacy/Pandora.sol\":1396:1407  seed <= 255 */\n      0xff\n      and\n      gt\n        /* \"contracts/legacy/Pandora.sol\":1392:1466  if (seed <= 255) {... */\n      tag_250\n      jumpi\n        /* \"contracts/legacy/Pandora.sol\":1419:1434  image = \"5.gif\" */\n      mload(0x40)\n      dup1\n      0x40\n      add\n      0x40\n      mstore\n      dup1\n      0x05\n      dup2\n      mstore\n      0x20\n      add\n      0x352e676966000000000000000000000000000000000000000000000000000000\n      dup2\n      mstore\n      pop\n      swap2\n      pop\n        /* \"contracts/legacy/Pandora.sol\":1444:1457  color = \"Red\" */\n      mload(0x40)\n      dup1\n      0x40\n      add\n      0x40\n      mstore\n      dup1\n      0x03\n      dup2\n      mstore\n      0x20\n      add\n      0x5265640000000000000000000000000000000000000000000000000000000000\n      dup2\n      mstore\n      pop\n      swap1\n      pop\n        /* \"contracts/legacy/Pandora.sol\":1392:1466  if (seed <= 255) {... */\n    tag_250:\n        /* \"contracts/legacy/Pandora.sol\":1309:1466  if (seed <= 240) {... */\n    tag_249:\n        /* \"contracts/legacy/Pandora.sol\":1226:1466  if (seed <= 210) {... */\n    tag_247:\n        /* \"contracts/legacy/Pandora.sol\":1145:1466  if (seed <= 160) {... */\n    tag_245:\n        /* \"contracts/legacy/Pandora.sol\":1063:1466  if (seed <= 100) {... */\n    tag_243:\n        /* \"contracts/legacy/Pandora.sol\":1474:1500  string memory jsonPreImage */\n      0x00\n        /* \"contracts/legacy/Pandora.sol\":1588:1608  Strings.toString(id) */\n      tag_251\n        /* \"contracts/legacy/Pandora.sol\":1605:1607  id */\n      dup7\n        /* \"contracts/legacy/Pandora.sol\":1588:1604  Strings.toString */\n      tag_236\n        /* \"contracts/legacy/Pandora.sol\":1588:1608  Strings.toString(id) */\n      jump\t// in\n    tag_251:\n        /* \"contracts/legacy/Pandora.sol\":1551:1609  string.concat('{\"name\": \"Pandora #', Strings.toString(id)) */\n      add(0x20, mload(0x40))\n      tag_252\n      swap2\n      swap1\n      tag_253\n      jump\t// in\n    tag_252:\n      mload(0x40)\n      0x20\n      dup2\n      dup4\n      sub\n      sub\n      dup2\n      mstore\n      swap1\n      0x40\n      mstore\n        /* \"contracts/legacy/Pandora.sol\":1526:1784  string.concat(... */\n      add(0x20, mload(0x40))\n      tag_254\n      swap2\n      swap1\n      tag_255\n      jump\t// in\n    tag_254:\n      mload(0x40)\n      0x20\n      dup2\n      dup4\n      sub\n      sub\n      dup2\n      mstore\n      swap1\n      0x40\n      mstore\n        /* \"contracts/legacy/Pandora.sol\":1808:1815  dataURI */\n      0x0c\n        /* \"contracts/legacy/Pandora.sol\":1817:1822  image */\n      dup5\n        /* \"contracts/legacy/Pandora.sol\":1794:1823  string.concat(dataURI, image) */\n      add(0x20, mload(0x40))\n      tag_256\n      swap3\n      swap2\n      swap1\n      tag_238\n      jump\t// in\n    tag_256:\n      mload(0x40)\n      0x20\n      dup2\n      dup4\n      sub\n      sub\n      dup2\n      mstore\n      swap1\n      0x40\n      mstore\n        /* \"contracts/legacy/Pandora.sol\":1503:1831  string.concat(... */\n      add(0x20, mload(0x40))\n      tag_257\n      swap3\n      swap2\n      swap1\n      tag_258\n      jump\t// in\n    tag_257:\n      mload(0x40)\n      0x20\n      dup2\n      dup4\n      sub\n      sub\n      dup2\n      mstore\n      swap1\n      0x40\n      mstore\n        /* \"contracts/legacy/Pandora.sol\":1474:1831  string memory jsonPreImage = string.concat(... */\n      swap1\n      pop\n        /* \"contracts/legacy/Pandora.sol\":1839:1866  string memory jsonPostImage */\n      0x00\n        /* \"contracts/legacy/Pandora.sol\":1951:1956  color */\n      dup3\n        /* \"contracts/legacy/Pandora.sol\":1869:1964  string.concat(... */\n      add(0x20, mload(0x40))\n      tag_259\n      swap2\n      swap1\n      tag_260\n      jump\t// in\n    tag_259:\n      mload(0x40)\n      0x20\n      dup2\n      dup4\n      sub\n      sub\n      dup2\n      mstore\n      swap1\n      0x40\n      mstore\n        /* \"contracts/legacy/Pandora.sol\":1839:1964  string memory jsonPostImage = string.concat(... */\n      swap1\n      pop\n        /* \"contracts/legacy/Pandora.sol\":1972:2000  string memory jsonPostTraits */\n      0x00\n        /* \"contracts/legacy/Pandora.sol\":1972:2009  string memory jsonPostTraits = '\"}]}' */\n      mload(0x40)\n      dup1\n      0x40\n      add\n      0x40\n      mstore\n      dup1\n      0x04\n      dup2\n      mstore\n      0x20\n      add\n      0x227d5d7d00000000000000000000000000000000000000000000000000000000\n      dup2\n      mstore\n      pop\n      swap1\n      pop\n        /* \"contracts/legacy/Pandora.sol\":2140:2152  jsonPreImage */\n      dup3\n        /* \"contracts/legacy/Pandora.sol\":2154:2167  jsonPostImage */\n      dup3\n        /* \"contracts/legacy/Pandora.sol\":2126:2168  string.concat(jsonPreImage, jsonPostImage) */\n      add(0x20, mload(0x40))\n      tag_261\n      swap3\n      swap2\n      swap1\n      tag_258\n      jump\t// in\n    tag_261:\n      mload(0x40)\n      0x20\n      dup2\n      dup4\n      sub\n      sub\n      dup2\n      mstore\n      swap1\n      0x40\n      mstore\n        /* \"contracts/legacy/Pandora.sol\":2182:2196  jsonPostTraits */\n      dup2\n        /* \"contracts/legacy/Pandora.sol\":2099:2208  string.concat(... */\n      add(0x20, mload(0x40))\n      tag_262\n      swap3\n      swap2\n      swap1\n      tag_258\n      jump\t// in\n    tag_262:\n      mload(0x40)\n      0x20\n      dup2\n      dup4\n      sub\n      sub\n      dup2\n      mstore\n      swap1\n      0x40\n      mstore\n        /* \"contracts/legacy/Pandora.sol\":2033:2218  string.concat(... */\n      add(0x20, mload(0x40))\n      tag_263\n      swap2\n      swap1\n      tag_264\n      jump\t// in\n    tag_263:\n      mload(0x40)\n      0x20\n      dup2\n      dup4\n      sub\n      sub\n      dup2\n      mstore\n      swap1\n      0x40\n      mstore\n        /* \"contracts/legacy/Pandora.sol\":2018:2218  return... */\n      swap7\n      pop\n      pop\n      pop\n      pop\n      pop\n      pop\n      pop\n        /* \"contracts/legacy/Pandora.sol\":739:2229  function tokenURI(uint256 id) public view override returns (string memory) {... */\n    tag_232:\n      swap2\n      swap1\n      pop\n      jump\t// out\n        /* \"contracts/legacy/Pandora.sol\":200:226  string public baseTokenURI */\n    tag_119:\n      0x0d\n      dup1\n      sload\n      tag_265\n      swap1\n      tag_140\n      jump\t// in\n    tag_265:\n      dup1\n      0x1f\n      add\n      0x20\n      dup1\n      swap2\n      div\n      mul\n      0x20\n      add\n      mload(0x40)\n      swap1\n      dup2\n      add\n      0x40\n      mstore\n      dup1\n      swap3\n      swap2\n      swap1\n      dup2\n      dup2\n      mstore\n      0x20\n      add\n      dup3\n      dup1\n      sload\n      tag_266\n      swap1\n      tag_140\n      jump\t// in\n    tag_266:\n      dup1\n      iszero\n      tag_267\n      jumpi\n      dup1\n      0x1f\n      lt\n      tag_268\n      jumpi\n      0x0100\n      dup1\n      dup4\n      sload\n      div\n      mul\n      dup4\n      mstore\n      swap2\n      0x20\n      add\n      swap2\n      jump(tag_267)\n    tag_268:\n      dup3\n      add\n      swap2\n      swap1\n      0x00\n      mstore\n      keccak256(0x00, 0x20)\n      swap1\n    tag_269:\n      dup2\n      sload\n      dup2\n      mstore\n      swap1\n      0x01\n      add\n      swap1\n      0x20\n      add\n      dup1\n      dup4\n      gt\n      tag_269\n      jumpi\n      dup3\n      swap1\n      sub\n      0x1f\n      and\n      dup3\n      add\n      swap2\n    tag_267:\n      pop\n      pop\n      pop\n      pop\n      pop\n      dup2\n      jump\t// out\n        /* \"contracts/legacy/ERC404Legacy.sol\":3019:3083  mapping(address => mapping(address => uint256)) public allowance */\n    tag_124:\n      mstore(0x20, 0x05)\n      dup2\n      0x00\n      mstore\n      mstore(0x20, keccak256(0x00, 0x40))\n      dup1\n      0x00\n      mstore\n      keccak256(0x00, 0x40)\n      0x00\n      swap2\n      pop\n      swap2\n      pop\n      pop\n      sload\n      dup2\n      jump\t// out\n        /* \"contracts/legacy/Pandora.sol\":496:594  function setTokenURI(string memory _tokenURI) public onlyOwner {... */\n    tag_128:\n        /* \"contracts/legacy/ERC404Legacy.sol\":292:297  owner */\n      0x00\n      dup1\n      sload\n      swap1\n      0x0100\n      exp\n      swap1\n      div\n      0xffffffffffffffffffffffffffffffffffffffff\n      and\n        /* \"contracts/legacy/ERC404Legacy.sol\":278:297  msg.sender != owner */\n      0xffffffffffffffffffffffffffffffffffffffff\n      and\n        /* \"contracts/legacy/ERC404Legacy.sol\":278:288  msg.sender */\n      caller\n        /* \"contracts/legacy/ERC404Legacy.sol\":278:297  msg.sender != owner */\n      0xffffffffffffffffffffffffffffffffffffffff\n      and\n      eq\n        /* \"contracts/legacy/ERC404Legacy.sol\":274:320  if (msg.sender != owner) revert Unauthorized() */\n      tag_271\n      jumpi\n        /* \"contracts/legacy/ERC404Legacy.sol\":306:320  Unauthorized() */\n      mload(0x40)\n      0x82b4290000000000000000000000000000000000000000000000000000000000\n      dup2\n      mstore\n      0x04\n      add\n      mload(0x40)\n      dup1\n      swap2\n      sub\n      swap1\n      revert\n        /* \"contracts/legacy/ERC404Legacy.sol\":274:320  if (msg.sender != owner) revert Unauthorized() */\n    tag_271:\n        /* \"contracts/legacy/Pandora.sol\":580:589  _tokenURI */\n      dup1\n        /* \"contracts/legacy/Pandora.sol\":565:577  baseTokenURI */\n      0x0d\n        /* \"contracts/legacy/Pandora.sol\":565:589  baseTokenURI = _tokenURI */\n      swap1\n      dup2\n      tag_273\n      swap2\n      swap1\n      tag_157\n      jump\t// in\n    tag_273:\n      pop\n        /* \"contracts/legacy/Pandora.sol\":496:594  function setTokenURI(string memory _tokenURI) public onlyOwner {... */\n      pop\n      jump\t// out\n        /* \"contracts/legacy/ERC404Legacy.sol\":3236:3304  mapping(address => mapping(address => bool)) public isApprovedForAll */\n    tag_131:\n      mstore(0x20, 0x07)\n      dup2\n      0x00\n      mstore\n      mstore(0x20, keccak256(0x00, 0x40))\n      dup1\n      0x00\n      mstore\n      keccak256(0x00, 0x40)\n      0x00\n      swap2\n      pop\n      swap2\n      pop\n      swap1\n      sload\n      swap1\n      0x0100\n      exp\n      swap1\n      div\n      0xff\n      and\n      dup2\n      jump\t// out\n        /* \"contracts/legacy/Pandora.sol\":175:196  string public dataURI */\n    tag_134:\n      0x0c\n      dup1\n      sload\n      tag_274\n      swap1\n      tag_140\n      jump\t// in\n    tag_274:\n      dup1\n      0x1f\n      add\n      0x20\n      dup1\n      swap2\n      div\n      mul\n      0x20\n      add\n      mload(0x40)\n      swap1\n      dup2\n      add\n      0x40\n      mstore\n      dup1\n      swap3\n      swap2\n      swap1\n      dup2\n      dup2\n      mstore\n      0x20\n      add\n      dup3\n      dup1\n      sload\n      tag_275\n      swap1\n      tag_140\n      jump\t// in\n    tag_275:\n      dup1\n      iszero\n      tag_276\n      jumpi\n      dup1\n      0x1f\n      lt\n      tag_277\n      jumpi\n      0x0100\n      dup1\n      dup4\n      sload\n      div\n      mul\n      dup4\n      mstore\n      swap2\n      0x20\n      add\n      swap2\n      jump(tag_276)\n    tag_277:\n      dup3\n      add\n      swap2\n      swap1\n      0x00\n      mstore\n      keccak256(0x00, 0x20)\n      swap1\n    tag_278:\n      dup2\n      sload\n      dup2\n      mstore\n      swap1\n      0x01\n      add\n      swap1\n      0x20\n      add\n      dup1\n      dup4\n      gt\n      tag_278\n      jumpi\n      dup3\n      swap1\n      sub\n      0x1f\n      and\n      dup3\n      add\n      swap2\n    tag_276:\n      pop\n      pop\n      pop\n      pop\n      pop\n      dup2\n      jump\t// out\n        /* \"contracts/legacy/ERC404Legacy.sol\":500:699  function transferOwnership(address _owner) public virtual onlyOwner {... */\n    tag_138:\n        /* \"contracts/legacy/ERC404Legacy.sol\":292:297  owner */\n      0x00\n      dup1\n      sload\n      swap1\n      0x0100\n      exp\n      swap1\n      div\n      0xffffffffffffffffffffffffffffffffffffffff\n      and\n        /* \"contracts/legacy/ERC404Legacy.sol\":278:297  msg.sender != owner */\n      0xffffffffffffffffffffffffffffffffffffffff\n      and\n        /* \"contracts/legacy/ERC404Legacy.sol\":278:288  msg.sender */\n      caller\n        /* \"contracts/legacy/ERC404Legacy.sol\":278:297  msg.sender != owner */\n      0xffffffffffffffffffffffffffffffffffffffff\n      and\n      eq\n        /* \"contracts/legacy/ERC404Legacy.sol\":274:320  if (msg.sender != owner) revert Unauthorized() */\n      tag_280\n      jumpi\n        /* \"contracts/legacy/ERC404Legacy.sol\":306:320  Unauthorized() */\n      mload(0x40)\n      0x82b4290000000000000000000000000000000000000000000000000000000000\n      dup2\n      mstore\n      0x04\n      add\n      mload(0x40)\n      dup1\n      swap2\n      sub\n      swap1\n      revert\n        /* \"contracts/legacy/ERC404Legacy.sol\":274:320  if (msg.sender != owner) revert Unauthorized() */\n    tag_280:\n        /* \"contracts/legacy/ERC404Legacy.sol\":596:597  0 */\n      0x00\n        /* \"contracts/legacy/ERC404Legacy.sol\":578:598  _owner == address(0) */\n      0xffffffffffffffffffffffffffffffffffffffff\n      and\n        /* \"contracts/legacy/ERC404Legacy.sol\":578:584  _owner */\n      dup2\n        /* \"contracts/legacy/ERC404Legacy.sol\":578:598  _owner == address(0) */\n      0xffffffffffffffffffffffffffffffffffffffff\n      and\n      sub\n        /* \"contracts/legacy/ERC404Legacy.sol\":574:621  if (_owner == address(0)) revert InvalidOwner() */\n      tag_282\n      jumpi\n        /* \"contracts/legacy/ERC404Legacy.sol\":607:621  InvalidOwner() */\n      mload(0x40)\n      0x49e27cff00000000000000000000000000000000000000000000000000000000\n      dup2\n      mstore\n      0x04\n      add\n      mload(0x40)\n      dup1\n      swap2\n      sub\n      swap1\n      revert\n        /* \"contracts/legacy/ERC404Legacy.sol\":574:621  if (_owner == address(0)) revert InvalidOwner() */\n    tag_282:\n        /* \"contracts/legacy/ERC404Legacy.sol\":636:642  _owner */\n      dup1\n        /* \"contracts/legacy/ERC404Legacy.sol\":628:633  owner */\n      0x00\n      dup1\n        /* \"contracts/legacy/ERC404Legacy.sol\":628:642  owner = _owner */\n      0x0100\n      exp\n      dup2\n      sload\n      dup2\n      0xffffffffffffffffffffffffffffffffffffffff\n      mul\n      not\n      and\n      swap1\n      dup4\n      0xffffffffffffffffffffffffffffffffffffffff\n      and\n      mul\n      or\n      swap1\n      sstore\n      pop\n        /* \"contracts/legacy/ERC404Legacy.sol\":687:693  _owner */\n      dup1\n        /* \"contracts/legacy/ERC404Legacy.sol\":654:694  OwnershipTransferred(msg.sender, _owner) */\n      0xffffffffffffffffffffffffffffffffffffffff\n      and\n        /* \"contracts/legacy/ERC404Legacy.sol\":675:685  msg.sender */\n      caller\n        /* \"contracts/legacy/ERC404Legacy.sol\":654:694  OwnershipTransferred(msg.sender, _owner) */\n      0xffffffffffffffffffffffffffffffffffffffff\n      and\n      0x8be0079c531659141344cd1fd0a4f28419497f9722a3daafe3b4186f6b6457e0\n      mload(0x40)\n      mload(0x40)\n      dup1\n      swap2\n      sub\n      swap1\n      log3\n        /* \"contracts/legacy/ERC404Legacy.sol\":500:699  function transferOwnership(address _owner) public virtual onlyOwner {... */\n      pop\n      jump\t// out\n        /* \"contracts/legacy/ERC404Legacy.sol\":9160:9244  function _getUnit() internal view returns (uint256) {... */\n    tag_166:\n        /* \"contracts/legacy/ERC404Legacy.sol\":9203:9210  uint256 */\n      0x00\n        /* \"contracts/legacy/ERC404Legacy.sol\":9231:9239  decimals */\n      immutable(\"0x8daa2fd0bd035dbe856aeb0cf4a9c58ddc36a58ca2b562643b5027489d09ec1b\")\n        /* \"contracts/legacy/ERC404Legacy.sol\":9225:9227  10 */\n      0x0a\n        /* \"contracts/legacy/ERC404Legacy.sol\":9225:9239  10 ** decimals */\n      tag_284\n      swap2\n      swap1\n      tag_285\n      jump\t// in\n    tag_284:\n        /* \"contracts/legacy/ERC404Legacy.sol\":9218:9239  return 10 ** decimals */\n      swap1\n      pop\n        /* \"contracts/legacy/ERC404Legacy.sol\":9160:9244  function _getUnit() internal view returns (uint256) {... */\n      swap1\n      jump\t// out\n        /* \"contracts/legacy/ERC404Legacy.sol\":8216:9128  function _transfer(... */\n    tag_190:\n        /* \"contracts/legacy/ERC404Legacy.sol\":8311:8315  bool */\n      0x00\n        /* \"contracts/legacy/ERC404Legacy.sol\":8323:8335  uint256 unit */\n      dup1\n        /* \"contracts/legacy/ERC404Legacy.sol\":8338:8348  _getUnit() */\n      tag_287\n        /* \"contracts/legacy/ERC404Legacy.sol\":8338:8346  _getUnit */\n      tag_166\n        /* \"contracts/legacy/ERC404Legacy.sol\":8338:8348  _getUnit() */\n      jump\t// in\n    tag_287:\n        /* \"contracts/legacy/ERC404Legacy.sol\":8323:8348  uint256 unit = _getUnit() */\n      swap1\n      pop\n        /* \"contracts/legacy/ERC404Legacy.sol\":8354:8381  uint256 balanceBeforeSender */\n      0x00\n        /* \"contracts/legacy/ERC404Legacy.sol\":8384:8393  balanceOf */\n      0x04\n        /* \"contracts/legacy/ERC404Legacy.sol\":8384:8399  balanceOf[from] */\n      0x00\n        /* \"contracts/legacy/ERC404Legacy.sol\":8394:8398  from */\n      dup8\n        /* \"contracts/legacy/ERC404Legacy.sol\":8384:8399  balanceOf[from] */\n      0xffffffffffffffffffffffffffffffffffffffff\n      and\n      0xffffffffffffffffffffffffffffffffffffffff\n      and\n      dup2\n      mstore\n      0x20\n      add\n      swap1\n      dup2\n      mstore\n      0x20\n      add\n      0x00\n      keccak256\n      sload\n        /* \"contracts/legacy/ERC404Legacy.sol\":8354:8399  uint256 balanceBeforeSender = balanceOf[from] */\n      swap1\n      pop\n        /* \"contracts/legacy/ERC404Legacy.sol\":8405:8434  uint256 balanceBeforeReceiver */\n      0x00\n        /* \"contracts/legacy/ERC404Legacy.sol\":8437:8446  balanceOf */\n      0x04\n        /* \"contracts/legacy/ERC404Legacy.sol\":8437:8450  balanceOf[to] */\n      0x00\n        /* \"contracts/legacy/ERC404Legacy.sol\":8447:8449  to */\n      dup8\n        /* \"contracts/legacy/ERC404Legacy.sol\":8437:8450  balanceOf[to] */\n      0xffffffffffffffffffffffffffffffffffffffff\n      and\n      0xffffffffffffffffffffffffffffffffffffffff\n      and\n      dup2\n      mstore\n      0x20\n      add\n      swap1\n      dup2\n      mstore\n      0x20\n      add\n      0x00\n      keccak256\n      sload\n        /* \"contracts/legacy/ERC404Legacy.sol\":8405:8450  uint256 balanceBeforeReceiver = balanceOf[to] */\n      swap1\n      pop\n        /* \"contracts/legacy/ERC404Legacy.sol\":8476:8482  amount */\n      dup5\n        /* \"contracts/legacy/ERC404Legacy.sol\":8457:8466  balanceOf */\n      0x04\n        /* \"contracts/legacy/ERC404Legacy.sol\":8457:8472  balanceOf[from] */\n      0x00\n        /* \"contracts/legacy/ERC404Legacy.sol\":8467:8471  from */\n      dup10\n        /* \"contracts/legacy/ERC404Legacy.sol\":8457:8472  balanceOf[from] */\n      0xffffffffffffffffffffffffffffffffffffffff\n      and\n      0xffffffffffffffffffffffffffffffffffffffff\n      and\n      dup2\n      mstore\n      0x20\n      add\n      swap1\n      dup2\n      mstore\n      0x20\n      add\n      0x00\n      keccak256\n      0x00\n        /* \"contracts/legacy/ERC404Legacy.sol\":8457:8482  balanceOf[from] -= amount */\n      dup3\n      dup3\n      sload\n      tag_288\n      swap2\n      swap1\n      tag_168\n      jump\t// in\n    tag_288:\n      swap3\n      pop\n      pop\n      dup2\n      swap1\n      sstore\n      pop\n        /* \"contracts/legacy/ERC404Legacy.sol\":8524:8530  amount */\n      dup5\n        /* \"contracts/legacy/ERC404Legacy.sol\":8507:8516  balanceOf */\n      0x04\n        /* \"contracts/legacy/ERC404Legacy.sol\":8507:8520  balanceOf[to] */\n      0x00\n        /* \"contracts/legacy/ERC404Legacy.sol\":8517:8519  to */\n      dup9\n        /* \"contracts/legacy/ERC404Legacy.sol\":8507:8520  balanceOf[to] */\n      0xffffffffffffffffffffffffffffffffffffffff\n      and\n      0xffffffffffffffffffffffffffffffffffffffff\n      and\n      dup2\n      mstore\n      0x20\n      add\n      swap1\n      dup2\n      mstore\n      0x20\n      add\n      0x00\n      keccak256\n      0x00\n        /* \"contracts/legacy/ERC404Legacy.sol\":8507:8530  balanceOf[to] += amount */\n      dup3\n      dup3\n      sload\n      add\n      swap3\n      pop\n      pop\n      dup2\n      swap1\n      sstore\n      pop\n        /* \"contracts/legacy/ERC404Legacy.sol\":8599:8608  whitelist */\n      0x0b\n        /* \"contracts/legacy/ERC404Legacy.sol\":8599:8614  whitelist[from] */\n      0x00\n        /* \"contracts/legacy/ERC404Legacy.sol\":8609:8613  from */\n      dup9\n        /* \"contracts/legacy/ERC404Legacy.sol\":8599:8614  whitelist[from] */\n      0xffffffffffffffffffffffffffffffffffffffff\n      and\n      0xffffffffffffffffffffffffffffffffffffffff\n      and\n      dup2\n      mstore\n      0x20\n      add\n      swap1\n      dup2\n      mstore\n      0x20\n      add\n      0x00\n      keccak256\n      0x00\n      swap1\n      sload\n      swap1\n      0x0100\n      exp\n      swap1\n      div\n      0xff\n      and\n        /* \"contracts/legacy/ERC404Legacy.sol\":8594:8801  if (!whitelist[from]) {... */\n      tag_289\n      jumpi\n        /* \"contracts/legacy/ERC404Legacy.sol\":8624:8646  uint256 tokens_to_burn */\n      0x00\n        /* \"contracts/legacy/ERC404Legacy.sol\":8707:8711  unit */\n      dup4\n        /* \"contracts/legacy/ERC404Legacy.sol\":8689:8698  balanceOf */\n      0x04\n        /* \"contracts/legacy/ERC404Legacy.sol\":8689:8704  balanceOf[from] */\n      0x00\n        /* \"contracts/legacy/ERC404Legacy.sol\":8699:8703  from */\n      dup11\n        /* \"contracts/legacy/ERC404Legacy.sol\":8689:8704  balanceOf[from] */\n      0xffffffffffffffffffffffffffffffffffffffff\n      and\n      0xffffffffffffffffffffffffffffffffffffffff\n      and\n      dup2\n      mstore\n      0x20\n      add\n      swap1\n      dup2\n      mstore\n      0x20\n      add\n      0x00\n      keccak256\n      sload\n        /* \"contracts/legacy/ERC404Legacy.sol\":8689:8711  balanceOf[from] / unit */\n      tag_290\n      swap2\n      swap1\n      tag_291\n      jump\t// in\n    tag_290:\n        /* \"contracts/legacy/ERC404Legacy.sol\":8672:8676  unit */\n      dup5\n        /* \"contracts/legacy/ERC404Legacy.sol\":8650:8669  balanceBeforeSender */\n      dup5\n        /* \"contracts/legacy/ERC404Legacy.sol\":8650:8676  balanceBeforeSender / unit */\n      tag_292\n      swap2\n      swap1\n      tag_291\n      jump\t// in\n    tag_292:\n        /* \"contracts/legacy/ERC404Legacy.sol\":8649:8712  (balanceBeforeSender / unit) -... */\n      tag_293\n      swap2\n      swap1\n      tag_168\n      jump\t// in\n    tag_293:\n        /* \"contracts/legacy/ERC404Legacy.sol\":8624:8712  uint256 tokens_to_burn = (balanceBeforeSender / unit) -... */\n      swap1\n      pop\n        /* \"contracts/legacy/ERC404Legacy.sol\":8725:8734  uint256 i */\n      0x00\n        /* \"contracts/legacy/ERC404Legacy.sol\":8720:8795  for (uint256 i = 0; i < tokens_to_burn; i++) {... */\n    tag_294:\n        /* \"contracts/legacy/ERC404Legacy.sol\":8744:8758  tokens_to_burn */\n      dup2\n        /* \"contracts/legacy/ERC404Legacy.sol\":8740:8741  i */\n      dup2\n        /* \"contracts/legacy/ERC404Legacy.sol\":8740:8758  i < tokens_to_burn */\n      lt\n        /* \"contracts/legacy/ERC404Legacy.sol\":8720:8795  for (uint256 i = 0; i < tokens_to_burn; i++) {... */\n      iszero\n      tag_295\n      jumpi\n        /* \"contracts/legacy/ERC404Legacy.sol\":8775:8786  _burn(from) */\n      tag_297\n        /* \"contracts/legacy/ERC404Legacy.sol\":8781:8785  from */\n      dup10\n        /* \"contracts/legacy/ERC404Legacy.sol\":8775:8780  _burn */\n      tag_298\n        /* \"contracts/legacy/ERC404Legacy.sol\":8775:8786  _burn(from) */\n      jump\t// in\n    tag_297:\n        /* \"contracts/legacy/ERC404Legacy.sol\":8760:8763  i++ */\n      dup1\n      dup1\n      0x01\n      add\n      swap2\n      pop\n      pop\n        /* \"contracts/legacy/ERC404Legacy.sol\":8720:8795  for (uint256 i = 0; i < tokens_to_burn; i++) {... */\n      jump(tag_294)\n    tag_295:\n      pop\n        /* \"contracts/legacy/ERC404Legacy.sol\":8616:8801  {... */\n      pop\n        /* \"contracts/legacy/ERC404Legacy.sol\":8594:8801  if (!whitelist[from]) {... */\n    tag_289:\n        /* \"contracts/legacy/ERC404Legacy.sol\":8866:8875  whitelist */\n      0x0b\n        /* \"contracts/legacy/ERC404Legacy.sol\":8866:8879  whitelist[to] */\n      0x00\n        /* \"contracts/legacy/ERC404Legacy.sol\":8876:8878  to */\n      dup8\n        /* \"contracts/legacy/ERC404Legacy.sol\":8866:8879  whitelist[to] */\n      0xffffffffffffffffffffffffffffffffffffffff\n      and\n      0xffffffffffffffffffffffffffffffffffffffff\n      and\n      dup2\n      mstore\n      0x20\n      add\n      swap1\n      dup2\n      mstore\n      0x20\n      add\n      0x00\n      keccak256\n      0x00\n      swap1\n      sload\n      swap1\n      0x0100\n      exp\n      swap1\n      div\n      0xff\n      and\n        /* \"contracts/legacy/ERC404Legacy.sol\":8861:9064  if (!whitelist[to]) {... */\n      tag_299\n      jumpi\n        /* \"contracts/legacy/ERC404Legacy.sol\":8889:8911  uint256 tokens_to_mint */\n      0x00\n        /* \"contracts/legacy/ERC404Legacy.sol\":8972:8976  unit */\n      dup4\n        /* \"contracts/legacy/ERC404Legacy.sol\":8948:8969  balanceBeforeReceiver */\n      dup3\n        /* \"contracts/legacy/ERC404Legacy.sol\":8948:8976  balanceBeforeReceiver / unit */\n      tag_300\n      swap2\n      swap1\n      tag_291\n      jump\t// in\n    tag_300:\n        /* \"contracts/legacy/ERC404Legacy.sol\":8931:8935  unit */\n      dup5\n        /* \"contracts/legacy/ERC404Legacy.sol\":8915:8924  balanceOf */\n      0x04\n        /* \"contracts/legacy/ERC404Legacy.sol\":8915:8928  balanceOf[to] */\n      0x00\n        /* \"contracts/legacy/ERC404Legacy.sol\":8925:8927  to */\n      dup11\n        /* \"contracts/legacy/ERC404Legacy.sol\":8915:8928  balanceOf[to] */\n      0xffffffffffffffffffffffffffffffffffffffff\n      and\n      0xffffffffffffffffffffffffffffffffffffffff\n      and\n      dup2\n      mstore\n      0x20\n      add\n      swap1\n      dup2\n      mstore\n      0x20\n      add\n      0x00\n      keccak256\n      sload\n        /* \"contracts/legacy/ERC404Legacy.sol\":8915:8935  balanceOf[to] / unit */\n      tag_301\n      swap2\n      swap1\n      tag_291\n      jump\t// in\n    tag_301:\n        /* \"contracts/legacy/ERC404Legacy.sol\":8914:8977  (balanceOf[to] / unit) -... */\n      tag_302\n      swap2\n      swap1\n      tag_168\n      jump\t// in\n    tag_302:\n        /* \"contracts/legacy/ERC404Legacy.sol\":8889:8977  uint256 tokens_to_mint = (balanceOf[to] / unit) -... */\n      swap1\n      pop\n        /* \"contracts/legacy/ERC404Legacy.sol\":8990:8999  uint256 i */\n      0x00\n        /* \"contracts/legacy/ERC404Legacy.sol\":8985:9058  for (uint256 i = 0; i < tokens_to_mint; i++) {... */\n    tag_303:\n        /* \"contracts/legacy/ERC404Legacy.sol\":9009:9023  tokens_to_mint */\n      dup2\n        /* \"contracts/legacy/ERC404Legacy.sol\":9005:9006  i */\n      dup2\n        /* \"contracts/legacy/ERC404Legacy.sol\":9005:9023  i < tokens_to_mint */\n      lt\n        /* \"contracts/legacy/ERC404Legacy.sol\":8985:9058  for (uint256 i = 0; i < tokens_to_mint; i++) {... */\n      iszero\n      tag_304\n      jumpi\n        /* \"contracts/legacy/ERC404Legacy.sol\":9040:9049  _mint(to) */\n      tag_306\n        /* \"contracts/legacy/ERC404Legacy.sol\":9046:9048  to */\n      dup9\n        /* \"contracts/legacy/ERC404Legacy.sol\":9040:9045  _mint */\n      tag_307\n        /* \"contracts/legacy/ERC404Legacy.sol\":9040:9049  _mint(to) */\n      jump\t// in\n    tag_306:\n        /* \"contracts/legacy/ERC404Legacy.sol\":9025:9028  i++ */\n      dup1\n      dup1\n      0x01\n      add\n      swap2\n      pop\n      pop\n        /* \"contracts/legacy/ERC404Legacy.sol\":8985:9058  for (uint256 i = 0; i < tokens_to_mint; i++) {... */\n      jump(tag_303)\n    tag_304:\n      pop\n        /* \"contracts/legacy/ERC404Legacy.sol\":8881:9064  {... */\n      pop\n        /* \"contracts/legacy/ERC404Legacy.sol\":8861:9064  if (!whitelist[to]) {... */\n    tag_299:\n        /* \"contracts/legacy/ERC404Legacy.sol\":9095:9097  to */\n      dup6\n        /* \"contracts/legacy/ERC404Legacy.sol\":9075:9106  ERC20Transfer(from, to, amount) */\n      0xffffffffffffffffffffffffffffffffffffffff\n      and\n        /* \"contracts/legacy/ERC404Legacy.sol\":9089:9093  from */\n      dup8\n        /* \"contracts/legacy/ERC404Legacy.sol\":9075:9106  ERC20Transfer(from, to, amount) */\n      0xffffffffffffffffffffffffffffffffffffffff\n      and\n      0xe59fdd36d0d223c0c7d996db7ad796880f45e1936cb0bb7ac102e7082e031487\n        /* \"contracts/legacy/ERC404Legacy.sol\":9099:9105  amount */\n      dup8\n        /* \"contracts/legacy/ERC404Legacy.sol\":9075:9106  ERC20Transfer(from, to, amount) */\n      mload(0x40)\n      tag_308\n      swap2\n      swap1\n      tag_55\n      jump\t// in\n    tag_308:\n      mload(0x40)\n      dup1\n      swap2\n      sub\n      swap1\n      log3\n        /* \"contracts/legacy/ERC404Legacy.sol\":9119:9123  true */\n      0x01\n        /* \"contracts/legacy/ERC404Legacy.sol\":9112:9123  return true */\n      swap4\n      pop\n      pop\n      pop\n      pop\n        /* \"contracts/legacy/ERC404Legacy.sol\":8216:9128  function _transfer(... */\n      swap4\n      swap3\n      pop\n      pop\n      pop\n      jump\t// out\n        /* \"contracts/legacy/ERC404Legacy.sol\":9967:10089  function _setNameSymbol(string memory _name, string memory _symbol) internal {... */\n    tag_208:\n        /* \"contracts/legacy/ERC404Legacy.sol\":10057:10062  _name */\n      dup2\n        /* \"contracts/legacy/ERC404Legacy.sol\":10050:10054  name */\n      0x01\n        /* \"contracts/legacy/ERC404Legacy.sol\":10050:10062  name = _name */\n      swap1\n      dup2\n      tag_310\n      swap2\n      swap1\n      tag_157\n      jump\t// in\n    tag_310:\n      pop\n        /* \"contracts/legacy/ERC404Legacy.sol\":10077:10084  _symbol */\n      dup1\n        /* \"contracts/legacy/ERC404Legacy.sol\":10068:10074  symbol */\n      0x02\n        /* \"contracts/legacy/ERC404Legacy.sol\":10068:10084  symbol = _symbol */\n      swap1\n      dup2\n      tag_311\n      swap2\n      swap1\n      tag_157\n      jump\t// in\n    tag_311:\n      pop\n        /* \"contracts/legacy/ERC404Legacy.sol\":9967:10089  function _setNameSymbol(string memory _name, string memory _symbol) internal {... */\n      pop\n      pop\n      jump\t// out\n        /* \"@openzeppelin/contracts/utils/Strings.sol\":637:1335  function toString(uint256 value) internal pure returns (string memory) {... */\n    tag_236:\n        /* \"@openzeppelin/contracts/utils/Strings.sol\":693:706  string memory */\n      0x60\n        /* \"@openzeppelin/contracts/utils/Strings.sol\":742:756  uint256 length */\n      0x00\n        /* \"@openzeppelin/contracts/utils/Strings.sol\":779:780  1 */\n      0x01\n        /* \"@openzeppelin/contracts/utils/Strings.sol\":759:776  Math.log10(value) */\n      tag_313\n        /* \"@openzeppelin/contracts/utils/Strings.sol\":770:775  value */\n      dup5\n        /* \"@openzeppelin/contracts/utils/Strings.sol\":759:769  Math.log10 */\n      tag_314\n        /* \"@openzeppelin/contracts/utils/Strings.sol\":759:776  Math.log10(value) */\n      jump\t// in\n    tag_313:\n        /* \"@openzeppelin/contracts/utils/Strings.sol\":759:780  Math.log10(value) + 1 */\n      add\n        /* \"@openzeppelin/contracts/utils/Strings.sol\":742:780  uint256 length = Math.log10(value) + 1 */\n      swap1\n      pop\n        /* \"@openzeppelin/contracts/utils/Strings.sol\":794:814  string memory buffer */\n      0x00\n        /* \"@openzeppelin/contracts/utils/Strings.sol\":828:834  length */\n      dup2\n        /* \"@openzeppelin/contracts/utils/Strings.sol\":817:835  new string(length) */\n      0xffffffffffffffff\n      dup2\n      gt\n      iszero\n      tag_315\n      jumpi\n      tag_316\n      tag_317\n      jump\t// in\n    tag_316:\n    tag_315:\n      mload(0x40)\n      swap1\n      dup1\n      dup3\n      mstore\n      dup1\n      0x1f\n      add\n      not(0x1f)\n      and\n      0x20\n      add\n      dup3\n      add\n      0x40\n      mstore\n      dup1\n      iszero\n      tag_318\n      jumpi\n      dup2\n      0x20\n      add\n      0x01\n      dup3\n      mul\n      dup1\n      calldatasize\n      dup4\n      calldatacopy\n      dup1\n      dup3\n      add\n      swap2\n      pop\n      pop\n      swap1\n      pop\n    tag_318:\n      pop\n        /* \"@openzeppelin/contracts/utils/Strings.sol\":794:835  string memory buffer = new string(length) */\n      swap1\n      pop\n        /* \"@openzeppelin/contracts/utils/Strings.sol\":849:860  uint256 ptr */\n      0x00\n        /* \"@openzeppelin/contracts/utils/Strings.sol\":975:981  length */\n      dup3\n        /* \"@openzeppelin/contracts/utils/Strings.sol\":971:973  32 */\n      0x20\n        /* \"@openzeppelin/contracts/utils/Strings.sol\":967:982  add(32, length) */\n      add\n        /* \"@openzeppelin/contracts/utils/Strings.sol\":959:965  buffer */\n      dup3\n        /* \"@openzeppelin/contracts/utils/Strings.sol\":955:983  add(buffer, add(32, length)) */\n      add\n        /* \"@openzeppelin/contracts/utils/Strings.sol\":948:983  ptr := add(buffer, add(32, length)) */\n      swap1\n      pop\n        /* \"@openzeppelin/contracts/utils/Strings.sol\":1010:1292  while (true) {... */\n    tag_319:\n        /* \"@openzeppelin/contracts/utils/Strings.sol\":1017:1021  true */\n      0x01\n        /* \"@openzeppelin/contracts/utils/Strings.sol\":1010:1292  while (true) {... */\n      iszero\n      tag_320\n      jumpi\n        /* \"@openzeppelin/contracts/utils/Strings.sol\":1041:1046  ptr-- */\n      dup1\n      dup1\n      0x01\n      swap1\n      sub\n      swap2\n      pop\n      pop\n        /* \"@openzeppelin/contracts/utils/Strings.sol\":1180:1190  HEX_DIGITS */\n      0x3031323334353637383961626364656600000000000000000000000000000000\n        /* \"@openzeppelin/contracts/utils/Strings.sol\":1175:1177  10 */\n      0x0a\n        /* \"@openzeppelin/contracts/utils/Strings.sol\":1168:1173  value */\n      dup7\n        /* \"@openzeppelin/contracts/utils/Strings.sol\":1164:1178  mod(value, 10) */\n      mod\n        /* \"@openzeppelin/contracts/utils/Strings.sol\":1159:1191  byte(mod(value, 10), HEX_DIGITS) */\n      byte\n        /* \"@openzeppelin/contracts/utils/Strings.sol\":1154:1157  ptr */\n      dup2\n        /* \"@openzeppelin/contracts/utils/Strings.sol\":1146:1192  mstore8(ptr, byte(mod(value, 10), HEX_DIGITS)) */\n      mstore8\n        /* \"@openzeppelin/contracts/utils/Strings.sol\":1236:1238  10 */\n      0x0a\n        /* \"@openzeppelin/contracts/utils/Strings.sol\":1227:1238  value /= 10 */\n      dup6\n      dup2\n      tag_321\n      jumpi\n      tag_322\n      tag_323\n      jump\t// in\n    tag_322:\n    tag_321:\n      div\n      swap5\n      pop\n        /* \"@openzeppelin/contracts/utils/Strings.sol\":1269:1270  0 */\n      0x00\n        /* \"@openzeppelin/contracts/utils/Strings.sol\":1260:1265  value */\n      dup6\n        /* \"@openzeppelin/contracts/utils/Strings.sol\":1260:1270  value == 0 */\n      sub\n        /* \"@openzeppelin/contracts/utils/Strings.sol\":1010:1292  while (true) {... */\n      tag_319\n        /* \"@openzeppelin/contracts/utils/Strings.sol\":1256:1277  if (value == 0) break */\n      jumpi\n        /* \"@openzeppelin/contracts/utils/Strings.sol\":1010:1292  while (true) {... */\n    tag_320:\n        /* \"@openzeppelin/contracts/utils/Strings.sol\":1312:1318  buffer */\n      dup2\n        /* \"@openzeppelin/contracts/utils/Strings.sol\":1305:1318  return buffer */\n      swap4\n      pop\n      pop\n      pop\n      pop\n        /* \"@openzeppelin/contracts/utils/Strings.sol\":637:1335  function toString(uint256 value) internal pure returns (string memory) {... */\n      swap2\n      swap1\n      pop\n      jump\t// out\n        /* \"contracts/legacy/ERC404Legacy.sol\":9642:9963  function _burn(address from) internal virtual {... */\n    tag_298:\n        /* \"contracts/legacy/ERC404Legacy.sol\":9714:9715  0 */\n      0x00\n        /* \"contracts/legacy/ERC404Legacy.sol\":9698:9716  from == address(0) */\n      0xffffffffffffffffffffffffffffffffffffffff\n      and\n        /* \"contracts/legacy/ERC404Legacy.sol\":9698:9702  from */\n      dup2\n        /* \"contracts/legacy/ERC404Legacy.sol\":9698:9716  from == address(0) */\n      0xffffffffffffffffffffffffffffffffffffffff\n      and\n      sub\n        /* \"contracts/legacy/ERC404Legacy.sol\":9694:9755  if (from == address(0)) {... */\n      tag_326\n      jumpi\n        /* \"contracts/legacy/ERC404Legacy.sol\":9733:9748  InvalidSender() */\n      mload(0x40)\n      0xddb5de5e00000000000000000000000000000000000000000000000000000000\n      dup2\n      mstore\n      0x04\n      add\n      mload(0x40)\n      dup1\n      swap2\n      sub\n      swap1\n      revert\n        /* \"contracts/legacy/ERC404Legacy.sol\":9694:9755  if (from == address(0)) {... */\n    tag_326:\n        /* \"contracts/legacy/ERC404Legacy.sol\":9761:9771  uint256 id */\n      0x00\n        /* \"contracts/legacy/ERC404Legacy.sol\":9774:9780  _owned */\n      0x09\n        /* \"contracts/legacy/ERC404Legacy.sol\":9774:9786  _owned[from] */\n      0x00\n        /* \"contracts/legacy/ERC404Legacy.sol\":9781:9785  from */\n      dup4\n        /* \"contracts/legacy/ERC404Legacy.sol\":9774:9786  _owned[from] */\n      0xffffffffffffffffffffffffffffffffffffffff\n      and\n      0xffffffffffffffffffffffffffffffffffffffff\n      and\n      dup2\n      mstore\n      0x20\n      add\n      swap1\n      dup2\n      mstore\n      0x20\n      add\n      0x00\n      keccak256\n        /* \"contracts/legacy/ERC404Legacy.sol\":9809:9810  1 */\n      0x01\n        /* \"contracts/legacy/ERC404Legacy.sol\":9787:9793  _owned */\n      0x09\n        /* \"contracts/legacy/ERC404Legacy.sol\":9787:9799  _owned[from] */\n      0x00\n        /* \"contracts/legacy/ERC404Legacy.sol\":9794:9798  from */\n      dup6\n        /* \"contracts/legacy/ERC404Legacy.sol\":9787:9799  _owned[from] */\n      0xffffffffffffffffffffffffffffffffffffffff\n      and\n      0xffffffffffffffffffffffffffffffffffffffff\n      and\n      dup2\n      mstore\n      0x20\n      add\n      swap1\n      dup2\n      mstore\n      0x20\n      add\n      0x00\n      keccak256\n        /* \"contracts/legacy/ERC404Legacy.sol\":9787:9806  _owned[from].length */\n      dup1\n      sload\n      swap1\n      pop\n        /* \"contracts/legacy/ERC404Legacy.sol\":9787:9810  _owned[from].length - 1 */\n      tag_327\n      swap2\n      swap1\n      tag_168\n      jump\t// in\n    tag_327:\n        /* \"contracts/legacy/ERC404Legacy.sol\":9774:9811  _owned[from][_owned[from].length - 1] */\n      dup2\n      sload\n      dup2\n      lt\n      tag_328\n      jumpi\n      tag_329\n      tag_173\n      jump\t// in\n    tag_329:\n    tag_328:\n      swap1\n      0x00\n      mstore\n      keccak256(0x00, 0x20)\n      add\n      sload\n        /* \"contracts/legacy/ERC404Legacy.sol\":9761:9811  uint256 id = _owned[from][_owned[from].length - 1] */\n      swap1\n      pop\n        /* \"contracts/legacy/ERC404Legacy.sol\":9817:9823  _owned */\n      0x09\n        /* \"contracts/legacy/ERC404Legacy.sol\":9817:9829  _owned[from] */\n      0x00\n        /* \"contracts/legacy/ERC404Legacy.sol\":9824:9828  from */\n      dup4\n        /* \"contracts/legacy/ERC404Legacy.sol\":9817:9829  _owned[from] */\n      0xffffffffffffffffffffffffffffffffffffffff\n      and\n      0xffffffffffffffffffffffffffffffffffffffff\n      and\n      dup2\n      mstore\n      0x20\n      add\n      swap1\n      dup2\n      mstore\n      0x20\n      add\n      0x00\n      keccak256\n        /* \"contracts/legacy/ERC404Legacy.sol\":9817:9835  _owned[from].pop() */\n      dup1\n      sload\n      dup1\n      tag_331\n      jumpi\n      tag_332\n      tag_180\n      jump\t// in\n    tag_332:\n    tag_331:\n      0x01\n      swap1\n      sub\n      dup2\n      dup2\n      swap1\n      0x00\n      mstore\n      keccak256(0x00, 0x20)\n      add\n      0x00\n      swap1\n      sstore\n      swap1\n      sstore\n        /* \"contracts/legacy/ERC404Legacy.sol\":9848:9859  _ownedIndex */\n      0x0a\n        /* \"contracts/legacy/ERC404Legacy.sol\":9848:9863  _ownedIndex[id] */\n      0x00\n        /* \"contracts/legacy/ERC404Legacy.sol\":9860:9862  id */\n      dup3\n        /* \"contracts/legacy/ERC404Legacy.sol\":9848:9863  _ownedIndex[id] */\n      dup2\n      mstore\n      0x20\n      add\n      swap1\n      dup2\n      mstore\n      0x20\n      add\n      0x00\n      keccak256\n        /* \"contracts/legacy/ERC404Legacy.sol\":9841:9863  delete _ownedIndex[id] */\n      0x00\n      swap1\n      sstore\n        /* \"contracts/legacy/ERC404Legacy.sol\":9876:9884  _ownerOf */\n      0x08\n        /* \"contracts/legacy/ERC404Legacy.sol\":9876:9888  _ownerOf[id] */\n      0x00\n        /* \"contracts/legacy/ERC404Legacy.sol\":9885:9887  id */\n      dup3\n        /* \"contracts/legacy/ERC404Legacy.sol\":9876:9888  _ownerOf[id] */\n      dup2\n      mstore\n      0x20\n      add\n      swap1\n      dup2\n      mstore\n      0x20\n      add\n      0x00\n      keccak256\n      0x00\n        /* \"contracts/legacy/ERC404Legacy.sol\":9869:9888  delete _ownerOf[id] */\n      0x0100\n      exp\n      dup2\n      sload\n      swap1\n      0xffffffffffffffffffffffffffffffffffffffff\n      mul\n      not\n      and\n      swap1\n      sstore\n        /* \"contracts/legacy/ERC404Legacy.sol\":9901:9912  getApproved */\n      0x06\n        /* \"contracts/legacy/ERC404Legacy.sol\":9901:9916  getApproved[id] */\n      0x00\n        /* \"contracts/legacy/ERC404Legacy.sol\":9913:9915  id */\n      dup3\n        /* \"contracts/legacy/ERC404Legacy.sol\":9901:9916  getApproved[id] */\n      dup2\n      mstore\n      0x20\n      add\n      swap1\n      dup2\n      mstore\n      0x20\n      add\n      0x00\n      keccak256\n      0x00\n        /* \"contracts/legacy/ERC404Legacy.sol\":9894:9916  delete getApproved[id] */\n      0x0100\n      exp\n      dup2\n      sload\n      swap1\n      0xffffffffffffffffffffffffffffffffffffffff\n      mul\n      not\n      and\n      swap1\n      sstore\n        /* \"contracts/legacy/ERC404Legacy.sol\":9955:9957  id */\n      dup1\n        /* \"contracts/legacy/ERC404Legacy.sol\":9951:9952  0 */\n      0x00\n        /* \"contracts/legacy/ERC404Legacy.sol\":9928:9958  Transfer(from, address(0), id) */\n      0xffffffffffffffffffffffffffffffffffffffff\n      and\n        /* \"contracts/legacy/ERC404Legacy.sol\":9937:9941  from */\n      dup4\n        /* \"contracts/legacy/ERC404Legacy.sol\":9928:9958  Transfer(from, address(0), id) */\n      0xffffffffffffffffffffffffffffffffffffffff\n      and\n      0xddf252ad1be2c89b69c2b068fc378daa952ba7f163c4a11628f55a4df523b3ef\n      mload(0x40)\n      mload(0x40)\n      dup1\n      swap2\n      sub\n      swap1\n      log4\n        /* \"contracts/legacy/ERC404Legacy.sol\":9688:9963  {... */\n      pop\n        /* \"contracts/legacy/ERC404Legacy.sol\":9642:9963  function _burn(address from) internal virtual {... */\n      pop\n      jump\t// out\n        /* \"contracts/legacy/ERC404Legacy.sol\":9248:9638  function _mint(address to) internal virtual {... */\n    tag_307:\n        /* \"contracts/legacy/ERC404Legacy.sol\":9316:9317  0 */\n      0x00\n        /* \"contracts/legacy/ERC404Legacy.sol\":9302:9318  to == address(0) */\n      0xffffffffffffffffffffffffffffffffffffffff\n      and\n        /* \"contracts/legacy/ERC404Legacy.sol\":9302:9304  to */\n      dup2\n        /* \"contracts/legacy/ERC404Legacy.sol\":9302:9318  to == address(0) */\n      0xffffffffffffffffffffffffffffffffffffffff\n      and\n      sub\n        /* \"contracts/legacy/ERC404Legacy.sol\":9298:9360  if (to == address(0)) {... */\n      tag_335\n      jumpi\n        /* \"contracts/legacy/ERC404Legacy.sol\":9335:9353  InvalidRecipient() */\n      mload(0x40)\n      0x9c8d2cd200000000000000000000000000000000000000000000000000000000\n      dup2\n      mstore\n      0x04\n      add\n      mload(0x40)\n      dup1\n      swap2\n      sub\n      swap1\n      revert\n        /* \"contracts/legacy/ERC404Legacy.sol\":9298:9360  if (to == address(0)) {... */\n    tag_335:\n        /* \"contracts/legacy/ERC404Legacy.sol\":9384:9390  minted */\n      0x03\n      0x00\n        /* \"contracts/legacy/ERC404Legacy.sol\":9384:9392  minted++ */\n      dup2\n      sload\n      dup1\n      swap3\n      swap2\n      swap1\n      0x01\n      add\n      swap2\n      swap1\n      pop\n      sstore\n      pop\n        /* \"contracts/legacy/ERC404Legacy.sol\":9405:9415  uint256 id */\n      0x00\n        /* \"contracts/legacy/ERC404Legacy.sol\":9418:9424  minted */\n      sload(0x03)\n        /* \"contracts/legacy/ERC404Legacy.sol\":9405:9424  uint256 id = minted */\n      swap1\n      pop\n        /* \"contracts/legacy/ERC404Legacy.sol\":9459:9460  0 */\n      0x00\n        /* \"contracts/legacy/ERC404Legacy.sol\":9435:9461  _ownerOf[id] != address(0) */\n      0xffffffffffffffffffffffffffffffffffffffff\n      and\n        /* \"contracts/legacy/ERC404Legacy.sol\":9435:9443  _ownerOf */\n      0x08\n        /* \"contracts/legacy/ERC404Legacy.sol\":9435:9447  _ownerOf[id] */\n      0x00\n        /* \"contracts/legacy/ERC404Legacy.sol\":9444:9446  id */\n      dup4\n        /* \"contracts/legacy/ERC404Legacy.sol\":9435:9447  _ownerOf[id] */\n      dup2\n      mstore\n      0x20\n      add\n      swap1\n      dup2\n      mstore\n      0x20\n      add\n      0x00\n      keccak256\n      0x00\n      swap1\n      sload\n      swap1\n      0x0100\n      exp\n      swap1\n      div\n      0xffffffffffffffffffffffffffffffffffffffff\n      and\n        /* \"contracts/legacy/ERC404Legacy.sol\":9435:9461  _ownerOf[id] != address(0) */\n      0xffffffffffffffffffffffffffffffffffffffff\n      and\n      eq\n        /* \"contracts/legacy/ERC404Legacy.sol\":9431:9500  if (_ownerOf[id] != address(0)) {... */\n      tag_336\n      jumpi\n        /* \"contracts/legacy/ERC404Legacy.sol\":9478:9493  AlreadyExists() */\n      mload(0x40)\n      0x23369fa600000000000000000000000000000000000000000000000000000000\n      dup2\n      mstore\n      0x04\n      add\n      mload(0x40)\n      dup1\n      swap2\n      sub\n      swap1\n      revert\n        /* \"contracts/legacy/ERC404Legacy.sol\":9431:9500  if (_ownerOf[id] != address(0)) {... */\n    tag_336:\n        /* \"contracts/legacy/ERC404Legacy.sol\":9521:9523  to */\n      dup2\n        /* \"contracts/legacy/ERC404Legacy.sol\":9506:9514  _ownerOf */\n      0x08\n        /* \"contracts/legacy/ERC404Legacy.sol\":9506:9518  _ownerOf[id] */\n      0x00\n        /* \"contracts/legacy/ERC404Legacy.sol\":9515:9517  id */\n      dup4\n        /* \"contracts/legacy/ERC404Legacy.sol\":9506:9518  _ownerOf[id] */\n      dup2\n      mstore\n      0x20\n      add\n      swap1\n      dup2\n      mstore\n      0x20\n      add\n      0x00\n      keccak256\n      0x00\n        /* \"contracts/legacy/ERC404Legacy.sol\":9506:9523  _ownerOf[id] = to */\n      0x0100\n      exp\n      dup2\n      sload\n      dup2\n      0xffffffffffffffffffffffffffffffffffffffff\n      mul\n      not\n      and\n      swap1\n      dup4\n      0xffffffffffffffffffffffffffffffffffffffff\n      and\n      mul\n      or\n      swap1\n      sstore\n      pop\n        /* \"contracts/legacy/ERC404Legacy.sol\":9529:9535  _owned */\n      0x09\n        /* \"contracts/legacy/ERC404Legacy.sol\":9529:9539  _owned[to] */\n      0x00\n        /* \"contracts/legacy/ERC404Legacy.sol\":9536:9538  to */\n      dup4\n        /* \"contracts/legacy/ERC404Legacy.sol\":9529:9539  _owned[to] */\n      0xffffffffffffffffffffffffffffffffffffffff\n      and\n      0xffffffffffffffffffffffffffffffffffffffff\n      and\n      dup2\n      mstore\n      0x20\n      add\n      swap1\n      dup2\n      mstore\n      0x20\n      add\n      0x00\n      keccak256\n        /* \"contracts/legacy/ERC404Legacy.sol\":9545:9547  id */\n      dup2\n        /* \"contracts/legacy/ERC404Legacy.sol\":9529:9548  _owned[to].push(id) */\n      swap1\n      dup1\n      0x01\n      dup2\n      sload\n      add\n      dup1\n      dup3\n      sstore\n      dup1\n      swap2\n      pop\n      pop\n      0x01\n      swap1\n      sub\n      swap1\n      0x00\n      mstore\n      keccak256(0x00, 0x20)\n      add\n      0x00\n      swap1\n      swap2\n      swap1\n      swap2\n      swap1\n      swap2\n      pop\n      sstore\n        /* \"contracts/legacy/ERC404Legacy.sol\":9592:9593  1 */\n      0x01\n        /* \"contracts/legacy/ERC404Legacy.sol\":9572:9578  _owned */\n      0x09\n        /* \"contracts/legacy/ERC404Legacy.sol\":9572:9582  _owned[to] */\n      0x00\n        /* \"contracts/legacy/ERC404Legacy.sol\":9579:9581  to */\n      dup5\n        /* \"contracts/legacy/ERC404Legacy.sol\":9572:9582  _owned[to] */\n      0xffffffffffffffffffffffffffffffffffffffff\n      and\n      0xffffffffffffffffffffffffffffffffffffffff\n      and\n      dup2\n      mstore\n      0x20\n      add\n      swap1\n      dup2\n      mstore\n      0x20\n      add\n      0x00\n      keccak256\n        /* \"contracts/legacy/ERC404Legacy.sol\":9572:9589  _owned[to].length */\n      dup1\n      sload\n      swap1\n      pop\n        /* \"contracts/legacy/ERC404Legacy.sol\":9572:9593  _owned[to].length - 1 */\n      tag_338\n      swap2\n      swap1\n      tag_168\n      jump\t// in\n    tag_338:\n        /* \"contracts/legacy/ERC404Legacy.sol\":9554:9565  _ownedIndex */\n      0x0a\n        /* \"contracts/legacy/ERC404Legacy.sol\":9554:9569  _ownedIndex[id] */\n      0x00\n        /* \"contracts/legacy/ERC404Legacy.sol\":9566:9568  id */\n      dup4\n        /* \"contracts/legacy/ERC404Legacy.sol\":9554:9569  _ownedIndex[id] */\n      dup2\n      mstore\n      0x20\n      add\n      swap1\n      dup2\n      mstore\n      0x20\n      add\n      0x00\n      keccak256\n        /* \"contracts/legacy/ERC404Legacy.sol\":9554:9593  _ownedIndex[id] = _owned[to].length - 1 */\n      dup2\n      swap1\n      sstore\n      pop\n        /* \"contracts/legacy/ERC404Legacy.sol\":9630:9632  id */\n      dup1\n        /* \"contracts/legacy/ERC404Legacy.sol\":9626:9628  to */\n      dup3\n        /* \"contracts/legacy/ERC404Legacy.sol\":9605:9633  Transfer(address(0), to, id) */\n      0xffffffffffffffffffffffffffffffffffffffff\n      and\n        /* \"contracts/legacy/ERC404Legacy.sol\":9622:9623  0 */\n      0x00\n        /* \"contracts/legacy/ERC404Legacy.sol\":9605:9633  Transfer(address(0), to, id) */\n      0xffffffffffffffffffffffffffffffffffffffff\n      and\n      0xddf252ad1be2c89b69c2b068fc378daa952ba7f163c4a11628f55a4df523b3ef\n      mload(0x40)\n      mload(0x40)\n      dup1\n      swap2\n      sub\n      swap1\n      log4\n        /* \"contracts/legacy/ERC404Legacy.sol\":9292:9638  {... */\n      pop\n        /* \"contracts/legacy/ERC404Legacy.sol\":9248:9638  function _mint(address to) internal virtual {... */\n      pop\n      jump\t// out\n        /* \"@openzeppelin/contracts/utils/math/Math.sol\":12214:13130  function log10(uint256 value) internal pure returns (uint256) {... */\n    tag_314:\n        /* \"@openzeppelin/contracts/utils/math/Math.sol\":12267:12274  uint256 */\n      0x00\n        /* \"@openzeppelin/contracts/utils/math/Math.sol\":12286:12300  uint256 result */\n      dup1\n        /* \"@openzeppelin/contracts/utils/math/Math.sol\":12303:12304  0 */\n      0x00\n        /* \"@openzeppelin/contracts/utils/math/Math.sol\":12286:12304  uint256 result = 0 */\n      swap1\n      pop\n        /* \"@openzeppelin/contracts/utils/math/Math.sol\":12351:12359  10 ** 64 */\n      0x184f03e93ff9f4daa797ed6e38ed64bf6a1f010000000000000000\n        /* \"@openzeppelin/contracts/utils/math/Math.sol\":12342:12347  value */\n      dup4\n        /* \"@openzeppelin/contracts/utils/math/Math.sol\":12342:12359  value >= 10 ** 64 */\n      lt\n        /* \"@openzeppelin/contracts/utils/math/Math.sol\":12338:12441  if (value >= 10 ** 64) {... */\n      tag_340\n      jumpi\n        /* \"@openzeppelin/contracts/utils/math/Math.sol\":12388:12396  10 ** 64 */\n      0x184f03e93ff9f4daa797ed6e38ed64bf6a1f010000000000000000\n        /* \"@openzeppelin/contracts/utils/math/Math.sol\":12379:12396  value /= 10 ** 64 */\n      dup4\n      dup2\n      tag_341\n      jumpi\n      tag_342\n      tag_323\n      jump\t// in\n    tag_342:\n    tag_341:\n      div\n      swap3\n      pop\n        /* \"@openzeppelin/contracts/utils/math/Math.sol\":12424:12426  64 */\n      0x40\n        /* \"@openzeppelin/contracts/utils/math/Math.sol\":12414:12426  result += 64 */\n      dup2\n      add\n      swap1\n      pop\n        /* \"@openzeppelin/contracts/utils/math/Math.sol\":12338:12441  if (value >= 10 ** 64) {... */\n    tag_340:\n        /* \"@openzeppelin/contracts/utils/math/Math.sol\":12467:12475  10 ** 32 */\n      0x04ee2d6d415b85acef8100000000\n        /* \"@openzeppelin/contracts/utils/math/Math.sol\":12458:12463  value */\n      dup4\n        /* \"@openzeppelin/contracts/utils/math/Math.sol\":12458:12475  value >= 10 ** 32 */\n      lt\n        /* \"@openzeppelin/contracts/utils/math/Math.sol\":12454:12557  if (value >= 10 ** 32) {... */\n      tag_343\n      jumpi\n        /* \"@openzeppelin/contracts/utils/math/Math.sol\":12504:12512  10 ** 32 */\n      0x04ee2d6d415b85acef8100000000\n        /* \"@openzeppelin/contracts/utils/math/Math.sol\":12495:12512  value /= 10 ** 32 */\n      dup4\n      dup2\n      tag_344\n      jumpi\n      tag_345\n      tag_323\n      jump\t// in\n    tag_345:\n    tag_344:\n      div\n      swap3\n      pop\n        /* \"@openzeppelin/contracts/utils/math/Math.sol\":12540:12542  32 */\n      0x20\n        /* \"@openzeppelin/contracts/utils/math/Math.sol\":12530:12542  result += 32 */\n      dup2\n      add\n      swap1\n      pop\n        /* \"@openzeppelin/contracts/utils/math/Math.sol\":12454:12557  if (value >= 10 ** 32) {... */\n    tag_343:\n        /* \"@openzeppelin/contracts/utils/math/Math.sol\":12583:12591  10 ** 16 */\n      0x2386f26fc10000\n        /* \"@openzeppelin/contracts/utils/math/Math.sol\":12574:12579  value */\n      dup4\n        /* \"@openzeppelin/contracts/utils/math/Math.sol\":12574:12591  value >= 10 ** 16 */\n      lt\n        /* \"@openzeppelin/contracts/utils/math/Math.sol\":12570:12673  if (value >= 10 ** 16) {... */\n      tag_346\n      jumpi\n        /* \"@openzeppelin/contracts/utils/math/Math.sol\":12620:12628  10 ** 16 */\n      0x2386f26fc10000\n        /* \"@openzeppelin/contracts/utils/math/Math.sol\":12611:12628  value /= 10 ** 16 */\n      dup4\n      dup2\n      tag_347\n      jumpi\n      tag_348\n      tag_323\n      jump\t// in\n    tag_348:\n    tag_347:\n      div\n      swap3\n      pop\n        /* \"@openzeppelin/contracts/utils/math/Math.sol\":12656:12658  16 */\n      0x10\n        /* \"@openzeppelin/contracts/utils/math/Math.sol\":12646:12658  result += 16 */\n      dup2\n      add\n      swap1\n      pop\n        /* \"@openzeppelin/contracts/utils/math/Math.sol\":12570:12673  if (value >= 10 ** 16) {... */\n    tag_346:\n        /* \"@openzeppelin/contracts/utils/math/Math.sol\":12699:12706  10 ** 8 */\n      0x05f5e100\n        /* \"@openzeppelin/contracts/utils/math/Math.sol\":12690:12695  value */\n      dup4\n        /* \"@openzeppelin/contracts/utils/math/Math.sol\":12690:12706  value >= 10 ** 8 */\n      lt\n        /* \"@openzeppelin/contracts/utils/math/Math.sol\":12686:12786  if (value >= 10 ** 8) {... */\n      tag_349\n      jumpi\n        /* \"@openzeppelin/contracts/utils/math/Math.sol\":12735:12742  10 ** 8 */\n      0x05f5e100\n        /* \"@openzeppelin/contracts/utils/math/Math.sol\":12726:12742  value /= 10 ** 8 */\n      dup4\n      dup2\n      tag_350\n      jumpi\n      tag_351\n      tag_323\n      jump\t// in\n    tag_351:\n    tag_350:\n      div\n      swap3\n      pop\n        /* \"@openzeppelin/contracts/utils/math/Math.sol\":12770:12771  8 */\n      0x08\n        /* \"@openzeppelin/contracts/utils/math/Math.sol\":12760:12771  result += 8 */\n      dup2\n      add\n      swap1\n      pop\n        /* \"@openzeppelin/contracts/utils/math/Math.sol\":12686:12786  if (value >= 10 ** 8) {... */\n    tag_349:\n        /* \"@openzeppelin/contracts/utils/math/Math.sol\":12812:12819  10 ** 4 */\n      0x2710\n        /* \"@openzeppelin/contracts/utils/math/Math.sol\":12803:12808  value */\n      dup4\n        /* \"@openzeppelin/contracts/utils/math/Math.sol\":12803:12819  value >= 10 ** 4 */\n      lt\n        /* \"@openzeppelin/contracts/utils/math/Math.sol\":12799:12899  if (value >= 10 ** 4) {... */\n      tag_352\n      jumpi\n        /* \"@openzeppelin/contracts/utils/math/Math.sol\":12848:12855  10 ** 4 */\n      0x2710\n        /* \"@openzeppelin/contracts/utils/math/Math.sol\":12839:12855  value /= 10 ** 4 */\n      dup4\n      dup2\n      tag_353\n      jumpi\n      tag_354\n      tag_323\n      jump\t// in\n    tag_354:\n    tag_353:\n      div\n      swap3\n      pop\n        /* \"@openzeppelin/contracts/utils/math/Math.sol\":12883:12884  4 */\n      0x04\n        /* \"@openzeppelin/contracts/utils/math/Math.sol\":12873:12884  result += 4 */\n      dup2\n      add\n      swap1\n      pop\n        /* \"@openzeppelin/contracts/utils/math/Math.sol\":12799:12899  if (value >= 10 ** 4) {... */\n    tag_352:\n        /* \"@openzeppelin/contracts/utils/math/Math.sol\":12925:12932  10 ** 2 */\n      0x64\n        /* \"@openzeppelin/contracts/utils/math/Math.sol\":12916:12921  value */\n      dup4\n        /* \"@openzeppelin/contracts/utils/math/Math.sol\":12916:12932  value >= 10 ** 2 */\n      lt\n        /* \"@openzeppelin/contracts/utils/math/Math.sol\":12912:13012  if (value >= 10 ** 2) {... */\n      tag_355\n      jumpi\n        /* \"@openzeppelin/contracts/utils/math/Math.sol\":12961:12968  10 ** 2 */\n      0x64\n        /* \"@openzeppelin/contracts/utils/math/Math.sol\":12952:12968  value /= 10 ** 2 */\n      dup4\n      dup2\n      tag_356\n      jumpi\n      tag_357\n      tag_323\n      jump\t// in\n    tag_357:\n    tag_356:\n      div\n      swap3\n      pop\n        /* \"@openzeppelin/contracts/utils/math/Math.sol\":12996:12997  2 */\n      0x02\n        /* \"@openzeppelin/contracts/utils/math/Math.sol\":12986:12997  result += 2 */\n      dup2\n      add\n      swap1\n      pop\n        /* \"@openzeppelin/contracts/utils/math/Math.sol\":12912:13012  if (value >= 10 ** 2) {... */\n    tag_355:\n        /* \"@openzeppelin/contracts/utils/math/Math.sol\":13038:13045  10 ** 1 */\n      0x0a\n        /* \"@openzeppelin/contracts/utils/math/Math.sol\":13029:13034  value */\n      dup4\n        /* \"@openzeppelin/contracts/utils/math/Math.sol\":13029:13045  value >= 10 ** 1 */\n      lt\n        /* \"@openzeppelin/contracts/utils/math/Math.sol\":13025:13091  if (value >= 10 ** 1) {... */\n      tag_358\n      jumpi\n        /* \"@openzeppelin/contracts/utils/math/Math.sol\":13075:13076  1 */\n      0x01\n        /* \"@openzeppelin/contracts/utils/math/Math.sol\":13065:13076  result += 1 */\n      dup2\n      add\n      swap1\n      pop\n        /* \"@openzeppelin/contracts/utils/math/Math.sol\":13025:13091  if (value >= 10 ** 1) {... */\n    tag_358:\n        /* \"@openzeppelin/contracts/utils/math/Math.sol\":13117:13123  result */\n      dup1\n        /* \"@openzeppelin/contracts/utils/math/Math.sol\":13110:13123  return result */\n      swap2\n      pop\n      pop\n        /* \"@openzeppelin/contracts/utils/math/Math.sol\":12214:13130  function log10(uint256 value) internal pure returns (uint256) {... */\n      swap2\n      swap1\n      pop\n      jump\t// out\n        /* \"#utility.yul\":7:106   */\n    tag_359:\n        /* \"#utility.yul\":59:65   */\n      0x00\n        /* \"#utility.yul\":93:98   */\n      dup2\n        /* \"#utility.yul\":87:99   */\n      mload\n        /* \"#utility.yul\":77:99   */\n      swap1\n      pop\n        /* \"#utility.yul\":7:106   */\n      swap2\n      swap1\n      pop\n      jump\t// out\n        /* \"#utility.yul\":112:281   */\n    tag_360:\n        /* \"#utility.yul\":196:207   */\n      0x00\n        /* \"#utility.yul\":230:236   */\n      dup3\n        /* \"#utility.yul\":225:228   */\n      dup3\n        /* \"#utility.yul\":218:237   */\n      mstore\n        /* \"#utility.yul\":270:274   */\n      0x20\n        /* \"#utility.yul\":265:268   */\n      dup3\n        /* \"#utility.yul\":261:275   */\n      add\n        /* \"#utility.yul\":246:275   */\n      swap1\n      pop\n        /* \"#utility.yul\":112:281   */\n      swap3\n      swap2\n      pop\n      pop\n      jump\t// out\n        /* \"#utility.yul\":287:533   */\n    tag_361:\n        /* \"#utility.yul\":368:369   */\n      0x00\n        /* \"#utility.yul\":378:491   */\n    tag_435:\n        /* \"#utility.yul\":392:398   */\n      dup4\n        /* \"#utility.yul\":389:390   */\n      dup2\n        /* \"#utility.yul\":386:399   */\n      lt\n        /* \"#utility.yul\":378:491   */\n      iszero\n      tag_437\n      jumpi\n        /* \"#utility.yul\":477:478   */\n      dup1\n        /* \"#utility.yul\":472:475   */\n      dup3\n        /* \"#utility.yul\":468:479   */\n      add\n        /* \"#utility.yul\":462:480   */\n      mload\n        /* \"#utility.yul\":458:459   */\n      dup2\n        /* \"#utility.yul\":453:456   */\n      dup5\n        /* \"#utility.yul\":449:460   */\n      add\n        /* \"#utility.yul\":442:481   */\n      mstore\n        /* \"#utility.yul\":414:416   */\n      0x20\n        /* \"#utility.yul\":411:412   */\n      dup2\n        /* \"#utility.yul\":407:417   */\n      add\n        /* \"#utility.yul\":402:417   */\n      swap1\n      pop\n        /* \"#utility.yul\":378:491   */\n      jump(tag_435)\n    tag_437:\n        /* \"#utility.yul\":525:526   */\n      0x00\n        /* \"#utility.yul\":516:522   */\n      dup5\n        /* \"#utility.yul\":511:514   */\n      dup5\n        /* \"#utility.yul\":507:523   */\n      add\n        /* \"#utility.yul\":500:527   */\n      mstore\n        /* \"#utility.yul\":349:533   */\n      pop\n        /* \"#utility.yul\":287:533   */\n      pop\n      pop\n      pop\n      jump\t// out\n        /* \"#utility.yul\":539:641   */\n    tag_362:\n        /* \"#utility.yul\":580:586   */\n      0x00\n        /* \"#utility.yul\":631:633   */\n      0x1f\n        /* \"#utility.yul\":627:634   */\n      not\n        /* \"#utility.yul\":622:624   */\n      0x1f\n        /* \"#utility.yul\":615:620   */\n      dup4\n        /* \"#utility.yul\":611:625   */\n      add\n        /* \"#utility.yul\":607:635   */\n      and\n        /* \"#utility.yul\":597:635   */\n      swap1\n      pop\n        /* \"#utility.yul\":539:641   */\n      swap2\n      swap1\n      pop\n      jump\t// out\n        /* \"#utility.yul\":647:1024   */\n    tag_363:\n        /* \"#utility.yul\":735:738   */\n      0x00\n        /* \"#utility.yul\":763:802   */\n      tag_440\n        /* \"#utility.yul\":796:801   */\n      dup3\n        /* \"#utility.yul\":763:802   */\n      tag_359\n      jump\t// in\n    tag_440:\n        /* \"#utility.yul\":818:889   */\n      tag_441\n        /* \"#utility.yul\":882:888   */\n      dup2\n        /* \"#utility.yul\":877:880   */\n      dup6\n        /* \"#utility.yul\":818:889   */\n      tag_360\n      jump\t// in\n    tag_441:\n        /* \"#utility.yul\":811:889   */\n      swap4\n      pop\n        /* \"#utility.yul\":898:963   */\n      tag_442\n        /* \"#utility.yul\":956:962   */\n      dup2\n        /* \"#utility.yul\":951:954   */\n      dup6\n        /* \"#utility.yul\":944:948   */\n      0x20\n        /* \"#utility.yul\":937:942   */\n      dup7\n        /* \"#utility.yul\":933:949   */\n      add\n        /* \"#utility.yul\":898:963   */\n      tag_361\n      jump\t// in\n    tag_442:\n        /* \"#utility.yul\":988:1017   */\n      tag_443\n        /* \"#utility.yul\":1010:1016   */\n      dup2\n        /* \"#utility.yul\":988:1017   */\n      tag_362\n      jump\t// in\n    tag_443:\n        /* \"#utility.yul\":983:986   */\n      dup5\n        /* \"#utility.yul\":979:1018   */\n      add\n        /* \"#utility.yul\":972:1018   */\n      swap2\n      pop\n        /* \"#utility.yul\":739:1024   */\n      pop\n        /* \"#utility.yul\":647:1024   */\n      swap3\n      swap2\n      pop\n      pop\n      jump\t// out\n        /* \"#utility.yul\":1030:1343   */\n    tag_39:\n        /* \"#utility.yul\":1143:1147   */\n      0x00\n        /* \"#utility.yul\":1181:1183   */\n      0x20\n        /* \"#utility.yul\":1170:1179   */\n      dup3\n        /* \"#utility.yul\":1166:1184   */\n      add\n        /* \"#utility.yul\":1158:1184   */\n      swap1\n      pop\n        /* \"#utility.yul\":1230:1239   */\n      dup2\n        /* \"#utility.yul\":1224:1228   */\n      dup2\n        /* \"#utility.yul\":1220:1240   */\n      sub\n        /* \"#utility.yul\":1216:1217   */\n      0x00\n        /* \"#utility.yul\":1205:1214   */\n      dup4\n        /* \"#utility.yul\":1201:1218   */\n      add\n        /* \"#utility.yul\":1194:1241   */\n      mstore\n        /* \"#utility.yul\":1258:1336   */\n      tag_445\n        /* \"#utility.yul\":1331:1335   */\n      dup2\n        /* \"#utility.yul\":1322:1328   */\n      dup5\n        /* \"#utility.yul\":1258:1336   */\n      tag_363\n      jump\t// in\n    tag_445:\n        /* \"#utility.yul\":1250:1336   */\n      swap1\n      pop\n        /* \"#utility.yul\":1030:1343   */\n      swap3\n      swap2\n      pop\n      pop\n      jump\t// out\n        /* \"#utility.yul\":1349:1424   */\n    tag_364:\n        /* \"#utility.yul\":1382:1388   */\n      0x00\n        /* \"#utility.yul\":1415:1417   */\n      0x40\n        /* \"#utility.yul\":1409:1418   */\n      mload\n        /* \"#utility.yul\":1399:1418   */\n      swap1\n      pop\n        /* \"#utility.yul\":1349:1424   */\n      swap1\n      jump\t// out\n        /* \"#utility.yul\":1430:1547   */\n    tag_365:\n        /* \"#utility.yul\":1539:1540   */\n      0x00\n        /* \"#utility.yul\":1536:1537   */\n      dup1\n        /* \"#utility.yul\":1529:1541   */\n      revert\n        /* \"#utility.yul\":1553:1670   */\n    tag_366:\n        /* \"#utility.yul\":1662:1663   */\n      0x00\n        /* \"#utility.yul\":1659:1660   */\n      dup1\n        /* \"#utility.yul\":1652:1664   */\n      revert\n        /* \"#utility.yul\":1676:1753   */\n    tag_367:\n        /* \"#utility.yul\":1713:1720   */\n      0x00\n        /* \"#utility.yul\":1742:1747   */\n      dup2\n        /* \"#utility.yul\":1731:1747   */\n      swap1\n      pop\n        /* \"#utility.yul\":1676:1753   */\n      swap2\n      swap1\n      pop\n      jump\t// out\n        /* \"#utility.yul\":1759:1881   */\n    tag_368:\n        /* \"#utility.yul\":1832:1856   */\n      tag_451\n        /* \"#utility.yul\":1850:1855   */\n      dup2\n        /* \"#utility.yul\":1832:1856   */\n      tag_367\n      jump\t// in\n    tag_451:\n        /* \"#utility.yul\":1825:1830   */\n      dup2\n        /* \"#utility.yul\":1822:1857   */\n      eq\n        /* \"#utility.yul\":1812:1875   */\n      tag_452\n      jumpi\n        /* \"#utility.yul\":1871:1872   */\n      0x00\n        /* \"#utility.yul\":1868:1869   */\n      dup1\n        /* \"#utility.yul\":1861:1873   */\n      revert\n        /* \"#utility.yul\":1812:1875   */\n    tag_452:\n        /* \"#utility.yul\":1759:1881   */\n      pop\n      jump\t// out\n        /* \"#utility.yul\":1887:2026   */\n    tag_369:\n        /* \"#utility.yul\":1933:1938   */\n      0x00\n        /* \"#utility.yul\":1971:1977   */\n      dup2\n        /* \"#utility.yul\":1958:1978   */\n      calldataload\n        /* \"#utility.yul\":1949:1978   */\n      swap1\n      pop\n        /* \"#utility.yul\":1987:2020   */\n      tag_454\n        /* \"#utility.yul\":2014:2019   */\n      dup2\n        /* \"#utility.yul\":1987:2020   */\n      tag_368\n      jump\t// in\n    tag_454:\n        /* \"#utility.yul\":1887:2026   */\n      swap3\n      swap2\n      pop\n      pop\n      jump\t// out\n        /* \"#utility.yul\":2032:2361   */\n    tag_42:\n        /* \"#utility.yul\":2091:2097   */\n      0x00\n        /* \"#utility.yul\":2140:2142   */\n      0x20\n        /* \"#utility.yul\":2128:2137   */\n      dup3\n        /* \"#utility.yul\":2119:2126   */\n      dup5\n        /* \"#utility.yul\":2115:2138   */\n      sub\n        /* \"#utility.yul\":2111:2143   */\n      slt\n        /* \"#utility.yul\":2108:2227   */\n      iszero\n      tag_456\n      jumpi\n        /* \"#utility.yul\":2146:2225   */\n      tag_457\n      tag_365\n      jump\t// in\n    tag_457:\n        /* \"#utility.yul\":2108:2227   */\n    tag_456:\n        /* \"#utility.yul\":2266:2267   */\n      0x00\n        /* \"#utility.yul\":2291:2344   */\n      tag_458\n        /* \"#utility.yul\":2336:2343   */\n      dup5\n        /* \"#utility.yul\":2327:2333   */\n      dup3\n        /* \"#utility.yul\":2316:2325   */\n      dup6\n        /* \"#utility.yul\":2312:2334   */\n      add\n        /* \"#utility.yul\":2291:2344   */\n      tag_369\n      jump\t// in\n    tag_458:\n        /* \"#utility.yul\":2281:2344   */\n      swap2\n      pop\n        /* \"#utility.yul\":2237:2354   */\n      pop\n        /* \"#utility.yul\":2032:2361   */\n      swap3\n      swap2\n      pop\n      pop\n      jump\t// out\n        /* \"#utility.yul\":2367:2493   */\n    tag_370:\n        /* \"#utility.yul\":2404:2411   */\n      0x00\n        /* \"#utility.yul\":2444:2486   */\n      0xffffffffffffffffffffffffffffffffffffffff\n        /* \"#utility.yul\":2437:2442   */\n      dup3\n        /* \"#utility.yul\":2433:2487   */\n      and\n        /* \"#utility.yul\":2422:2487   */\n      swap1\n      pop\n        /* \"#utility.yul\":2367:2493   */\n      swap2\n      swap1\n      pop\n      jump\t// out\n        /* \"#utility.yul\":2499:2595   */\n    tag_371:\n        /* \"#utility.yul\":2536:2543   */\n      0x00\n        /* \"#utility.yul\":2565:2589   */\n      tag_461\n        /* \"#utility.yul\":2583:2588   */\n      dup3\n        /* \"#utility.yul\":2565:2589   */\n      tag_370\n      jump\t// in\n    tag_461:\n        /* \"#utility.yul\":2554:2589   */\n      swap1\n      pop\n        /* \"#utility.yul\":2499:2595   */\n      swap2\n      swap1\n      pop\n      jump\t// out\n        /* \"#utility.yul\":2601:2719   */\n    tag_372:\n        /* \"#utility.yul\":2688:2712   */\n      tag_463\n        /* \"#utility.yul\":2706:2711   */\n      dup2\n        /* \"#utility.yul\":2688:2712   */\n      tag_371\n      jump\t// in\n    tag_463:\n        /* \"#utility.yul\":2683:2686   */\n      dup3\n        /* \"#utility.yul\":2676:2713   */\n      mstore\n        /* \"#utility.yul\":2601:2719   */\n      pop\n      pop\n      jump\t// out\n        /* \"#utility.yul\":2725:2947   */\n    tag_45:\n        /* \"#utility.yul\":2818:2822   */\n      0x00\n        /* \"#utility.yul\":2856:2858   */\n      0x20\n        /* \"#utility.yul\":2845:2854   */\n      dup3\n        /* \"#utility.yul\":2841:2859   */\n      add\n        /* \"#utility.yul\":2833:2859   */\n      swap1\n      pop\n        /* \"#utility.yul\":2869:2940   */\n      tag_465\n        /* \"#utility.yul\":2937:2938   */\n      0x00\n        /* \"#utility.yul\":2926:2935   */\n      dup4\n        /* \"#utility.yul\":2922:2939   */\n      add\n        /* \"#utility.yul\":2913:2919   */\n      dup5\n        /* \"#utility.yul\":2869:2940   */\n      tag_372\n      jump\t// in\n    tag_465:\n        /* \"#utility.yul\":2725:2947   */\n      swap3\n      swap2\n      pop\n      pop\n      jump\t// out\n        /* \"#utility.yul\":2953:3075   */\n    tag_373:\n        /* \"#utility.yul\":3026:3050   */\n      tag_467\n        /* \"#utility.yul\":3044:3049   */\n      dup2\n        /* \"#utility.yul\":3026:3050   */\n      tag_371\n      jump\t// in\n    tag_467:\n        /* \"#utility.yul\":3019:3024   */\n      dup2\n        /* \"#utility.yul\":3016:3051   */\n      eq\n        /* \"#utility.yul\":3006:3069   */\n      tag_468\n      jumpi\n        /* \"#utility.yul\":3065:3066   */\n      0x00\n        /* \"#utility.yul\":3062:3063   */\n      dup1\n        /* \"#utility.yul\":3055:3067   */\n      revert\n        /* \"#utility.yul\":3006:3069   */\n    tag_468:\n        /* \"#utility.yul\":2953:3075   */\n      pop\n      jump\t// out\n        /* \"#utility.yul\":3081:3220   */\n    tag_374:\n        /* \"#utility.yul\":3127:3132   */\n      0x00\n        /* \"#utility.yul\":3165:3171   */\n      dup2\n        /* \"#utility.yul\":3152:3172   */\n      calldataload\n        /* \"#utility.yul\":3143:3172   */\n      swap1\n      pop\n        /* \"#utility.yul\":3181:3214   */\n      tag_470\n        /* \"#utility.yul\":3208:3213   */\n      dup2\n        /* \"#utility.yul\":3181:3214   */\n      tag_373\n      jump\t// in\n    tag_470:\n        /* \"#utility.yul\":3081:3220   */\n      swap3\n      swap2\n      pop\n      pop\n      jump\t// out\n        /* \"#utility.yul\":3226:3700   */\n    tag_48:\n        /* \"#utility.yul\":3294:3300   */\n      0x00\n        /* \"#utility.yul\":3302:3308   */\n      dup1\n        /* \"#utility.yul\":3351:3353   */\n      0x40\n        /* \"#utility.yul\":3339:3348   */\n      dup4\n        /* \"#utility.yul\":3330:3337   */\n      dup6\n        /* \"#utility.yul\":3326:3349   */\n      sub\n        /* \"#utility.yul\":3322:3354   */\n      slt\n        /* \"#utility.yul\":3319:3438   */\n      iszero\n      tag_472\n      jumpi\n        /* \"#utility.yul\":3357:3436   */\n      tag_473\n      tag_365\n      jump\t// in\n    tag_473:\n        /* \"#utility.yul\":3319:3438   */\n    tag_472:\n        /* \"#utility.yul\":3477:3478   */\n      0x00\n        /* \"#utility.yul\":3502:3555   */\n      tag_474\n        /* \"#utility.yul\":3547:3554   */\n      dup6\n        /* \"#utility.yul\":3538:3544   */\n      dup3\n        /* \"#utility.yul\":3527:3536   */\n      dup7\n        /* \"#utility.yul\":3523:3545   */\n      add\n        /* \"#utility.yul\":3502:3555   */\n      tag_374\n      jump\t// in\n    tag_474:\n        /* \"#utility.yul\":3492:3555   */\n      swap3\n      pop\n        /* \"#utility.yul\":3448:3565   */\n      pop\n        /* \"#utility.yul\":3604:3606   */\n      0x20\n        /* \"#utility.yul\":3630:3683   */\n      tag_475\n        /* \"#utility.yul\":3675:3682   */\n      dup6\n        /* \"#utility.yul\":3666:3672   */\n      dup3\n        /* \"#utility.yul\":3655:3664   */\n      dup7\n        /* \"#utility.yul\":3651:3673   */\n      add\n        /* \"#utility.yul\":3630:3683   */\n      tag_369\n      jump\t// in\n    tag_475:\n        /* \"#utility.yul\":3620:3683   */\n      swap2\n      pop\n        /* \"#utility.yul\":3575:3693   */\n      pop\n        /* \"#utility.yul\":3226:3700   */\n      swap3\n      pop\n      swap3\n      swap1\n      pop\n      jump\t// out\n        /* \"#utility.yul\":3706:3796   */\n    tag_375:\n        /* \"#utility.yul\":3740:3747   */\n      0x00\n        /* \"#utility.yul\":3783:3788   */\n      dup2\n        /* \"#utility.yul\":3776:3789   */\n      iszero\n        /* \"#utility.yul\":3769:3790   */\n      iszero\n        /* \"#utility.yul\":3758:3790   */\n      swap1\n      pop\n        /* \"#utility.yul\":3706:3796   */\n      swap2\n      swap1\n      pop\n      jump\t// out\n        /* \"#utility.yul\":3802:3911   */\n    tag_376:\n        /* \"#utility.yul\":3883:3904   */\n      tag_478\n        /* \"#utility.yul\":3898:3903   */\n      dup2\n        /* \"#utility.yul\":3883:3904   */\n      tag_375\n      jump\t// in\n    tag_478:\n        /* \"#utility.yul\":3878:3881   */\n      dup3\n        /* \"#utility.yul\":3871:3905   */\n      mstore\n        /* \"#utility.yul\":3802:3911   */\n      pop\n      pop\n      jump\t// out\n        /* \"#utility.yul\":3917:4127   */\n    tag_51:\n        /* \"#utility.yul\":4004:4008   */\n      0x00\n        /* \"#utility.yul\":4042:4044   */\n      0x20\n        /* \"#utility.yul\":4031:4040   */\n      dup3\n        /* \"#utility.yul\":4027:4045   */\n      add\n        /* \"#utility.yul\":4019:4045   */\n      swap1\n      pop\n        /* \"#utility.yul\":4055:4120   */\n      tag_480\n        /* \"#utility.yul\":4117:4118   */\n      0x00\n        /* \"#utility.yul\":4106:4115   */\n      dup4\n        /* \"#utility.yul\":4102:4119   */\n      add\n        /* \"#utility.yul\":4093:4099   */\n      dup5\n        /* \"#utility.yul\":4055:4120   */\n      tag_376\n      jump\t// in\n    tag_480:\n        /* \"#utility.yul\":3917:4127   */\n      swap3\n      swap2\n      pop\n      pop\n      jump\t// out\n        /* \"#utility.yul\":4133:4251   */\n    tag_377:\n        /* \"#utility.yul\":4220:4244   */\n      tag_482\n        /* \"#utility.yul\":4238:4243   */\n      dup2\n        /* \"#utility.yul\":4220:4244   */\n      tag_367\n      jump\t// in\n    tag_482:\n        /* \"#utility.yul\":4215:4218   */\n      dup3\n        /* \"#utility.yul\":4208:4245   */\n      mstore\n        /* \"#utility.yul\":4133:4251   */\n      pop\n      pop\n      jump\t// out\n        /* \"#utility.yul\":4257:4479   */\n    tag_55:\n        /* \"#utility.yul\":4350:4354   */\n      0x00\n        /* \"#utility.yul\":4388:4390   */\n      0x20\n        /* \"#utility.yul\":4377:4386   */\n      dup3\n        /* \"#utility.yul\":4373:4391   */\n      add\n        /* \"#utility.yul\":4365:4391   */\n      swap1\n      pop\n        /* \"#utility.yul\":4401:4472   */\n      tag_484\n        /* \"#utility.yul\":4469:4470   */\n      0x00\n        /* \"#utility.yul\":4458:4467   */\n      dup4\n        /* \"#utility.yul\":4454:4471   */\n      add\n        /* \"#utility.yul\":4445:4451   */\n      dup5\n        /* \"#utility.yul\":4401:4472   */\n      tag_377\n      jump\t// in\n    tag_484:\n        /* \"#utility.yul\":4257:4479   */\n      swap3\n      swap2\n      pop\n      pop\n      jump\t// out\n        /* \"#utility.yul\":4485:4602   */\n    tag_378:\n        /* \"#utility.yul\":4594:4595   */\n      0x00\n        /* \"#utility.yul\":4591:4592   */\n      dup1\n        /* \"#utility.yul\":4584:4596   */\n      revert\n        /* \"#utility.yul\":4608:4725   */\n    tag_379:\n        /* \"#utility.yul\":4717:4718   */\n      0x00\n        /* \"#utility.yul\":4714:4715   */\n      dup1\n        /* \"#utility.yul\":4707:4719   */\n      revert\n        /* \"#utility.yul\":4731:4911   */\n    tag_317:\n        /* \"#utility.yul\":4779:4856   */\n      0x4e487b7100000000000000000000000000000000000000000000000000000000\n        /* \"#utility.yul\":4776:4777   */\n      0x00\n        /* \"#utility.yul\":4769:4857   */\n      mstore\n        /* \"#utility.yul\":4876:4880   */\n      0x41\n        /* \"#utility.yul\":4873:4874   */\n      0x04\n        /* \"#utility.yul\":4866:4881   */\n      mstore\n        /* \"#utility.yul\":4900:4904   */\n      0x24\n        /* \"#utility.yul\":4897:4898   */\n      0x00\n        /* \"#utility.yul\":4890:4905   */\n      revert\n        /* \"#utility.yul\":4917:5198   */\n    tag_380:\n        /* \"#utility.yul\":5000:5027   */\n      tag_489\n        /* \"#utility.yul\":5022:5026   */\n      dup3\n        /* \"#utility.yul\":5000:5027   */\n      tag_362\n      jump\t// in\n    tag_489:\n        /* \"#utility.yul\":4992:4998   */\n      dup2\n        /* \"#utility.yul\":4988:5028   */\n      add\n        /* \"#utility.yul\":5130:5136   */\n      dup2\n        /* \"#utility.yul\":5118:5128   */\n      dup2\n        /* \"#utility.yul\":5115:5137   */\n      lt\n        /* \"#utility.yul\":5094:5112   */\n      0xffffffffffffffff\n        /* \"#utility.yul\":5082:5092   */\n      dup3\n        /* \"#utility.yul\":5079:5113   */\n      gt\n        /* \"#utility.yul\":5076:5138   */\n      or\n        /* \"#utility.yul\":5073:5161   */\n      iszero\n      tag_490\n      jumpi\n        /* \"#utility.yul\":5141:5159   */\n      tag_491\n      tag_317\n      jump\t// in\n    tag_491:\n        /* \"#utility.yul\":5073:5161   */\n    tag_490:\n        /* \"#utility.yul\":5181:5191   */\n      dup1\n        /* \"#utility.yul\":5177:5179   */\n      0x40\n        /* \"#utility.yul\":5170:5192   */\n      mstore\n        /* \"#utility.yul\":4960:5198   */\n      pop\n        /* \"#utility.yul\":4917:5198   */\n      pop\n      pop\n      jump\t// out\n        /* \"#utility.yul\":5204:5333   */\n    tag_381:\n        /* \"#utility.yul\":5238:5244   */\n      0x00\n        /* \"#utility.yul\":5265:5285   */\n      tag_493\n      tag_364\n      jump\t// in\n    tag_493:\n        /* \"#utility.yul\":5255:5285   */\n      swap1\n      pop\n        /* \"#utility.yul\":5294:5327   */\n      tag_494\n        /* \"#utility.yul\":5322:5326   */\n      dup3\n        /* \"#utility.yul\":5314:5320   */\n      dup3\n        /* \"#utility.yul\":5294:5327   */\n      tag_380\n      jump\t// in\n    tag_494:\n        /* \"#utility.yul\":5204:5333   */\n      swap2\n      swap1\n      pop\n      jump\t// out\n        /* \"#utility.yul\":5339:5647   */\n    tag_382:\n        /* \"#utility.yul\":5401:5405   */\n      0x00\n        /* \"#utility.yul\":5491:5509   */\n      0xffffffffffffffff\n        /* \"#utility.yul\":5483:5489   */\n      dup3\n        /* \"#utility.yul\":5480:5510   */\n      gt\n        /* \"#utility.yul\":5477:5533   */\n      iszero\n      tag_496\n      jumpi\n        /* \"#utility.yul\":5513:5531   */\n      tag_497\n      tag_317\n      jump\t// in\n    tag_497:\n        /* \"#utility.yul\":5477:5533   */\n    tag_496:\n        /* \"#utility.yul\":5551:5580   */\n      tag_498\n        /* \"#utility.yul\":5573:5579   */\n      dup3\n        /* \"#utility.yul\":5551:5580   */\n      tag_362\n      jump\t// in\n    tag_498:\n        /* \"#utility.yul\":5543:5580   */\n      swap1\n      pop\n        /* \"#utility.yul\":5635:5639   */\n      0x20\n        /* \"#utility.yul\":5629:5633   */\n      dup2\n        /* \"#utility.yul\":5625:5640   */\n      add\n        /* \"#utility.yul\":5617:5640   */\n      swap1\n      pop\n        /* \"#utility.yul\":5339:5647   */\n      swap2\n      swap1\n      pop\n      jump\t// out\n        /* \"#utility.yul\":5653:5799   */\n    tag_383:\n        /* \"#utility.yul\":5750:5756   */\n      dup3\n        /* \"#utility.yul\":5745:5748   */\n      dup2\n        /* \"#utility.yul\":5740:5743   */\n      dup4\n        /* \"#utility.yul\":5727:5757   */\n      calldatacopy\n        /* \"#utility.yul\":5791:5792   */\n      0x00\n        /* \"#utility.yul\":5782:5788   */\n      dup4\n        /* \"#utility.yul\":5777:5780   */\n      dup4\n        /* \"#utility.yul\":5773:5789   */\n      add\n        /* \"#utility.yul\":5766:5793   */\n      mstore\n        /* \"#utility.yul\":5653:5799   */\n      pop\n      pop\n      pop\n      jump\t// out\n        /* \"#utility.yul\":5805:6230   */\n    tag_384:\n        /* \"#utility.yul\":5883:5888   */\n      0x00\n        /* \"#utility.yul\":5908:5974   */\n      tag_501\n        /* \"#utility.yul\":5924:5973   */\n      tag_502\n        /* \"#utility.yul\":5966:5972   */\n      dup5\n        /* \"#utility.yul\":5924:5973   */\n      tag_382\n      jump\t// in\n    tag_502:\n        /* \"#utility.yul\":5908:5974   */\n      tag_381\n      jump\t// in\n    tag_501:\n        /* \"#utility.yul\":5899:5974   */\n      swap1\n      pop\n        /* \"#utility.yul\":5997:6003   */\n      dup3\n        /* \"#utility.yul\":5990:5995   */\n      dup2\n        /* \"#utility.yul\":5983:6004   */\n      mstore\n        /* \"#utility.yul\":6035:6039   */\n      0x20\n        /* \"#utility.yul\":6028:6033   */\n      dup2\n        /* \"#utility.yul\":6024:6040   */\n      add\n        /* \"#utility.yul\":6073:6076   */\n      dup5\n        /* \"#utility.yul\":6064:6070   */\n      dup5\n        /* \"#utility.yul\":6059:6062   */\n      dup5\n        /* \"#utility.yul\":6055:6071   */\n      add\n        /* \"#utility.yul\":6052:6077   */\n      gt\n        /* \"#utility.yul\":6049:6161   */\n      iszero\n      tag_503\n      jumpi\n        /* \"#utility.yul\":6080:6159   */\n      tag_504\n      tag_379\n      jump\t// in\n    tag_504:\n        /* \"#utility.yul\":6049:6161   */\n    tag_503:\n        /* \"#utility.yul\":6170:6224   */\n      tag_505\n        /* \"#utility.yul\":6217:6223   */\n      dup5\n        /* \"#utility.yul\":6212:6215   */\n      dup3\n        /* \"#utility.yul\":6207:6210   */\n      dup6\n        /* \"#utility.yul\":6170:6224   */\n      tag_383\n      jump\t// in\n    tag_505:\n        /* \"#utility.yul\":5889:6230   */\n      pop\n        /* \"#utility.yul\":5805:6230   */\n      swap4\n      swap3\n      pop\n      pop\n      pop\n      jump\t// out\n        /* \"#utility.yul\":6250:6590   */\n    tag_385:\n        /* \"#utility.yul\":6306:6311   */\n      0x00\n        /* \"#utility.yul\":6355:6358   */\n      dup3\n        /* \"#utility.yul\":6348:6352   */\n      0x1f\n        /* \"#utility.yul\":6340:6346   */\n      dup4\n        /* \"#utility.yul\":6336:6353   */\n      add\n        /* \"#utility.yul\":6332:6359   */\n      slt\n        /* \"#utility.yul\":6322:6444   */\n      tag_507\n      jumpi\n        /* \"#utility.yul\":6363:6442   */\n      tag_508\n      tag_378\n      jump\t// in\n    tag_508:\n        /* \"#utility.yul\":6322:6444   */\n    tag_507:\n        /* \"#utility.yul\":6480:6486   */\n      dup2\n        /* \"#utility.yul\":6467:6487   */\n      calldataload\n        /* \"#utility.yul\":6505:6584   */\n      tag_509\n        /* \"#utility.yul\":6580:6583   */\n      dup5\n        /* \"#utility.yul\":6572:6578   */\n      dup3\n        /* \"#utility.yul\":6565:6569   */\n      0x20\n        /* \"#utility.yul\":6557:6563   */\n      dup7\n        /* \"#utility.yul\":6553:6570   */\n      add\n        /* \"#utility.yul\":6505:6584   */\n      tag_384\n      jump\t// in\n    tag_509:\n        /* \"#utility.yul\":6496:6584   */\n      swap2\n      pop\n        /* \"#utility.yul\":6312:6590   */\n      pop\n        /* \"#utility.yul\":6250:6590   */\n      swap3\n      swap2\n      pop\n      pop\n      jump\t// out\n        /* \"#utility.yul\":6596:7105   */\n    tag_58:\n        /* \"#utility.yul\":6665:6671   */\n      0x00\n        /* \"#utility.yul\":6714:6716   */\n      0x20\n        /* \"#utility.yul\":6702:6711   */\n      dup3\n        /* \"#utility.yul\":6693:6700   */\n      dup5\n        /* \"#utility.yul\":6689:6712   */\n      sub\n        /* \"#utility.yul\":6685:6717   */\n      slt\n        /* \"#utility.yul\":6682:6801   */\n      iszero\n      tag_511\n      jumpi\n        /* \"#utility.yul\":6720:6799   */\n      tag_512\n      tag_365\n      jump\t// in\n    tag_512:\n        /* \"#utility.yul\":6682:6801   */\n    tag_511:\n        /* \"#utility.yul\":6868:6869   */\n      0x00\n        /* \"#utility.yul\":6857:6866   */\n      dup3\n        /* \"#utility.yul\":6853:6870   */\n      add\n        /* \"#utility.yul\":6840:6871   */\n      calldataload\n        /* \"#utility.yul\":6898:6916   */\n      0xffffffffffffffff\n        /* \"#utility.yul\":6890:6896   */\n      dup2\n        /* \"#utility.yul\":6887:6917   */\n      gt\n        /* \"#utility.yul\":6884:7001   */\n      iszero\n      tag_513\n      jumpi\n        /* \"#utility.yul\":6920:6999   */\n      tag_514\n      tag_366\n      jump\t// in\n    tag_514:\n        /* \"#utility.yul\":6884:7001   */\n    tag_513:\n        /* \"#utility.yul\":7025:7088   */\n      tag_515\n        /* \"#utility.yul\":7080:7087   */\n      dup5\n        /* \"#utility.yul\":7071:7077   */\n      dup3\n        /* \"#utility.yul\":7060:7069   */\n      dup6\n        /* \"#utility.yul\":7056:7078   */\n      add\n        /* \"#utility.yul\":7025:7088   */\n      tag_385\n      jump\t// in\n    tag_515:\n        /* \"#utility.yul\":7015:7088   */\n      swap2\n      pop\n        /* \"#utility.yul\":6811:7098   */\n      pop\n        /* \"#utility.yul\":6596:7105   */\n      swap3\n      swap2\n      pop\n      pop\n      jump\t// out\n        /* \"#utility.yul\":7111:7730   */\n    tag_62:\n        /* \"#utility.yul\":7188:7194   */\n      0x00\n        /* \"#utility.yul\":7196:7202   */\n      dup1\n        /* \"#utility.yul\":7204:7210   */\n      0x00\n        /* \"#utility.yul\":7253:7255   */\n      0x60\n        /* \"#utility.yul\":7241:7250   */\n      dup5\n        /* \"#utility.yul\":7232:7239   */\n      dup7\n        /* \"#utility.yul\":7228:7251   */\n      sub\n        /* \"#utility.yul\":7224:7256   */\n      slt\n        /* \"#utility.yul\":7221:7340   */\n      iszero\n      tag_517\n      jumpi\n        /* \"#utility.yul\":7259:7338   */\n      tag_518\n      tag_365\n      jump\t// in\n    tag_518:\n        /* \"#utility.yul\":7221:7340   */\n    tag_517:\n        /* \"#utility.yul\":7379:7380   */\n      0x00\n        /* \"#utility.yul\":7404:7457   */\n      tag_519\n        /* \"#utility.yul\":7449:7456   */\n      dup7\n        /* \"#utility.yul\":7440:7446   */\n      dup3\n        /* \"#utility.yul\":7429:7438   */\n      dup8\n        /* \"#utility.yul\":7425:7447   */\n      add\n        /* \"#utility.yul\":7404:7457   */\n      tag_374\n      jump\t// in\n    tag_519:\n        /* \"#utility.yul\":7394:7457   */\n      swap4\n      pop\n        /* \"#utility.yul\":7350:7467   */\n      pop\n        /* \"#utility.yul\":7506:7508   */\n      0x20\n        /* \"#utility.yul\":7532:7585   */\n      tag_520\n        /* \"#utility.yul\":7577:7584   */\n      dup7\n        /* \"#utility.yul\":7568:7574   */\n      dup3\n        /* \"#utility.yul\":7557:7566   */\n      dup8\n        /* \"#utility.yul\":7553:7575   */\n      add\n        /* \"#utility.yul\":7532:7585   */\n      tag_374\n      jump\t// in\n    tag_520:\n        /* \"#utility.yul\":7522:7585   */\n      swap3\n      pop\n        /* \"#utility.yul\":7477:7595   */\n      pop\n        /* \"#utility.yul\":7634:7636   */\n      0x40\n        /* \"#utility.yul\":7660:7713   */\n      tag_521\n        /* \"#utility.yul\":7705:7712   */\n      dup7\n        /* \"#utility.yul\":7696:7702   */\n      dup3\n        /* \"#utility.yul\":7685:7694   */\n      dup8\n        /* \"#utility.yul\":7681:7703   */\n      add\n        /* \"#utility.yul\":7660:7713   */\n      tag_369\n      jump\t// in\n    tag_521:\n        /* \"#utility.yul\":7650:7713   */\n      swap2\n      pop\n        /* \"#utility.yul\":7605:7723   */\n      pop\n        /* \"#utility.yul\":7111:7730   */\n      swap3\n      pop\n      swap3\n      pop\n      swap3\n      jump\t// out\n        /* \"#utility.yul\":7736:7822   */\n    tag_386:\n        /* \"#utility.yul\":7771:7778   */\n      0x00\n        /* \"#utility.yul\":7811:7815   */\n      0xff\n        /* \"#utility.yul\":7804:7809   */\n      dup3\n        /* \"#utility.yul\":7800:7816   */\n      and\n        /* \"#utility.yul\":7789:7816   */\n      swap1\n      pop\n        /* \"#utility.yul\":7736:7822   */\n      swap2\n      swap1\n      pop\n      jump\t// out\n        /* \"#utility.yul\":7828:7940   */\n    tag_387:\n        /* \"#utility.yul\":7911:7933   */\n      tag_524\n        /* \"#utility.yul\":7927:7932   */\n      dup2\n        /* \"#utility.yul\":7911:7933   */\n      tag_386\n      jump\t// in\n    tag_524:\n        /* \"#utility.yul\":7906:7909   */\n      dup3\n        /* \"#utility.yul\":7899:7934   */\n      mstore\n        /* \"#utility.yul\":7828:7940   */\n      pop\n      pop\n      jump\t// out\n        /* \"#utility.yul\":7946:8160   */\n    tag_69:\n        /* \"#utility.yul\":8035:8039   */\n      0x00\n        /* \"#utility.yul\":8073:8075   */\n      0x20\n        /* \"#utility.yul\":8062:8071   */\n      dup3\n        /* \"#utility.yul\":8058:8076   */\n      add\n        /* \"#utility.yul\":8050:8076   */\n      swap1\n      pop\n        /* \"#utility.yul\":8086:8153   */\n      tag_526\n        /* \"#utility.yul\":8150:8151   */\n      0x00\n        /* \"#utility.yul\":8139:8148   */\n      dup4\n        /* \"#utility.yul\":8135:8152   */\n      add\n        /* \"#utility.yul\":8126:8132   */\n      dup5\n        /* \"#utility.yul\":8086:8153   */\n      tag_387\n      jump\t// in\n    tag_526:\n        /* \"#utility.yul\":7946:8160   */\n      swap3\n      swap2\n      pop\n      pop\n      jump\t// out\n        /* \"#utility.yul\":8166:9000   */\n    tag_78:\n        /* \"#utility.yul\":8254:8260   */\n      0x00\n        /* \"#utility.yul\":8262:8268   */\n      dup1\n        /* \"#utility.yul\":8311:8313   */\n      0x40\n        /* \"#utility.yul\":8299:8308   */\n      dup4\n        /* \"#utility.yul\":8290:8297   */\n      dup6\n        /* \"#utility.yul\":8286:8309   */\n      sub\n        /* \"#utility.yul\":8282:8314   */\n      slt\n        /* \"#utility.yul\":8279:8398   */\n      iszero\n      tag_528\n      jumpi\n        /* \"#utility.yul\":8317:8396   */\n      tag_529\n      tag_365\n      jump\t// in\n    tag_529:\n        /* \"#utility.yul\":8279:8398   */\n    tag_528:\n        /* \"#utility.yul\":8465:8466   */\n      0x00\n        /* \"#utility.yul\":8454:8463   */\n      dup4\n        /* \"#utility.yul\":8450:8467   */\n      add\n        /* \"#utility.yul\":8437:8468   */\n      calldataload\n        /* \"#utility.yul\":8495:8513   */\n      0xffffffffffffffff\n        /* \"#utility.yul\":8487:8493   */\n      dup2\n        /* \"#utility.yul\":8484:8514   */\n      gt\n        /* \"#utility.yul\":8481:8598   */\n      iszero\n      tag_530\n      jumpi\n        /* \"#utility.yul\":8517:8596   */\n      tag_531\n      tag_366\n      jump\t// in\n    tag_531:\n        /* \"#utility.yul\":8481:8598   */\n    tag_530:\n        /* \"#utility.yul\":8622:8685   */\n      tag_532\n        /* \"#utility.yul\":8677:8684   */\n      dup6\n        /* \"#utility.yul\":8668:8674   */\n      dup3\n        /* \"#utility.yul\":8657:8666   */\n      dup7\n        /* \"#utility.yul\":8653:8675   */\n      add\n        /* \"#utility.yul\":8622:8685   */\n      tag_385\n      jump\t// in\n    tag_532:\n        /* \"#utility.yul\":8612:8685   */\n      swap3\n      pop\n        /* \"#utility.yul\":8408:8695   */\n      pop\n        /* \"#utility.yul\":8762:8764   */\n      0x20\n        /* \"#utility.yul\":8751:8760   */\n      dup4\n        /* \"#utility.yul\":8747:8765   */\n      add\n        /* \"#utility.yul\":8734:8766   */\n      calldataload\n        /* \"#utility.yul\":8793:8811   */\n      0xffffffffffffffff\n        /* \"#utility.yul\":8785:8791   */\n      dup2\n        /* \"#utility.yul\":8782:8812   */\n      gt\n        /* \"#utility.yul\":8779:8896   */\n      iszero\n      tag_533\n      jumpi\n        /* \"#utility.yul\":8815:8894   */\n      tag_534\n      tag_366\n      jump\t// in\n    tag_534:\n        /* \"#utility.yul\":8779:8896   */\n    tag_533:\n        /* \"#utility.yul\":8920:8983   */\n      tag_535\n        /* \"#utility.yul\":8975:8982   */\n      dup6\n        /* \"#utility.yul\":8966:8972   */\n      dup3\n        /* \"#utility.yul\":8955:8964   */\n      dup7\n        /* \"#utility.yul\":8951:8973   */\n      add\n        /* \"#utility.yul\":8920:8983   */\n      tag_385\n      jump\t// in\n    tag_535:\n        /* \"#utility.yul\":8910:8983   */\n      swap2\n      pop\n        /* \"#utility.yul\":8705:8993   */\n      pop\n        /* \"#utility.yul\":8166:9000   */\n      swap3\n      pop\n      swap3\n      swap1\n      pop\n      jump\t// out\n        /* \"#utility.yul\":9006:9122   */\n    tag_388:\n        /* \"#utility.yul\":9076:9097   */\n      tag_537\n        /* \"#utility.yul\":9091:9096   */\n      dup2\n        /* \"#utility.yul\":9076:9097   */\n      tag_375\n      jump\t// in\n    tag_537:\n        /* \"#utility.yul\":9069:9074   */\n      dup2\n        /* \"#utility.yul\":9066:9098   */\n      eq\n        /* \"#utility.yul\":9056:9116   */\n      tag_538\n      jumpi\n        /* \"#utility.yul\":9112:9113   */\n      0x00\n        /* \"#utility.yul\":9109:9110   */\n      dup1\n        /* \"#utility.yul\":9102:9114   */\n      revert\n        /* \"#utility.yul\":9056:9116   */\n    tag_538:\n        /* \"#utility.yul\":9006:9122   */\n      pop\n      jump\t// out\n        /* \"#utility.yul\":9128:9261   */\n    tag_389:\n        /* \"#utility.yul\":9171:9176   */\n      0x00\n        /* \"#utility.yul\":9209:9215   */\n      dup2\n        /* \"#utility.yul\":9196:9216   */\n      calldataload\n        /* \"#utility.yul\":9187:9216   */\n      swap1\n      pop\n        /* \"#utility.yul\":9225:9255   */\n      tag_540\n        /* \"#utility.yul\":9249:9254   */\n      dup2\n        /* \"#utility.yul\":9225:9255   */\n      tag_388\n      jump\t// in\n    tag_540:\n        /* \"#utility.yul\":9128:9261   */\n      swap3\n      swap2\n      pop\n      pop\n      jump\t// out\n        /* \"#utility.yul\":9267:9735   */\n    tag_82:\n        /* \"#utility.yul\":9332:9338   */\n      0x00\n        /* \"#utility.yul\":9340:9346   */\n      dup1\n        /* \"#utility.yul\":9389:9391   */\n      0x40\n        /* \"#utility.yul\":9377:9386   */\n      dup4\n        /* \"#utility.yul\":9368:9375   */\n      dup6\n        /* \"#utility.yul\":9364:9387   */\n      sub\n        /* \"#utility.yul\":9360:9392   */\n      slt\n        /* \"#utility.yul\":9357:9476   */\n      iszero\n      tag_542\n      jumpi\n        /* \"#utility.yul\":9395:9474   */\n      tag_543\n      tag_365\n      jump\t// in\n    tag_543:\n        /* \"#utility.yul\":9357:9476   */\n    tag_542:\n        /* \"#utility.yul\":9515:9516   */\n      0x00\n        /* \"#utility.yul\":9540:9593   */\n      tag_544\n        /* \"#utility.yul\":9585:9592   */\n      dup6\n        /* \"#utility.yul\":9576:9582   */\n      dup3\n        /* \"#utility.yul\":9565:9574   */\n      dup7\n        /* \"#utility.yul\":9561:9583   */\n      add\n        /* \"#utility.yul\":9540:9593   */\n      tag_374\n      jump\t// in\n    tag_544:\n        /* \"#utility.yul\":9530:9593   */\n      swap3\n      pop\n        /* \"#utility.yul\":9486:9603   */\n      pop\n        /* \"#utility.yul\":9642:9644   */\n      0x20\n        /* \"#utility.yul\":9668:9718   */\n      tag_545\n        /* \"#utility.yul\":9710:9717   */\n      dup6\n        /* \"#utility.yul\":9701:9707   */\n      dup3\n        /* \"#utility.yul\":9690:9699   */\n      dup7\n        /* \"#utility.yul\":9686:9708   */\n      add\n        /* \"#utility.yul\":9668:9718   */\n      tag_389\n      jump\t// in\n    tag_545:\n        /* \"#utility.yul\":9658:9718   */\n      swap2\n      pop\n        /* \"#utility.yul\":9613:9728   */\n      pop\n        /* \"#utility.yul\":9267:9735   */\n      swap3\n      pop\n      swap3\n      swap1\n      pop\n      jump\t// out\n        /* \"#utility.yul\":9741:10070   */\n    tag_90:\n        /* \"#utility.yul\":9800:9806   */\n      0x00\n        /* \"#utility.yul\":9849:9851   */\n      0x20\n        /* \"#utility.yul\":9837:9846   */\n      dup3\n        /* \"#utility.yul\":9828:9835   */\n      dup5\n        /* \"#utility.yul\":9824:9847   */\n      sub\n        /* \"#utility.yul\":9820:9852   */\n      slt\n        /* \"#utility.yul\":9817:9936   */\n      iszero\n      tag_547\n      jumpi\n        /* \"#utility.yul\":9855:9934   */\n      tag_548\n      tag_365\n      jump\t// in\n    tag_548:\n        /* \"#utility.yul\":9817:9936   */\n    tag_547:\n        /* \"#utility.yul\":9975:9976   */\n      0x00\n        /* \"#utility.yul\":10000:10053   */\n      tag_549\n        /* \"#utility.yul\":10045:10052   */\n      dup5\n        /* \"#utility.yul\":10036:10042   */\n      dup3\n        /* \"#utility.yul\":10025:10034   */\n      dup6\n        /* \"#utility.yul\":10021:10043   */\n      add\n        /* \"#utility.yul\":10000:10053   */\n      tag_374\n      jump\t// in\n    tag_549:\n        /* \"#utility.yul\":9990:10053   */\n      swap2\n      pop\n        /* \"#utility.yul\":9946:10063   */\n      pop\n        /* \"#utility.yul\":9741:10070   */\n      swap3\n      swap2\n      pop\n      pop\n      jump\t// out\n        /* \"#utility.yul\":10076:10193   */\n    tag_390:\n        /* \"#utility.yul\":10185:10186   */\n      0x00\n        /* \"#utility.yul\":10182:10183   */\n      dup1\n        /* \"#utility.yul\":10175:10187   */\n      revert\n        /* \"#utility.yul\":10199:10316   */\n    tag_391:\n        /* \"#utility.yul\":10308:10309   */\n      0x00\n        /* \"#utility.yul\":10305:10306   */\n      dup1\n        /* \"#utility.yul\":10298:10310   */\n      revert\n        /* \"#utility.yul\":10335:10887   */\n    tag_392:\n        /* \"#utility.yul\":10392:10400   */\n      0x00\n        /* \"#utility.yul\":10402:10408   */\n      dup1\n        /* \"#utility.yul\":10452:10455   */\n      dup4\n        /* \"#utility.yul\":10445:10449   */\n      0x1f\n        /* \"#utility.yul\":10437:10443   */\n      dup5\n        /* \"#utility.yul\":10433:10450   */\n      add\n        /* \"#utility.yul\":10429:10456   */\n      slt\n        /* \"#utility.yul\":10419:10541   */\n      tag_553\n      jumpi\n        /* \"#utility.yul\":10460:10539   */\n      tag_554\n      tag_378\n      jump\t// in\n    tag_554:\n        /* \"#utility.yul\":10419:10541   */\n    tag_553:\n        /* \"#utility.yul\":10573:10579   */\n      dup3\n        /* \"#utility.yul\":10560:10580   */\n      calldataload\n        /* \"#utility.yul\":10550:10580   */\n      swap1\n      pop\n        /* \"#utility.yul\":10603:10621   */\n      0xffffffffffffffff\n        /* \"#utility.yul\":10595:10601   */\n      dup2\n        /* \"#utility.yul\":10592:10622   */\n      gt\n        /* \"#utility.yul\":10589:10706   */\n      iszero\n      tag_555\n      jumpi\n        /* \"#utility.yul\":10625:10704   */\n      tag_556\n      tag_390\n      jump\t// in\n    tag_556:\n        /* \"#utility.yul\":10589:10706   */\n    tag_555:\n        /* \"#utility.yul\":10739:10743   */\n      0x20\n        /* \"#utility.yul\":10731:10737   */\n      dup4\n        /* \"#utility.yul\":10727:10744   */\n      add\n        /* \"#utility.yul\":10715:10744   */\n      swap2\n      pop\n        /* \"#utility.yul\":10793:10796   */\n      dup4\n        /* \"#utility.yul\":10785:10789   */\n      0x01\n        /* \"#utility.yul\":10777:10783   */\n      dup3\n        /* \"#utility.yul\":10773:10790   */\n      mul\n        /* \"#utility.yul\":10763:10771   */\n      dup4\n        /* \"#utility.yul\":10759:10791   */\n      add\n        /* \"#utility.yul\":10756:10797   */\n      gt\n        /* \"#utility.yul\":10753:10881   */\n      iszero\n      tag_557\n      jumpi\n        /* \"#utility.yul\":10800:10879   */\n      tag_558\n      tag_391\n      jump\t// in\n    tag_558:\n        /* \"#utility.yul\":10753:10881   */\n    tag_557:\n        /* \"#utility.yul\":10335:10887   */\n      swap3\n      pop\n      swap3\n      swap1\n      pop\n      jump\t// out\n        /* \"#utility.yul\":10893:11856   */\n    tag_112:\n        /* \"#utility.yul\":10990:10996   */\n      0x00\n        /* \"#utility.yul\":10998:11004   */\n      dup1\n        /* \"#utility.yul\":11006:11012   */\n      0x00\n        /* \"#utility.yul\":11014:11020   */\n      dup1\n        /* \"#utility.yul\":11022:11028   */\n      0x00\n        /* \"#utility.yul\":11071:11074   */\n      0x80\n        /* \"#utility.yul\":11059:11068   */\n      dup7\n        /* \"#utility.yul\":11050:11057   */\n      dup9\n        /* \"#utility.yul\":11046:11069   */\n      sub\n        /* \"#utility.yul\":11042:11075   */\n      slt\n        /* \"#utility.yul\":11039:11159   */\n      iszero\n      tag_560\n      jumpi\n        /* \"#utility.yul\":11078:11157   */\n      tag_561\n      tag_365\n      jump\t// in\n    tag_561:\n        /* \"#utility.yul\":11039:11159   */\n    tag_560:\n        /* \"#utility.yul\":11198:11199   */\n      0x00\n        /* \"#utility.yul\":11223:11276   */\n      tag_562\n        /* \"#utility.yul\":11268:11275   */\n      dup9\n        /* \"#utility.yul\":11259:11265   */\n      dup3\n        /* \"#utility.yul\":11248:11257   */\n      dup10\n        /* \"#utility.yul\":11244:11266   */\n      add\n        /* \"#utility.yul\":11223:11276   */\n      tag_374\n      jump\t// in\n    tag_562:\n        /* \"#utility.yul\":11213:11276   */\n      swap6\n      pop\n        /* \"#utility.yul\":11169:11286   */\n      pop\n        /* \"#utility.yul\":11325:11327   */\n      0x20\n        /* \"#utility.yul\":11351:11404   */\n      tag_563\n        /* \"#utility.yul\":11396:11403   */\n      dup9\n        /* \"#utility.yul\":11387:11393   */\n      dup3\n        /* \"#utility.yul\":11376:11385   */\n      dup10\n        /* \"#utility.yul\":11372:11394   */\n      add\n        /* \"#utility.yul\":11351:11404   */\n      tag_374\n      jump\t// in\n    tag_563:\n        /* \"#utility.yul\":11341:11404   */\n      swap5\n      pop\n        /* \"#utility.yul\":11296:11414   */\n      pop\n        /* \"#utility.yul\":11453:11455   */\n      0x40\n        /* \"#utility.yul\":11479:11532   */\n      tag_564\n        /* \"#utility.yul\":11524:11531   */\n      dup9\n        /* \"#utility.yul\":11515:11521   */\n      dup3\n        /* \"#utility.yul\":11504:11513   */\n      dup10\n        /* \"#utility.yul\":11500:11522   */\n      add\n        /* \"#utility.yul\":11479:11532   */\n      tag_369\n      jump\t// in\n    tag_564:\n        /* \"#utility.yul\":11469:11532   */\n      swap4\n      pop\n        /* \"#utility.yul\":11424:11542   */\n      pop\n        /* \"#utility.yul\":11609:11611   */\n      0x60\n        /* \"#utility.yul\":11598:11607   */\n      dup7\n        /* \"#utility.yul\":11594:11612   */\n      add\n        /* \"#utility.yul\":11581:11613   */\n      calldataload\n        /* \"#utility.yul\":11640:11658   */\n      0xffffffffffffffff\n        /* \"#utility.yul\":11632:11638   */\n      dup2\n        /* \"#utility.yul\":11629:11659   */\n      gt\n        /* \"#utility.yul\":11626:11743   */\n      iszero\n      tag_565\n      jumpi\n        /* \"#utility.yul\":11662:11741   */\n      tag_566\n      tag_366\n      jump\t// in\n    tag_566:\n        /* \"#utility.yul\":11626:11743   */\n    tag_565:\n        /* \"#utility.yul\":11775:11839   */\n      tag_567\n        /* \"#utility.yul\":11831:11838   */\n      dup9\n        /* \"#utility.yul\":11822:11828   */\n      dup3\n        /* \"#utility.yul\":11811:11820   */\n      dup10\n        /* \"#utility.yul\":11807:11829   */\n      add\n        /* \"#utility.yul\":11775:11839   */\n      tag_392\n      jump\t// in\n    tag_567:\n        /* \"#utility.yul\":11757:11839   */\n      swap3\n      pop\n      swap3\n      pop\n        /* \"#utility.yul\":11552:11849   */\n      pop\n        /* \"#utility.yul\":10893:11856   */\n      swap3\n      swap6\n      pop\n      swap3\n      swap6\n      swap1\n      swap4\n      pop\n      jump\t// out\n        /* \"#utility.yul\":11862:12336   */\n    tag_123:\n        /* \"#utility.yul\":11930:11936   */\n      0x00\n        /* \"#utility.yul\":11938:11944   */\n      dup1\n        /* \"#utility.yul\":11987:11989   */\n      0x40\n        /* \"#utility.yul\":11975:11984   */\n      dup4\n        /* \"#utility.yul\":11966:11973   */\n      dup6\n        /* \"#utility.yul\":11962:11985   */\n      sub\n        /* \"#utility.yul\":11958:11990   */\n      slt\n        /* \"#utility.yul\":11955:12074   */\n      iszero\n      tag_569\n      jumpi\n        /* \"#utility.yul\":11993:12072   */\n      tag_570\n      tag_365\n      jump\t// in\n    tag_570:\n        /* \"#utility.yul\":11955:12074   */\n    tag_569:\n        /* \"#utility.yul\":12113:12114   */\n      0x00\n        /* \"#utility.yul\":12138:12191   */\n      tag_571\n        /* \"#utility.yul\":12183:12190   */\n      dup6\n        /* \"#utility.yul\":12174:12180   */\n      dup3\n        /* \"#utility.yul\":12163:12172   */\n      dup7\n        /* \"#utility.yul\":12159:12181   */\n      add\n        /* \"#utility.yul\":12138:12191   */\n      tag_374\n      jump\t// in\n    tag_571:\n        /* \"#utility.yul\":12128:12191   */\n      swap3\n      pop\n        /* \"#utility.yul\":12084:12201   */\n      pop\n        /* \"#utility.yul\":12240:12242   */\n      0x20\n        /* \"#utility.yul\":12266:12319   */\n      tag_572\n        /* \"#utility.yul\":12311:12318   */\n      dup6\n        /* \"#utility.yul\":12302:12308   */\n      dup3\n        /* \"#utility.yul\":12291:12300   */\n      dup7\n        /* \"#utility.yul\":12287:12309   */\n      add\n        /* \"#utility.yul\":12266:12319   */\n      tag_374\n      jump\t// in\n    tag_572:\n        /* \"#utility.yul\":12256:12319   */\n      swap2\n      pop\n        /* \"#utility.yul\":12211:12329   */\n      pop\n        /* \"#utility.yul\":11862:12336   */\n      swap3\n      pop\n      swap3\n      swap1\n      pop\n      jump\t// out\n        /* \"#utility.yul\":12342:12522   */\n    tag_393:\n        /* \"#utility.yul\":12390:12467   */\n      0x4e487b7100000000000000000000000000000000000000000000000000000000\n        /* \"#utility.yul\":12387:12388   */\n      0x00\n        /* \"#utility.yul\":12380:12468   */\n      mstore\n        /* \"#utility.yul\":12487:12491   */\n      0x22\n        /* \"#utility.yul\":12484:12485   */\n      0x04\n        /* \"#utility.yul\":12477:12492   */\n      mstore\n        /* \"#utility.yul\":12511:12515   */\n      0x24\n        /* \"#utility.yul\":12508:12509   */\n      0x00\n        /* \"#utility.yul\":12501:12516   */\n      revert\n        /* \"#utility.yul\":12528:12848   */\n    tag_140:\n        /* \"#utility.yul\":12572:12578   */\n      0x00\n        /* \"#utility.yul\":12609:12610   */\n      0x02\n        /* \"#utility.yul\":12603:12607   */\n      dup3\n        /* \"#utility.yul\":12599:12611   */\n      div\n        /* \"#utility.yul\":12589:12611   */\n      swap1\n      pop\n        /* \"#utility.yul\":12656:12657   */\n      0x01\n        /* \"#utility.yul\":12650:12654   */\n      dup3\n        /* \"#utility.yul\":12646:12658   */\n      and\n        /* \"#utility.yul\":12677:12695   */\n      dup1\n        /* \"#utility.yul\":12667:12748   */\n      tag_575\n      jumpi\n        /* \"#utility.yul\":12733:12737   */\n      0x7f\n        /* \"#utility.yul\":12725:12731   */\n      dup3\n        /* \"#utility.yul\":12721:12738   */\n      and\n        /* \"#utility.yul\":12711:12738   */\n      swap2\n      pop\n        /* \"#utility.yul\":12667:12748   */\n    tag_575:\n        /* \"#utility.yul\":12795:12797   */\n      0x20\n        /* \"#utility.yul\":12787:12793   */\n      dup3\n        /* \"#utility.yul\":12784:12798   */\n      lt\n        /* \"#utility.yul\":12764:12782   */\n      dup2\n        /* \"#utility.yul\":12761:12799   */\n      sub\n        /* \"#utility.yul\":12758:12842   */\n      tag_576\n      jumpi\n        /* \"#utility.yul\":12814:12832   */\n      tag_577\n      tag_393\n      jump\t// in\n    tag_577:\n        /* \"#utility.yul\":12758:12842   */\n    tag_576:\n        /* \"#utility.yul\":12579:12848   */\n      pop\n        /* \"#utility.yul\":12528:12848   */\n      swap2\n      swap1\n      pop\n      jump\t// out\n        /* \"#utility.yul\":12854:12995   */\n    tag_394:\n        /* \"#utility.yul\":12903:12907   */\n      0x00\n        /* \"#utility.yul\":12926:12929   */\n      dup2\n        /* \"#utility.yul\":12918:12929   */\n      swap1\n      pop\n        /* \"#utility.yul\":12949:12952   */\n      dup2\n        /* \"#utility.yul\":12946:12947   */\n      0x00\n        /* \"#utility.yul\":12939:12953   */\n      mstore\n        /* \"#utility.yul\":12983:12987   */\n      0x20\n        /* \"#utility.yul\":12980:12981   */\n      0x00\n        /* \"#utility.yul\":12970:12988   */\n      keccak256\n        /* \"#utility.yul\":12962:12988   */\n      swap1\n      pop\n        /* \"#utility.yul\":12854:12995   */\n      swap2\n      swap1\n      pop\n      jump\t// out\n        /* \"#utility.yul\":13001:13094   */\n    tag_395:\n        /* \"#utility.yul\":13038:13044   */\n      0x00\n        /* \"#utility.yul\":13085:13087   */\n      0x20\n        /* \"#utility.yul\":13080:13082   */\n      0x1f\n        /* \"#utility.yul\":13073:13078   */\n      dup4\n        /* \"#utility.yul\":13069:13083   */\n      add\n        /* \"#utility.yul\":13065:13088   */\n      div\n        /* \"#utility.yul\":13055:13088   */\n      swap1\n      pop\n        /* \"#utility.yul\":13001:13094   */\n      swap2\n      swap1\n      pop\n      jump\t// out\n        /* \"#utility.yul\":13100:13207   */\n    tag_396:\n        /* \"#utility.yul\":13144:13152   */\n      0x00\n        /* \"#utility.yul\":13194:13199   */\n      dup3\n        /* \"#utility.yul\":13188:13192   */\n      dup3\n        /* \"#utility.yul\":13184:13200   */\n      shl\n        /* \"#utility.yul\":13163:13200   */\n      swap1\n      pop\n        /* \"#utility.yul\":13100:13207   */\n      swap3\n      swap2\n      pop\n      pop\n      jump\t// out\n        /* \"#utility.yul\":13213:13606   */\n    tag_397:\n        /* \"#utility.yul\":13282:13288   */\n      0x00\n        /* \"#utility.yul\":13332:13333   */\n      0x08\n        /* \"#utility.yul\":13320:13330   */\n      dup4\n        /* \"#utility.yul\":13316:13334   */\n      mul\n        /* \"#utility.yul\":13355:13452   */\n      tag_582\n        /* \"#utility.yul\":13385:13451   */\n      0xffffffffffffffffffffffffffffffffffffffffffffffffffffffffffffffff\n        /* \"#utility.yul\":13374:13383   */\n      dup3\n        /* \"#utility.yul\":13355:13452   */\n      tag_396\n      jump\t// in\n    tag_582:\n        /* \"#utility.yul\":13473:13512   */\n      tag_583\n        /* \"#utility.yul\":13503:13511   */\n      dup7\n        /* \"#utility.yul\":13492:13501   */\n      dup4\n        /* \"#utility.yul\":13473:13512   */\n      tag_396\n      jump\t// in\n    tag_583:\n        /* \"#utility.yul\":13461:13512   */\n      swap6\n      pop\n        /* \"#utility.yul\":13545:13549   */\n      dup1\n        /* \"#utility.yul\":13541:13550   */\n      not\n        /* \"#utility.yul\":13534:13539   */\n      dup5\n        /* \"#utility.yul\":13530:13551   */\n      and\n        /* \"#utility.yul\":13521:13551   */\n      swap4\n      pop\n        /* \"#utility.yul\":13594:13598   */\n      dup1\n        /* \"#utility.yul\":13584:13592   */\n      dup7\n        /* \"#utility.yul\":13580:13599   */\n      and\n        /* \"#utility.yul\":13573:13578   */\n      dup5\n        /* \"#utility.yul\":13570:13600   */\n      or\n        /* \"#utility.yul\":13560:13600   */\n      swap3\n      pop\n        /* \"#utility.yul\":13289:13606   */\n      pop\n      pop\n        /* \"#utility.yul\":13213:13606   */\n      swap4\n      swap3\n      pop\n      pop\n      pop\n      jump\t// out\n        /* \"#utility.yul\":13612:13672   */\n    tag_398:\n        /* \"#utility.yul\":13640:13643   */\n      0x00\n        /* \"#utility.yul\":13661:13666   */\n      dup2\n        /* \"#utility.yul\":13654:13666   */\n      swap1\n      pop\n        /* \"#utility.yul\":13612:13672   */\n      swap2\n      swap1\n      pop\n      jump\t// out\n        /* \"#utility.yul\":13678:13820   */\n    tag_399:\n        /* \"#utility.yul\":13728:13737   */\n      0x00\n        /* \"#utility.yul\":13761:13814   */\n      tag_586\n        /* \"#utility.yul\":13779:13813   */\n      tag_587\n        /* \"#utility.yul\":13788:13812   */\n      tag_588\n        /* \"#utility.yul\":13806:13811   */\n      dup5\n        /* \"#utility.yul\":13788:13812   */\n      tag_367\n      jump\t// in\n    tag_588:\n        /* \"#utility.yul\":13779:13813   */\n      tag_398\n      jump\t// in\n    tag_587:\n        /* \"#utility.yul\":13761:13814   */\n      tag_367\n      jump\t// in\n    tag_586:\n        /* \"#utility.yul\":13748:13814   */\n      swap1\n      pop\n        /* \"#utility.yul\":13678:13820   */\n      swap2\n      swap1\n      pop\n      jump\t// out\n        /* \"#utility.yul\":13826:13901   */\n    tag_400:\n        /* \"#utility.yul\":13869:13872   */\n      0x00\n        /* \"#utility.yul\":13890:13895   */\n      dup2\n        /* \"#utility.yul\":13883:13895   */\n      swap1\n      pop\n        /* \"#utility.yul\":13826:13901   */\n      swap2\n      swap1\n      pop\n      jump\t// out\n        /* \"#utility.yul\":13907:14176   */\n    tag_401:\n        /* \"#utility.yul\":14017:14056   */\n      tag_591\n        /* \"#utility.yul\":14048:14055   */\n      dup4\n        /* \"#utility.yul\":14017:14056   */\n      tag_399\n      jump\t// in\n    tag_591:\n        /* \"#utility.yul\":14078:14169   */\n      tag_592\n        /* \"#utility.yul\":14127:14168   */\n      tag_593\n        /* \"#utility.yul\":14151:14167   */\n      dup3\n        /* \"#utility.yul\":14127:14168   */\n      tag_400\n      jump\t// in\n    tag_593:\n        /* \"#utility.yul\":14119:14125   */\n      dup5\n        /* \"#utility.yul\":14112:14116   */\n      dup5\n        /* \"#utility.yul\":14106:14117   */\n      sload\n        /* \"#utility.yul\":14078:14169   */\n      tag_397\n      jump\t// in\n    tag_592:\n        /* \"#utility.yul\":14072:14076   */\n      dup3\n        /* \"#utility.yul\":14065:14170   */\n      sstore\n        /* \"#utility.yul\":13983:14176   */\n      pop\n        /* \"#utility.yul\":13907:14176   */\n      pop\n      pop\n      pop\n      jump\t// out\n        /* \"#utility.yul\":14182:14255   */\n    tag_402:\n        /* \"#utility.yul\":14227:14230   */\n      0x00\n        /* \"#utility.yul\":14182:14255   */\n      swap1\n      jump\t// out\n        /* \"#utility.yul\":14261:14450   */\n    tag_403:\n        /* \"#utility.yul\":14338:14370   */\n      tag_596\n      tag_402\n      jump\t// in\n    tag_596:\n        /* \"#utility.yul\":14379:14444   */\n      tag_597\n        /* \"#utility.yul\":14437:14443   */\n      dup2\n        /* \"#utility.yul\":14429:14435   */\n      dup5\n        /* \"#utility.yul\":14423:14427   */\n      dup5\n        /* \"#utility.yul\":14379:14444   */\n      tag_401\n      jump\t// in\n    tag_597:\n        /* \"#utility.yul\":14314:14450   */\n      pop\n        /* \"#utility.yul\":14261:14450   */\n      pop\n      pop\n      jump\t// out\n        /* \"#utility.yul\":14456:14642   */\n    tag_404:\n        /* \"#utility.yul\":14516:14636   */\n    tag_599:\n        /* \"#utility.yul\":14533:14536   */\n      dup2\n        /* \"#utility.yul\":14526:14531   */\n      dup2\n        /* \"#utility.yul\":14523:14537   */\n      lt\n        /* \"#utility.yul\":14516:14636   */\n      iszero\n      tag_601\n      jumpi\n        /* \"#utility.yul\":14587:14626   */\n      tag_602\n        /* \"#utility.yul\":14624:14625   */\n      0x00\n        /* \"#utility.yul\":14617:14622   */\n      dup3\n        /* \"#utility.yul\":14587:14626   */\n      tag_403\n      jump\t// in\n    tag_602:\n        /* \"#utility.yul\":14560:14561   */\n      0x01\n        /* \"#utility.yul\":14553:14558   */\n      dup2\n        /* \"#utility.yul\":14549:14562   */\n      add\n        /* \"#utility.yul\":14540:14562   */\n      swap1\n      pop\n        /* \"#utility.yul\":14516:14636   */\n      jump(tag_599)\n    tag_601:\n        /* \"#utility.yul\":14456:14642   */\n      pop\n      pop\n      jump\t// out\n        /* \"#utility.yul\":14648:15191   */\n    tag_405:\n        /* \"#utility.yul\":14749:14751   */\n      0x1f\n        /* \"#utility.yul\":14744:14747   */\n      dup3\n        /* \"#utility.yul\":14741:14752   */\n      gt\n        /* \"#utility.yul\":14738:15184   */\n      iszero\n      tag_604\n      jumpi\n        /* \"#utility.yul\":14783:14821   */\n      tag_605\n        /* \"#utility.yul\":14815:14820   */\n      dup2\n        /* \"#utility.yul\":14783:14821   */\n      tag_394\n      jump\t// in\n    tag_605:\n        /* \"#utility.yul\":14867:14896   */\n      tag_606\n        /* \"#utility.yul\":14885:14895   */\n      dup5\n        /* \"#utility.yul\":14867:14896   */\n      tag_395\n      jump\t// in\n    tag_606:\n        /* \"#utility.yul\":14857:14865   */\n      dup2\n        /* \"#utility.yul\":14853:14897   */\n      add\n        /* \"#utility.yul\":15050:15052   */\n      0x20\n        /* \"#utility.yul\":15038:15048   */\n      dup6\n        /* \"#utility.yul\":15035:15053   */\n      lt\n        /* \"#utility.yul\":15032:15081   */\n      iszero\n      tag_607\n      jumpi\n        /* \"#utility.yul\":15071:15079   */\n      dup2\n        /* \"#utility.yul\":15056:15079   */\n      swap1\n      pop\n        /* \"#utility.yul\":15032:15081   */\n    tag_607:\n        /* \"#utility.yul\":15094:15174   */\n      tag_608\n        /* \"#utility.yul\":15150:15172   */\n      tag_609\n        /* \"#utility.yul\":15168:15171   */\n      dup6\n        /* \"#utility.yul\":15150:15172   */\n      tag_395\n      jump\t// in\n    tag_609:\n        /* \"#utility.yul\":15140:15148   */\n      dup4\n        /* \"#utility.yul\":15136:15173   */\n      add\n        /* \"#utility.yul\":15123:15134   */\n      dup3\n        /* \"#utility.yul\":15094:15174   */\n      tag_404\n      jump\t// in\n    tag_608:\n        /* \"#utility.yul\":14753:15184   */\n      pop\n      pop\n        /* \"#utility.yul\":14738:15184   */\n    tag_604:\n        /* \"#utility.yul\":14648:15191   */\n      pop\n      pop\n      pop\n      jump\t// out\n        /* \"#utility.yul\":15197:15314   */\n    tag_406:\n        /* \"#utility.yul\":15251:15259   */\n      0x00\n        /* \"#utility.yul\":15301:15306   */\n      dup3\n        /* \"#utility.yul\":15295:15299   */\n      dup3\n        /* \"#utility.yul\":15291:15307   */\n      shr\n        /* \"#utility.yul\":15270:15307   */\n      swap1\n      pop\n        /* \"#utility.yul\":15197:15314   */\n      swap3\n      swap2\n      pop\n      pop\n      jump\t// out\n        /* \"#utility.yul\":15320:15489   */\n    tag_407:\n        /* \"#utility.yul\":15364:15370   */\n      0x00\n        /* \"#utility.yul\":15397:15448   */\n      tag_612\n        /* \"#utility.yul\":15445:15446   */\n      0x00\n        /* \"#utility.yul\":15441:15447   */\n      not\n        /* \"#utility.yul\":15433:15438   */\n      dup5\n        /* \"#utility.yul\":15430:15431   */\n      0x08\n        /* \"#utility.yul\":15426:15439   */\n      mul\n        /* \"#utility.yul\":15397:15448   */\n      tag_406\n      jump\t// in\n    tag_612:\n        /* \"#utility.yul\":15393:15449   */\n      not\n        /* \"#utility.yul\":15478:15482   */\n      dup1\n        /* \"#utility.yul\":15472:15476   */\n      dup4\n        /* \"#utility.yul\":15468:15483   */\n      and\n        /* \"#utility.yul\":15458:15483   */\n      swap2\n      pop\n        /* \"#utility.yul\":15371:15489   */\n      pop\n        /* \"#utility.yul\":15320:15489   */\n      swap3\n      swap2\n      pop\n      pop\n      jump\t// out\n        /* \"#utility.yul\":15494:15789   */\n    tag_408:\n        /* \"#utility.yul\":15570:15574   */\n      0x00\n        /* \"#utility.yul\":15716:15745   */\n      tag_614\n        /* \"#utility.yul\":15741:15744   */\n      dup4\n        /* \"#utility.yul\":15735:15739   */\n      dup4\n        /* \"#utility.yul\":15716:15745   */\n      tag_407\n      jump\t// in\n    tag_614:\n        /* \"#utility.yul\":15708:15745   */\n      swap2\n      pop\n        /* \"#utility.yul\":15778:15781   */\n      dup3\n        /* \"#utility.yul\":15775:15776   */\n      0x02\n        /* \"#utility.yul\":15771:15782   */\n      mul\n        /* \"#utility.yul\":15765:15769   */\n      dup3\n        /* \"#utility.yul\":15762:15783   */\n      or\n        /* \"#utility.yul\":15754:15783   */\n      swap1\n      pop\n        /* \"#utility.yul\":15494:15789   */\n      swap3\n      swap2\n      pop\n      pop\n      jump\t// out\n        /* \"#utility.yul\":15794:17189   */\n    tag_157:\n        /* \"#utility.yul\":15911:15948   */\n      tag_616\n        /* \"#utility.yul\":15944:15947   */\n      dup3\n        /* \"#utility.yul\":15911:15948   */\n      tag_359\n      jump\t// in\n    tag_616:\n        /* \"#utility.yul\":16013:16031   */\n      0xffffffffffffffff\n        /* \"#utility.yul\":16005:16011   */\n      dup2\n        /* \"#utility.yul\":16002:16032   */\n      gt\n        /* \"#utility.yul\":15999:16055   */\n      iszero\n      tag_617\n      jumpi\n        /* \"#utility.yul\":16035:16053   */\n      tag_618\n      tag_317\n      jump\t// in\n    tag_618:\n        /* \"#utility.yul\":15999:16055   */\n    tag_617:\n        /* \"#utility.yul\":16079:16117   */\n      tag_619\n        /* \"#utility.yul\":16111:16115   */\n      dup3\n        /* \"#utility.yul\":16105:16116   */\n      sload\n        /* \"#utility.yul\":16079:16117   */\n      tag_140\n      jump\t// in\n    tag_619:\n        /* \"#utility.yul\":16164:16231   */\n      tag_620\n        /* \"#utility.yul\":16224:16230   */\n      dup3\n        /* \"#utility.yul\":16216:16222   */\n      dup3\n        /* \"#utility.yul\":16210:16214   */\n      dup6\n        /* \"#utility.yul\":16164:16231   */\n      tag_405\n      jump\t// in\n    tag_620:\n        /* \"#utility.yul\":16258:16259   */\n      0x00\n        /* \"#utility.yul\":16282:16286   */\n      0x20\n        /* \"#utility.yul\":16269:16286   */\n      swap1\n      pop\n        /* \"#utility.yul\":16314:16316   */\n      0x1f\n        /* \"#utility.yul\":16306:16312   */\n      dup4\n        /* \"#utility.yul\":16303:16317   */\n      gt\n        /* \"#utility.yul\":16331:16332   */\n      0x01\n        /* \"#utility.yul\":16326:16944   */\n      dup2\n      eq\n      tag_622\n      jumpi\n        /* \"#utility.yul\":16988:16989   */\n      0x00\n        /* \"#utility.yul\":17005:17011   */\n      dup5\n        /* \"#utility.yul\":17002:17079   */\n      iszero\n      tag_623\n      jumpi\n        /* \"#utility.yul\":17054:17063   */\n      dup3\n        /* \"#utility.yul\":17049:17052   */\n      dup8\n        /* \"#utility.yul\":17045:17064   */\n      add\n        /* \"#utility.yul\":17039:17065   */\n      mload\n        /* \"#utility.yul\":17030:17065   */\n      swap1\n      pop\n        /* \"#utility.yul\":17002:17079   */\n    tag_623:\n        /* \"#utility.yul\":17105:17172   */\n      tag_624\n        /* \"#utility.yul\":17165:17171   */\n      dup6\n        /* \"#utility.yul\":17158:17163   */\n      dup3\n        /* \"#utility.yul\":17105:17172   */\n      tag_408\n      jump\t// in\n    tag_624:\n        /* \"#utility.yul\":17099:17103   */\n      dup7\n        /* \"#utility.yul\":17092:17173   */\n      sstore\n        /* \"#utility.yul\":16961:17183   */\n      pop\n        /* \"#utility.yul\":16296:17183   */\n      jump(tag_621)\n        /* \"#utility.yul\":16326:16944   */\n    tag_622:\n        /* \"#utility.yul\":16378:16382   */\n      0x1f\n        /* \"#utility.yul\":16374:16383   */\n      not\n        /* \"#utility.yul\":16366:16372   */\n      dup5\n        /* \"#utility.yul\":16362:16384   */\n      and\n        /* \"#utility.yul\":16412:16449   */\n      tag_625\n        /* \"#utility.yul\":16444:16448   */\n      dup7\n        /* \"#utility.yul\":16412:16449   */\n      tag_394\n      jump\t// in\n    tag_625:\n        /* \"#utility.yul\":16471:16472   */\n      0x00\n        /* \"#utility.yul\":16485:16693   */\n    tag_626:\n        /* \"#utility.yul\":16499:16506   */\n      dup3\n        /* \"#utility.yul\":16496:16497   */\n      dup2\n        /* \"#utility.yul\":16493:16507   */\n      lt\n        /* \"#utility.yul\":16485:16693   */\n      iszero\n      tag_628\n      jumpi\n        /* \"#utility.yul\":16578:16587   */\n      dup5\n        /* \"#utility.yul\":16573:16576   */\n      dup10\n        /* \"#utility.yul\":16569:16588   */\n      add\n        /* \"#utility.yul\":16563:16589   */\n      mload\n        /* \"#utility.yul\":16555:16561   */\n      dup3\n        /* \"#utility.yul\":16548:16590   */\n      sstore\n        /* \"#utility.yul\":16629:16630   */\n      0x01\n        /* \"#utility.yul\":16621:16627   */\n      dup3\n        /* \"#utility.yul\":16617:16631   */\n      add\n        /* \"#utility.yul\":16607:16631   */\n      swap2\n      pop\n        /* \"#utility.yul\":16676:16678   */\n      0x20\n        /* \"#utility.yul\":16665:16674   */\n      dup6\n        /* \"#utility.yul\":16661:16679   */\n      add\n        /* \"#utility.yul\":16648:16679   */\n      swap5\n      pop\n        /* \"#utility.yul\":16522:16526   */\n      0x20\n        /* \"#utility.yul\":16519:16520   */\n      dup2\n        /* \"#utility.yul\":16515:16527   */\n      add\n        /* \"#utility.yul\":16510:16527   */\n      swap1\n      pop\n        /* \"#utility.yul\":16485:16693   */\n      jump(tag_626)\n    tag_628:\n        /* \"#utility.yul\":16721:16727   */\n      dup7\n        /* \"#utility.yul\":16712:16719   */\n      dup4\n        /* \"#utility.yul\":16709:16728   */\n      lt\n        /* \"#utility.yul\":16706:16885   */\n      iszero\n      tag_629\n      jumpi\n        /* \"#utility.yul\":16779:16788   */\n      dup5\n        /* \"#utility.yul\":16774:16777   */\n      dup10\n        /* \"#utility.yul\":16770:16789   */\n      add\n        /* \"#utility.yul\":16764:16790   */\n      mload\n        /* \"#utility.yul\":16822:16870   */\n      tag_630\n        /* \"#utility.yul\":16864:16868   */\n      0x1f\n        /* \"#utility.yul\":16856:16862   */\n      dup10\n        /* \"#utility.yul\":16852:16869   */\n      and\n        /* \"#utility.yul\":16841:16850   */\n      dup3\n        /* \"#utility.yul\":16822:16870   */\n      tag_407\n      jump\t// in\n    tag_630:\n        /* \"#utility.yul\":16814:16820   */\n      dup4\n        /* \"#utility.yul\":16807:16871   */\n      sstore\n        /* \"#utility.yul\":16729:16885   */\n      pop\n        /* \"#utility.yul\":16706:16885   */\n    tag_629:\n        /* \"#utility.yul\":16931:16932   */\n      0x01\n        /* \"#utility.yul\":16927:16928   */\n      0x02\n        /* \"#utility.yul\":16919:16925   */\n      dup9\n        /* \"#utility.yul\":16915:16929   */\n      mul\n        /* \"#utility.yul\":16911:16933   */\n      add\n        /* \"#utility.yul\":16905:16909   */\n      dup9\n        /* \"#utility.yul\":16898:16934   */\n      sstore\n        /* \"#utility.yul\":16333:16944   */\n      pop\n      pop\n      pop\n        /* \"#utility.yul\":16296:17183   */\n    tag_621:\n      pop\n        /* \"#utility.yul\":15886:17189   */\n      pop\n      pop\n      pop\n        /* \"#utility.yul\":15794:17189   */\n      pop\n      pop\n      jump\t// out\n        /* \"#utility.yul\":17195:17375   */\n    tag_409:\n        /* \"#utility.yul\":17243:17320   */\n      0x4e487b7100000000000000000000000000000000000000000000000000000000\n        /* \"#utility.yul\":17240:17241   */\n      0x00\n        /* \"#utility.yul\":17233:17321   */\n      mstore\n        /* \"#utility.yul\":17340:17344   */\n      0x11\n        /* \"#utility.yul\":17337:17338   */\n      0x04\n        /* \"#utility.yul\":17330:17345   */\n      mstore\n        /* \"#utility.yul\":17364:17368   */\n      0x24\n        /* \"#utility.yul\":17361:17362   */\n      0x00\n        /* \"#utility.yul\":17354:17369   */\n      revert\n        /* \"#utility.yul\":17381:17575   */\n    tag_168:\n        /* \"#utility.yul\":17421:17425   */\n      0x00\n        /* \"#utility.yul\":17441:17461   */\n      tag_633\n        /* \"#utility.yul\":17459:17460   */\n      dup3\n        /* \"#utility.yul\":17441:17461   */\n      tag_367\n      jump\t// in\n    tag_633:\n        /* \"#utility.yul\":17436:17461   */\n      swap2\n      pop\n        /* \"#utility.yul\":17475:17495   */\n      tag_634\n        /* \"#utility.yul\":17493:17494   */\n      dup4\n        /* \"#utility.yul\":17475:17495   */\n      tag_367\n      jump\t// in\n    tag_634:\n        /* \"#utility.yul\":17470:17495   */\n      swap3\n      pop\n        /* \"#utility.yul\":17519:17520   */\n      dup3\n        /* \"#utility.yul\":17516:17517   */\n      dup3\n        /* \"#utility.yul\":17512:17521   */\n      sub\n        /* \"#utility.yul\":17504:17521   */\n      swap1\n      pop\n        /* \"#utility.yul\":17543:17544   */\n      dup2\n        /* \"#utility.yul\":17537:17541   */\n      dup2\n        /* \"#utility.yul\":17534:17545   */\n      gt\n        /* \"#utility.yul\":17531:17568   */\n      iszero\n      tag_635\n      jumpi\n        /* \"#utility.yul\":17548:17566   */\n      tag_636\n      tag_409\n      jump\t// in\n    tag_636:\n        /* \"#utility.yul\":17531:17568   */\n    tag_635:\n        /* \"#utility.yul\":17381:17575   */\n      swap3\n      swap2\n      pop\n      pop\n      jump\t// out\n        /* \"#utility.yul\":17581:17761   */\n    tag_173:\n        /* \"#utility.yul\":17629:17706   */\n      0x4e487b7100000000000000000000000000000000000000000000000000000000\n        /* \"#utility.yul\":17626:17627   */\n      0x00\n        /* \"#utility.yul\":17619:17707   */\n      mstore\n        /* \"#utility.yul\":17726:17730   */\n      0x32\n        /* \"#utility.yul\":17723:17724   */\n      0x04\n        /* \"#utility.yul\":17716:17731   */\n      mstore\n        /* \"#utility.yul\":17750:17754   */\n      0x24\n        /* \"#utility.yul\":17747:17748   */\n      0x00\n        /* \"#utility.yul\":17740:17755   */\n      revert\n        /* \"#utility.yul\":17767:17947   */\n    tag_180:\n        /* \"#utility.yul\":17815:17892   */\n      0x4e487b7100000000000000000000000000000000000000000000000000000000\n        /* \"#utility.yul\":17812:17813   */\n      0x00\n        /* \"#utility.yul\":17805:17893   */\n      mstore\n        /* \"#utility.yul\":17912:17916   */\n      0x31\n        /* \"#utility.yul\":17909:17910   */\n      0x04\n        /* \"#utility.yul\":17902:17917   */\n      mstore\n        /* \"#utility.yul\":17936:17940   */\n      0x24\n        /* \"#utility.yul\":17933:17934   */\n      0x00\n        /* \"#utility.yul\":17926:17941   */\n      revert\n        /* \"#utility.yul\":17953:18121   */\n    tag_410:\n        /* \"#utility.yul\":18036:18047   */\n      0x00\n        /* \"#utility.yul\":18070:18076   */\n      dup3\n        /* \"#utility.yul\":18065:18068   */\n      dup3\n        /* \"#utility.yul\":18058:18077   */\n      mstore\n        /* \"#utility.yul\":18110:18114   */\n      0x20\n        /* \"#utility.yul\":18105:18108   */\n      dup3\n        /* \"#utility.yul\":18101:18115   */\n      add\n        /* \"#utility.yul\":18086:18115   */\n      swap1\n      pop\n        /* \"#utility.yul\":17953:18121   */\n      swap3\n      swap2\n      pop\n      pop\n      jump\t// out\n        /* \"#utility.yul\":18127:18241   */\n    tag_411:\n      pop\n      jump\t// out\n        /* \"#utility.yul\":18247:18609   */\n    tag_412:\n        /* \"#utility.yul\":18388:18391   */\n      0x00\n        /* \"#utility.yul\":18409:18474   */\n      tag_642\n        /* \"#utility.yul\":18472:18473   */\n      0x00\n        /* \"#utility.yul\":18467:18470   */\n      dup4\n        /* \"#utility.yul\":18409:18474   */\n      tag_410\n      jump\t// in\n    tag_642:\n        /* \"#utility.yul\":18402:18474   */\n      swap2\n      pop\n        /* \"#utility.yul\":18483:18576   */\n      tag_643\n        /* \"#utility.yul\":18572:18575   */\n      dup3\n        /* \"#utility.yul\":18483:18576   */\n      tag_411\n      jump\t// in\n    tag_643:\n        /* \"#utility.yul\":18601:18602   */\n      0x00\n        /* \"#utility.yul\":18596:18599   */\n      dup3\n        /* \"#utility.yul\":18592:18603   */\n      add\n        /* \"#utility.yul\":18585:18603   */\n      swap1\n      pop\n        /* \"#utility.yul\":18247:18609   */\n      swap2\n      swap1\n      pop\n      jump\t// out\n        /* \"#utility.yul\":18615:19363   */\n    tag_198:\n        /* \"#utility.yul\":18864:18868   */\n      0x00\n        /* \"#utility.yul\":18902:18905   */\n      0x80\n        /* \"#utility.yul\":18891:18900   */\n      dup3\n        /* \"#utility.yul\":18887:18906   */\n      add\n        /* \"#utility.yul\":18879:18906   */\n      swap1\n      pop\n        /* \"#utility.yul\":18916:18987   */\n      tag_645\n        /* \"#utility.yul\":18984:18985   */\n      0x00\n        /* \"#utility.yul\":18973:18982   */\n      dup4\n        /* \"#utility.yul\":18969:18986   */\n      add\n        /* \"#utility.yul\":18960:18966   */\n      dup7\n        /* \"#utility.yul\":18916:18987   */\n      tag_372\n      jump\t// in\n    tag_645:\n        /* \"#utility.yul\":18997:19069   */\n      tag_646\n        /* \"#utility.yul\":19065:19067   */\n      0x20\n        /* \"#utility.yul\":19054:19063   */\n      dup4\n        /* \"#utility.yul\":19050:19068   */\n      add\n        /* \"#utility.yul\":19041:19047   */\n      dup6\n        /* \"#utility.yul\":18997:19069   */\n      tag_372\n      jump\t// in\n    tag_646:\n        /* \"#utility.yul\":19079:19151   */\n      tag_647\n        /* \"#utility.yul\":19147:19149   */\n      0x40\n        /* \"#utility.yul\":19136:19145   */\n      dup4\n        /* \"#utility.yul\":19132:19150   */\n      add\n        /* \"#utility.yul\":19123:19129   */\n      dup5\n        /* \"#utility.yul\":19079:19151   */\n      tag_377\n      jump\t// in\n    tag_647:\n        /* \"#utility.yul\":19198:19207   */\n      dup2\n        /* \"#utility.yul\":19192:19196   */\n      dup2\n        /* \"#utility.yul\":19188:19208   */\n      sub\n        /* \"#utility.yul\":19183:19185   */\n      0x60\n        /* \"#utility.yul\":19172:19181   */\n      dup4\n        /* \"#utility.yul\":19168:19186   */\n      add\n        /* \"#utility.yul\":19161:19209   */\n      mstore\n        /* \"#utility.yul\":19226:19356   */\n      tag_648\n        /* \"#utility.yul\":19351:19355   */\n      dup2\n        /* \"#utility.yul\":19226:19356   */\n      tag_412\n      jump\t// in\n    tag_648:\n        /* \"#utility.yul\":19218:19356   */\n      swap1\n      pop\n        /* \"#utility.yul\":18615:19363   */\n      swap5\n      swap4\n      pop\n      pop\n      pop\n      pop\n      jump\t// out\n        /* \"#utility.yul\":19369:19518   */\n    tag_413:\n        /* \"#utility.yul\":19405:19412   */\n      0x00\n        /* \"#utility.yul\":19445:19511   */\n      0xffffffff00000000000000000000000000000000000000000000000000000000\n        /* \"#utility.yul\":19438:19443   */\n      dup3\n        /* \"#utility.yul\":19434:19512   */\n      and\n        /* \"#utility.yul\":19423:19512   */\n      swap1\n      pop\n        /* \"#utility.yul\":19369:19518   */\n      swap2\n      swap1\n      pop\n      jump\t// out\n        /* \"#utility.yul\":19524:19644   */\n    tag_414:\n        /* \"#utility.yul\":19596:19619   */\n      tag_651\n        /* \"#utility.yul\":19613:19618   */\n      dup2\n        /* \"#utility.yul\":19596:19619   */\n      tag_413\n      jump\t// in\n    tag_651:\n        /* \"#utility.yul\":19589:19594   */\n      dup2\n        /* \"#utility.yul\":19586:19620   */\n      eq\n        /* \"#utility.yul\":19576:19638   */\n      tag_652\n      jumpi\n        /* \"#utility.yul\":19634:19635   */\n      0x00\n        /* \"#utility.yul\":19631:19632   */\n      dup1\n        /* \"#utility.yul\":19624:19636   */\n      revert\n        /* \"#utility.yul\":19576:19638   */\n    tag_652:\n        /* \"#utility.yul\":19524:19644   */\n      pop\n      jump\t// out\n        /* \"#utility.yul\":19650:19791   */\n    tag_415:\n        /* \"#utility.yul\":19706:19711   */\n      0x00\n        /* \"#utility.yul\":19737:19743   */\n      dup2\n        /* \"#utility.yul\":19731:19744   */\n      mload\n        /* \"#utility.yul\":19722:19744   */\n      swap1\n      pop\n        /* \"#utility.yul\":19753:19785   */\n      tag_654\n        /* \"#utility.yul\":19779:19784   */\n      dup2\n        /* \"#utility.yul\":19753:19785   */\n      tag_414\n      jump\t// in\n    tag_654:\n        /* \"#utility.yul\":19650:19791   */\n      swap3\n      swap2\n      pop\n      pop\n      jump\t// out\n        /* \"#utility.yul\":19797:20146   */\n    tag_202:\n        /* \"#utility.yul\":19866:19872   */\n      0x00\n        /* \"#utility.yul\":19915:19917   */\n      0x20\n        /* \"#utility.yul\":19903:19912   */\n      dup3\n        /* \"#utility.yul\":19894:19901   */\n      dup5\n        /* \"#utility.yul\":19890:19913   */\n      sub\n        /* \"#utility.yul\":19886:19918   */\n      slt\n        /* \"#utility.yul\":19883:20002   */\n      iszero\n      tag_656\n      jumpi\n        /* \"#utility.yul\":19921:20000   */\n      tag_657\n      tag_365\n      jump\t// in\n    tag_657:\n        /* \"#utility.yul\":19883:20002   */\n    tag_656:\n        /* \"#utility.yul\":20041:20042   */\n      0x00\n        /* \"#utility.yul\":20066:20129   */\n      tag_658\n        /* \"#utility.yul\":20121:20128   */\n      dup5\n        /* \"#utility.yul\":20112:20118   */\n      dup3\n        /* \"#utility.yul\":20101:20110   */\n      dup6\n        /* \"#utility.yul\":20097:20119   */\n      add\n        /* \"#utility.yul\":20066:20129   */\n      tag_415\n      jump\t// in\n    tag_658:\n        /* \"#utility.yul\":20056:20129   */\n      swap2\n      pop\n        /* \"#utility.yul\":20012:20139   */\n      pop\n        /* \"#utility.yul\":19797:20146   */\n      swap3\n      swap2\n      pop\n      pop\n      jump\t// out\n        /* \"#utility.yul\":20174:20488   */\n    tag_416:\n        /* \"#utility.yul\":20270:20273   */\n      0x00\n        /* \"#utility.yul\":20291:20361   */\n      tag_660\n        /* \"#utility.yul\":20354:20360   */\n      dup4\n        /* \"#utility.yul\":20349:20352   */\n      dup6\n        /* \"#utility.yul\":20291:20361   */\n      tag_410\n      jump\t// in\n    tag_660:\n        /* \"#utility.yul\":20284:20361   */\n      swap4\n      pop\n        /* \"#utility.yul\":20371:20427   */\n      tag_661\n        /* \"#utility.yul\":20420:20426   */\n      dup4\n        /* \"#utility.yul\":20415:20418   */\n      dup6\n        /* \"#utility.yul\":20408:20413   */\n      dup5\n        /* \"#utility.yul\":20371:20427   */\n      tag_383\n      jump\t// in\n    tag_661:\n        /* \"#utility.yul\":20452:20481   */\n      tag_662\n        /* \"#utility.yul\":20474:20480   */\n      dup4\n        /* \"#utility.yul\":20452:20481   */\n      tag_362\n      jump\t// in\n    tag_662:\n        /* \"#utility.yul\":20447:20450   */\n      dup5\n        /* \"#utility.yul\":20443:20482   */\n      add\n        /* \"#utility.yul\":20436:20482   */\n      swap1\n      pop\n        /* \"#utility.yul\":20174:20488   */\n      swap4\n      swap3\n      pop\n      pop\n      pop\n      jump\t// out\n        /* \"#utility.yul\":20494:21154   */\n    tag_227:\n        /* \"#utility.yul\":20699:20703   */\n      0x00\n        /* \"#utility.yul\":20737:20740   */\n      0x80\n        /* \"#utility.yul\":20726:20735   */\n      dup3\n        /* \"#utility.yul\":20722:20741   */\n      add\n        /* \"#utility.yul\":20714:20741   */\n      swap1\n      pop\n        /* \"#utility.yul\":20751:20822   */\n      tag_664\n        /* \"#utility.yul\":20819:20820   */\n      0x00\n        /* \"#utility.yul\":20808:20817   */\n      dup4\n        /* \"#utility.yul\":20804:20821   */\n      add\n        /* \"#utility.yul\":20795:20801   */\n      dup9\n        /* \"#utility.yul\":20751:20822   */\n      tag_372\n      jump\t// in\n    tag_664:\n        /* \"#utility.yul\":20832:20904   */\n      tag_665\n        /* \"#utility.yul\":20900:20902   */\n      0x20\n        /* \"#utility.yul\":20889:20898   */\n      dup4\n        /* \"#utility.yul\":20885:20903   */\n      add\n        /* \"#utility.yul\":20876:20882   */\n      dup8\n        /* \"#utility.yul\":20832:20904   */\n      tag_372\n      jump\t// in\n    tag_665:\n        /* \"#utility.yul\":20914:20986   */\n      tag_666\n        /* \"#utility.yul\":20982:20984   */\n      0x40\n        /* \"#utility.yul\":20971:20980   */\n      dup4\n        /* \"#utility.yul\":20967:20985   */\n      add\n        /* \"#utility.yul\":20958:20964   */\n      dup7\n        /* \"#utility.yul\":20914:20986   */\n      tag_377\n      jump\t// in\n    tag_666:\n        /* \"#utility.yul\":21033:21042   */\n      dup2\n        /* \"#utility.yul\":21027:21031   */\n      dup2\n        /* \"#utility.yul\":21023:21043   */\n      sub\n        /* \"#utility.yul\":21018:21020   */\n      0x60\n        /* \"#utility.yul\":21007:21016   */\n      dup4\n        /* \"#utility.yul\":21003:21021   */\n      add\n        /* \"#utility.yul\":20996:21044   */\n      mstore\n        /* \"#utility.yul\":21061:21147   */\n      tag_667\n        /* \"#utility.yul\":21142:21146   */\n      dup2\n        /* \"#utility.yul\":21133:21139   */\n      dup5\n        /* \"#utility.yul\":21125:21131   */\n      dup7\n        /* \"#utility.yul\":21061:21147   */\n      tag_416\n      jump\t// in\n    tag_667:\n        /* \"#utility.yul\":21053:21147   */\n      swap1\n      pop\n        /* \"#utility.yul\":20494:21154   */\n      swap7\n      swap6\n      pop\n      pop\n      pop\n      pop\n      pop\n      pop\n      jump\t// out\n        /* \"#utility.yul\":21160:21308   */\n    tag_417:\n        /* \"#utility.yul\":21262:21273   */\n      0x00\n        /* \"#utility.yul\":21299:21302   */\n      dup2\n        /* \"#utility.yul\":21284:21302   */\n      swap1\n      pop\n        /* \"#utility.yul\":21160:21308   */\n      swap3\n      swap2\n      pop\n      pop\n      jump\t// out\n        /* \"#utility.yul\":21338:22212   */\n    tag_418:\n        /* \"#utility.yul\":21441:21444   */\n      0x00\n        /* \"#utility.yul\":21478:21483   */\n      dup2\n        /* \"#utility.yul\":21472:21484   */\n      sload\n        /* \"#utility.yul\":21507:21543   */\n      tag_670\n        /* \"#utility.yul\":21533:21542   */\n      dup2\n        /* \"#utility.yul\":21507:21543   */\n      tag_140\n      jump\t// in\n    tag_670:\n        /* \"#utility.yul\":21559:21648   */\n      tag_671\n        /* \"#utility.yul\":21641:21647   */\n      dup2\n        /* \"#utility.yul\":21636:21639   */\n      dup7\n        /* \"#utility.yul\":21559:21648   */\n      tag_417\n      jump\t// in\n    tag_671:\n        /* \"#utility.yul\":21552:21648   */\n      swap5\n      pop\n        /* \"#utility.yul\":21679:21680   */\n      0x01\n        /* \"#utility.yul\":21668:21677   */\n      dup3\n        /* \"#utility.yul\":21664:21681   */\n      and\n        /* \"#utility.yul\":21695:21696   */\n      0x00\n        /* \"#utility.yul\":21690:21856   */\n      dup2\n      eq\n      tag_673\n      jumpi\n        /* \"#utility.yul\":21870:21871   */\n      0x01\n        /* \"#utility.yul\":21865:22206   */\n      dup2\n      eq\n      tag_674\n      jumpi\n        /* \"#utility.yul\":21657:22206   */\n      jump(tag_672)\n        /* \"#utility.yul\":21690:21856   */\n    tag_673:\n        /* \"#utility.yul\":21774:21778   */\n      0xff\n        /* \"#utility.yul\":21770:21779   */\n      not\n        /* \"#utility.yul\":21759:21768   */\n      dup4\n        /* \"#utility.yul\":21755:21780   */\n      and\n        /* \"#utility.yul\":21750:21753   */\n      dup7\n        /* \"#utility.yul\":21743:21781   */\n      mstore\n        /* \"#utility.yul\":21836:21842   */\n      dup2\n        /* \"#utility.yul\":21829:21843   */\n      iszero\n        /* \"#utility.yul\":21822:21844   */\n      iszero\n        /* \"#utility.yul\":21814:21820   */\n      dup3\n        /* \"#utility.yul\":21810:21845   */\n      mul\n        /* \"#utility.yul\":21805:21808   */\n      dup7\n        /* \"#utility.yul\":21801:21846   */\n      add\n        /* \"#utility.yul\":21794:21846   */\n      swap4\n      pop\n        /* \"#utility.yul\":21690:21856   */\n      jump(tag_672)\n        /* \"#utility.yul\":21865:22206   */\n    tag_674:\n        /* \"#utility.yul\":21932:21970   */\n      tag_675\n        /* \"#utility.yul\":21964:21969   */\n      dup6\n        /* \"#utility.yul\":21932:21970   */\n      tag_394\n      jump\t// in\n    tag_675:\n        /* \"#utility.yul\":21992:21993   */\n      0x00\n        /* \"#utility.yul\":22006:22160   */\n    tag_676:\n        /* \"#utility.yul\":22020:22026   */\n      dup4\n        /* \"#utility.yul\":22017:22018   */\n      dup2\n        /* \"#utility.yul\":22014:22027   */\n      lt\n        /* \"#utility.yul\":22006:22160   */\n      iszero\n      tag_678\n      jumpi\n        /* \"#utility.yul\":22094:22101   */\n      dup2\n        /* \"#utility.yul\":22088:22102   */\n      sload\n        /* \"#utility.yul\":22084:22085   */\n      dup2\n        /* \"#utility.yul\":22079:22082   */\n      dup10\n        /* \"#utility.yul\":22075:22086   */\n      add\n        /* \"#utility.yul\":22068:22103   */\n      mstore\n        /* \"#utility.yul\":22144:22145   */\n      0x01\n        /* \"#utility.yul\":22135:22142   */\n      dup3\n        /* \"#utility.yul\":22131:22146   */\n      add\n        /* \"#utility.yul\":22120:22146   */\n      swap2\n      pop\n        /* \"#utility.yul\":22042:22046   */\n      0x20\n        /* \"#utility.yul\":22039:22040   */\n      dup2\n        /* \"#utility.yul\":22035:22047   */\n      add\n        /* \"#utility.yul\":22030:22047   */\n      swap1\n      pop\n        /* \"#utility.yul\":22006:22160   */\n      jump(tag_676)\n    tag_678:\n        /* \"#utility.yul\":22189:22195   */\n      dup4\n        /* \"#utility.yul\":22184:22187   */\n      dup9\n        /* \"#utility.yul\":22180:22196   */\n      add\n        /* \"#utility.yul\":22173:22196   */\n      swap6\n      pop\n        /* \"#utility.yul\":21872:22206   */\n      pop\n      pop\n        /* \"#utility.yul\":21657:22206   */\n    tag_672:\n      pop\n        /* \"#utility.yul\":21445:22212   */\n      pop\n      pop\n        /* \"#utility.yul\":21338:22212   */\n      swap3\n      swap2\n      pop\n      pop\n      jump\t// out\n        /* \"#utility.yul\":22218:22608   */\n    tag_419:\n        /* \"#utility.yul\":22324:22327   */\n      0x00\n        /* \"#utility.yul\":22352:22391   */\n      tag_680\n        /* \"#utility.yul\":22385:22390   */\n      dup3\n        /* \"#utility.yul\":22352:22391   */\n      tag_359\n      jump\t// in\n    tag_680:\n        /* \"#utility.yul\":22407:22496   */\n      tag_681\n        /* \"#utility.yul\":22489:22495   */\n      dup2\n        /* \"#utility.yul\":22484:22487   */\n      dup6\n        /* \"#utility.yul\":22407:22496   */\n      tag_417\n      jump\t// in\n    tag_681:\n        /* \"#utility.yul\":22400:22496   */\n      swap4\n      pop\n        /* \"#utility.yul\":22505:22570   */\n      tag_682\n        /* \"#utility.yul\":22563:22569   */\n      dup2\n        /* \"#utility.yul\":22558:22561   */\n      dup6\n        /* \"#utility.yul\":22551:22555   */\n      0x20\n        /* \"#utility.yul\":22544:22549   */\n      dup7\n        /* \"#utility.yul\":22540:22556   */\n      add\n        /* \"#utility.yul\":22505:22570   */\n      tag_361\n      jump\t// in\n    tag_682:\n        /* \"#utility.yul\":22595:22601   */\n      dup1\n        /* \"#utility.yul\":22590:22593   */\n      dup5\n        /* \"#utility.yul\":22586:22602   */\n      add\n        /* \"#utility.yul\":22579:22602   */\n      swap2\n      pop\n        /* \"#utility.yul\":22328:22608   */\n      pop\n        /* \"#utility.yul\":22218:22608   */\n      swap3\n      swap2\n      pop\n      pop\n      jump\t// out\n        /* \"#utility.yul\":22614:23043   */\n    tag_238:\n        /* \"#utility.yul\":22791:22794   */\n      0x00\n        /* \"#utility.yul\":22813:22905   */\n      tag_684\n        /* \"#utility.yul\":22901:22904   */\n      dup3\n        /* \"#utility.yul\":22892:22898   */\n      dup6\n        /* \"#utility.yul\":22813:22905   */\n      tag_418\n      jump\t// in\n    tag_684:\n        /* \"#utility.yul\":22806:22905   */\n      swap2\n      pop\n        /* \"#utility.yul\":22922:23017   */\n      tag_685\n        /* \"#utility.yul\":23013:23016   */\n      dup3\n        /* \"#utility.yul\":23004:23010   */\n      dup5\n        /* \"#utility.yul\":22922:23017   */\n      tag_419\n      jump\t// in\n    tag_685:\n        /* \"#utility.yul\":22915:23017   */\n      swap2\n      pop\n        /* \"#utility.yul\":23034:23037   */\n      dup2\n        /* \"#utility.yul\":23027:23037   */\n      swap1\n      pop\n        /* \"#utility.yul\":22614:23043   */\n      swap4\n      swap3\n      pop\n      pop\n      pop\n      jump\t// out\n        /* \"#utility.yul\":23049:23128   */\n    tag_420:\n        /* \"#utility.yul\":23088:23095   */\n      0x00\n        /* \"#utility.yul\":23117:23122   */\n      dup2\n        /* \"#utility.yul\":23106:23122   */\n      swap1\n      pop\n        /* \"#utility.yul\":23049:23128   */\n      swap2\n      swap1\n      pop\n      jump\t// out\n        /* \"#utility.yul\":23134:23291   */\n    tag_421:\n        /* \"#utility.yul\":23239:23284   */\n      tag_688\n        /* \"#utility.yul\":23259:23283   */\n      tag_689\n        /* \"#utility.yul\":23277:23282   */\n      dup3\n        /* \"#utility.yul\":23259:23283   */\n      tag_367\n      jump\t// in\n    tag_689:\n        /* \"#utility.yul\":23239:23284   */\n      tag_420\n      jump\t// in\n    tag_688:\n        /* \"#utility.yul\":23234:23237   */\n      dup3\n        /* \"#utility.yul\":23227:23285   */\n      mstore\n        /* \"#utility.yul\":23134:23291   */\n      pop\n      pop\n      jump\t// out\n        /* \"#utility.yul\":23297:23553   */\n    tag_241:\n        /* \"#utility.yul\":23409:23412   */\n      0x00\n        /* \"#utility.yul\":23424:23499   */\n      tag_691\n        /* \"#utility.yul\":23495:23498   */\n      dup3\n        /* \"#utility.yul\":23486:23492   */\n      dup5\n        /* \"#utility.yul\":23424:23499   */\n      tag_421\n      jump\t// in\n    tag_691:\n        /* \"#utility.yul\":23524:23526   */\n      0x20\n        /* \"#utility.yul\":23519:23522   */\n      dup3\n        /* \"#utility.yul\":23515:23527   */\n      add\n        /* \"#utility.yul\":23508:23527   */\n      swap2\n      pop\n        /* \"#utility.yul\":23544:23547   */\n      dup2\n        /* \"#utility.yul\":23537:23547   */\n      swap1\n      pop\n        /* \"#utility.yul\":23297:23553   */\n      swap3\n      swap2\n      pop\n      pop\n      jump\t// out\n        /* \"#utility.yul\":23559:23801   */\n    tag_422:\n        /* \"#utility.yul\":23728:23794   */\n      0x7b226e616d65223a202250616e646f7261202300000000000000000000000000\n        /* \"#utility.yul\":23723:23726   */\n      dup2\n        /* \"#utility.yul\":23716:23795   */\n      mstore\n        /* \"#utility.yul\":23559:23801   */\n      pop\n      jump\t// out\n        /* \"#utility.yul\":23807:24349   */\n    tag_253:\n        /* \"#utility.yul\":24030:24033   */\n      0x00\n        /* \"#utility.yul\":24045:24183   */\n      tag_694\n        /* \"#utility.yul\":24179:24182   */\n      dup3\n        /* \"#utility.yul\":24045:24183   */\n      tag_422\n      jump\t// in\n    tag_694:\n        /* \"#utility.yul\":24208:24210   */\n      0x13\n        /* \"#utility.yul\":24203:24206   */\n      dup3\n        /* \"#utility.yul\":24199:24211   */\n      add\n        /* \"#utility.yul\":24192:24211   */\n      swap2\n      pop\n        /* \"#utility.yul\":24228:24323   */\n      tag_695\n        /* \"#utility.yul\":24319:24322   */\n      dup3\n        /* \"#utility.yul\":24310:24316   */\n      dup5\n        /* \"#utility.yul\":24228:24323   */\n      tag_419\n      jump\t// in\n    tag_695:\n        /* \"#utility.yul\":24221:24323   */\n      swap2\n      pop\n        /* \"#utility.yul\":24340:24343   */\n      dup2\n        /* \"#utility.yul\":24333:24343   */\n      swap1\n      pop\n        /* \"#utility.yul\":23807:24349   */\n      swap3\n      swap2\n      pop\n      pop\n      jump\t// out\n        /* \"#utility.yul\":24355:24910   */\n    tag_423:\n        /* \"#utility.yul\":24495:24561   */\n      0x222c226465736372697074696f6e223a224120636f6c6c656374696f6e206f66\n        /* \"#utility.yul\":24491:24492   */\n      0x00\n        /* \"#utility.yul\":24483:24489   */\n      dup3\n        /* \"#utility.yul\":24479:24493   */\n      add\n        /* \"#utility.yul\":24472:24562   */\n      mstore\n        /* \"#utility.yul\":24596:24630   */\n      0x2031302c303030205265706c6963616e747320656e61626c6564206279204552\n        /* \"#utility.yul\":24591:24593   */\n      0x20\n        /* \"#utility.yul\":24583:24589   */\n      dup3\n        /* \"#utility.yul\":24579:24594   */\n      add\n        /* \"#utility.yul\":24572:24631   */\n      mstore\n        /* \"#utility.yul\":24665:24699   */\n      0x433430342c20616e206578706572696d656e74616c20746f6b656e207374616e\n        /* \"#utility.yul\":24660:24662   */\n      0x40\n        /* \"#utility.yul\":24652:24658   */\n      dup3\n        /* \"#utility.yul\":24648:24663   */\n      add\n        /* \"#utility.yul\":24641:24700   */\n      mstore\n        /* \"#utility.yul\":24734:24800   */\n      0x646172642e222c2265787465726e616c5f75726c223a2268747470733a2f2f70\n        /* \"#utility.yul\":24729:24731   */\n      0x60\n        /* \"#utility.yul\":24721:24727   */\n      dup3\n        /* \"#utility.yul\":24717:24732   */\n      add\n        /* \"#utility.yul\":24710:24801   */\n      mstore\n        /* \"#utility.yul\":24836:24902   */\n      0x616e646f72612e6275696c64222c22696d616765223a22000000000000000000\n        /* \"#utility.yul\":24830:24833   */\n      0x80\n        /* \"#utility.yul\":24822:24828   */\n      dup3\n        /* \"#utility.yul\":24818:24834   */\n      add\n        /* \"#utility.yul\":24811:24903   */\n      mstore\n        /* \"#utility.yul\":24355:24910   */\n      pop\n      jump\t// out\n        /* \"#utility.yul\":24916:25320   */\n    tag_424:\n        /* \"#utility.yul\":25076:25079   */\n      0x00\n        /* \"#utility.yul\":25097:25183   */\n      tag_698\n        /* \"#utility.yul\":25179:25182   */\n      0x97\n        /* \"#utility.yul\":25174:25177   */\n      dup4\n        /* \"#utility.yul\":25097:25183   */\n      tag_417\n      jump\t// in\n    tag_698:\n        /* \"#utility.yul\":25090:25183   */\n      swap2\n      pop\n        /* \"#utility.yul\":25192:25285   */\n      tag_699\n        /* \"#utility.yul\":25281:25284   */\n      dup3\n        /* \"#utility.yul\":25192:25285   */\n      tag_423\n      jump\t// in\n    tag_699:\n        /* \"#utility.yul\":25310:25313   */\n      0x97\n        /* \"#utility.yul\":25305:25308   */\n      dup3\n        /* \"#utility.yul\":25301:25314   */\n      add\n        /* \"#utility.yul\":25294:25314   */\n      swap1\n      pop\n        /* \"#utility.yul\":24916:25320   */\n      swap2\n      swap1\n      pop\n      jump\t// out\n        /* \"#utility.yul\":25326:25867   */\n    tag_255:\n        /* \"#utility.yul\":25559:25562   */\n      0x00\n        /* \"#utility.yul\":25581:25676   */\n      tag_701\n        /* \"#utility.yul\":25672:25675   */\n      dup3\n        /* \"#utility.yul\":25663:25669   */\n      dup5\n        /* \"#utility.yul\":25581:25676   */\n      tag_419\n      jump\t// in\n    tag_701:\n        /* \"#utility.yul\":25574:25676   */\n      swap2\n      pop\n        /* \"#utility.yul\":25693:25841   */\n      tag_702\n        /* \"#utility.yul\":25837:25840   */\n      dup3\n        /* \"#utility.yul\":25693:25841   */\n      tag_424\n      jump\t// in\n    tag_702:\n        /* \"#utility.yul\":25686:25841   */\n      swap2\n      pop\n        /* \"#utility.yul\":25858:25861   */\n      dup2\n        /* \"#utility.yul\":25851:25861   */\n      swap1\n      pop\n        /* \"#utility.yul\":25326:25867   */\n      swap3\n      swap2\n      pop\n      pop\n      jump\t// out\n        /* \"#utility.yul\":25873:26308   */\n    tag_258:\n        /* \"#utility.yul\":26053:26056   */\n      0x00\n        /* \"#utility.yul\":26075:26170   */\n      tag_704\n        /* \"#utility.yul\":26166:26169   */\n      dup3\n        /* \"#utility.yul\":26157:26163   */\n      dup6\n        /* \"#utility.yul\":26075:26170   */\n      tag_419\n      jump\t// in\n    tag_704:\n        /* \"#utility.yul\":26068:26170   */\n      swap2\n      pop\n        /* \"#utility.yul\":26187:26282   */\n      tag_705\n        /* \"#utility.yul\":26278:26281   */\n      dup3\n        /* \"#utility.yul\":26269:26275   */\n      dup5\n        /* \"#utility.yul\":26187:26282   */\n      tag_419\n      jump\t// in\n    tag_705:\n        /* \"#utility.yul\":26180:26282   */\n      swap2\n      pop\n        /* \"#utility.yul\":26299:26302   */\n      dup2\n        /* \"#utility.yul\":26292:26302   */\n      swap1\n      pop\n        /* \"#utility.yul\":25873:26308   */\n      swap4\n      swap3\n      pop\n      pop\n      pop\n      jump\t// out\n        /* \"#utility.yul\":26314:26629   */\n    tag_425:\n        /* \"#utility.yul\":26454:26520   */\n      0x222c2261747472696275746573223a5b7b2274726169745f74797065223a2243\n        /* \"#utility.yul\":26450:26451   */\n      0x00\n        /* \"#utility.yul\":26442:26448   */\n      dup3\n        /* \"#utility.yul\":26438:26452   */\n      add\n        /* \"#utility.yul\":26431:26521   */\n      mstore\n        /* \"#utility.yul\":26555:26621   */\n      0x6f6c6f72222c2276616c7565223a220000000000000000000000000000000000\n        /* \"#utility.yul\":26550:26552   */\n      0x20\n        /* \"#utility.yul\":26542:26548   */\n      dup3\n        /* \"#utility.yul\":26538:26553   */\n      add\n        /* \"#utility.yul\":26531:26622   */\n      mstore\n        /* \"#utility.yul\":26314:26629   */\n      pop\n      jump\t// out\n        /* \"#utility.yul\":26635:27037   */\n    tag_426:\n        /* \"#utility.yul\":26795:26798   */\n      0x00\n        /* \"#utility.yul\":26816:26901   */\n      tag_708\n        /* \"#utility.yul\":26898:26900   */\n      0x2f\n        /* \"#utility.yul\":26893:26896   */\n      dup4\n        /* \"#utility.yul\":26816:26901   */\n      tag_417\n      jump\t// in\n    tag_708:\n        /* \"#utility.yul\":26809:26901   */\n      swap2\n      pop\n        /* \"#utility.yul\":26910:27003   */\n      tag_709\n        /* \"#utility.yul\":26999:27002   */\n      dup3\n        /* \"#utility.yul\":26910:27003   */\n      tag_425\n      jump\t// in\n    tag_709:\n        /* \"#utility.yul\":27028:27030   */\n      0x2f\n        /* \"#utility.yul\":27023:27026   */\n      dup3\n        /* \"#utility.yul\":27019:27031   */\n      add\n        /* \"#utility.yul\":27012:27031   */\n      swap1\n      pop\n        /* \"#utility.yul\":26635:27037   */\n      swap2\n      swap1\n      pop\n      jump\t// out\n        /* \"#utility.yul\":27043:27584   */\n    tag_260:\n        /* \"#utility.yul\":27276:27279   */\n      0x00\n        /* \"#utility.yul\":27298:27446   */\n      tag_711\n        /* \"#utility.yul\":27442:27445   */\n      dup3\n        /* \"#utility.yul\":27298:27446   */\n      tag_426\n      jump\t// in\n    tag_711:\n        /* \"#utility.yul\":27291:27446   */\n      swap2\n      pop\n        /* \"#utility.yul\":27463:27558   */\n      tag_712\n        /* \"#utility.yul\":27554:27557   */\n      dup3\n        /* \"#utility.yul\":27545:27551   */\n      dup5\n        /* \"#utility.yul\":27463:27558   */\n      tag_419\n      jump\t// in\n    tag_712:\n        /* \"#utility.yul\":27456:27558   */\n      swap2\n      pop\n        /* \"#utility.yul\":27575:27578   */\n      dup2\n        /* \"#utility.yul\":27568:27578   */\n      swap1\n      pop\n        /* \"#utility.yul\":27043:27584   */\n      swap3\n      swap2\n      pop\n      pop\n      jump\t// out\n        /* \"#utility.yul\":27590:27795   */\n    tag_427:\n        /* \"#utility.yul\":27759:27788   */\n      0x646174613a6170706c69636174696f6e2f6a736f6e3b757466382c0000000000\n        /* \"#utility.yul\":27754:27757   */\n      dup2\n        /* \"#utility.yul\":27747:27789   */\n      mstore\n        /* \"#utility.yul\":27590:27795   */\n      pop\n      jump\t// out\n        /* \"#utility.yul\":27801:28343   */\n    tag_264:\n        /* \"#utility.yul\":28024:28027   */\n      0x00\n        /* \"#utility.yul\":28039:28177   */\n      tag_715\n        /* \"#utility.yul\":28173:28176   */\n      dup3\n        /* \"#utility.yul\":28039:28177   */\n      tag_427\n      jump\t// in\n    tag_715:\n        /* \"#utility.yul\":28202:28204   */\n      0x1b\n        /* \"#utility.yul\":28197:28200   */\n      dup3\n        /* \"#utility.yul\":28193:28205   */\n      add\n        /* \"#utility.yul\":28186:28205   */\n      swap2\n      pop\n        /* \"#utility.yul\":28222:28317   */\n      tag_716\n        /* \"#utility.yul\":28313:28316   */\n      dup3\n        /* \"#utility.yul\":28304:28310   */\n      dup5\n        /* \"#utility.yul\":28222:28317   */\n      tag_419\n      jump\t// in\n    tag_716:\n        /* \"#utility.yul\":28215:28317   */\n      swap2\n      pop\n        /* \"#utility.yul\":28334:28337   */\n      dup2\n        /* \"#utility.yul\":28327:28337   */\n      swap1\n      pop\n        /* \"#utility.yul\":27801:28343   */\n      swap3\n      swap2\n      pop\n      pop\n      jump\t// out\n        /* \"#utility.yul\":28349:28451   */\n    tag_428:\n        /* \"#utility.yul\":28391:28399   */\n      0x00\n        /* \"#utility.yul\":28438:28443   */\n      dup2\n        /* \"#utility.yul\":28435:28436   */\n      0x01\n        /* \"#utility.yul\":28431:28444   */\n      shr\n        /* \"#utility.yul\":28410:28444   */\n      swap1\n      pop\n        /* \"#utility.yul\":28349:28451   */\n      swap2\n      swap1\n      pop\n      jump\t// out\n        /* \"#utility.yul\":28457:29305   */\n    tag_429:\n        /* \"#utility.yul\":28518:28523   */\n      0x00\n        /* \"#utility.yul\":28525:28529   */\n      dup1\n        /* \"#utility.yul\":28549:28555   */\n      dup3\n        /* \"#utility.yul\":28540:28555   */\n      swap2\n      pop\n        /* \"#utility.yul\":28573:28578   */\n      dup4\n        /* \"#utility.yul\":28564:28578   */\n      swap1\n      pop\n        /* \"#utility.yul\":28587:29299   */\n    tag_719:\n        /* \"#utility.yul\":28608:28609   */\n      0x01\n        /* \"#utility.yul\":28598:28606   */\n      dup6\n        /* \"#utility.yul\":28595:28610   */\n      gt\n        /* \"#utility.yul\":28587:29299   */\n      iszero\n      tag_721\n      jumpi\n        /* \"#utility.yul\":28703:28707   */\n      dup1\n        /* \"#utility.yul\":28698:28701   */\n      dup7\n        /* \"#utility.yul\":28694:28708   */\n      div\n        /* \"#utility.yul\":28688:28692   */\n      dup2\n        /* \"#utility.yul\":28685:28709   */\n      gt\n        /* \"#utility.yul\":28682:28732   */\n      iszero\n      tag_722\n      jumpi\n        /* \"#utility.yul\":28712:28730   */\n      tag_723\n      tag_409\n      jump\t// in\n    tag_723:\n        /* \"#utility.yul\":28682:28732   */\n    tag_722:\n        /* \"#utility.yul\":28762:28763   */\n      0x01\n        /* \"#utility.yul\":28752:28760   */\n      dup6\n        /* \"#utility.yul\":28748:28764   */\n      and\n        /* \"#utility.yul\":28745:29196   */\n      iszero\n      tag_724\n      jumpi\n        /* \"#utility.yul\":29177:29181   */\n      dup1\n        /* \"#utility.yul\":29170:29175   */\n      dup3\n        /* \"#utility.yul\":29166:29182   */\n      mul\n        /* \"#utility.yul\":29157:29182   */\n      swap2\n      pop\n        /* \"#utility.yul\":28745:29196   */\n    tag_724:\n        /* \"#utility.yul\":29227:29231   */\n      dup1\n        /* \"#utility.yul\":29221:29225   */\n      dup2\n        /* \"#utility.yul\":29217:29232   */\n      mul\n        /* \"#utility.yul\":29209:29232   */\n      swap1\n      pop\n        /* \"#utility.yul\":29257:29289   */\n      tag_725\n        /* \"#utility.yul\":29280:29288   */\n      dup6\n        /* \"#utility.yul\":29257:29289   */\n      tag_428\n      jump\t// in\n    tag_725:\n        /* \"#utility.yul\":29245:29289   */\n      swap5\n      pop\n        /* \"#utility.yul\":28587:29299   */\n      jump(tag_719)\n    tag_721:\n        /* \"#utility.yul\":28457:29305   */\n      swap5\n      pop\n      swap5\n      swap3\n      pop\n      pop\n      pop\n      jump\t// out\n        /* \"#utility.yul\":29311:30384   */\n    tag_430:\n        /* \"#utility.yul\":29365:29370   */\n      0x00\n        /* \"#utility.yul\":29556:29564   */\n      dup3\n        /* \"#utility.yul\":29546:29586   */\n      tag_727\n      jumpi\n        /* \"#utility.yul\":29577:29578   */\n      0x01\n        /* \"#utility.yul\":29568:29578   */\n      swap1\n      pop\n        /* \"#utility.yul\":29579:29584   */\n      jump(tag_726)\n        /* \"#utility.yul\":29546:29586   */\n    tag_727:\n        /* \"#utility.yul\":29605:29609   */\n      dup2\n        /* \"#utility.yul\":29595:29631   */\n      tag_728\n      jumpi\n        /* \"#utility.yul\":29622:29623   */\n      0x00\n        /* \"#utility.yul\":29613:29623   */\n      swap1\n      pop\n        /* \"#utility.yul\":29624:29629   */\n      jump(tag_726)\n        /* \"#utility.yul\":29595:29631   */\n    tag_728:\n        /* \"#utility.yul\":29691:29695   */\n      dup2\n        /* \"#utility.yul\":29739:29740   */\n      0x01\n        /* \"#utility.yul\":29734:29761   */\n      dup2\n      eq\n      tag_730\n      jumpi\n        /* \"#utility.yul\":29775:29776   */\n      0x02\n        /* \"#utility.yul\":29770:29961   */\n      dup2\n      eq\n      tag_731\n      jumpi\n        /* \"#utility.yul\":29684:29961   */\n      jump(tag_729)\n        /* \"#utility.yul\":29734:29761   */\n    tag_730:\n        /* \"#utility.yul\":29752:29753   */\n      0x01\n        /* \"#utility.yul\":29743:29753   */\n      swap2\n      pop\n        /* \"#utility.yul\":29754:29759   */\n      pop\n      jump(tag_726)\n        /* \"#utility.yul\":29770:29961   */\n    tag_731:\n        /* \"#utility.yul\":29815:29818   */\n      0xff\n        /* \"#utility.yul\":29805:29813   */\n      dup5\n        /* \"#utility.yul\":29802:29819   */\n      gt\n        /* \"#utility.yul\":29799:29842   */\n      iszero\n      tag_732\n      jumpi\n        /* \"#utility.yul\":29822:29840   */\n      tag_733\n      tag_409\n      jump\t// in\n    tag_733:\n        /* \"#utility.yul\":29799:29842   */\n    tag_732:\n        /* \"#utility.yul\":29871:29879   */\n      dup4\n        /* \"#utility.yul\":29868:29869   */\n      0x02\n        /* \"#utility.yul\":29864:29880   */\n      exp\n        /* \"#utility.yul\":29855:29880   */\n      swap2\n      pop\n        /* \"#utility.yul\":29906:29909   */\n      dup5\n        /* \"#utility.yul\":29899:29904   */\n      dup3\n        /* \"#utility.yul\":29896:29910   */\n      gt\n        /* \"#utility.yul\":29893:29933   */\n      iszero\n      tag_734\n      jumpi\n        /* \"#utility.yul\":29913:29931   */\n      tag_735\n      tag_409\n      jump\t// in\n    tag_735:\n        /* \"#utility.yul\":29893:29933   */\n    tag_734:\n        /* \"#utility.yul\":29946:29951   */\n      pop\n      jump(tag_726)\n        /* \"#utility.yul\":29684:29961   */\n    tag_729:\n      pop\n        /* \"#utility.yul\":30070:30072   */\n      0x20\n        /* \"#utility.yul\":30060:30068   */\n      dup4\n        /* \"#utility.yul\":30057:30073   */\n      lt\n        /* \"#utility.yul\":30051:30054   */\n      0x0133\n        /* \"#utility.yul\":30045:30049   */\n      dup4\n        /* \"#utility.yul\":30042:30055   */\n      lt\n        /* \"#utility.yul\":30038:30074   */\n      and\n        /* \"#utility.yul\":30020:30022   */\n      0x4e\n        /* \"#utility.yul\":30010:30018   */\n      dup5\n        /* \"#utility.yul\":30007:30023   */\n      lt\n        /* \"#utility.yul\":30002:30004   */\n      0x0b\n        /* \"#utility.yul\":29996:30000   */\n      dup5\n        /* \"#utility.yul\":29993:30005   */\n      lt\n        /* \"#utility.yul\":29989:30024   */\n      and\n        /* \"#utility.yul\":29973:30084   */\n      or\n        /* \"#utility.yul\":29970:30216   */\n      iszero\n      tag_736\n      jumpi\n        /* \"#utility.yul\":30126:30134   */\n      dup3\n        /* \"#utility.yul\":30120:30124   */\n      dup3\n        /* \"#utility.yul\":30116:30135   */\n      exp\n        /* \"#utility.yul\":30107:30135   */\n      swap1\n      pop\n        /* \"#utility.yul\":30161:30164   */\n      dup4\n        /* \"#utility.yul\":30154:30159   */\n      dup2\n        /* \"#utility.yul\":30151:30165   */\n      gt\n        /* \"#utility.yul\":30148:30188   */\n      iszero\n      tag_737\n      jumpi\n        /* \"#utility.yul\":30168:30186   */\n      tag_738\n      tag_409\n      jump\t// in\n    tag_738:\n        /* \"#utility.yul\":30148:30188   */\n    tag_737:\n        /* \"#utility.yul\":30201:30206   */\n      jump(tag_726)\n        /* \"#utility.yul\":29970:30216   */\n    tag_736:\n        /* \"#utility.yul\":30241:30283   */\n      tag_739\n        /* \"#utility.yul\":30279:30282   */\n      dup5\n        /* \"#utility.yul\":30269:30277   */\n      dup5\n        /* \"#utility.yul\":30263:30267   */\n      dup5\n        /* \"#utility.yul\":30260:30261   */\n      0x01\n        /* \"#utility.yul\":30241:30283   */\n      tag_429\n      jump\t// in\n    tag_739:\n        /* \"#utility.yul\":30226:30283   */\n      swap3\n      pop\n      swap1\n      pop\n        /* \"#utility.yul\":30315:30319   */\n      dup2\n        /* \"#utility.yul\":30310:30313   */\n      dup5\n        /* \"#utility.yul\":30306:30320   */\n      div\n        /* \"#utility.yul\":30299:30304   */\n      dup2\n        /* \"#utility.yul\":30296:30321   */\n      gt\n        /* \"#utility.yul\":30293:30344   */\n      iszero\n      tag_740\n      jumpi\n        /* \"#utility.yul\":30324:30342   */\n      tag_741\n      tag_409\n      jump\t// in\n    tag_741:\n        /* \"#utility.yul\":30293:30344   */\n    tag_740:\n        /* \"#utility.yul\":30373:30377   */\n      dup2\n        /* \"#utility.yul\":30366:30371   */\n      dup2\n        /* \"#utility.yul\":30362:30378   */\n      mul\n        /* \"#utility.yul\":30353:30378   */\n      swap1\n      pop\n        /* \"#utility.yul\":29311:30384   */\n    tag_726:\n      swap4\n      swap3\n      pop\n      pop\n      pop\n      jump\t// out\n        /* \"#utility.yul\":30390:30671   */\n    tag_285:\n        /* \"#utility.yul\":30448:30453   */\n      0x00\n        /* \"#utility.yul\":30472:30495   */\n      tag_743\n        /* \"#utility.yul\":30490:30494   */\n      dup3\n        /* \"#utility.yul\":30472:30495   */\n      tag_367\n      jump\t// in\n    tag_743:\n        /* \"#utility.yul\":30464:30495   */\n      swap2\n      pop\n        /* \"#utility.yul\":30516:30541   */\n      tag_744\n        /* \"#utility.yul\":30532:30540   */\n      dup4\n        /* \"#utility.yul\":30516:30541   */\n      tag_386\n      jump\t// in\n    tag_744:\n        /* \"#utility.yul\":30504:30541   */\n      swap3\n      pop\n        /* \"#utility.yul\":30560:30664   */\n      tag_745\n        /* \"#utility.yul\":30597:30663   */\n      0xffffffffffffffffffffffffffffffffffffffffffffffffffffffffffffffff\n        /* \"#utility.yul\":30587:30595   */\n      dup5\n        /* \"#utility.yul\":30581:30585   */\n      dup5\n        /* \"#utility.yul\":30560:30664   */\n      tag_430\n      jump\t// in\n    tag_745:\n        /* \"#utility.yul\":30551:30664   */\n      swap1\n      pop\n        /* \"#utility.yul\":30390:30671   */\n      swap3\n      swap2\n      pop\n      pop\n      jump\t// out\n        /* \"#utility.yul\":30677:30857   */\n    tag_323:\n        /* \"#utility.yul\":30725:30802   */\n      0x4e487b7100000000000000000000000000000000000000000000000000000000\n        /* \"#utility.yul\":30722:30723   */\n      0x00\n        /* \"#utility.yul\":30715:30803   */\n      mstore\n        /* \"#utility.yul\":30822:30826   */\n      0x12\n        /* \"#utility.yul\":30819:30820   */\n      0x04\n        /* \"#utility.yul\":30812:30827   */\n      mstore\n        /* \"#utility.yul\":30846:30850   */\n      0x24\n        /* \"#utility.yul\":30843:30844   */\n      0x00\n        /* \"#utility.yul\":30836:30851   */\n      revert\n        /* \"#utility.yul\":30863:31048   */\n    tag_291:\n        /* \"#utility.yul\":30903:30904   */\n      0x00\n        /* \"#utility.yul\":30920:30940   */\n      tag_748\n        /* \"#utility.yul\":30938:30939   */\n      dup3\n        /* \"#utility.yul\":30920:30940   */\n      tag_367\n      jump\t// in\n    tag_748:\n        /* \"#utility.yul\":30915:30940   */\n      swap2\n      pop\n        /* \"#utility.yul\":30954:30974   */\n      tag_749\n        /* \"#utility.yul\":30972:30973   */\n      dup4\n        /* \"#utility.yul\":30954:30974   */\n      tag_367\n      jump\t// in\n    tag_749:\n        /* \"#utility.yul\":30949:30974   */\n      swap3\n      pop\n        /* \"#utility.yul\":30993:30994   */\n      dup3\n        /* \"#utility.yul\":30983:31018   */\n      tag_750\n      jumpi\n        /* \"#utility.yul\":30998:31016   */\n      tag_751\n      tag_323\n      jump\t// in\n    tag_751:\n        /* \"#utility.yul\":30983:31018   */\n    tag_750:\n        /* \"#utility.yul\":31040:31041   */\n      dup3\n        /* \"#utility.yul\":31037:31038   */\n      dup3\n        /* \"#utility.yul\":31033:31042   */\n      div\n        /* \"#utility.yul\":31028:31042   */\n      swap1\n      pop\n        /* \"#utility.yul\":30863:31048   */\n      swap3\n      swap2\n      pop\n      pop\n      jump\t// out\n\n    auxdata: 0xa2646970667358221220c447b272f0e42fbfa59f230f93aad40f66f25527742bce3880d08c2dd410563b64736f6c63430008180033\n}\n",
				"bytecode": {
					"linkReferences": {},
					"object": "60c060405234801562000010575f80fd5b506040516200452938038062004529833981810160405281019062000036919062000312565b6040518060400160405280600781526020017f50616e646f7261000000000000000000000000000000000000000000000000008152506040518060400160405280600781526020017f50414e444f524100000000000000000000000000000000000000000000000000815250601261271084805f73ffffffffffffffffffffffffffffffffffffffff168173ffffffffffffffffffffffffffffffffffffffff16036200010f576040517f49e27cff00000000000000000000000000000000000000000000000000000000815260040160405180910390fd5b805f806101000a81548173ffffffffffffffffffffffffffffffffffffffff021916908373ffffffffffffffffffffffffffffffffffffffff1602179055508073ffffffffffffffffffffffffffffffffffffffff165f73ffffffffffffffffffffffffffffffffffffffff167f8be0079c531659141344cd1fd0a4f28419497f9722a3daafe3b4186f6b6457e060405160405180910390a3508460019081620001ba9190620005a6565b508360029081620001cc9190620005a6565b508260ff1660808160ff1681525050608051600a620001ec919062000813565b82620001f9919062000863565b60a0818152505050505050506001600b5f8373ffffffffffffffffffffffffffffffffffffffff1673ffffffffffffffffffffffffffffffffffffffff1681526020019081526020015f205f6101000a81548160ff02191690831515021790555069021e19e0c9bab240000060045f8373ffffffffffffffffffffffffffffffffffffffff1673ffffffffffffffffffffffffffffffffffffffff1681526020019081526020015f208190555050620008ad565b5f80fd5b5f73ffffffffffffffffffffffffffffffffffffffff82169050919050565b5f620002dc82620002b1565b9050919050565b620002ee81620002d0565b8114620002f9575f80fd5b50565b5f815190506200030c81620002e3565b92915050565b5f602082840312156200032a5762000329620002ad565b5b5f6200033984828501620002fc565b91505092915050565b5f81519050919050565b7f4e487b71000000000000000000000000000000000000000000000000000000005f52604160045260245ffd5b7f4e487b71000000000000000000000000000000000000000000000000000000005f52602260045260245ffd5b5f6002820490506001821680620003be57607f821691505b602082108103620003d457620003d362000379565b5b50919050565b5f819050815f5260205f209050919050565b5f6020601f8301049050919050565b5f82821b905092915050565b5f60088302620004387fffffffffffffffffffffffffffffffffffffffffffffffffffffffffffffffff82620003fb565b620004448683620003fb565b95508019841693508086168417925050509392505050565b5f819050919050565b5f819050919050565b5f6200048e6200048862000482846200045c565b62000465565b6200045c565b9050919050565b5f819050919050565b620004a9836200046e565b620004c1620004b88262000495565b84845462000407565b825550505050565b5f90565b620004d7620004c9565b620004e48184846200049e565b505050565b5b818110156200050b57620004ff5f82620004cd565b600181019050620004ea565b5050565b601f8211156200055a576200052481620003da565b6200052f84620003ec565b810160208510156200053f578190505b620005576200054e85620003ec565b830182620004e9565b50505b505050565b5f82821c905092915050565b5f6200057c5f19846008026200055f565b1980831691505092915050565b5f6200059683836200056b565b9150826002028217905092915050565b620005b18262000342565b67ffffffffffffffff811115620005cd57620005cc6200034c565b5b620005d98254620003a6565b620005e68282856200050f565b5f60209050601f8311600181146200061c575f841562000607578287015190505b62000613858262000589565b86555062000682565b601f1984166200062c86620003da565b5f5b8281101562000655578489015182556001820191506020850194506020810190506200062e565b8683101562000675578489015162000671601f8916826200056b565b8355505b6001600288020188555050505b505050505050565b7f4e487b71000000000000000000000000000000000000000000000000000000005f52601160045260245ffd5b5f8160011c9050919050565b5f808291508390505b60018511156200071457808604811115620006ec57620006eb6200068a565b5b6001851615620006fc5780820291505b80810290506200070c85620006b7565b9450620006cc565b94509492505050565b5f826200072e576001905062000800565b816200073d575f905062000800565b8160018114620007565760028114620007615762000797565b600191505062000800565b60ff8411156200077657620007756200068a565b5b8360020a91508482111562000790576200078f6200068a565b5b5062000800565b5060208310610133831016604e8410600b8410161715620007d15782820a905083811115620007cb57620007ca6200068a565b5b62000800565b620007e08484846001620006c3565b92509050818404811115620007fa57620007f96200068a565b5b81810290505b9392505050565b5f60ff82169050919050565b5f6200081f826200045c565b91506200082c8362000807565b92506200085b7fffffffffffffffffffffffffffffffffffffffffffffffffffffffffffffffff84846200071d565b905092915050565b5f6200086f826200045c565b91506200087c836200045c565b92508282026200088c816200045c565b91508282048414831517620008a657620008a56200068a565b5b5092915050565b60805160a051613c53620008d65f395f6108f601525f81816112c701526121200152613c535ff3fe608060405234801561000f575f80fd5b50600436106101a7575f3560e01c806370a08231116100f7578063c87b56dd11610095578063e0df5b6f1161006f578063e0df5b6f146104cb578063e985e9c5146104e7578063f28ca1dd14610517578063f2fde38b14610535576101a7565b8063c87b56dd1461044d578063d547cfb71461047d578063dd62ed3e1461049b576101a7565b80639b19251a116100d15780639b19251a146103b5578063a22cb465146103e5578063a9059cbb14610401578063b88d4fde14610431576101a7565b806370a08231146103495780638da5cb5b1461037957806395d89b4114610397576101a7565b80632b968958116101645780634f02c4201161013e5780634f02c420146102c3578063504334c2146102e157806353d6fd59146102fd5780636352211e14610319576101a7565b80632b9689581461027f578063313ce5671461028957806342842e0e146102a7576101a7565b806306fdde03146101ab578063081812fc146101c9578063095ea7b3146101f957806318160ddd1461022957806318d217c31461024757806323b872dd14610263575b5f80fd5b6101b3610551565b6040516101c09190612c24565b60405180910390f35b6101e360048036038101906101de9190612c88565b6105dd565b6040516101f09190612cf2565b60405180910390f35b610213600480360381019061020e9190612d35565b61060d565b6040516102209190612d8d565b60405180910390f35b6102316108f4565b60405161023e9190612db5565b60405180910390f35b610261600480360381019061025c9190612efa565b610918565b005b61027d60048036038101906102789190612f41565b6109af565b005b6102876111a6565b005b6102916112c5565b60405161029e9190612fac565b60405180910390f35b6102c160048036038101906102bc9190612f41565b6112e9565b005b6102cb611418565b6040516102d89190612db5565b60405180910390f35b6102fb60048036038101906102f69190612fc5565b61141e565b005b61031760048036038101906103129190613065565b6114b0565b005b610333600480360381019061032e9190612c88565b61158c565b6040516103409190612cf2565b60405180910390f35b610363600480360381019061035e91906130a3565b61162a565b6040516103709190612db5565b60405180910390f35b61038161163f565b60405161038e9190612cf2565b60405180910390f35b61039f611662565b6040516103ac9190612c24565b60405180910390f35b6103cf60048036038101906103ca91906130a3565b6116ee565b6040516103dc9190612d8d565b60405180910390f35b6103ff60048036038101906103fa9190613065565b61170b565b005b61041b60048036038101906104169190612d35565b611803565b6040516104289190612d8d565b60405180910390f35b61044b6004803603810190610446919061312b565b611817565b005b61046760048036038101906104629190612c88565b61194c565b6040516104749190612c24565b60405180910390f35b610485611d9f565b6040516104929190612c24565b60405180910390f35b6104b560048036038101906104b091906131af565b611e2b565b6040516104c29190612db5565b60405180910390f35b6104e560048036038101906104e09190612efa565b611e4b565b005b61050160048036038101906104fc91906131af565b611ee2565b60405161050e9190612d8d565b60405180910390f35b61051f611f0c565b60405161052c9190612c24565b60405180910390f35b61054f600480360381019061054a91906130a3565b611f98565b005b6001805461055e9061321a565b80601f016020809104026020016040519081016040528092919081815260200182805461058a9061321a565b80156105d55780601f106105ac576101008083540402835291602001916105d5565b820191905f5260205f20905b8154815290600101906020018083116105b857829003601f168201915b505050505081565b6006602052805f5260405f205f915054906101000a900473ffffffffffffffffffffffffffffffffffffffff1681565b5f600354821115801561061f57505f82115b15610807575f60085f8481526020019081526020015f205f9054906101000a900473ffffffffffffffffffffffffffffffffffffffff1690508073ffffffffffffffffffffffffffffffffffffffff163373ffffffffffffffffffffffffffffffffffffffff1614158015610716575060075f8273ffffffffffffffffffffffffffffffffffffffff1673ffffffffffffffffffffffffffffffffffffffff1681526020019081526020015f205f3373ffffffffffffffffffffffffffffffffffffffff1673ffffffffffffffffffffffffffffffffffffffff1681526020019081526020015f205f9054906101000a900460ff16155b1561074d576040517f82b4290000000000000000000000000000000000000000000000000000000000815260040160405180910390fd5b8360065f8581526020019081526020015f205f6101000a81548173ffffffffffffffffffffffffffffffffffffffff021916908373ffffffffffffffffffffffffffffffffffffffff1602179055508373ffffffffffffffffffffffffffffffffffffffff168173ffffffffffffffffffffffffffffffffffffffff167f8c5be1e5ebec7d5bd14f71427d1e84f3dd0314c0f7b2291e5b200ac8c7c3b925856040516107f99190612db5565b60405180910390a3506108ea565b8160055f3373ffffffffffffffffffffffffffffffffffffffff1673ffffffffffffffffffffffffffffffffffffffff1681526020019081526020015f205f8573ffffffffffffffffffffffffffffffffffffffff1673ffffffffffffffffffffffffffffffffffffffff1681526020019081526020015f20819055508273ffffffffffffffffffffffffffffffffffffffff163373ffffffffffffffffffffffffffffffffffffffff167f8c5be1e5ebec7d5bd14f71427d1e84f3dd0314c0f7b2291e5b200ac8c7c3b925846040516108e19190612db5565b60405180910390a35b6001905092915050565b7f000000000000000000000000000000000000000000000000000000000000000081565b5f8054906101000a900473ffffffffffffffffffffffffffffffffffffffff1673ffffffffffffffffffffffffffffffffffffffff163373ffffffffffffffffffffffffffffffffffffffff161461099c576040517f82b4290000000000000000000000000000000000000000000000000000000000815260040160405180910390fd5b80600c90816109ab91906133e7565b5050565b60035481116110675760085f8281526020019081526020015f205f9054906101000a900473ffffffffffffffffffffffffffffffffffffffff1673ffffffffffffffffffffffffffffffffffffffff168373ffffffffffffffffffffffffffffffffffffffff1614610a4d576040517fddb5de5e00000000000000000000000000000000000000000000000000000000815260040160405180910390fd5b5f73ffffffffffffffffffffffffffffffffffffffff168273ffffffffffffffffffffffffffffffffffffffff1603610ab2576040517f9c8d2cd200000000000000000000000000000000000000000000000000000000815260040160405180910390fd5b8273ffffffffffffffffffffffffffffffffffffffff163373ffffffffffffffffffffffffffffffffffffffff1614158015610b70575060075f8473ffffffffffffffffffffffffffffffffffffffff1673ffffffffffffffffffffffffffffffffffffffff1681526020019081526020015f205f3373ffffffffffffffffffffffffffffffffffffffff1673ffffffffffffffffffffffffffffffffffffffff1681526020019081526020015f205f9054906101000a900460ff16155b8015610bd8575060065f8281526020019081526020015f205f9054906101000a900473ffffffffffffffffffffffffffffffffffffffff1673ffffffffffffffffffffffffffffffffffffffff163373ffffffffffffffffffffffffffffffffffffffff1614155b15610c0f576040517f82b4290000000000000000000000000000000000000000000000000000000000815260040160405180910390fd5b610c1761211d565b60045f8573ffffffffffffffffffffffffffffffffffffffff1673ffffffffffffffffffffffffffffffffffffffff1681526020019081526020015f205f828254610c6291906134e3565b92505081905550610c7161211d565b60045f8473ffffffffffffffffffffffffffffffffffffffff1673ffffffffffffffffffffffffffffffffffffffff1681526020019081526020015f205f82825401925050819055508160085f8381526020019081526020015f205f6101000a81548173ffffffffffffffffffffffffffffffffffffffff021916908373ffffffffffffffffffffffffffffffffffffffff16021790555060065f8281526020019081526020015f205f6101000a81549073ffffffffffffffffffffffffffffffffffffffff02191690555f60095f8573ffffffffffffffffffffffffffffffffffffffff1673ffffffffffffffffffffffffffffffffffffffff1681526020019081526020015f20600160095f8773ffffffffffffffffffffffffffffffffffffffff1673ffffffffffffffffffffffffffffffffffffffff1681526020019081526020015f2080549050610dc791906134e3565b81548110610dd857610dd7613516565b5b905f5260205f20015490508060095f8673ffffffffffffffffffffffffffffffffffffffff1673ffffffffffffffffffffffffffffffffffffffff1681526020019081526020015f20600a5f8581526020019081526020015f205481548110610e4457610e43613516565b5b905f5260205f20018190555060095f8573ffffffffffffffffffffffffffffffffffffffff1673ffffffffffffffffffffffffffffffffffffffff1681526020019081526020015f20805480610e9d57610e9c613543565b5b600190038181905f5260205f20015f90559055600a5f8381526020019081526020015f2054600a5f8381526020019081526020015f208190555060095f8473ffffffffffffffffffffffffffffffffffffffff1673ffffffffffffffffffffffffffffffffffffffff1681526020019081526020015f2082908060018154018082558091505060019003905f5260205f20015f9091909190915055600160095f8573ffffffffffffffffffffffffffffffffffffffff1673ffffffffffffffffffffffffffffffffffffffff1681526020019081526020015f2080549050610f8591906134e3565b600a5f8481526020019081526020015f2081905550818373ffffffffffffffffffffffffffffffffffffffff168573ffffffffffffffffffffffffffffffffffffffff167fddf252ad1be2c89b69c2b068fc378daa952ba7f163c4a11628f55a4df523b3ef60405160405180910390a48273ffffffffffffffffffffffffffffffffffffffff168473ffffffffffffffffffffffffffffffffffffffff167fe59fdd36d0d223c0c7d996db7ad796880f45e1936cb0bb7ac102e7082e03148761104c61211d565b6040516110599190612db5565b60405180910390a3506111a1565b5f60055f8573ffffffffffffffffffffffffffffffffffffffff1673ffffffffffffffffffffffffffffffffffffffff1681526020019081526020015f205f3373ffffffffffffffffffffffffffffffffffffffff1673ffffffffffffffffffffffffffffffffffffffff1681526020019081526020015f205490507fffffffffffffffffffffffffffffffffffffffffffffffffffffffffffffffff811461119357818161111691906134e3565b60055f8673ffffffffffffffffffffffffffffffffffffffff1673ffffffffffffffffffffffffffffffffffffffff1681526020019081526020015f205f3373ffffffffffffffffffffffffffffffffffffffff1673ffffffffffffffffffffffffffffffffffffffff1681526020019081526020015f20819055505b61119e848484612150565b50505b505050565b5f8054906101000a900473ffffffffffffffffffffffffffffffffffffffff1673ffffffffffffffffffffffffffffffffffffffff163373ffffffffffffffffffffffffffffffffffffffff161461122a576040517f82b4290000000000000000000000000000000000000000000000000000000000815260040160405180910390fd5b5f805f6101000a81548173ffffffffffffffffffffffffffffffffffffffff021916908373ffffffffffffffffffffffffffffffffffffffff1602179055505f73ffffffffffffffffffffffffffffffffffffffff163373ffffffffffffffffffffffffffffffffffffffff167f8be0079c531659141344cd1fd0a4f28419497f9722a3daafe3b4186f6b6457e060405160405180910390a3565b7f000000000000000000000000000000000000000000000000000000000000000081565b6112f48383836109af565b5f8273ffffffffffffffffffffffffffffffffffffffff163b141580156113dc575063150b7a0260e01b7bffffffffffffffffffffffffffffffffffffffffffffffffffffffff19168273ffffffffffffffffffffffffffffffffffffffff1663150b7a023386856040518463ffffffff1660e01b815260040161137a939291906135a3565b6020604051808303815f875af1158015611396573d5f803e3d5ffd5b505050506040513d601f19601f820116820180604052508101906113ba9190613640565b7bffffffffffffffffffffffffffffffffffffffffffffffffffffffff191614155b15611413576040517f3da6393100000000000000000000000000000000000000000000000000000000815260040160405180910390fd5b505050565b60035481565b5f8054906101000a900473ffffffffffffffffffffffffffffffffffffffff1673ffffffffffffffffffffffffffffffffffffffff163373ffffffffffffffffffffffffffffffffffffffff16146114a2576040517f82b4290000000000000000000000000000000000000000000000000000000000815260040160405180910390fd5b6114ac8282612494565b5050565b5f8054906101000a900473ffffffffffffffffffffffffffffffffffffffff1673ffffffffffffffffffffffffffffffffffffffff163373ffffffffffffffffffffffffffffffffffffffff1614611534576040517f82b4290000000000000000000000000000000000000000000000000000000000815260040160405180910390fd5b80600b5f8473ffffffffffffffffffffffffffffffffffffffff1673ffffffffffffffffffffffffffffffffffffffff1681526020019081526020015f205f6101000a81548160ff0219169083151502179055505050565b5f60085f8381526020019081526020015f205f9054906101000a900473ffffffffffffffffffffffffffffffffffffffff1690505f73ffffffffffffffffffffffffffffffffffffffff168173ffffffffffffffffffffffffffffffffffffffff1603611625576040517fc5723b5100000000000000000000000000000000000000000000000000000000815260040160405180910390fd5b919050565b6004602052805f5260405f205f915090505481565b5f8054906101000a900473ffffffffffffffffffffffffffffffffffffffff1681565b6002805461166f9061321a565b80601f016020809104026020016040519081016040528092919081815260200182805461169b9061321a565b80156116e65780601f106116bd576101008083540402835291602001916116e6565b820191905f5260205f20905b8154815290600101906020018083116116c957829003601f168201915b505050505081565b600b602052805f5260405f205f915054906101000a900460ff1681565b8060075f3373ffffffffffffffffffffffffffffffffffffffff1673ffffffffffffffffffffffffffffffffffffffff1681526020019081526020015f205f8473ffffffffffffffffffffffffffffffffffffffff1673ffffffffffffffffffffffffffffffffffffffff1681526020019081526020015f205f6101000a81548160ff0219169083151502179055508173ffffffffffffffffffffffffffffffffffffffff163373ffffffffffffffffffffffffffffffffffffffff167f17307eab39ab6107e8899845ad3d59bd9653f200f220920489ca2b5937696c31836040516117f79190612d8d565b60405180910390a35050565b5f61180f338484612150565b905092915050565b6118228585856109af565b5f8473ffffffffffffffffffffffffffffffffffffffff163b1415801561190e575063150b7a0260e01b7bffffffffffffffffffffffffffffffffffffffffffffffffffffffff19168473ffffffffffffffffffffffffffffffffffffffff1663150b7a0233888787876040518663ffffffff1660e01b81526004016118ac959493929190613697565b6020604051808303815f875af11580156118c8573d5f803e3d5ffd5b505050506040513d601f19601f820116820180604052508101906118ec9190613640565b7bffffffffffffffffffffffffffffffffffffffffffffffffffffffff191614155b15611945576040517f3da6393100000000000000000000000000000000000000000000000000000000815260040160405180910390fd5b5050505050565b60605f600d805461195c9061321a565b9050111561199657600d61196f836124b8565b60405160200161198092919061379d565b6040516020818303038152906040529050611d9a565b5f826040516020016119a891906137e0565b6040516020818303038152906040528051906020012060f81c905060608060648360ff1611611a46576040518060400160405280600581526020017f312e67696600000000000000000000000000000000000000000000000000000081525091506040518060400160405280600581526020017f477265656e0000000000000000000000000000000000000000000000000000008152509050611c46565b60a08360ff1611611ac6576040518060400160405280600581526020017f322e67696600000000000000000000000000000000000000000000000000000081525091506040518060400160405280600481526020017f426c7565000000000000000000000000000000000000000000000000000000008152509050611c45565b60d28360ff1611611b46576040518060400160405280600581526020017f332e67696600000000000000000000000000000000000000000000000000000081525091506040518060400160405280600681526020017f507572706c6500000000000000000000000000000000000000000000000000008152509050611c44565b60f08360ff1611611bc6576040518060400160405280600581526020017f342e67696600000000000000000000000000000000000000000000000000000081525091506040518060400160405280600681526020017f4f72616e676500000000000000000000000000000000000000000000000000008152509050611c43565b60ff8360ff1611611c42576040518060400160405280600581526020017f352e67696600000000000000000000000000000000000000000000000000000081525091506040518060400160405280600381526020017f526564000000000000000000000000000000000000000000000000000000000081525090505b5b5b5b5b5f611c50866124b8565b604051602001611c609190613820565b604051602081830303815290604052604051602001611c7f9190613927565b604051602081830303815290604052600c84604051602001611ca292919061379d565b604051602081830303815290604052604051602001611cc2929190613948565b60405160208183030381529060405290505f82604051602001611ce591906139db565b60405160208183030381529060405290505f6040518060400160405280600481526020017f227d5d7d0000000000000000000000000000000000000000000000000000000081525090508282604051602001611d42929190613948565b60405160208183030381529060405281604051602001611d63929190613948565b604051602081830303815290604052604051602001611d829190613a22565b60405160208183030381529060405296505050505050505b919050565b600d8054611dac9061321a565b80601f0160208091040260200160405190810160405280929190818152602001828054611dd89061321a565b8015611e235780601f10611dfa57610100808354040283529160200191611e23565b820191905f5260205f20905b815481529060010190602001808311611e0657829003601f168201915b505050505081565b6005602052815f5260405f20602052805f5260405f205f91509150505481565b5f8054906101000a900473ffffffffffffffffffffffffffffffffffffffff1673ffffffffffffffffffffffffffffffffffffffff163373ffffffffffffffffffffffffffffffffffffffff1614611ecf576040517f82b4290000000000000000000000000000000000000000000000000000000000815260040160405180910390fd5b80600d9081611ede91906133e7565b5050565b6007602052815f5260405f20602052805f5260405f205f915091509054906101000a900460ff1681565b600c8054611f199061321a565b80601f0160208091040260200160405190810160405280929190818152602001828054611f459061321a565b8015611f905780601f10611f6757610100808354040283529160200191611f90565b820191905f5260205f20905b815481529060010190602001808311611f7357829003601f168201915b505050505081565b5f8054906101000a900473ffffffffffffffffffffffffffffffffffffffff1673ffffffffffffffffffffffffffffffffffffffff163373ffffffffffffffffffffffffffffffffffffffff161461201c576040517f82b4290000000000000000000000000000000000000000000000000000000000815260040160405180910390fd5b5f73ffffffffffffffffffffffffffffffffffffffff168173ffffffffffffffffffffffffffffffffffffffff1603612081576040517f49e27cff00000000000000000000000000000000000000000000000000000000815260040160405180910390fd5b805f806101000a81548173ffffffffffffffffffffffffffffffffffffffff021916908373ffffffffffffffffffffffffffffffffffffffff1602179055508073ffffffffffffffffffffffffffffffffffffffff163373ffffffffffffffffffffffffffffffffffffffff167f8be0079c531659141344cd1fd0a4f28419497f9722a3daafe3b4186f6b6457e060405160405180910390a350565b5f7f0000000000000000000000000000000000000000000000000000000000000000600a61214b9190613b76565b905090565b5f8061215a61211d565b90505f60045f8773ffffffffffffffffffffffffffffffffffffffff1673ffffffffffffffffffffffffffffffffffffffff1681526020019081526020015f205490505f60045f8773ffffffffffffffffffffffffffffffffffffffff1673ffffffffffffffffffffffffffffffffffffffff1681526020019081526020015f205490508460045f8973ffffffffffffffffffffffffffffffffffffffff1673ffffffffffffffffffffffffffffffffffffffff1681526020019081526020015f205f82825461222a91906134e3565b925050819055508460045f8873ffffffffffffffffffffffffffffffffffffffff1673ffffffffffffffffffffffffffffffffffffffff1681526020019081526020015f205f8282540192505081905550600b5f8873ffffffffffffffffffffffffffffffffffffffff1673ffffffffffffffffffffffffffffffffffffffff1681526020019081526020015f205f9054906101000a900460ff1661234e575f8360045f8a73ffffffffffffffffffffffffffffffffffffffff1673ffffffffffffffffffffffffffffffffffffffff1681526020019081526020015f20546123139190613bed565b848461231f9190613bed565b61232991906134e3565b90505f5b8181101561234b5761233e89612582565b808060010191505061232d565b50505b600b5f8773ffffffffffffffffffffffffffffffffffffffff1673ffffffffffffffffffffffffffffffffffffffff1681526020019081526020015f205f9054906101000a900460ff16612421575f83826123a99190613bed565b8460045f8a73ffffffffffffffffffffffffffffffffffffffff1673ffffffffffffffffffffffffffffffffffffffff1681526020019081526020015f20546123f29190613bed565b6123fc91906134e3565b90505f5b8181101561241e57612411886127c7565b8080600101915050612400565b50505b8573ffffffffffffffffffffffffffffffffffffffff168773ffffffffffffffffffffffffffffffffffffffff167fe59fdd36d0d223c0c7d996db7ad796880f45e1936cb0bb7ac102e7082e0314878760405161247e9190612db5565b60405180910390a3600193505050509392505050565b81600190816124a391906133e7565b5080600290816124b391906133e7565b505050565b60605f60016124c684612a49565b0190505f8167ffffffffffffffff8111156124e4576124e3612dd6565b5b6040519080825280601f01601f1916602001820160405280156125165781602001600182028036833780820191505090505b5090505f82602001820190505b600115612577578080600190039150507f3031323334353637383961626364656600000000000000000000000000000000600a86061a8153600a858161256c5761256b613bc0565b5b0494505f8503612523575b819350505050919050565b5f73ffffffffffffffffffffffffffffffffffffffff168173ffffffffffffffffffffffffffffffffffffffff16036125e7576040517fddb5de5e00000000000000000000000000000000000000000000000000000000815260040160405180910390fd5b5f60095f8373ffffffffffffffffffffffffffffffffffffffff1673ffffffffffffffffffffffffffffffffffffffff1681526020019081526020015f20600160095f8573ffffffffffffffffffffffffffffffffffffffff1673ffffffffffffffffffffffffffffffffffffffff1681526020019081526020015f208054905061267291906134e3565b8154811061268357612682613516565b5b905f5260205f200154905060095f8373ffffffffffffffffffffffffffffffffffffffff1673ffffffffffffffffffffffffffffffffffffffff1681526020019081526020015f208054806126db576126da613543565b5b600190038181905f5260205f20015f90559055600a5f8281526020019081526020015f205f905560085f8281526020019081526020015f205f6101000a81549073ffffffffffffffffffffffffffffffffffffffff021916905560065f8281526020019081526020015f205f6101000a81549073ffffffffffffffffffffffffffffffffffffffff0219169055805f73ffffffffffffffffffffffffffffffffffffffff168373ffffffffffffffffffffffffffffffffffffffff167fddf252ad1be2c89b69c2b068fc378daa952ba7f163c4a11628f55a4df523b3ef60405160405180910390a45050565b5f73ffffffffffffffffffffffffffffffffffffffff168173ffffffffffffffffffffffffffffffffffffffff160361282c576040517f9c8d2cd200000000000000000000000000000000000000000000000000000000815260040160405180910390fd5b60035f81548092919060010191905055505f60035490505f73ffffffffffffffffffffffffffffffffffffffff1660085f8381526020019081526020015f205f9054906101000a900473ffffffffffffffffffffffffffffffffffffffff1673ffffffffffffffffffffffffffffffffffffffff16146128d8576040517f23369fa600000000000000000000000000000000000000000000000000000000815260040160405180910390fd5b8160085f8381526020019081526020015f205f6101000a81548173ffffffffffffffffffffffffffffffffffffffff021916908373ffffffffffffffffffffffffffffffffffffffff16021790555060095f8373ffffffffffffffffffffffffffffffffffffffff1673ffffffffffffffffffffffffffffffffffffffff1681526020019081526020015f2081908060018154018082558091505060019003905f5260205f20015f9091909190915055600160095f8473ffffffffffffffffffffffffffffffffffffffff1673ffffffffffffffffffffffffffffffffffffffff1681526020019081526020015f20805490506129d591906134e3565b600a5f8381526020019081526020015f2081905550808273ffffffffffffffffffffffffffffffffffffffff165f73ffffffffffffffffffffffffffffffffffffffff167fddf252ad1be2c89b69c2b068fc378daa952ba7f163c4a11628f55a4df523b3ef60405160405180910390a45050565b5f805f90507a184f03e93ff9f4daa797ed6e38ed64bf6a1f0100000000000000008310612aa5577a184f03e93ff9f4daa797ed6e38ed64bf6a1f0100000000000000008381612a9b57612a9a613bc0565b5b0492506040810190505b6d04ee2d6d415b85acef81000000008310612ae2576d04ee2d6d415b85acef81000000008381612ad857612ad7613bc0565b5b0492506020810190505b662386f26fc100008310612b1157662386f26fc100008381612b0757612b06613bc0565b5b0492506010810190505b6305f5e1008310612b3a576305f5e1008381612b3057612b2f613bc0565b5b0492506008810190505b6127108310612b5f576127108381612b5557612b54613bc0565b5b0492506004810190505b60648310612b825760648381612b7857612b77613bc0565b5b0492506002810190505b600a8310612b91576001810190505b80915050919050565b5f81519050919050565b5f82825260208201905092915050565b5f5b83811015612bd1578082015181840152602081019050612bb6565b5f8484015250505050565b5f601f19601f8301169050919050565b5f612bf682612b9a565b612c008185612ba4565b9350612c10818560208601612bb4565b612c1981612bdc565b840191505092915050565b5f6020820190508181035f830152612c3c8184612bec565b905092915050565b5f604051905090565b5f80fd5b5f80fd5b5f819050919050565b612c6781612c55565b8114612c71575f80fd5b50565b5f81359050612c8281612c5e565b92915050565b5f60208284031215612c9d57612c9c612c4d565b5b5f612caa84828501612c74565b91505092915050565b5f73ffffffffffffffffffffffffffffffffffffffff82169050919050565b5f612cdc82612cb3565b9050919050565b612cec81612cd2565b82525050565b5f602082019050612d055f830184612ce3565b92915050565b612d1481612cd2565b8114612d1e575f80fd5b50565b5f81359050612d2f81612d0b565b92915050565b5f8060408385031215612d4b57612d4a612c4d565b5b5f612d5885828601612d21565b9250506020612d6985828601612c74565b9150509250929050565b5f8115159050919050565b612d8781612d73565b82525050565b5f602082019050612da05f830184612d7e565b92915050565b612daf81612c55565b82525050565b5f602082019050612dc85f830184612da6565b92915050565b5f80fd5b5f80fd5b7f4e487b71000000000000000000000000000000000000000000000000000000005f52604160045260245ffd5b612e0c82612bdc565b810181811067ffffffffffffffff82111715612e2b57612e2a612dd6565b5b80604052505050565b5f612e3d612c44565b9050612e498282612e03565b919050565b5f67ffffffffffffffff821115612e6857612e67612dd6565b5b612e7182612bdc565b9050602081019050919050565b828183375f83830152505050565b5f612e9e612e9984612e4e565b612e34565b905082815260208101848484011115612eba57612eb9612dd2565b5b612ec5848285612e7e565b509392505050565b5f82601f830112612ee157612ee0612dce565b5b8135612ef1848260208601612e8c565b91505092915050565b5f60208284031215612f0f57612f0e612c4d565b5b5f82013567ffffffffffffffff811115612f2c57612f2b612c51565b5b612f3884828501612ecd565b91505092915050565b5f805f60608486031215612f5857612f57612c4d565b5b5f612f6586828701612d21565b9350506020612f7686828701612d21565b9250506040612f8786828701612c74565b9150509250925092565b5f60ff82169050919050565b612fa681612f91565b82525050565b5f602082019050612fbf5f830184612f9d565b92915050565b5f8060408385031215612fdb57612fda612c4d565b5b5f83013567ffffffffffffffff811115612ff857612ff7612c51565b5b61300485828601612ecd565b925050602083013567ffffffffffffffff81111561302557613024612c51565b5b61303185828601612ecd565b9150509250929050565b61304481612d73565b811461304e575f80fd5b50565b5f8135905061305f8161303b565b92915050565b5f806040838503121561307b5761307a612c4d565b5b5f61308885828601612d21565b925050602061309985828601613051565b9150509250929050565b5f602082840312156130b8576130b7612c4d565b5b5f6130c584828501612d21565b91505092915050565b5f80fd5b5f80fd5b5f8083601f8401126130eb576130ea612dce565b5b8235905067ffffffffffffffff811115613108576131076130ce565b5b602083019150836001820283011115613124576131236130d2565b5b9250929050565b5f805f805f6080868803121561314457613143612c4d565b5b5f61315188828901612d21565b955050602061316288828901612d21565b945050604061317388828901612c74565b935050606086013567ffffffffffffffff81111561319457613193612c51565b5b6131a0888289016130d6565b92509250509295509295909350565b5f80604083850312156131c5576131c4612c4d565b5b5f6131d285828601612d21565b92505060206131e385828601612d21565b9150509250929050565b7f4e487b71000000000000000000000000000000000000000000000000000000005f52602260045260245ffd5b5f600282049050600182168061323157607f821691505b602082108103613244576132436131ed565b5b50919050565b5f819050815f5260205f209050919050565b5f6020601f8301049050919050565b5f82821b905092915050565b5f600883026132a67fffffffffffffffffffffffffffffffffffffffffffffffffffffffffffffffff8261326b565b6132b0868361326b565b95508019841693508086168417925050509392505050565b5f819050919050565b5f6132eb6132e66132e184612c55565b6132c8565b612c55565b9050919050565b5f819050919050565b613304836132d1565b613318613310826132f2565b848454613277565b825550505050565b5f90565b61332c613320565b6133378184846132fb565b505050565b5b8181101561335a5761334f5f82613324565b60018101905061333d565b5050565b601f82111561339f576133708161324a565b6133798461325c565b81016020851015613388578190505b61339c6133948561325c565b83018261333c565b50505b505050565b5f82821c905092915050565b5f6133bf5f19846008026133a4565b1980831691505092915050565b5f6133d783836133b0565b9150826002028217905092915050565b6133f082612b9a565b67ffffffffffffffff81111561340957613408612dd6565b5b613413825461321a565b61341e82828561335e565b5f60209050601f83116001811461344f575f841561343d578287015190505b61344785826133cc565b8655506134ae565b601f19841661345d8661324a565b5f5b828110156134845784890151825560018201915060208501945060208101905061345f565b868310156134a1578489015161349d601f8916826133b0565b8355505b6001600288020188555050505b505050505050565b7f4e487b71000000000000000000000000000000000000000000000000000000005f52601160045260245ffd5b5f6134ed82612c55565b91506134f883612c55565b92508282039050818111156135105761350f6134b6565b5b92915050565b7f4e487b71000000000000000000000000000000000000000000000000000000005f52603260045260245ffd5b7f4e487b71000000000000000000000000000000000000000000000000000000005f52603160045260245ffd5b5f82825260208201905092915050565b50565b5f61358e5f83613570565b915061359982613580565b5f82019050919050565b5f6080820190506135b65f830186612ce3565b6135c36020830185612ce3565b6135d06040830184612da6565b81810360608301526135e181613583565b9050949350505050565b5f7fffffffff0000000000000000000000000000000000000000000000000000000082169050919050565b61361f816135eb565b8114613629575f80fd5b50565b5f8151905061363a81613616565b92915050565b5f6020828403121561365557613654612c4d565b5b5f6136628482850161362c565b91505092915050565b5f6136768385613570565b9350613683838584612e7e565b61368c83612bdc565b840190509392505050565b5f6080820190506136aa5f830188612ce3565b6136b76020830187612ce3565b6136c46040830186612da6565b81810360608301526136d781848661366b565b90509695505050505050565b5f81905092915050565b5f81546136f98161321a565b61370381866136e3565b9450600182165f811461371d576001811461373257613764565b60ff1983168652811515820286019350613764565b61373b8561324a565b5f5b8381101561375c5781548189015260018201915060208101905061373d565b838801955050505b50505092915050565b5f61377782612b9a565b61378181856136e3565b9350613791818560208601612bb4565b80840191505092915050565b5f6137a882856136ed565b91506137b4828461376d565b91508190509392505050565b5f819050919050565b6137da6137d582612c55565b6137c0565b82525050565b5f6137eb82846137c9565b60208201915081905092915050565b7f7b226e616d65223a202250616e646f7261202300000000000000000000000000815250565b5f61382a826137fa565b60138201915061383a828461376d565b915081905092915050565b7f222c226465736372697074696f6e223a224120636f6c6c656374696f6e206f665f8201527f2031302c303030205265706c6963616e747320656e61626c656420627920455260208201527f433430342c20616e206578706572696d656e74616c20746f6b656e207374616e60408201527f646172642e222c2265787465726e616c5f75726c223a2268747470733a2f2f7060608201527f616e646f72612e6275696c64222c22696d616765223a22000000000000000000608082015250565b5f6139116097836136e3565b915061391c82613845565b609782019050919050565b5f613932828461376d565b915061393d82613905565b915081905092915050565b5f613953828561376d565b915061395f828461376d565b91508190509392505050565b7f222c2261747472696275746573223a5b7b2274726169745f74797065223a22435f8201527f6f6c6f72222c2276616c7565223a220000000000000000000000000000000000602082015250565b5f6139c5602f836136e3565b91506139d08261396b565b602f82019050919050565b5f6139e5826139b9565b91506139f1828461376d565b915081905092915050565b7f646174613a6170706c69636174696f6e2f6a736f6e3b757466382c0000000000815250565b5f613a2c826139fc565b601b82019150613a3c828461376d565b915081905092915050565b5f8160011c9050919050565b5f808291508390505b6001851115613a9c57808604811115613a7857613a776134b6565b5b6001851615613a875780820291505b8081029050613a9585613a47565b9450613a5c565b94509492505050565b5f82613ab45760019050613b6f565b81613ac1575f9050613b6f565b8160018114613ad75760028114613ae157613b10565b6001915050613b6f565b60ff841115613af357613af26134b6565b5b8360020a915084821115613b0a57613b096134b6565b5b50613b6f565b5060208310610133831016604e8410600b8410161715613b455782820a905083811115613b4057613b3f6134b6565b5b613b6f565b613b528484846001613a53565b92509050818404811115613b6957613b686134b6565b5b81810290505b9392505050565b5f613b8082612c55565b9150613b8b83612f91565b9250613bb87fffffffffffffffffffffffffffffffffffffffffffffffffffffffffffffffff8484613aa5565b905092915050565b7f4e487b71000000000000000000000000000000000000000000000000000000005f52601260045260245ffd5b5f613bf782612c55565b9150613c0283612c55565b925082613c1257613c11613bc0565b5b82820490509291505056fea2646970667358221220c447b272f0e42fbfa59f230f93aad40f66f25527742bce3880d08c2dd410563b64736f6c63430008180033",
					"opcodes": "PUSH1 0xC0 PUSH1 0x40 MSTORE CALLVALUE DUP1 ISZERO PUSH3 0x10 JUMPI PUSH0 DUP1 REVERT JUMPDEST POP PUSH1 0x40 MLOAD PUSH3 0x4529 CODESIZE SUB DUP1 PUSH3 0x4529 DUP4 CODECOPY DUP2 DUP2 ADD PUSH1 0x40 MSTORE DUP2 ADD SWAP1 PUSH3 0x36 SWAP2 SWAP1 PUSH3 0x312 JUMP JUMPDEST PUSH1 0x40 MLOAD DUP1 PUSH1 0x40 ADD PUSH1 0x40 MSTORE DUP1 PUSH1 0x7 DUP2 MSTORE PUSH1 0x20 ADD PUSH32 0x50616E646F726100000000000000000000000000000000000000000000000000 DUP2 MSTORE POP PUSH1 0x40 MLOAD DUP1 PUSH1 0x40 ADD PUSH1 0x40 MSTORE DUP1 PUSH1 0x7 DUP2 MSTORE PUSH1 0x20 ADD PUSH32 0x50414E444F524100000000000000000000000000000000000000000000000000 DUP2 MSTORE POP PUSH1 0x12 PUSH2 0x2710 DUP5 DUP1 PUSH0 PUSH20 0xFFFFFFFFFFFFFFFFFFFFFFFFFFFFFFFFFFFFFFFF AND DUP2 PUSH20 0xFFFFFFFFFFFFFFFFFFFFFFFFFFFFFFFFFFFFFFFF AND SUB PUSH3 0x10F JUMPI PUSH1 0x40 MLOAD PUSH32 0x49E27CFF00000000000000000000000000000000000000000000000000000000 DUP2 MSTORE PUSH1 0x4 ADD PUSH1 0x40 MLOAD DUP1 SWAP2 SUB SWAP1 REVERT JUMPDEST DUP1 PUSH0 DUP1 PUSH2 0x100 EXP DUP2 SLOAD DUP2 PUSH20 0xFFFFFFFFFFFFFFFFFFFFFFFFFFFFFFFFFFFFFFFF MUL NOT AND SWAP1 DUP4 PUSH20 0xFFFFFFFFFFFFFFFFFFFFFFFFFFFFFFFFFFFFFFFF AND MUL OR SWAP1 SSTORE POP DUP1 PUSH20 0xFFFFFFFFFFFFFFFFFFFFFFFFFFFFFFFFFFFFFFFF AND PUSH0 PUSH20 0xFFFFFFFFFFFFFFFFFFFFFFFFFFFFFFFFFFFFFFFF AND PUSH32 0x8BE0079C531659141344CD1FD0A4F28419497F9722A3DAAFE3B4186F6B6457E0 PUSH1 0x40 MLOAD PUSH1 0x40 MLOAD DUP1 SWAP2 SUB SWAP1 LOG3 POP DUP5 PUSH1 0x1 SWAP1 DUP2 PUSH3 0x1BA SWAP2 SWAP1 PUSH3 0x5A6 JUMP JUMPDEST POP DUP4 PUSH1 0x2 SWAP1 DUP2 PUSH3 0x1CC SWAP2 SWAP1 PUSH3 0x5A6 JUMP JUMPDEST POP DUP3 PUSH1 0xFF AND PUSH1 0x80 DUP2 PUSH1 0xFF AND DUP2 MSTORE POP POP PUSH1 0x80 MLOAD PUSH1 0xA PUSH3 0x1EC SWAP2 SWAP1 PUSH3 0x813 JUMP JUMPDEST DUP3 PUSH3 0x1F9 SWAP2 SWAP1 PUSH3 0x863 JUMP JUMPDEST PUSH1 0xA0 DUP2 DUP2 MSTORE POP POP POP POP POP POP POP PUSH1 0x1 PUSH1 0xB PUSH0 DUP4 PUSH20 0xFFFFFFFFFFFFFFFFFFFFFFFFFFFFFFFFFFFFFFFF AND PUSH20 0xFFFFFFFFFFFFFFFFFFFFFFFFFFFFFFFFFFFFFFFF AND DUP2 MSTORE PUSH1 0x20 ADD SWAP1 DUP2 MSTORE PUSH1 0x20 ADD PUSH0 KECCAK256 PUSH0 PUSH2 0x100 EXP DUP2 SLOAD DUP2 PUSH1 0xFF MUL NOT AND SWAP1 DUP4 ISZERO ISZERO MUL OR SWAP1 SSTORE POP PUSH10 0x21E19E0C9BAB2400000 PUSH1 0x4 PUSH0 DUP4 PUSH20 0xFFFFFFFFFFFFFFFFFFFFFFFFFFFFFFFFFFFFFFFF AND PUSH20 0xFFFFFFFFFFFFFFFFFFFFFFFFFFFFFFFFFFFFFFFF AND DUP2 MSTORE PUSH1 0x20 ADD SWAP1 DUP2 MSTORE PUSH1 0x20 ADD PUSH0 KECCAK256 DUP2 SWAP1 SSTORE POP POP PUSH3 0x8AD JUMP JUMPDEST PUSH0 DUP1 REVERT JUMPDEST PUSH0 PUSH20 0xFFFFFFFFFFFFFFFFFFFFFFFFFFFFFFFFFFFFFFFF DUP3 AND SWAP1 POP SWAP2 SWAP1 POP JUMP JUMPDEST PUSH0 PUSH3 0x2DC DUP3 PUSH3 0x2B1 JUMP JUMPDEST SWAP1 POP SWAP2 SWAP1 POP JUMP JUMPDEST PUSH3 0x2EE DUP2 PUSH3 0x2D0 JUMP JUMPDEST DUP2 EQ PUSH3 0x2F9 JUMPI PUSH0 DUP1 REVERT JUMPDEST POP JUMP JUMPDEST PUSH0 DUP2 MLOAD SWAP1 POP PUSH3 0x30C DUP2 PUSH3 0x2E3 JUMP JUMPDEST SWAP3 SWAP2 POP POP JUMP JUMPDEST PUSH0 PUSH1 0x20 DUP3 DUP5 SUB SLT ISZERO PUSH3 0x32A JUMPI PUSH3 0x329 PUSH3 0x2AD JUMP JUMPDEST JUMPDEST PUSH0 PUSH3 0x339 DUP5 DUP3 DUP6 ADD PUSH3 0x2FC JUMP JUMPDEST SWAP2 POP POP SWAP3 SWAP2 POP POP JUMP JUMPDEST PUSH0 DUP2 MLOAD SWAP1 POP SWAP2 SWAP1 POP JUMP JUMPDEST PUSH32 0x4E487B7100000000000000000000000000000000000000000000000000000000 PUSH0 MSTORE PUSH1 0x41 PUSH1 0x4 MSTORE PUSH1 0x24 PUSH0 REVERT JUMPDEST PUSH32 0x4E487B7100000000000000000000000000000000000000000000000000000000 PUSH0 MSTORE PUSH1 0x22 PUSH1 0x4 MSTORE PUSH1 0x24 PUSH0 REVERT JUMPDEST PUSH0 PUSH1 0x2 DUP3 DIV SWAP1 POP PUSH1 0x1 DUP3 AND DUP1 PUSH3 0x3BE JUMPI PUSH1 0x7F DUP3 AND SWAP2 POP JUMPDEST PUSH1 0x20 DUP3 LT DUP2 SUB PUSH3 0x3D4 JUMPI PUSH3 0x3D3 PUSH3 0x379 JUMP JUMPDEST JUMPDEST POP SWAP2 SWAP1 POP JUMP JUMPDEST PUSH0 DUP2 SWAP1 POP DUP2 PUSH0 MSTORE PUSH1 0x20 PUSH0 KECCAK256 SWAP1 POP SWAP2 SWAP1 POP JUMP JUMPDEST PUSH0 PUSH1 0x20 PUSH1 0x1F DUP4 ADD DIV SWAP1 POP SWAP2 SWAP1 POP JUMP JUMPDEST PUSH0 DUP3 DUP3 SHL SWAP1 POP SWAP3 SWAP2 POP POP JUMP JUMPDEST PUSH0 PUSH1 0x8 DUP4 MUL PUSH3 0x438 PUSH32 0xFFFFFFFFFFFFFFFFFFFFFFFFFFFFFFFFFFFFFFFFFFFFFFFFFFFFFFFFFFFFFFFF DUP3 PUSH3 0x3FB JUMP JUMPDEST PUSH3 0x444 DUP7 DUP4 PUSH3 0x3FB JUMP JUMPDEST SWAP6 POP DUP1 NOT DUP5 AND SWAP4 POP DUP1 DUP7 AND DUP5 OR SWAP3 POP POP POP SWAP4 SWAP3 POP POP POP JUMP JUMPDEST PUSH0 DUP2 SWAP1 POP SWAP2 SWAP1 POP JUMP JUMPDEST PUSH0 DUP2 SWAP1 POP SWAP2 SWAP1 POP JUMP JUMPDEST PUSH0 PUSH3 0x48E PUSH3 0x488 PUSH3 0x482 DUP5 PUSH3 0x45C JUMP JUMPDEST PUSH3 0x465 JUMP JUMPDEST PUSH3 0x45C JUMP JUMPDEST SWAP1 POP SWAP2 SWAP1 POP JUMP JUMPDEST PUSH0 DUP2 SWAP1 POP SWAP2 SWAP1 POP JUMP JUMPDEST PUSH3 0x4A9 DUP4 PUSH3 0x46E JUMP JUMPDEST PUSH3 0x4C1 PUSH3 0x4B8 DUP3 PUSH3 0x495 JUMP JUMPDEST DUP5 DUP5 SLOAD PUSH3 0x407 JUMP JUMPDEST DUP3 SSTORE POP POP POP POP JUMP JUMPDEST PUSH0 SWAP1 JUMP JUMPDEST PUSH3 0x4D7 PUSH3 0x4C9 JUMP JUMPDEST PUSH3 0x4E4 DUP2 DUP5 DUP5 PUSH3 0x49E JUMP JUMPDEST POP POP POP JUMP JUMPDEST JUMPDEST DUP2 DUP2 LT ISZERO PUSH3 0x50B JUMPI PUSH3 0x4FF PUSH0 DUP3 PUSH3 0x4CD JUMP JUMPDEST PUSH1 0x1 DUP2 ADD SWAP1 POP PUSH3 0x4EA JUMP JUMPDEST POP POP JUMP JUMPDEST PUSH1 0x1F DUP3 GT ISZERO PUSH3 0x55A JUMPI PUSH3 0x524 DUP2 PUSH3 0x3DA JUMP JUMPDEST PUSH3 0x52F DUP5 PUSH3 0x3EC JUMP JUMPDEST DUP2 ADD PUSH1 0x20 DUP6 LT ISZERO PUSH3 0x53F JUMPI DUP2 SWAP1 POP JUMPDEST PUSH3 0x557 PUSH3 0x54E DUP6 PUSH3 0x3EC JUMP JUMPDEST DUP4 ADD DUP3 PUSH3 0x4E9 JUMP JUMPDEST POP POP JUMPDEST POP POP POP JUMP JUMPDEST PUSH0 DUP3 DUP3 SHR SWAP1 POP SWAP3 SWAP2 POP POP JUMP JUMPDEST PUSH0 PUSH3 0x57C PUSH0 NOT DUP5 PUSH1 0x8 MUL PUSH3 0x55F JUMP JUMPDEST NOT DUP1 DUP4 AND SWAP2 POP POP SWAP3 SWAP2 POP POP JUMP JUMPDEST PUSH0 PUSH3 0x596 DUP4 DUP4 PUSH3 0x56B JUMP JUMPDEST SWAP2 POP DUP3 PUSH1 0x2 MUL DUP3 OR SWAP1 POP SWAP3 SWAP2 POP POP JUMP JUMPDEST PUSH3 0x5B1 DUP3 PUSH3 0x342 JUMP JUMPDEST PUSH8 0xFFFFFFFFFFFFFFFF DUP2 GT ISZERO PUSH3 0x5CD JUMPI PUSH3 0x5CC PUSH3 0x34C JUMP JUMPDEST JUMPDEST PUSH3 0x5D9 DUP3 SLOAD PUSH3 0x3A6 JUMP JUMPDEST PUSH3 0x5E6 DUP3 DUP3 DUP6 PUSH3 0x50F JUMP JUMPDEST PUSH0 PUSH1 0x20 SWAP1 POP PUSH1 0x1F DUP4 GT PUSH1 0x1 DUP2 EQ PUSH3 0x61C JUMPI PUSH0 DUP5 ISZERO PUSH3 0x607 JUMPI DUP3 DUP8 ADD MLOAD SWAP1 POP JUMPDEST PUSH3 0x613 DUP6 DUP3 PUSH3 0x589 JUMP JUMPDEST DUP7 SSTORE POP PUSH3 0x682 JUMP JUMPDEST PUSH1 0x1F NOT DUP5 AND PUSH3 0x62C DUP7 PUSH3 0x3DA JUMP JUMPDEST PUSH0 JUMPDEST DUP3 DUP2 LT ISZERO PUSH3 0x655 JUMPI DUP5 DUP10 ADD MLOAD DUP3 SSTORE PUSH1 0x1 DUP3 ADD SWAP2 POP PUSH1 0x20 DUP6 ADD SWAP5 POP PUSH1 0x20 DUP2 ADD SWAP1 POP PUSH3 0x62E JUMP JUMPDEST DUP7 DUP4 LT ISZERO PUSH3 0x675 JUMPI DUP5 DUP10 ADD MLOAD PUSH3 0x671 PUSH1 0x1F DUP10 AND DUP3 PUSH3 0x56B JUMP JUMPDEST DUP4 SSTORE POP JUMPDEST PUSH1 0x1 PUSH1 0x2 DUP9 MUL ADD DUP9 SSTORE POP POP POP JUMPDEST POP POP POP POP POP POP JUMP JUMPDEST PUSH32 0x4E487B7100000000000000000000000000000000000000000000000000000000 PUSH0 MSTORE PUSH1 0x11 PUSH1 0x4 MSTORE PUSH1 0x24 PUSH0 REVERT JUMPDEST PUSH0 DUP2 PUSH1 0x1 SHR SWAP1 POP SWAP2 SWAP1 POP JUMP JUMPDEST PUSH0 DUP1 DUP3 SWAP2 POP DUP4 SWAP1 POP JUMPDEST PUSH1 0x1 DUP6 GT ISZERO PUSH3 0x714 JUMPI DUP1 DUP7 DIV DUP2 GT ISZERO PUSH3 0x6EC JUMPI PUSH3 0x6EB PUSH3 0x68A JUMP JUMPDEST JUMPDEST PUSH1 0x1 DUP6 AND ISZERO PUSH3 0x6FC JUMPI DUP1 DUP3 MUL SWAP2 POP JUMPDEST DUP1 DUP2 MUL SWAP1 POP PUSH3 0x70C DUP6 PUSH3 0x6B7 JUMP JUMPDEST SWAP5 POP PUSH3 0x6CC JUMP JUMPDEST SWAP5 POP SWAP5 SWAP3 POP POP POP JUMP JUMPDEST PUSH0 DUP3 PUSH3 0x72E JUMPI PUSH1 0x1 SWAP1 POP PUSH3 0x800 JUMP JUMPDEST DUP2 PUSH3 0x73D JUMPI PUSH0 SWAP1 POP PUSH3 0x800 JUMP JUMPDEST DUP2 PUSH1 0x1 DUP2 EQ PUSH3 0x756 JUMPI PUSH1 0x2 DUP2 EQ PUSH3 0x761 JUMPI PUSH3 0x797 JUMP JUMPDEST PUSH1 0x1 SWAP2 POP POP PUSH3 0x800 JUMP JUMPDEST PUSH1 0xFF DUP5 GT ISZERO PUSH3 0x776 JUMPI PUSH3 0x775 PUSH3 0x68A JUMP JUMPDEST JUMPDEST DUP4 PUSH1 0x2 EXP SWAP2 POP DUP5 DUP3 GT ISZERO PUSH3 0x790 JUMPI PUSH3 0x78F PUSH3 0x68A JUMP JUMPDEST JUMPDEST POP PUSH3 0x800 JUMP JUMPDEST POP PUSH1 0x20 DUP4 LT PUSH2 0x133 DUP4 LT AND PUSH1 0x4E DUP5 LT PUSH1 0xB DUP5 LT AND OR ISZERO PUSH3 0x7D1 JUMPI DUP3 DUP3 EXP SWAP1 POP DUP4 DUP2 GT ISZERO PUSH3 0x7CB JUMPI PUSH3 0x7CA PUSH3 0x68A JUMP JUMPDEST JUMPDEST PUSH3 0x800 JUMP JUMPDEST PUSH3 0x7E0 DUP5 DUP5 DUP5 PUSH1 0x1 PUSH3 0x6C3 JUMP JUMPDEST SWAP3 POP SWAP1 POP DUP2 DUP5 DIV DUP2 GT ISZERO PUSH3 0x7FA JUMPI PUSH3 0x7F9 PUSH3 0x68A JUMP JUMPDEST JUMPDEST DUP2 DUP2 MUL SWAP1 POP JUMPDEST SWAP4 SWAP3 POP POP POP JUMP JUMPDEST PUSH0 PUSH1 0xFF DUP3 AND SWAP1 POP SWAP2 SWAP1 POP JUMP JUMPDEST PUSH0 PUSH3 0x81F DUP3 PUSH3 0x45C JUMP JUMPDEST SWAP2 POP PUSH3 0x82C DUP4 PUSH3 0x807 JUMP JUMPDEST SWAP3 POP PUSH3 0x85B PUSH32 0xFFFFFFFFFFFFFFFFFFFFFFFFFFFFFFFFFFFFFFFFFFFFFFFFFFFFFFFFFFFFFFFF DUP5 DUP5 PUSH3 0x71D JUMP JUMPDEST SWAP1 POP SWAP3 SWAP2 POP POP JUMP JUMPDEST PUSH0 PUSH3 0x86F DUP3 PUSH3 0x45C JUMP JUMPDEST SWAP2 POP PUSH3 0x87C DUP4 PUSH3 0x45C JUMP JUMPDEST SWAP3 POP DUP3 DUP3 MUL PUSH3 0x88C DUP2 PUSH3 0x45C JUMP JUMPDEST SWAP2 POP DUP3 DUP3 DIV DUP5 EQ DUP4 ISZERO OR PUSH3 0x8A6 JUMPI PUSH3 0x8A5 PUSH3 0x68A JUMP JUMPDEST JUMPDEST POP SWAP3 SWAP2 POP POP JUMP JUMPDEST PUSH1 0x80 MLOAD PUSH1 0xA0 MLOAD PUSH2 0x3C53 PUSH3 0x8D6 PUSH0 CODECOPY PUSH0 PUSH2 0x8F6 ADD MSTORE PUSH0 DUP2 DUP2 PUSH2 0x12C7 ADD MSTORE PUSH2 0x2120 ADD MSTORE PUSH2 0x3C53 PUSH0 RETURN INVALID PUSH1 0x80 PUSH1 0x40 MSTORE CALLVALUE DUP1 ISZERO PUSH2 0xF JUMPI PUSH0 DUP1 REVERT JUMPDEST POP PUSH1 0x4 CALLDATASIZE LT PUSH2 0x1A7 JUMPI PUSH0 CALLDATALOAD PUSH1 0xE0 SHR DUP1 PUSH4 0x70A08231 GT PUSH2 0xF7 JUMPI DUP1 PUSH4 0xC87B56DD GT PUSH2 0x95 JUMPI DUP1 PUSH4 0xE0DF5B6F GT PUSH2 0x6F JUMPI DUP1 PUSH4 0xE0DF5B6F EQ PUSH2 0x4CB JUMPI DUP1 PUSH4 0xE985E9C5 EQ PUSH2 0x4E7 JUMPI DUP1 PUSH4 0xF28CA1DD EQ PUSH2 0x517 JUMPI DUP1 PUSH4 0xF2FDE38B EQ PUSH2 0x535 JUMPI PUSH2 0x1A7 JUMP JUMPDEST DUP1 PUSH4 0xC87B56DD EQ PUSH2 0x44D JUMPI DUP1 PUSH4 0xD547CFB7 EQ PUSH2 0x47D JUMPI DUP1 PUSH4 0xDD62ED3E EQ PUSH2 0x49B JUMPI PUSH2 0x1A7 JUMP JUMPDEST DUP1 PUSH4 0x9B19251A GT PUSH2 0xD1 JUMPI DUP1 PUSH4 0x9B19251A EQ PUSH2 0x3B5 JUMPI DUP1 PUSH4 0xA22CB465 EQ PUSH2 0x3E5 JUMPI DUP1 PUSH4 0xA9059CBB EQ PUSH2 0x401 JUMPI DUP1 PUSH4 0xB88D4FDE EQ PUSH2 0x431 JUMPI PUSH2 0x1A7 JUMP JUMPDEST DUP1 PUSH4 0x70A08231 EQ PUSH2 0x349 JUMPI DUP1 PUSH4 0x8DA5CB5B EQ PUSH2 0x379 JUMPI DUP1 PUSH4 0x95D89B41 EQ PUSH2 0x397 JUMPI PUSH2 0x1A7 JUMP JUMPDEST DUP1 PUSH4 0x2B968958 GT PUSH2 0x164 JUMPI DUP1 PUSH4 0x4F02C420 GT PUSH2 0x13E JUMPI DUP1 PUSH4 0x4F02C420 EQ PUSH2 0x2C3 JUMPI DUP1 PUSH4 0x504334C2 EQ PUSH2 0x2E1 JUMPI DUP1 PUSH4 0x53D6FD59 EQ PUSH2 0x2FD JUMPI DUP1 PUSH4 0x6352211E EQ PUSH2 0x319 JUMPI PUSH2 0x1A7 JUMP JUMPDEST DUP1 PUSH4 0x2B968958 EQ PUSH2 0x27F JUMPI DUP1 PUSH4 0x313CE567 EQ PUSH2 0x289 JUMPI DUP1 PUSH4 0x42842E0E EQ PUSH2 0x2A7 JUMPI PUSH2 0x1A7 JUMP JUMPDEST DUP1 PUSH4 0x6FDDE03 EQ PUSH2 0x1AB JUMPI DUP1 PUSH4 0x81812FC EQ PUSH2 0x1C9 JUMPI DUP1 PUSH4 0x95EA7B3 EQ PUSH2 0x1F9 JUMPI DUP1 PUSH4 0x18160DDD EQ PUSH2 0x229 JUMPI DUP1 PUSH4 0x18D217C3 EQ PUSH2 0x247 JUMPI DUP1 PUSH4 0x23B872DD EQ PUSH2 0x263 JUMPI JUMPDEST PUSH0 DUP1 REVERT JUMPDEST PUSH2 0x1B3 PUSH2 0x551 JUMP JUMPDEST PUSH1 0x40 MLOAD PUSH2 0x1C0 SWAP2 SWAP1 PUSH2 0x2C24 JUMP JUMPDEST PUSH1 0x40 MLOAD DUP1 SWAP2 SUB SWAP1 RETURN JUMPDEST PUSH2 0x1E3 PUSH1 0x4 DUP1 CALLDATASIZE SUB DUP2 ADD SWAP1 PUSH2 0x1DE SWAP2 SWAP1 PUSH2 0x2C88 JUMP JUMPDEST PUSH2 0x5DD JUMP JUMPDEST PUSH1 0x40 MLOAD PUSH2 0x1F0 SWAP2 SWAP1 PUSH2 0x2CF2 JUMP JUMPDEST PUSH1 0x40 MLOAD DUP1 SWAP2 SUB SWAP1 RETURN JUMPDEST PUSH2 0x213 PUSH1 0x4 DUP1 CALLDATASIZE SUB DUP2 ADD SWAP1 PUSH2 0x20E SWAP2 SWAP1 PUSH2 0x2D35 JUMP JUMPDEST PUSH2 0x60D JUMP JUMPDEST PUSH1 0x40 MLOAD PUSH2 0x220 SWAP2 SWAP1 PUSH2 0x2D8D JUMP JUMPDEST PUSH1 0x40 MLOAD DUP1 SWAP2 SUB SWAP1 RETURN JUMPDEST PUSH2 0x231 PUSH2 0x8F4 JUMP JUMPDEST PUSH1 0x40 MLOAD PUSH2 0x23E SWAP2 SWAP1 PUSH2 0x2DB5 JUMP JUMPDEST PUSH1 0x40 MLOAD DUP1 SWAP2 SUB SWAP1 RETURN JUMPDEST PUSH2 0x261 PUSH1 0x4 DUP1 CALLDATASIZE SUB DUP2 ADD SWAP1 PUSH2 0x25C SWAP2 SWAP1 PUSH2 0x2EFA JUMP JUMPDEST PUSH2 0x918 JUMP JUMPDEST STOP JUMPDEST PUSH2 0x27D PUSH1 0x4 DUP1 CALLDATASIZE SUB DUP2 ADD SWAP1 PUSH2 0x278 SWAP2 SWAP1 PUSH2 0x2F41 JUMP JUMPDEST PUSH2 0x9AF JUMP JUMPDEST STOP JUMPDEST PUSH2 0x287 PUSH2 0x11A6 JUMP JUMPDEST STOP JUMPDEST PUSH2 0x291 PUSH2 0x12C5 JUMP JUMPDEST PUSH1 0x40 MLOAD PUSH2 0x29E SWAP2 SWAP1 PUSH2 0x2FAC JUMP JUMPDEST PUSH1 0x40 MLOAD DUP1 SWAP2 SUB SWAP1 RETURN JUMPDEST PUSH2 0x2C1 PUSH1 0x4 DUP1 CALLDATASIZE SUB DUP2 ADD SWAP1 PUSH2 0x2BC SWAP2 SWAP1 PUSH2 0x2F41 JUMP JUMPDEST PUSH2 0x12E9 JUMP JUMPDEST STOP JUMPDEST PUSH2 0x2CB PUSH2 0x1418 JUMP JUMPDEST PUSH1 0x40 MLOAD PUSH2 0x2D8 SWAP2 SWAP1 PUSH2 0x2DB5 JUMP JUMPDEST PUSH1 0x40 MLOAD DUP1 SWAP2 SUB SWAP1 RETURN JUMPDEST PUSH2 0x2FB PUSH1 0x4 DUP1 CALLDATASIZE SUB DUP2 ADD SWAP1 PUSH2 0x2F6 SWAP2 SWAP1 PUSH2 0x2FC5 JUMP JUMPDEST PUSH2 0x141E JUMP JUMPDEST STOP JUMPDEST PUSH2 0x317 PUSH1 0x4 DUP1 CALLDATASIZE SUB DUP2 ADD SWAP1 PUSH2 0x312 SWAP2 SWAP1 PUSH2 0x3065 JUMP JUMPDEST PUSH2 0x14B0 JUMP JUMPDEST STOP JUMPDEST PUSH2 0x333 PUSH1 0x4 DUP1 CALLDATASIZE SUB DUP2 ADD SWAP1 PUSH2 0x32E SWAP2 SWAP1 PUSH2 0x2C88 JUMP JUMPDEST PUSH2 0x158C JUMP JUMPDEST PUSH1 0x40 MLOAD PUSH2 0x340 SWAP2 SWAP1 PUSH2 0x2CF2 JUMP JUMPDEST PUSH1 0x40 MLOAD DUP1 SWAP2 SUB SWAP1 RETURN JUMPDEST PUSH2 0x363 PUSH1 0x4 DUP1 CALLDATASIZE SUB DUP2 ADD SWAP1 PUSH2 0x35E SWAP2 SWAP1 PUSH2 0x30A3 JUMP JUMPDEST PUSH2 0x162A JUMP JUMPDEST PUSH1 0x40 MLOAD PUSH2 0x370 SWAP2 SWAP1 PUSH2 0x2DB5 JUMP JUMPDEST PUSH1 0x40 MLOAD DUP1 SWAP2 SUB SWAP1 RETURN JUMPDEST PUSH2 0x381 PUSH2 0x163F JUMP JUMPDEST PUSH1 0x40 MLOAD PUSH2 0x38E SWAP2 SWAP1 PUSH2 0x2CF2 JUMP JUMPDEST PUSH1 0x40 MLOAD DUP1 SWAP2 SUB SWAP1 RETURN JUMPDEST PUSH2 0x39F PUSH2 0x1662 JUMP JUMPDEST PUSH1 0x40 MLOAD PUSH2 0x3AC SWAP2 SWAP1 PUSH2 0x2C24 JUMP JUMPDEST PUSH1 0x40 MLOAD DUP1 SWAP2 SUB SWAP1 RETURN JUMPDEST PUSH2 0x3CF PUSH1 0x4 DUP1 CALLDATASIZE SUB DUP2 ADD SWAP1 PUSH2 0x3CA SWAP2 SWAP1 PUSH2 0x30A3 JUMP JUMPDEST PUSH2 0x16EE JUMP JUMPDEST PUSH1 0x40 MLOAD PUSH2 0x3DC SWAP2 SWAP1 PUSH2 0x2D8D JUMP JUMPDEST PUSH1 0x40 MLOAD DUP1 SWAP2 SUB SWAP1 RETURN JUMPDEST PUSH2 0x3FF PUSH1 0x4 DUP1 CALLDATASIZE SUB DUP2 ADD SWAP1 PUSH2 0x3FA SWAP2 SWAP1 PUSH2 0x3065 JUMP JUMPDEST PUSH2 0x170B JUMP JUMPDEST STOP JUMPDEST PUSH2 0x41B PUSH1 0x4 DUP1 CALLDATASIZE SUB DUP2 ADD SWAP1 PUSH2 0x416 SWAP2 SWAP1 PUSH2 0x2D35 JUMP JUMPDEST PUSH2 0x1803 JUMP JUMPDEST PUSH1 0x40 MLOAD PUSH2 0x428 SWAP2 SWAP1 PUSH2 0x2D8D JUMP JUMPDEST PUSH1 0x40 MLOAD DUP1 SWAP2 SUB SWAP1 RETURN JUMPDEST PUSH2 0x44B PUSH1 0x4 DUP1 CALLDATASIZE SUB DUP2 ADD SWAP1 PUSH2 0x446 SWAP2 SWAP1 PUSH2 0x312B JUMP JUMPDEST PUSH2 0x1817 JUMP JUMPDEST STOP JUMPDEST PUSH2 0x467 PUSH1 0x4 DUP1 CALLDATASIZE SUB DUP2 ADD SWAP1 PUSH2 0x462 SWAP2 SWAP1 PUSH2 0x2C88 JUMP JUMPDEST PUSH2 0x194C JUMP JUMPDEST PUSH1 0x40 MLOAD PUSH2 0x474 SWAP2 SWAP1 PUSH2 0x2C24 JUMP JUMPDEST PUSH1 0x40 MLOAD DUP1 SWAP2 SUB SWAP1 RETURN JUMPDEST PUSH2 0x485 PUSH2 0x1D9F JUMP JUMPDEST PUSH1 0x40 MLOAD PUSH2 0x492 SWAP2 SWAP1 PUSH2 0x2C24 JUMP JUMPDEST PUSH1 0x40 MLOAD DUP1 SWAP2 SUB SWAP1 RETURN JUMPDEST PUSH2 0x4B5 PUSH1 0x4 DUP1 CALLDATASIZE SUB DUP2 ADD SWAP1 PUSH2 0x4B0 SWAP2 SWAP1 PUSH2 0x31AF JUMP JUMPDEST PUSH2 0x1E2B JUMP JUMPDEST PUSH1 0x40 MLOAD PUSH2 0x4C2 SWAP2 SWAP1 PUSH2 0x2DB5 JUMP JUMPDEST PUSH1 0x40 MLOAD DUP1 SWAP2 SUB SWAP1 RETURN JUMPDEST PUSH2 0x4E5 PUSH1 0x4 DUP1 CALLDATASIZE SUB DUP2 ADD SWAP1 PUSH2 0x4E0 SWAP2 SWAP1 PUSH2 0x2EFA JUMP JUMPDEST PUSH2 0x1E4B JUMP JUMPDEST STOP JUMPDEST PUSH2 0x501 PUSH1 0x4 DUP1 CALLDATASIZE SUB DUP2 ADD SWAP1 PUSH2 0x4FC SWAP2 SWAP1 PUSH2 0x31AF JUMP JUMPDEST PUSH2 0x1EE2 JUMP JUMPDEST PUSH1 0x40 MLOAD PUSH2 0x50E SWAP2 SWAP1 PUSH2 0x2D8D JUMP JUMPDEST PUSH1 0x40 MLOAD DUP1 SWAP2 SUB SWAP1 RETURN JUMPDEST PUSH2 0x51F PUSH2 0x1F0C JUMP JUMPDEST PUSH1 0x40 MLOAD PUSH2 0x52C SWAP2 SWAP1 PUSH2 0x2C24 JUMP JUMPDEST PUSH1 0x40 MLOAD DUP1 SWAP2 SUB SWAP1 RETURN JUMPDEST PUSH2 0x54F PUSH1 0x4 DUP1 CALLDATASIZE SUB DUP2 ADD SWAP1 PUSH2 0x54A SWAP2 SWAP1 PUSH2 0x30A3 JUMP JUMPDEST PUSH2 0x1F98 JUMP JUMPDEST STOP JUMPDEST PUSH1 0x1 DUP1 SLOAD PUSH2 0x55E SWAP1 PUSH2 0x321A JUMP JUMPDEST DUP1 PUSH1 0x1F ADD PUSH1 0x20 DUP1 SWAP2 DIV MUL PUSH1 0x20 ADD PUSH1 0x40 MLOAD SWAP1 DUP2 ADD PUSH1 0x40 MSTORE DUP1 SWAP3 SWAP2 SWAP1 DUP2 DUP2 MSTORE PUSH1 0x20 ADD DUP3 DUP1 SLOAD PUSH2 0x58A SWAP1 PUSH2 0x321A JUMP JUMPDEST DUP1 ISZERO PUSH2 0x5D5 JUMPI DUP1 PUSH1 0x1F LT PUSH2 0x5AC JUMPI PUSH2 0x100 DUP1 DUP4 SLOAD DIV MUL DUP4 MSTORE SWAP2 PUSH1 0x20 ADD SWAP2 PUSH2 0x5D5 JUMP JUMPDEST DUP3 ADD SWAP2 SWAP1 PUSH0 MSTORE PUSH1 0x20 PUSH0 KECCAK256 SWAP1 JUMPDEST DUP2 SLOAD DUP2 MSTORE SWAP1 PUSH1 0x1 ADD SWAP1 PUSH1 0x20 ADD DUP1 DUP4 GT PUSH2 0x5B8 JUMPI DUP3 SWAP1 SUB PUSH1 0x1F AND DUP3 ADD SWAP2 JUMPDEST POP POP POP POP POP DUP2 JUMP JUMPDEST PUSH1 0x6 PUSH1 0x20 MSTORE DUP1 PUSH0 MSTORE PUSH1 0x40 PUSH0 KECCAK256 PUSH0 SWAP2 POP SLOAD SWAP1 PUSH2 0x100 EXP SWAP1 DIV PUSH20 0xFFFFFFFFFFFFFFFFFFFFFFFFFFFFFFFFFFFFFFFF AND DUP2 JUMP JUMPDEST PUSH0 PUSH1 0x3 SLOAD DUP3 GT ISZERO DUP1 ISZERO PUSH2 0x61F JUMPI POP PUSH0 DUP3 GT JUMPDEST ISZERO PUSH2 0x807 JUMPI PUSH0 PUSH1 0x8 PUSH0 DUP5 DUP2 MSTORE PUSH1 0x20 ADD SWAP1 DUP2 MSTORE PUSH1 0x20 ADD PUSH0 KECCAK256 PUSH0 SWAP1 SLOAD SWAP1 PUSH2 0x100 EXP SWAP1 DIV PUSH20 0xFFFFFFFFFFFFFFFFFFFFFFFFFFFFFFFFFFFFFFFF AND SWAP1 POP DUP1 PUSH20 0xFFFFFFFFFFFFFFFFFFFFFFFFFFFFFFFFFFFFFFFF AND CALLER PUSH20 0xFFFFFFFFFFFFFFFFFFFFFFFFFFFFFFFFFFFFFFFF AND EQ ISZERO DUP1 ISZERO PUSH2 0x716 JUMPI POP PUSH1 0x7 PUSH0 DUP3 PUSH20 0xFFFFFFFFFFFFFFFFFFFFFFFFFFFFFFFFFFFFFFFF AND PUSH20 0xFFFFFFFFFFFFFFFFFFFFFFFFFFFFFFFFFFFFFFFF AND DUP2 MSTORE PUSH1 0x20 ADD SWAP1 DUP2 MSTORE PUSH1 0x20 ADD PUSH0 KECCAK256 PUSH0 CALLER PUSH20 0xFFFFFFFFFFFFFFFFFFFFFFFFFFFFFFFFFFFFFFFF AND PUSH20 0xFFFFFFFFFFFFFFFFFFFFFFFFFFFFFFFFFFFFFFFF AND DUP2 MSTORE PUSH1 0x20 ADD SWAP1 DUP2 MSTORE PUSH1 0x20 ADD PUSH0 KECCAK256 PUSH0 SWAP1 SLOAD SWAP1 PUSH2 0x100 EXP SWAP1 DIV PUSH1 0xFF AND ISZERO JUMPDEST ISZERO PUSH2 0x74D JUMPI PUSH1 0x40 MLOAD PUSH32 0x82B4290000000000000000000000000000000000000000000000000000000000 DUP2 MSTORE PUSH1 0x4 ADD PUSH1 0x40 MLOAD DUP1 SWAP2 SUB SWAP1 REVERT JUMPDEST DUP4 PUSH1 0x6 PUSH0 DUP6 DUP2 MSTORE PUSH1 0x20 ADD SWAP1 DUP2 MSTORE PUSH1 0x20 ADD PUSH0 KECCAK256 PUSH0 PUSH2 0x100 EXP DUP2 SLOAD DUP2 PUSH20 0xFFFFFFFFFFFFFFFFFFFFFFFFFFFFFFFFFFFFFFFF MUL NOT AND SWAP1 DUP4 PUSH20 0xFFFFFFFFFFFFFFFFFFFFFFFFFFFFFFFFFFFFFFFF AND MUL OR SWAP1 SSTORE POP DUP4 PUSH20 0xFFFFFFFFFFFFFFFFFFFFFFFFFFFFFFFFFFFFFFFF AND DUP2 PUSH20 0xFFFFFFFFFFFFFFFFFFFFFFFFFFFFFFFFFFFFFFFF AND PUSH32 0x8C5BE1E5EBEC7D5BD14F71427D1E84F3DD0314C0F7B2291E5B200AC8C7C3B925 DUP6 PUSH1 0x40 MLOAD PUSH2 0x7F9 SWAP2 SWAP1 PUSH2 0x2DB5 JUMP JUMPDEST PUSH1 0x40 MLOAD DUP1 SWAP2 SUB SWAP1 LOG3 POP PUSH2 0x8EA JUMP JUMPDEST DUP2 PUSH1 0x5 PUSH0 CALLER PUSH20 0xFFFFFFFFFFFFFFFFFFFFFFFFFFFFFFFFFFFFFFFF AND PUSH20 0xFFFFFFFFFFFFFFFFFFFFFFFFFFFFFFFFFFFFFFFF AND DUP2 MSTORE PUSH1 0x20 ADD SWAP1 DUP2 MSTORE PUSH1 0x20 ADD PUSH0 KECCAK256 PUSH0 DUP6 PUSH20 0xFFFFFFFFFFFFFFFFFFFFFFFFFFFFFFFFFFFFFFFF AND PUSH20 0xFFFFFFFFFFFFFFFFFFFFFFFFFFFFFFFFFFFFFFFF AND DUP2 MSTORE PUSH1 0x20 ADD SWAP1 DUP2 MSTORE PUSH1 0x20 ADD PUSH0 KECCAK256 DUP2 SWAP1 SSTORE POP DUP3 PUSH20 0xFFFFFFFFFFFFFFFFFFFFFFFFFFFFFFFFFFFFFFFF AND CALLER PUSH20 0xFFFFFFFFFFFFFFFFFFFFFFFFFFFFFFFFFFFFFFFF AND PUSH32 0x8C5BE1E5EBEC7D5BD14F71427D1E84F3DD0314C0F7B2291E5B200AC8C7C3B925 DUP5 PUSH1 0x40 MLOAD PUSH2 0x8E1 SWAP2 SWAP1 PUSH2 0x2DB5 JUMP JUMPDEST PUSH1 0x40 MLOAD DUP1 SWAP2 SUB SWAP1 LOG3 JUMPDEST PUSH1 0x1 SWAP1 POP SWAP3 SWAP2 POP POP JUMP JUMPDEST PUSH32 0x0 DUP2 JUMP JUMPDEST PUSH0 DUP1 SLOAD SWAP1 PUSH2 0x100 EXP SWAP1 DIV PUSH20 0xFFFFFFFFFFFFFFFFFFFFFFFFFFFFFFFFFFFFFFFF AND PUSH20 0xFFFFFFFFFFFFFFFFFFFFFFFFFFFFFFFFFFFFFFFF AND CALLER PUSH20 0xFFFFFFFFFFFFFFFFFFFFFFFFFFFFFFFFFFFFFFFF AND EQ PUSH2 0x99C JUMPI PUSH1 0x40 MLOAD PUSH32 0x82B4290000000000000000000000000000000000000000000000000000000000 DUP2 MSTORE PUSH1 0x4 ADD PUSH1 0x40 MLOAD DUP1 SWAP2 SUB SWAP1 REVERT JUMPDEST DUP1 PUSH1 0xC SWAP1 DUP2 PUSH2 0x9AB SWAP2 SWAP1 PUSH2 0x33E7 JUMP JUMPDEST POP POP JUMP JUMPDEST PUSH1 0x3 SLOAD DUP2 GT PUSH2 0x1067 JUMPI PUSH1 0x8 PUSH0 DUP3 DUP2 MSTORE PUSH1 0x20 ADD SWAP1 DUP2 MSTORE PUSH1 0x20 ADD PUSH0 KECCAK256 PUSH0 SWAP1 SLOAD SWAP1 PUSH2 0x100 EXP SWAP1 DIV PUSH20 0xFFFFFFFFFFFFFFFFFFFFFFFFFFFFFFFFFFFFFFFF AND PUSH20 0xFFFFFFFFFFFFFFFFFFFFFFFFFFFFFFFFFFFFFFFF AND DUP4 PUSH20 0xFFFFFFFFFFFFFFFFFFFFFFFFFFFFFFFFFFFFFFFF AND EQ PUSH2 0xA4D JUMPI PUSH1 0x40 MLOAD PUSH32 0xDDB5DE5E00000000000000000000000000000000000000000000000000000000 DUP2 MSTORE PUSH1 0x4 ADD PUSH1 0x40 MLOAD DUP1 SWAP2 SUB SWAP1 REVERT JUMPDEST PUSH0 PUSH20 0xFFFFFFFFFFFFFFFFFFFFFFFFFFFFFFFFFFFFFFFF AND DUP3 PUSH20 0xFFFFFFFFFFFFFFFFFFFFFFFFFFFFFFFFFFFFFFFF AND SUB PUSH2 0xAB2 JUMPI PUSH1 0x40 MLOAD PUSH32 0x9C8D2CD200000000000000000000000000000000000000000000000000000000 DUP2 MSTORE PUSH1 0x4 ADD PUSH1 0x40 MLOAD DUP1 SWAP2 SUB SWAP1 REVERT JUMPDEST DUP3 PUSH20 0xFFFFFFFFFFFFFFFFFFFFFFFFFFFFFFFFFFFFFFFF AND CALLER PUSH20 0xFFFFFFFFFFFFFFFFFFFFFFFFFFFFFFFFFFFFFFFF AND EQ ISZERO DUP1 ISZERO PUSH2 0xB70 JUMPI POP PUSH1 0x7 PUSH0 DUP5 PUSH20 0xFFFFFFFFFFFFFFFFFFFFFFFFFFFFFFFFFFFFFFFF AND PUSH20 0xFFFFFFFFFFFFFFFFFFFFFFFFFFFFFFFFFFFFFFFF AND DUP2 MSTORE PUSH1 0x20 ADD SWAP1 DUP2 MSTORE PUSH1 0x20 ADD PUSH0 KECCAK256 PUSH0 CALLER PUSH20 0xFFFFFFFFFFFFFFFFFFFFFFFFFFFFFFFFFFFFFFFF AND PUSH20 0xFFFFFFFFFFFFFFFFFFFFFFFFFFFFFFFFFFFFFFFF AND DUP2 MSTORE PUSH1 0x20 ADD SWAP1 DUP2 MSTORE PUSH1 0x20 ADD PUSH0 KECCAK256 PUSH0 SWAP1 SLOAD SWAP1 PUSH2 0x100 EXP SWAP1 DIV PUSH1 0xFF AND ISZERO JUMPDEST DUP1 ISZERO PUSH2 0xBD8 JUMPI POP PUSH1 0x6 PUSH0 DUP3 DUP2 MSTORE PUSH1 0x20 ADD SWAP1 DUP2 MSTORE PUSH1 0x20 ADD PUSH0 KECCAK256 PUSH0 SWAP1 SLOAD SWAP1 PUSH2 0x100 EXP SWAP1 DIV PUSH20 0xFFFFFFFFFFFFFFFFFFFFFFFFFFFFFFFFFFFFFFFF AND PUSH20 0xFFFFFFFFFFFFFFFFFFFFFFFFFFFFFFFFFFFFFFFF AND CALLER PUSH20 0xFFFFFFFFFFFFFFFFFFFFFFFFFFFFFFFFFFFFFFFF AND EQ ISZERO JUMPDEST ISZERO PUSH2 0xC0F JUMPI PUSH1 0x40 MLOAD PUSH32 0x82B4290000000000000000000000000000000000000000000000000000000000 DUP2 MSTORE PUSH1 0x4 ADD PUSH1 0x40 MLOAD DUP1 SWAP2 SUB SWAP1 REVERT JUMPDEST PUSH2 0xC17 PUSH2 0x211D JUMP JUMPDEST PUSH1 0x4 PUSH0 DUP6 PUSH20 0xFFFFFFFFFFFFFFFFFFFFFFFFFFFFFFFFFFFFFFFF AND PUSH20 0xFFFFFFFFFFFFFFFFFFFFFFFFFFFFFFFFFFFFFFFF AND DUP2 MSTORE PUSH1 0x20 ADD SWAP1 DUP2 MSTORE PUSH1 0x20 ADD PUSH0 KECCAK256 PUSH0 DUP3 DUP3 SLOAD PUSH2 0xC62 SWAP2 SWAP1 PUSH2 0x34E3 JUMP JUMPDEST SWAP3 POP POP DUP2 SWAP1 SSTORE POP PUSH2 0xC71 PUSH2 0x211D JUMP JUMPDEST PUSH1 0x4 PUSH0 DUP5 PUSH20 0xFFFFFFFFFFFFFFFFFFFFFFFFFFFFFFFFFFFFFFFF AND PUSH20 0xFFFFFFFFFFFFFFFFFFFFFFFFFFFFFFFFFFFFFFFF AND DUP2 MSTORE PUSH1 0x20 ADD SWAP1 DUP2 MSTORE PUSH1 0x20 ADD PUSH0 KECCAK256 PUSH0 DUP3 DUP3 SLOAD ADD SWAP3 POP POP DUP2 SWAP1 SSTORE POP DUP2 PUSH1 0x8 PUSH0 DUP4 DUP2 MSTORE PUSH1 0x20 ADD SWAP1 DUP2 MSTORE PUSH1 0x20 ADD PUSH0 KECCAK256 PUSH0 PUSH2 0x100 EXP DUP2 SLOAD DUP2 PUSH20 0xFFFFFFFFFFFFFFFFFFFFFFFFFFFFFFFFFFFFFFFF MUL NOT AND SWAP1 DUP4 PUSH20 0xFFFFFFFFFFFFFFFFFFFFFFFFFFFFFFFFFFFFFFFF AND MUL OR SWAP1 SSTORE POP PUSH1 0x6 PUSH0 DUP3 DUP2 MSTORE PUSH1 0x20 ADD SWAP1 DUP2 MSTORE PUSH1 0x20 ADD PUSH0 KECCAK256 PUSH0 PUSH2 0x100 EXP DUP2 SLOAD SWAP1 PUSH20 0xFFFFFFFFFFFFFFFFFFFFFFFFFFFFFFFFFFFFFFFF MUL NOT AND SWAP1 SSTORE PUSH0 PUSH1 0x9 PUSH0 DUP6 PUSH20 0xFFFFFFFFFFFFFFFFFFFFFFFFFFFFFFFFFFFFFFFF AND PUSH20 0xFFFFFFFFFFFFFFFFFFFFFFFFFFFFFFFFFFFFFFFF AND DUP2 MSTORE PUSH1 0x20 ADD SWAP1 DUP2 MSTORE PUSH1 0x20 ADD PUSH0 KECCAK256 PUSH1 0x1 PUSH1 0x9 PUSH0 DUP8 PUSH20 0xFFFFFFFFFFFFFFFFFFFFFFFFFFFFFFFFFFFFFFFF AND PUSH20 0xFFFFFFFFFFFFFFFFFFFFFFFFFFFFFFFFFFFFFFFF AND DUP2 MSTORE PUSH1 0x20 ADD SWAP1 DUP2 MSTORE PUSH1 0x20 ADD PUSH0 KECCAK256 DUP1 SLOAD SWAP1 POP PUSH2 0xDC7 SWAP2 SWAP1 PUSH2 0x34E3 JUMP JUMPDEST DUP2 SLOAD DUP2 LT PUSH2 0xDD8 JUMPI PUSH2 0xDD7 PUSH2 0x3516 JUMP JUMPDEST JUMPDEST SWAP1 PUSH0 MSTORE PUSH1 0x20 PUSH0 KECCAK256 ADD SLOAD SWAP1 POP DUP1 PUSH1 0x9 PUSH0 DUP7 PUSH20 0xFFFFFFFFFFFFFFFFFFFFFFFFFFFFFFFFFFFFFFFF AND PUSH20 0xFFFFFFFFFFFFFFFFFFFFFFFFFFFFFFFFFFFFFFFF AND DUP2 MSTORE PUSH1 0x20 ADD SWAP1 DUP2 MSTORE PUSH1 0x20 ADD PUSH0 KECCAK256 PUSH1 0xA PUSH0 DUP6 DUP2 MSTORE PUSH1 0x20 ADD SWAP1 DUP2 MSTORE PUSH1 0x20 ADD PUSH0 KECCAK256 SLOAD DUP2 SLOAD DUP2 LT PUSH2 0xE44 JUMPI PUSH2 0xE43 PUSH2 0x3516 JUMP JUMPDEST JUMPDEST SWAP1 PUSH0 MSTORE PUSH1 0x20 PUSH0 KECCAK256 ADD DUP2 SWAP1 SSTORE POP PUSH1 0x9 PUSH0 DUP6 PUSH20 0xFFFFFFFFFFFFFFFFFFFFFFFFFFFFFFFFFFFFFFFF AND PUSH20 0xFFFFFFFFFFFFFFFFFFFFFFFFFFFFFFFFFFFFFFFF AND DUP2 MSTORE PUSH1 0x20 ADD SWAP1 DUP2 MSTORE PUSH1 0x20 ADD PUSH0 KECCAK256 DUP1 SLOAD DUP1 PUSH2 0xE9D JUMPI PUSH2 0xE9C PUSH2 0x3543 JUMP JUMPDEST JUMPDEST PUSH1 0x1 SWAP1 SUB DUP2 DUP2 SWAP1 PUSH0 MSTORE PUSH1 0x20 PUSH0 KECCAK256 ADD PUSH0 SWAP1 SSTORE SWAP1 SSTORE PUSH1 0xA PUSH0 DUP4 DUP2 MSTORE PUSH1 0x20 ADD SWAP1 DUP2 MSTORE PUSH1 0x20 ADD PUSH0 KECCAK256 SLOAD PUSH1 0xA PUSH0 DUP4 DUP2 MSTORE PUSH1 0x20 ADD SWAP1 DUP2 MSTORE PUSH1 0x20 ADD PUSH0 KECCAK256 DUP2 SWAP1 SSTORE POP PUSH1 0x9 PUSH0 DUP5 PUSH20 0xFFFFFFFFFFFFFFFFFFFFFFFFFFFFFFFFFFFFFFFF AND PUSH20 0xFFFFFFFFFFFFFFFFFFFFFFFFFFFFFFFFFFFFFFFF AND DUP2 MSTORE PUSH1 0x20 ADD SWAP1 DUP2 MSTORE PUSH1 0x20 ADD PUSH0 KECCAK256 DUP3 SWAP1 DUP1 PUSH1 0x1 DUP2 SLOAD ADD DUP1 DUP3 SSTORE DUP1 SWAP2 POP POP PUSH1 0x1 SWAP1 SUB SWAP1 PUSH0 MSTORE PUSH1 0x20 PUSH0 KECCAK256 ADD PUSH0 SWAP1 SWAP2 SWAP1 SWAP2 SWAP1 SWAP2 POP SSTORE PUSH1 0x1 PUSH1 0x9 PUSH0 DUP6 PUSH20 0xFFFFFFFFFFFFFFFFFFFFFFFFFFFFFFFFFFFFFFFF AND PUSH20 0xFFFFFFFFFFFFFFFFFFFFFFFFFFFFFFFFFFFFFFFF AND DUP2 MSTORE PUSH1 0x20 ADD SWAP1 DUP2 MSTORE PUSH1 0x20 ADD PUSH0 KECCAK256 DUP1 SLOAD SWAP1 POP PUSH2 0xF85 SWAP2 SWAP1 PUSH2 0x34E3 JUMP JUMPDEST PUSH1 0xA PUSH0 DUP5 DUP2 MSTORE PUSH1 0x20 ADD SWAP1 DUP2 MSTORE PUSH1 0x20 ADD PUSH0 KECCAK256 DUP2 SWAP1 SSTORE POP DUP2 DUP4 PUSH20 0xFFFFFFFFFFFFFFFFFFFFFFFFFFFFFFFFFFFFFFFF AND DUP6 PUSH20 0xFFFFFFFFFFFFFFFFFFFFFFFFFFFFFFFFFFFFFFFF AND PUSH32 0xDDF252AD1BE2C89B69C2B068FC378DAA952BA7F163C4A11628F55A4DF523B3EF PUSH1 0x40 MLOAD PUSH1 0x40 MLOAD DUP1 SWAP2 SUB SWAP1 LOG4 DUP3 PUSH20 0xFFFFFFFFFFFFFFFFFFFFFFFFFFFFFFFFFFFFFFFF AND DUP5 PUSH20 0xFFFFFFFFFFFFFFFFFFFFFFFFFFFFFFFFFFFFFFFF AND PUSH32 0xE59FDD36D0D223C0C7D996DB7AD796880F45E1936CB0BB7AC102E7082E031487 PUSH2 0x104C PUSH2 0x211D JUMP JUMPDEST PUSH1 0x40 MLOAD PUSH2 0x1059 SWAP2 SWAP1 PUSH2 0x2DB5 JUMP JUMPDEST PUSH1 0x40 MLOAD DUP1 SWAP2 SUB SWAP1 LOG3 POP PUSH2 0x11A1 JUMP JUMPDEST PUSH0 PUSH1 0x5 PUSH0 DUP6 PUSH20 0xFFFFFFFFFFFFFFFFFFFFFFFFFFFFFFFFFFFFFFFF AND PUSH20 0xFFFFFFFFFFFFFFFFFFFFFFFFFFFFFFFFFFFFFFFF AND DUP2 MSTORE PUSH1 0x20 ADD SWAP1 DUP2 MSTORE PUSH1 0x20 ADD PUSH0 KECCAK256 PUSH0 CALLER PUSH20 0xFFFFFFFFFFFFFFFFFFFFFFFFFFFFFFFFFFFFFFFF AND PUSH20 0xFFFFFFFFFFFFFFFFFFFFFFFFFFFFFFFFFFFFFFFF AND DUP2 MSTORE PUSH1 0x20 ADD SWAP1 DUP2 MSTORE PUSH1 0x20 ADD PUSH0 KECCAK256 SLOAD SWAP1 POP PUSH32 0xFFFFFFFFFFFFFFFFFFFFFFFFFFFFFFFFFFFFFFFFFFFFFFFFFFFFFFFFFFFFFFFF DUP2 EQ PUSH2 0x1193 JUMPI DUP2 DUP2 PUSH2 0x1116 SWAP2 SWAP1 PUSH2 0x34E3 JUMP JUMPDEST PUSH1 0x5 PUSH0 DUP7 PUSH20 0xFFFFFFFFFFFFFFFFFFFFFFFFFFFFFFFFFFFFFFFF AND PUSH20 0xFFFFFFFFFFFFFFFFFFFFFFFFFFFFFFFFFFFFFFFF AND DUP2 MSTORE PUSH1 0x20 ADD SWAP1 DUP2 MSTORE PUSH1 0x20 ADD PUSH0 KECCAK256 PUSH0 CALLER PUSH20 0xFFFFFFFFFFFFFFFFFFFFFFFFFFFFFFFFFFFFFFFF AND PUSH20 0xFFFFFFFFFFFFFFFFFFFFFFFFFFFFFFFFFFFFFFFF AND DUP2 MSTORE PUSH1 0x20 ADD SWAP1 DUP2 MSTORE PUSH1 0x20 ADD PUSH0 KECCAK256 DUP2 SWAP1 SSTORE POP JUMPDEST PUSH2 0x119E DUP5 DUP5 DUP5 PUSH2 0x2150 JUMP JUMPDEST POP POP JUMPDEST POP POP POP JUMP JUMPDEST PUSH0 DUP1 SLOAD SWAP1 PUSH2 0x100 EXP SWAP1 DIV PUSH20 0xFFFFFFFFFFFFFFFFFFFFFFFFFFFFFFFFFFFFFFFF AND PUSH20 0xFFFFFFFFFFFFFFFFFFFFFFFFFFFFFFFFFFFFFFFF AND CALLER PUSH20 0xFFFFFFFFFFFFFFFFFFFFFFFFFFFFFFFFFFFFFFFF AND EQ PUSH2 0x122A JUMPI PUSH1 0x40 MLOAD PUSH32 0x82B4290000000000000000000000000000000000000000000000000000000000 DUP2 MSTORE PUSH1 0x4 ADD PUSH1 0x40 MLOAD DUP1 SWAP2 SUB SWAP1 REVERT JUMPDEST PUSH0 DUP1 PUSH0 PUSH2 0x100 EXP DUP2 SLOAD DUP2 PUSH20 0xFFFFFFFFFFFFFFFFFFFFFFFFFFFFFFFFFFFFFFFF MUL NOT AND SWAP1 DUP4 PUSH20 0xFFFFFFFFFFFFFFFFFFFFFFFFFFFFFFFFFFFFFFFF AND MUL OR SWAP1 SSTORE POP PUSH0 PUSH20 0xFFFFFFFFFFFFFFFFFFFFFFFFFFFFFFFFFFFFFFFF AND CALLER PUSH20 0xFFFFFFFFFFFFFFFFFFFFFFFFFFFFFFFFFFFFFFFF AND PUSH32 0x8BE0079C531659141344CD1FD0A4F28419497F9722A3DAAFE3B4186F6B6457E0 PUSH1 0x40 MLOAD PUSH1 0x40 MLOAD DUP1 SWAP2 SUB SWAP1 LOG3 JUMP JUMPDEST PUSH32 0x0 DUP2 JUMP JUMPDEST PUSH2 0x12F4 DUP4 DUP4 DUP4 PUSH2 0x9AF JUMP JUMPDEST PUSH0 DUP3 PUSH20 0xFFFFFFFFFFFFFFFFFFFFFFFFFFFFFFFFFFFFFFFF AND EXTCODESIZE EQ ISZERO DUP1 ISZERO PUSH2 0x13DC JUMPI POP PUSH4 0x150B7A02 PUSH1 0xE0 SHL PUSH28 0xFFFFFFFFFFFFFFFFFFFFFFFFFFFFFFFFFFFFFFFFFFFFFFFFFFFFFFFF NOT AND DUP3 PUSH20 0xFFFFFFFFFFFFFFFFFFFFFFFFFFFFFFFFFFFFFFFF AND PUSH4 0x150B7A02 CALLER DUP7 DUP6 PUSH1 0x40 MLOAD DUP5 PUSH4 0xFFFFFFFF AND PUSH1 0xE0 SHL DUP2 MSTORE PUSH1 0x4 ADD PUSH2 0x137A SWAP4 SWAP3 SWAP2 SWAP1 PUSH2 0x35A3 JUMP JUMPDEST PUSH1 0x20 PUSH1 0x40 MLOAD DUP1 DUP4 SUB DUP2 PUSH0 DUP8 GAS CALL ISZERO DUP1 ISZERO PUSH2 0x1396 JUMPI RETURNDATASIZE PUSH0 DUP1 RETURNDATACOPY RETURNDATASIZE PUSH0 REVERT JUMPDEST POP POP POP POP PUSH1 0x40 MLOAD RETURNDATASIZE PUSH1 0x1F NOT PUSH1 0x1F DUP3 ADD AND DUP3 ADD DUP1 PUSH1 0x40 MSTORE POP DUP2 ADD SWAP1 PUSH2 0x13BA SWAP2 SWAP1 PUSH2 0x3640 JUMP JUMPDEST PUSH28 0xFFFFFFFFFFFFFFFFFFFFFFFFFFFFFFFFFFFFFFFFFFFFFFFFFFFFFFFF NOT AND EQ ISZERO JUMPDEST ISZERO PUSH2 0x1413 JUMPI PUSH1 0x40 MLOAD PUSH32 0x3DA6393100000000000000000000000000000000000000000000000000000000 DUP2 MSTORE PUSH1 0x4 ADD PUSH1 0x40 MLOAD DUP1 SWAP2 SUB SWAP1 REVERT JUMPDEST POP POP POP JUMP JUMPDEST PUSH1 0x3 SLOAD DUP2 JUMP JUMPDEST PUSH0 DUP1 SLOAD SWAP1 PUSH2 0x100 EXP SWAP1 DIV PUSH20 0xFFFFFFFFFFFFFFFFFFFFFFFFFFFFFFFFFFFFFFFF AND PUSH20 0xFFFFFFFFFFFFFFFFFFFFFFFFFFFFFFFFFFFFFFFF AND CALLER PUSH20 0xFFFFFFFFFFFFFFFFFFFFFFFFFFFFFFFFFFFFFFFF AND EQ PUSH2 0x14A2 JUMPI PUSH1 0x40 MLOAD PUSH32 0x82B4290000000000000000000000000000000000000000000000000000000000 DUP2 MSTORE PUSH1 0x4 ADD PUSH1 0x40 MLOAD DUP1 SWAP2 SUB SWAP1 REVERT JUMPDEST PUSH2 0x14AC DUP3 DUP3 PUSH2 0x2494 JUMP JUMPDEST POP POP JUMP JUMPDEST PUSH0 DUP1 SLOAD SWAP1 PUSH2 0x100 EXP SWAP1 DIV PUSH20 0xFFFFFFFFFFFFFFFFFFFFFFFFFFFFFFFFFFFFFFFF AND PUSH20 0xFFFFFFFFFFFFFFFFFFFFFFFFFFFFFFFFFFFFFFFF AND CALLER PUSH20 0xFFFFFFFFFFFFFFFFFFFFFFFFFFFFFFFFFFFFFFFF AND EQ PUSH2 0x1534 JUMPI PUSH1 0x40 MLOAD PUSH32 0x82B4290000000000000000000000000000000000000000000000000000000000 DUP2 MSTORE PUSH1 0x4 ADD PUSH1 0x40 MLOAD DUP1 SWAP2 SUB SWAP1 REVERT JUMPDEST DUP1 PUSH1 0xB PUSH0 DUP5 PUSH20 0xFFFFFFFFFFFFFFFFFFFFFFFFFFFFFFFFFFFFFFFF AND PUSH20 0xFFFFFFFFFFFFFFFFFFFFFFFFFFFFFFFFFFFFFFFF AND DUP2 MSTORE PUSH1 0x20 ADD SWAP1 DUP2 MSTORE PUSH1 0x20 ADD PUSH0 KECCAK256 PUSH0 PUSH2 0x100 EXP DUP2 SLOAD DUP2 PUSH1 0xFF MUL NOT AND SWAP1 DUP4 ISZERO ISZERO MUL OR SWAP1 SSTORE POP POP POP JUMP JUMPDEST PUSH0 PUSH1 0x8 PUSH0 DUP4 DUP2 MSTORE PUSH1 0x20 ADD SWAP1 DUP2 MSTORE PUSH1 0x20 ADD PUSH0 KECCAK256 PUSH0 SWAP1 SLOAD SWAP1 PUSH2 0x100 EXP SWAP1 DIV PUSH20 0xFFFFFFFFFFFFFFFFFFFFFFFFFFFFFFFFFFFFFFFF AND SWAP1 POP PUSH0 PUSH20 0xFFFFFFFFFFFFFFFFFFFFFFFFFFFFFFFFFFFFFFFF AND DUP2 PUSH20 0xFFFFFFFFFFFFFFFFFFFFFFFFFFFFFFFFFFFFFFFF AND SUB PUSH2 0x1625 JUMPI PUSH1 0x40 MLOAD PUSH32 0xC5723B5100000000000000000000000000000000000000000000000000000000 DUP2 MSTORE PUSH1 0x4 ADD PUSH1 0x40 MLOAD DUP1 SWAP2 SUB SWAP1 REVERT JUMPDEST SWAP2 SWAP1 POP JUMP JUMPDEST PUSH1 0x4 PUSH1 0x20 MSTORE DUP1 PUSH0 MSTORE PUSH1 0x40 PUSH0 KECCAK256 PUSH0 SWAP2 POP SWAP1 POP SLOAD DUP2 JUMP JUMPDEST PUSH0 DUP1 SLOAD SWAP1 PUSH2 0x100 EXP SWAP1 DIV PUSH20 0xFFFFFFFFFFFFFFFFFFFFFFFFFFFFFFFFFFFFFFFF AND DUP2 JUMP JUMPDEST PUSH1 0x2 DUP1 SLOAD PUSH2 0x166F SWAP1 PUSH2 0x321A JUMP JUMPDEST DUP1 PUSH1 0x1F ADD PUSH1 0x20 DUP1 SWAP2 DIV MUL PUSH1 0x20 ADD PUSH1 0x40 MLOAD SWAP1 DUP2 ADD PUSH1 0x40 MSTORE DUP1 SWAP3 SWAP2 SWAP1 DUP2 DUP2 MSTORE PUSH1 0x20 ADD DUP3 DUP1 SLOAD PUSH2 0x169B SWAP1 PUSH2 0x321A JUMP JUMPDEST DUP1 ISZERO PUSH2 0x16E6 JUMPI DUP1 PUSH1 0x1F LT PUSH2 0x16BD JUMPI PUSH2 0x100 DUP1 DUP4 SLOAD DIV MUL DUP4 MSTORE SWAP2 PUSH1 0x20 ADD SWAP2 PUSH2 0x16E6 JUMP JUMPDEST DUP3 ADD SWAP2 SWAP1 PUSH0 MSTORE PUSH1 0x20 PUSH0 KECCAK256 SWAP1 JUMPDEST DUP2 SLOAD DUP2 MSTORE SWAP1 PUSH1 0x1 ADD SWAP1 PUSH1 0x20 ADD DUP1 DUP4 GT PUSH2 0x16C9 JUMPI DUP3 SWAP1 SUB PUSH1 0x1F AND DUP3 ADD SWAP2 JUMPDEST POP POP POP POP POP DUP2 JUMP JUMPDEST PUSH1 0xB PUSH1 0x20 MSTORE DUP1 PUSH0 MSTORE PUSH1 0x40 PUSH0 KECCAK256 PUSH0 SWAP2 POP SLOAD SWAP1 PUSH2 0x100 EXP SWAP1 DIV PUSH1 0xFF AND DUP2 JUMP JUMPDEST DUP1 PUSH1 0x7 PUSH0 CALLER PUSH20 0xFFFFFFFFFFFFFFFFFFFFFFFFFFFFFFFFFFFFFFFF AND PUSH20 0xFFFFFFFFFFFFFFFFFFFFFFFFFFFFFFFFFFFFFFFF AND DUP2 MSTORE PUSH1 0x20 ADD SWAP1 DUP2 MSTORE PUSH1 0x20 ADD PUSH0 KECCAK256 PUSH0 DUP5 PUSH20 0xFFFFFFFFFFFFFFFFFFFFFFFFFFFFFFFFFFFFFFFF AND PUSH20 0xFFFFFFFFFFFFFFFFFFFFFFFFFFFFFFFFFFFFFFFF AND DUP2 MSTORE PUSH1 0x20 ADD SWAP1 DUP2 MSTORE PUSH1 0x20 ADD PUSH0 KECCAK256 PUSH0 PUSH2 0x100 EXP DUP2 SLOAD DUP2 PUSH1 0xFF MUL NOT AND SWAP1 DUP4 ISZERO ISZERO MUL OR SWAP1 SSTORE POP DUP2 PUSH20 0xFFFFFFFFFFFFFFFFFFFFFFFFFFFFFFFFFFFFFFFF AND CALLER PUSH20 0xFFFFFFFFFFFFFFFFFFFFFFFFFFFFFFFFFFFFFFFF AND PUSH32 0x17307EAB39AB6107E8899845AD3D59BD9653F200F220920489CA2B5937696C31 DUP4 PUSH1 0x40 MLOAD PUSH2 0x17F7 SWAP2 SWAP1 PUSH2 0x2D8D JUMP JUMPDEST PUSH1 0x40 MLOAD DUP1 SWAP2 SUB SWAP1 LOG3 POP POP JUMP JUMPDEST PUSH0 PUSH2 0x180F CALLER DUP5 DUP5 PUSH2 0x2150 JUMP JUMPDEST SWAP1 POP SWAP3 SWAP2 POP POP JUMP JUMPDEST PUSH2 0x1822 DUP6 DUP6 DUP6 PUSH2 0x9AF JUMP JUMPDEST PUSH0 DUP5 PUSH20 0xFFFFFFFFFFFFFFFFFFFFFFFFFFFFFFFFFFFFFFFF AND EXTCODESIZE EQ ISZERO DUP1 ISZERO PUSH2 0x190E JUMPI POP PUSH4 0x150B7A02 PUSH1 0xE0 SHL PUSH28 0xFFFFFFFFFFFFFFFFFFFFFFFFFFFFFFFFFFFFFFFFFFFFFFFFFFFFFFFF NOT AND DUP5 PUSH20 0xFFFFFFFFFFFFFFFFFFFFFFFFFFFFFFFFFFFFFFFF AND PUSH4 0x150B7A02 CALLER DUP9 DUP8 DUP8 DUP8 PUSH1 0x40 MLOAD DUP7 PUSH4 0xFFFFFFFF AND PUSH1 0xE0 SHL DUP2 MSTORE PUSH1 0x4 ADD PUSH2 0x18AC SWAP6 SWAP5 SWAP4 SWAP3 SWAP2 SWAP1 PUSH2 0x3697 JUMP JUMPDEST PUSH1 0x20 PUSH1 0x40 MLOAD DUP1 DUP4 SUB DUP2 PUSH0 DUP8 GAS CALL ISZERO DUP1 ISZERO PUSH2 0x18C8 JUMPI RETURNDATASIZE PUSH0 DUP1 RETURNDATACOPY RETURNDATASIZE PUSH0 REVERT JUMPDEST POP POP POP POP PUSH1 0x40 MLOAD RETURNDATASIZE PUSH1 0x1F NOT PUSH1 0x1F DUP3 ADD AND DUP3 ADD DUP1 PUSH1 0x40 MSTORE POP DUP2 ADD SWAP1 PUSH2 0x18EC SWAP2 SWAP1 PUSH2 0x3640 JUMP JUMPDEST PUSH28 0xFFFFFFFFFFFFFFFFFFFFFFFFFFFFFFFFFFFFFFFFFFFFFFFFFFFFFFFF NOT AND EQ ISZERO JUMPDEST ISZERO PUSH2 0x1945 JUMPI PUSH1 0x40 MLOAD PUSH32 0x3DA6393100000000000000000000000000000000000000000000000000000000 DUP2 MSTORE PUSH1 0x4 ADD PUSH1 0x40 MLOAD DUP1 SWAP2 SUB SWAP1 REVERT JUMPDEST POP POP POP POP POP JUMP JUMPDEST PUSH1 0x60 PUSH0 PUSH1 0xD DUP1 SLOAD PUSH2 0x195C SWAP1 PUSH2 0x321A JUMP JUMPDEST SWAP1 POP GT ISZERO PUSH2 0x1996 JUMPI PUSH1 0xD PUSH2 0x196F DUP4 PUSH2 0x24B8 JUMP JUMPDEST PUSH1 0x40 MLOAD PUSH1 0x20 ADD PUSH2 0x1980 SWAP3 SWAP2 SWAP1 PUSH2 0x379D JUMP JUMPDEST PUSH1 0x40 MLOAD PUSH1 0x20 DUP2 DUP4 SUB SUB DUP2 MSTORE SWAP1 PUSH1 0x40 MSTORE SWAP1 POP PUSH2 0x1D9A JUMP JUMPDEST PUSH0 DUP3 PUSH1 0x40 MLOAD PUSH1 0x20 ADD PUSH2 0x19A8 SWAP2 SWAP1 PUSH2 0x37E0 JUMP JUMPDEST PUSH1 0x40 MLOAD PUSH1 0x20 DUP2 DUP4 SUB SUB DUP2 MSTORE SWAP1 PUSH1 0x40 MSTORE DUP1 MLOAD SWAP1 PUSH1 0x20 ADD KECCAK256 PUSH1 0xF8 SHR SWAP1 POP PUSH1 0x60 DUP1 PUSH1 0x64 DUP4 PUSH1 0xFF AND GT PUSH2 0x1A46 JUMPI PUSH1 0x40 MLOAD DUP1 PUSH1 0x40 ADD PUSH1 0x40 MSTORE DUP1 PUSH1 0x5 DUP2 MSTORE PUSH1 0x20 ADD PUSH32 0x312E676966000000000000000000000000000000000000000000000000000000 DUP2 MSTORE POP SWAP2 POP PUSH1 0x40 MLOAD DUP1 PUSH1 0x40 ADD PUSH1 0x40 MSTORE DUP1 PUSH1 0x5 DUP2 MSTORE PUSH1 0x20 ADD PUSH32 0x477265656E000000000000000000000000000000000000000000000000000000 DUP2 MSTORE POP SWAP1 POP PUSH2 0x1C46 JUMP JUMPDEST PUSH1 0xA0 DUP4 PUSH1 0xFF AND GT PUSH2 0x1AC6 JUMPI PUSH1 0x40 MLOAD DUP1 PUSH1 0x40 ADD PUSH1 0x40 MSTORE DUP1 PUSH1 0x5 DUP2 MSTORE PUSH1 0x20 ADD PUSH32 0x322E676966000000000000000000000000000000000000000000000000000000 DUP2 MSTORE POP SWAP2 POP PUSH1 0x40 MLOAD DUP1 PUSH1 0x40 ADD PUSH1 0x40 MSTORE DUP1 PUSH1 0x4 DUP2 MSTORE PUSH1 0x20 ADD PUSH32 0x426C756500000000000000000000000000000000000000000000000000000000 DUP2 MSTORE POP SWAP1 POP PUSH2 0x1C45 JUMP JUMPDEST PUSH1 0xD2 DUP4 PUSH1 0xFF AND GT PUSH2 0x1B46 JUMPI PUSH1 0x40 MLOAD DUP1 PUSH1 0x40 ADD PUSH1 0x40 MSTORE DUP1 PUSH1 0x5 DUP2 MSTORE PUSH1 0x20 ADD PUSH32 0x332E676966000000000000000000000000000000000000000000000000000000 DUP2 MSTORE POP SWAP2 POP PUSH1 0x40 MLOAD DUP1 PUSH1 0x40 ADD PUSH1 0x40 MSTORE DUP1 PUSH1 0x6 DUP2 MSTORE PUSH1 0x20 ADD PUSH32 0x507572706C650000000000000000000000000000000000000000000000000000 DUP2 MSTORE POP SWAP1 POP PUSH2 0x1C44 JUMP JUMPDEST PUSH1 0xF0 DUP4 PUSH1 0xFF AND GT PUSH2 0x1BC6 JUMPI PUSH1 0x40 MLOAD DUP1 PUSH1 0x40 ADD PUSH1 0x40 MSTORE DUP1 PUSH1 0x5 DUP2 MSTORE PUSH1 0x20 ADD PUSH32 0x342E676966000000000000000000000000000000000000000000000000000000 DUP2 MSTORE POP SWAP2 POP PUSH1 0x40 MLOAD DUP1 PUSH1 0x40 ADD PUSH1 0x40 MSTORE DUP1 PUSH1 0x6 DUP2 MSTORE PUSH1 0x20 ADD PUSH32 0x4F72616E67650000000000000000000000000000000000000000000000000000 DUP2 MSTORE POP SWAP1 POP PUSH2 0x1C43 JUMP JUMPDEST PUSH1 0xFF DUP4 PUSH1 0xFF AND GT PUSH2 0x1C42 JUMPI PUSH1 0x40 MLOAD DUP1 PUSH1 0x40 ADD PUSH1 0x40 MSTORE DUP1 PUSH1 0x5 DUP2 MSTORE PUSH1 0x20 ADD PUSH32 0x352E676966000000000000000000000000000000000000000000000000000000 DUP2 MSTORE POP SWAP2 POP PUSH1 0x40 MLOAD DUP1 PUSH1 0x40 ADD PUSH1 0x40 MSTORE DUP1 PUSH1 0x3 DUP2 MSTORE PUSH1 0x20 ADD PUSH32 0x5265640000000000000000000000000000000000000000000000000000000000 DUP2 MSTORE POP SWAP1 POP JUMPDEST JUMPDEST JUMPDEST JUMPDEST JUMPDEST PUSH0 PUSH2 0x1C50 DUP7 PUSH2 0x24B8 JUMP JUMPDEST PUSH1 0x40 MLOAD PUSH1 0x20 ADD PUSH2 0x1C60 SWAP2 SWAP1 PUSH2 0x3820 JUMP JUMPDEST PUSH1 0x40 MLOAD PUSH1 0x20 DUP2 DUP4 SUB SUB DUP2 MSTORE SWAP1 PUSH1 0x40 MSTORE PUSH1 0x40 MLOAD PUSH1 0x20 ADD PUSH2 0x1C7F SWAP2 SWAP1 PUSH2 0x3927 JUMP JUMPDEST PUSH1 0x40 MLOAD PUSH1 0x20 DUP2 DUP4 SUB SUB DUP2 MSTORE SWAP1 PUSH1 0x40 MSTORE PUSH1 0xC DUP5 PUSH1 0x40 MLOAD PUSH1 0x20 ADD PUSH2 0x1CA2 SWAP3 SWAP2 SWAP1 PUSH2 0x379D JUMP JUMPDEST PUSH1 0x40 MLOAD PUSH1 0x20 DUP2 DUP4 SUB SUB DUP2 MSTORE SWAP1 PUSH1 0x40 MSTORE PUSH1 0x40 MLOAD PUSH1 0x20 ADD PUSH2 0x1CC2 SWAP3 SWAP2 SWAP1 PUSH2 0x3948 JUMP JUMPDEST PUSH1 0x40 MLOAD PUSH1 0x20 DUP2 DUP4 SUB SUB DUP2 MSTORE SWAP1 PUSH1 0x40 MSTORE SWAP1 POP PUSH0 DUP3 PUSH1 0x40 MLOAD PUSH1 0x20 ADD PUSH2 0x1CE5 SWAP2 SWAP1 PUSH2 0x39DB JUMP JUMPDEST PUSH1 0x40 MLOAD PUSH1 0x20 DUP2 DUP4 SUB SUB DUP2 MSTORE SWAP1 PUSH1 0x40 MSTORE SWAP1 POP PUSH0 PUSH1 0x40 MLOAD DUP1 PUSH1 0x40 ADD PUSH1 0x40 MSTORE DUP1 PUSH1 0x4 DUP2 MSTORE PUSH1 0x20 ADD PUSH32 0x227D5D7D00000000000000000000000000000000000000000000000000000000 DUP2 MSTORE POP SWAP1 POP DUP3 DUP3 PUSH1 0x40 MLOAD PUSH1 0x20 ADD PUSH2 0x1D42 SWAP3 SWAP2 SWAP1 PUSH2 0x3948 JUMP JUMPDEST PUSH1 0x40 MLOAD PUSH1 0x20 DUP2 DUP4 SUB SUB DUP2 MSTORE SWAP1 PUSH1 0x40 MSTORE DUP2 PUSH1 0x40 MLOAD PUSH1 0x20 ADD PUSH2 0x1D63 SWAP3 SWAP2 SWAP1 PUSH2 0x3948 JUMP JUMPDEST PUSH1 0x40 MLOAD PUSH1 0x20 DUP2 DUP4 SUB SUB DUP2 MSTORE SWAP1 PUSH1 0x40 MSTORE PUSH1 0x40 MLOAD PUSH1 0x20 ADD PUSH2 0x1D82 SWAP2 SWAP1 PUSH2 0x3A22 JUMP JUMPDEST PUSH1 0x40 MLOAD PUSH1 0x20 DUP2 DUP4 SUB SUB DUP2 MSTORE SWAP1 PUSH1 0x40 MSTORE SWAP7 POP POP POP POP POP POP POP JUMPDEST SWAP2 SWAP1 POP JUMP JUMPDEST PUSH1 0xD DUP1 SLOAD PUSH2 0x1DAC SWAP1 PUSH2 0x321A JUMP JUMPDEST DUP1 PUSH1 0x1F ADD PUSH1 0x20 DUP1 SWAP2 DIV MUL PUSH1 0x20 ADD PUSH1 0x40 MLOAD SWAP1 DUP2 ADD PUSH1 0x40 MSTORE DUP1 SWAP3 SWAP2 SWAP1 DUP2 DUP2 MSTORE PUSH1 0x20 ADD DUP3 DUP1 SLOAD PUSH2 0x1DD8 SWAP1 PUSH2 0x321A JUMP JUMPDEST DUP1 ISZERO PUSH2 0x1E23 JUMPI DUP1 PUSH1 0x1F LT PUSH2 0x1DFA JUMPI PUSH2 0x100 DUP1 DUP4 SLOAD DIV MUL DUP4 MSTORE SWAP2 PUSH1 0x20 ADD SWAP2 PUSH2 0x1E23 JUMP JUMPDEST DUP3 ADD SWAP2 SWAP1 PUSH0 MSTORE PUSH1 0x20 PUSH0 KECCAK256 SWAP1 JUMPDEST DUP2 SLOAD DUP2 MSTORE SWAP1 PUSH1 0x1 ADD SWAP1 PUSH1 0x20 ADD DUP1 DUP4 GT PUSH2 0x1E06 JUMPI DUP3 SWAP1 SUB PUSH1 0x1F AND DUP3 ADD SWAP2 JUMPDEST POP POP POP POP POP DUP2 JUMP JUMPDEST PUSH1 0x5 PUSH1 0x20 MSTORE DUP2 PUSH0 MSTORE PUSH1 0x40 PUSH0 KECCAK256 PUSH1 0x20 MSTORE DUP1 PUSH0 MSTORE PUSH1 0x40 PUSH0 KECCAK256 PUSH0 SWAP2 POP SWAP2 POP POP SLOAD DUP2 JUMP JUMPDEST PUSH0 DUP1 SLOAD SWAP1 PUSH2 0x100 EXP SWAP1 DIV PUSH20 0xFFFFFFFFFFFFFFFFFFFFFFFFFFFFFFFFFFFFFFFF AND PUSH20 0xFFFFFFFFFFFFFFFFFFFFFFFFFFFFFFFFFFFFFFFF AND CALLER PUSH20 0xFFFFFFFFFFFFFFFFFFFFFFFFFFFFFFFFFFFFFFFF AND EQ PUSH2 0x1ECF JUMPI PUSH1 0x40 MLOAD PUSH32 0x82B4290000000000000000000000000000000000000000000000000000000000 DUP2 MSTORE PUSH1 0x4 ADD PUSH1 0x40 MLOAD DUP1 SWAP2 SUB SWAP1 REVERT JUMPDEST DUP1 PUSH1 0xD SWAP1 DUP2 PUSH2 0x1EDE SWAP2 SWAP1 PUSH2 0x33E7 JUMP JUMPDEST POP POP JUMP JUMPDEST PUSH1 0x7 PUSH1 0x20 MSTORE DUP2 PUSH0 MSTORE PUSH1 0x40 PUSH0 KECCAK256 PUSH1 0x20 MSTORE DUP1 PUSH0 MSTORE PUSH1 0x40 PUSH0 KECCAK256 PUSH0 SWAP2 POP SWAP2 POP SWAP1 SLOAD SWAP1 PUSH2 0x100 EXP SWAP1 DIV PUSH1 0xFF AND DUP2 JUMP JUMPDEST PUSH1 0xC DUP1 SLOAD PUSH2 0x1F19 SWAP1 PUSH2 0x321A JUMP JUMPDEST DUP1 PUSH1 0x1F ADD PUSH1 0x20 DUP1 SWAP2 DIV MUL PUSH1 0x20 ADD PUSH1 0x40 MLOAD SWAP1 DUP2 ADD PUSH1 0x40 MSTORE DUP1 SWAP3 SWAP2 SWAP1 DUP2 DUP2 MSTORE PUSH1 0x20 ADD DUP3 DUP1 SLOAD PUSH2 0x1F45 SWAP1 PUSH2 0x321A JUMP JUMPDEST DUP1 ISZERO PUSH2 0x1F90 JUMPI DUP1 PUSH1 0x1F LT PUSH2 0x1F67 JUMPI PUSH2 0x100 DUP1 DUP4 SLOAD DIV MUL DUP4 MSTORE SWAP2 PUSH1 0x20 ADD SWAP2 PUSH2 0x1F90 JUMP JUMPDEST DUP3 ADD SWAP2 SWAP1 PUSH0 MSTORE PUSH1 0x20 PUSH0 KECCAK256 SWAP1 JUMPDEST DUP2 SLOAD DUP2 MSTORE SWAP1 PUSH1 0x1 ADD SWAP1 PUSH1 0x20 ADD DUP1 DUP4 GT PUSH2 0x1F73 JUMPI DUP3 SWAP1 SUB PUSH1 0x1F AND DUP3 ADD SWAP2 JUMPDEST POP POP POP POP POP DUP2 JUMP JUMPDEST PUSH0 DUP1 SLOAD SWAP1 PUSH2 0x100 EXP SWAP1 DIV PUSH20 0xFFFFFFFFFFFFFFFFFFFFFFFFFFFFFFFFFFFFFFFF AND PUSH20 0xFFFFFFFFFFFFFFFFFFFFFFFFFFFFFFFFFFFFFFFF AND CALLER PUSH20 0xFFFFFFFFFFFFFFFFFFFFFFFFFFFFFFFFFFFFFFFF AND EQ PUSH2 0x201C JUMPI PUSH1 0x40 MLOAD PUSH32 0x82B4290000000000000000000000000000000000000000000000000000000000 DUP2 MSTORE PUSH1 0x4 ADD PUSH1 0x40 MLOAD DUP1 SWAP2 SUB SWAP1 REVERT JUMPDEST PUSH0 PUSH20 0xFFFFFFFFFFFFFFFFFFFFFFFFFFFFFFFFFFFFFFFF AND DUP2 PUSH20 0xFFFFFFFFFFFFFFFFFFFFFFFFFFFFFFFFFFFFFFFF AND SUB PUSH2 0x2081 JUMPI PUSH1 0x40 MLOAD PUSH32 0x49E27CFF00000000000000000000000000000000000000000000000000000000 DUP2 MSTORE PUSH1 0x4 ADD PUSH1 0x40 MLOAD DUP1 SWAP2 SUB SWAP1 REVERT JUMPDEST DUP1 PUSH0 DUP1 PUSH2 0x100 EXP DUP2 SLOAD DUP2 PUSH20 0xFFFFFFFFFFFFFFFFFFFFFFFFFFFFFFFFFFFFFFFF MUL NOT AND SWAP1 DUP4 PUSH20 0xFFFFFFFFFFFFFFFFFFFFFFFFFFFFFFFFFFFFFFFF AND MUL OR SWAP1 SSTORE POP DUP1 PUSH20 0xFFFFFFFFFFFFFFFFFFFFFFFFFFFFFFFFFFFFFFFF AND CALLER PUSH20 0xFFFFFFFFFFFFFFFFFFFFFFFFFFFFFFFFFFFFFFFF AND PUSH32 0x8BE0079C531659141344CD1FD0A4F28419497F9722A3DAAFE3B4186F6B6457E0 PUSH1 0x40 MLOAD PUSH1 0x40 MLOAD DUP1 SWAP2 SUB SWAP1 LOG3 POP JUMP JUMPDEST PUSH0 PUSH32 0x0 PUSH1 0xA PUSH2 0x214B SWAP2 SWAP1 PUSH2 0x3B76 JUMP JUMPDEST SWAP1 POP SWAP1 JUMP JUMPDEST PUSH0 DUP1 PUSH2 0x215A PUSH2 0x211D JUMP JUMPDEST SWAP1 POP PUSH0 PUSH1 0x4 PUSH0 DUP8 PUSH20 0xFFFFFFFFFFFFFFFFFFFFFFFFFFFFFFFFFFFFFFFF AND PUSH20 0xFFFFFFFFFFFFFFFFFFFFFFFFFFFFFFFFFFFFFFFF AND DUP2 MSTORE PUSH1 0x20 ADD SWAP1 DUP2 MSTORE PUSH1 0x20 ADD PUSH0 KECCAK256 SLOAD SWAP1 POP PUSH0 PUSH1 0x4 PUSH0 DUP8 PUSH20 0xFFFFFFFFFFFFFFFFFFFFFFFFFFFFFFFFFFFFFFFF AND PUSH20 0xFFFFFFFFFFFFFFFFFFFFFFFFFFFFFFFFFFFFFFFF AND DUP2 MSTORE PUSH1 0x20 ADD SWAP1 DUP2 MSTORE PUSH1 0x20 ADD PUSH0 KECCAK256 SLOAD SWAP1 POP DUP5 PUSH1 0x4 PUSH0 DUP10 PUSH20 0xFFFFFFFFFFFFFFFFFFFFFFFFFFFFFFFFFFFFFFFF AND PUSH20 0xFFFFFFFFFFFFFFFFFFFFFFFFFFFFFFFFFFFFFFFF AND DUP2 MSTORE PUSH1 0x20 ADD SWAP1 DUP2 MSTORE PUSH1 0x20 ADD PUSH0 KECCAK256 PUSH0 DUP3 DUP3 SLOAD PUSH2 0x222A SWAP2 SWAP1 PUSH2 0x34E3 JUMP JUMPDEST SWAP3 POP POP DUP2 SWAP1 SSTORE POP DUP5 PUSH1 0x4 PUSH0 DUP9 PUSH20 0xFFFFFFFFFFFFFFFFFFFFFFFFFFFFFFFFFFFFFFFF AND PUSH20 0xFFFFFFFFFFFFFFFFFFFFFFFFFFFFFFFFFFFFFFFF AND DUP2 MSTORE PUSH1 0x20 ADD SWAP1 DUP2 MSTORE PUSH1 0x20 ADD PUSH0 KECCAK256 PUSH0 DUP3 DUP3 SLOAD ADD SWAP3 POP POP DUP2 SWAP1 SSTORE POP PUSH1 0xB PUSH0 DUP9 PUSH20 0xFFFFFFFFFFFFFFFFFFFFFFFFFFFFFFFFFFFFFFFF AND PUSH20 0xFFFFFFFFFFFFFFFFFFFFFFFFFFFFFFFFFFFFFFFF AND DUP2 MSTORE PUSH1 0x20 ADD SWAP1 DUP2 MSTORE PUSH1 0x20 ADD PUSH0 KECCAK256 PUSH0 SWAP1 SLOAD SWAP1 PUSH2 0x100 EXP SWAP1 DIV PUSH1 0xFF AND PUSH2 0x234E JUMPI PUSH0 DUP4 PUSH1 0x4 PUSH0 DUP11 PUSH20 0xFFFFFFFFFFFFFFFFFFFFFFFFFFFFFFFFFFFFFFFF AND PUSH20 0xFFFFFFFFFFFFFFFFFFFFFFFFFFFFFFFFFFFFFFFF AND DUP2 MSTORE PUSH1 0x20 ADD SWAP1 DUP2 MSTORE PUSH1 0x20 ADD PUSH0 KECCAK256 SLOAD PUSH2 0x2313 SWAP2 SWAP1 PUSH2 0x3BED JUMP JUMPDEST DUP5 DUP5 PUSH2 0x231F SWAP2 SWAP1 PUSH2 0x3BED JUMP JUMPDEST PUSH2 0x2329 SWAP2 SWAP1 PUSH2 0x34E3 JUMP JUMPDEST SWAP1 POP PUSH0 JUMPDEST DUP2 DUP2 LT ISZERO PUSH2 0x234B JUMPI PUSH2 0x233E DUP10 PUSH2 0x2582 JUMP JUMPDEST DUP1 DUP1 PUSH1 0x1 ADD SWAP2 POP POP PUSH2 0x232D JUMP JUMPDEST POP POP JUMPDEST PUSH1 0xB PUSH0 DUP8 PUSH20 0xFFFFFFFFFFFFFFFFFFFFFFFFFFFFFFFFFFFFFFFF AND PUSH20 0xFFFFFFFFFFFFFFFFFFFFFFFFFFFFFFFFFFFFFFFF AND DUP2 MSTORE PUSH1 0x20 ADD SWAP1 DUP2 MSTORE PUSH1 0x20 ADD PUSH0 KECCAK256 PUSH0 SWAP1 SLOAD SWAP1 PUSH2 0x100 EXP SWAP1 DIV PUSH1 0xFF AND PUSH2 0x2421 JUMPI PUSH0 DUP4 DUP3 PUSH2 0x23A9 SWAP2 SWAP1 PUSH2 0x3BED JUMP JUMPDEST DUP5 PUSH1 0x4 PUSH0 DUP11 PUSH20 0xFFFFFFFFFFFFFFFFFFFFFFFFFFFFFFFFFFFFFFFF AND PUSH20 0xFFFFFFFFFFFFFFFFFFFFFFFFFFFFFFFFFFFFFFFF AND DUP2 MSTORE PUSH1 0x20 ADD SWAP1 DUP2 MSTORE PUSH1 0x20 ADD PUSH0 KECCAK256 SLOAD PUSH2 0x23F2 SWAP2 SWAP1 PUSH2 0x3BED JUMP JUMPDEST PUSH2 0x23FC SWAP2 SWAP1 PUSH2 0x34E3 JUMP JUMPDEST SWAP1 POP PUSH0 JUMPDEST DUP2 DUP2 LT ISZERO PUSH2 0x241E JUMPI PUSH2 0x2411 DUP9 PUSH2 0x27C7 JUMP JUMPDEST DUP1 DUP1 PUSH1 0x1 ADD SWAP2 POP POP PUSH2 0x2400 JUMP JUMPDEST POP POP JUMPDEST DUP6 PUSH20 0xFFFFFFFFFFFFFFFFFFFFFFFFFFFFFFFFFFFFFFFF AND DUP8 PUSH20 0xFFFFFFFFFFFFFFFFFFFFFFFFFFFFFFFFFFFFFFFF AND PUSH32 0xE59FDD36D0D223C0C7D996DB7AD796880F45E1936CB0BB7AC102E7082E031487 DUP8 PUSH1 0x40 MLOAD PUSH2 0x247E SWAP2 SWAP1 PUSH2 0x2DB5 JUMP JUMPDEST PUSH1 0x40 MLOAD DUP1 SWAP2 SUB SWAP1 LOG3 PUSH1 0x1 SWAP4 POP POP POP POP SWAP4 SWAP3 POP POP POP JUMP JUMPDEST DUP2 PUSH1 0x1 SWAP1 DUP2 PUSH2 0x24A3 SWAP2 SWAP1 PUSH2 0x33E7 JUMP JUMPDEST POP DUP1 PUSH1 0x2 SWAP1 DUP2 PUSH2 0x24B3 SWAP2 SWAP1 PUSH2 0x33E7 JUMP JUMPDEST POP POP POP JUMP JUMPDEST PUSH1 0x60 PUSH0 PUSH1 0x1 PUSH2 0x24C6 DUP5 PUSH2 0x2A49 JUMP JUMPDEST ADD SWAP1 POP PUSH0 DUP2 PUSH8 0xFFFFFFFFFFFFFFFF DUP2 GT ISZERO PUSH2 0x24E4 JUMPI PUSH2 0x24E3 PUSH2 0x2DD6 JUMP JUMPDEST JUMPDEST PUSH1 0x40 MLOAD SWAP1 DUP1 DUP3 MSTORE DUP1 PUSH1 0x1F ADD PUSH1 0x1F NOT AND PUSH1 0x20 ADD DUP3 ADD PUSH1 0x40 MSTORE DUP1 ISZERO PUSH2 0x2516 JUMPI DUP2 PUSH1 0x20 ADD PUSH1 0x1 DUP3 MUL DUP1 CALLDATASIZE DUP4 CALLDATACOPY DUP1 DUP3 ADD SWAP2 POP POP SWAP1 POP JUMPDEST POP SWAP1 POP PUSH0 DUP3 PUSH1 0x20 ADD DUP3 ADD SWAP1 POP JUMPDEST PUSH1 0x1 ISZERO PUSH2 0x2577 JUMPI DUP1 DUP1 PUSH1 0x1 SWAP1 SUB SWAP2 POP POP PUSH32 0x3031323334353637383961626364656600000000000000000000000000000000 PUSH1 0xA DUP7 MOD BYTE DUP2 MSTORE8 PUSH1 0xA DUP6 DUP2 PUSH2 0x256C JUMPI PUSH2 0x256B PUSH2 0x3BC0 JUMP JUMPDEST JUMPDEST DIV SWAP5 POP PUSH0 DUP6 SUB PUSH2 0x2523 JUMPI JUMPDEST DUP2 SWAP4 POP POP POP POP SWAP2 SWAP1 POP JUMP JUMPDEST PUSH0 PUSH20 0xFFFFFFFFFFFFFFFFFFFFFFFFFFFFFFFFFFFFFFFF AND DUP2 PUSH20 0xFFFFFFFFFFFFFFFFFFFFFFFFFFFFFFFFFFFFFFFF AND SUB PUSH2 0x25E7 JUMPI PUSH1 0x40 MLOAD PUSH32 0xDDB5DE5E00000000000000000000000000000000000000000000000000000000 DUP2 MSTORE PUSH1 0x4 ADD PUSH1 0x40 MLOAD DUP1 SWAP2 SUB SWAP1 REVERT JUMPDEST PUSH0 PUSH1 0x9 PUSH0 DUP4 PUSH20 0xFFFFFFFFFFFFFFFFFFFFFFFFFFFFFFFFFFFFFFFF AND PUSH20 0xFFFFFFFFFFFFFFFFFFFFFFFFFFFFFFFFFFFFFFFF AND DUP2 MSTORE PUSH1 0x20 ADD SWAP1 DUP2 MSTORE PUSH1 0x20 ADD PUSH0 KECCAK256 PUSH1 0x1 PUSH1 0x9 PUSH0 DUP6 PUSH20 0xFFFFFFFFFFFFFFFFFFFFFFFFFFFFFFFFFFFFFFFF AND PUSH20 0xFFFFFFFFFFFFFFFFFFFFFFFFFFFFFFFFFFFFFFFF AND DUP2 MSTORE PUSH1 0x20 ADD SWAP1 DUP2 MSTORE PUSH1 0x20 ADD PUSH0 KECCAK256 DUP1 SLOAD SWAP1 POP PUSH2 0x2672 SWAP2 SWAP1 PUSH2 0x34E3 JUMP JUMPDEST DUP2 SLOAD DUP2 LT PUSH2 0x2683 JUMPI PUSH2 0x2682 PUSH2 0x3516 JUMP JUMPDEST JUMPDEST SWAP1 PUSH0 MSTORE PUSH1 0x20 PUSH0 KECCAK256 ADD SLOAD SWAP1 POP PUSH1 0x9 PUSH0 DUP4 PUSH20 0xFFFFFFFFFFFFFFFFFFFFFFFFFFFFFFFFFFFFFFFF AND PUSH20 0xFFFFFFFFFFFFFFFFFFFFFFFFFFFFFFFFFFFFFFFF AND DUP2 MSTORE PUSH1 0x20 ADD SWAP1 DUP2 MSTORE PUSH1 0x20 ADD PUSH0 KECCAK256 DUP1 SLOAD DUP1 PUSH2 0x26DB JUMPI PUSH2 0x26DA PUSH2 0x3543 JUMP JUMPDEST JUMPDEST PUSH1 0x1 SWAP1 SUB DUP2 DUP2 SWAP1 PUSH0 MSTORE PUSH1 0x20 PUSH0 KECCAK256 ADD PUSH0 SWAP1 SSTORE SWAP1 SSTORE PUSH1 0xA PUSH0 DUP3 DUP2 MSTORE PUSH1 0x20 ADD SWAP1 DUP2 MSTORE PUSH1 0x20 ADD PUSH0 KECCAK256 PUSH0 SWAP1 SSTORE PUSH1 0x8 PUSH0 DUP3 DUP2 MSTORE PUSH1 0x20 ADD SWAP1 DUP2 MSTORE PUSH1 0x20 ADD PUSH0 KECCAK256 PUSH0 PUSH2 0x100 EXP DUP2 SLOAD SWAP1 PUSH20 0xFFFFFFFFFFFFFFFFFFFFFFFFFFFFFFFFFFFFFFFF MUL NOT AND SWAP1 SSTORE PUSH1 0x6 PUSH0 DUP3 DUP2 MSTORE PUSH1 0x20 ADD SWAP1 DUP2 MSTORE PUSH1 0x20 ADD PUSH0 KECCAK256 PUSH0 PUSH2 0x100 EXP DUP2 SLOAD SWAP1 PUSH20 0xFFFFFFFFFFFFFFFFFFFFFFFFFFFFFFFFFFFFFFFF MUL NOT AND SWAP1 SSTORE DUP1 PUSH0 PUSH20 0xFFFFFFFFFFFFFFFFFFFFFFFFFFFFFFFFFFFFFFFF AND DUP4 PUSH20 0xFFFFFFFFFFFFFFFFFFFFFFFFFFFFFFFFFFFFFFFF AND PUSH32 0xDDF252AD1BE2C89B69C2B068FC378DAA952BA7F163C4A11628F55A4DF523B3EF PUSH1 0x40 MLOAD PUSH1 0x40 MLOAD DUP1 SWAP2 SUB SWAP1 LOG4 POP POP JUMP JUMPDEST PUSH0 PUSH20 0xFFFFFFFFFFFFFFFFFFFFFFFFFFFFFFFFFFFFFFFF AND DUP2 PUSH20 0xFFFFFFFFFFFFFFFFFFFFFFFFFFFFFFFFFFFFFFFF AND SUB PUSH2 0x282C JUMPI PUSH1 0x40 MLOAD PUSH32 0x9C8D2CD200000000000000000000000000000000000000000000000000000000 DUP2 MSTORE PUSH1 0x4 ADD PUSH1 0x40 MLOAD DUP1 SWAP2 SUB SWAP1 REVERT JUMPDEST PUSH1 0x3 PUSH0 DUP2 SLOAD DUP1 SWAP3 SWAP2 SWAP1 PUSH1 0x1 ADD SWAP2 SWAP1 POP SSTORE POP PUSH0 PUSH1 0x3 SLOAD SWAP1 POP PUSH0 PUSH20 0xFFFFFFFFFFFFFFFFFFFFFFFFFFFFFFFFFFFFFFFF AND PUSH1 0x8 PUSH0 DUP4 DUP2 MSTORE PUSH1 0x20 ADD SWAP1 DUP2 MSTORE PUSH1 0x20 ADD PUSH0 KECCAK256 PUSH0 SWAP1 SLOAD SWAP1 PUSH2 0x100 EXP SWAP1 DIV PUSH20 0xFFFFFFFFFFFFFFFFFFFFFFFFFFFFFFFFFFFFFFFF AND PUSH20 0xFFFFFFFFFFFFFFFFFFFFFFFFFFFFFFFFFFFFFFFF AND EQ PUSH2 0x28D8 JUMPI PUSH1 0x40 MLOAD PUSH32 0x23369FA600000000000000000000000000000000000000000000000000000000 DUP2 MSTORE PUSH1 0x4 ADD PUSH1 0x40 MLOAD DUP1 SWAP2 SUB SWAP1 REVERT JUMPDEST DUP2 PUSH1 0x8 PUSH0 DUP4 DUP2 MSTORE PUSH1 0x20 ADD SWAP1 DUP2 MSTORE PUSH1 0x20 ADD PUSH0 KECCAK256 PUSH0 PUSH2 0x100 EXP DUP2 SLOAD DUP2 PUSH20 0xFFFFFFFFFFFFFFFFFFFFFFFFFFFFFFFFFFFFFFFF MUL NOT AND SWAP1 DUP4 PUSH20 0xFFFFFFFFFFFFFFFFFFFFFFFFFFFFFFFFFFFFFFFF AND MUL OR SWAP1 SSTORE POP PUSH1 0x9 PUSH0 DUP4 PUSH20 0xFFFFFFFFFFFFFFFFFFFFFFFFFFFFFFFFFFFFFFFF AND PUSH20 0xFFFFFFFFFFFFFFFFFFFFFFFFFFFFFFFFFFFFFFFF AND DUP2 MSTORE PUSH1 0x20 ADD SWAP1 DUP2 MSTORE PUSH1 0x20 ADD PUSH0 KECCAK256 DUP2 SWAP1 DUP1 PUSH1 0x1 DUP2 SLOAD ADD DUP1 DUP3 SSTORE DUP1 SWAP2 POP POP PUSH1 0x1 SWAP1 SUB SWAP1 PUSH0 MSTORE PUSH1 0x20 PUSH0 KECCAK256 ADD PUSH0 SWAP1 SWAP2 SWAP1 SWAP2 SWAP1 SWAP2 POP SSTORE PUSH1 0x1 PUSH1 0x9 PUSH0 DUP5 PUSH20 0xFFFFFFFFFFFFFFFFFFFFFFFFFFFFFFFFFFFFFFFF AND PUSH20 0xFFFFFFFFFFFFFFFFFFFFFFFFFFFFFFFFFFFFFFFF AND DUP2 MSTORE PUSH1 0x20 ADD SWAP1 DUP2 MSTORE PUSH1 0x20 ADD PUSH0 KECCAK256 DUP1 SLOAD SWAP1 POP PUSH2 0x29D5 SWAP2 SWAP1 PUSH2 0x34E3 JUMP JUMPDEST PUSH1 0xA PUSH0 DUP4 DUP2 MSTORE PUSH1 0x20 ADD SWAP1 DUP2 MSTORE PUSH1 0x20 ADD PUSH0 KECCAK256 DUP2 SWAP1 SSTORE POP DUP1 DUP3 PUSH20 0xFFFFFFFFFFFFFFFFFFFFFFFFFFFFFFFFFFFFFFFF AND PUSH0 PUSH20 0xFFFFFFFFFFFFFFFFFFFFFFFFFFFFFFFFFFFFFFFF AND PUSH32 0xDDF252AD1BE2C89B69C2B068FC378DAA952BA7F163C4A11628F55A4DF523B3EF PUSH1 0x40 MLOAD PUSH1 0x40 MLOAD DUP1 SWAP2 SUB SWAP1 LOG4 POP POP JUMP JUMPDEST PUSH0 DUP1 PUSH0 SWAP1 POP PUSH27 0x184F03E93FF9F4DAA797ED6E38ED64BF6A1F010000000000000000 DUP4 LT PUSH2 0x2AA5 JUMPI PUSH27 0x184F03E93FF9F4DAA797ED6E38ED64BF6A1F010000000000000000 DUP4 DUP2 PUSH2 0x2A9B JUMPI PUSH2 0x2A9A PUSH2 0x3BC0 JUMP JUMPDEST JUMPDEST DIV SWAP3 POP PUSH1 0x40 DUP2 ADD SWAP1 POP JUMPDEST PUSH14 0x4EE2D6D415B85ACEF8100000000 DUP4 LT PUSH2 0x2AE2 JUMPI PUSH14 0x4EE2D6D415B85ACEF8100000000 DUP4 DUP2 PUSH2 0x2AD8 JUMPI PUSH2 0x2AD7 PUSH2 0x3BC0 JUMP JUMPDEST JUMPDEST DIV SWAP3 POP PUSH1 0x20 DUP2 ADD SWAP1 POP JUMPDEST PUSH7 0x2386F26FC10000 DUP4 LT PUSH2 0x2B11 JUMPI PUSH7 0x2386F26FC10000 DUP4 DUP2 PUSH2 0x2B07 JUMPI PUSH2 0x2B06 PUSH2 0x3BC0 JUMP JUMPDEST JUMPDEST DIV SWAP3 POP PUSH1 0x10 DUP2 ADD SWAP1 POP JUMPDEST PUSH4 0x5F5E100 DUP4 LT PUSH2 0x2B3A JUMPI PUSH4 0x5F5E100 DUP4 DUP2 PUSH2 0x2B30 JUMPI PUSH2 0x2B2F PUSH2 0x3BC0 JUMP JUMPDEST JUMPDEST DIV SWAP3 POP PUSH1 0x8 DUP2 ADD SWAP1 POP JUMPDEST PUSH2 0x2710 DUP4 LT PUSH2 0x2B5F JUMPI PUSH2 0x2710 DUP4 DUP2 PUSH2 0x2B55 JUMPI PUSH2 0x2B54 PUSH2 0x3BC0 JUMP JUMPDEST JUMPDEST DIV SWAP3 POP PUSH1 0x4 DUP2 ADD SWAP1 POP JUMPDEST PUSH1 0x64 DUP4 LT PUSH2 0x2B82 JUMPI PUSH1 0x64 DUP4 DUP2 PUSH2 0x2B78 JUMPI PUSH2 0x2B77 PUSH2 0x3BC0 JUMP JUMPDEST JUMPDEST DIV SWAP3 POP PUSH1 0x2 DUP2 ADD SWAP1 POP JUMPDEST PUSH1 0xA DUP4 LT PUSH2 0x2B91 JUMPI PUSH1 0x1 DUP2 ADD SWAP1 POP JUMPDEST DUP1 SWAP2 POP POP SWAP2 SWAP1 POP JUMP JUMPDEST PUSH0 DUP2 MLOAD SWAP1 POP SWAP2 SWAP1 POP JUMP JUMPDEST PUSH0 DUP3 DUP3 MSTORE PUSH1 0x20 DUP3 ADD SWAP1 POP SWAP3 SWAP2 POP POP JUMP JUMPDEST PUSH0 JUMPDEST DUP4 DUP2 LT ISZERO PUSH2 0x2BD1 JUMPI DUP1 DUP3 ADD MLOAD DUP2 DUP5 ADD MSTORE PUSH1 0x20 DUP2 ADD SWAP1 POP PUSH2 0x2BB6 JUMP JUMPDEST PUSH0 DUP5 DUP5 ADD MSTORE POP POP POP POP JUMP JUMPDEST PUSH0 PUSH1 0x1F NOT PUSH1 0x1F DUP4 ADD AND SWAP1 POP SWAP2 SWAP1 POP JUMP JUMPDEST PUSH0 PUSH2 0x2BF6 DUP3 PUSH2 0x2B9A JUMP JUMPDEST PUSH2 0x2C00 DUP2 DUP6 PUSH2 0x2BA4 JUMP JUMPDEST SWAP4 POP PUSH2 0x2C10 DUP2 DUP6 PUSH1 0x20 DUP7 ADD PUSH2 0x2BB4 JUMP JUMPDEST PUSH2 0x2C19 DUP2 PUSH2 0x2BDC JUMP JUMPDEST DUP5 ADD SWAP2 POP POP SWAP3 SWAP2 POP POP JUMP JUMPDEST PUSH0 PUSH1 0x20 DUP3 ADD SWAP1 POP DUP2 DUP2 SUB PUSH0 DUP4 ADD MSTORE PUSH2 0x2C3C DUP2 DUP5 PUSH2 0x2BEC JUMP JUMPDEST SWAP1 POP SWAP3 SWAP2 POP POP JUMP JUMPDEST PUSH0 PUSH1 0x40 MLOAD SWAP1 POP SWAP1 JUMP JUMPDEST PUSH0 DUP1 REVERT JUMPDEST PUSH0 DUP1 REVERT JUMPDEST PUSH0 DUP2 SWAP1 POP SWAP2 SWAP1 POP JUMP JUMPDEST PUSH2 0x2C67 DUP2 PUSH2 0x2C55 JUMP JUMPDEST DUP2 EQ PUSH2 0x2C71 JUMPI PUSH0 DUP1 REVERT JUMPDEST POP JUMP JUMPDEST PUSH0 DUP2 CALLDATALOAD SWAP1 POP PUSH2 0x2C82 DUP2 PUSH2 0x2C5E JUMP JUMPDEST SWAP3 SWAP2 POP POP JUMP JUMPDEST PUSH0 PUSH1 0x20 DUP3 DUP5 SUB SLT ISZERO PUSH2 0x2C9D JUMPI PUSH2 0x2C9C PUSH2 0x2C4D JUMP JUMPDEST JUMPDEST PUSH0 PUSH2 0x2CAA DUP5 DUP3 DUP6 ADD PUSH2 0x2C74 JUMP JUMPDEST SWAP2 POP POP SWAP3 SWAP2 POP POP JUMP JUMPDEST PUSH0 PUSH20 0xFFFFFFFFFFFFFFFFFFFFFFFFFFFFFFFFFFFFFFFF DUP3 AND SWAP1 POP SWAP2 SWAP1 POP JUMP JUMPDEST PUSH0 PUSH2 0x2CDC DUP3 PUSH2 0x2CB3 JUMP JUMPDEST SWAP1 POP SWAP2 SWAP1 POP JUMP JUMPDEST PUSH2 0x2CEC DUP2 PUSH2 0x2CD2 JUMP JUMPDEST DUP3 MSTORE POP POP JUMP JUMPDEST PUSH0 PUSH1 0x20 DUP3 ADD SWAP1 POP PUSH2 0x2D05 PUSH0 DUP4 ADD DUP5 PUSH2 0x2CE3 JUMP JUMPDEST SWAP3 SWAP2 POP POP JUMP JUMPDEST PUSH2 0x2D14 DUP2 PUSH2 0x2CD2 JUMP JUMPDEST DUP2 EQ PUSH2 0x2D1E JUMPI PUSH0 DUP1 REVERT JUMPDEST POP JUMP JUMPDEST PUSH0 DUP2 CALLDATALOAD SWAP1 POP PUSH2 0x2D2F DUP2 PUSH2 0x2D0B JUMP JUMPDEST SWAP3 SWAP2 POP POP JUMP JUMPDEST PUSH0 DUP1 PUSH1 0x40 DUP4 DUP6 SUB SLT ISZERO PUSH2 0x2D4B JUMPI PUSH2 0x2D4A PUSH2 0x2C4D JUMP JUMPDEST JUMPDEST PUSH0 PUSH2 0x2D58 DUP6 DUP3 DUP7 ADD PUSH2 0x2D21 JUMP JUMPDEST SWAP3 POP POP PUSH1 0x20 PUSH2 0x2D69 DUP6 DUP3 DUP7 ADD PUSH2 0x2C74 JUMP JUMPDEST SWAP2 POP POP SWAP3 POP SWAP3 SWAP1 POP JUMP JUMPDEST PUSH0 DUP2 ISZERO ISZERO SWAP1 POP SWAP2 SWAP1 POP JUMP JUMPDEST PUSH2 0x2D87 DUP2 PUSH2 0x2D73 JUMP JUMPDEST DUP3 MSTORE POP POP JUMP JUMPDEST PUSH0 PUSH1 0x20 DUP3 ADD SWAP1 POP PUSH2 0x2DA0 PUSH0 DUP4 ADD DUP5 PUSH2 0x2D7E JUMP JUMPDEST SWAP3 SWAP2 POP POP JUMP JUMPDEST PUSH2 0x2DAF DUP2 PUSH2 0x2C55 JUMP JUMPDEST DUP3 MSTORE POP POP JUMP JUMPDEST PUSH0 PUSH1 0x20 DUP3 ADD SWAP1 POP PUSH2 0x2DC8 PUSH0 DUP4 ADD DUP5 PUSH2 0x2DA6 JUMP JUMPDEST SWAP3 SWAP2 POP POP JUMP JUMPDEST PUSH0 DUP1 REVERT JUMPDEST PUSH0 DUP1 REVERT JUMPDEST PUSH32 0x4E487B7100000000000000000000000000000000000000000000000000000000 PUSH0 MSTORE PUSH1 0x41 PUSH1 0x4 MSTORE PUSH1 0x24 PUSH0 REVERT JUMPDEST PUSH2 0x2E0C DUP3 PUSH2 0x2BDC JUMP JUMPDEST DUP2 ADD DUP2 DUP2 LT PUSH8 0xFFFFFFFFFFFFFFFF DUP3 GT OR ISZERO PUSH2 0x2E2B JUMPI PUSH2 0x2E2A PUSH2 0x2DD6 JUMP JUMPDEST JUMPDEST DUP1 PUSH1 0x40 MSTORE POP POP POP JUMP JUMPDEST PUSH0 PUSH2 0x2E3D PUSH2 0x2C44 JUMP JUMPDEST SWAP1 POP PUSH2 0x2E49 DUP3 DUP3 PUSH2 0x2E03 JUMP JUMPDEST SWAP2 SWAP1 POP JUMP JUMPDEST PUSH0 PUSH8 0xFFFFFFFFFFFFFFFF DUP3 GT ISZERO PUSH2 0x2E68 JUMPI PUSH2 0x2E67 PUSH2 0x2DD6 JUMP JUMPDEST JUMPDEST PUSH2 0x2E71 DUP3 PUSH2 0x2BDC JUMP JUMPDEST SWAP1 POP PUSH1 0x20 DUP2 ADD SWAP1 POP SWAP2 SWAP1 POP JUMP JUMPDEST DUP3 DUP2 DUP4 CALLDATACOPY PUSH0 DUP4 DUP4 ADD MSTORE POP POP POP JUMP JUMPDEST PUSH0 PUSH2 0x2E9E PUSH2 0x2E99 DUP5 PUSH2 0x2E4E JUMP JUMPDEST PUSH2 0x2E34 JUMP JUMPDEST SWAP1 POP DUP3 DUP2 MSTORE PUSH1 0x20 DUP2 ADD DUP5 DUP5 DUP5 ADD GT ISZERO PUSH2 0x2EBA JUMPI PUSH2 0x2EB9 PUSH2 0x2DD2 JUMP JUMPDEST JUMPDEST PUSH2 0x2EC5 DUP5 DUP3 DUP6 PUSH2 0x2E7E JUMP JUMPDEST POP SWAP4 SWAP3 POP POP POP JUMP JUMPDEST PUSH0 DUP3 PUSH1 0x1F DUP4 ADD SLT PUSH2 0x2EE1 JUMPI PUSH2 0x2EE0 PUSH2 0x2DCE JUMP JUMPDEST JUMPDEST DUP2 CALLDATALOAD PUSH2 0x2EF1 DUP5 DUP3 PUSH1 0x20 DUP7 ADD PUSH2 0x2E8C JUMP JUMPDEST SWAP2 POP POP SWAP3 SWAP2 POP POP JUMP JUMPDEST PUSH0 PUSH1 0x20 DUP3 DUP5 SUB SLT ISZERO PUSH2 0x2F0F JUMPI PUSH2 0x2F0E PUSH2 0x2C4D JUMP JUMPDEST JUMPDEST PUSH0 DUP3 ADD CALLDATALOAD PUSH8 0xFFFFFFFFFFFFFFFF DUP2 GT ISZERO PUSH2 0x2F2C JUMPI PUSH2 0x2F2B PUSH2 0x2C51 JUMP JUMPDEST JUMPDEST PUSH2 0x2F38 DUP5 DUP3 DUP6 ADD PUSH2 0x2ECD JUMP JUMPDEST SWAP2 POP POP SWAP3 SWAP2 POP POP JUMP JUMPDEST PUSH0 DUP1 PUSH0 PUSH1 0x60 DUP5 DUP7 SUB SLT ISZERO PUSH2 0x2F58 JUMPI PUSH2 0x2F57 PUSH2 0x2C4D JUMP JUMPDEST JUMPDEST PUSH0 PUSH2 0x2F65 DUP7 DUP3 DUP8 ADD PUSH2 0x2D21 JUMP JUMPDEST SWAP4 POP POP PUSH1 0x20 PUSH2 0x2F76 DUP7 DUP3 DUP8 ADD PUSH2 0x2D21 JUMP JUMPDEST SWAP3 POP POP PUSH1 0x40 PUSH2 0x2F87 DUP7 DUP3 DUP8 ADD PUSH2 0x2C74 JUMP JUMPDEST SWAP2 POP POP SWAP3 POP SWAP3 POP SWAP3 JUMP JUMPDEST PUSH0 PUSH1 0xFF DUP3 AND SWAP1 POP SWAP2 SWAP1 POP JUMP JUMPDEST PUSH2 0x2FA6 DUP2 PUSH2 0x2F91 JUMP JUMPDEST DUP3 MSTORE POP POP JUMP JUMPDEST PUSH0 PUSH1 0x20 DUP3 ADD SWAP1 POP PUSH2 0x2FBF PUSH0 DUP4 ADD DUP5 PUSH2 0x2F9D JUMP JUMPDEST SWAP3 SWAP2 POP POP JUMP JUMPDEST PUSH0 DUP1 PUSH1 0x40 DUP4 DUP6 SUB SLT ISZERO PUSH2 0x2FDB JUMPI PUSH2 0x2FDA PUSH2 0x2C4D JUMP JUMPDEST JUMPDEST PUSH0 DUP4 ADD CALLDATALOAD PUSH8 0xFFFFFFFFFFFFFFFF DUP2 GT ISZERO PUSH2 0x2FF8 JUMPI PUSH2 0x2FF7 PUSH2 0x2C51 JUMP JUMPDEST JUMPDEST PUSH2 0x3004 DUP6 DUP3 DUP7 ADD PUSH2 0x2ECD JUMP JUMPDEST SWAP3 POP POP PUSH1 0x20 DUP4 ADD CALLDATALOAD PUSH8 0xFFFFFFFFFFFFFFFF DUP2 GT ISZERO PUSH2 0x3025 JUMPI PUSH2 0x3024 PUSH2 0x2C51 JUMP JUMPDEST JUMPDEST PUSH2 0x3031 DUP6 DUP3 DUP7 ADD PUSH2 0x2ECD JUMP JUMPDEST SWAP2 POP POP SWAP3 POP SWAP3 SWAP1 POP JUMP JUMPDEST PUSH2 0x3044 DUP2 PUSH2 0x2D73 JUMP JUMPDEST DUP2 EQ PUSH2 0x304E JUMPI PUSH0 DUP1 REVERT JUMPDEST POP JUMP JUMPDEST PUSH0 DUP2 CALLDATALOAD SWAP1 POP PUSH2 0x305F DUP2 PUSH2 0x303B JUMP JUMPDEST SWAP3 SWAP2 POP POP JUMP JUMPDEST PUSH0 DUP1 PUSH1 0x40 DUP4 DUP6 SUB SLT ISZERO PUSH2 0x307B JUMPI PUSH2 0x307A PUSH2 0x2C4D JUMP JUMPDEST JUMPDEST PUSH0 PUSH2 0x3088 DUP6 DUP3 DUP7 ADD PUSH2 0x2D21 JUMP JUMPDEST SWAP3 POP POP PUSH1 0x20 PUSH2 0x3099 DUP6 DUP3 DUP7 ADD PUSH2 0x3051 JUMP JUMPDEST SWAP2 POP POP SWAP3 POP SWAP3 SWAP1 POP JUMP JUMPDEST PUSH0 PUSH1 0x20 DUP3 DUP5 SUB SLT ISZERO PUSH2 0x30B8 JUMPI PUSH2 0x30B7 PUSH2 0x2C4D JUMP JUMPDEST JUMPDEST PUSH0 PUSH2 0x30C5 DUP5 DUP3 DUP6 ADD PUSH2 0x2D21 JUMP JUMPDEST SWAP2 POP POP SWAP3 SWAP2 POP POP JUMP JUMPDEST PUSH0 DUP1 REVERT JUMPDEST PUSH0 DUP1 REVERT JUMPDEST PUSH0 DUP1 DUP4 PUSH1 0x1F DUP5 ADD SLT PUSH2 0x30EB JUMPI PUSH2 0x30EA PUSH2 0x2DCE JUMP JUMPDEST JUMPDEST DUP3 CALLDATALOAD SWAP1 POP PUSH8 0xFFFFFFFFFFFFFFFF DUP2 GT ISZERO PUSH2 0x3108 JUMPI PUSH2 0x3107 PUSH2 0x30CE JUMP JUMPDEST JUMPDEST PUSH1 0x20 DUP4 ADD SWAP2 POP DUP4 PUSH1 0x1 DUP3 MUL DUP4 ADD GT ISZERO PUSH2 0x3124 JUMPI PUSH2 0x3123 PUSH2 0x30D2 JUMP JUMPDEST JUMPDEST SWAP3 POP SWAP3 SWAP1 POP JUMP JUMPDEST PUSH0 DUP1 PUSH0 DUP1 PUSH0 PUSH1 0x80 DUP7 DUP9 SUB SLT ISZERO PUSH2 0x3144 JUMPI PUSH2 0x3143 PUSH2 0x2C4D JUMP JUMPDEST JUMPDEST PUSH0 PUSH2 0x3151 DUP9 DUP3 DUP10 ADD PUSH2 0x2D21 JUMP JUMPDEST SWAP6 POP POP PUSH1 0x20 PUSH2 0x3162 DUP9 DUP3 DUP10 ADD PUSH2 0x2D21 JUMP JUMPDEST SWAP5 POP POP PUSH1 0x40 PUSH2 0x3173 DUP9 DUP3 DUP10 ADD PUSH2 0x2C74 JUMP JUMPDEST SWAP4 POP POP PUSH1 0x60 DUP7 ADD CALLDATALOAD PUSH8 0xFFFFFFFFFFFFFFFF DUP2 GT ISZERO PUSH2 0x3194 JUMPI PUSH2 0x3193 PUSH2 0x2C51 JUMP JUMPDEST JUMPDEST PUSH2 0x31A0 DUP9 DUP3 DUP10 ADD PUSH2 0x30D6 JUMP JUMPDEST SWAP3 POP SWAP3 POP POP SWAP3 SWAP6 POP SWAP3 SWAP6 SWAP1 SWAP4 POP JUMP JUMPDEST PUSH0 DUP1 PUSH1 0x40 DUP4 DUP6 SUB SLT ISZERO PUSH2 0x31C5 JUMPI PUSH2 0x31C4 PUSH2 0x2C4D JUMP JUMPDEST JUMPDEST PUSH0 PUSH2 0x31D2 DUP6 DUP3 DUP7 ADD PUSH2 0x2D21 JUMP JUMPDEST SWAP3 POP POP PUSH1 0x20 PUSH2 0x31E3 DUP6 DUP3 DUP7 ADD PUSH2 0x2D21 JUMP JUMPDEST SWAP2 POP POP SWAP3 POP SWAP3 SWAP1 POP JUMP JUMPDEST PUSH32 0x4E487B7100000000000000000000000000000000000000000000000000000000 PUSH0 MSTORE PUSH1 0x22 PUSH1 0x4 MSTORE PUSH1 0x24 PUSH0 REVERT JUMPDEST PUSH0 PUSH1 0x2 DUP3 DIV SWAP1 POP PUSH1 0x1 DUP3 AND DUP1 PUSH2 0x3231 JUMPI PUSH1 0x7F DUP3 AND SWAP2 POP JUMPDEST PUSH1 0x20 DUP3 LT DUP2 SUB PUSH2 0x3244 JUMPI PUSH2 0x3243 PUSH2 0x31ED JUMP JUMPDEST JUMPDEST POP SWAP2 SWAP1 POP JUMP JUMPDEST PUSH0 DUP2 SWAP1 POP DUP2 PUSH0 MSTORE PUSH1 0x20 PUSH0 KECCAK256 SWAP1 POP SWAP2 SWAP1 POP JUMP JUMPDEST PUSH0 PUSH1 0x20 PUSH1 0x1F DUP4 ADD DIV SWAP1 POP SWAP2 SWAP1 POP JUMP JUMPDEST PUSH0 DUP3 DUP3 SHL SWAP1 POP SWAP3 SWAP2 POP POP JUMP JUMPDEST PUSH0 PUSH1 0x8 DUP4 MUL PUSH2 0x32A6 PUSH32 0xFFFFFFFFFFFFFFFFFFFFFFFFFFFFFFFFFFFFFFFFFFFFFFFFFFFFFFFFFFFFFFFF DUP3 PUSH2 0x326B JUMP JUMPDEST PUSH2 0x32B0 DUP7 DUP4 PUSH2 0x326B JUMP JUMPDEST SWAP6 POP DUP1 NOT DUP5 AND SWAP4 POP DUP1 DUP7 AND DUP5 OR SWAP3 POP POP POP SWAP4 SWAP3 POP POP POP JUMP JUMPDEST PUSH0 DUP2 SWAP1 POP SWAP2 SWAP1 POP JUMP JUMPDEST PUSH0 PUSH2 0x32EB PUSH2 0x32E6 PUSH2 0x32E1 DUP5 PUSH2 0x2C55 JUMP JUMPDEST PUSH2 0x32C8 JUMP JUMPDEST PUSH2 0x2C55 JUMP JUMPDEST SWAP1 POP SWAP2 SWAP1 POP JUMP JUMPDEST PUSH0 DUP2 SWAP1 POP SWAP2 SWAP1 POP JUMP JUMPDEST PUSH2 0x3304 DUP4 PUSH2 0x32D1 JUMP JUMPDEST PUSH2 0x3318 PUSH2 0x3310 DUP3 PUSH2 0x32F2 JUMP JUMPDEST DUP5 DUP5 SLOAD PUSH2 0x3277 JUMP JUMPDEST DUP3 SSTORE POP POP POP POP JUMP JUMPDEST PUSH0 SWAP1 JUMP JUMPDEST PUSH2 0x332C PUSH2 0x3320 JUMP JUMPDEST PUSH2 0x3337 DUP2 DUP5 DUP5 PUSH2 0x32FB JUMP JUMPDEST POP POP POP JUMP JUMPDEST JUMPDEST DUP2 DUP2 LT ISZERO PUSH2 0x335A JUMPI PUSH2 0x334F PUSH0 DUP3 PUSH2 0x3324 JUMP JUMPDEST PUSH1 0x1 DUP2 ADD SWAP1 POP PUSH2 0x333D JUMP JUMPDEST POP POP JUMP JUMPDEST PUSH1 0x1F DUP3 GT ISZERO PUSH2 0x339F JUMPI PUSH2 0x3370 DUP2 PUSH2 0x324A JUMP JUMPDEST PUSH2 0x3379 DUP5 PUSH2 0x325C JUMP JUMPDEST DUP2 ADD PUSH1 0x20 DUP6 LT ISZERO PUSH2 0x3388 JUMPI DUP2 SWAP1 POP JUMPDEST PUSH2 0x339C PUSH2 0x3394 DUP6 PUSH2 0x325C JUMP JUMPDEST DUP4 ADD DUP3 PUSH2 0x333C JUMP JUMPDEST POP POP JUMPDEST POP POP POP JUMP JUMPDEST PUSH0 DUP3 DUP3 SHR SWAP1 POP SWAP3 SWAP2 POP POP JUMP JUMPDEST PUSH0 PUSH2 0x33BF PUSH0 NOT DUP5 PUSH1 0x8 MUL PUSH2 0x33A4 JUMP JUMPDEST NOT DUP1 DUP4 AND SWAP2 POP POP SWAP3 SWAP2 POP POP JUMP JUMPDEST PUSH0 PUSH2 0x33D7 DUP4 DUP4 PUSH2 0x33B0 JUMP JUMPDEST SWAP2 POP DUP3 PUSH1 0x2 MUL DUP3 OR SWAP1 POP SWAP3 SWAP2 POP POP JUMP JUMPDEST PUSH2 0x33F0 DUP3 PUSH2 0x2B9A JUMP JUMPDEST PUSH8 0xFFFFFFFFFFFFFFFF DUP2 GT ISZERO PUSH2 0x3409 JUMPI PUSH2 0x3408 PUSH2 0x2DD6 JUMP JUMPDEST JUMPDEST PUSH2 0x3413 DUP3 SLOAD PUSH2 0x321A JUMP JUMPDEST PUSH2 0x341E DUP3 DUP3 DUP6 PUSH2 0x335E JUMP JUMPDEST PUSH0 PUSH1 0x20 SWAP1 POP PUSH1 0x1F DUP4 GT PUSH1 0x1 DUP2 EQ PUSH2 0x344F JUMPI PUSH0 DUP5 ISZERO PUSH2 0x343D JUMPI DUP3 DUP8 ADD MLOAD SWAP1 POP JUMPDEST PUSH2 0x3447 DUP6 DUP3 PUSH2 0x33CC JUMP JUMPDEST DUP7 SSTORE POP PUSH2 0x34AE JUMP JUMPDEST PUSH1 0x1F NOT DUP5 AND PUSH2 0x345D DUP7 PUSH2 0x324A JUMP JUMPDEST PUSH0 JUMPDEST DUP3 DUP2 LT ISZERO PUSH2 0x3484 JUMPI DUP5 DUP10 ADD MLOAD DUP3 SSTORE PUSH1 0x1 DUP3 ADD SWAP2 POP PUSH1 0x20 DUP6 ADD SWAP5 POP PUSH1 0x20 DUP2 ADD SWAP1 POP PUSH2 0x345F JUMP JUMPDEST DUP7 DUP4 LT ISZERO PUSH2 0x34A1 JUMPI DUP5 DUP10 ADD MLOAD PUSH2 0x349D PUSH1 0x1F DUP10 AND DUP3 PUSH2 0x33B0 JUMP JUMPDEST DUP4 SSTORE POP JUMPDEST PUSH1 0x1 PUSH1 0x2 DUP9 MUL ADD DUP9 SSTORE POP POP POP JUMPDEST POP POP POP POP POP POP JUMP JUMPDEST PUSH32 0x4E487B7100000000000000000000000000000000000000000000000000000000 PUSH0 MSTORE PUSH1 0x11 PUSH1 0x4 MSTORE PUSH1 0x24 PUSH0 REVERT JUMPDEST PUSH0 PUSH2 0x34ED DUP3 PUSH2 0x2C55 JUMP JUMPDEST SWAP2 POP PUSH2 0x34F8 DUP4 PUSH2 0x2C55 JUMP JUMPDEST SWAP3 POP DUP3 DUP3 SUB SWAP1 POP DUP2 DUP2 GT ISZERO PUSH2 0x3510 JUMPI PUSH2 0x350F PUSH2 0x34B6 JUMP JUMPDEST JUMPDEST SWAP3 SWAP2 POP POP JUMP JUMPDEST PUSH32 0x4E487B7100000000000000000000000000000000000000000000000000000000 PUSH0 MSTORE PUSH1 0x32 PUSH1 0x4 MSTORE PUSH1 0x24 PUSH0 REVERT JUMPDEST PUSH32 0x4E487B7100000000000000000000000000000000000000000000000000000000 PUSH0 MSTORE PUSH1 0x31 PUSH1 0x4 MSTORE PUSH1 0x24 PUSH0 REVERT JUMPDEST PUSH0 DUP3 DUP3 MSTORE PUSH1 0x20 DUP3 ADD SWAP1 POP SWAP3 SWAP2 POP POP JUMP JUMPDEST POP JUMP JUMPDEST PUSH0 PUSH2 0x358E PUSH0 DUP4 PUSH2 0x3570 JUMP JUMPDEST SWAP2 POP PUSH2 0x3599 DUP3 PUSH2 0x3580 JUMP JUMPDEST PUSH0 DUP3 ADD SWAP1 POP SWAP2 SWAP1 POP JUMP JUMPDEST PUSH0 PUSH1 0x80 DUP3 ADD SWAP1 POP PUSH2 0x35B6 PUSH0 DUP4 ADD DUP7 PUSH2 0x2CE3 JUMP JUMPDEST PUSH2 0x35C3 PUSH1 0x20 DUP4 ADD DUP6 PUSH2 0x2CE3 JUMP JUMPDEST PUSH2 0x35D0 PUSH1 0x40 DUP4 ADD DUP5 PUSH2 0x2DA6 JUMP JUMPDEST DUP2 DUP2 SUB PUSH1 0x60 DUP4 ADD MSTORE PUSH2 0x35E1 DUP2 PUSH2 0x3583 JUMP JUMPDEST SWAP1 POP SWAP5 SWAP4 POP POP POP POP JUMP JUMPDEST PUSH0 PUSH32 0xFFFFFFFF00000000000000000000000000000000000000000000000000000000 DUP3 AND SWAP1 POP SWAP2 SWAP1 POP JUMP JUMPDEST PUSH2 0x361F DUP2 PUSH2 0x35EB JUMP JUMPDEST DUP2 EQ PUSH2 0x3629 JUMPI PUSH0 DUP1 REVERT JUMPDEST POP JUMP JUMPDEST PUSH0 DUP2 MLOAD SWAP1 POP PUSH2 0x363A DUP2 PUSH2 0x3616 JUMP JUMPDEST SWAP3 SWAP2 POP POP JUMP JUMPDEST PUSH0 PUSH1 0x20 DUP3 DUP5 SUB SLT ISZERO PUSH2 0x3655 JUMPI PUSH2 0x3654 PUSH2 0x2C4D JUMP JUMPDEST JUMPDEST PUSH0 PUSH2 0x3662 DUP5 DUP3 DUP6 ADD PUSH2 0x362C JUMP JUMPDEST SWAP2 POP POP SWAP3 SWAP2 POP POP JUMP JUMPDEST PUSH0 PUSH2 0x3676 DUP4 DUP6 PUSH2 0x3570 JUMP JUMPDEST SWAP4 POP PUSH2 0x3683 DUP4 DUP6 DUP5 PUSH2 0x2E7E JUMP JUMPDEST PUSH2 0x368C DUP4 PUSH2 0x2BDC JUMP JUMPDEST DUP5 ADD SWAP1 POP SWAP4 SWAP3 POP POP POP JUMP JUMPDEST PUSH0 PUSH1 0x80 DUP3 ADD SWAP1 POP PUSH2 0x36AA PUSH0 DUP4 ADD DUP9 PUSH2 0x2CE3 JUMP JUMPDEST PUSH2 0x36B7 PUSH1 0x20 DUP4 ADD DUP8 PUSH2 0x2CE3 JUMP JUMPDEST PUSH2 0x36C4 PUSH1 0x40 DUP4 ADD DUP7 PUSH2 0x2DA6 JUMP JUMPDEST DUP2 DUP2 SUB PUSH1 0x60 DUP4 ADD MSTORE PUSH2 0x36D7 DUP2 DUP5 DUP7 PUSH2 0x366B JUMP JUMPDEST SWAP1 POP SWAP7 SWAP6 POP POP POP POP POP POP JUMP JUMPDEST PUSH0 DUP2 SWAP1 POP SWAP3 SWAP2 POP POP JUMP JUMPDEST PUSH0 DUP2 SLOAD PUSH2 0x36F9 DUP2 PUSH2 0x321A JUMP JUMPDEST PUSH2 0x3703 DUP2 DUP7 PUSH2 0x36E3 JUMP JUMPDEST SWAP5 POP PUSH1 0x1 DUP3 AND PUSH0 DUP2 EQ PUSH2 0x371D JUMPI PUSH1 0x1 DUP2 EQ PUSH2 0x3732 JUMPI PUSH2 0x3764 JUMP JUMPDEST PUSH1 0xFF NOT DUP4 AND DUP7 MSTORE DUP2 ISZERO ISZERO DUP3 MUL DUP7 ADD SWAP4 POP PUSH2 0x3764 JUMP JUMPDEST PUSH2 0x373B DUP6 PUSH2 0x324A JUMP JUMPDEST PUSH0 JUMPDEST DUP4 DUP2 LT ISZERO PUSH2 0x375C JUMPI DUP2 SLOAD DUP2 DUP10 ADD MSTORE PUSH1 0x1 DUP3 ADD SWAP2 POP PUSH1 0x20 DUP2 ADD SWAP1 POP PUSH2 0x373D JUMP JUMPDEST DUP4 DUP9 ADD SWAP6 POP POP POP JUMPDEST POP POP POP SWAP3 SWAP2 POP POP JUMP JUMPDEST PUSH0 PUSH2 0x3777 DUP3 PUSH2 0x2B9A JUMP JUMPDEST PUSH2 0x3781 DUP2 DUP6 PUSH2 0x36E3 JUMP JUMPDEST SWAP4 POP PUSH2 0x3791 DUP2 DUP6 PUSH1 0x20 DUP7 ADD PUSH2 0x2BB4 JUMP JUMPDEST DUP1 DUP5 ADD SWAP2 POP POP SWAP3 SWAP2 POP POP JUMP JUMPDEST PUSH0 PUSH2 0x37A8 DUP3 DUP6 PUSH2 0x36ED JUMP JUMPDEST SWAP2 POP PUSH2 0x37B4 DUP3 DUP5 PUSH2 0x376D JUMP JUMPDEST SWAP2 POP DUP2 SWAP1 POP SWAP4 SWAP3 POP POP POP JUMP JUMPDEST PUSH0 DUP2 SWAP1 POP SWAP2 SWAP1 POP JUMP JUMPDEST PUSH2 0x37DA PUSH2 0x37D5 DUP3 PUSH2 0x2C55 JUMP JUMPDEST PUSH2 0x37C0 JUMP JUMPDEST DUP3 MSTORE POP POP JUMP JUMPDEST PUSH0 PUSH2 0x37EB DUP3 DUP5 PUSH2 0x37C9 JUMP JUMPDEST PUSH1 0x20 DUP3 ADD SWAP2 POP DUP2 SWAP1 POP SWAP3 SWAP2 POP POP JUMP JUMPDEST PUSH32 0x7B226E616D65223A202250616E646F7261202300000000000000000000000000 DUP2 MSTORE POP JUMP JUMPDEST PUSH0 PUSH2 0x382A DUP3 PUSH2 0x37FA JUMP JUMPDEST PUSH1 0x13 DUP3 ADD SWAP2 POP PUSH2 0x383A DUP3 DUP5 PUSH2 0x376D JUMP JUMPDEST SWAP2 POP DUP2 SWAP1 POP SWAP3 SWAP2 POP POP JUMP JUMPDEST PUSH32 0x222C226465736372697074696F6E223A224120636F6C6C656374696F6E206F66 PUSH0 DUP3 ADD MSTORE PUSH32 0x2031302C303030205265706C6963616E747320656E61626C6564206279204552 PUSH1 0x20 DUP3 ADD MSTORE PUSH32 0x433430342C20616E206578706572696D656E74616C20746F6B656E207374616E PUSH1 0x40 DUP3 ADD MSTORE PUSH32 0x646172642E222C2265787465726E616C5F75726C223A2268747470733A2F2F70 PUSH1 0x60 DUP3 ADD MSTORE PUSH32 0x616E646F72612E6275696C64222C22696D616765223A22000000000000000000 PUSH1 0x80 DUP3 ADD MSTORE POP JUMP JUMPDEST PUSH0 PUSH2 0x3911 PUSH1 0x97 DUP4 PUSH2 0x36E3 JUMP JUMPDEST SWAP2 POP PUSH2 0x391C DUP3 PUSH2 0x3845 JUMP JUMPDEST PUSH1 0x97 DUP3 ADD SWAP1 POP SWAP2 SWAP1 POP JUMP JUMPDEST PUSH0 PUSH2 0x3932 DUP3 DUP5 PUSH2 0x376D JUMP JUMPDEST SWAP2 POP PUSH2 0x393D DUP3 PUSH2 0x3905 JUMP JUMPDEST SWAP2 POP DUP2 SWAP1 POP SWAP3 SWAP2 POP POP JUMP JUMPDEST PUSH0 PUSH2 0x3953 DUP3 DUP6 PUSH2 0x376D JUMP JUMPDEST SWAP2 POP PUSH2 0x395F DUP3 DUP5 PUSH2 0x376D JUMP JUMPDEST SWAP2 POP DUP2 SWAP1 POP SWAP4 SWAP3 POP POP POP JUMP JUMPDEST PUSH32 0x222C2261747472696275746573223A5B7B2274726169745F74797065223A2243 PUSH0 DUP3 ADD MSTORE PUSH32 0x6F6C6F72222C2276616C7565223A220000000000000000000000000000000000 PUSH1 0x20 DUP3 ADD MSTORE POP JUMP JUMPDEST PUSH0 PUSH2 0x39C5 PUSH1 0x2F DUP4 PUSH2 0x36E3 JUMP JUMPDEST SWAP2 POP PUSH2 0x39D0 DUP3 PUSH2 0x396B JUMP JUMPDEST PUSH1 0x2F DUP3 ADD SWAP1 POP SWAP2 SWAP1 POP JUMP JUMPDEST PUSH0 PUSH2 0x39E5 DUP3 PUSH2 0x39B9 JUMP JUMPDEST SWAP2 POP PUSH2 0x39F1 DUP3 DUP5 PUSH2 0x376D JUMP JUMPDEST SWAP2 POP DUP2 SWAP1 POP SWAP3 SWAP2 POP POP JUMP JUMPDEST PUSH32 0x646174613A6170706C69636174696F6E2F6A736F6E3B757466382C0000000000 DUP2 MSTORE POP JUMP JUMPDEST PUSH0 PUSH2 0x3A2C DUP3 PUSH2 0x39FC JUMP JUMPDEST PUSH1 0x1B DUP3 ADD SWAP2 POP PUSH2 0x3A3C DUP3 DUP5 PUSH2 0x376D JUMP JUMPDEST SWAP2 POP DUP2 SWAP1 POP SWAP3 SWAP2 POP POP JUMP JUMPDEST PUSH0 DUP2 PUSH1 0x1 SHR SWAP1 POP SWAP2 SWAP1 POP JUMP JUMPDEST PUSH0 DUP1 DUP3 SWAP2 POP DUP4 SWAP1 POP JUMPDEST PUSH1 0x1 DUP6 GT ISZERO PUSH2 0x3A9C JUMPI DUP1 DUP7 DIV DUP2 GT ISZERO PUSH2 0x3A78 JUMPI PUSH2 0x3A77 PUSH2 0x34B6 JUMP JUMPDEST JUMPDEST PUSH1 0x1 DUP6 AND ISZERO PUSH2 0x3A87 JUMPI DUP1 DUP3 MUL SWAP2 POP JUMPDEST DUP1 DUP2 MUL SWAP1 POP PUSH2 0x3A95 DUP6 PUSH2 0x3A47 JUMP JUMPDEST SWAP5 POP PUSH2 0x3A5C JUMP JUMPDEST SWAP5 POP SWAP5 SWAP3 POP POP POP JUMP JUMPDEST PUSH0 DUP3 PUSH2 0x3AB4 JUMPI PUSH1 0x1 SWAP1 POP PUSH2 0x3B6F JUMP JUMPDEST DUP2 PUSH2 0x3AC1 JUMPI PUSH0 SWAP1 POP PUSH2 0x3B6F JUMP JUMPDEST DUP2 PUSH1 0x1 DUP2 EQ PUSH2 0x3AD7 JUMPI PUSH1 0x2 DUP2 EQ PUSH2 0x3AE1 JUMPI PUSH2 0x3B10 JUMP JUMPDEST PUSH1 0x1 SWAP2 POP POP PUSH2 0x3B6F JUMP JUMPDEST PUSH1 0xFF DUP5 GT ISZERO PUSH2 0x3AF3 JUMPI PUSH2 0x3AF2 PUSH2 0x34B6 JUMP JUMPDEST JUMPDEST DUP4 PUSH1 0x2 EXP SWAP2 POP DUP5 DUP3 GT ISZERO PUSH2 0x3B0A JUMPI PUSH2 0x3B09 PUSH2 0x34B6 JUMP JUMPDEST JUMPDEST POP PUSH2 0x3B6F JUMP JUMPDEST POP PUSH1 0x20 DUP4 LT PUSH2 0x133 DUP4 LT AND PUSH1 0x4E DUP5 LT PUSH1 0xB DUP5 LT AND OR ISZERO PUSH2 0x3B45 JUMPI DUP3 DUP3 EXP SWAP1 POP DUP4 DUP2 GT ISZERO PUSH2 0x3B40 JUMPI PUSH2 0x3B3F PUSH2 0x34B6 JUMP JUMPDEST JUMPDEST PUSH2 0x3B6F JUMP JUMPDEST PUSH2 0x3B52 DUP5 DUP5 DUP5 PUSH1 0x1 PUSH2 0x3A53 JUMP JUMPDEST SWAP3 POP SWAP1 POP DUP2 DUP5 DIV DUP2 GT ISZERO PUSH2 0x3B69 JUMPI PUSH2 0x3B68 PUSH2 0x34B6 JUMP JUMPDEST JUMPDEST DUP2 DUP2 MUL SWAP1 POP JUMPDEST SWAP4 SWAP3 POP POP POP JUMP JUMPDEST PUSH0 PUSH2 0x3B80 DUP3 PUSH2 0x2C55 JUMP JUMPDEST SWAP2 POP PUSH2 0x3B8B DUP4 PUSH2 0x2F91 JUMP JUMPDEST SWAP3 POP PUSH2 0x3BB8 PUSH32 0xFFFFFFFFFFFFFFFFFFFFFFFFFFFFFFFFFFFFFFFFFFFFFFFFFFFFFFFFFFFFFFFF DUP5 DUP5 PUSH2 0x3AA5 JUMP JUMPDEST SWAP1 POP SWAP3 SWAP2 POP POP JUMP JUMPDEST PUSH32 0x4E487B7100000000000000000000000000000000000000000000000000000000 PUSH0 MSTORE PUSH1 0x12 PUSH1 0x4 MSTORE PUSH1 0x24 PUSH0 REVERT JUMPDEST PUSH0 PUSH2 0x3BF7 DUP3 PUSH2 0x2C55 JUMP JUMPDEST SWAP2 POP PUSH2 0x3C02 DUP4 PUSH2 0x2C55 JUMP JUMPDEST SWAP3 POP DUP3 PUSH2 0x3C12 JUMPI PUSH2 0x3C11 PUSH2 0x3BC0 JUMP JUMPDEST JUMPDEST DUP3 DUP3 DIV SWAP1 POP SWAP3 SWAP2 POP POP JUMP INVALID LOG2 PUSH5 0x6970667358 0x22 SLT KECCAK256 0xC4 SELFBALANCE 0xB2 PUSH19 0xF0E42FBFA59F230F93AAD40F66F25527742BCE CODESIZE DUP1 0xD0 DUP13 0x2D 0xD4 LT JUMP EXTCODESIZE PUSH5 0x736F6C6343 STOP ADDMOD XOR STOP CALLER "
				},
				"gasEstimates": {
					"creation": {
						"codeDepositCost": "3088600",
						"executionCost": "infinite",
						"totalCost": "infinite"
					},
					"external": {
						"allowance(address,address)": "infinite",
						"approve(address,uint256)": "infinite",
						"balanceOf(address)": "2848",
						"baseTokenURI()": "infinite",
						"dataURI()": "infinite",
						"decimals()": "infinite",
						"getApproved(uint256)": "2873",
						"isApprovedForAll(address,address)": "infinite",
						"minted()": "2470",
						"name()": "infinite",
						"owner()": "2573",
						"ownerOf(uint256)": "2997",
						"revokeOwnership()": "28163",
						"safeTransferFrom(address,address,uint256)": "infinite",
						"safeTransferFrom(address,address,uint256,bytes)": "infinite",
						"setApprovalForAll(address,bool)": "infinite",
						"setDataURI(string)": "infinite",
						"setNameSymbol(string,string)": "infinite",
						"setTokenURI(string)": "infinite",
						"setWhitelist(address,bool)": "27235",
						"symbol()": "infinite",
						"tokenURI(uint256)": "infinite",
						"totalSupply()": "infinite",
						"transfer(address,uint256)": "infinite",
						"transferFrom(address,address,uint256)": "infinite",
						"transferOwnership(address)": "28569",
						"whitelist(address)": "2878"
					}
				},
				"methodIdentifiers": {
					"allowance(address,address)": "dd62ed3e",
					"approve(address,uint256)": "095ea7b3",
					"balanceOf(address)": "70a08231",
					"baseTokenURI()": "d547cfb7",
					"dataURI()": "f28ca1dd",
					"decimals()": "313ce567",
					"getApproved(uint256)": "081812fc",
					"isApprovedForAll(address,address)": "e985e9c5",
					"minted()": "4f02c420",
					"name()": "06fdde03",
					"owner()": "8da5cb5b",
					"ownerOf(uint256)": "6352211e",
					"revokeOwnership()": "2b968958",
					"safeTransferFrom(address,address,uint256)": "42842e0e",
					"safeTransferFrom(address,address,uint256,bytes)": "b88d4fde",
					"setApprovalForAll(address,bool)": "a22cb465",
					"setDataURI(string)": "18d217c3",
					"setNameSymbol(string,string)": "504334c2",
					"setTokenURI(string)": "e0df5b6f",
					"setWhitelist(address,bool)": "53d6fd59",
					"symbol()": "95d89b41",
					"tokenURI(uint256)": "c87b56dd",
					"totalSupply()": "18160ddd",
					"transfer(address,uint256)": "a9059cbb",
					"transferFrom(address,address,uint256)": "23b872dd",
					"transferOwnership(address)": "f2fde38b",
					"whitelist(address)": "9b19251a"
				}
			},
			"storageLayout": {
				"storage": [
					{
						"astId": 1427,
						"contract": "contracts/legacy/Pandora.sol:Pandora",
						"label": "owner",
						"offset": 0,
						"slot": "0",
						"type": "t_address"
					},
					{
						"astId": 1593,
						"contract": "contracts/legacy/Pandora.sol:Pandora",
						"label": "name",
						"offset": 0,
						"slot": "1",
						"type": "t_string_storage"
					},
					{
						"astId": 1596,
						"contract": "contracts/legacy/Pandora.sol:Pandora",
						"label": "symbol",
						"offset": 0,
						"slot": "2",
						"type": "t_string_storage"
					},
					{
						"astId": 1605,
						"contract": "contracts/legacy/Pandora.sol:Pandora",
						"label": "minted",
						"offset": 0,
						"slot": "3",
						"type": "t_uint256"
					},
					{
						"astId": 1610,
						"contract": "contracts/legacy/Pandora.sol:Pandora",
						"label": "balanceOf",
						"offset": 0,
						"slot": "4",
						"type": "t_mapping(t_address,t_uint256)"
					},
					{
						"astId": 1617,
						"contract": "contracts/legacy/Pandora.sol:Pandora",
						"label": "allowance",
						"offset": 0,
						"slot": "5",
						"type": "t_mapping(t_address,t_mapping(t_address,t_uint256))"
					},
					{
						"astId": 1622,
						"contract": "contracts/legacy/Pandora.sol:Pandora",
						"label": "getApproved",
						"offset": 0,
						"slot": "6",
						"type": "t_mapping(t_uint256,t_address)"
					},
					{
						"astId": 1629,
						"contract": "contracts/legacy/Pandora.sol:Pandora",
						"label": "isApprovedForAll",
						"offset": 0,
						"slot": "7",
						"type": "t_mapping(t_address,t_mapping(t_address,t_bool))"
					},
					{
						"astId": 1634,
						"contract": "contracts/legacy/Pandora.sol:Pandora",
						"label": "_ownerOf",
						"offset": 0,
						"slot": "8",
						"type": "t_mapping(t_uint256,t_address)"
					},
					{
						"astId": 1640,
						"contract": "contracts/legacy/Pandora.sol:Pandora",
						"label": "_owned",
						"offset": 0,
						"slot": "9",
						"type": "t_mapping(t_address,t_array(t_uint256)dyn_storage)"
					},
					{
						"astId": 1645,
						"contract": "contracts/legacy/Pandora.sol:Pandora",
						"label": "_ownedIndex",
						"offset": 0,
						"slot": "10",
						"type": "t_mapping(t_uint256,t_uint256)"
					},
					{
						"astId": 1650,
						"contract": "contracts/legacy/Pandora.sol:Pandora",
						"label": "whitelist",
						"offset": 0,
						"slot": "11",
						"type": "t_mapping(t_address,t_bool)"
					},
					{
						"astId": 2421,
						"contract": "contracts/legacy/Pandora.sol:Pandora",
						"label": "dataURI",
						"offset": 0,
						"slot": "12",
						"type": "t_string_storage"
					},
					{
						"astId": 2423,
						"contract": "contracts/legacy/Pandora.sol:Pandora",
						"label": "baseTokenURI",
						"offset": 0,
						"slot": "13",
						"type": "t_string_storage"
					}
				],
				"types": {
					"t_address": {
						"encoding": "inplace",
						"label": "address",
						"numberOfBytes": "20"
					},
					"t_array(t_uint256)dyn_storage": {
						"base": "t_uint256",
						"encoding": "dynamic_array",
						"label": "uint256[]",
						"numberOfBytes": "32"
					},
					"t_bool": {
						"encoding": "inplace",
						"label": "bool",
						"numberOfBytes": "1"
					},
					"t_mapping(t_address,t_array(t_uint256)dyn_storage)": {
						"encoding": "mapping",
						"key": "t_address",
						"label": "mapping(address => uint256[])",
						"numberOfBytes": "32",
						"value": "t_array(t_uint256)dyn_storage"
					},
					"t_mapping(t_address,t_bool)": {
						"encoding": "mapping",
						"key": "t_address",
						"label": "mapping(address => bool)",
						"numberOfBytes": "32",
						"value": "t_bool"
					},
					"t_mapping(t_address,t_mapping(t_address,t_bool))": {
						"encoding": "mapping",
						"key": "t_address",
						"label": "mapping(address => mapping(address => bool))",
						"numberOfBytes": "32",
						"value": "t_mapping(t_address,t_bool)"
					},
					"t_mapping(t_address,t_mapping(t_address,t_uint256))": {
						"encoding": "mapping",
						"key": "t_address",
						"label": "mapping(address => mapping(address => uint256))",
						"numberOfBytes": "32",
						"value": "t_mapping(t_address,t_uint256)"
					},
					"t_mapping(t_address,t_uint256)": {
						"encoding": "mapping",
						"key": "t_address",
						"label": "mapping(address => uint256)",
						"numberOfBytes": "32",
						"value": "t_uint256"
					},
					"t_mapping(t_uint256,t_address)": {
						"encoding": "mapping",
						"key": "t_uint256",
						"label": "mapping(uint256 => address)",
						"numberOfBytes": "32",
						"value": "t_address"
					},
					"t_mapping(t_uint256,t_uint256)": {
						"encoding": "mapping",
						"key": "t_uint256",
						"label": "mapping(uint256 => uint256)",
						"numberOfBytes": "32",
						"value": "t_uint256"
					},
					"t_string_storage": {
						"encoding": "bytes",
						"label": "string",
						"numberOfBytes": "32"
					},
					"t_uint256": {
						"encoding": "inplace",
						"label": "uint256",
						"numberOfBytes": "32"
					}
				}
			},
			"userdoc": {
				"kind": "user",
				"methods": {
					"approve(address,uint256)": {
						"notice": "Function for token approvals"
					},
					"ownerOf(uint256)": {
						"notice": "Function to find owner of a given native token"
					},
					"safeTransferFrom(address,address,uint256)": {
						"notice": "Function for native transfers with contract support"
					},
					"safeTransferFrom(address,address,uint256,bytes)": {
						"notice": "Function for native transfers with contract support and callback data"
					},
					"setApprovalForAll(address,bool)": {
						"notice": "Function native approvals"
					},
					"setWhitelist(address,bool)": {
						"notice": "Initialization function to set pairs / etc         saving gas by avoiding mint / burn on unnecessary targets"
					},
					"tokenURI(uint256)": {
						"notice": "tokenURI must be implemented by child contract"
					},
					"transfer(address,uint256)": {
						"notice": "Function for fractional transfers"
					},
					"transferFrom(address,address,uint256)": {
						"notice": "Function for mixed transfers"
					}
				},
				"version": 1
			}
		}
	}
}