{
	"data": {
		"bytecode": {
			"linkReferences": {},
			"object": "60806040523480156200001157600080fd5b5060405162000a0138038062000a018339818101604052810190620000379190620002cc565b826000806101000a81548173ffffffffffffffffffffffffffffffffffffffff021916908373ffffffffffffffffffffffffffffffffffffffff160217905550816002908162000088919062000588565b50806001819055505050506200066f565b6000604051905090565b600080fd5b600080fd5b600073ffffffffffffffffffffffffffffffffffffffff82169050919050565b6000620000da82620000ad565b9050919050565b620000ec81620000cd565b8114620000f857600080fd5b50565b6000815190506200010c81620000e1565b92915050565b600080fd5b600080fd5b6000601f19601f8301169050919050565b7f4e487b7100000000000000000000000000000000000000000000000000000000600052604160045260246000fd5b62000167826200011c565b810181811067ffffffffffffffff821117156200018957620001886200012d565b5b80604052505050565b60006200019e62000099565b9050620001ac82826200015c565b919050565b600067ffffffffffffffff821115620001cf57620001ce6200012d565b5b620001da826200011c565b9050602081019050919050565b60005b8381101562000207578082015181840152602081019050620001ea565b60008484015250505050565b60006200022a6200022484620001b1565b62000192565b90508281526020810184848401111562000249576200024862000117565b5b62000256848285620001e7565b509392505050565b600082601f83011262000276576200027562000112565b5b81516200028884826020860162000213565b91505092915050565b6000819050919050565b620002a68162000291565b8114620002b257600080fd5b50565b600081519050620002c6816200029b565b92915050565b600080600060608486031215620002e857620002e7620000a3565b5b6000620002f886828701620000fb565b935050602084015167ffffffffffffffff8111156200031c576200031b620000a8565b5b6200032a868287016200025e565b92505060406200033d86828701620002b5565b9150509250925092565b600081519050919050565b7f4e487b7100000000000000000000000000000000000000000000000000000000600052602260045260246000fd5b600060028204905060018216806200039a57607f821691505b602082108103620003b057620003af62000352565b5b50919050565b60008190508160005260206000209050919050565b60006020601f8301049050919050565b600082821b905092915050565b6000600883026200041a7fffffffffffffffffffffffffffffffffffffffffffffffffffffffffffffffff82620003db565b620004268683620003db565b95508019841693508086168417925050509392505050565b6000819050919050565b600062000469620004636200045d8462000291565b6200043e565b62000291565b9050919050565b6000819050919050565b620004858362000448565b6200049d620004948262000470565b848454620003e8565b825550505050565b600090565b620004b4620004a5565b620004c18184846200047a565b505050565b5b81811015620004e957620004dd600082620004aa565b600181019050620004c7565b5050565b601f82111562000538576200050281620003b6565b6200050d84620003cb565b810160208510156200051d578190505b620005356200052c85620003cb565b830182620004c6565b50505b505050565b600082821c905092915050565b60006200055d600019846008026200053d565b1980831691505092915050565b60006200057883836200054a565b9150826002028217905092915050565b620005938262000347565b67ffffffffffffffff811115620005af57620005ae6200012d565b5b620005bb825462000381565b620005c8828285620004ed565b600060209050601f831160018114620006005760008415620005eb578287015190505b620005f785826200056a565b86555062000667565b601f1984166200061086620003b6565b60005b828110156200063a5784890151825560018201915060208501945060208101905062000613565b868310156200065a578489015162000656601f8916826200054a565b8355505b6001600288020188555050505b505050505050565b610382806200067f6000396000f3fe608060405234801561001057600080fd5b506004361061004c5760003560e01c806306fdde0314610051578063262a9dff1461006f5780638da5cb5b1461008d578063cdbce03d146100ab575b600080fd5b6100596100c9565b604051610066919061023a565b60405180910390f35b610077610157565b6040516100849190610275565b60405180910390f35b61009561015d565b6040516100a291906102d1565b60405180910390f35b6100b3610181565b6040516100c091906102d1565b60405180910390f35b600280546100d69061031b565b80601f01602080910402602001604051908101604052809291908181526020018280546101029061031b565b801561014f5780601f106101245761010080835404028352916020019161014f565b820191906000526020600020905b81548152906001019060200180831161013257829003601f168201915b505050505081565b60015481565b60008054906101000a900473ffffffffffffffffffffffffffffffffffffffff1681565b60008060009054906101000a900473ffffffffffffffffffffffffffffffffffffffff16905090565b600081519050919050565b600082825260208201905092915050565b60005b838110156101e45780820151818401526020810190506101c9565b60008484015250505050565b6000601f19601f8301169050919050565b600061020c826101aa565b61021681856101b5565b93506102268185602086016101c6565b61022f816101f0565b840191505092915050565b600060208201905081810360008301526102548184610201565b905092915050565b6000819050919050565b61026f8161025c565b82525050565b600060208201905061028a6000830184610266565b92915050565b600073ffffffffffffffffffffffffffffffffffffffff82169050919050565b60006102bb82610290565b9050919050565b6102cb816102b0565b82525050565b60006020820190506102e660008301846102c2565b92915050565b7f4e487b7100000000000000000000000000000000000000000000000000000000600052602260045260246000fd5b6000600282049050600182168061033357607f821691505b602082108103610346576103456102ec565b5b5091905056fea264697066735822122027412a935bf060e545cfea3a42da5dc0f790df37e4ee311ba4d60235b6b7c34064736f6c63430008100033",
			"opcodes": "PUSH1 0x80 PUSH1 0x40 MSTORE CALLVALUE DUP1 ISZERO PUSH3 0x11 JUMPI PUSH1 0x0 DUP1 REVERT JUMPDEST POP PUSH1 0x40 MLOAD PUSH3 0xA01 CODESIZE SUB DUP1 PUSH3 0xA01 DUP4 CODECOPY DUP2 DUP2 ADD PUSH1 0x40 MSTORE DUP2 ADD SWAP1 PUSH3 0x37 SWAP2 SWAP1 PUSH3 0x2CC JUMP JUMPDEST DUP3 PUSH1 0x0 DUP1 PUSH2 0x100 EXP DUP2 SLOAD DUP2 PUSH20 0xFFFFFFFFFFFFFFFFFFFFFFFFFFFFFFFFFFFFFFFF MUL NOT AND SWAP1 DUP4 PUSH20 0xFFFFFFFFFFFFFFFFFFFFFFFFFFFFFFFFFFFFFFFF AND MUL OR SWAP1 SSTORE POP DUP2 PUSH1 0x2 SWAP1 DUP2 PUSH3 0x88 SWAP2 SWAP1 PUSH3 0x588 JUMP JUMPDEST POP DUP1 PUSH1 0x1 DUP2 SWAP1 SSTORE POP POP POP POP PUSH3 0x66F JUMP JUMPDEST PUSH1 0x0 PUSH1 0x40 MLOAD SWAP1 POP SWAP1 JUMP JUMPDEST PUSH1 0x0 DUP1 REVERT JUMPDEST PUSH1 0x0 DUP1 REVERT JUMPDEST PUSH1 0x0 PUSH20 0xFFFFFFFFFFFFFFFFFFFFFFFFFFFFFFFFFFFFFFFF DUP3 AND SWAP1 POP SWAP2 SWAP1 POP JUMP JUMPDEST PUSH1 0x0 PUSH3 0xDA DUP3 PUSH3 0xAD JUMP JUMPDEST SWAP1 POP SWAP2 SWAP1 POP JUMP JUMPDEST PUSH3 0xEC DUP2 PUSH3 0xCD JUMP JUMPDEST DUP2 EQ PUSH3 0xF8 JUMPI PUSH1 0x0 DUP1 REVERT JUMPDEST POP JUMP JUMPDEST PUSH1 0x0 DUP2 MLOAD SWAP1 POP PUSH3 0x10C DUP2 PUSH3 0xE1 JUMP JUMPDEST SWAP3 SWAP2 POP POP JUMP JUMPDEST PUSH1 0x0 DUP1 REVERT JUMPDEST PUSH1 0x0 DUP1 REVERT JUMPDEST PUSH1 0x0 PUSH1 0x1F NOT PUSH1 0x1F DUP4 ADD AND SWAP1 POP SWAP2 SWAP1 POP JUMP JUMPDEST PUSH32 0x4E487B7100000000000000000000000000000000000000000000000000000000 PUSH1 0x0 MSTORE PUSH1 0x41 PUSH1 0x4 MSTORE PUSH1 0x24 PUSH1 0x0 REVERT JUMPDEST PUSH3 0x167 DUP3 PUSH3 0x11C JUMP JUMPDEST DUP2 ADD DUP2 DUP2 LT PUSH8 0xFFFFFFFFFFFFFFFF DUP3 GT OR ISZERO PUSH3 0x189 JUMPI PUSH3 0x188 PUSH3 0x12D JUMP JUMPDEST JUMPDEST DUP1 PUSH1 0x40 MSTORE POP POP POP JUMP JUMPDEST PUSH1 0x0 PUSH3 0x19E PUSH3 0x99 JUMP JUMPDEST SWAP1 POP PUSH3 0x1AC DUP3 DUP3 PUSH3 0x15C JUMP JUMPDEST SWAP2 SWAP1 POP JUMP JUMPDEST PUSH1 0x0 PUSH8 0xFFFFFFFFFFFFFFFF DUP3 GT ISZERO PUSH3 0x1CF JUMPI PUSH3 0x1CE PUSH3 0x12D JUMP JUMPDEST JUMPDEST PUSH3 0x1DA DUP3 PUSH3 0x11C JUMP JUMPDEST SWAP1 POP PUSH1 0x20 DUP2 ADD SWAP1 POP SWAP2 SWAP1 POP JUMP JUMPDEST PUSH1 0x0 JUMPDEST DUP4 DUP2 LT ISZERO PUSH3 0x207 JUMPI DUP1 DUP3 ADD MLOAD DUP2 DUP5 ADD MSTORE PUSH1 0x20 DUP2 ADD SWAP1 POP PUSH3 0x1EA JUMP JUMPDEST PUSH1 0x0 DUP5 DUP5 ADD MSTORE POP POP POP POP JUMP JUMPDEST PUSH1 0x0 PUSH3 0x22A PUSH3 0x224 DUP5 PUSH3 0x1B1 JUMP JUMPDEST PUSH3 0x192 JUMP JUMPDEST SWAP1 POP DUP3 DUP2 MSTORE PUSH1 0x20 DUP2 ADD DUP5 DUP5 DUP5 ADD GT ISZERO PUSH3 0x249 JUMPI PUSH3 0x248 PUSH3 0x117 JUMP JUMPDEST JUMPDEST PUSH3 0x256 DUP5 DUP3 DUP6 PUSH3 0x1E7 JUMP JUMPDEST POP SWAP4 SWAP3 POP POP POP JUMP JUMPDEST PUSH1 0x0 DUP3 PUSH1 0x1F DUP4 ADD SLT PUSH3 0x276 JUMPI PUSH3 0x275 PUSH3 0x112 JUMP JUMPDEST JUMPDEST DUP2 MLOAD PUSH3 0x288 DUP5 DUP3 PUSH1 0x20 DUP7 ADD PUSH3 0x213 JUMP JUMPDEST SWAP2 POP POP SWAP3 SWAP2 POP POP JUMP JUMPDEST PUSH1 0x0 DUP2 SWAP1 POP SWAP2 SWAP1 POP JUMP JUMPDEST PUSH3 0x2A6 DUP2 PUSH3 0x291 JUMP JUMPDEST DUP2 EQ PUSH3 0x2B2 JUMPI PUSH1 0x0 DUP1 REVERT JUMPDEST POP JUMP JUMPDEST PUSH1 0x0 DUP2 MLOAD SWAP1 POP PUSH3 0x2C6 DUP2 PUSH3 0x29B JUMP JUMPDEST SWAP3 SWAP2 POP POP JUMP JUMPDEST PUSH1 0x0 DUP1 PUSH1 0x0 PUSH1 0x60 DUP5 DUP7 SUB SLT ISZERO PUSH3 0x2E8 JUMPI PUSH3 0x2E7 PUSH3 0xA3 JUMP JUMPDEST JUMPDEST PUSH1 0x0 PUSH3 0x2F8 DUP7 DUP3 DUP8 ADD PUSH3 0xFB JUMP JUMPDEST SWAP4 POP POP PUSH1 0x20 DUP5 ADD MLOAD PUSH8 0xFFFFFFFFFFFFFFFF DUP2 GT ISZERO PUSH3 0x31C JUMPI PUSH3 0x31B PUSH3 0xA8 JUMP JUMPDEST JUMPDEST PUSH3 0x32A DUP7 DUP3 DUP8 ADD PUSH3 0x25E JUMP JUMPDEST SWAP3 POP POP PUSH1 0x40 PUSH3 0x33D DUP7 DUP3 DUP8 ADD PUSH3 0x2B5 JUMP JUMPDEST SWAP2 POP POP SWAP3 POP SWAP3 POP SWAP3 JUMP JUMPDEST PUSH1 0x0 DUP2 MLOAD SWAP1 POP SWAP2 SWAP1 POP JUMP JUMPDEST PUSH32 0x4E487B7100000000000000000000000000000000000000000000000000000000 PUSH1 0x0 MSTORE PUSH1 0x22 PUSH1 0x4 MSTORE PUSH1 0x24 PUSH1 0x0 REVERT JUMPDEST PUSH1 0x0 PUSH1 0x2 DUP3 DIV SWAP1 POP PUSH1 0x1 DUP3 AND DUP1 PUSH3 0x39A JUMPI PUSH1 0x7F DUP3 AND SWAP2 POP JUMPDEST PUSH1 0x20 DUP3 LT DUP2 SUB PUSH3 0x3B0 JUMPI PUSH3 0x3AF PUSH3 0x352 JUMP JUMPDEST JUMPDEST POP SWAP2 SWAP1 POP JUMP JUMPDEST PUSH1 0x0 DUP2 SWAP1 POP DUP2 PUSH1 0x0 MSTORE PUSH1 0x20 PUSH1 0x0 KECCAK256 SWAP1 POP SWAP2 SWAP1 POP JUMP JUMPDEST PUSH1 0x0 PUSH1 0x20 PUSH1 0x1F DUP4 ADD DIV SWAP1 POP SWAP2 SWAP1 POP JUMP JUMPDEST PUSH1 0x0 DUP3 DUP3 SHL SWAP1 POP SWAP3 SWAP2 POP POP JUMP JUMPDEST PUSH1 0x0 PUSH1 0x8 DUP4 MUL PUSH3 0x41A PUSH32 0xFFFFFFFFFFFFFFFFFFFFFFFFFFFFFFFFFFFFFFFFFFFFFFFFFFFFFFFFFFFFFFFF DUP3 PUSH3 0x3DB JUMP JUMPDEST PUSH3 0x426 DUP7 DUP4 PUSH3 0x3DB JUMP JUMPDEST SWAP6 POP DUP1 NOT DUP5 AND SWAP4 POP DUP1 DUP7 AND DUP5 OR SWAP3 POP POP POP SWAP4 SWAP3 POP POP POP JUMP JUMPDEST PUSH1 0x0 DUP2 SWAP1 POP SWAP2 SWAP1 POP JUMP JUMPDEST PUSH1 0x0 PUSH3 0x469 PUSH3 0x463 PUSH3 0x45D DUP5 PUSH3 0x291 JUMP JUMPDEST PUSH3 0x43E JUMP JUMPDEST PUSH3 0x291 JUMP JUMPDEST SWAP1 POP SWAP2 SWAP1 POP JUMP JUMPDEST PUSH1 0x0 DUP2 SWAP1 POP SWAP2 SWAP1 POP JUMP JUMPDEST PUSH3 0x485 DUP4 PUSH3 0x448 JUMP JUMPDEST PUSH3 0x49D PUSH3 0x494 DUP3 PUSH3 0x470 JUMP JUMPDEST DUP5 DUP5 SLOAD PUSH3 0x3E8 JUMP JUMPDEST DUP3 SSTORE POP POP POP POP JUMP JUMPDEST PUSH1 0x0 SWAP1 JUMP JUMPDEST PUSH3 0x4B4 PUSH3 0x4A5 JUMP JUMPDEST PUSH3 0x4C1 DUP2 DUP5 DUP5 PUSH3 0x47A JUMP JUMPDEST POP POP POP JUMP JUMPDEST JUMPDEST DUP2 DUP2 LT ISZERO PUSH3 0x4E9 JUMPI PUSH3 0x4DD PUSH1 0x0 DUP3 PUSH3 0x4AA JUMP JUMPDEST PUSH1 0x1 DUP2 ADD SWAP1 POP PUSH3 0x4C7 JUMP JUMPDEST POP POP JUMP JUMPDEST PUSH1 0x1F DUP3 GT ISZERO PUSH3 0x538 JUMPI PUSH3 0x502 DUP2 PUSH3 0x3B6 JUMP JUMPDEST PUSH3 0x50D DUP5 PUSH3 0x3CB JUMP JUMPDEST DUP2 ADD PUSH1 0x20 DUP6 LT ISZERO PUSH3 0x51D JUMPI DUP2 SWAP1 POP JUMPDEST PUSH3 0x535 PUSH3 0x52C DUP6 PUSH3 0x3CB JUMP JUMPDEST DUP4 ADD DUP3 PUSH3 0x4C6 JUMP JUMPDEST POP POP JUMPDEST POP POP POP JUMP JUMPDEST PUSH1 0x0 DUP3 DUP3 SHR SWAP1 POP SWAP3 SWAP2 POP POP JUMP JUMPDEST PUSH1 0x0 PUSH3 0x55D PUSH1 0x0 NOT DUP5 PUSH1 0x8 MUL PUSH3 0x53D JUMP JUMPDEST NOT DUP1 DUP4 AND SWAP2 POP POP SWAP3 SWAP2 POP POP JUMP JUMPDEST PUSH1 0x0 PUSH3 0x578 DUP4 DUP4 PUSH3 0x54A JUMP JUMPDEST SWAP2 POP DUP3 PUSH1 0x2 MUL DUP3 OR SWAP1 POP SWAP3 SWAP2 POP POP JUMP JUMPDEST PUSH3 0x593 DUP3 PUSH3 0x347 JUMP JUMPDEST PUSH8 0xFFFFFFFFFFFFFFFF DUP2 GT ISZERO PUSH3 0x5AF JUMPI PUSH3 0x5AE PUSH3 0x12D JUMP JUMPDEST JUMPDEST PUSH3 0x5BB DUP3 SLOAD PUSH3 0x381 JUMP JUMPDEST PUSH3 0x5C8 DUP3 DUP3 DUP6 PUSH3 0x4ED JUMP JUMPDEST PUSH1 0x0 PUSH1 0x20 SWAP1 POP PUSH1 0x1F DUP4 GT PUSH1 0x1 DUP2 EQ PUSH3 0x600 JUMPI PUSH1 0x0 DUP5 ISZERO PUSH3 0x5EB JUMPI DUP3 DUP8 ADD MLOAD SWAP1 POP JUMPDEST PUSH3 0x5F7 DUP6 DUP3 PUSH3 0x56A JUMP JUMPDEST DUP7 SSTORE POP PUSH3 0x667 JUMP JUMPDEST PUSH1 0x1F NOT DUP5 AND PUSH3 0x610 DUP7 PUSH3 0x3B6 JUMP JUMPDEST PUSH1 0x0 JUMPDEST DUP3 DUP2 LT ISZERO PUSH3 0x63A JUMPI DUP5 DUP10 ADD MLOAD DUP3 SSTORE PUSH1 0x1 DUP3 ADD SWAP2 POP PUSH1 0x20 DUP6 ADD SWAP5 POP PUSH1 0x20 DUP2 ADD SWAP1 POP PUSH3 0x613 JUMP JUMPDEST DUP7 DUP4 LT ISZERO PUSH3 0x65A JUMPI DUP5 DUP10 ADD MLOAD PUSH3 0x656 PUSH1 0x1F DUP10 AND DUP3 PUSH3 0x54A JUMP JUMPDEST DUP4 SSTORE POP JUMPDEST PUSH1 0x1 PUSH1 0x2 DUP9 MUL ADD DUP9 SSTORE POP POP POP JUMPDEST POP POP POP POP POP POP JUMP JUMPDEST PUSH2 0x382 DUP1 PUSH3 0x67F PUSH1 0x0 CODECOPY PUSH1 0x0 RETURN INVALID PUSH1 0x80 PUSH1 0x40 MSTORE CALLVALUE DUP1 ISZERO PUSH2 0x10 JUMPI PUSH1 0x0 DUP1 REVERT JUMPDEST POP PUSH1 0x4 CALLDATASIZE LT PUSH2 0x4C JUMPI PUSH1 0x0 CALLDATALOAD PUSH1 0xE0 SHR DUP1 PUSH4 0x6FDDE03 EQ PUSH2 0x51 JUMPI DUP1 PUSH4 0x262A9DFF EQ PUSH2 0x6F JUMPI DUP1 PUSH4 0x8DA5CB5B EQ PUSH2 0x8D JUMPI DUP1 PUSH4 0xCDBCE03D EQ PUSH2 0xAB JUMPI JUMPDEST PUSH1 0x0 DUP1 REVERT JUMPDEST PUSH2 0x59 PUSH2 0xC9 JUMP JUMPDEST PUSH1 0x40 MLOAD PUSH2 0x66 SWAP2 SWAP1 PUSH2 0x23A JUMP JUMPDEST PUSH1 0x40 MLOAD DUP1 SWAP2 SUB SWAP1 RETURN JUMPDEST PUSH2 0x77 PUSH2 0x157 JUMP JUMPDEST PUSH1 0x40 MLOAD PUSH2 0x84 SWAP2 SWAP1 PUSH2 0x275 JUMP JUMPDEST PUSH1 0x40 MLOAD DUP1 SWAP2 SUB SWAP1 RETURN JUMPDEST PUSH2 0x95 PUSH2 0x15D JUMP JUMPDEST PUSH1 0x40 MLOAD PUSH2 0xA2 SWAP2 SWAP1 PUSH2 0x2D1 JUMP JUMPDEST PUSH1 0x40 MLOAD DUP1 SWAP2 SUB SWAP1 RETURN JUMPDEST PUSH2 0xB3 PUSH2 0x181 JUMP JUMPDEST PUSH1 0x40 MLOAD PUSH2 0xC0 SWAP2 SWAP1 PUSH2 0x2D1 JUMP JUMPDEST PUSH1 0x40 MLOAD DUP1 SWAP2 SUB SWAP1 RETURN JUMPDEST PUSH1 0x2 DUP1 SLOAD PUSH2 0xD6 SWAP1 PUSH2 0x31B JUMP JUMPDEST DUP1 PUSH1 0x1F ADD PUSH1 0x20 DUP1 SWAP2 DIV MUL PUSH1 0x20 ADD PUSH1 0x40 MLOAD SWAP1 DUP2 ADD PUSH1 0x40 MSTORE DUP1 SWAP3 SWAP2 SWAP1 DUP2 DUP2 MSTORE PUSH1 0x20 ADD DUP3 DUP1 SLOAD PUSH2 0x102 SWAP1 PUSH2 0x31B JUMP JUMPDEST DUP1 ISZERO PUSH2 0x14F JUMPI DUP1 PUSH1 0x1F LT PUSH2 0x124 JUMPI PUSH2 0x100 DUP1 DUP4 SLOAD DIV MUL DUP4 MSTORE SWAP2 PUSH1 0x20 ADD SWAP2 PUSH2 0x14F JUMP JUMPDEST DUP3 ADD SWAP2 SWAP1 PUSH1 0x0 MSTORE PUSH1 0x20 PUSH1 0x0 KECCAK256 SWAP1 JUMPDEST DUP2 SLOAD DUP2 MSTORE SWAP1 PUSH1 0x1 ADD SWAP1 PUSH1 0x20 ADD DUP1 DUP4 GT PUSH2 0x132 JUMPI DUP3 SWAP1 SUB PUSH1 0x1F AND DUP3 ADD SWAP2 JUMPDEST POP POP POP POP POP DUP2 JUMP JUMPDEST PUSH1 0x1 SLOAD DUP2 JUMP JUMPDEST PUSH1 0x0 DUP1 SLOAD SWAP1 PUSH2 0x100 EXP SWAP1 DIV PUSH20 0xFFFFFFFFFFFFFFFFFFFFFFFFFFFFFFFFFFFFFFFF AND DUP2 JUMP JUMPDEST PUSH1 0x0 DUP1 PUSH1 0x0 SWAP1 SLOAD SWAP1 PUSH2 0x100 EXP SWAP1 DIV PUSH20 0xFFFFFFFFFFFFFFFFFFFFFFFFFFFFFFFFFFFFFFFF AND SWAP1 POP SWAP1 JUMP JUMPDEST PUSH1 0x0 DUP2 MLOAD SWAP1 POP SWAP2 SWAP1 POP JUMP JUMPDEST PUSH1 0x0 DUP3 DUP3 MSTORE PUSH1 0x20 DUP3 ADD SWAP1 POP SWAP3 SWAP2 POP POP JUMP JUMPDEST PUSH1 0x0 JUMPDEST DUP4 DUP2 LT ISZERO PUSH2 0x1E4 JUMPI DUP1 DUP3 ADD MLOAD DUP2 DUP5 ADD MSTORE PUSH1 0x20 DUP2 ADD SWAP1 POP PUSH2 0x1C9 JUMP JUMPDEST PUSH1 0x0 DUP5 DUP5 ADD MSTORE POP POP POP POP JUMP JUMPDEST PUSH1 0x0 PUSH1 0x1F NOT PUSH1 0x1F DUP4 ADD AND SWAP1 POP SWAP2 SWAP1 POP JUMP JUMPDEST PUSH1 0x0 PUSH2 0x20C DUP3 PUSH2 0x1AA JUMP JUMPDEST PUSH2 0x216 DUP2 DUP6 PUSH2 0x1B5 JUMP JUMPDEST SWAP4 POP PUSH2 0x226 DUP2 DUP6 PUSH1 0x20 DUP7 ADD PUSH2 0x1C6 JUMP JUMPDEST PUSH2 0x22F DUP2 PUSH2 0x1F0 JUMP JUMPDEST DUP5 ADD SWAP2 POP POP SWAP3 SWAP2 POP POP JUMP JUMPDEST PUSH1 0x0 PUSH1 0x20 DUP3 ADD SWAP1 POP DUP2 DUP2 SUB PUSH1 0x0 DUP4 ADD MSTORE PUSH2 0x254 DUP2 DUP5 PUSH2 0x201 JUMP JUMPDEST SWAP1 POP SWAP3 SWAP2 POP POP JUMP JUMPDEST PUSH1 0x0 DUP2 SWAP1 POP SWAP2 SWAP1 POP JUMP JUMPDEST PUSH2 0x26F DUP2 PUSH2 0x25C JUMP JUMPDEST DUP3 MSTORE POP POP JUMP JUMPDEST PUSH1 0x0 PUSH1 0x20 DUP3 ADD SWAP1 POP PUSH2 0x28A PUSH1 0x0 DUP4 ADD DUP5 PUSH2 0x266 JUMP JUMPDEST SWAP3 SWAP2 POP POP JUMP JUMPDEST PUSH1 0x0 PUSH20 0xFFFFFFFFFFFFFFFFFFFFFFFFFFFFFFFFFFFFFFFF DUP3 AND SWAP1 POP SWAP2 SWAP1 POP JUMP JUMPDEST PUSH1 0x0 PUSH2 0x2BB DUP3 PUSH2 0x290 JUMP JUMPDEST SWAP1 POP SWAP2 SWAP1 POP JUMP JUMPDEST PUSH2 0x2CB DUP2 PUSH2 0x2B0 JUMP JUMPDEST DUP3 MSTORE POP POP JUMP JUMPDEST PUSH1 0x0 PUSH1 0x20 DUP3 ADD SWAP1 POP PUSH2 0x2E6 PUSH1 0x0 DUP4 ADD DUP5 PUSH2 0x2C2 JUMP JUMPDEST SWAP3 SWAP2 POP POP JUMP JUMPDEST PUSH32 0x4E487B7100000000000000000000000000000000000000000000000000000000 PUSH1 0x0 MSTORE PUSH1 0x22 PUSH1 0x4 MSTORE PUSH1 0x24 PUSH1 0x0 REVERT JUMPDEST PUSH1 0x0 PUSH1 0x2 DUP3 DIV SWAP1 POP PUSH1 0x1 DUP3 AND DUP1 PUSH2 0x333 JUMPI PUSH1 0x7F DUP3 AND SWAP2 POP JUMPDEST PUSH1 0x20 DUP3 LT DUP2 SUB PUSH2 0x346 JUMPI PUSH2 0x345 PUSH2 0x2EC JUMP JUMPDEST JUMPDEST POP SWAP2 SWAP1 POP JUMP INVALID LOG2 PUSH5 0x6970667358 0x22 SLT KECCAK256 0x27 COINBASE 0x2A SWAP4 JUMPDEST CREATE PUSH1 0xE5 GASLIMIT 0xCF 0xEA GASPRICE TIMESTAMP 0xDA 0x5D 0xC0 0xF7 SWAP1 0xDF CALLDATACOPY 0xE4 0xEE BALANCE SHL LOG4 0xD6 MUL CALLDATALOAD 0xB6 0xB7 0xC3 BLOCKHASH PUSH5 0x736F6C6343 STOP ADDMOD LT STOP CALLER "
		},
		"gasEstimates": {
			"creation": {
				"codeDepositCost": "179600",
				"executionCost": "infinite",
				"totalCost": "infinite"
			},
			"external": {
				"age()": "2429",
				"checkOwner()": "2566",
				"name()": "infinite",
				"owner()": "2533"
			}
		},
		"methodIdentifiers": {
			"age()": "262a9dff",
			"checkOwner()": "cdbce03d",
			"name()": "06fdde03",
			"owner()": "8da5cb5b"
		}
	},
	"abi": [
		{
			"inputs": [
				{
					"internalType": "address",
					"name": "_owner",
					"type": "address"
				},
				{
					"internalType": "string",
					"name": "_name",
					"type": "string"
				},
				{
					"internalType": "uint256",
					"name": "_age",
					"type": "uint256"
				}
			],
			"stateMutability": "nonpayable",
			"type": "constructor"
		},
		{
			"inputs": [],
			"name": "age",
			"outputs": [
				{
					"internalType": "uint256",
					"name": "",
					"type": "uint256"
				}
			],
			"stateMutability": "view",
			"type": "function"
		},
		{
			"inputs": [],
			"name": "checkOwner",
			"outputs": [
				{
					"internalType": "address",
					"name": "",
					"type": "address"
				}
			],
			"stateMutability": "view",
			"type": "function"
		},
		{
			"inputs": [],
			"name": "name",
			"outputs": [
				{
					"internalType": "string",
					"name": "",
					"type": "string"
				}
			],
			"stateMutability": "view",
			"type": "function"
		},
		{
			"inputs": [],
			"name": "owner",
			"outputs": [
				{
					"internalType": "address",
					"name": "",
					"type": "address"
				}
			],
			"stateMutability": "view",
			"type": "function"
		}
	]
}