{
	"data": {
		"bytecode": {
			"linkReferences": {},
			"object": "60806040526040518060c00160405280602262ffffff168152602001602262ffffff168152602001602262ffffff16815260200162051b5d62ffffff168152602001602d62ffffff168152602001603662ffffff16815250600090600661006792919061007a565b5034801561007457600080fd5b506100de565b82600681019282156100b0579160200282015b828111156100af578251829062ffffff1690559160200191906001019061008d565b5b5090506100bd91906100c1565b5090565b5b808211156100da5760008160009055506001016100c2565b5090565b6102f6806100ed6000396000f3fe608060405234801561001057600080fd5b50600436106100625760003560e01c80633374fbb4146100675780635ea342951461008357806371e5ee5f1461009f5780639722468c146100cf578063cecc13cd146100eb578063f9ba1ba314610109575b600080fd5b610081600480360381019061007c91906101fa565b610127565b005b61009d60048036038101906100989190610227565b610143565b005b6100b960048036038101906100b491906101fa565b610161565b6040516100c69190610276565b60405180910390f35b6100e960048036038101906100e491906101fa565b61017c565b005b6100f3610199565b6040516101009190610276565b60405180910390f35b6101116101b6565b60405161011e9190610276565b60405180910390f35b6000816006811061013b5761013a610291565b5b016000905550565b806000836006811061015857610157610291565b5b01819055505050565b6000816006811061017157600080fd5b016000915090505481565b600080826006811061019157610190610291565b5b018190555050565b6000806003600681106101af576101ae610291565b5b0154905090565b60006006905090565b600080fd5b6000819050919050565b6101d7816101c4565b81146101e257600080fd5b50565b6000813590506101f4816101ce565b92915050565b6000602082840312156102105761020f6101bf565b5b600061021e848285016101e5565b91505092915050565b6000806040838503121561023e5761023d6101bf565b5b600061024c858286016101e5565b925050602061025d858286016101e5565b9150509250929050565b610270816101c4565b82525050565b600060208201905061028b6000830184610267565b92915050565b7f4e487b7100000000000000000000000000000000000000000000000000000000600052603260045260246000fdfea2646970667358221220597bc2e001bcbc22de63963c375dba105315147be1f5be34bd6cc417a6c6236464736f6c63430008100033",
			"opcodes": "PUSH1 0x80 PUSH1 0x40 MSTORE PUSH1 0x40 MLOAD DUP1 PUSH1 0xC0 ADD PUSH1 0x40 MSTORE DUP1 PUSH1 0x22 PUSH3 0xFFFFFF AND DUP2 MSTORE PUSH1 0x20 ADD PUSH1 0x22 PUSH3 0xFFFFFF AND DUP2 MSTORE PUSH1 0x20 ADD PUSH1 0x22 PUSH3 0xFFFFFF AND DUP2 MSTORE PUSH1 0x20 ADD PUSH3 0x51B5D PUSH3 0xFFFFFF AND DUP2 MSTORE PUSH1 0x20 ADD PUSH1 0x2D PUSH3 0xFFFFFF AND DUP2 MSTORE PUSH1 0x20 ADD PUSH1 0x36 PUSH3 0xFFFFFF AND DUP2 MSTORE POP PUSH1 0x0 SWAP1 PUSH1 0x6 PUSH2 0x67 SWAP3 SWAP2 SWAP1 PUSH2 0x7A JUMP JUMPDEST POP CALLVALUE DUP1 ISZERO PUSH2 0x74 JUMPI PUSH1 0x0 DUP1 REVERT JUMPDEST POP PUSH2 0xDE JUMP JUMPDEST DUP3 PUSH1 0x6 DUP2 ADD SWAP3 DUP3 ISZERO PUSH2 0xB0 JUMPI SWAP2 PUSH1 0x20 MUL DUP3 ADD JUMPDEST DUP3 DUP2 GT ISZERO PUSH2 0xAF JUMPI DUP3 MLOAD DUP3 SWAP1 PUSH3 0xFFFFFF AND SWAP1 SSTORE SWAP2 PUSH1 0x20 ADD SWAP2 SWAP1 PUSH1 0x1 ADD SWAP1 PUSH2 0x8D JUMP JUMPDEST JUMPDEST POP SWAP1 POP PUSH2 0xBD SWAP2 SWAP1 PUSH2 0xC1 JUMP JUMPDEST POP SWAP1 JUMP JUMPDEST JUMPDEST DUP1 DUP3 GT ISZERO PUSH2 0xDA JUMPI PUSH1 0x0 DUP2 PUSH1 0x0 SWAP1 SSTORE POP PUSH1 0x1 ADD PUSH2 0xC2 JUMP JUMPDEST POP SWAP1 JUMP JUMPDEST PUSH2 0x2F6 DUP1 PUSH2 0xED PUSH1 0x0 CODECOPY PUSH1 0x0 RETURN INVALID PUSH1 0x80 PUSH1 0x40 MSTORE CALLVALUE DUP1 ISZERO PUSH2 0x10 JUMPI PUSH1 0x0 DUP1 REVERT JUMPDEST POP PUSH1 0x4 CALLDATASIZE LT PUSH2 0x62 JUMPI PUSH1 0x0 CALLDATALOAD PUSH1 0xE0 SHR DUP1 PUSH4 0x3374FBB4 EQ PUSH2 0x67 JUMPI DUP1 PUSH4 0x5EA34295 EQ PUSH2 0x83 JUMPI DUP1 PUSH4 0x71E5EE5F EQ PUSH2 0x9F JUMPI DUP1 PUSH4 0x9722468C EQ PUSH2 0xCF JUMPI DUP1 PUSH4 0xCECC13CD EQ PUSH2 0xEB JUMPI DUP1 PUSH4 0xF9BA1BA3 EQ PUSH2 0x109 JUMPI JUMPDEST PUSH1 0x0 DUP1 REVERT JUMPDEST PUSH2 0x81 PUSH1 0x4 DUP1 CALLDATASIZE SUB DUP2 ADD SWAP1 PUSH2 0x7C SWAP2 SWAP1 PUSH2 0x1FA JUMP JUMPDEST PUSH2 0x127 JUMP JUMPDEST STOP JUMPDEST PUSH2 0x9D PUSH1 0x4 DUP1 CALLDATASIZE SUB DUP2 ADD SWAP1 PUSH2 0x98 SWAP2 SWAP1 PUSH2 0x227 JUMP JUMPDEST PUSH2 0x143 JUMP JUMPDEST STOP JUMPDEST PUSH2 0xB9 PUSH1 0x4 DUP1 CALLDATASIZE SUB DUP2 ADD SWAP1 PUSH2 0xB4 SWAP2 SWAP1 PUSH2 0x1FA JUMP JUMPDEST PUSH2 0x161 JUMP JUMPDEST PUSH1 0x40 MLOAD PUSH2 0xC6 SWAP2 SWAP1 PUSH2 0x276 JUMP JUMPDEST PUSH1 0x40 MLOAD DUP1 SWAP2 SUB SWAP1 RETURN JUMPDEST PUSH2 0xE9 PUSH1 0x4 DUP1 CALLDATASIZE SUB DUP2 ADD SWAP1 PUSH2 0xE4 SWAP2 SWAP1 PUSH2 0x1FA JUMP JUMPDEST PUSH2 0x17C JUMP JUMPDEST STOP JUMPDEST PUSH2 0xF3 PUSH2 0x199 JUMP JUMPDEST PUSH1 0x40 MLOAD PUSH2 0x100 SWAP2 SWAP1 PUSH2 0x276 JUMP JUMPDEST PUSH1 0x40 MLOAD DUP1 SWAP2 SUB SWAP1 RETURN JUMPDEST PUSH2 0x111 PUSH2 0x1B6 JUMP JUMPDEST PUSH1 0x40 MLOAD PUSH2 0x11E SWAP2 SWAP1 PUSH2 0x276 JUMP JUMPDEST PUSH1 0x40 MLOAD DUP1 SWAP2 SUB SWAP1 RETURN JUMPDEST PUSH1 0x0 DUP2 PUSH1 0x6 DUP2 LT PUSH2 0x13B JUMPI PUSH2 0x13A PUSH2 0x291 JUMP JUMPDEST JUMPDEST ADD PUSH1 0x0 SWAP1 SSTORE POP JUMP JUMPDEST DUP1 PUSH1 0x0 DUP4 PUSH1 0x6 DUP2 LT PUSH2 0x158 JUMPI PUSH2 0x157 PUSH2 0x291 JUMP JUMPDEST JUMPDEST ADD DUP2 SWAP1 SSTORE POP POP POP JUMP JUMPDEST PUSH1 0x0 DUP2 PUSH1 0x6 DUP2 LT PUSH2 0x171 JUMPI PUSH1 0x0 DUP1 REVERT JUMPDEST ADD PUSH1 0x0 SWAP2 POP SWAP1 POP SLOAD DUP2 JUMP JUMPDEST PUSH1 0x0 DUP1 DUP3 PUSH1 0x6 DUP2 LT PUSH2 0x191 JUMPI PUSH2 0x190 PUSH2 0x291 JUMP JUMPDEST JUMPDEST ADD DUP2 SWAP1 SSTORE POP POP JUMP JUMPDEST PUSH1 0x0 DUP1 PUSH1 0x3 PUSH1 0x6 DUP2 LT PUSH2 0x1AF JUMPI PUSH2 0x1AE PUSH2 0x291 JUMP JUMPDEST JUMPDEST ADD SLOAD SWAP1 POP SWAP1 JUMP JUMPDEST PUSH1 0x0 PUSH1 0x6 SWAP1 POP SWAP1 JUMP JUMPDEST PUSH1 0x0 DUP1 REVERT JUMPDEST PUSH1 0x0 DUP2 SWAP1 POP SWAP2 SWAP1 POP JUMP JUMPDEST PUSH2 0x1D7 DUP2 PUSH2 0x1C4 JUMP JUMPDEST DUP2 EQ PUSH2 0x1E2 JUMPI PUSH1 0x0 DUP1 REVERT JUMPDEST POP JUMP JUMPDEST PUSH1 0x0 DUP2 CALLDATALOAD SWAP1 POP PUSH2 0x1F4 DUP2 PUSH2 0x1CE JUMP JUMPDEST SWAP3 SWAP2 POP POP JUMP JUMPDEST PUSH1 0x0 PUSH1 0x20 DUP3 DUP5 SUB SLT ISZERO PUSH2 0x210 JUMPI PUSH2 0x20F PUSH2 0x1BF JUMP JUMPDEST JUMPDEST PUSH1 0x0 PUSH2 0x21E DUP5 DUP3 DUP6 ADD PUSH2 0x1E5 JUMP JUMPDEST SWAP2 POP POP SWAP3 SWAP2 POP POP JUMP JUMPDEST PUSH1 0x0 DUP1 PUSH1 0x40 DUP4 DUP6 SUB SLT ISZERO PUSH2 0x23E JUMPI PUSH2 0x23D PUSH2 0x1BF JUMP JUMPDEST JUMPDEST PUSH1 0x0 PUSH2 0x24C DUP6 DUP3 DUP7 ADD PUSH2 0x1E5 JUMP JUMPDEST SWAP3 POP POP PUSH1 0x20 PUSH2 0x25D DUP6 DUP3 DUP7 ADD PUSH2 0x1E5 JUMP JUMPDEST SWAP2 POP POP SWAP3 POP SWAP3 SWAP1 POP JUMP JUMPDEST PUSH2 0x270 DUP2 PUSH2 0x1C4 JUMP JUMPDEST DUP3 MSTORE POP POP JUMP JUMPDEST PUSH1 0x0 PUSH1 0x20 DUP3 ADD SWAP1 POP PUSH2 0x28B PUSH1 0x0 DUP4 ADD DUP5 PUSH2 0x267 JUMP JUMPDEST SWAP3 SWAP2 POP POP JUMP JUMPDEST PUSH32 0x4E487B7100000000000000000000000000000000000000000000000000000000 PUSH1 0x0 MSTORE PUSH1 0x32 PUSH1 0x4 MSTORE PUSH1 0x24 PUSH1 0x0 REVERT INVALID LOG2 PUSH5 0x6970667358 0x22 SLT KECCAK256 MSIZE PUSH28 0xC2E001BCBC22DE63963C375DBA105315147BE1F5BE34BD6CC417A6C6 0x23 PUSH5 0x64736F6C63 NUMBER STOP ADDMOD LT STOP CALLER "
		},
		"gasEstimates": {
			"creation": {
				"codeDepositCost": "151600",
				"executionCost": "infinite",
				"totalCost": "infinite"
			},
			"external": {
				"CHange_index_value(uint256,uint256)": "infinite",
				"Delete_index_value(uint256)": "5493",
				"Valueof_index3()": "2532",
				"arr(uint256)": "infinite",
				"deletes(uint256)": "5422",
				"length_of_array()": "425"
			}
		},
		"methodIdentifiers": {
			"CHange_index_value(uint256,uint256)": "5ea34295",
			"Delete_index_value(uint256)": "9722468c",
			"Valueof_index3()": "cecc13cd",
			"arr(uint256)": "71e5ee5f",
			"deletes(uint256)": "3374fbb4",
			"length_of_array()": "f9ba1ba3"
		}
	},
	"abi": [
		{
			"inputs": [
				{
					"internalType": "uint256",
					"name": "indexValue",
					"type": "uint256"
				},
				{
					"internalType": "uint256",
					"name": "num",
					"type": "uint256"
				}
			],
			"name": "CHange_index_value",
			"outputs": [],
			"stateMutability": "nonpayable",
			"type": "function"
		},
		{
			"inputs": [
				{
					"internalType": "uint256",
					"name": "indexValue",
					"type": "uint256"
				}
			],
			"name": "Delete_index_value",
			"outputs": [],
			"stateMutability": "nonpayable",
			"type": "function"
		},
		{
			"inputs": [],
			"name": "Valueof_index3",
			"outputs": [
				{
					"internalType": "uint256",
					"name": "",
					"type": "uint256"
				}
			],
			"stateMutability": "view",
			"type": "function"
		},
		{
			"inputs": [
				{
					"internalType": "uint256",
					"name": "",
					"type": "uint256"
				}
			],
			"name": "arr",
			"outputs": [
				{
					"internalType": "uint256",
					"name": "",
					"type": "uint256"
				}
			],
			"stateMutability": "view",
			"type": "function"
		},
		{
			"inputs": [
				{
					"internalType": "uint256",
					"name": "index",
					"type": "uint256"
				}
			],
			"name": "deletes",
			"outputs": [],
			"stateMutability": "nonpayable",
			"type": "function"
		},
		{
			"inputs": [],
			"name": "length_of_array",
			"outputs": [
				{
					"internalType": "uint256",
					"name": "",
					"type": "uint256"
				}
			],
			"stateMutability": "view",
			"type": "function"
		}
	]
}