{
	"data": {
		"bytecode": {
			"linkReferences": {},
			"object": "608060405234801561001057600080fd5b5061022c806100206000396000f3fe608060405234801561001057600080fd5b50600436106100415760003560e01c806373d9fc37146100465780638b284a2c14610064578063be3981f714610082575b600080fd5b61004e6100a0565b60405161005b9190610178565b60405180910390f35b61006c6100df565b6040516100799190610178565b60405180910390f35b61008a610121565b6040516100979190610178565b60405180910390f35b6000806000905060006005905060005b6005816100bd91906101c2565b90506001836100cc91906101c2565b9250818311156100b05780935050505090565b60008060009050600080600590505b8082116101185760058361010291906101c2565b925060018261011191906101c2565b91506100ee565b82935050505090565b6000806000905060005b600c8110156101575760058261014191906101c2565b915060028161015091906101c2565b905061012b565b508091505090565b6000819050919050565b6101728161015f565b82525050565b600060208201905061018d6000830184610169565b92915050565b7f4e487b7100000000000000000000000000000000000000000000000000000000600052601160045260246000fd5b60006101cd8261015f565b91506101d88361015f565b92508282019050808211156101f0576101ef610193565b5b9291505056fea26469706673582212202df0c32ba83ea70d899203515e7150a816d267f723c1b77c3e992ed2783d43e164736f6c63430008100033",
			"opcodes": "PUSH1 0x80 PUSH1 0x40 MSTORE CALLVALUE DUP1 ISZERO PUSH2 0x10 JUMPI PUSH1 0x0 DUP1 REVERT JUMPDEST POP PUSH2 0x22C DUP1 PUSH2 0x20 PUSH1 0x0 CODECOPY PUSH1 0x0 RETURN INVALID PUSH1 0x80 PUSH1 0x40 MSTORE CALLVALUE DUP1 ISZERO PUSH2 0x10 JUMPI PUSH1 0x0 DUP1 REVERT JUMPDEST POP PUSH1 0x4 CALLDATASIZE LT PUSH2 0x41 JUMPI PUSH1 0x0 CALLDATALOAD PUSH1 0xE0 SHR DUP1 PUSH4 0x73D9FC37 EQ PUSH2 0x46 JUMPI DUP1 PUSH4 0x8B284A2C EQ PUSH2 0x64 JUMPI DUP1 PUSH4 0xBE3981F7 EQ PUSH2 0x82 JUMPI JUMPDEST PUSH1 0x0 DUP1 REVERT JUMPDEST PUSH2 0x4E PUSH2 0xA0 JUMP JUMPDEST PUSH1 0x40 MLOAD PUSH2 0x5B SWAP2 SWAP1 PUSH2 0x178 JUMP JUMPDEST PUSH1 0x40 MLOAD DUP1 SWAP2 SUB SWAP1 RETURN JUMPDEST PUSH2 0x6C PUSH2 0xDF JUMP JUMPDEST PUSH1 0x40 MLOAD PUSH2 0x79 SWAP2 SWAP1 PUSH2 0x178 JUMP JUMPDEST PUSH1 0x40 MLOAD DUP1 SWAP2 SUB SWAP1 RETURN JUMPDEST PUSH2 0x8A PUSH2 0x121 JUMP JUMPDEST PUSH1 0x40 MLOAD PUSH2 0x97 SWAP2 SWAP1 PUSH2 0x178 JUMP JUMPDEST PUSH1 0x40 MLOAD DUP1 SWAP2 SUB SWAP1 RETURN JUMPDEST PUSH1 0x0 DUP1 PUSH1 0x0 SWAP1 POP PUSH1 0x0 PUSH1 0x5 SWAP1 POP PUSH1 0x0 JUMPDEST PUSH1 0x5 DUP2 PUSH2 0xBD SWAP2 SWAP1 PUSH2 0x1C2 JUMP JUMPDEST SWAP1 POP PUSH1 0x1 DUP4 PUSH2 0xCC SWAP2 SWAP1 PUSH2 0x1C2 JUMP JUMPDEST SWAP3 POP DUP2 DUP4 GT ISZERO PUSH2 0xB0 JUMPI DUP1 SWAP4 POP POP POP POP SWAP1 JUMP JUMPDEST PUSH1 0x0 DUP1 PUSH1 0x0 SWAP1 POP PUSH1 0x0 DUP1 PUSH1 0x5 SWAP1 POP JUMPDEST DUP1 DUP3 GT PUSH2 0x118 JUMPI PUSH1 0x5 DUP4 PUSH2 0x102 SWAP2 SWAP1 PUSH2 0x1C2 JUMP JUMPDEST SWAP3 POP PUSH1 0x1 DUP3 PUSH2 0x111 SWAP2 SWAP1 PUSH2 0x1C2 JUMP JUMPDEST SWAP2 POP PUSH2 0xEE JUMP JUMPDEST DUP3 SWAP4 POP POP POP POP SWAP1 JUMP JUMPDEST PUSH1 0x0 DUP1 PUSH1 0x0 SWAP1 POP PUSH1 0x0 JUMPDEST PUSH1 0xC DUP2 LT ISZERO PUSH2 0x157 JUMPI PUSH1 0x5 DUP3 PUSH2 0x141 SWAP2 SWAP1 PUSH2 0x1C2 JUMP JUMPDEST SWAP2 POP PUSH1 0x2 DUP2 PUSH2 0x150 SWAP2 SWAP1 PUSH2 0x1C2 JUMP JUMPDEST SWAP1 POP PUSH2 0x12B JUMP JUMPDEST POP DUP1 SWAP2 POP POP SWAP1 JUMP JUMPDEST PUSH1 0x0 DUP2 SWAP1 POP SWAP2 SWAP1 POP JUMP JUMPDEST PUSH2 0x172 DUP2 PUSH2 0x15F JUMP JUMPDEST DUP3 MSTORE POP POP JUMP JUMPDEST PUSH1 0x0 PUSH1 0x20 DUP3 ADD SWAP1 POP PUSH2 0x18D PUSH1 0x0 DUP4 ADD DUP5 PUSH2 0x169 JUMP JUMPDEST SWAP3 SWAP2 POP POP JUMP JUMPDEST PUSH32 0x4E487B7100000000000000000000000000000000000000000000000000000000 PUSH1 0x0 MSTORE PUSH1 0x11 PUSH1 0x4 MSTORE PUSH1 0x24 PUSH1 0x0 REVERT JUMPDEST PUSH1 0x0 PUSH2 0x1CD DUP3 PUSH2 0x15F JUMP JUMPDEST SWAP2 POP PUSH2 0x1D8 DUP4 PUSH2 0x15F JUMP JUMPDEST SWAP3 POP DUP3 DUP3 ADD SWAP1 POP DUP1 DUP3 GT ISZERO PUSH2 0x1F0 JUMPI PUSH2 0x1EF PUSH2 0x193 JUMP JUMPDEST JUMPDEST SWAP3 SWAP2 POP POP JUMP INVALID LOG2 PUSH5 0x6970667358 0x22 SLT KECCAK256 0x2D CREATE 0xC3 0x2B 0xA8 RETURNDATACOPY 0xA7 0xD DUP10 SWAP3 SUB MLOAD 0x5E PUSH18 0x50A816D267F723C1B77C3E992ED2783D43E1 PUSH5 0x736F6C6343 STOP ADDMOD LT STOP CALLER "
		},
		"gasEstimates": {
			"creation": {
				"codeDepositCost": "111200",
				"executionCost": "159",
				"totalCost": "111359"
			},
			"external": {
				"Lopp()": "infinite",
				"dowhilwlop()": "infinite",
				"whilelop()": "infinite"
			}
		},
		"methodIdentifiers": {
			"Lopp()": "be3981f7",
			"dowhilwlop()": "73d9fc37",
			"whilelop()": "8b284a2c"
		}
	},
	"abi": [
		{
			"inputs": [],
			"name": "Lopp",
			"outputs": [
				{
					"internalType": "uint256",
					"name": "",
					"type": "uint256"
				}
			],
			"stateMutability": "pure",
			"type": "function"
		},
		{
			"inputs": [],
			"name": "dowhilwlop",
			"outputs": [
				{
					"internalType": "uint256",
					"name": "",
					"type": "uint256"
				}
			],
			"stateMutability": "pure",
			"type": "function"
		},
		{
			"inputs": [],
			"name": "whilelop",
			"outputs": [
				{
					"internalType": "uint256",
					"name": "",
					"type": "uint256"
				}
			],
			"stateMutability": "pure",
			"type": "function"
		}
	]
}