{
	"data": {
		"bytecode": {
			"linkReferences": {},
			"object": "608060405234801561001057600080fd5b506103e86000819055506101a2806100296000396000f3fe608060405234801561001057600080fd5b506004361061004c5760003560e01c80630397b652146100515780632a7a93551461006f578063361a4860146100795780638431d9d914610083575b600080fd5b6100596100a1565b60405161006691906100ee565b60405180910390f35b6100776100a7565b005b6100816100b0565b005b61008b6100cc565b60405161009891906100ee565b60405180910390f35b60005481565b60008081905550565b61012c6000808282546100c39190610138565b92505081905550565b60008054905090565b6000819050919050565b6100e8816100d5565b82525050565b600060208201905061010360008301846100df565b92915050565b7f4e487b7100000000000000000000000000000000000000000000000000000000600052601160045260246000fd5b6000610143826100d5565b915061014e836100d5565b925082820390508181111561016657610165610109565b5b9291505056fea264697066735822122059fa5852e24c22fa5703a3d53df86f3ed6412995ed5697df98fefae0c423a45a64736f6c63430008100033",
			"opcodes": "PUSH1 0x80 PUSH1 0x40 MSTORE CALLVALUE DUP1 ISZERO PUSH2 0x10 JUMPI PUSH1 0x0 DUP1 REVERT JUMPDEST POP PUSH2 0x3E8 PUSH1 0x0 DUP2 SWAP1 SSTORE POP PUSH2 0x1A2 DUP1 PUSH2 0x29 PUSH1 0x0 CODECOPY PUSH1 0x0 RETURN INVALID PUSH1 0x80 PUSH1 0x40 MSTORE CALLVALUE DUP1 ISZERO PUSH2 0x10 JUMPI PUSH1 0x0 DUP1 REVERT JUMPDEST POP PUSH1 0x4 CALLDATASIZE LT PUSH2 0x4C JUMPI PUSH1 0x0 CALLDATALOAD PUSH1 0xE0 SHR DUP1 PUSH4 0x397B652 EQ PUSH2 0x51 JUMPI DUP1 PUSH4 0x2A7A9355 EQ PUSH2 0x6F JUMPI DUP1 PUSH4 0x361A4860 EQ PUSH2 0x79 JUMPI DUP1 PUSH4 0x8431D9D9 EQ PUSH2 0x83 JUMPI JUMPDEST PUSH1 0x0 DUP1 REVERT JUMPDEST PUSH2 0x59 PUSH2 0xA1 JUMP JUMPDEST PUSH1 0x40 MLOAD PUSH2 0x66 SWAP2 SWAP1 PUSH2 0xEE JUMP JUMPDEST PUSH1 0x40 MLOAD DUP1 SWAP2 SUB SWAP1 RETURN JUMPDEST PUSH2 0x77 PUSH2 0xA7 JUMP JUMPDEST STOP JUMPDEST PUSH2 0x81 PUSH2 0xB0 JUMP JUMPDEST STOP JUMPDEST PUSH2 0x8B PUSH2 0xCC JUMP JUMPDEST PUSH1 0x40 MLOAD PUSH2 0x98 SWAP2 SWAP1 PUSH2 0xEE JUMP JUMPDEST PUSH1 0x40 MLOAD DUP1 SWAP2 SUB SWAP1 RETURN JUMPDEST PUSH1 0x0 SLOAD DUP2 JUMP JUMPDEST PUSH1 0x0 DUP1 DUP2 SWAP1 SSTORE POP JUMP JUMPDEST PUSH2 0x12C PUSH1 0x0 DUP1 DUP3 DUP3 SLOAD PUSH2 0xC3 SWAP2 SWAP1 PUSH2 0x138 JUMP JUMPDEST SWAP3 POP POP DUP2 SWAP1 SSTORE POP JUMP JUMPDEST PUSH1 0x0 DUP1 SLOAD SWAP1 POP SWAP1 JUMP JUMPDEST PUSH1 0x0 DUP2 SWAP1 POP SWAP2 SWAP1 POP JUMP JUMPDEST PUSH2 0xE8 DUP2 PUSH2 0xD5 JUMP JUMPDEST DUP3 MSTORE POP POP JUMP JUMPDEST PUSH1 0x0 PUSH1 0x20 DUP3 ADD SWAP1 POP PUSH2 0x103 PUSH1 0x0 DUP4 ADD DUP5 PUSH2 0xDF JUMP JUMPDEST SWAP3 SWAP2 POP POP JUMP JUMPDEST PUSH32 0x4E487B7100000000000000000000000000000000000000000000000000000000 PUSH1 0x0 MSTORE PUSH1 0x11 PUSH1 0x4 MSTORE PUSH1 0x24 PUSH1 0x0 REVERT JUMPDEST PUSH1 0x0 PUSH2 0x143 DUP3 PUSH2 0xD5 JUMP JUMPDEST SWAP2 POP PUSH2 0x14E DUP4 PUSH2 0xD5 JUMP JUMPDEST SWAP3 POP DUP3 DUP3 SUB SWAP1 POP DUP2 DUP2 GT ISZERO PUSH2 0x166 JUMPI PUSH2 0x165 PUSH2 0x109 JUMP JUMPDEST JUMPDEST SWAP3 SWAP2 POP POP JUMP INVALID LOG2 PUSH5 0x6970667358 0x22 SLT KECCAK256 MSIZE STATICCALL PC MSTORE 0xE2 0x4C 0x22 STATICCALL JUMPI SUB LOG3 0xD5 RETURNDATASIZE 0xF8 PUSH16 0x3ED6412995ED5697DF98FEFAE0C423A4 GAS PUSH5 0x736F6C6343 STOP ADDMOD LT STOP CALLER "
		},
		"gasEstimates": {
			"creation": {
				"codeDepositCost": "83600",
				"executionCost": "22249",
				"totalCost": "105849"
			},
			"external": {
				"GetSalry()": "2481",
				"decreaseSalary()": "infinite",
				"resetSalary()": "5158",
				"salary()": "2407"
			}
		},
		"methodIdentifiers": {
			"GetSalry()": "8431d9d9",
			"decreaseSalary()": "361a4860",
			"resetSalary()": "2a7a9355",
			"salary()": "0397b652"
		}
	},
	"abi": [
		{
			"inputs": [],
			"stateMutability": "nonpayable",
			"type": "constructor"
		},
		{
			"inputs": [],
			"name": "GetSalry",
			"outputs": [
				{
					"internalType": "uint256",
					"name": "",
					"type": "uint256"
				}
			],
			"stateMutability": "view",
			"type": "function"
		},
		{
			"inputs": [],
			"name": "decreaseSalary",
			"outputs": [],
			"stateMutability": "nonpayable",
			"type": "function"
		},
		{
			"inputs": [],
			"name": "resetSalary",
			"outputs": [],
			"stateMutability": "nonpayable",
			"type": "function"
		},
		{
			"inputs": [],
			"name": "salary",
			"outputs": [
				{
					"internalType": "uint256",
					"name": "",
					"type": "uint256"
				}
			],
			"stateMutability": "view",
			"type": "function"
		}
	]
}