{
	"data": {
		"bytecode": {
			"linkReferences": {},
			"object": "610160604052600e600d5534801562000016575f80fd5b506040518060400160405280600581526020017f55476f6c64000000000000000000000000000000000000000000000000000000815250806040518060400160405280600181526020017f31000000000000000000000000000000000000000000000000000000000000008152506040518060400160405280600581526020017f55476f6c640000000000000000000000000000000000000000000000000000008152506040518060400160405280600481526020017f75474c4400000000000000000000000000000000000000000000000000000000815250816003908162000101919062001045565b50806004908162000113919062001045565b505050620001366200012a6200022b60201b60201c565b6200023260201b60201c565b6200014c600683620002f560201b90919060201c565b61012081815250506200016a600782620002f560201b90919060201c565b6101408181525050818051906020012060e08181525050808051906020012061010081815250504660a08181525050620001a96200034a60201b60201c565b608081815250503073ffffffffffffffffffffffffffffffffffffffff1660c08173ffffffffffffffffffffffffffffffffffffffff16815250505050506200022533620001fc620003a660201b60201c565b600a6200020a9190620012b2565b61271062000219919062001302565b620003ae60201b60201c565b620018d7565b5f33905090565b5f60055f9054906101000a900473ffffffffffffffffffffffffffffffffffffffff1690508160055f6101000a81548173ffffffffffffffffffffffffffffffffffffffff021916908373ffffffffffffffffffffffffffffffffffffffff1602179055508173ffffffffffffffffffffffffffffffffffffffff168173ffffffffffffffffffffffffffffffffffffffff167f8be0079c531659141344cd1fd0a4f28419497f9722a3daafe3b4186f6b6457e060405160405180910390a35050565b5f6020835110156200031a576200031283620003c460201b60201c565b905062000344565b826200032c836200042e60201b60201c565b5f0190816200033c919062001045565b5060ff5f1b90505b92915050565b5f7f8b73c3c69bb8fe3d512ecc4cf759cc79239f7b179b0ffacaa9a75d522b39400f60e0516101005146306040516020016200038b959493929190620013ba565b60405160208183030381529060405280519060200120905090565b5f6012905090565b620003c082826200043760201b60201c565b5050565b5f80829050601f815111156200041357826040517f305a27a90000000000000000000000000000000000000000000000000000000081526004016200040a91906200149f565b60405180910390fd5b8051816200042190620014f0565b5f1c175f1b915050919050565b5f819050919050565b620004498282620004f060201b60201c565b620004596200065560201b60201c565b7bffffffffffffffffffffffffffffffffffffffffffffffffffffffff16620004876200067860201b60201c565b1115620004cb576040517f08c379a0000000000000000000000000000000000000000000000000000000008152600401620004c290620015d3565b60405180910390fd5b620004ea600c6200068160201b620016cd17836200069860201b60201c565b50505050565b5f73ffffffffffffffffffffffffffffffffffffffff168273ffffffffffffffffffffffffffffffffffffffff160362000561576040517f08c379a0000000000000000000000000000000000000000000000000000000008152600401620005589062001641565b60405180910390fd5b620005745f83836200099c60201b60201c565b8060025f82825462000587919062001661565b92505081905550805f808473ffffffffffffffffffffffffffffffffffffffff1673ffffffffffffffffffffffffffffffffffffffff1681526020019081526020015f205f82825401925050819055508173ffffffffffffffffffffffffffffffffffffffff165f73ffffffffffffffffffffffffffffffffffffffff167fddf252ad1be2c89b69c2b068fc378daa952ba7f163c4a11628f55a4df523b3ef836040516200063691906200169b565b60405180910390a3620006515f8383620009a160201b60201c565b5050565b5f7bffffffffffffffffffffffffffffffffffffffffffffffffffffffff905090565b5f600254905090565b5f818362000690919062001661565b905092915050565b5f805f858054905090505f8082146200076257620006c08760018403620009b960201b60201c565b6040518060400160405290815f82015f9054906101000a900463ffffffff1663ffffffff1663ffffffff1681526020015f820160049054906101000a90047bffffffffffffffffffffffffffffffffffffffffffffffffffffffff167bffffffffffffffffffffffffffffffffffffffffffffffffffffffff167bffffffffffffffffffffffffffffffffffffffffffffffffffffffff16815250506200079c565b60405180604001604052805f63ffffffff1681526020015f7bffffffffffffffffffffffffffffffffffffffffffffffffffffffff168152505b905080602001517bffffffffffffffffffffffffffffffffffffffffffffffffffffffff169350620007cf84868860201c565b92505f82118015620008005750620007ec620009cb60201b60201c565b65ffffffffffff16815f015163ffffffff16145b1562000882576200081783620009e260201b60201c565b6200082c8860018503620009b960201b60201c565b5f0160046101000a8154817bffffffffffffffffffffffffffffffffffffffffffffffffffffffff02191690837bffffffffffffffffffffffffffffffffffffffffffffffffffffffff16021790555062000992565b866040518060400160405280620008b6620008a2620009cb60201b60201c565b65ffffffffffff1662000a4f60201b60201c565b63ffffffff168152602001620008d286620009e260201b60201c565b7bffffffffffffffffffffffffffffffffffffffffffffffffffffffff16815250908060018154018082558091505060019003905f5260205f20015f909190919091505f820151815f015f6101000a81548163ffffffff021916908363ffffffff1602179055506020820151815f0160046101000a8154817bffffffffffffffffffffffffffffffffffffffffffffffffffffffff02191690837bffffffffffffffffffffffffffffffffffffffffffffffffffffffff16021790555050505b5050935093915050565b505050565b620009b483838362000aa460201b60201c565b505050565b5f825f528160205f2001905092915050565b5f620009dd4362000aef60201b60201c565b905090565b5f7bffffffffffffffffffffffffffffffffffffffffffffffffffffffff801682111562000a47576040517f08c379a000000000000000000000000000000000000000000000000000000000815260040162000a3e906200172a565b60405180910390fd5b819050919050565b5f63ffffffff801682111562000a9c576040517f08c379a000000000000000000000000000000000000000000000000000000000815260040162000a9390620017be565b60405180910390fd5b819050919050565b62000ab783838362000b4660201b60201c565b62000aea62000acc8462000b4b60201b60201c565b62000add8462000b4b60201b60201c565b8362000bb060201b60201c565b505050565b5f65ffffffffffff801682111562000b3e576040517f08c379a000000000000000000000000000000000000000000000000000000000815260040162000b359062001852565b60405180910390fd5b819050919050565b505050565b5f600a5f8373ffffffffffffffffffffffffffffffffffffffff1673ffffffffffffffffffffffffffffffffffffffff1681526020019081526020015f205f9054906101000a900473ffffffffffffffffffffffffffffffffffffffff169050919050565b8173ffffffffffffffffffffffffffffffffffffffff168373ffffffffffffffffffffffffffffffffffffffff161415801562000bec57505f81115b1562000dc5575f73ffffffffffffffffffffffffffffffffffffffff168373ffffffffffffffffffffffffffffffffffffffff161462000cdb575f8062000c82600b5f8773ffffffffffffffffffffffffffffffffffffffff1673ffffffffffffffffffffffffffffffffffffffff1681526020019081526020015f2062000dca60201b620016e217856200069860201b60201c565b915091508473ffffffffffffffffffffffffffffffffffffffff167fdec2bacdd2f05b59de34da9b523dff8be42e5e38e818c82fdb0bae774387a724838360405162000cd092919062001872565b60405180910390a250505b5f73ffffffffffffffffffffffffffffffffffffffff168273ffffffffffffffffffffffffffffffffffffffff161462000dc4575f8062000d6b600b5f8673ffffffffffffffffffffffffffffffffffffffff1673ffffffffffffffffffffffffffffffffffffffff1681526020019081526020015f206200068160201b620016cd17856200069860201b60201c565b915091508373ffffffffffffffffffffffffffffffffffffffff167fdec2bacdd2f05b59de34da9b523dff8be42e5e38e818c82fdb0bae774387a724838360405162000db992919062001872565b60405180910390a250505b5b505050565b5f818362000dd991906200189d565b905092915050565b5f81519050919050565b7f4e487b71000000000000000000000000000000000000000000000000000000005f52604160045260245ffd5b7f4e487b71000000000000000000000000000000000000000000000000000000005f52602260045260245ffd5b5f600282049050600182168062000e5d57607f821691505b60208210810362000e735762000e7262000e18565b5b50919050565b5f819050815f5260205f209050919050565b5f6020601f8301049050919050565b5f82821b905092915050565b5f6008830262000ed77fffffffffffffffffffffffffffffffffffffffffffffffffffffffffffffffff8262000e9a565b62000ee3868362000e9a565b95508019841693508086168417925050509392505050565b5f819050919050565b5f819050919050565b5f62000f2d62000f2762000f218462000efb565b62000f04565b62000efb565b9050919050565b5f819050919050565b62000f488362000f0d565b62000f6062000f578262000f34565b84845462000ea6565b825550505050565b5f90565b62000f7662000f68565b62000f8381848462000f3d565b505050565b5b8181101562000faa5762000f9e5f8262000f6c565b60018101905062000f89565b5050565b601f82111562000ff95762000fc38162000e79565b62000fce8462000e8b565b8101602085101562000fde578190505b62000ff662000fed8562000e8b565b83018262000f88565b50505b505050565b5f82821c905092915050565b5f6200101b5f198460080262000ffe565b1980831691505092915050565b5f6200103583836200100a565b9150826002028217905092915050565b620010508262000de1565b67ffffffffffffffff8111156200106c576200106b62000deb565b5b62001078825462000e45565b6200108582828562000fae565b5f60209050601f831160018114620010bb575f8415620010a6578287015190505b620010b2858262001028565b86555062001121565b601f198416620010cb8662000e79565b5f5b82811015620010f457848901518255600182019150602085019450602081019050620010cd565b8683101562001114578489015162001110601f8916826200100a565b8355505b6001600288020188555050505b505050505050565b7f4e487b71000000000000000000000000000000000000000000000000000000005f52601160045260245ffd5b5f8160011c9050919050565b5f808291508390505b6001851115620011b3578086048111156200118b576200118a62001129565b5b60018516156200119b5780820291505b8081029050620011ab8562001156565b94506200116b565b94509492505050565b5f82620011cd57600190506200129f565b81620011dc575f90506200129f565b8160018114620011f55760028114620012005762001236565b60019150506200129f565b60ff84111562001215576200121462001129565b5b8360020a9150848211156200122f576200122e62001129565b5b506200129f565b5060208310610133831016604e8410600b8410161715620012705782820a9050838111156200126a576200126962001129565b5b6200129f565b6200127f848484600162001162565b9250905081840481111562001299576200129862001129565b5b81810290505b9392505050565b5f60ff82169050919050565b5f620012be8262000efb565b9150620012cb83620012a6565b9250620012fa7fffffffffffffffffffffffffffffffffffffffffffffffffffffffffffffffff8484620011bc565b905092915050565b5f6200130e8262000efb565b91506200131b8362000efb565b92508282026200132b8162000efb565b9150828204841483151762001345576200134462001129565b5b5092915050565b5f819050919050565b62001360816200134c565b82525050565b620013718162000efb565b82525050565b5f73ffffffffffffffffffffffffffffffffffffffff82169050919050565b5f620013a28262001377565b9050919050565b620013b48162001396565b82525050565b5f60a082019050620013cf5f83018862001355565b620013de602083018762001355565b620013ed604083018662001355565b620013fc606083018562001366565b6200140b6080830184620013a9565b9695505050505050565b5f82825260208201905092915050565b5f5b838110156200144457808201518184015260208101905062001427565b5f8484015250505050565b5f601f19601f8301169050919050565b5f6200146b8262000de1565b62001477818562001415565b93506200148981856020860162001425565b62001494816200144f565b840191505092915050565b5f6020820190508181035f830152620014b981846200145f565b905092915050565b5f81519050919050565b5f819050602082019050919050565b5f620014e782516200134c565b80915050919050565b5f620014fc82620014c1565b826200150884620014cb565b90506200151581620014da565b925060208210156200155857620015537fffffffffffffffffffffffffffffffffffffffffffffffffffffffffffffffff8360200360080262000e9a565b831692505b5050919050565b7f4552433230566f7465733a20746f74616c20737570706c79207269736b73206f5f8201527f766572666c6f77696e6720766f74657300000000000000000000000000000000602082015250565b5f620015bb60308362001415565b9150620015c8826200155f565b604082019050919050565b5f6020820190508181035f830152620015ec81620015ad565b9050919050565b7f45524332303a206d696e7420746f20746865207a65726f2061646472657373005f82015250565b5f62001629601f8362001415565b91506200163682620015f3565b602082019050919050565b5f6020820190508181035f8301526200165a816200161b565b9050919050565b5f6200166d8262000efb565b91506200167a8362000efb565b925082820190508082111562001695576200169462001129565b5b92915050565b5f602082019050620016b05f83018462001366565b92915050565b7f53616665436173743a2076616c756520646f65736e27742066697420696e20325f8201527f3234206269747300000000000000000000000000000000000000000000000000602082015250565b5f6200171260278362001415565b91506200171f82620016b6565b604082019050919050565b5f6020820190508181035f830152620017438162001704565b9050919050565b7f53616665436173743a2076616c756520646f65736e27742066697420696e20335f8201527f3220626974730000000000000000000000000000000000000000000000000000602082015250565b5f620017a660268362001415565b9150620017b3826200174a565b604082019050919050565b5f6020820190508181035f830152620017d78162001798565b9050919050565b7f53616665436173743a2076616c756520646f65736e27742066697420696e20345f8201527f3820626974730000000000000000000000000000000000000000000000000000602082015250565b5f6200183a60268362001415565b91506200184782620017de565b604082019050919050565b5f6020820190508181035f8301526200186b816200182c565b9050919050565b5f604082019050620018875f83018562001366565b62001896602083018462001366565b9392505050565b5f620018a98262000efb565b9150620018b68362000efb565b9250828203905081811115620018d157620018d062001129565b5b92915050565b60805160a05160c05160e051610100516101205161014051614a4f620019295f395f610f0501525f610ed101525f61227301525f61225201525f611bbb01525f611c1101525f611c3a0152614a4f5ff3fe608060405260043610610203575f3560e01c80636fcfff451161011757806395d89b411161009f578063c3cda5201161006e578063c3cda520146107a3578063d505accf146107cb578063dd62ed3e146107f3578063f1127ed81461082f578063f2fde38b1461086b57610203565b806395d89b41146106c55780639ab24eb0146106ef578063a457c2d71461072b578063a9059cbb1461076757610203565b80637ecebe00116100e65780637ecebe00146105c957806384b0196e146106055780638da5cb5b146106355780638e539e8c1461065f57806391ddadf41461069b57610203565b80636fcfff451461051357806370a082311461054f578063715018a61461058b57806379cc6790146105a157610203565b80633a46b1a81161019a5780634bf5d7e9116101695780634bf5d7e914610435578063587cde1e1461045f5780635c19a95c1461049b5780636a61e5fc146104c35780636c11bcd3146104eb57610203565b80633a46b1a81461037f57806340c10f19146103bb57806342966c68146103e35780634b94f50e1461040b57610203565b8063313ce567116101d6578063313ce567146102d35780633610724e146102fd5780633644e51514610319578063395093511461034357610203565b806306fdde0314610207578063095ea7b31461023157806318160ddd1461026d57806323b872dd14610297575b5f80fd5b348015610212575f80fd5b5061021b610893565b6040516102289190613228565b60405180910390f35b34801561023c575f80fd5b50610257600480360381019061025291906132d9565b610923565b6040516102649190613331565b60405180910390f35b348015610278575f80fd5b50610281610945565b60405161028e9190613359565b60405180910390f35b3480156102a2575f80fd5b506102bd60048036038101906102b89190613372565b61094e565b6040516102ca9190613331565b60405180910390f35b3480156102de575f80fd5b506102e761097c565b6040516102f491906133dd565b60405180910390f35b610317600480360381019061031291906133f6565b610984565b005b348015610324575f80fd5b5061032d610a83565b60405161033a9190613439565b60405180910390f35b34801561034e575f80fd5b50610369600480360381019061036491906132d9565b610a91565b6040516103769190613331565b60405180910390f35b34801561038a575f80fd5b506103a560048036038101906103a091906132d9565b610ac7565b6040516103b29190613359565b60405180910390f35b3480156103c6575f80fd5b506103e160048036038101906103dc91906132d9565b610b67565b005b3480156103ee575f80fd5b50610409600480360381019061040491906133f6565b610b7d565b005b348015610416575f80fd5b5061041f610b91565b60405161042c9190613359565b60405180910390f35b348015610440575f80fd5b50610449610b9a565b6040516104569190613228565b60405180910390f35b34801561046a575f80fd5b5061048560048036038101906104809190613452565b610c28565b604051610492919061348c565b60405180910390f35b3480156104a6575f80fd5b506104c160048036038101906104bc9190613452565b610c8d565b005b3480156104ce575f80fd5b506104e960048036038101906104e491906133f6565b610ca1565b005b3480156104f6575f80fd5b50610511600480360381019061050c91906133f6565b610cb3565b005b34801561051e575f80fd5b5061053960048036038101906105349190613452565b610dab565b60405161054691906134c3565b60405180910390f35b34801561055a575f80fd5b5061057560048036038101906105709190613452565b610dfc565b6040516105829190613359565b60405180910390f35b348015610596575f80fd5b5061059f610e41565b005b3480156105ac575f80fd5b506105c760048036038101906105c291906132d9565b610e54565b005b3480156105d4575f80fd5b506105ef60048036038101906105ea9190613452565b610e74565b6040516105fc9190613359565b60405180910390f35b348015610610575f80fd5b50610619610ec1565b60405161062c97969594939291906135cd565b60405180910390f35b348015610640575f80fd5b50610649610fbe565b604051610656919061348c565b60405180910390f35b34801561066a575f80fd5b50610685600480360381019061068091906133f6565b610fe6565b6040516106929190613359565b60405180910390f35b3480156106a6575f80fd5b506106af61104a565b6040516106bc919061366f565b60405180910390f35b3480156106d0575f80fd5b506106d9611059565b6040516106e69190613228565b60405180910390f35b3480156106fa575f80fd5b5061071560048036038101906107109190613452565b6110e9565b6040516107229190613359565b60405180910390f35b348015610736575f80fd5b50610751600480360381019061074c91906132d9565b6111e7565b60405161075e9190613331565b60405180910390f35b348015610772575f80fd5b5061078d600480360381019061078891906132d9565b61125c565b60405161079a9190613331565b60405180910390f35b3480156107ae575f80fd5b506107c960048036038101906107c491906136dc565b61127e565b005b3480156107d6575f80fd5b506107f160048036038101906107ec9190613765565b611381565b005b3480156107fe575f80fd5b5061081960048036038101906108149190613802565b6114c0565b6040516108269190613359565b60405180910390f35b34801561083a575f80fd5b506108556004803603810190610850919061386a565b611542565b604051610862919061391a565b60405180910390f35b348015610876575f80fd5b50610891600480360381019061088c9190613452565b61164b565b005b6060600380546108a290613960565b80601f01602080910402602001604051908101604052809291908181526020018280546108ce90613960565b80156109195780601f106108f057610100808354040283529160200191610919565b820191905f5260205f20905b8154815290600101906020018083116108fc57829003601f168201915b5050505050905090565b5f8061092d6116f7565b905061093a8185856116fe565b600191505092915050565b5f600254905090565b5f806109586116f7565b90506109658582856118c1565b61097085858561194c565b60019150509392505050565b5f6012905090565b5f81116109c6576040517f08c379a00000000000000000000000000000000000000000000000000000000081526004016109bd906139da565b60405180910390fd5b600d54816109d49190613a25565b341015610a16576040517f08c379a0000000000000000000000000000000000000000000000000000000008152600401610a0d90613ab0565b60405180910390fd5b610a28610a21610fbe565b338361194c565b610a30610fbe565b73ffffffffffffffffffffffffffffffffffffffff166108fc600d5483610a579190613a25565b90811502906040515f60405180830381858888f19350505050158015610a7f573d5f803e3d5ffd5b5050565b5f610a8c611bb8565b905090565b5f80610a9b6116f7565b9050610abc818585610aad85896114c0565b610ab79190613ace565b6116fe565b600191505092915050565b5f610ad061104a565b65ffffffffffff168210610b19576040517f08c379a0000000000000000000000000000000000000000000000000000000008152600401610b1090613b4b565b60405180910390fd5b610b5f600b5f8573ffffffffffffffffffffffffffffffffffffffff1673ffffffffffffffffffffffffffffffffffffffff1681526020019081526020015f2083611c6e565b905092915050565b610b6f611dab565b610b798282611e29565b5050565b610b8e610b886116f7565b82611e37565b50565b5f600d54905090565b606043610ba561104a565b65ffffffffffff1614610bed576040517f08c379a0000000000000000000000000000000000000000000000000000000008152600401610be490613bb3565b60405180910390fd5b6040518060400160405280601d81526020017f6d6f64653d626c6f636b6e756d6265722666726f6d3d64656661756c74000000815250905090565b5f600a5f8373ffffffffffffffffffffffffffffffffffffffff1673ffffffffffffffffffffffffffffffffffffffff1681526020019081526020015f205f9054906101000a900473ffffffffffffffffffffffffffffffffffffffff169050919050565b610c9e610c986116f7565b82611e45565b50565b610ca9611dab565b80600d8190555050565b5f8111610cf5576040517f08c379a0000000000000000000000000000000000000000000000000000000008152600401610cec906139da565b60405180910390fd5b80610cff33610dfc565b1015610d40576040517f08c379a0000000000000000000000000000000000000000000000000000000008152600401610d3790613c1b565b60405180910390fd5b610d5233610d4c610fbe565b8361194c565b5f600d5482610d619190613a25565b90503373ffffffffffffffffffffffffffffffffffffffff166108fc8290811502906040515f60405180830381858888f19350505050158015610da6573d5f803e3d5ffd5b505050565b5f610df5600b5f8473ffffffffffffffffffffffffffffffffffffffff1673ffffffffffffffffffffffffffffffffffffffff1681526020019081526020015f2080549050611f5a565b9050919050565b5f805f8373ffffffffffffffffffffffffffffffffffffffff1673ffffffffffffffffffffffffffffffffffffffff1681526020019081526020015f20549050919050565b610e49611dab565b610e525f611fac565b565b610e6682610e606116f7565b836118c1565b610e708282611e37565b5050565b5f610eba60085f8473ffffffffffffffffffffffffffffffffffffffff1673ffffffffffffffffffffffffffffffffffffffff1681526020019081526020015f2061206f565b9050919050565b5f6060805f805f6060610efe60067f000000000000000000000000000000000000000000000000000000000000000061207b90919063ffffffff16565b610f3260077f000000000000000000000000000000000000000000000000000000000000000061207b90919063ffffffff16565b46305f801b5f67ffffffffffffffff811115610f5157610f50613c39565b5b604051908082528060200260200182016040528015610f7f5781602001602082028036833780820191505090505b507f0f00000000000000000000000000000000000000000000000000000000000000959493929190965096509650965096509650965090919293949596565b5f60055f9054906101000a900473ffffffffffffffffffffffffffffffffffffffff16905090565b5f610fef61104a565b65ffffffffffff168210611038576040517f08c379a000000000000000000000000000000000000000000000000000000000815260040161102f90613b4b565b60405180910390fd5b611043600c83611c6e565b9050919050565b5f61105443612128565b905090565b60606004805461106890613960565b80601f016020809104026020016040519081016040528092919081815260200182805461109490613960565b80156110df5780601f106110b6576101008083540402835291602001916110df565b820191905f5260205f20905b8154815290600101906020018083116110c257829003601f168201915b5050505050905090565b5f80600b5f8473ffffffffffffffffffffffffffffffffffffffff1673ffffffffffffffffffffffffffffffffffffffff1681526020019081526020015f208054905090505f81146111bf57600b5f8473ffffffffffffffffffffffffffffffffffffffff1673ffffffffffffffffffffffffffffffffffffffff1681526020019081526020015f20600182038154811061118757611186613c66565b5b905f5260205f20015f0160049054906101000a90047bffffffffffffffffffffffffffffffffffffffffffffffffffffffff166111c1565b5f5b7bffffffffffffffffffffffffffffffffffffffffffffffffffffffff16915050919050565b5f806111f16116f7565b90505f6111fe82866114c0565b905083811015611243576040517f08c379a000000000000000000000000000000000000000000000000000000000815260040161123a90613d03565b60405180910390fd5b61125082868684036116fe565b60019250505092915050565b5f806112666116f7565b905061127381858561194c565b600191505092915050565b834211156112c1576040517f08c379a00000000000000000000000000000000000000000000000000000000081526004016112b890613d6b565b60405180910390fd5b5f61132261131a7fe48329057bfd03d55e49b547132e39cffd9c1820ad7b9d4c5307691425d15adf8989896040516020016112ff9493929190613d89565b6040516020818303038152906040528051906020012061217c565b858585612195565b905061132d816121be565b861461136e576040517f08c379a000000000000000000000000000000000000000000000000000000000815260040161136590613e16565b60405180910390fd5b6113788188611e45565b50505050505050565b834211156113c4576040517f08c379a00000000000000000000000000000000000000000000000000000000081526004016113bb90613e7e565b60405180910390fd5b5f7f6e71edae12b1b97f4d1f60370fef10105fa2faae0126114a169c64845d6126c98888886113f28c6121be565b8960405160200161140896959493929190613e9c565b6040516020818303038152906040528051906020012090505f61142a8261217c565b90505f61143982878787612195565b90508973ffffffffffffffffffffffffffffffffffffffff168173ffffffffffffffffffffffffffffffffffffffff16146114a9576040517f08c379a00000000000000000000000000000000000000000000000000000000081526004016114a090613f45565b60405180910390fd5b6114b48a8a8a6116fe565b50505050505050505050565b5f60015f8473ffffffffffffffffffffffffffffffffffffffff1673ffffffffffffffffffffffffffffffffffffffff1681526020019081526020015f205f8373ffffffffffffffffffffffffffffffffffffffff1673ffffffffffffffffffffffffffffffffffffffff1681526020019081526020015f2054905092915050565b61154a613162565b600b5f8473ffffffffffffffffffffffffffffffffffffffff1673ffffffffffffffffffffffffffffffffffffffff1681526020019081526020015f208263ffffffff168154811061159f5761159e613c66565b5b905f5260205f20016040518060400160405290815f82015f9054906101000a900463ffffffff1663ffffffff1663ffffffff1681526020015f820160049054906101000a90047bffffffffffffffffffffffffffffffffffffffffffffffffffffffff167bffffffffffffffffffffffffffffffffffffffffffffffffffffffff167bffffffffffffffffffffffffffffffffffffffffffffffffffffffff1681525050905092915050565b611653611dab565b5f73ffffffffffffffffffffffffffffffffffffffff168173ffffffffffffffffffffffffffffffffffffffff16036116c1576040517f08c379a00000000000000000000000000000000000000000000000000000000081526004016116b890613fd3565b60405180910390fd5b6116ca81611fac565b50565b5f81836116da9190613ace565b905092915050565b5f81836116ef9190613ff1565b905092915050565b5f33905090565b5f73ffffffffffffffffffffffffffffffffffffffff168373ffffffffffffffffffffffffffffffffffffffff160361176c576040517f08c379a000000000000000000000000000000000000000000000000000000000815260040161176390614094565b60405180910390fd5b5f73ffffffffffffffffffffffffffffffffffffffff168273ffffffffffffffffffffffffffffffffffffffff16036117da576040517f08c379a00000000000000000000000000000000000000000000000000000000081526004016117d190614122565b60405180910390fd5b8060015f8573ffffffffffffffffffffffffffffffffffffffff1673ffffffffffffffffffffffffffffffffffffffff1681526020019081526020015f205f8473ffffffffffffffffffffffffffffffffffffffff1673ffffffffffffffffffffffffffffffffffffffff1681526020019081526020015f20819055508173ffffffffffffffffffffffffffffffffffffffff168373ffffffffffffffffffffffffffffffffffffffff167f8c5be1e5ebec7d5bd14f71427d1e84f3dd0314c0f7b2291e5b200ac8c7c3b925836040516118b49190613359565b60405180910390a3505050565b5f6118cc84846114c0565b90507fffffffffffffffffffffffffffffffffffffffffffffffffffffffffffffffff81146119465781811015611938576040517f08c379a000000000000000000000000000000000000000000000000000000000815260040161192f9061418a565b60405180910390fd5b61194584848484036116fe565b5b50505050565b5f73ffffffffffffffffffffffffffffffffffffffff168373ffffffffffffffffffffffffffffffffffffffff16036119ba576040517f08c379a00000000000000000000000000000000000000000000000000000000081526004016119b190614218565b60405180910390fd5b5f73ffffffffffffffffffffffffffffffffffffffff168273ffffffffffffffffffffffffffffffffffffffff1603611a28576040517f08c379a0000000000000000000000000000000000000000000000000000000008152600401611a1f906142a6565b60405180910390fd5b611a33838383612219565b5f805f8573ffffffffffffffffffffffffffffffffffffffff1673ffffffffffffffffffffffffffffffffffffffff1681526020019081526020015f2054905081811015611ab6576040517f08c379a0000000000000000000000000000000000000000000000000000000008152600401611aad90614334565b60405180910390fd5b8181035f808673ffffffffffffffffffffffffffffffffffffffff1673ffffffffffffffffffffffffffffffffffffffff1681526020019081526020015f2081905550815f808573ffffffffffffffffffffffffffffffffffffffff1673ffffffffffffffffffffffffffffffffffffffff1681526020019081526020015f205f82825401925050819055508273ffffffffffffffffffffffffffffffffffffffff168473ffffffffffffffffffffffffffffffffffffffff167fddf252ad1be2c89b69c2b068fc378daa952ba7f163c4a11628f55a4df523b3ef84604051611b9f9190613359565b60405180910390a3611bb284848461221e565b50505050565b5f7f000000000000000000000000000000000000000000000000000000000000000073ffffffffffffffffffffffffffffffffffffffff163073ffffffffffffffffffffffffffffffffffffffff16148015611c3357507f000000000000000000000000000000000000000000000000000000000000000046145b15611c60577f00000000000000000000000000000000000000000000000000000000000000009050611c6b565b611c6861222e565b90505b90565b5f80838054905090505f808290506005831115611cdf575f611c8f846122c3565b84611c9a9190613ff1565b905085611ca788836123b9565b5f015f9054906101000a900463ffffffff1663ffffffff161115611ccd57809150611cdd565b600181611cda9190613ace565b92505b505b5b80821015611d3c575f611cf383836123cb565b905085611d0088836123b9565b5f015f9054906101000a900463ffffffff1663ffffffff161115611d2657809150611d36565b600181611d339190613ace565b92505b50611ce0565b5f8114611d8057611d5086600183036123b9565b5f0160049054906101000a90047bffffffffffffffffffffffffffffffffffffffffffffffffffffffff16611d82565b5f5b7bffffffffffffffffffffffffffffffffffffffffffffffffffffffff16935050505092915050565b611db36116f7565b73ffffffffffffffffffffffffffffffffffffffff16611dd1610fbe565b73ffffffffffffffffffffffffffffffffffffffff1614611e27576040517f08c379a0000000000000000000000000000000000000000000000000000000008152600401611e1e9061439c565b60405180910390fd5b565b611e3382826123f0565b5050565b611e41828261247d565b5050565b5f611e4f83610c28565b90505f611e5b84610dfc565b905082600a5f8673ffffffffffffffffffffffffffffffffffffffff1673ffffffffffffffffffffffffffffffffffffffff1681526020019081526020015f205f6101000a81548173ffffffffffffffffffffffffffffffffffffffff021916908373ffffffffffffffffffffffffffffffffffffffff1602179055508273ffffffffffffffffffffffffffffffffffffffff168273ffffffffffffffffffffffffffffffffffffffff168573ffffffffffffffffffffffffffffffffffffffff167f3134e8a2e6d97e929a7e54011ea5485d7d196dd5f0ba4d4ef95803e8e3fc257f60405160405180910390a4611f5482848361249b565b50505050565b5f63ffffffff8016821115611fa4576040517f08c379a0000000000000000000000000000000000000000000000000000000008152600401611f9b9061442a565b60405180910390fd5b819050919050565b5f60055f9054906101000a900473ffffffffffffffffffffffffffffffffffffffff1690508160055f6101000a81548173ffffffffffffffffffffffffffffffffffffffff021916908373ffffffffffffffffffffffffffffffffffffffff1602179055508173ffffffffffffffffffffffffffffffffffffffff168173ffffffffffffffffffffffffffffffffffffffff167f8be0079c531659141344cd1fd0a4f28419497f9722a3daafe3b4186f6b6457e060405160405180910390a35050565b5f815f01549050919050565b606060ff5f1b8314612097576120908361268b565b9050612122565b8180546120a390613960565b80601f01602080910402602001604051908101604052809291908181526020018280546120cf90613960565b801561211a5780601f106120f15761010080835404028352916020019161211a565b820191905f5260205f20905b8154815290600101906020018083116120fd57829003601f168201915b505050505090505b92915050565b5f65ffffffffffff8016821115612174576040517f08c379a000000000000000000000000000000000000000000000000000000000815260040161216b906144b8565b60405180910390fd5b819050919050565b5f61218e612188611bb8565b836126fd565b9050919050565b5f805f6121a48787878761273d565b915091506121b181612815565b8192505050949350505050565b5f8060085f8473ffffffffffffffffffffffffffffffffffffffff1673ffffffffffffffffffffffffffffffffffffffff1681526020019081526020015f2090506122088161206f565b91506122138161297a565b50919050565b505050565b61222983838361298e565b505050565b5f7f8b73c3c69bb8fe3d512ecc4cf759cc79239f7b179b0ffacaa9a75d522b39400f7f00000000000000000000000000000000000000000000000000000000000000007f000000000000000000000000000000000000000000000000000000000000000046306040516020016122a89594939291906144d6565b60405160208183030381529060405280519060200120905090565b5f8082036122d3575f90506123b4565b5f60016122df846129b9565b901c6001901b905060018184816122f9576122f8614527565b5b048201901c9050600181848161231257612311614527565b5b048201901c9050600181848161232b5761232a614527565b5b048201901c9050600181848161234457612343614527565b5b048201901c9050600181848161235d5761235c614527565b5b048201901c9050600181848161237657612375614527565b5b048201901c9050600181848161238f5761238e614527565b5b048201901c90506123b0818285816123aa576123a9614527565b5b04612a90565b9150505b919050565b5f825f528160205f2001905092915050565b5f60028284186123db9190614554565b8284166123e89190613ace565b905092915050565b6123fa8282612aa8565b612402612bf6565b7bffffffffffffffffffffffffffffffffffffffffffffffffffffffff16612428610945565b1115612469576040517f08c379a0000000000000000000000000000000000000000000000000000000008152600401612460906145f4565b60405180910390fd5b612477600c6116cd83612c19565b50505050565b6124878282612ee2565b612495600c6116e283612c19565b50505050565b8173ffffffffffffffffffffffffffffffffffffffff168373ffffffffffffffffffffffffffffffffffffffff16141580156124d657505f81115b15612686575f73ffffffffffffffffffffffffffffffffffffffff168373ffffffffffffffffffffffffffffffffffffffff16146125b0575f80612559600b5f8773ffffffffffffffffffffffffffffffffffffffff1673ffffffffffffffffffffffffffffffffffffffff1681526020019081526020015f206116e285612c19565b915091508473ffffffffffffffffffffffffffffffffffffffff167fdec2bacdd2f05b59de34da9b523dff8be42e5e38e818c82fdb0bae774387a72483836040516125a5929190614612565b60405180910390a250505b5f73ffffffffffffffffffffffffffffffffffffffff168273ffffffffffffffffffffffffffffffffffffffff1614612685575f8061262e600b5f8673ffffffffffffffffffffffffffffffffffffffff1673ffffffffffffffffffffffffffffffffffffffff1681526020019081526020015f206116cd85612c19565b915091508373ffffffffffffffffffffffffffffffffffffffff167fdec2bacdd2f05b59de34da9b523dff8be42e5e38e818c82fdb0bae774387a724838360405161267a929190614612565b60405180910390a250505b5b505050565b60605f612697836130a5565b90505f602067ffffffffffffffff8111156126b5576126b4613c39565b5b6040519080825280601f01601f1916602001820160405280156126e75781602001600182028036833780820191505090505b5090508181528360208201528092505050919050565b5f6040517f190100000000000000000000000000000000000000000000000000000000000081528360028201528260228201526042812091505092915050565b5f807f7fffffffffffffffffffffffffffffff5d576e7357a4501ddfe92f46681b20a0835f1c1115612775575f60039150915061280c565b5f6001878787876040515f81526020016040526040516127989493929190614639565b6020604051602081039080840390855afa1580156127b8573d5f803e3d5ffd5b5050506020604051035190505f73ffffffffffffffffffffffffffffffffffffffff168173ffffffffffffffffffffffffffffffffffffffff1603612804575f6001925092505061280c565b805f92509250505b94509492505050565b5f60048111156128285761282761467c565b5b81600481111561283b5761283a61467c565b5b031561297757600160048111156128555761285461467c565b5b8160048111156128685761286761467c565b5b036128a8576040517f08c379a000000000000000000000000000000000000000000000000000000000815260040161289f906146f3565b60405180910390fd5b600260048111156128bc576128bb61467c565b5b8160048111156128cf576128ce61467c565b5b0361290f576040517f08c379a00000000000000000000000000000000000000000000000000000000081526004016129069061475b565b60405180910390fd5b600360048111156129235761292261467c565b5b8160048111156129365761293561467c565b5b03612976576040517f08c379a000000000000000000000000000000000000000000000000000000000815260040161296d906147e9565b60405180910390fd5b5b50565b6001815f015f828254019250508190555050565b6129998383836130f3565b6129b46129a584610c28565b6129ae84610c28565b8361249b565b505050565b5f805f90505f608084901c11156129d857608083901c92506080810190505b5f604084901c11156129f257604083901c92506040810190505b5f602084901c1115612a0c57602083901c92506020810190505b5f601084901c1115612a2657601083901c92506010810190505b5f600884901c1115612a4057600883901c92506008810190505b5f600484901c1115612a5a57600483901c92506004810190505b5f600284901c1115612a7457600283901c92506002810190505b5f600184901c1115612a87576001810190505b80915050919050565b5f818310612a9e5781612aa0565b825b905092915050565b5f73ffffffffffffffffffffffffffffffffffffffff168273ffffffffffffffffffffffffffffffffffffffff1603612b16576040517f08c379a0000000000000000000000000000000000000000000000000000000008152600401612b0d90614851565b60405180910390fd5b612b215f8383612219565b8060025f828254612b329190613ace565b92505081905550805f808473ffffffffffffffffffffffffffffffffffffffff1673ffffffffffffffffffffffffffffffffffffffff1681526020019081526020015f205f82825401925050819055508173ffffffffffffffffffffffffffffffffffffffff165f73ffffffffffffffffffffffffffffffffffffffff167fddf252ad1be2c89b69c2b068fc378daa952ba7f163c4a11628f55a4df523b3ef83604051612bdf9190613359565b60405180910390a3612bf25f838361221e565b5050565b5f7bffffffffffffffffffffffffffffffffffffffffffffffffffffffff905090565b5f805f858054905090505f808214612cd957612c3887600184036123b9565b6040518060400160405290815f82015f9054906101000a900463ffffffff1663ffffffff1663ffffffff1681526020015f820160049054906101000a90047bffffffffffffffffffffffffffffffffffffffffffffffffffffffff167bffffffffffffffffffffffffffffffffffffffffffffffffffffffff167bffffffffffffffffffffffffffffffffffffffffffffffffffffffff1681525050612d13565b60405180604001604052805f63ffffffff1681526020015f7bffffffffffffffffffffffffffffffffffffffffffffffffffffffff168152505b905080602001517bffffffffffffffffffffffffffffffffffffffffffffffffffffffff169350612d4884868863ffffffff16565b92505f82118015612d705750612d5c61104a565b65ffffffffffff16815f015163ffffffff16145b15612de057612d7e836130f8565b612d8b88600185036123b9565b5f0160046101000a8154817bffffffffffffffffffffffffffffffffffffffffffffffffffffffff02191690837bffffffffffffffffffffffffffffffffffffffffffffffffffffffff160217905550612ed8565b866040518060400160405280612e04612df761104a565b65ffffffffffff16611f5a565b63ffffffff168152602001612e18866130f8565b7bffffffffffffffffffffffffffffffffffffffffffffffffffffffff16815250908060018154018082558091505060019003905f5260205f20015f909190919091505f820151815f015f6101000a81548163ffffffff021916908363ffffffff1602179055506020820151815f0160046101000a8154817bffffffffffffffffffffffffffffffffffffffffffffffffffffffff02191690837bffffffffffffffffffffffffffffffffffffffffffffffffffffffff16021790555050505b5050935093915050565b5f73ffffffffffffffffffffffffffffffffffffffff168273ffffffffffffffffffffffffffffffffffffffff1603612f50576040517f08c379a0000000000000000000000000000000000000000000000000000000008152600401612f47906148df565b60405180910390fd5b612f5b825f83612219565b5f805f8473ffffffffffffffffffffffffffffffffffffffff1673ffffffffffffffffffffffffffffffffffffffff1681526020019081526020015f2054905081811015612fde576040517f08c379a0000000000000000000000000000000000000000000000000000000008152600401612fd59061496d565b60405180910390fd5b8181035f808573ffffffffffffffffffffffffffffffffffffffff1673ffffffffffffffffffffffffffffffffffffffff1681526020019081526020015f20819055508160025f82825403925050819055505f73ffffffffffffffffffffffffffffffffffffffff168373ffffffffffffffffffffffffffffffffffffffff167fddf252ad1be2c89b69c2b068fc378daa952ba7f163c4a11628f55a4df523b3ef8460405161308d9190613359565b60405180910390a36130a0835f8461221e565b505050565b5f8060ff835f1c169050601f8111156130ea576040517fb3512b0c00000000000000000000000000000000000000000000000000000000815260040160405180910390fd5b80915050919050565b505050565b5f7bffffffffffffffffffffffffffffffffffffffffffffffffffffffff801682111561315a576040517f08c379a0000000000000000000000000000000000000000000000000000000008152600401613151906149fb565b60405180910390fd5b819050919050565b60405180604001604052805f63ffffffff1681526020015f7bffffffffffffffffffffffffffffffffffffffffffffffffffffffff1681525090565b5f81519050919050565b5f82825260208201905092915050565b5f5b838110156131d55780820151818401526020810190506131ba565b5f8484015250505050565b5f601f19601f8301169050919050565b5f6131fa8261319e565b61320481856131a8565b93506132148185602086016131b8565b61321d816131e0565b840191505092915050565b5f6020820190508181035f83015261324081846131f0565b905092915050565b5f80fd5b5f73ffffffffffffffffffffffffffffffffffffffff82169050919050565b5f6132758261324c565b9050919050565b6132858161326b565b811461328f575f80fd5b50565b5f813590506132a08161327c565b92915050565b5f819050919050565b6132b8816132a6565b81146132c2575f80fd5b50565b5f813590506132d3816132af565b92915050565b5f80604083850312156132ef576132ee613248565b5b5f6132fc85828601613292565b925050602061330d858286016132c5565b9150509250929050565b5f8115159050919050565b61332b81613317565b82525050565b5f6020820190506133445f830184613322565b92915050565b613353816132a6565b82525050565b5f60208201905061336c5f83018461334a565b92915050565b5f805f6060848603121561338957613388613248565b5b5f61339686828701613292565b93505060206133a786828701613292565b92505060406133b8868287016132c5565b9150509250925092565b5f60ff82169050919050565b6133d7816133c2565b82525050565b5f6020820190506133f05f8301846133ce565b92915050565b5f6020828403121561340b5761340a613248565b5b5f613418848285016132c5565b91505092915050565b5f819050919050565b61343381613421565b82525050565b5f60208201905061344c5f83018461342a565b92915050565b5f6020828403121561346757613466613248565b5b5f61347484828501613292565b91505092915050565b6134868161326b565b82525050565b5f60208201905061349f5f83018461347d565b92915050565b5f63ffffffff82169050919050565b6134bd816134a5565b82525050565b5f6020820190506134d65f8301846134b4565b92915050565b5f7fff0000000000000000000000000000000000000000000000000000000000000082169050919050565b613510816134dc565b82525050565b5f81519050919050565b5f82825260208201905092915050565b5f819050602082019050919050565b613548816132a6565b82525050565b5f613559838361353f565b60208301905092915050565b5f602082019050919050565b5f61357b82613516565b6135858185613520565b935061359083613530565b805f5b838110156135c05781516135a7888261354e565b97506135b283613565565b925050600181019050613593565b5085935050505092915050565b5f60e0820190506135e05f83018a613507565b81810360208301526135f281896131f0565b9050818103604083015261360681886131f0565b9050613615606083018761334a565b613622608083018661347d565b61362f60a083018561342a565b81810360c08301526136418184613571565b905098975050505050505050565b5f65ffffffffffff82169050919050565b6136698161364f565b82525050565b5f6020820190506136825f830184613660565b92915050565b613691816133c2565b811461369b575f80fd5b50565b5f813590506136ac81613688565b92915050565b6136bb81613421565b81146136c5575f80fd5b50565b5f813590506136d6816136b2565b92915050565b5f805f805f8060c087890312156136f6576136f5613248565b5b5f61370389828a01613292565b965050602061371489828a016132c5565b955050604061372589828a016132c5565b945050606061373689828a0161369e565b935050608061374789828a016136c8565b92505060a061375889828a016136c8565b9150509295509295509295565b5f805f805f805f60e0888a0312156137805761377f613248565b5b5f61378d8a828b01613292565b975050602061379e8a828b01613292565b96505060406137af8a828b016132c5565b95505060606137c08a828b016132c5565b94505060806137d18a828b0161369e565b93505060a06137e28a828b016136c8565b92505060c06137f38a828b016136c8565b91505092959891949750929550565b5f806040838503121561381857613817613248565b5b5f61382585828601613292565b925050602061383685828601613292565b9150509250929050565b613849816134a5565b8114613853575f80fd5b50565b5f8135905061386481613840565b92915050565b5f80604083850312156138805761387f613248565b5b5f61388d85828601613292565b925050602061389e85828601613856565b9150509250929050565b6138b1816134a5565b82525050565b5f7bffffffffffffffffffffffffffffffffffffffffffffffffffffffff82169050919050565b6138e7816138b7565b82525050565b604082015f8201516139015f8501826138a8565b50602082015161391460208501826138de565b50505050565b5f60408201905061392d5f8301846138ed565b92915050565b7f4e487b71000000000000000000000000000000000000000000000000000000005f52602260045260245ffd5b5f600282049050600182168061397757607f821691505b60208210810361398a57613989613933565b5b50919050565b7f416d6f756e74206d7573742062652067726561746572207468616e207a65726f5f82015250565b5f6139c46020836131a8565b91506139cf82613990565b602082019050919050565b5f6020820190508181035f8301526139f1816139b8565b9050919050565b7f4e487b71000000000000000000000000000000000000000000000000000000005f52601160045260245ffd5b5f613a2f826132a6565b9150613a3a836132a6565b9250828202613a48816132a6565b91508282048414831517613a5f57613a5e6139f8565b5b5092915050565b7f496e73756666696369656e74207061796d656e740000000000000000000000005f82015250565b5f613a9a6014836131a8565b9150613aa582613a66565b602082019050919050565b5f6020820190508181035f830152613ac781613a8e565b9050919050565b5f613ad8826132a6565b9150613ae3836132a6565b9250828201905080821115613afb57613afa6139f8565b5b92915050565b7f4552433230566f7465733a20667574757265206c6f6f6b7570000000000000005f82015250565b5f613b356019836131a8565b9150613b4082613b01565b602082019050919050565b5f6020820190508181035f830152613b6281613b29565b9050919050565b7f4552433230566f7465733a2062726f6b656e20636c6f636b206d6f64650000005f82015250565b5f613b9d601d836131a8565b9150613ba882613b69565b602082019050919050565b5f6020820190508181035f830152613bca81613b91565b9050919050565b7f496e73756666696369656e742062616c616e63650000000000000000000000005f82015250565b5f613c056014836131a8565b9150613c1082613bd1565b602082019050919050565b5f6020820190508181035f830152613c3281613bf9565b9050919050565b7f4e487b71000000000000000000000000000000000000000000000000000000005f52604160045260245ffd5b7f4e487b71000000000000000000000000000000000000000000000000000000005f52603260045260245ffd5b7f45524332303a2064656372656173656420616c6c6f77616e63652062656c6f775f8201527f207a65726f000000000000000000000000000000000000000000000000000000602082015250565b5f613ced6025836131a8565b9150613cf882613c93565b604082019050919050565b5f6020820190508181035f830152613d1a81613ce1565b9050919050565b7f4552433230566f7465733a207369676e617475726520657870697265640000005f82015250565b5f613d55601d836131a8565b9150613d6082613d21565b602082019050919050565b5f6020820190508181035f830152613d8281613d49565b9050919050565b5f608082019050613d9c5f83018761342a565b613da9602083018661347d565b613db6604083018561334a565b613dc3606083018461334a565b95945050505050565b7f4552433230566f7465733a20696e76616c6964206e6f6e6365000000000000005f82015250565b5f613e006019836131a8565b9150613e0b82613dcc565b602082019050919050565b5f6020820190508181035f830152613e2d81613df4565b9050919050565b7f45524332305065726d69743a206578706972656420646561646c696e650000005f82015250565b5f613e68601d836131a8565b9150613e7382613e34565b602082019050919050565b5f6020820190508181035f830152613e9581613e5c565b9050919050565b5f60c082019050613eaf5f83018961342a565b613ebc602083018861347d565b613ec9604083018761347d565b613ed6606083018661334a565b613ee3608083018561334a565b613ef060a083018461334a565b979650505050505050565b7f45524332305065726d69743a20696e76616c6964207369676e617475726500005f82015250565b5f613f2f601e836131a8565b9150613f3a82613efb565b602082019050919050565b5f6020820190508181035f830152613f5c81613f23565b9050919050565b7f4f776e61626c653a206e6577206f776e657220697320746865207a65726f20615f8201527f6464726573730000000000000000000000000000000000000000000000000000602082015250565b5f613fbd6026836131a8565b9150613fc882613f63565b604082019050919050565b5f6020820190508181035f830152613fea81613fb1565b9050919050565b5f613ffb826132a6565b9150614006836132a6565b925082820390508181111561401e5761401d6139f8565b5b92915050565b7f45524332303a20617070726f76652066726f6d20746865207a65726f206164645f8201527f7265737300000000000000000000000000000000000000000000000000000000602082015250565b5f61407e6024836131a8565b915061408982614024565b604082019050919050565b5f6020820190508181035f8301526140ab81614072565b9050919050565b7f45524332303a20617070726f766520746f20746865207a65726f2061646472655f8201527f7373000000000000000000000000000000000000000000000000000000000000602082015250565b5f61410c6022836131a8565b9150614117826140b2565b604082019050919050565b5f6020820190508181035f83015261413981614100565b9050919050565b7f45524332303a20696e73756666696369656e7420616c6c6f77616e63650000005f82015250565b5f614174601d836131a8565b915061417f82614140565b602082019050919050565b5f6020820190508181035f8301526141a181614168565b9050919050565b7f45524332303a207472616e736665722066726f6d20746865207a65726f2061645f8201527f6472657373000000000000000000000000000000000000000000000000000000602082015250565b5f6142026025836131a8565b915061420d826141a8565b604082019050919050565b5f6020820190508181035f83015261422f816141f6565b9050919050565b7f45524332303a207472616e7366657220746f20746865207a65726f20616464725f8201527f6573730000000000000000000000000000000000000000000000000000000000602082015250565b5f6142906023836131a8565b915061429b82614236565b604082019050919050565b5f6020820190508181035f8301526142bd81614284565b9050919050565b7f45524332303a207472616e7366657220616d6f756e74206578636565647320625f8201527f616c616e63650000000000000000000000000000000000000000000000000000602082015250565b5f61431e6026836131a8565b9150614329826142c4565b604082019050919050565b5f6020820190508181035f83015261434b81614312565b9050919050565b7f4f776e61626c653a2063616c6c6572206973206e6f7420746865206f776e65725f82015250565b5f6143866020836131a8565b915061439182614352565b602082019050919050565b5f6020820190508181035f8301526143b38161437a565b9050919050565b7f53616665436173743a2076616c756520646f65736e27742066697420696e20335f8201527f3220626974730000000000000000000000000000000000000000000000000000602082015250565b5f6144146026836131a8565b915061441f826143ba565b604082019050919050565b5f6020820190508181035f83015261444181614408565b9050919050565b7f53616665436173743a2076616c756520646f65736e27742066697420696e20345f8201527f3820626974730000000000000000000000000000000000000000000000000000602082015250565b5f6144a26026836131a8565b91506144ad82614448565b604082019050919050565b5f6020820190508181035f8301526144cf81614496565b9050919050565b5f60a0820190506144e95f83018861342a565b6144f6602083018761342a565b614503604083018661342a565b614510606083018561334a565b61451d608083018461347d565b9695505050505050565b7f4e487b71000000000000000000000000000000000000000000000000000000005f52601260045260245ffd5b5f61455e826132a6565b9150614569836132a6565b92508261457957614578614527565b5b828204905092915050565b7f4552433230566f7465733a20746f74616c20737570706c79207269736b73206f5f8201527f766572666c6f77696e6720766f74657300000000000000000000000000000000602082015250565b5f6145de6030836131a8565b91506145e982614584565b604082019050919050565b5f6020820190508181035f83015261460b816145d2565b9050919050565b5f6040820190506146255f83018561334a565b614632602083018461334a565b9392505050565b5f60808201905061464c5f83018761342a565b61465960208301866133ce565b614666604083018561342a565b614673606083018461342a565b95945050505050565b7f4e487b71000000000000000000000000000000000000000000000000000000005f52602160045260245ffd5b7f45434453413a20696e76616c6964207369676e617475726500000000000000005f82015250565b5f6146dd6018836131a8565b91506146e8826146a9565b602082019050919050565b5f6020820190508181035f83015261470a816146d1565b9050919050565b7f45434453413a20696e76616c6964207369676e6174757265206c656e677468005f82015250565b5f614745601f836131a8565b915061475082614711565b602082019050919050565b5f6020820190508181035f83015261477281614739565b9050919050565b7f45434453413a20696e76616c6964207369676e6174757265202773272076616c5f8201527f7565000000000000000000000000000000000000000000000000000000000000602082015250565b5f6147d36022836131a8565b91506147de82614779565b604082019050919050565b5f6020820190508181035f830152614800816147c7565b9050919050565b7f45524332303a206d696e7420746f20746865207a65726f2061646472657373005f82015250565b5f61483b601f836131a8565b915061484682614807565b602082019050919050565b5f6020820190508181035f8301526148688161482f565b9050919050565b7f45524332303a206275726e2066726f6d20746865207a65726f206164647265735f8201527f7300000000000000000000000000000000000000000000000000000000000000602082015250565b5f6148c96021836131a8565b91506148d48261486f565b604082019050919050565b5f6020820190508181035f8301526148f6816148bd565b9050919050565b7f45524332303a206275726e20616d6f756e7420657863656564732062616c616e5f8201527f6365000000000000000000000000000000000000000000000000000000000000602082015250565b5f6149576022836131a8565b9150614962826148fd565b604082019050919050565b5f6020820190508181035f8301526149848161494b565b9050919050565b7f53616665436173743a2076616c756520646f65736e27742066697420696e20325f8201527f3234206269747300000000000000000000000000000000000000000000000000602082015250565b5f6149e56027836131a8565b91506149f08261498b565b604082019050919050565b5f6020820190508181035f830152614a12816149d9565b905091905056fea26469706673582212207a5be4160258882f5fecc5ad1db2806f110ebb550de2dfdf399e1aedd08aba9164736f6c63430008180033",
			"opcodes": "PUSH2 0x160 PUSH1 0x40 MSTORE PUSH1 0xE PUSH1 0xD SSTORE CALLVALUE DUP1 ISZERO PUSH3 0x16 JUMPI PUSH0 DUP1 REVERT JUMPDEST POP PUSH1 0x40 MLOAD DUP1 PUSH1 0x40 ADD PUSH1 0x40 MSTORE DUP1 PUSH1 0x5 DUP2 MSTORE PUSH1 0x20 ADD PUSH32 0x55476F6C64000000000000000000000000000000000000000000000000000000 DUP2 MSTORE POP DUP1 PUSH1 0x40 MLOAD DUP1 PUSH1 0x40 ADD PUSH1 0x40 MSTORE DUP1 PUSH1 0x1 DUP2 MSTORE PUSH1 0x20 ADD PUSH32 0x3100000000000000000000000000000000000000000000000000000000000000 DUP2 MSTORE POP PUSH1 0x40 MLOAD DUP1 PUSH1 0x40 ADD PUSH1 0x40 MSTORE DUP1 PUSH1 0x5 DUP2 MSTORE PUSH1 0x20 ADD PUSH32 0x55476F6C64000000000000000000000000000000000000000000000000000000 DUP2 MSTORE POP PUSH1 0x40 MLOAD DUP1 PUSH1 0x40 ADD PUSH1 0x40 MSTORE DUP1 PUSH1 0x4 DUP2 MSTORE PUSH1 0x20 ADD PUSH32 0x75474C4400000000000000000000000000000000000000000000000000000000 DUP2 MSTORE POP DUP2 PUSH1 0x3 SWAP1 DUP2 PUSH3 0x101 SWAP2 SWAP1 PUSH3 0x1045 JUMP JUMPDEST POP DUP1 PUSH1 0x4 SWAP1 DUP2 PUSH3 0x113 SWAP2 SWAP1 PUSH3 0x1045 JUMP JUMPDEST POP POP POP PUSH3 0x136 PUSH3 0x12A PUSH3 0x22B PUSH1 0x20 SHL PUSH1 0x20 SHR JUMP JUMPDEST PUSH3 0x232 PUSH1 0x20 SHL PUSH1 0x20 SHR JUMP JUMPDEST PUSH3 0x14C PUSH1 0x6 DUP4 PUSH3 0x2F5 PUSH1 0x20 SHL SWAP1 SWAP2 SWAP1 PUSH1 0x20 SHR JUMP JUMPDEST PUSH2 0x120 DUP2 DUP2 MSTORE POP POP PUSH3 0x16A PUSH1 0x7 DUP3 PUSH3 0x2F5 PUSH1 0x20 SHL SWAP1 SWAP2 SWAP1 PUSH1 0x20 SHR JUMP JUMPDEST PUSH2 0x140 DUP2 DUP2 MSTORE POP POP DUP2 DUP1 MLOAD SWAP1 PUSH1 0x20 ADD KECCAK256 PUSH1 0xE0 DUP2 DUP2 MSTORE POP POP DUP1 DUP1 MLOAD SWAP1 PUSH1 0x20 ADD KECCAK256 PUSH2 0x100 DUP2 DUP2 MSTORE POP POP CHAINID PUSH1 0xA0 DUP2 DUP2 MSTORE POP POP PUSH3 0x1A9 PUSH3 0x34A PUSH1 0x20 SHL PUSH1 0x20 SHR JUMP JUMPDEST PUSH1 0x80 DUP2 DUP2 MSTORE POP POP ADDRESS PUSH20 0xFFFFFFFFFFFFFFFFFFFFFFFFFFFFFFFFFFFFFFFF AND PUSH1 0xC0 DUP2 PUSH20 0xFFFFFFFFFFFFFFFFFFFFFFFFFFFFFFFFFFFFFFFF AND DUP2 MSTORE POP POP POP POP POP PUSH3 0x225 CALLER PUSH3 0x1FC PUSH3 0x3A6 PUSH1 0x20 SHL PUSH1 0x20 SHR JUMP JUMPDEST PUSH1 0xA PUSH3 0x20A SWAP2 SWAP1 PUSH3 0x12B2 JUMP JUMPDEST PUSH2 0x2710 PUSH3 0x219 SWAP2 SWAP1 PUSH3 0x1302 JUMP JUMPDEST PUSH3 0x3AE PUSH1 0x20 SHL PUSH1 0x20 SHR JUMP JUMPDEST PUSH3 0x18D7 JUMP JUMPDEST PUSH0 CALLER SWAP1 POP SWAP1 JUMP JUMPDEST PUSH0 PUSH1 0x5 PUSH0 SWAP1 SLOAD SWAP1 PUSH2 0x100 EXP SWAP1 DIV PUSH20 0xFFFFFFFFFFFFFFFFFFFFFFFFFFFFFFFFFFFFFFFF AND SWAP1 POP DUP2 PUSH1 0x5 PUSH0 PUSH2 0x100 EXP DUP2 SLOAD DUP2 PUSH20 0xFFFFFFFFFFFFFFFFFFFFFFFFFFFFFFFFFFFFFFFF MUL NOT AND SWAP1 DUP4 PUSH20 0xFFFFFFFFFFFFFFFFFFFFFFFFFFFFFFFFFFFFFFFF AND MUL OR SWAP1 SSTORE POP DUP2 PUSH20 0xFFFFFFFFFFFFFFFFFFFFFFFFFFFFFFFFFFFFFFFF AND DUP2 PUSH20 0xFFFFFFFFFFFFFFFFFFFFFFFFFFFFFFFFFFFFFFFF AND PUSH32 0x8BE0079C531659141344CD1FD0A4F28419497F9722A3DAAFE3B4186F6B6457E0 PUSH1 0x40 MLOAD PUSH1 0x40 MLOAD DUP1 SWAP2 SUB SWAP1 LOG3 POP POP JUMP JUMPDEST PUSH0 PUSH1 0x20 DUP4 MLOAD LT ISZERO PUSH3 0x31A JUMPI PUSH3 0x312 DUP4 PUSH3 0x3C4 PUSH1 0x20 SHL PUSH1 0x20 SHR JUMP JUMPDEST SWAP1 POP PUSH3 0x344 JUMP JUMPDEST DUP3 PUSH3 0x32C DUP4 PUSH3 0x42E PUSH1 0x20 SHL PUSH1 0x20 SHR JUMP JUMPDEST PUSH0 ADD SWAP1 DUP2 PUSH3 0x33C SWAP2 SWAP1 PUSH3 0x1045 JUMP JUMPDEST POP PUSH1 0xFF PUSH0 SHL SWAP1 POP JUMPDEST SWAP3 SWAP2 POP POP JUMP JUMPDEST PUSH0 PUSH32 0x8B73C3C69BB8FE3D512ECC4CF759CC79239F7B179B0FFACAA9A75D522B39400F PUSH1 0xE0 MLOAD PUSH2 0x100 MLOAD CHAINID ADDRESS PUSH1 0x40 MLOAD PUSH1 0x20 ADD PUSH3 0x38B SWAP6 SWAP5 SWAP4 SWAP3 SWAP2 SWAP1 PUSH3 0x13BA JUMP JUMPDEST PUSH1 0x40 MLOAD PUSH1 0x20 DUP2 DUP4 SUB SUB DUP2 MSTORE SWAP1 PUSH1 0x40 MSTORE DUP1 MLOAD SWAP1 PUSH1 0x20 ADD KECCAK256 SWAP1 POP SWAP1 JUMP JUMPDEST PUSH0 PUSH1 0x12 SWAP1 POP SWAP1 JUMP JUMPDEST PUSH3 0x3C0 DUP3 DUP3 PUSH3 0x437 PUSH1 0x20 SHL PUSH1 0x20 SHR JUMP JUMPDEST POP POP JUMP JUMPDEST PUSH0 DUP1 DUP3 SWAP1 POP PUSH1 0x1F DUP2 MLOAD GT ISZERO PUSH3 0x413 JUMPI DUP3 PUSH1 0x40 MLOAD PUSH32 0x305A27A900000000000000000000000000000000000000000000000000000000 DUP2 MSTORE PUSH1 0x4 ADD PUSH3 0x40A SWAP2 SWAP1 PUSH3 0x149F JUMP JUMPDEST PUSH1 0x40 MLOAD DUP1 SWAP2 SUB SWAP1 REVERT JUMPDEST DUP1 MLOAD DUP2 PUSH3 0x421 SWAP1 PUSH3 0x14F0 JUMP JUMPDEST PUSH0 SHR OR PUSH0 SHL SWAP2 POP POP SWAP2 SWAP1 POP JUMP JUMPDEST PUSH0 DUP2 SWAP1 POP SWAP2 SWAP1 POP JUMP JUMPDEST PUSH3 0x449 DUP3 DUP3 PUSH3 0x4F0 PUSH1 0x20 SHL PUSH1 0x20 SHR JUMP JUMPDEST PUSH3 0x459 PUSH3 0x655 PUSH1 0x20 SHL PUSH1 0x20 SHR JUMP JUMPDEST PUSH28 0xFFFFFFFFFFFFFFFFFFFFFFFFFFFFFFFFFFFFFFFFFFFFFFFFFFFFFFFF AND PUSH3 0x487 PUSH3 0x678 PUSH1 0x20 SHL PUSH1 0x20 SHR JUMP JUMPDEST GT ISZERO PUSH3 0x4CB JUMPI PUSH1 0x40 MLOAD PUSH32 0x8C379A000000000000000000000000000000000000000000000000000000000 DUP2 MSTORE PUSH1 0x4 ADD PUSH3 0x4C2 SWAP1 PUSH3 0x15D3 JUMP JUMPDEST PUSH1 0x40 MLOAD DUP1 SWAP2 SUB SWAP1 REVERT JUMPDEST PUSH3 0x4EA PUSH1 0xC PUSH3 0x681 PUSH1 0x20 SHL PUSH3 0x16CD OR DUP4 PUSH3 0x698 PUSH1 0x20 SHL PUSH1 0x20 SHR JUMP JUMPDEST POP POP POP POP JUMP JUMPDEST PUSH0 PUSH20 0xFFFFFFFFFFFFFFFFFFFFFFFFFFFFFFFFFFFFFFFF AND DUP3 PUSH20 0xFFFFFFFFFFFFFFFFFFFFFFFFFFFFFFFFFFFFFFFF AND SUB PUSH3 0x561 JUMPI PUSH1 0x40 MLOAD PUSH32 0x8C379A000000000000000000000000000000000000000000000000000000000 DUP2 MSTORE PUSH1 0x4 ADD PUSH3 0x558 SWAP1 PUSH3 0x1641 JUMP JUMPDEST PUSH1 0x40 MLOAD DUP1 SWAP2 SUB SWAP1 REVERT JUMPDEST PUSH3 0x574 PUSH0 DUP4 DUP4 PUSH3 0x99C PUSH1 0x20 SHL PUSH1 0x20 SHR JUMP JUMPDEST DUP1 PUSH1 0x2 PUSH0 DUP3 DUP3 SLOAD PUSH3 0x587 SWAP2 SWAP1 PUSH3 0x1661 JUMP JUMPDEST SWAP3 POP POP DUP2 SWAP1 SSTORE POP DUP1 PUSH0 DUP1 DUP5 PUSH20 0xFFFFFFFFFFFFFFFFFFFFFFFFFFFFFFFFFFFFFFFF AND PUSH20 0xFFFFFFFFFFFFFFFFFFFFFFFFFFFFFFFFFFFFFFFF AND DUP2 MSTORE PUSH1 0x20 ADD SWAP1 DUP2 MSTORE PUSH1 0x20 ADD PUSH0 KECCAK256 PUSH0 DUP3 DUP3 SLOAD ADD SWAP3 POP POP DUP2 SWAP1 SSTORE POP DUP2 PUSH20 0xFFFFFFFFFFFFFFFFFFFFFFFFFFFFFFFFFFFFFFFF AND PUSH0 PUSH20 0xFFFFFFFFFFFFFFFFFFFFFFFFFFFFFFFFFFFFFFFF AND PUSH32 0xDDF252AD1BE2C89B69C2B068FC378DAA952BA7F163C4A11628F55A4DF523B3EF DUP4 PUSH1 0x40 MLOAD PUSH3 0x636 SWAP2 SWAP1 PUSH3 0x169B JUMP JUMPDEST PUSH1 0x40 MLOAD DUP1 SWAP2 SUB SWAP1 LOG3 PUSH3 0x651 PUSH0 DUP4 DUP4 PUSH3 0x9A1 PUSH1 0x20 SHL PUSH1 0x20 SHR JUMP JUMPDEST POP POP JUMP JUMPDEST PUSH0 PUSH28 0xFFFFFFFFFFFFFFFFFFFFFFFFFFFFFFFFFFFFFFFFFFFFFFFFFFFFFFFF SWAP1 POP SWAP1 JUMP JUMPDEST PUSH0 PUSH1 0x2 SLOAD SWAP1 POP SWAP1 JUMP JUMPDEST PUSH0 DUP2 DUP4 PUSH3 0x690 SWAP2 SWAP1 PUSH3 0x1661 JUMP JUMPDEST SWAP1 POP SWAP3 SWAP2 POP POP JUMP JUMPDEST PUSH0 DUP1 PUSH0 DUP6 DUP1 SLOAD SWAP1 POP SWAP1 POP PUSH0 DUP1 DUP3 EQ PUSH3 0x762 JUMPI PUSH3 0x6C0 DUP8 PUSH1 0x1 DUP5 SUB PUSH3 0x9B9 PUSH1 0x20 SHL PUSH1 0x20 SHR JUMP JUMPDEST PUSH1 0x40 MLOAD DUP1 PUSH1 0x40 ADD PUSH1 0x40 MSTORE SWAP1 DUP2 PUSH0 DUP3 ADD PUSH0 SWAP1 SLOAD SWAP1 PUSH2 0x100 EXP SWAP1 DIV PUSH4 0xFFFFFFFF AND PUSH4 0xFFFFFFFF AND PUSH4 0xFFFFFFFF AND DUP2 MSTORE PUSH1 0x20 ADD PUSH0 DUP3 ADD PUSH1 0x4 SWAP1 SLOAD SWAP1 PUSH2 0x100 EXP SWAP1 DIV PUSH28 0xFFFFFFFFFFFFFFFFFFFFFFFFFFFFFFFFFFFFFFFFFFFFFFFFFFFFFFFF AND PUSH28 0xFFFFFFFFFFFFFFFFFFFFFFFFFFFFFFFFFFFFFFFFFFFFFFFFFFFFFFFF AND PUSH28 0xFFFFFFFFFFFFFFFFFFFFFFFFFFFFFFFFFFFFFFFFFFFFFFFFFFFFFFFF AND DUP2 MSTORE POP POP PUSH3 0x79C JUMP JUMPDEST PUSH1 0x40 MLOAD DUP1 PUSH1 0x40 ADD PUSH1 0x40 MSTORE DUP1 PUSH0 PUSH4 0xFFFFFFFF AND DUP2 MSTORE PUSH1 0x20 ADD PUSH0 PUSH28 0xFFFFFFFFFFFFFFFFFFFFFFFFFFFFFFFFFFFFFFFFFFFFFFFFFFFFFFFF AND DUP2 MSTORE POP JUMPDEST SWAP1 POP DUP1 PUSH1 0x20 ADD MLOAD PUSH28 0xFFFFFFFFFFFFFFFFFFFFFFFFFFFFFFFFFFFFFFFFFFFFFFFFFFFFFFFF AND SWAP4 POP PUSH3 0x7CF DUP5 DUP7 DUP9 PUSH1 0x20 SHR JUMP JUMPDEST SWAP3 POP PUSH0 DUP3 GT DUP1 ISZERO PUSH3 0x800 JUMPI POP PUSH3 0x7EC PUSH3 0x9CB PUSH1 0x20 SHL PUSH1 0x20 SHR JUMP JUMPDEST PUSH6 0xFFFFFFFFFFFF AND DUP2 PUSH0 ADD MLOAD PUSH4 0xFFFFFFFF AND EQ JUMPDEST ISZERO PUSH3 0x882 JUMPI PUSH3 0x817 DUP4 PUSH3 0x9E2 PUSH1 0x20 SHL PUSH1 0x20 SHR JUMP JUMPDEST PUSH3 0x82C DUP9 PUSH1 0x1 DUP6 SUB PUSH3 0x9B9 PUSH1 0x20 SHL PUSH1 0x20 SHR JUMP JUMPDEST PUSH0 ADD PUSH1 0x4 PUSH2 0x100 EXP DUP2 SLOAD DUP2 PUSH28 0xFFFFFFFFFFFFFFFFFFFFFFFFFFFFFFFFFFFFFFFFFFFFFFFFFFFFFFFF MUL NOT AND SWAP1 DUP4 PUSH28 0xFFFFFFFFFFFFFFFFFFFFFFFFFFFFFFFFFFFFFFFFFFFFFFFFFFFFFFFF AND MUL OR SWAP1 SSTORE POP PUSH3 0x992 JUMP JUMPDEST DUP7 PUSH1 0x40 MLOAD DUP1 PUSH1 0x40 ADD PUSH1 0x40 MSTORE DUP1 PUSH3 0x8B6 PUSH3 0x8A2 PUSH3 0x9CB PUSH1 0x20 SHL PUSH1 0x20 SHR JUMP JUMPDEST PUSH6 0xFFFFFFFFFFFF AND PUSH3 0xA4F PUSH1 0x20 SHL PUSH1 0x20 SHR JUMP JUMPDEST PUSH4 0xFFFFFFFF AND DUP2 MSTORE PUSH1 0x20 ADD PUSH3 0x8D2 DUP7 PUSH3 0x9E2 PUSH1 0x20 SHL PUSH1 0x20 SHR JUMP JUMPDEST PUSH28 0xFFFFFFFFFFFFFFFFFFFFFFFFFFFFFFFFFFFFFFFFFFFFFFFFFFFFFFFF AND DUP2 MSTORE POP SWAP1 DUP1 PUSH1 0x1 DUP2 SLOAD ADD DUP1 DUP3 SSTORE DUP1 SWAP2 POP POP PUSH1 0x1 SWAP1 SUB SWAP1 PUSH0 MSTORE PUSH1 0x20 PUSH0 KECCAK256 ADD PUSH0 SWAP1 SWAP2 SWAP1 SWAP2 SWAP1 SWAP2 POP PUSH0 DUP3 ADD MLOAD DUP2 PUSH0 ADD PUSH0 PUSH2 0x100 EXP DUP2 SLOAD DUP2 PUSH4 0xFFFFFFFF MUL NOT AND SWAP1 DUP4 PUSH4 0xFFFFFFFF AND MUL OR SWAP1 SSTORE POP PUSH1 0x20 DUP3 ADD MLOAD DUP2 PUSH0 ADD PUSH1 0x4 PUSH2 0x100 EXP DUP2 SLOAD DUP2 PUSH28 0xFFFFFFFFFFFFFFFFFFFFFFFFFFFFFFFFFFFFFFFFFFFFFFFFFFFFFFFF MUL NOT AND SWAP1 DUP4 PUSH28 0xFFFFFFFFFFFFFFFFFFFFFFFFFFFFFFFFFFFFFFFFFFFFFFFFFFFFFFFF AND MUL OR SWAP1 SSTORE POP POP POP JUMPDEST POP POP SWAP4 POP SWAP4 SWAP2 POP POP JUMP JUMPDEST POP POP POP JUMP JUMPDEST PUSH3 0x9B4 DUP4 DUP4 DUP4 PUSH3 0xAA4 PUSH1 0x20 SHL PUSH1 0x20 SHR JUMP JUMPDEST POP POP POP JUMP JUMPDEST PUSH0 DUP3 PUSH0 MSTORE DUP2 PUSH1 0x20 PUSH0 KECCAK256 ADD SWAP1 POP SWAP3 SWAP2 POP POP JUMP JUMPDEST PUSH0 PUSH3 0x9DD NUMBER PUSH3 0xAEF PUSH1 0x20 SHL PUSH1 0x20 SHR JUMP JUMPDEST SWAP1 POP SWAP1 JUMP JUMPDEST PUSH0 PUSH28 0xFFFFFFFFFFFFFFFFFFFFFFFFFFFFFFFFFFFFFFFFFFFFFFFFFFFFFFFF DUP1 AND DUP3 GT ISZERO PUSH3 0xA47 JUMPI PUSH1 0x40 MLOAD PUSH32 0x8C379A000000000000000000000000000000000000000000000000000000000 DUP2 MSTORE PUSH1 0x4 ADD PUSH3 0xA3E SWAP1 PUSH3 0x172A JUMP JUMPDEST PUSH1 0x40 MLOAD DUP1 SWAP2 SUB SWAP1 REVERT JUMPDEST DUP2 SWAP1 POP SWAP2 SWAP1 POP JUMP JUMPDEST PUSH0 PUSH4 0xFFFFFFFF DUP1 AND DUP3 GT ISZERO PUSH3 0xA9C JUMPI PUSH1 0x40 MLOAD PUSH32 0x8C379A000000000000000000000000000000000000000000000000000000000 DUP2 MSTORE PUSH1 0x4 ADD PUSH3 0xA93 SWAP1 PUSH3 0x17BE JUMP JUMPDEST PUSH1 0x40 MLOAD DUP1 SWAP2 SUB SWAP1 REVERT JUMPDEST DUP2 SWAP1 POP SWAP2 SWAP1 POP JUMP JUMPDEST PUSH3 0xAB7 DUP4 DUP4 DUP4 PUSH3 0xB46 PUSH1 0x20 SHL PUSH1 0x20 SHR JUMP JUMPDEST PUSH3 0xAEA PUSH3 0xACC DUP5 PUSH3 0xB4B PUSH1 0x20 SHL PUSH1 0x20 SHR JUMP JUMPDEST PUSH3 0xADD DUP5 PUSH3 0xB4B PUSH1 0x20 SHL PUSH1 0x20 SHR JUMP JUMPDEST DUP4 PUSH3 0xBB0 PUSH1 0x20 SHL PUSH1 0x20 SHR JUMP JUMPDEST POP POP POP JUMP JUMPDEST PUSH0 PUSH6 0xFFFFFFFFFFFF DUP1 AND DUP3 GT ISZERO PUSH3 0xB3E JUMPI PUSH1 0x40 MLOAD PUSH32 0x8C379A000000000000000000000000000000000000000000000000000000000 DUP2 MSTORE PUSH1 0x4 ADD PUSH3 0xB35 SWAP1 PUSH3 0x1852 JUMP JUMPDEST PUSH1 0x40 MLOAD DUP1 SWAP2 SUB SWAP1 REVERT JUMPDEST DUP2 SWAP1 POP SWAP2 SWAP1 POP JUMP JUMPDEST POP POP POP JUMP JUMPDEST PUSH0 PUSH1 0xA PUSH0 DUP4 PUSH20 0xFFFFFFFFFFFFFFFFFFFFFFFFFFFFFFFFFFFFFFFF AND PUSH20 0xFFFFFFFFFFFFFFFFFFFFFFFFFFFFFFFFFFFFFFFF AND DUP2 MSTORE PUSH1 0x20 ADD SWAP1 DUP2 MSTORE PUSH1 0x20 ADD PUSH0 KECCAK256 PUSH0 SWAP1 SLOAD SWAP1 PUSH2 0x100 EXP SWAP1 DIV PUSH20 0xFFFFFFFFFFFFFFFFFFFFFFFFFFFFFFFFFFFFFFFF AND SWAP1 POP SWAP2 SWAP1 POP JUMP JUMPDEST DUP2 PUSH20 0xFFFFFFFFFFFFFFFFFFFFFFFFFFFFFFFFFFFFFFFF AND DUP4 PUSH20 0xFFFFFFFFFFFFFFFFFFFFFFFFFFFFFFFFFFFFFFFF AND EQ ISZERO DUP1 ISZERO PUSH3 0xBEC JUMPI POP PUSH0 DUP2 GT JUMPDEST ISZERO PUSH3 0xDC5 JUMPI PUSH0 PUSH20 0xFFFFFFFFFFFFFFFFFFFFFFFFFFFFFFFFFFFFFFFF AND DUP4 PUSH20 0xFFFFFFFFFFFFFFFFFFFFFFFFFFFFFFFFFFFFFFFF AND EQ PUSH3 0xCDB JUMPI PUSH0 DUP1 PUSH3 0xC82 PUSH1 0xB PUSH0 DUP8 PUSH20 0xFFFFFFFFFFFFFFFFFFFFFFFFFFFFFFFFFFFFFFFF AND PUSH20 0xFFFFFFFFFFFFFFFFFFFFFFFFFFFFFFFFFFFFFFFF AND DUP2 MSTORE PUSH1 0x20 ADD SWAP1 DUP2 MSTORE PUSH1 0x20 ADD PUSH0 KECCAK256 PUSH3 0xDCA PUSH1 0x20 SHL PUSH3 0x16E2 OR DUP6 PUSH3 0x698 PUSH1 0x20 SHL PUSH1 0x20 SHR JUMP JUMPDEST SWAP2 POP SWAP2 POP DUP5 PUSH20 0xFFFFFFFFFFFFFFFFFFFFFFFFFFFFFFFFFFFFFFFF AND PUSH32 0xDEC2BACDD2F05B59DE34DA9B523DFF8BE42E5E38E818C82FDB0BAE774387A724 DUP4 DUP4 PUSH1 0x40 MLOAD PUSH3 0xCD0 SWAP3 SWAP2 SWAP1 PUSH3 0x1872 JUMP JUMPDEST PUSH1 0x40 MLOAD DUP1 SWAP2 SUB SWAP1 LOG2 POP POP JUMPDEST PUSH0 PUSH20 0xFFFFFFFFFFFFFFFFFFFFFFFFFFFFFFFFFFFFFFFF AND DUP3 PUSH20 0xFFFFFFFFFFFFFFFFFFFFFFFFFFFFFFFFFFFFFFFF AND EQ PUSH3 0xDC4 JUMPI PUSH0 DUP1 PUSH3 0xD6B PUSH1 0xB PUSH0 DUP7 PUSH20 0xFFFFFFFFFFFFFFFFFFFFFFFFFFFFFFFFFFFFFFFF AND PUSH20 0xFFFFFFFFFFFFFFFFFFFFFFFFFFFFFFFFFFFFFFFF AND DUP2 MSTORE PUSH1 0x20 ADD SWAP1 DUP2 MSTORE PUSH1 0x20 ADD PUSH0 KECCAK256 PUSH3 0x681 PUSH1 0x20 SHL PUSH3 0x16CD OR DUP6 PUSH3 0x698 PUSH1 0x20 SHL PUSH1 0x20 SHR JUMP JUMPDEST SWAP2 POP SWAP2 POP DUP4 PUSH20 0xFFFFFFFFFFFFFFFFFFFFFFFFFFFFFFFFFFFFFFFF AND PUSH32 0xDEC2BACDD2F05B59DE34DA9B523DFF8BE42E5E38E818C82FDB0BAE774387A724 DUP4 DUP4 PUSH1 0x40 MLOAD PUSH3 0xDB9 SWAP3 SWAP2 SWAP1 PUSH3 0x1872 JUMP JUMPDEST PUSH1 0x40 MLOAD DUP1 SWAP2 SUB SWAP1 LOG2 POP POP JUMPDEST JUMPDEST POP POP POP JUMP JUMPDEST PUSH0 DUP2 DUP4 PUSH3 0xDD9 SWAP2 SWAP1 PUSH3 0x189D JUMP JUMPDEST SWAP1 POP SWAP3 SWAP2 POP POP JUMP JUMPDEST PUSH0 DUP2 MLOAD SWAP1 POP SWAP2 SWAP1 POP JUMP JUMPDEST PUSH32 0x4E487B7100000000000000000000000000000000000000000000000000000000 PUSH0 MSTORE PUSH1 0x41 PUSH1 0x4 MSTORE PUSH1 0x24 PUSH0 REVERT JUMPDEST PUSH32 0x4E487B7100000000000000000000000000000000000000000000000000000000 PUSH0 MSTORE PUSH1 0x22 PUSH1 0x4 MSTORE PUSH1 0x24 PUSH0 REVERT JUMPDEST PUSH0 PUSH1 0x2 DUP3 DIV SWAP1 POP PUSH1 0x1 DUP3 AND DUP1 PUSH3 0xE5D JUMPI PUSH1 0x7F DUP3 AND SWAP2 POP JUMPDEST PUSH1 0x20 DUP3 LT DUP2 SUB PUSH3 0xE73 JUMPI PUSH3 0xE72 PUSH3 0xE18 JUMP JUMPDEST JUMPDEST POP SWAP2 SWAP1 POP JUMP JUMPDEST PUSH0 DUP2 SWAP1 POP DUP2 PUSH0 MSTORE PUSH1 0x20 PUSH0 KECCAK256 SWAP1 POP SWAP2 SWAP1 POP JUMP JUMPDEST PUSH0 PUSH1 0x20 PUSH1 0x1F DUP4 ADD DIV SWAP1 POP SWAP2 SWAP1 POP JUMP JUMPDEST PUSH0 DUP3 DUP3 SHL SWAP1 POP SWAP3 SWAP2 POP POP JUMP JUMPDEST PUSH0 PUSH1 0x8 DUP4 MUL PUSH3 0xED7 PUSH32 0xFFFFFFFFFFFFFFFFFFFFFFFFFFFFFFFFFFFFFFFFFFFFFFFFFFFFFFFFFFFFFFFF DUP3 PUSH3 0xE9A JUMP JUMPDEST PUSH3 0xEE3 DUP7 DUP4 PUSH3 0xE9A JUMP JUMPDEST SWAP6 POP DUP1 NOT DUP5 AND SWAP4 POP DUP1 DUP7 AND DUP5 OR SWAP3 POP POP POP SWAP4 SWAP3 POP POP POP JUMP JUMPDEST PUSH0 DUP2 SWAP1 POP SWAP2 SWAP1 POP JUMP JUMPDEST PUSH0 DUP2 SWAP1 POP SWAP2 SWAP1 POP JUMP JUMPDEST PUSH0 PUSH3 0xF2D PUSH3 0xF27 PUSH3 0xF21 DUP5 PUSH3 0xEFB JUMP JUMPDEST PUSH3 0xF04 JUMP JUMPDEST PUSH3 0xEFB JUMP JUMPDEST SWAP1 POP SWAP2 SWAP1 POP JUMP JUMPDEST PUSH0 DUP2 SWAP1 POP SWAP2 SWAP1 POP JUMP JUMPDEST PUSH3 0xF48 DUP4 PUSH3 0xF0D JUMP JUMPDEST PUSH3 0xF60 PUSH3 0xF57 DUP3 PUSH3 0xF34 JUMP JUMPDEST DUP5 DUP5 SLOAD PUSH3 0xEA6 JUMP JUMPDEST DUP3 SSTORE POP POP POP POP JUMP JUMPDEST PUSH0 SWAP1 JUMP JUMPDEST PUSH3 0xF76 PUSH3 0xF68 JUMP JUMPDEST PUSH3 0xF83 DUP2 DUP5 DUP5 PUSH3 0xF3D JUMP JUMPDEST POP POP POP JUMP JUMPDEST JUMPDEST DUP2 DUP2 LT ISZERO PUSH3 0xFAA JUMPI PUSH3 0xF9E PUSH0 DUP3 PUSH3 0xF6C JUMP JUMPDEST PUSH1 0x1 DUP2 ADD SWAP1 POP PUSH3 0xF89 JUMP JUMPDEST POP POP JUMP JUMPDEST PUSH1 0x1F DUP3 GT ISZERO PUSH3 0xFF9 JUMPI PUSH3 0xFC3 DUP2 PUSH3 0xE79 JUMP JUMPDEST PUSH3 0xFCE DUP5 PUSH3 0xE8B JUMP JUMPDEST DUP2 ADD PUSH1 0x20 DUP6 LT ISZERO PUSH3 0xFDE JUMPI DUP2 SWAP1 POP JUMPDEST PUSH3 0xFF6 PUSH3 0xFED DUP6 PUSH3 0xE8B JUMP JUMPDEST DUP4 ADD DUP3 PUSH3 0xF88 JUMP JUMPDEST POP POP JUMPDEST POP POP POP JUMP JUMPDEST PUSH0 DUP3 DUP3 SHR SWAP1 POP SWAP3 SWAP2 POP POP JUMP JUMPDEST PUSH0 PUSH3 0x101B PUSH0 NOT DUP5 PUSH1 0x8 MUL PUSH3 0xFFE JUMP JUMPDEST NOT DUP1 DUP4 AND SWAP2 POP POP SWAP3 SWAP2 POP POP JUMP JUMPDEST PUSH0 PUSH3 0x1035 DUP4 DUP4 PUSH3 0x100A JUMP JUMPDEST SWAP2 POP DUP3 PUSH1 0x2 MUL DUP3 OR SWAP1 POP SWAP3 SWAP2 POP POP JUMP JUMPDEST PUSH3 0x1050 DUP3 PUSH3 0xDE1 JUMP JUMPDEST PUSH8 0xFFFFFFFFFFFFFFFF DUP2 GT ISZERO PUSH3 0x106C JUMPI PUSH3 0x106B PUSH3 0xDEB JUMP JUMPDEST JUMPDEST PUSH3 0x1078 DUP3 SLOAD PUSH3 0xE45 JUMP JUMPDEST PUSH3 0x1085 DUP3 DUP3 DUP6 PUSH3 0xFAE JUMP JUMPDEST PUSH0 PUSH1 0x20 SWAP1 POP PUSH1 0x1F DUP4 GT PUSH1 0x1 DUP2 EQ PUSH3 0x10BB JUMPI PUSH0 DUP5 ISZERO PUSH3 0x10A6 JUMPI DUP3 DUP8 ADD MLOAD SWAP1 POP JUMPDEST PUSH3 0x10B2 DUP6 DUP3 PUSH3 0x1028 JUMP JUMPDEST DUP7 SSTORE POP PUSH3 0x1121 JUMP JUMPDEST PUSH1 0x1F NOT DUP5 AND PUSH3 0x10CB DUP7 PUSH3 0xE79 JUMP JUMPDEST PUSH0 JUMPDEST DUP3 DUP2 LT ISZERO PUSH3 0x10F4 JUMPI DUP5 DUP10 ADD MLOAD DUP3 SSTORE PUSH1 0x1 DUP3 ADD SWAP2 POP PUSH1 0x20 DUP6 ADD SWAP5 POP PUSH1 0x20 DUP2 ADD SWAP1 POP PUSH3 0x10CD JUMP JUMPDEST DUP7 DUP4 LT ISZERO PUSH3 0x1114 JUMPI DUP5 DUP10 ADD MLOAD PUSH3 0x1110 PUSH1 0x1F DUP10 AND DUP3 PUSH3 0x100A JUMP JUMPDEST DUP4 SSTORE POP JUMPDEST PUSH1 0x1 PUSH1 0x2 DUP9 MUL ADD DUP9 SSTORE POP POP POP JUMPDEST POP POP POP POP POP POP JUMP JUMPDEST PUSH32 0x4E487B7100000000000000000000000000000000000000000000000000000000 PUSH0 MSTORE PUSH1 0x11 PUSH1 0x4 MSTORE PUSH1 0x24 PUSH0 REVERT JUMPDEST PUSH0 DUP2 PUSH1 0x1 SHR SWAP1 POP SWAP2 SWAP1 POP JUMP JUMPDEST PUSH0 DUP1 DUP3 SWAP2 POP DUP4 SWAP1 POP JUMPDEST PUSH1 0x1 DUP6 GT ISZERO PUSH3 0x11B3 JUMPI DUP1 DUP7 DIV DUP2 GT ISZERO PUSH3 0x118B JUMPI PUSH3 0x118A PUSH3 0x1129 JUMP JUMPDEST JUMPDEST PUSH1 0x1 DUP6 AND ISZERO PUSH3 0x119B JUMPI DUP1 DUP3 MUL SWAP2 POP JUMPDEST DUP1 DUP2 MUL SWAP1 POP PUSH3 0x11AB DUP6 PUSH3 0x1156 JUMP JUMPDEST SWAP5 POP PUSH3 0x116B JUMP JUMPDEST SWAP5 POP SWAP5 SWAP3 POP POP POP JUMP JUMPDEST PUSH0 DUP3 PUSH3 0x11CD JUMPI PUSH1 0x1 SWAP1 POP PUSH3 0x129F JUMP JUMPDEST DUP2 PUSH3 0x11DC JUMPI PUSH0 SWAP1 POP PUSH3 0x129F JUMP JUMPDEST DUP2 PUSH1 0x1 DUP2 EQ PUSH3 0x11F5 JUMPI PUSH1 0x2 DUP2 EQ PUSH3 0x1200 JUMPI PUSH3 0x1236 JUMP JUMPDEST PUSH1 0x1 SWAP2 POP POP PUSH3 0x129F JUMP JUMPDEST PUSH1 0xFF DUP5 GT ISZERO PUSH3 0x1215 JUMPI PUSH3 0x1214 PUSH3 0x1129 JUMP JUMPDEST JUMPDEST DUP4 PUSH1 0x2 EXP SWAP2 POP DUP5 DUP3 GT ISZERO PUSH3 0x122F JUMPI PUSH3 0x122E PUSH3 0x1129 JUMP JUMPDEST JUMPDEST POP PUSH3 0x129F JUMP JUMPDEST POP PUSH1 0x20 DUP4 LT PUSH2 0x133 DUP4 LT AND PUSH1 0x4E DUP5 LT PUSH1 0xB DUP5 LT AND OR ISZERO PUSH3 0x1270 JUMPI DUP3 DUP3 EXP SWAP1 POP DUP4 DUP2 GT ISZERO PUSH3 0x126A JUMPI PUSH3 0x1269 PUSH3 0x1129 JUMP JUMPDEST JUMPDEST PUSH3 0x129F JUMP JUMPDEST PUSH3 0x127F DUP5 DUP5 DUP5 PUSH1 0x1 PUSH3 0x1162 JUMP JUMPDEST SWAP3 POP SWAP1 POP DUP2 DUP5 DIV DUP2 GT ISZERO PUSH3 0x1299 JUMPI PUSH3 0x1298 PUSH3 0x1129 JUMP JUMPDEST JUMPDEST DUP2 DUP2 MUL SWAP1 POP JUMPDEST SWAP4 SWAP3 POP POP POP JUMP JUMPDEST PUSH0 PUSH1 0xFF DUP3 AND SWAP1 POP SWAP2 SWAP1 POP JUMP JUMPDEST PUSH0 PUSH3 0x12BE DUP3 PUSH3 0xEFB JUMP JUMPDEST SWAP2 POP PUSH3 0x12CB DUP4 PUSH3 0x12A6 JUMP JUMPDEST SWAP3 POP PUSH3 0x12FA PUSH32 0xFFFFFFFFFFFFFFFFFFFFFFFFFFFFFFFFFFFFFFFFFFFFFFFFFFFFFFFFFFFFFFFF DUP5 DUP5 PUSH3 0x11BC JUMP JUMPDEST SWAP1 POP SWAP3 SWAP2 POP POP JUMP JUMPDEST PUSH0 PUSH3 0x130E DUP3 PUSH3 0xEFB JUMP JUMPDEST SWAP2 POP PUSH3 0x131B DUP4 PUSH3 0xEFB JUMP JUMPDEST SWAP3 POP DUP3 DUP3 MUL PUSH3 0x132B DUP2 PUSH3 0xEFB JUMP JUMPDEST SWAP2 POP DUP3 DUP3 DIV DUP5 EQ DUP4 ISZERO OR PUSH3 0x1345 JUMPI PUSH3 0x1344 PUSH3 0x1129 JUMP JUMPDEST JUMPDEST POP SWAP3 SWAP2 POP POP JUMP JUMPDEST PUSH0 DUP2 SWAP1 POP SWAP2 SWAP1 POP JUMP JUMPDEST PUSH3 0x1360 DUP2 PUSH3 0x134C JUMP JUMPDEST DUP3 MSTORE POP POP JUMP JUMPDEST PUSH3 0x1371 DUP2 PUSH3 0xEFB JUMP JUMPDEST DUP3 MSTORE POP POP JUMP JUMPDEST PUSH0 PUSH20 0xFFFFFFFFFFFFFFFFFFFFFFFFFFFFFFFFFFFFFFFF DUP3 AND SWAP1 POP SWAP2 SWAP1 POP JUMP JUMPDEST PUSH0 PUSH3 0x13A2 DUP3 PUSH3 0x1377 JUMP JUMPDEST SWAP1 POP SWAP2 SWAP1 POP JUMP JUMPDEST PUSH3 0x13B4 DUP2 PUSH3 0x1396 JUMP JUMPDEST DUP3 MSTORE POP POP JUMP JUMPDEST PUSH0 PUSH1 0xA0 DUP3 ADD SWAP1 POP PUSH3 0x13CF PUSH0 DUP4 ADD DUP9 PUSH3 0x1355 JUMP JUMPDEST PUSH3 0x13DE PUSH1 0x20 DUP4 ADD DUP8 PUSH3 0x1355 JUMP JUMPDEST PUSH3 0x13ED PUSH1 0x40 DUP4 ADD DUP7 PUSH3 0x1355 JUMP JUMPDEST PUSH3 0x13FC PUSH1 0x60 DUP4 ADD DUP6 PUSH3 0x1366 JUMP JUMPDEST PUSH3 0x140B PUSH1 0x80 DUP4 ADD DUP5 PUSH3 0x13A9 JUMP JUMPDEST SWAP7 SWAP6 POP POP POP POP POP POP JUMP JUMPDEST PUSH0 DUP3 DUP3 MSTORE PUSH1 0x20 DUP3 ADD SWAP1 POP SWAP3 SWAP2 POP POP JUMP JUMPDEST PUSH0 JUMPDEST DUP4 DUP2 LT ISZERO PUSH3 0x1444 JUMPI DUP1 DUP3 ADD MLOAD DUP2 DUP5 ADD MSTORE PUSH1 0x20 DUP2 ADD SWAP1 POP PUSH3 0x1427 JUMP JUMPDEST PUSH0 DUP5 DUP5 ADD MSTORE POP POP POP POP JUMP JUMPDEST PUSH0 PUSH1 0x1F NOT PUSH1 0x1F DUP4 ADD AND SWAP1 POP SWAP2 SWAP1 POP JUMP JUMPDEST PUSH0 PUSH3 0x146B DUP3 PUSH3 0xDE1 JUMP JUMPDEST PUSH3 0x1477 DUP2 DUP6 PUSH3 0x1415 JUMP JUMPDEST SWAP4 POP PUSH3 0x1489 DUP2 DUP6 PUSH1 0x20 DUP7 ADD PUSH3 0x1425 JUMP JUMPDEST PUSH3 0x1494 DUP2 PUSH3 0x144F JUMP JUMPDEST DUP5 ADD SWAP2 POP POP SWAP3 SWAP2 POP POP JUMP JUMPDEST PUSH0 PUSH1 0x20 DUP3 ADD SWAP1 POP DUP2 DUP2 SUB PUSH0 DUP4 ADD MSTORE PUSH3 0x14B9 DUP2 DUP5 PUSH3 0x145F JUMP JUMPDEST SWAP1 POP SWAP3 SWAP2 POP POP JUMP JUMPDEST PUSH0 DUP2 MLOAD SWAP1 POP SWAP2 SWAP1 POP JUMP JUMPDEST PUSH0 DUP2 SWAP1 POP PUSH1 0x20 DUP3 ADD SWAP1 POP SWAP2 SWAP1 POP JUMP JUMPDEST PUSH0 PUSH3 0x14E7 DUP3 MLOAD PUSH3 0x134C JUMP JUMPDEST DUP1 SWAP2 POP POP SWAP2 SWAP1 POP JUMP JUMPDEST PUSH0 PUSH3 0x14FC DUP3 PUSH3 0x14C1 JUMP JUMPDEST DUP3 PUSH3 0x1508 DUP5 PUSH3 0x14CB JUMP JUMPDEST SWAP1 POP PUSH3 0x1515 DUP2 PUSH3 0x14DA JUMP JUMPDEST SWAP3 POP PUSH1 0x20 DUP3 LT ISZERO PUSH3 0x1558 JUMPI PUSH3 0x1553 PUSH32 0xFFFFFFFFFFFFFFFFFFFFFFFFFFFFFFFFFFFFFFFFFFFFFFFFFFFFFFFFFFFFFFFF DUP4 PUSH1 0x20 SUB PUSH1 0x8 MUL PUSH3 0xE9A JUMP JUMPDEST DUP4 AND SWAP3 POP JUMPDEST POP POP SWAP2 SWAP1 POP JUMP JUMPDEST PUSH32 0x4552433230566F7465733A20746F74616C20737570706C79207269736B73206F PUSH0 DUP3 ADD MSTORE PUSH32 0x766572666C6F77696E6720766F74657300000000000000000000000000000000 PUSH1 0x20 DUP3 ADD MSTORE POP JUMP JUMPDEST PUSH0 PUSH3 0x15BB PUSH1 0x30 DUP4 PUSH3 0x1415 JUMP JUMPDEST SWAP2 POP PUSH3 0x15C8 DUP3 PUSH3 0x155F JUMP JUMPDEST PUSH1 0x40 DUP3 ADD SWAP1 POP SWAP2 SWAP1 POP JUMP JUMPDEST PUSH0 PUSH1 0x20 DUP3 ADD SWAP1 POP DUP2 DUP2 SUB PUSH0 DUP4 ADD MSTORE PUSH3 0x15EC DUP2 PUSH3 0x15AD JUMP JUMPDEST SWAP1 POP SWAP2 SWAP1 POP JUMP JUMPDEST PUSH32 0x45524332303A206D696E7420746F20746865207A65726F206164647265737300 PUSH0 DUP3 ADD MSTORE POP JUMP JUMPDEST PUSH0 PUSH3 0x1629 PUSH1 0x1F DUP4 PUSH3 0x1415 JUMP JUMPDEST SWAP2 POP PUSH3 0x1636 DUP3 PUSH3 0x15F3 JUMP JUMPDEST PUSH1 0x20 DUP3 ADD SWAP1 POP SWAP2 SWAP1 POP JUMP JUMPDEST PUSH0 PUSH1 0x20 DUP3 ADD SWAP1 POP DUP2 DUP2 SUB PUSH0 DUP4 ADD MSTORE PUSH3 0x165A DUP2 PUSH3 0x161B JUMP JUMPDEST SWAP1 POP SWAP2 SWAP1 POP JUMP JUMPDEST PUSH0 PUSH3 0x166D DUP3 PUSH3 0xEFB JUMP JUMPDEST SWAP2 POP PUSH3 0x167A DUP4 PUSH3 0xEFB JUMP JUMPDEST SWAP3 POP DUP3 DUP3 ADD SWAP1 POP DUP1 DUP3 GT ISZERO PUSH3 0x1695 JUMPI PUSH3 0x1694 PUSH3 0x1129 JUMP JUMPDEST JUMPDEST SWAP3 SWAP2 POP POP JUMP JUMPDEST PUSH0 PUSH1 0x20 DUP3 ADD SWAP1 POP PUSH3 0x16B0 PUSH0 DUP4 ADD DUP5 PUSH3 0x1366 JUMP JUMPDEST SWAP3 SWAP2 POP POP JUMP JUMPDEST PUSH32 0x53616665436173743A2076616C756520646F65736E27742066697420696E2032 PUSH0 DUP3 ADD MSTORE PUSH32 0x3234206269747300000000000000000000000000000000000000000000000000 PUSH1 0x20 DUP3 ADD MSTORE POP JUMP JUMPDEST PUSH0 PUSH3 0x1712 PUSH1 0x27 DUP4 PUSH3 0x1415 JUMP JUMPDEST SWAP2 POP PUSH3 0x171F DUP3 PUSH3 0x16B6 JUMP JUMPDEST PUSH1 0x40 DUP3 ADD SWAP1 POP SWAP2 SWAP1 POP JUMP JUMPDEST PUSH0 PUSH1 0x20 DUP3 ADD SWAP1 POP DUP2 DUP2 SUB PUSH0 DUP4 ADD MSTORE PUSH3 0x1743 DUP2 PUSH3 0x1704 JUMP JUMPDEST SWAP1 POP SWAP2 SWAP1 POP JUMP JUMPDEST PUSH32 0x53616665436173743A2076616C756520646F65736E27742066697420696E2033 PUSH0 DUP3 ADD MSTORE PUSH32 0x3220626974730000000000000000000000000000000000000000000000000000 PUSH1 0x20 DUP3 ADD MSTORE POP JUMP JUMPDEST PUSH0 PUSH3 0x17A6 PUSH1 0x26 DUP4 PUSH3 0x1415 JUMP JUMPDEST SWAP2 POP PUSH3 0x17B3 DUP3 PUSH3 0x174A JUMP JUMPDEST PUSH1 0x40 DUP3 ADD SWAP1 POP SWAP2 SWAP1 POP JUMP JUMPDEST PUSH0 PUSH1 0x20 DUP3 ADD SWAP1 POP DUP2 DUP2 SUB PUSH0 DUP4 ADD MSTORE PUSH3 0x17D7 DUP2 PUSH3 0x1798 JUMP JUMPDEST SWAP1 POP SWAP2 SWAP1 POP JUMP JUMPDEST PUSH32 0x53616665436173743A2076616C756520646F65736E27742066697420696E2034 PUSH0 DUP3 ADD MSTORE PUSH32 0x3820626974730000000000000000000000000000000000000000000000000000 PUSH1 0x20 DUP3 ADD MSTORE POP JUMP JUMPDEST PUSH0 PUSH3 0x183A PUSH1 0x26 DUP4 PUSH3 0x1415 JUMP JUMPDEST SWAP2 POP PUSH3 0x1847 DUP3 PUSH3 0x17DE JUMP JUMPDEST PUSH1 0x40 DUP3 ADD SWAP1 POP SWAP2 SWAP1 POP JUMP JUMPDEST PUSH0 PUSH1 0x20 DUP3 ADD SWAP1 POP DUP2 DUP2 SUB PUSH0 DUP4 ADD MSTORE PUSH3 0x186B DUP2 PUSH3 0x182C JUMP JUMPDEST SWAP1 POP SWAP2 SWAP1 POP JUMP JUMPDEST PUSH0 PUSH1 0x40 DUP3 ADD SWAP1 POP PUSH3 0x1887 PUSH0 DUP4 ADD DUP6 PUSH3 0x1366 JUMP JUMPDEST PUSH3 0x1896 PUSH1 0x20 DUP4 ADD DUP5 PUSH3 0x1366 JUMP JUMPDEST SWAP4 SWAP3 POP POP POP JUMP JUMPDEST PUSH0 PUSH3 0x18A9 DUP3 PUSH3 0xEFB JUMP JUMPDEST SWAP2 POP PUSH3 0x18B6 DUP4 PUSH3 0xEFB JUMP JUMPDEST SWAP3 POP DUP3 DUP3 SUB SWAP1 POP DUP2 DUP2 GT ISZERO PUSH3 0x18D1 JUMPI PUSH3 0x18D0 PUSH3 0x1129 JUMP JUMPDEST JUMPDEST SWAP3 SWAP2 POP POP JUMP JUMPDEST PUSH1 0x80 MLOAD PUSH1 0xA0 MLOAD PUSH1 0xC0 MLOAD PUSH1 0xE0 MLOAD PUSH2 0x100 MLOAD PUSH2 0x120 MLOAD PUSH2 0x140 MLOAD PUSH2 0x4A4F PUSH3 0x1929 PUSH0 CODECOPY PUSH0 PUSH2 0xF05 ADD MSTORE PUSH0 PUSH2 0xED1 ADD MSTORE PUSH0 PUSH2 0x2273 ADD MSTORE PUSH0 PUSH2 0x2252 ADD MSTORE PUSH0 PUSH2 0x1BBB ADD MSTORE PUSH0 PUSH2 0x1C11 ADD MSTORE PUSH0 PUSH2 0x1C3A ADD MSTORE PUSH2 0x4A4F PUSH0 RETURN INVALID PUSH1 0x80 PUSH1 0x40 MSTORE PUSH1 0x4 CALLDATASIZE LT PUSH2 0x203 JUMPI PUSH0 CALLDATALOAD PUSH1 0xE0 SHR DUP1 PUSH4 0x6FCFFF45 GT PUSH2 0x117 JUMPI DUP1 PUSH4 0x95D89B41 GT PUSH2 0x9F JUMPI DUP1 PUSH4 0xC3CDA520 GT PUSH2 0x6E JUMPI DUP1 PUSH4 0xC3CDA520 EQ PUSH2 0x7A3 JUMPI DUP1 PUSH4 0xD505ACCF EQ PUSH2 0x7CB JUMPI DUP1 PUSH4 0xDD62ED3E EQ PUSH2 0x7F3 JUMPI DUP1 PUSH4 0xF1127ED8 EQ PUSH2 0x82F JUMPI DUP1 PUSH4 0xF2FDE38B EQ PUSH2 0x86B JUMPI PUSH2 0x203 JUMP JUMPDEST DUP1 PUSH4 0x95D89B41 EQ PUSH2 0x6C5 JUMPI DUP1 PUSH4 0x9AB24EB0 EQ PUSH2 0x6EF JUMPI DUP1 PUSH4 0xA457C2D7 EQ PUSH2 0x72B JUMPI DUP1 PUSH4 0xA9059CBB EQ PUSH2 0x767 JUMPI PUSH2 0x203 JUMP JUMPDEST DUP1 PUSH4 0x7ECEBE00 GT PUSH2 0xE6 JUMPI DUP1 PUSH4 0x7ECEBE00 EQ PUSH2 0x5C9 JUMPI DUP1 PUSH4 0x84B0196E EQ PUSH2 0x605 JUMPI DUP1 PUSH4 0x8DA5CB5B EQ PUSH2 0x635 JUMPI DUP1 PUSH4 0x8E539E8C EQ PUSH2 0x65F JUMPI DUP1 PUSH4 0x91DDADF4 EQ PUSH2 0x69B JUMPI PUSH2 0x203 JUMP JUMPDEST DUP1 PUSH4 0x6FCFFF45 EQ PUSH2 0x513 JUMPI DUP1 PUSH4 0x70A08231 EQ PUSH2 0x54F JUMPI DUP1 PUSH4 0x715018A6 EQ PUSH2 0x58B JUMPI DUP1 PUSH4 0x79CC6790 EQ PUSH2 0x5A1 JUMPI PUSH2 0x203 JUMP JUMPDEST DUP1 PUSH4 0x3A46B1A8 GT PUSH2 0x19A JUMPI DUP1 PUSH4 0x4BF5D7E9 GT PUSH2 0x169 JUMPI DUP1 PUSH4 0x4BF5D7E9 EQ PUSH2 0x435 JUMPI DUP1 PUSH4 0x587CDE1E EQ PUSH2 0x45F JUMPI DUP1 PUSH4 0x5C19A95C EQ PUSH2 0x49B JUMPI DUP1 PUSH4 0x6A61E5FC EQ PUSH2 0x4C3 JUMPI DUP1 PUSH4 0x6C11BCD3 EQ PUSH2 0x4EB JUMPI PUSH2 0x203 JUMP JUMPDEST DUP1 PUSH4 0x3A46B1A8 EQ PUSH2 0x37F JUMPI DUP1 PUSH4 0x40C10F19 EQ PUSH2 0x3BB JUMPI DUP1 PUSH4 0x42966C68 EQ PUSH2 0x3E3 JUMPI DUP1 PUSH4 0x4B94F50E EQ PUSH2 0x40B JUMPI PUSH2 0x203 JUMP JUMPDEST DUP1 PUSH4 0x313CE567 GT PUSH2 0x1D6 JUMPI DUP1 PUSH4 0x313CE567 EQ PUSH2 0x2D3 JUMPI DUP1 PUSH4 0x3610724E EQ PUSH2 0x2FD JUMPI DUP1 PUSH4 0x3644E515 EQ PUSH2 0x319 JUMPI DUP1 PUSH4 0x39509351 EQ PUSH2 0x343 JUMPI PUSH2 0x203 JUMP JUMPDEST DUP1 PUSH4 0x6FDDE03 EQ PUSH2 0x207 JUMPI DUP1 PUSH4 0x95EA7B3 EQ PUSH2 0x231 JUMPI DUP1 PUSH4 0x18160DDD EQ PUSH2 0x26D JUMPI DUP1 PUSH4 0x23B872DD EQ PUSH2 0x297 JUMPI JUMPDEST PUSH0 DUP1 REVERT JUMPDEST CALLVALUE DUP1 ISZERO PUSH2 0x212 JUMPI PUSH0 DUP1 REVERT JUMPDEST POP PUSH2 0x21B PUSH2 0x893 JUMP JUMPDEST PUSH1 0x40 MLOAD PUSH2 0x228 SWAP2 SWAP1 PUSH2 0x3228 JUMP JUMPDEST PUSH1 0x40 MLOAD DUP1 SWAP2 SUB SWAP1 RETURN JUMPDEST CALLVALUE DUP1 ISZERO PUSH2 0x23C JUMPI PUSH0 DUP1 REVERT JUMPDEST POP PUSH2 0x257 PUSH1 0x4 DUP1 CALLDATASIZE SUB DUP2 ADD SWAP1 PUSH2 0x252 SWAP2 SWAP1 PUSH2 0x32D9 JUMP JUMPDEST PUSH2 0x923 JUMP JUMPDEST PUSH1 0x40 MLOAD PUSH2 0x264 SWAP2 SWAP1 PUSH2 0x3331 JUMP JUMPDEST PUSH1 0x40 MLOAD DUP1 SWAP2 SUB SWAP1 RETURN JUMPDEST CALLVALUE DUP1 ISZERO PUSH2 0x278 JUMPI PUSH0 DUP1 REVERT JUMPDEST POP PUSH2 0x281 PUSH2 0x945 JUMP JUMPDEST PUSH1 0x40 MLOAD PUSH2 0x28E SWAP2 SWAP1 PUSH2 0x3359 JUMP JUMPDEST PUSH1 0x40 MLOAD DUP1 SWAP2 SUB SWAP1 RETURN JUMPDEST CALLVALUE DUP1 ISZERO PUSH2 0x2A2 JUMPI PUSH0 DUP1 REVERT JUMPDEST POP PUSH2 0x2BD PUSH1 0x4 DUP1 CALLDATASIZE SUB DUP2 ADD SWAP1 PUSH2 0x2B8 SWAP2 SWAP1 PUSH2 0x3372 JUMP JUMPDEST PUSH2 0x94E JUMP JUMPDEST PUSH1 0x40 MLOAD PUSH2 0x2CA SWAP2 SWAP1 PUSH2 0x3331 JUMP JUMPDEST PUSH1 0x40 MLOAD DUP1 SWAP2 SUB SWAP1 RETURN JUMPDEST CALLVALUE DUP1 ISZERO PUSH2 0x2DE JUMPI PUSH0 DUP1 REVERT JUMPDEST POP PUSH2 0x2E7 PUSH2 0x97C JUMP JUMPDEST PUSH1 0x40 MLOAD PUSH2 0x2F4 SWAP2 SWAP1 PUSH2 0x33DD JUMP JUMPDEST PUSH1 0x40 MLOAD DUP1 SWAP2 SUB SWAP1 RETURN JUMPDEST PUSH2 0x317 PUSH1 0x4 DUP1 CALLDATASIZE SUB DUP2 ADD SWAP1 PUSH2 0x312 SWAP2 SWAP1 PUSH2 0x33F6 JUMP JUMPDEST PUSH2 0x984 JUMP JUMPDEST STOP JUMPDEST CALLVALUE DUP1 ISZERO PUSH2 0x324 JUMPI PUSH0 DUP1 REVERT JUMPDEST POP PUSH2 0x32D PUSH2 0xA83 JUMP JUMPDEST PUSH1 0x40 MLOAD PUSH2 0x33A SWAP2 SWAP1 PUSH2 0x3439 JUMP JUMPDEST PUSH1 0x40 MLOAD DUP1 SWAP2 SUB SWAP1 RETURN JUMPDEST CALLVALUE DUP1 ISZERO PUSH2 0x34E JUMPI PUSH0 DUP1 REVERT JUMPDEST POP PUSH2 0x369 PUSH1 0x4 DUP1 CALLDATASIZE SUB DUP2 ADD SWAP1 PUSH2 0x364 SWAP2 SWAP1 PUSH2 0x32D9 JUMP JUMPDEST PUSH2 0xA91 JUMP JUMPDEST PUSH1 0x40 MLOAD PUSH2 0x376 SWAP2 SWAP1 PUSH2 0x3331 JUMP JUMPDEST PUSH1 0x40 MLOAD DUP1 SWAP2 SUB SWAP1 RETURN JUMPDEST CALLVALUE DUP1 ISZERO PUSH2 0x38A JUMPI PUSH0 DUP1 REVERT JUMPDEST POP PUSH2 0x3A5 PUSH1 0x4 DUP1 CALLDATASIZE SUB DUP2 ADD SWAP1 PUSH2 0x3A0 SWAP2 SWAP1 PUSH2 0x32D9 JUMP JUMPDEST PUSH2 0xAC7 JUMP JUMPDEST PUSH1 0x40 MLOAD PUSH2 0x3B2 SWAP2 SWAP1 PUSH2 0x3359 JUMP JUMPDEST PUSH1 0x40 MLOAD DUP1 SWAP2 SUB SWAP1 RETURN JUMPDEST CALLVALUE DUP1 ISZERO PUSH2 0x3C6 JUMPI PUSH0 DUP1 REVERT JUMPDEST POP PUSH2 0x3E1 PUSH1 0x4 DUP1 CALLDATASIZE SUB DUP2 ADD SWAP1 PUSH2 0x3DC SWAP2 SWAP1 PUSH2 0x32D9 JUMP JUMPDEST PUSH2 0xB67 JUMP JUMPDEST STOP JUMPDEST CALLVALUE DUP1 ISZERO PUSH2 0x3EE JUMPI PUSH0 DUP1 REVERT JUMPDEST POP PUSH2 0x409 PUSH1 0x4 DUP1 CALLDATASIZE SUB DUP2 ADD SWAP1 PUSH2 0x404 SWAP2 SWAP1 PUSH2 0x33F6 JUMP JUMPDEST PUSH2 0xB7D JUMP JUMPDEST STOP JUMPDEST CALLVALUE DUP1 ISZERO PUSH2 0x416 JUMPI PUSH0 DUP1 REVERT JUMPDEST POP PUSH2 0x41F PUSH2 0xB91 JUMP JUMPDEST PUSH1 0x40 MLOAD PUSH2 0x42C SWAP2 SWAP1 PUSH2 0x3359 JUMP JUMPDEST PUSH1 0x40 MLOAD DUP1 SWAP2 SUB SWAP1 RETURN JUMPDEST CALLVALUE DUP1 ISZERO PUSH2 0x440 JUMPI PUSH0 DUP1 REVERT JUMPDEST POP PUSH2 0x449 PUSH2 0xB9A JUMP JUMPDEST PUSH1 0x40 MLOAD PUSH2 0x456 SWAP2 SWAP1 PUSH2 0x3228 JUMP JUMPDEST PUSH1 0x40 MLOAD DUP1 SWAP2 SUB SWAP1 RETURN JUMPDEST CALLVALUE DUP1 ISZERO PUSH2 0x46A JUMPI PUSH0 DUP1 REVERT JUMPDEST POP PUSH2 0x485 PUSH1 0x4 DUP1 CALLDATASIZE SUB DUP2 ADD SWAP1 PUSH2 0x480 SWAP2 SWAP1 PUSH2 0x3452 JUMP JUMPDEST PUSH2 0xC28 JUMP JUMPDEST PUSH1 0x40 MLOAD PUSH2 0x492 SWAP2 SWAP1 PUSH2 0x348C JUMP JUMPDEST PUSH1 0x40 MLOAD DUP1 SWAP2 SUB SWAP1 RETURN JUMPDEST CALLVALUE DUP1 ISZERO PUSH2 0x4A6 JUMPI PUSH0 DUP1 REVERT JUMPDEST POP PUSH2 0x4C1 PUSH1 0x4 DUP1 CALLDATASIZE SUB DUP2 ADD SWAP1 PUSH2 0x4BC SWAP2 SWAP1 PUSH2 0x3452 JUMP JUMPDEST PUSH2 0xC8D JUMP JUMPDEST STOP JUMPDEST CALLVALUE DUP1 ISZERO PUSH2 0x4CE JUMPI PUSH0 DUP1 REVERT JUMPDEST POP PUSH2 0x4E9 PUSH1 0x4 DUP1 CALLDATASIZE SUB DUP2 ADD SWAP1 PUSH2 0x4E4 SWAP2 SWAP1 PUSH2 0x33F6 JUMP JUMPDEST PUSH2 0xCA1 JUMP JUMPDEST STOP JUMPDEST CALLVALUE DUP1 ISZERO PUSH2 0x4F6 JUMPI PUSH0 DUP1 REVERT JUMPDEST POP PUSH2 0x511 PUSH1 0x4 DUP1 CALLDATASIZE SUB DUP2 ADD SWAP1 PUSH2 0x50C SWAP2 SWAP1 PUSH2 0x33F6 JUMP JUMPDEST PUSH2 0xCB3 JUMP JUMPDEST STOP JUMPDEST CALLVALUE DUP1 ISZERO PUSH2 0x51E JUMPI PUSH0 DUP1 REVERT JUMPDEST POP PUSH2 0x539 PUSH1 0x4 DUP1 CALLDATASIZE SUB DUP2 ADD SWAP1 PUSH2 0x534 SWAP2 SWAP1 PUSH2 0x3452 JUMP JUMPDEST PUSH2 0xDAB JUMP JUMPDEST PUSH1 0x40 MLOAD PUSH2 0x546 SWAP2 SWAP1 PUSH2 0x34C3 JUMP JUMPDEST PUSH1 0x40 MLOAD DUP1 SWAP2 SUB SWAP1 RETURN JUMPDEST CALLVALUE DUP1 ISZERO PUSH2 0x55A JUMPI PUSH0 DUP1 REVERT JUMPDEST POP PUSH2 0x575 PUSH1 0x4 DUP1 CALLDATASIZE SUB DUP2 ADD SWAP1 PUSH2 0x570 SWAP2 SWAP1 PUSH2 0x3452 JUMP JUMPDEST PUSH2 0xDFC JUMP JUMPDEST PUSH1 0x40 MLOAD PUSH2 0x582 SWAP2 SWAP1 PUSH2 0x3359 JUMP JUMPDEST PUSH1 0x40 MLOAD DUP1 SWAP2 SUB SWAP1 RETURN JUMPDEST CALLVALUE DUP1 ISZERO PUSH2 0x596 JUMPI PUSH0 DUP1 REVERT JUMPDEST POP PUSH2 0x59F PUSH2 0xE41 JUMP JUMPDEST STOP JUMPDEST CALLVALUE DUP1 ISZERO PUSH2 0x5AC JUMPI PUSH0 DUP1 REVERT JUMPDEST POP PUSH2 0x5C7 PUSH1 0x4 DUP1 CALLDATASIZE SUB DUP2 ADD SWAP1 PUSH2 0x5C2 SWAP2 SWAP1 PUSH2 0x32D9 JUMP JUMPDEST PUSH2 0xE54 JUMP JUMPDEST STOP JUMPDEST CALLVALUE DUP1 ISZERO PUSH2 0x5D4 JUMPI PUSH0 DUP1 REVERT JUMPDEST POP PUSH2 0x5EF PUSH1 0x4 DUP1 CALLDATASIZE SUB DUP2 ADD SWAP1 PUSH2 0x5EA SWAP2 SWAP1 PUSH2 0x3452 JUMP JUMPDEST PUSH2 0xE74 JUMP JUMPDEST PUSH1 0x40 MLOAD PUSH2 0x5FC SWAP2 SWAP1 PUSH2 0x3359 JUMP JUMPDEST PUSH1 0x40 MLOAD DUP1 SWAP2 SUB SWAP1 RETURN JUMPDEST CALLVALUE DUP1 ISZERO PUSH2 0x610 JUMPI PUSH0 DUP1 REVERT JUMPDEST POP PUSH2 0x619 PUSH2 0xEC1 JUMP JUMPDEST PUSH1 0x40 MLOAD PUSH2 0x62C SWAP8 SWAP7 SWAP6 SWAP5 SWAP4 SWAP3 SWAP2 SWAP1 PUSH2 0x35CD JUMP JUMPDEST PUSH1 0x40 MLOAD DUP1 SWAP2 SUB SWAP1 RETURN JUMPDEST CALLVALUE DUP1 ISZERO PUSH2 0x640 JUMPI PUSH0 DUP1 REVERT JUMPDEST POP PUSH2 0x649 PUSH2 0xFBE JUMP JUMPDEST PUSH1 0x40 MLOAD PUSH2 0x656 SWAP2 SWAP1 PUSH2 0x348C JUMP JUMPDEST PUSH1 0x40 MLOAD DUP1 SWAP2 SUB SWAP1 RETURN JUMPDEST CALLVALUE DUP1 ISZERO PUSH2 0x66A JUMPI PUSH0 DUP1 REVERT JUMPDEST POP PUSH2 0x685 PUSH1 0x4 DUP1 CALLDATASIZE SUB DUP2 ADD SWAP1 PUSH2 0x680 SWAP2 SWAP1 PUSH2 0x33F6 JUMP JUMPDEST PUSH2 0xFE6 JUMP JUMPDEST PUSH1 0x40 MLOAD PUSH2 0x692 SWAP2 SWAP1 PUSH2 0x3359 JUMP JUMPDEST PUSH1 0x40 MLOAD DUP1 SWAP2 SUB SWAP1 RETURN JUMPDEST CALLVALUE DUP1 ISZERO PUSH2 0x6A6 JUMPI PUSH0 DUP1 REVERT JUMPDEST POP PUSH2 0x6AF PUSH2 0x104A JUMP JUMPDEST PUSH1 0x40 MLOAD PUSH2 0x6BC SWAP2 SWAP1 PUSH2 0x366F JUMP JUMPDEST PUSH1 0x40 MLOAD DUP1 SWAP2 SUB SWAP1 RETURN JUMPDEST CALLVALUE DUP1 ISZERO PUSH2 0x6D0 JUMPI PUSH0 DUP1 REVERT JUMPDEST POP PUSH2 0x6D9 PUSH2 0x1059 JUMP JUMPDEST PUSH1 0x40 MLOAD PUSH2 0x6E6 SWAP2 SWAP1 PUSH2 0x3228 JUMP JUMPDEST PUSH1 0x40 MLOAD DUP1 SWAP2 SUB SWAP1 RETURN JUMPDEST CALLVALUE DUP1 ISZERO PUSH2 0x6FA JUMPI PUSH0 DUP1 REVERT JUMPDEST POP PUSH2 0x715 PUSH1 0x4 DUP1 CALLDATASIZE SUB DUP2 ADD SWAP1 PUSH2 0x710 SWAP2 SWAP1 PUSH2 0x3452 JUMP JUMPDEST PUSH2 0x10E9 JUMP JUMPDEST PUSH1 0x40 MLOAD PUSH2 0x722 SWAP2 SWAP1 PUSH2 0x3359 JUMP JUMPDEST PUSH1 0x40 MLOAD DUP1 SWAP2 SUB SWAP1 RETURN JUMPDEST CALLVALUE DUP1 ISZERO PUSH2 0x736 JUMPI PUSH0 DUP1 REVERT JUMPDEST POP PUSH2 0x751 PUSH1 0x4 DUP1 CALLDATASIZE SUB DUP2 ADD SWAP1 PUSH2 0x74C SWAP2 SWAP1 PUSH2 0x32D9 JUMP JUMPDEST PUSH2 0x11E7 JUMP JUMPDEST PUSH1 0x40 MLOAD PUSH2 0x75E SWAP2 SWAP1 PUSH2 0x3331 JUMP JUMPDEST PUSH1 0x40 MLOAD DUP1 SWAP2 SUB SWAP1 RETURN JUMPDEST CALLVALUE DUP1 ISZERO PUSH2 0x772 JUMPI PUSH0 DUP1 REVERT JUMPDEST POP PUSH2 0x78D PUSH1 0x4 DUP1 CALLDATASIZE SUB DUP2 ADD SWAP1 PUSH2 0x788 SWAP2 SWAP1 PUSH2 0x32D9 JUMP JUMPDEST PUSH2 0x125C JUMP JUMPDEST PUSH1 0x40 MLOAD PUSH2 0x79A SWAP2 SWAP1 PUSH2 0x3331 JUMP JUMPDEST PUSH1 0x40 MLOAD DUP1 SWAP2 SUB SWAP1 RETURN JUMPDEST CALLVALUE DUP1 ISZERO PUSH2 0x7AE JUMPI PUSH0 DUP1 REVERT JUMPDEST POP PUSH2 0x7C9 PUSH1 0x4 DUP1 CALLDATASIZE SUB DUP2 ADD SWAP1 PUSH2 0x7C4 SWAP2 SWAP1 PUSH2 0x36DC JUMP JUMPDEST PUSH2 0x127E JUMP JUMPDEST STOP JUMPDEST CALLVALUE DUP1 ISZERO PUSH2 0x7D6 JUMPI PUSH0 DUP1 REVERT JUMPDEST POP PUSH2 0x7F1 PUSH1 0x4 DUP1 CALLDATASIZE SUB DUP2 ADD SWAP1 PUSH2 0x7EC SWAP2 SWAP1 PUSH2 0x3765 JUMP JUMPDEST PUSH2 0x1381 JUMP JUMPDEST STOP JUMPDEST CALLVALUE DUP1 ISZERO PUSH2 0x7FE JUMPI PUSH0 DUP1 REVERT JUMPDEST POP PUSH2 0x819 PUSH1 0x4 DUP1 CALLDATASIZE SUB DUP2 ADD SWAP1 PUSH2 0x814 SWAP2 SWAP1 PUSH2 0x3802 JUMP JUMPDEST PUSH2 0x14C0 JUMP JUMPDEST PUSH1 0x40 MLOAD PUSH2 0x826 SWAP2 SWAP1 PUSH2 0x3359 JUMP JUMPDEST PUSH1 0x40 MLOAD DUP1 SWAP2 SUB SWAP1 RETURN JUMPDEST CALLVALUE DUP1 ISZERO PUSH2 0x83A JUMPI PUSH0 DUP1 REVERT JUMPDEST POP PUSH2 0x855 PUSH1 0x4 DUP1 CALLDATASIZE SUB DUP2 ADD SWAP1 PUSH2 0x850 SWAP2 SWAP1 PUSH2 0x386A JUMP JUMPDEST PUSH2 0x1542 JUMP JUMPDEST PUSH1 0x40 MLOAD PUSH2 0x862 SWAP2 SWAP1 PUSH2 0x391A JUMP JUMPDEST PUSH1 0x40 MLOAD DUP1 SWAP2 SUB SWAP1 RETURN JUMPDEST CALLVALUE DUP1 ISZERO PUSH2 0x876 JUMPI PUSH0 DUP1 REVERT JUMPDEST POP PUSH2 0x891 PUSH1 0x4 DUP1 CALLDATASIZE SUB DUP2 ADD SWAP1 PUSH2 0x88C SWAP2 SWAP1 PUSH2 0x3452 JUMP JUMPDEST PUSH2 0x164B JUMP JUMPDEST STOP JUMPDEST PUSH1 0x60 PUSH1 0x3 DUP1 SLOAD PUSH2 0x8A2 SWAP1 PUSH2 0x3960 JUMP JUMPDEST DUP1 PUSH1 0x1F ADD PUSH1 0x20 DUP1 SWAP2 DIV MUL PUSH1 0x20 ADD PUSH1 0x40 MLOAD SWAP1 DUP2 ADD PUSH1 0x40 MSTORE DUP1 SWAP3 SWAP2 SWAP1 DUP2 DUP2 MSTORE PUSH1 0x20 ADD DUP3 DUP1 SLOAD PUSH2 0x8CE SWAP1 PUSH2 0x3960 JUMP JUMPDEST DUP1 ISZERO PUSH2 0x919 JUMPI DUP1 PUSH1 0x1F LT PUSH2 0x8F0 JUMPI PUSH2 0x100 DUP1 DUP4 SLOAD DIV MUL DUP4 MSTORE SWAP2 PUSH1 0x20 ADD SWAP2 PUSH2 0x919 JUMP JUMPDEST DUP3 ADD SWAP2 SWAP1 PUSH0 MSTORE PUSH1 0x20 PUSH0 KECCAK256 SWAP1 JUMPDEST DUP2 SLOAD DUP2 MSTORE SWAP1 PUSH1 0x1 ADD SWAP1 PUSH1 0x20 ADD DUP1 DUP4 GT PUSH2 0x8FC JUMPI DUP3 SWAP1 SUB PUSH1 0x1F AND DUP3 ADD SWAP2 JUMPDEST POP POP POP POP POP SWAP1 POP SWAP1 JUMP JUMPDEST PUSH0 DUP1 PUSH2 0x92D PUSH2 0x16F7 JUMP JUMPDEST SWAP1 POP PUSH2 0x93A DUP2 DUP6 DUP6 PUSH2 0x16FE JUMP JUMPDEST PUSH1 0x1 SWAP2 POP POP SWAP3 SWAP2 POP POP JUMP JUMPDEST PUSH0 PUSH1 0x2 SLOAD SWAP1 POP SWAP1 JUMP JUMPDEST PUSH0 DUP1 PUSH2 0x958 PUSH2 0x16F7 JUMP JUMPDEST SWAP1 POP PUSH2 0x965 DUP6 DUP3 DUP6 PUSH2 0x18C1 JUMP JUMPDEST PUSH2 0x970 DUP6 DUP6 DUP6 PUSH2 0x194C JUMP JUMPDEST PUSH1 0x1 SWAP2 POP POP SWAP4 SWAP3 POP POP POP JUMP JUMPDEST PUSH0 PUSH1 0x12 SWAP1 POP SWAP1 JUMP JUMPDEST PUSH0 DUP2 GT PUSH2 0x9C6 JUMPI PUSH1 0x40 MLOAD PUSH32 0x8C379A000000000000000000000000000000000000000000000000000000000 DUP2 MSTORE PUSH1 0x4 ADD PUSH2 0x9BD SWAP1 PUSH2 0x39DA JUMP JUMPDEST PUSH1 0x40 MLOAD DUP1 SWAP2 SUB SWAP1 REVERT JUMPDEST PUSH1 0xD SLOAD DUP2 PUSH2 0x9D4 SWAP2 SWAP1 PUSH2 0x3A25 JUMP JUMPDEST CALLVALUE LT ISZERO PUSH2 0xA16 JUMPI PUSH1 0x40 MLOAD PUSH32 0x8C379A000000000000000000000000000000000000000000000000000000000 DUP2 MSTORE PUSH1 0x4 ADD PUSH2 0xA0D SWAP1 PUSH2 0x3AB0 JUMP JUMPDEST PUSH1 0x40 MLOAD DUP1 SWAP2 SUB SWAP1 REVERT JUMPDEST PUSH2 0xA28 PUSH2 0xA21 PUSH2 0xFBE JUMP JUMPDEST CALLER DUP4 PUSH2 0x194C JUMP JUMPDEST PUSH2 0xA30 PUSH2 0xFBE JUMP JUMPDEST PUSH20 0xFFFFFFFFFFFFFFFFFFFFFFFFFFFFFFFFFFFFFFFF AND PUSH2 0x8FC PUSH1 0xD SLOAD DUP4 PUSH2 0xA57 SWAP2 SWAP1 PUSH2 0x3A25 JUMP JUMPDEST SWAP1 DUP2 ISZERO MUL SWAP1 PUSH1 0x40 MLOAD PUSH0 PUSH1 0x40 MLOAD DUP1 DUP4 SUB DUP2 DUP6 DUP9 DUP9 CALL SWAP4 POP POP POP POP ISZERO DUP1 ISZERO PUSH2 0xA7F JUMPI RETURNDATASIZE PUSH0 DUP1 RETURNDATACOPY RETURNDATASIZE PUSH0 REVERT JUMPDEST POP POP JUMP JUMPDEST PUSH0 PUSH2 0xA8C PUSH2 0x1BB8 JUMP JUMPDEST SWAP1 POP SWAP1 JUMP JUMPDEST PUSH0 DUP1 PUSH2 0xA9B PUSH2 0x16F7 JUMP JUMPDEST SWAP1 POP PUSH2 0xABC DUP2 DUP6 DUP6 PUSH2 0xAAD DUP6 DUP10 PUSH2 0x14C0 JUMP JUMPDEST PUSH2 0xAB7 SWAP2 SWAP1 PUSH2 0x3ACE JUMP JUMPDEST PUSH2 0x16FE JUMP JUMPDEST PUSH1 0x1 SWAP2 POP POP SWAP3 SWAP2 POP POP JUMP JUMPDEST PUSH0 PUSH2 0xAD0 PUSH2 0x104A JUMP JUMPDEST PUSH6 0xFFFFFFFFFFFF AND DUP3 LT PUSH2 0xB19 JUMPI PUSH1 0x40 MLOAD PUSH32 0x8C379A000000000000000000000000000000000000000000000000000000000 DUP2 MSTORE PUSH1 0x4 ADD PUSH2 0xB10 SWAP1 PUSH2 0x3B4B JUMP JUMPDEST PUSH1 0x40 MLOAD DUP1 SWAP2 SUB SWAP1 REVERT JUMPDEST PUSH2 0xB5F PUSH1 0xB PUSH0 DUP6 PUSH20 0xFFFFFFFFFFFFFFFFFFFFFFFFFFFFFFFFFFFFFFFF AND PUSH20 0xFFFFFFFFFFFFFFFFFFFFFFFFFFFFFFFFFFFFFFFF AND DUP2 MSTORE PUSH1 0x20 ADD SWAP1 DUP2 MSTORE PUSH1 0x20 ADD PUSH0 KECCAK256 DUP4 PUSH2 0x1C6E JUMP JUMPDEST SWAP1 POP SWAP3 SWAP2 POP POP JUMP JUMPDEST PUSH2 0xB6F PUSH2 0x1DAB JUMP JUMPDEST PUSH2 0xB79 DUP3 DUP3 PUSH2 0x1E29 JUMP JUMPDEST POP POP JUMP JUMPDEST PUSH2 0xB8E PUSH2 0xB88 PUSH2 0x16F7 JUMP JUMPDEST DUP3 PUSH2 0x1E37 JUMP JUMPDEST POP JUMP JUMPDEST PUSH0 PUSH1 0xD SLOAD SWAP1 POP SWAP1 JUMP JUMPDEST PUSH1 0x60 NUMBER PUSH2 0xBA5 PUSH2 0x104A JUMP JUMPDEST PUSH6 0xFFFFFFFFFFFF AND EQ PUSH2 0xBED JUMPI PUSH1 0x40 MLOAD PUSH32 0x8C379A000000000000000000000000000000000000000000000000000000000 DUP2 MSTORE PUSH1 0x4 ADD PUSH2 0xBE4 SWAP1 PUSH2 0x3BB3 JUMP JUMPDEST PUSH1 0x40 MLOAD DUP1 SWAP2 SUB SWAP1 REVERT JUMPDEST PUSH1 0x40 MLOAD DUP1 PUSH1 0x40 ADD PUSH1 0x40 MSTORE DUP1 PUSH1 0x1D DUP2 MSTORE PUSH1 0x20 ADD PUSH32 0x6D6F64653D626C6F636B6E756D6265722666726F6D3D64656661756C74000000 DUP2 MSTORE POP SWAP1 POP SWAP1 JUMP JUMPDEST PUSH0 PUSH1 0xA PUSH0 DUP4 PUSH20 0xFFFFFFFFFFFFFFFFFFFFFFFFFFFFFFFFFFFFFFFF AND PUSH20 0xFFFFFFFFFFFFFFFFFFFFFFFFFFFFFFFFFFFFFFFF AND DUP2 MSTORE PUSH1 0x20 ADD SWAP1 DUP2 MSTORE PUSH1 0x20 ADD PUSH0 KECCAK256 PUSH0 SWAP1 SLOAD SWAP1 PUSH2 0x100 EXP SWAP1 DIV PUSH20 0xFFFFFFFFFFFFFFFFFFFFFFFFFFFFFFFFFFFFFFFF AND SWAP1 POP SWAP2 SWAP1 POP JUMP JUMPDEST PUSH2 0xC9E PUSH2 0xC98 PUSH2 0x16F7 JUMP JUMPDEST DUP3 PUSH2 0x1E45 JUMP JUMPDEST POP JUMP JUMPDEST PUSH2 0xCA9 PUSH2 0x1DAB JUMP JUMPDEST DUP1 PUSH1 0xD DUP2 SWAP1 SSTORE POP POP JUMP JUMPDEST PUSH0 DUP2 GT PUSH2 0xCF5 JUMPI PUSH1 0x40 MLOAD PUSH32 0x8C379A000000000000000000000000000000000000000000000000000000000 DUP2 MSTORE PUSH1 0x4 ADD PUSH2 0xCEC SWAP1 PUSH2 0x39DA JUMP JUMPDEST PUSH1 0x40 MLOAD DUP1 SWAP2 SUB SWAP1 REVERT JUMPDEST DUP1 PUSH2 0xCFF CALLER PUSH2 0xDFC JUMP JUMPDEST LT ISZERO PUSH2 0xD40 JUMPI PUSH1 0x40 MLOAD PUSH32 0x8C379A000000000000000000000000000000000000000000000000000000000 DUP2 MSTORE PUSH1 0x4 ADD PUSH2 0xD37 SWAP1 PUSH2 0x3C1B JUMP JUMPDEST PUSH1 0x40 MLOAD DUP1 SWAP2 SUB SWAP1 REVERT JUMPDEST PUSH2 0xD52 CALLER PUSH2 0xD4C PUSH2 0xFBE JUMP JUMPDEST DUP4 PUSH2 0x194C JUMP JUMPDEST PUSH0 PUSH1 0xD SLOAD DUP3 PUSH2 0xD61 SWAP2 SWAP1 PUSH2 0x3A25 JUMP JUMPDEST SWAP1 POP CALLER PUSH20 0xFFFFFFFFFFFFFFFFFFFFFFFFFFFFFFFFFFFFFFFF AND PUSH2 0x8FC DUP3 SWAP1 DUP2 ISZERO MUL SWAP1 PUSH1 0x40 MLOAD PUSH0 PUSH1 0x40 MLOAD DUP1 DUP4 SUB DUP2 DUP6 DUP9 DUP9 CALL SWAP4 POP POP POP POP ISZERO DUP1 ISZERO PUSH2 0xDA6 JUMPI RETURNDATASIZE PUSH0 DUP1 RETURNDATACOPY RETURNDATASIZE PUSH0 REVERT JUMPDEST POP POP POP JUMP JUMPDEST PUSH0 PUSH2 0xDF5 PUSH1 0xB PUSH0 DUP5 PUSH20 0xFFFFFFFFFFFFFFFFFFFFFFFFFFFFFFFFFFFFFFFF AND PUSH20 0xFFFFFFFFFFFFFFFFFFFFFFFFFFFFFFFFFFFFFFFF AND DUP2 MSTORE PUSH1 0x20 ADD SWAP1 DUP2 MSTORE PUSH1 0x20 ADD PUSH0 KECCAK256 DUP1 SLOAD SWAP1 POP PUSH2 0x1F5A JUMP JUMPDEST SWAP1 POP SWAP2 SWAP1 POP JUMP JUMPDEST PUSH0 DUP1 PUSH0 DUP4 PUSH20 0xFFFFFFFFFFFFFFFFFFFFFFFFFFFFFFFFFFFFFFFF AND PUSH20 0xFFFFFFFFFFFFFFFFFFFFFFFFFFFFFFFFFFFFFFFF AND DUP2 MSTORE PUSH1 0x20 ADD SWAP1 DUP2 MSTORE PUSH1 0x20 ADD PUSH0 KECCAK256 SLOAD SWAP1 POP SWAP2 SWAP1 POP JUMP JUMPDEST PUSH2 0xE49 PUSH2 0x1DAB JUMP JUMPDEST PUSH2 0xE52 PUSH0 PUSH2 0x1FAC JUMP JUMPDEST JUMP JUMPDEST PUSH2 0xE66 DUP3 PUSH2 0xE60 PUSH2 0x16F7 JUMP JUMPDEST DUP4 PUSH2 0x18C1 JUMP JUMPDEST PUSH2 0xE70 DUP3 DUP3 PUSH2 0x1E37 JUMP JUMPDEST POP POP JUMP JUMPDEST PUSH0 PUSH2 0xEBA PUSH1 0x8 PUSH0 DUP5 PUSH20 0xFFFFFFFFFFFFFFFFFFFFFFFFFFFFFFFFFFFFFFFF AND PUSH20 0xFFFFFFFFFFFFFFFFFFFFFFFFFFFFFFFFFFFFFFFF AND DUP2 MSTORE PUSH1 0x20 ADD SWAP1 DUP2 MSTORE PUSH1 0x20 ADD PUSH0 KECCAK256 PUSH2 0x206F JUMP JUMPDEST SWAP1 POP SWAP2 SWAP1 POP JUMP JUMPDEST PUSH0 PUSH1 0x60 DUP1 PUSH0 DUP1 PUSH0 PUSH1 0x60 PUSH2 0xEFE PUSH1 0x6 PUSH32 0x0 PUSH2 0x207B SWAP1 SWAP2 SWAP1 PUSH4 0xFFFFFFFF AND JUMP JUMPDEST PUSH2 0xF32 PUSH1 0x7 PUSH32 0x0 PUSH2 0x207B SWAP1 SWAP2 SWAP1 PUSH4 0xFFFFFFFF AND JUMP JUMPDEST CHAINID ADDRESS PUSH0 DUP1 SHL PUSH0 PUSH8 0xFFFFFFFFFFFFFFFF DUP2 GT ISZERO PUSH2 0xF51 JUMPI PUSH2 0xF50 PUSH2 0x3C39 JUMP JUMPDEST JUMPDEST PUSH1 0x40 MLOAD SWAP1 DUP1 DUP3 MSTORE DUP1 PUSH1 0x20 MUL PUSH1 0x20 ADD DUP3 ADD PUSH1 0x40 MSTORE DUP1 ISZERO PUSH2 0xF7F JUMPI DUP2 PUSH1 0x20 ADD PUSH1 0x20 DUP3 MUL DUP1 CALLDATASIZE DUP4 CALLDATACOPY DUP1 DUP3 ADD SWAP2 POP POP SWAP1 POP JUMPDEST POP PUSH32 0xF00000000000000000000000000000000000000000000000000000000000000 SWAP6 SWAP5 SWAP4 SWAP3 SWAP2 SWAP1 SWAP7 POP SWAP7 POP SWAP7 POP SWAP7 POP SWAP7 POP SWAP7 POP SWAP7 POP SWAP1 SWAP2 SWAP3 SWAP4 SWAP5 SWAP6 SWAP7 JUMP JUMPDEST PUSH0 PUSH1 0x5 PUSH0 SWAP1 SLOAD SWAP1 PUSH2 0x100 EXP SWAP1 DIV PUSH20 0xFFFFFFFFFFFFFFFFFFFFFFFFFFFFFFFFFFFFFFFF AND SWAP1 POP SWAP1 JUMP JUMPDEST PUSH0 PUSH2 0xFEF PUSH2 0x104A JUMP JUMPDEST PUSH6 0xFFFFFFFFFFFF AND DUP3 LT PUSH2 0x1038 JUMPI PUSH1 0x40 MLOAD PUSH32 0x8C379A000000000000000000000000000000000000000000000000000000000 DUP2 MSTORE PUSH1 0x4 ADD PUSH2 0x102F SWAP1 PUSH2 0x3B4B JUMP JUMPDEST PUSH1 0x40 MLOAD DUP1 SWAP2 SUB SWAP1 REVERT JUMPDEST PUSH2 0x1043 PUSH1 0xC DUP4 PUSH2 0x1C6E JUMP JUMPDEST SWAP1 POP SWAP2 SWAP1 POP JUMP JUMPDEST PUSH0 PUSH2 0x1054 NUMBER PUSH2 0x2128 JUMP JUMPDEST SWAP1 POP SWAP1 JUMP JUMPDEST PUSH1 0x60 PUSH1 0x4 DUP1 SLOAD PUSH2 0x1068 SWAP1 PUSH2 0x3960 JUMP JUMPDEST DUP1 PUSH1 0x1F ADD PUSH1 0x20 DUP1 SWAP2 DIV MUL PUSH1 0x20 ADD PUSH1 0x40 MLOAD SWAP1 DUP2 ADD PUSH1 0x40 MSTORE DUP1 SWAP3 SWAP2 SWAP1 DUP2 DUP2 MSTORE PUSH1 0x20 ADD DUP3 DUP1 SLOAD PUSH2 0x1094 SWAP1 PUSH2 0x3960 JUMP JUMPDEST DUP1 ISZERO PUSH2 0x10DF JUMPI DUP1 PUSH1 0x1F LT PUSH2 0x10B6 JUMPI PUSH2 0x100 DUP1 DUP4 SLOAD DIV MUL DUP4 MSTORE SWAP2 PUSH1 0x20 ADD SWAP2 PUSH2 0x10DF JUMP JUMPDEST DUP3 ADD SWAP2 SWAP1 PUSH0 MSTORE PUSH1 0x20 PUSH0 KECCAK256 SWAP1 JUMPDEST DUP2 SLOAD DUP2 MSTORE SWAP1 PUSH1 0x1 ADD SWAP1 PUSH1 0x20 ADD DUP1 DUP4 GT PUSH2 0x10C2 JUMPI DUP3 SWAP1 SUB PUSH1 0x1F AND DUP3 ADD SWAP2 JUMPDEST POP POP POP POP POP SWAP1 POP SWAP1 JUMP JUMPDEST PUSH0 DUP1 PUSH1 0xB PUSH0 DUP5 PUSH20 0xFFFFFFFFFFFFFFFFFFFFFFFFFFFFFFFFFFFFFFFF AND PUSH20 0xFFFFFFFFFFFFFFFFFFFFFFFFFFFFFFFFFFFFFFFF AND DUP2 MSTORE PUSH1 0x20 ADD SWAP1 DUP2 MSTORE PUSH1 0x20 ADD PUSH0 KECCAK256 DUP1 SLOAD SWAP1 POP SWAP1 POP PUSH0 DUP2 EQ PUSH2 0x11BF JUMPI PUSH1 0xB PUSH0 DUP5 PUSH20 0xFFFFFFFFFFFFFFFFFFFFFFFFFFFFFFFFFFFFFFFF AND PUSH20 0xFFFFFFFFFFFFFFFFFFFFFFFFFFFFFFFFFFFFFFFF AND DUP2 MSTORE PUSH1 0x20 ADD SWAP1 DUP2 MSTORE PUSH1 0x20 ADD PUSH0 KECCAK256 PUSH1 0x1 DUP3 SUB DUP2 SLOAD DUP2 LT PUSH2 0x1187 JUMPI PUSH2 0x1186 PUSH2 0x3C66 JUMP JUMPDEST JUMPDEST SWAP1 PUSH0 MSTORE PUSH1 0x20 PUSH0 KECCAK256 ADD PUSH0 ADD PUSH1 0x4 SWAP1 SLOAD SWAP1 PUSH2 0x100 EXP SWAP1 DIV PUSH28 0xFFFFFFFFFFFFFFFFFFFFFFFFFFFFFFFFFFFFFFFFFFFFFFFFFFFFFFFF AND PUSH2 0x11C1 JUMP JUMPDEST PUSH0 JUMPDEST PUSH28 0xFFFFFFFFFFFFFFFFFFFFFFFFFFFFFFFFFFFFFFFFFFFFFFFFFFFFFFFF AND SWAP2 POP POP SWAP2 SWAP1 POP JUMP JUMPDEST PUSH0 DUP1 PUSH2 0x11F1 PUSH2 0x16F7 JUMP JUMPDEST SWAP1 POP PUSH0 PUSH2 0x11FE DUP3 DUP7 PUSH2 0x14C0 JUMP JUMPDEST SWAP1 POP DUP4 DUP2 LT ISZERO PUSH2 0x1243 JUMPI PUSH1 0x40 MLOAD PUSH32 0x8C379A000000000000000000000000000000000000000000000000000000000 DUP2 MSTORE PUSH1 0x4 ADD PUSH2 0x123A SWAP1 PUSH2 0x3D03 JUMP JUMPDEST PUSH1 0x40 MLOAD DUP1 SWAP2 SUB SWAP1 REVERT JUMPDEST PUSH2 0x1250 DUP3 DUP7 DUP7 DUP5 SUB PUSH2 0x16FE JUMP JUMPDEST PUSH1 0x1 SWAP3 POP POP POP SWAP3 SWAP2 POP POP JUMP JUMPDEST PUSH0 DUP1 PUSH2 0x1266 PUSH2 0x16F7 JUMP JUMPDEST SWAP1 POP PUSH2 0x1273 DUP2 DUP6 DUP6 PUSH2 0x194C JUMP JUMPDEST PUSH1 0x1 SWAP2 POP POP SWAP3 SWAP2 POP POP JUMP JUMPDEST DUP4 TIMESTAMP GT ISZERO PUSH2 0x12C1 JUMPI PUSH1 0x40 MLOAD PUSH32 0x8C379A000000000000000000000000000000000000000000000000000000000 DUP2 MSTORE PUSH1 0x4 ADD PUSH2 0x12B8 SWAP1 PUSH2 0x3D6B JUMP JUMPDEST PUSH1 0x40 MLOAD DUP1 SWAP2 SUB SWAP1 REVERT JUMPDEST PUSH0 PUSH2 0x1322 PUSH2 0x131A PUSH32 0xE48329057BFD03D55E49B547132E39CFFD9C1820AD7B9D4C5307691425D15ADF DUP10 DUP10 DUP10 PUSH1 0x40 MLOAD PUSH1 0x20 ADD PUSH2 0x12FF SWAP5 SWAP4 SWAP3 SWAP2 SWAP1 PUSH2 0x3D89 JUMP JUMPDEST PUSH1 0x40 MLOAD PUSH1 0x20 DUP2 DUP4 SUB SUB DUP2 MSTORE SWAP1 PUSH1 0x40 MSTORE DUP1 MLOAD SWAP1 PUSH1 0x20 ADD KECCAK256 PUSH2 0x217C JUMP JUMPDEST DUP6 DUP6 DUP6 PUSH2 0x2195 JUMP JUMPDEST SWAP1 POP PUSH2 0x132D DUP2 PUSH2 0x21BE JUMP JUMPDEST DUP7 EQ PUSH2 0x136E JUMPI PUSH1 0x40 MLOAD PUSH32 0x8C379A000000000000000000000000000000000000000000000000000000000 DUP2 MSTORE PUSH1 0x4 ADD PUSH2 0x1365 SWAP1 PUSH2 0x3E16 JUMP JUMPDEST PUSH1 0x40 MLOAD DUP1 SWAP2 SUB SWAP1 REVERT JUMPDEST PUSH2 0x1378 DUP2 DUP9 PUSH2 0x1E45 JUMP JUMPDEST POP POP POP POP POP POP POP JUMP JUMPDEST DUP4 TIMESTAMP GT ISZERO PUSH2 0x13C4 JUMPI PUSH1 0x40 MLOAD PUSH32 0x8C379A000000000000000000000000000000000000000000000000000000000 DUP2 MSTORE PUSH1 0x4 ADD PUSH2 0x13BB SWAP1 PUSH2 0x3E7E JUMP JUMPDEST PUSH1 0x40 MLOAD DUP1 SWAP2 SUB SWAP1 REVERT JUMPDEST PUSH0 PUSH32 0x6E71EDAE12B1B97F4D1F60370FEF10105FA2FAAE0126114A169C64845D6126C9 DUP9 DUP9 DUP9 PUSH2 0x13F2 DUP13 PUSH2 0x21BE JUMP JUMPDEST DUP10 PUSH1 0x40 MLOAD PUSH1 0x20 ADD PUSH2 0x1408 SWAP7 SWAP6 SWAP5 SWAP4 SWAP3 SWAP2 SWAP1 PUSH2 0x3E9C JUMP JUMPDEST PUSH1 0x40 MLOAD PUSH1 0x20 DUP2 DUP4 SUB SUB DUP2 MSTORE SWAP1 PUSH1 0x40 MSTORE DUP1 MLOAD SWAP1 PUSH1 0x20 ADD KECCAK256 SWAP1 POP PUSH0 PUSH2 0x142A DUP3 PUSH2 0x217C JUMP JUMPDEST SWAP1 POP PUSH0 PUSH2 0x1439 DUP3 DUP8 DUP8 DUP8 PUSH2 0x2195 JUMP JUMPDEST SWAP1 POP DUP10 PUSH20 0xFFFFFFFFFFFFFFFFFFFFFFFFFFFFFFFFFFFFFFFF AND DUP2 PUSH20 0xFFFFFFFFFFFFFFFFFFFFFFFFFFFFFFFFFFFFFFFF AND EQ PUSH2 0x14A9 JUMPI PUSH1 0x40 MLOAD PUSH32 0x8C379A000000000000000000000000000000000000000000000000000000000 DUP2 MSTORE PUSH1 0x4 ADD PUSH2 0x14A0 SWAP1 PUSH2 0x3F45 JUMP JUMPDEST PUSH1 0x40 MLOAD DUP1 SWAP2 SUB SWAP1 REVERT JUMPDEST PUSH2 0x14B4 DUP11 DUP11 DUP11 PUSH2 0x16FE JUMP JUMPDEST POP POP POP POP POP POP POP POP POP POP JUMP JUMPDEST PUSH0 PUSH1 0x1 PUSH0 DUP5 PUSH20 0xFFFFFFFFFFFFFFFFFFFFFFFFFFFFFFFFFFFFFFFF AND PUSH20 0xFFFFFFFFFFFFFFFFFFFFFFFFFFFFFFFFFFFFFFFF AND DUP2 MSTORE PUSH1 0x20 ADD SWAP1 DUP2 MSTORE PUSH1 0x20 ADD PUSH0 KECCAK256 PUSH0 DUP4 PUSH20 0xFFFFFFFFFFFFFFFFFFFFFFFFFFFFFFFFFFFFFFFF AND PUSH20 0xFFFFFFFFFFFFFFFFFFFFFFFFFFFFFFFFFFFFFFFF AND DUP2 MSTORE PUSH1 0x20 ADD SWAP1 DUP2 MSTORE PUSH1 0x20 ADD PUSH0 KECCAK256 SLOAD SWAP1 POP SWAP3 SWAP2 POP POP JUMP JUMPDEST PUSH2 0x154A PUSH2 0x3162 JUMP JUMPDEST PUSH1 0xB PUSH0 DUP5 PUSH20 0xFFFFFFFFFFFFFFFFFFFFFFFFFFFFFFFFFFFFFFFF AND PUSH20 0xFFFFFFFFFFFFFFFFFFFFFFFFFFFFFFFFFFFFFFFF AND DUP2 MSTORE PUSH1 0x20 ADD SWAP1 DUP2 MSTORE PUSH1 0x20 ADD PUSH0 KECCAK256 DUP3 PUSH4 0xFFFFFFFF AND DUP2 SLOAD DUP2 LT PUSH2 0x159F JUMPI PUSH2 0x159E PUSH2 0x3C66 JUMP JUMPDEST JUMPDEST SWAP1 PUSH0 MSTORE PUSH1 0x20 PUSH0 KECCAK256 ADD PUSH1 0x40 MLOAD DUP1 PUSH1 0x40 ADD PUSH1 0x40 MSTORE SWAP1 DUP2 PUSH0 DUP3 ADD PUSH0 SWAP1 SLOAD SWAP1 PUSH2 0x100 EXP SWAP1 DIV PUSH4 0xFFFFFFFF AND PUSH4 0xFFFFFFFF AND PUSH4 0xFFFFFFFF AND DUP2 MSTORE PUSH1 0x20 ADD PUSH0 DUP3 ADD PUSH1 0x4 SWAP1 SLOAD SWAP1 PUSH2 0x100 EXP SWAP1 DIV PUSH28 0xFFFFFFFFFFFFFFFFFFFFFFFFFFFFFFFFFFFFFFFFFFFFFFFFFFFFFFFF AND PUSH28 0xFFFFFFFFFFFFFFFFFFFFFFFFFFFFFFFFFFFFFFFFFFFFFFFFFFFFFFFF AND PUSH28 0xFFFFFFFFFFFFFFFFFFFFFFFFFFFFFFFFFFFFFFFFFFFFFFFFFFFFFFFF AND DUP2 MSTORE POP POP SWAP1 POP SWAP3 SWAP2 POP POP JUMP JUMPDEST PUSH2 0x1653 PUSH2 0x1DAB JUMP JUMPDEST PUSH0 PUSH20 0xFFFFFFFFFFFFFFFFFFFFFFFFFFFFFFFFFFFFFFFF AND DUP2 PUSH20 0xFFFFFFFFFFFFFFFFFFFFFFFFFFFFFFFFFFFFFFFF AND SUB PUSH2 0x16C1 JUMPI PUSH1 0x40 MLOAD PUSH32 0x8C379A000000000000000000000000000000000000000000000000000000000 DUP2 MSTORE PUSH1 0x4 ADD PUSH2 0x16B8 SWAP1 PUSH2 0x3FD3 JUMP JUMPDEST PUSH1 0x40 MLOAD DUP1 SWAP2 SUB SWAP1 REVERT JUMPDEST PUSH2 0x16CA DUP2 PUSH2 0x1FAC JUMP JUMPDEST POP JUMP JUMPDEST PUSH0 DUP2 DUP4 PUSH2 0x16DA SWAP2 SWAP1 PUSH2 0x3ACE JUMP JUMPDEST SWAP1 POP SWAP3 SWAP2 POP POP JUMP JUMPDEST PUSH0 DUP2 DUP4 PUSH2 0x16EF SWAP2 SWAP1 PUSH2 0x3FF1 JUMP JUMPDEST SWAP1 POP SWAP3 SWAP2 POP POP JUMP JUMPDEST PUSH0 CALLER SWAP1 POP SWAP1 JUMP JUMPDEST PUSH0 PUSH20 0xFFFFFFFFFFFFFFFFFFFFFFFFFFFFFFFFFFFFFFFF AND DUP4 PUSH20 0xFFFFFFFFFFFFFFFFFFFFFFFFFFFFFFFFFFFFFFFF AND SUB PUSH2 0x176C JUMPI PUSH1 0x40 MLOAD PUSH32 0x8C379A000000000000000000000000000000000000000000000000000000000 DUP2 MSTORE PUSH1 0x4 ADD PUSH2 0x1763 SWAP1 PUSH2 0x4094 JUMP JUMPDEST PUSH1 0x40 MLOAD DUP1 SWAP2 SUB SWAP1 REVERT JUMPDEST PUSH0 PUSH20 0xFFFFFFFFFFFFFFFFFFFFFFFFFFFFFFFFFFFFFFFF AND DUP3 PUSH20 0xFFFFFFFFFFFFFFFFFFFFFFFFFFFFFFFFFFFFFFFF AND SUB PUSH2 0x17DA JUMPI PUSH1 0x40 MLOAD PUSH32 0x8C379A000000000000000000000000000000000000000000000000000000000 DUP2 MSTORE PUSH1 0x4 ADD PUSH2 0x17D1 SWAP1 PUSH2 0x4122 JUMP JUMPDEST PUSH1 0x40 MLOAD DUP1 SWAP2 SUB SWAP1 REVERT JUMPDEST DUP1 PUSH1 0x1 PUSH0 DUP6 PUSH20 0xFFFFFFFFFFFFFFFFFFFFFFFFFFFFFFFFFFFFFFFF AND PUSH20 0xFFFFFFFFFFFFFFFFFFFFFFFFFFFFFFFFFFFFFFFF AND DUP2 MSTORE PUSH1 0x20 ADD SWAP1 DUP2 MSTORE PUSH1 0x20 ADD PUSH0 KECCAK256 PUSH0 DUP5 PUSH20 0xFFFFFFFFFFFFFFFFFFFFFFFFFFFFFFFFFFFFFFFF AND PUSH20 0xFFFFFFFFFFFFFFFFFFFFFFFFFFFFFFFFFFFFFFFF AND DUP2 MSTORE PUSH1 0x20 ADD SWAP1 DUP2 MSTORE PUSH1 0x20 ADD PUSH0 KECCAK256 DUP2 SWAP1 SSTORE POP DUP2 PUSH20 0xFFFFFFFFFFFFFFFFFFFFFFFFFFFFFFFFFFFFFFFF AND DUP4 PUSH20 0xFFFFFFFFFFFFFFFFFFFFFFFFFFFFFFFFFFFFFFFF AND PUSH32 0x8C5BE1E5EBEC7D5BD14F71427D1E84F3DD0314C0F7B2291E5B200AC8C7C3B925 DUP4 PUSH1 0x40 MLOAD PUSH2 0x18B4 SWAP2 SWAP1 PUSH2 0x3359 JUMP JUMPDEST PUSH1 0x40 MLOAD DUP1 SWAP2 SUB SWAP1 LOG3 POP POP POP JUMP JUMPDEST PUSH0 PUSH2 0x18CC DUP5 DUP5 PUSH2 0x14C0 JUMP JUMPDEST SWAP1 POP PUSH32 0xFFFFFFFFFFFFFFFFFFFFFFFFFFFFFFFFFFFFFFFFFFFFFFFFFFFFFFFFFFFFFFFF DUP2 EQ PUSH2 0x1946 JUMPI DUP2 DUP2 LT ISZERO PUSH2 0x1938 JUMPI PUSH1 0x40 MLOAD PUSH32 0x8C379A000000000000000000000000000000000000000000000000000000000 DUP2 MSTORE PUSH1 0x4 ADD PUSH2 0x192F SWAP1 PUSH2 0x418A JUMP JUMPDEST PUSH1 0x40 MLOAD DUP1 SWAP2 SUB SWAP1 REVERT JUMPDEST PUSH2 0x1945 DUP5 DUP5 DUP5 DUP5 SUB PUSH2 0x16FE JUMP JUMPDEST JUMPDEST POP POP POP POP JUMP JUMPDEST PUSH0 PUSH20 0xFFFFFFFFFFFFFFFFFFFFFFFFFFFFFFFFFFFFFFFF AND DUP4 PUSH20 0xFFFFFFFFFFFFFFFFFFFFFFFFFFFFFFFFFFFFFFFF AND SUB PUSH2 0x19BA JUMPI PUSH1 0x40 MLOAD PUSH32 0x8C379A000000000000000000000000000000000000000000000000000000000 DUP2 MSTORE PUSH1 0x4 ADD PUSH2 0x19B1 SWAP1 PUSH2 0x4218 JUMP JUMPDEST PUSH1 0x40 MLOAD DUP1 SWAP2 SUB SWAP1 REVERT JUMPDEST PUSH0 PUSH20 0xFFFFFFFFFFFFFFFFFFFFFFFFFFFFFFFFFFFFFFFF AND DUP3 PUSH20 0xFFFFFFFFFFFFFFFFFFFFFFFFFFFFFFFFFFFFFFFF AND SUB PUSH2 0x1A28 JUMPI PUSH1 0x40 MLOAD PUSH32 0x8C379A000000000000000000000000000000000000000000000000000000000 DUP2 MSTORE PUSH1 0x4 ADD PUSH2 0x1A1F SWAP1 PUSH2 0x42A6 JUMP JUMPDEST PUSH1 0x40 MLOAD DUP1 SWAP2 SUB SWAP1 REVERT JUMPDEST PUSH2 0x1A33 DUP4 DUP4 DUP4 PUSH2 0x2219 JUMP JUMPDEST PUSH0 DUP1 PUSH0 DUP6 PUSH20 0xFFFFFFFFFFFFFFFFFFFFFFFFFFFFFFFFFFFFFFFF AND PUSH20 0xFFFFFFFFFFFFFFFFFFFFFFFFFFFFFFFFFFFFFFFF AND DUP2 MSTORE PUSH1 0x20 ADD SWAP1 DUP2 MSTORE PUSH1 0x20 ADD PUSH0 KECCAK256 SLOAD SWAP1 POP DUP2 DUP2 LT ISZERO PUSH2 0x1AB6 JUMPI PUSH1 0x40 MLOAD PUSH32 0x8C379A000000000000000000000000000000000000000000000000000000000 DUP2 MSTORE PUSH1 0x4 ADD PUSH2 0x1AAD SWAP1 PUSH2 0x4334 JUMP JUMPDEST PUSH1 0x40 MLOAD DUP1 SWAP2 SUB SWAP1 REVERT JUMPDEST DUP2 DUP2 SUB PUSH0 DUP1 DUP7 PUSH20 0xFFFFFFFFFFFFFFFFFFFFFFFFFFFFFFFFFFFFFFFF AND PUSH20 0xFFFFFFFFFFFFFFFFFFFFFFFFFFFFFFFFFFFFFFFF AND DUP2 MSTORE PUSH1 0x20 ADD SWAP1 DUP2 MSTORE PUSH1 0x20 ADD PUSH0 KECCAK256 DUP2 SWAP1 SSTORE POP DUP2 PUSH0 DUP1 DUP6 PUSH20 0xFFFFFFFFFFFFFFFFFFFFFFFFFFFFFFFFFFFFFFFF AND PUSH20 0xFFFFFFFFFFFFFFFFFFFFFFFFFFFFFFFFFFFFFFFF AND DUP2 MSTORE PUSH1 0x20 ADD SWAP1 DUP2 MSTORE PUSH1 0x20 ADD PUSH0 KECCAK256 PUSH0 DUP3 DUP3 SLOAD ADD SWAP3 POP POP DUP2 SWAP1 SSTORE POP DUP3 PUSH20 0xFFFFFFFFFFFFFFFFFFFFFFFFFFFFFFFFFFFFFFFF AND DUP5 PUSH20 0xFFFFFFFFFFFFFFFFFFFFFFFFFFFFFFFFFFFFFFFF AND PUSH32 0xDDF252AD1BE2C89B69C2B068FC378DAA952BA7F163C4A11628F55A4DF523B3EF DUP5 PUSH1 0x40 MLOAD PUSH2 0x1B9F SWAP2 SWAP1 PUSH2 0x3359 JUMP JUMPDEST PUSH1 0x40 MLOAD DUP1 SWAP2 SUB SWAP1 LOG3 PUSH2 0x1BB2 DUP5 DUP5 DUP5 PUSH2 0x221E JUMP JUMPDEST POP POP POP POP JUMP JUMPDEST PUSH0 PUSH32 0x0 PUSH20 0xFFFFFFFFFFFFFFFFFFFFFFFFFFFFFFFFFFFFFFFF AND ADDRESS PUSH20 0xFFFFFFFFFFFFFFFFFFFFFFFFFFFFFFFFFFFFFFFF AND EQ DUP1 ISZERO PUSH2 0x1C33 JUMPI POP PUSH32 0x0 CHAINID EQ JUMPDEST ISZERO PUSH2 0x1C60 JUMPI PUSH32 0x0 SWAP1 POP PUSH2 0x1C6B JUMP JUMPDEST PUSH2 0x1C68 PUSH2 0x222E JUMP JUMPDEST SWAP1 POP JUMPDEST SWAP1 JUMP JUMPDEST PUSH0 DUP1 DUP4 DUP1 SLOAD SWAP1 POP SWAP1 POP PUSH0 DUP1 DUP3 SWAP1 POP PUSH1 0x5 DUP4 GT ISZERO PUSH2 0x1CDF JUMPI PUSH0 PUSH2 0x1C8F DUP5 PUSH2 0x22C3 JUMP JUMPDEST DUP5 PUSH2 0x1C9A SWAP2 SWAP1 PUSH2 0x3FF1 JUMP JUMPDEST SWAP1 POP DUP6 PUSH2 0x1CA7 DUP9 DUP4 PUSH2 0x23B9 JUMP JUMPDEST PUSH0 ADD PUSH0 SWAP1 SLOAD SWAP1 PUSH2 0x100 EXP SWAP1 DIV PUSH4 0xFFFFFFFF AND PUSH4 0xFFFFFFFF AND GT ISZERO PUSH2 0x1CCD JUMPI DUP1 SWAP2 POP PUSH2 0x1CDD JUMP JUMPDEST PUSH1 0x1 DUP2 PUSH2 0x1CDA SWAP2 SWAP1 PUSH2 0x3ACE JUMP JUMPDEST SWAP3 POP JUMPDEST POP JUMPDEST JUMPDEST DUP1 DUP3 LT ISZERO PUSH2 0x1D3C JUMPI PUSH0 PUSH2 0x1CF3 DUP4 DUP4 PUSH2 0x23CB JUMP JUMPDEST SWAP1 POP DUP6 PUSH2 0x1D00 DUP9 DUP4 PUSH2 0x23B9 JUMP JUMPDEST PUSH0 ADD PUSH0 SWAP1 SLOAD SWAP1 PUSH2 0x100 EXP SWAP1 DIV PUSH4 0xFFFFFFFF AND PUSH4 0xFFFFFFFF AND GT ISZERO PUSH2 0x1D26 JUMPI DUP1 SWAP2 POP PUSH2 0x1D36 JUMP JUMPDEST PUSH1 0x1 DUP2 PUSH2 0x1D33 SWAP2 SWAP1 PUSH2 0x3ACE JUMP JUMPDEST SWAP3 POP JUMPDEST POP PUSH2 0x1CE0 JUMP JUMPDEST PUSH0 DUP2 EQ PUSH2 0x1D80 JUMPI PUSH2 0x1D50 DUP7 PUSH1 0x1 DUP4 SUB PUSH2 0x23B9 JUMP JUMPDEST PUSH0 ADD PUSH1 0x4 SWAP1 SLOAD SWAP1 PUSH2 0x100 EXP SWAP1 DIV PUSH28 0xFFFFFFFFFFFFFFFFFFFFFFFFFFFFFFFFFFFFFFFFFFFFFFFFFFFFFFFF AND PUSH2 0x1D82 JUMP JUMPDEST PUSH0 JUMPDEST PUSH28 0xFFFFFFFFFFFFFFFFFFFFFFFFFFFFFFFFFFFFFFFFFFFFFFFFFFFFFFFF AND SWAP4 POP POP POP POP SWAP3 SWAP2 POP POP JUMP JUMPDEST PUSH2 0x1DB3 PUSH2 0x16F7 JUMP JUMPDEST PUSH20 0xFFFFFFFFFFFFFFFFFFFFFFFFFFFFFFFFFFFFFFFF AND PUSH2 0x1DD1 PUSH2 0xFBE JUMP JUMPDEST PUSH20 0xFFFFFFFFFFFFFFFFFFFFFFFFFFFFFFFFFFFFFFFF AND EQ PUSH2 0x1E27 JUMPI PUSH1 0x40 MLOAD PUSH32 0x8C379A000000000000000000000000000000000000000000000000000000000 DUP2 MSTORE PUSH1 0x4 ADD PUSH2 0x1E1E SWAP1 PUSH2 0x439C JUMP JUMPDEST PUSH1 0x40 MLOAD DUP1 SWAP2 SUB SWAP1 REVERT JUMPDEST JUMP JUMPDEST PUSH2 0x1E33 DUP3 DUP3 PUSH2 0x23F0 JUMP JUMPDEST POP POP JUMP JUMPDEST PUSH2 0x1E41 DUP3 DUP3 PUSH2 0x247D JUMP JUMPDEST POP POP JUMP JUMPDEST PUSH0 PUSH2 0x1E4F DUP4 PUSH2 0xC28 JUMP JUMPDEST SWAP1 POP PUSH0 PUSH2 0x1E5B DUP5 PUSH2 0xDFC JUMP JUMPDEST SWAP1 POP DUP3 PUSH1 0xA PUSH0 DUP7 PUSH20 0xFFFFFFFFFFFFFFFFFFFFFFFFFFFFFFFFFFFFFFFF AND PUSH20 0xFFFFFFFFFFFFFFFFFFFFFFFFFFFFFFFFFFFFFFFF AND DUP2 MSTORE PUSH1 0x20 ADD SWAP1 DUP2 MSTORE PUSH1 0x20 ADD PUSH0 KECCAK256 PUSH0 PUSH2 0x100 EXP DUP2 SLOAD DUP2 PUSH20 0xFFFFFFFFFFFFFFFFFFFFFFFFFFFFFFFFFFFFFFFF MUL NOT AND SWAP1 DUP4 PUSH20 0xFFFFFFFFFFFFFFFFFFFFFFFFFFFFFFFFFFFFFFFF AND MUL OR SWAP1 SSTORE POP DUP3 PUSH20 0xFFFFFFFFFFFFFFFFFFFFFFFFFFFFFFFFFFFFFFFF AND DUP3 PUSH20 0xFFFFFFFFFFFFFFFFFFFFFFFFFFFFFFFFFFFFFFFF AND DUP6 PUSH20 0xFFFFFFFFFFFFFFFFFFFFFFFFFFFFFFFFFFFFFFFF AND PUSH32 0x3134E8A2E6D97E929A7E54011EA5485D7D196DD5F0BA4D4EF95803E8E3FC257F PUSH1 0x40 MLOAD PUSH1 0x40 MLOAD DUP1 SWAP2 SUB SWAP1 LOG4 PUSH2 0x1F54 DUP3 DUP5 DUP4 PUSH2 0x249B JUMP JUMPDEST POP POP POP POP JUMP JUMPDEST PUSH0 PUSH4 0xFFFFFFFF DUP1 AND DUP3 GT ISZERO PUSH2 0x1FA4 JUMPI PUSH1 0x40 MLOAD PUSH32 0x8C379A000000000000000000000000000000000000000000000000000000000 DUP2 MSTORE PUSH1 0x4 ADD PUSH2 0x1F9B SWAP1 PUSH2 0x442A JUMP JUMPDEST PUSH1 0x40 MLOAD DUP1 SWAP2 SUB SWAP1 REVERT JUMPDEST DUP2 SWAP1 POP SWAP2 SWAP1 POP JUMP JUMPDEST PUSH0 PUSH1 0x5 PUSH0 SWAP1 SLOAD SWAP1 PUSH2 0x100 EXP SWAP1 DIV PUSH20 0xFFFFFFFFFFFFFFFFFFFFFFFFFFFFFFFFFFFFFFFF AND SWAP1 POP DUP2 PUSH1 0x5 PUSH0 PUSH2 0x100 EXP DUP2 SLOAD DUP2 PUSH20 0xFFFFFFFFFFFFFFFFFFFFFFFFFFFFFFFFFFFFFFFF MUL NOT AND SWAP1 DUP4 PUSH20 0xFFFFFFFFFFFFFFFFFFFFFFFFFFFFFFFFFFFFFFFF AND MUL OR SWAP1 SSTORE POP DUP2 PUSH20 0xFFFFFFFFFFFFFFFFFFFFFFFFFFFFFFFFFFFFFFFF AND DUP2 PUSH20 0xFFFFFFFFFFFFFFFFFFFFFFFFFFFFFFFFFFFFFFFF AND PUSH32 0x8BE0079C531659141344CD1FD0A4F28419497F9722A3DAAFE3B4186F6B6457E0 PUSH1 0x40 MLOAD PUSH1 0x40 MLOAD DUP1 SWAP2 SUB SWAP1 LOG3 POP POP JUMP JUMPDEST PUSH0 DUP2 PUSH0 ADD SLOAD SWAP1 POP SWAP2 SWAP1 POP JUMP JUMPDEST PUSH1 0x60 PUSH1 0xFF PUSH0 SHL DUP4 EQ PUSH2 0x2097 JUMPI PUSH2 0x2090 DUP4 PUSH2 0x268B JUMP JUMPDEST SWAP1 POP PUSH2 0x2122 JUMP JUMPDEST DUP2 DUP1 SLOAD PUSH2 0x20A3 SWAP1 PUSH2 0x3960 JUMP JUMPDEST DUP1 PUSH1 0x1F ADD PUSH1 0x20 DUP1 SWAP2 DIV MUL PUSH1 0x20 ADD PUSH1 0x40 MLOAD SWAP1 DUP2 ADD PUSH1 0x40 MSTORE DUP1 SWAP3 SWAP2 SWAP1 DUP2 DUP2 MSTORE PUSH1 0x20 ADD DUP3 DUP1 SLOAD PUSH2 0x20CF SWAP1 PUSH2 0x3960 JUMP JUMPDEST DUP1 ISZERO PUSH2 0x211A JUMPI DUP1 PUSH1 0x1F LT PUSH2 0x20F1 JUMPI PUSH2 0x100 DUP1 DUP4 SLOAD DIV MUL DUP4 MSTORE SWAP2 PUSH1 0x20 ADD SWAP2 PUSH2 0x211A JUMP JUMPDEST DUP3 ADD SWAP2 SWAP1 PUSH0 MSTORE PUSH1 0x20 PUSH0 KECCAK256 SWAP1 JUMPDEST DUP2 SLOAD DUP2 MSTORE SWAP1 PUSH1 0x1 ADD SWAP1 PUSH1 0x20 ADD DUP1 DUP4 GT PUSH2 0x20FD JUMPI DUP3 SWAP1 SUB PUSH1 0x1F AND DUP3 ADD SWAP2 JUMPDEST POP POP POP POP POP SWAP1 POP JUMPDEST SWAP3 SWAP2 POP POP JUMP JUMPDEST PUSH0 PUSH6 0xFFFFFFFFFFFF DUP1 AND DUP3 GT ISZERO PUSH2 0x2174 JUMPI PUSH1 0x40 MLOAD PUSH32 0x8C379A000000000000000000000000000000000000000000000000000000000 DUP2 MSTORE PUSH1 0x4 ADD PUSH2 0x216B SWAP1 PUSH2 0x44B8 JUMP JUMPDEST PUSH1 0x40 MLOAD DUP1 SWAP2 SUB SWAP1 REVERT JUMPDEST DUP2 SWAP1 POP SWAP2 SWAP1 POP JUMP JUMPDEST PUSH0 PUSH2 0x218E PUSH2 0x2188 PUSH2 0x1BB8 JUMP JUMPDEST DUP4 PUSH2 0x26FD JUMP JUMPDEST SWAP1 POP SWAP2 SWAP1 POP JUMP JUMPDEST PUSH0 DUP1 PUSH0 PUSH2 0x21A4 DUP8 DUP8 DUP8 DUP8 PUSH2 0x273D JUMP JUMPDEST SWAP2 POP SWAP2 POP PUSH2 0x21B1 DUP2 PUSH2 0x2815 JUMP JUMPDEST DUP2 SWAP3 POP POP POP SWAP5 SWAP4 POP POP POP POP JUMP JUMPDEST PUSH0 DUP1 PUSH1 0x8 PUSH0 DUP5 PUSH20 0xFFFFFFFFFFFFFFFFFFFFFFFFFFFFFFFFFFFFFFFF AND PUSH20 0xFFFFFFFFFFFFFFFFFFFFFFFFFFFFFFFFFFFFFFFF AND DUP2 MSTORE PUSH1 0x20 ADD SWAP1 DUP2 MSTORE PUSH1 0x20 ADD PUSH0 KECCAK256 SWAP1 POP PUSH2 0x2208 DUP2 PUSH2 0x206F JUMP JUMPDEST SWAP2 POP PUSH2 0x2213 DUP2 PUSH2 0x297A JUMP JUMPDEST POP SWAP2 SWAP1 POP JUMP JUMPDEST POP POP POP JUMP JUMPDEST PUSH2 0x2229 DUP4 DUP4 DUP4 PUSH2 0x298E JUMP JUMPDEST POP POP POP JUMP JUMPDEST PUSH0 PUSH32 0x8B73C3C69BB8FE3D512ECC4CF759CC79239F7B179B0FFACAA9A75D522B39400F PUSH32 0x0 PUSH32 0x0 CHAINID ADDRESS PUSH1 0x40 MLOAD PUSH1 0x20 ADD PUSH2 0x22A8 SWAP6 SWAP5 SWAP4 SWAP3 SWAP2 SWAP1 PUSH2 0x44D6 JUMP JUMPDEST PUSH1 0x40 MLOAD PUSH1 0x20 DUP2 DUP4 SUB SUB DUP2 MSTORE SWAP1 PUSH1 0x40 MSTORE DUP1 MLOAD SWAP1 PUSH1 0x20 ADD KECCAK256 SWAP1 POP SWAP1 JUMP JUMPDEST PUSH0 DUP1 DUP3 SUB PUSH2 0x22D3 JUMPI PUSH0 SWAP1 POP PUSH2 0x23B4 JUMP JUMPDEST PUSH0 PUSH1 0x1 PUSH2 0x22DF DUP5 PUSH2 0x29B9 JUMP JUMPDEST SWAP1 SHR PUSH1 0x1 SWAP1 SHL SWAP1 POP PUSH1 0x1 DUP2 DUP5 DUP2 PUSH2 0x22F9 JUMPI PUSH2 0x22F8 PUSH2 0x4527 JUMP JUMPDEST JUMPDEST DIV DUP3 ADD SWAP1 SHR SWAP1 POP PUSH1 0x1 DUP2 DUP5 DUP2 PUSH2 0x2312 JUMPI PUSH2 0x2311 PUSH2 0x4527 JUMP JUMPDEST JUMPDEST DIV DUP3 ADD SWAP1 SHR SWAP1 POP PUSH1 0x1 DUP2 DUP5 DUP2 PUSH2 0x232B JUMPI PUSH2 0x232A PUSH2 0x4527 JUMP JUMPDEST JUMPDEST DIV DUP3 ADD SWAP1 SHR SWAP1 POP PUSH1 0x1 DUP2 DUP5 DUP2 PUSH2 0x2344 JUMPI PUSH2 0x2343 PUSH2 0x4527 JUMP JUMPDEST JUMPDEST DIV DUP3 ADD SWAP1 SHR SWAP1 POP PUSH1 0x1 DUP2 DUP5 DUP2 PUSH2 0x235D JUMPI PUSH2 0x235C PUSH2 0x4527 JUMP JUMPDEST JUMPDEST DIV DUP3 ADD SWAP1 SHR SWAP1 POP PUSH1 0x1 DUP2 DUP5 DUP2 PUSH2 0x2376 JUMPI PUSH2 0x2375 PUSH2 0x4527 JUMP JUMPDEST JUMPDEST DIV DUP3 ADD SWAP1 SHR SWAP1 POP PUSH1 0x1 DUP2 DUP5 DUP2 PUSH2 0x238F JUMPI PUSH2 0x238E PUSH2 0x4527 JUMP JUMPDEST JUMPDEST DIV DUP3 ADD SWAP1 SHR SWAP1 POP PUSH2 0x23B0 DUP2 DUP3 DUP6 DUP2 PUSH2 0x23AA JUMPI PUSH2 0x23A9 PUSH2 0x4527 JUMP JUMPDEST JUMPDEST DIV PUSH2 0x2A90 JUMP JUMPDEST SWAP2 POP POP JUMPDEST SWAP2 SWAP1 POP JUMP JUMPDEST PUSH0 DUP3 PUSH0 MSTORE DUP2 PUSH1 0x20 PUSH0 KECCAK256 ADD SWAP1 POP SWAP3 SWAP2 POP POP JUMP JUMPDEST PUSH0 PUSH1 0x2 DUP3 DUP5 XOR PUSH2 0x23DB SWAP2 SWAP1 PUSH2 0x4554 JUMP JUMPDEST DUP3 DUP5 AND PUSH2 0x23E8 SWAP2 SWAP1 PUSH2 0x3ACE JUMP JUMPDEST SWAP1 POP SWAP3 SWAP2 POP POP JUMP JUMPDEST PUSH2 0x23FA DUP3 DUP3 PUSH2 0x2AA8 JUMP JUMPDEST PUSH2 0x2402 PUSH2 0x2BF6 JUMP JUMPDEST PUSH28 0xFFFFFFFFFFFFFFFFFFFFFFFFFFFFFFFFFFFFFFFFFFFFFFFFFFFFFFFF AND PUSH2 0x2428 PUSH2 0x945 JUMP JUMPDEST GT ISZERO PUSH2 0x2469 JUMPI PUSH1 0x40 MLOAD PUSH32 0x8C379A000000000000000000000000000000000000000000000000000000000 DUP2 MSTORE PUSH1 0x4 ADD PUSH2 0x2460 SWAP1 PUSH2 0x45F4 JUMP JUMPDEST PUSH1 0x40 MLOAD DUP1 SWAP2 SUB SWAP1 REVERT JUMPDEST PUSH2 0x2477 PUSH1 0xC PUSH2 0x16CD DUP4 PUSH2 0x2C19 JUMP JUMPDEST POP POP POP POP JUMP JUMPDEST PUSH2 0x2487 DUP3 DUP3 PUSH2 0x2EE2 JUMP JUMPDEST PUSH2 0x2495 PUSH1 0xC PUSH2 0x16E2 DUP4 PUSH2 0x2C19 JUMP JUMPDEST POP POP POP POP JUMP JUMPDEST DUP2 PUSH20 0xFFFFFFFFFFFFFFFFFFFFFFFFFFFFFFFFFFFFFFFF AND DUP4 PUSH20 0xFFFFFFFFFFFFFFFFFFFFFFFFFFFFFFFFFFFFFFFF AND EQ ISZERO DUP1 ISZERO PUSH2 0x24D6 JUMPI POP PUSH0 DUP2 GT JUMPDEST ISZERO PUSH2 0x2686 JUMPI PUSH0 PUSH20 0xFFFFFFFFFFFFFFFFFFFFFFFFFFFFFFFFFFFFFFFF AND DUP4 PUSH20 0xFFFFFFFFFFFFFFFFFFFFFFFFFFFFFFFFFFFFFFFF AND EQ PUSH2 0x25B0 JUMPI PUSH0 DUP1 PUSH2 0x2559 PUSH1 0xB PUSH0 DUP8 PUSH20 0xFFFFFFFFFFFFFFFFFFFFFFFFFFFFFFFFFFFFFFFF AND PUSH20 0xFFFFFFFFFFFFFFFFFFFFFFFFFFFFFFFFFFFFFFFF AND DUP2 MSTORE PUSH1 0x20 ADD SWAP1 DUP2 MSTORE PUSH1 0x20 ADD PUSH0 KECCAK256 PUSH2 0x16E2 DUP6 PUSH2 0x2C19 JUMP JUMPDEST SWAP2 POP SWAP2 POP DUP5 PUSH20 0xFFFFFFFFFFFFFFFFFFFFFFFFFFFFFFFFFFFFFFFF AND PUSH32 0xDEC2BACDD2F05B59DE34DA9B523DFF8BE42E5E38E818C82FDB0BAE774387A724 DUP4 DUP4 PUSH1 0x40 MLOAD PUSH2 0x25A5 SWAP3 SWAP2 SWAP1 PUSH2 0x4612 JUMP JUMPDEST PUSH1 0x40 MLOAD DUP1 SWAP2 SUB SWAP1 LOG2 POP POP JUMPDEST PUSH0 PUSH20 0xFFFFFFFFFFFFFFFFFFFFFFFFFFFFFFFFFFFFFFFF AND DUP3 PUSH20 0xFFFFFFFFFFFFFFFFFFFFFFFFFFFFFFFFFFFFFFFF AND EQ PUSH2 0x2685 JUMPI PUSH0 DUP1 PUSH2 0x262E PUSH1 0xB PUSH0 DUP7 PUSH20 0xFFFFFFFFFFFFFFFFFFFFFFFFFFFFFFFFFFFFFFFF AND PUSH20 0xFFFFFFFFFFFFFFFFFFFFFFFFFFFFFFFFFFFFFFFF AND DUP2 MSTORE PUSH1 0x20 ADD SWAP1 DUP2 MSTORE PUSH1 0x20 ADD PUSH0 KECCAK256 PUSH2 0x16CD DUP6 PUSH2 0x2C19 JUMP JUMPDEST SWAP2 POP SWAP2 POP DUP4 PUSH20 0xFFFFFFFFFFFFFFFFFFFFFFFFFFFFFFFFFFFFFFFF AND PUSH32 0xDEC2BACDD2F05B59DE34DA9B523DFF8BE42E5E38E818C82FDB0BAE774387A724 DUP4 DUP4 PUSH1 0x40 MLOAD PUSH2 0x267A SWAP3 SWAP2 SWAP1 PUSH2 0x4612 JUMP JUMPDEST PUSH1 0x40 MLOAD DUP1 SWAP2 SUB SWAP1 LOG2 POP POP JUMPDEST JUMPDEST POP POP POP JUMP JUMPDEST PUSH1 0x60 PUSH0 PUSH2 0x2697 DUP4 PUSH2 0x30A5 JUMP JUMPDEST SWAP1 POP PUSH0 PUSH1 0x20 PUSH8 0xFFFFFFFFFFFFFFFF DUP2 GT ISZERO PUSH2 0x26B5 JUMPI PUSH2 0x26B4 PUSH2 0x3C39 JUMP JUMPDEST JUMPDEST PUSH1 0x40 MLOAD SWAP1 DUP1 DUP3 MSTORE DUP1 PUSH1 0x1F ADD PUSH1 0x1F NOT AND PUSH1 0x20 ADD DUP3 ADD PUSH1 0x40 MSTORE DUP1 ISZERO PUSH2 0x26E7 JUMPI DUP2 PUSH1 0x20 ADD PUSH1 0x1 DUP3 MUL DUP1 CALLDATASIZE DUP4 CALLDATACOPY DUP1 DUP3 ADD SWAP2 POP POP SWAP1 POP JUMPDEST POP SWAP1 POP DUP2 DUP2 MSTORE DUP4 PUSH1 0x20 DUP3 ADD MSTORE DUP1 SWAP3 POP POP POP SWAP2 SWAP1 POP JUMP JUMPDEST PUSH0 PUSH1 0x40 MLOAD PUSH32 0x1901000000000000000000000000000000000000000000000000000000000000 DUP2 MSTORE DUP4 PUSH1 0x2 DUP3 ADD MSTORE DUP3 PUSH1 0x22 DUP3 ADD MSTORE PUSH1 0x42 DUP2 KECCAK256 SWAP2 POP POP SWAP3 SWAP2 POP POP JUMP JUMPDEST PUSH0 DUP1 PUSH32 0x7FFFFFFFFFFFFFFFFFFFFFFFFFFFFFFF5D576E7357A4501DDFE92F46681B20A0 DUP4 PUSH0 SHR GT ISZERO PUSH2 0x2775 JUMPI PUSH0 PUSH1 0x3 SWAP2 POP SWAP2 POP PUSH2 0x280C JUMP JUMPDEST PUSH0 PUSH1 0x1 DUP8 DUP8 DUP8 DUP8 PUSH1 0x40 MLOAD PUSH0 DUP2 MSTORE PUSH1 0x20 ADD PUSH1 0x40 MSTORE PUSH1 0x40 MLOAD PUSH2 0x2798 SWAP5 SWAP4 SWAP3 SWAP2 SWAP1 PUSH2 0x4639 JUMP JUMPDEST PUSH1 0x20 PUSH1 0x40 MLOAD PUSH1 0x20 DUP2 SUB SWAP1 DUP1 DUP5 SUB SWAP1 DUP6 GAS STATICCALL ISZERO DUP1 ISZERO PUSH2 0x27B8 JUMPI RETURNDATASIZE PUSH0 DUP1 RETURNDATACOPY RETURNDATASIZE PUSH0 REVERT JUMPDEST POP POP POP PUSH1 0x20 PUSH1 0x40 MLOAD SUB MLOAD SWAP1 POP PUSH0 PUSH20 0xFFFFFFFFFFFFFFFFFFFFFFFFFFFFFFFFFFFFFFFF AND DUP2 PUSH20 0xFFFFFFFFFFFFFFFFFFFFFFFFFFFFFFFFFFFFFFFF AND SUB PUSH2 0x2804 JUMPI PUSH0 PUSH1 0x1 SWAP3 POP SWAP3 POP POP PUSH2 0x280C JUMP JUMPDEST DUP1 PUSH0 SWAP3 POP SWAP3 POP POP JUMPDEST SWAP5 POP SWAP5 SWAP3 POP POP POP JUMP JUMPDEST PUSH0 PUSH1 0x4 DUP2 GT ISZERO PUSH2 0x2828 JUMPI PUSH2 0x2827 PUSH2 0x467C JUMP JUMPDEST JUMPDEST DUP2 PUSH1 0x4 DUP2 GT ISZERO PUSH2 0x283B JUMPI PUSH2 0x283A PUSH2 0x467C JUMP JUMPDEST JUMPDEST SUB ISZERO PUSH2 0x2977 JUMPI PUSH1 0x1 PUSH1 0x4 DUP2 GT ISZERO PUSH2 0x2855 JUMPI PUSH2 0x2854 PUSH2 0x467C JUMP JUMPDEST JUMPDEST DUP2 PUSH1 0x4 DUP2 GT ISZERO PUSH2 0x2868 JUMPI PUSH2 0x2867 PUSH2 0x467C JUMP JUMPDEST JUMPDEST SUB PUSH2 0x28A8 JUMPI PUSH1 0x40 MLOAD PUSH32 0x8C379A000000000000000000000000000000000000000000000000000000000 DUP2 MSTORE PUSH1 0x4 ADD PUSH2 0x289F SWAP1 PUSH2 0x46F3 JUMP JUMPDEST PUSH1 0x40 MLOAD DUP1 SWAP2 SUB SWAP1 REVERT JUMPDEST PUSH1 0x2 PUSH1 0x4 DUP2 GT ISZERO PUSH2 0x28BC JUMPI PUSH2 0x28BB PUSH2 0x467C JUMP JUMPDEST JUMPDEST DUP2 PUSH1 0x4 DUP2 GT ISZERO PUSH2 0x28CF JUMPI PUSH2 0x28CE PUSH2 0x467C JUMP JUMPDEST JUMPDEST SUB PUSH2 0x290F JUMPI PUSH1 0x40 MLOAD PUSH32 0x8C379A000000000000000000000000000000000000000000000000000000000 DUP2 MSTORE PUSH1 0x4 ADD PUSH2 0x2906 SWAP1 PUSH2 0x475B JUMP JUMPDEST PUSH1 0x40 MLOAD DUP1 SWAP2 SUB SWAP1 REVERT JUMPDEST PUSH1 0x3 PUSH1 0x4 DUP2 GT ISZERO PUSH2 0x2923 JUMPI PUSH2 0x2922 PUSH2 0x467C JUMP JUMPDEST JUMPDEST DUP2 PUSH1 0x4 DUP2 GT ISZERO PUSH2 0x2936 JUMPI PUSH2 0x2935 PUSH2 0x467C JUMP JUMPDEST JUMPDEST SUB PUSH2 0x2976 JUMPI PUSH1 0x40 MLOAD PUSH32 0x8C379A000000000000000000000000000000000000000000000000000000000 DUP2 MSTORE PUSH1 0x4 ADD PUSH2 0x296D SWAP1 PUSH2 0x47E9 JUMP JUMPDEST PUSH1 0x40 MLOAD DUP1 SWAP2 SUB SWAP1 REVERT JUMPDEST JUMPDEST POP JUMP JUMPDEST PUSH1 0x1 DUP2 PUSH0 ADD PUSH0 DUP3 DUP3 SLOAD ADD SWAP3 POP POP DUP2 SWAP1 SSTORE POP POP JUMP JUMPDEST PUSH2 0x2999 DUP4 DUP4 DUP4 PUSH2 0x30F3 JUMP JUMPDEST PUSH2 0x29B4 PUSH2 0x29A5 DUP5 PUSH2 0xC28 JUMP JUMPDEST PUSH2 0x29AE DUP5 PUSH2 0xC28 JUMP JUMPDEST DUP4 PUSH2 0x249B JUMP JUMPDEST POP POP POP JUMP JUMPDEST PUSH0 DUP1 PUSH0 SWAP1 POP PUSH0 PUSH1 0x80 DUP5 SWAP1 SHR GT ISZERO PUSH2 0x29D8 JUMPI PUSH1 0x80 DUP4 SWAP1 SHR SWAP3 POP PUSH1 0x80 DUP2 ADD SWAP1 POP JUMPDEST PUSH0 PUSH1 0x40 DUP5 SWAP1 SHR GT ISZERO PUSH2 0x29F2 JUMPI PUSH1 0x40 DUP4 SWAP1 SHR SWAP3 POP PUSH1 0x40 DUP2 ADD SWAP1 POP JUMPDEST PUSH0 PUSH1 0x20 DUP5 SWAP1 SHR GT ISZERO PUSH2 0x2A0C JUMPI PUSH1 0x20 DUP4 SWAP1 SHR SWAP3 POP PUSH1 0x20 DUP2 ADD SWAP1 POP JUMPDEST PUSH0 PUSH1 0x10 DUP5 SWAP1 SHR GT ISZERO PUSH2 0x2A26 JUMPI PUSH1 0x10 DUP4 SWAP1 SHR SWAP3 POP PUSH1 0x10 DUP2 ADD SWAP1 POP JUMPDEST PUSH0 PUSH1 0x8 DUP5 SWAP1 SHR GT ISZERO PUSH2 0x2A40 JUMPI PUSH1 0x8 DUP4 SWAP1 SHR SWAP3 POP PUSH1 0x8 DUP2 ADD SWAP1 POP JUMPDEST PUSH0 PUSH1 0x4 DUP5 SWAP1 SHR GT ISZERO PUSH2 0x2A5A JUMPI PUSH1 0x4 DUP4 SWAP1 SHR SWAP3 POP PUSH1 0x4 DUP2 ADD SWAP1 POP JUMPDEST PUSH0 PUSH1 0x2 DUP5 SWAP1 SHR GT ISZERO PUSH2 0x2A74 JUMPI PUSH1 0x2 DUP4 SWAP1 SHR SWAP3 POP PUSH1 0x2 DUP2 ADD SWAP1 POP JUMPDEST PUSH0 PUSH1 0x1 DUP5 SWAP1 SHR GT ISZERO PUSH2 0x2A87 JUMPI PUSH1 0x1 DUP2 ADD SWAP1 POP JUMPDEST DUP1 SWAP2 POP POP SWAP2 SWAP1 POP JUMP JUMPDEST PUSH0 DUP2 DUP4 LT PUSH2 0x2A9E JUMPI DUP2 PUSH2 0x2AA0 JUMP JUMPDEST DUP3 JUMPDEST SWAP1 POP SWAP3 SWAP2 POP POP JUMP JUMPDEST PUSH0 PUSH20 0xFFFFFFFFFFFFFFFFFFFFFFFFFFFFFFFFFFFFFFFF AND DUP3 PUSH20 0xFFFFFFFFFFFFFFFFFFFFFFFFFFFFFFFFFFFFFFFF AND SUB PUSH2 0x2B16 JUMPI PUSH1 0x40 MLOAD PUSH32 0x8C379A000000000000000000000000000000000000000000000000000000000 DUP2 MSTORE PUSH1 0x4 ADD PUSH2 0x2B0D SWAP1 PUSH2 0x4851 JUMP JUMPDEST PUSH1 0x40 MLOAD DUP1 SWAP2 SUB SWAP1 REVERT JUMPDEST PUSH2 0x2B21 PUSH0 DUP4 DUP4 PUSH2 0x2219 JUMP JUMPDEST DUP1 PUSH1 0x2 PUSH0 DUP3 DUP3 SLOAD PUSH2 0x2B32 SWAP2 SWAP1 PUSH2 0x3ACE JUMP JUMPDEST SWAP3 POP POP DUP2 SWAP1 SSTORE POP DUP1 PUSH0 DUP1 DUP5 PUSH20 0xFFFFFFFFFFFFFFFFFFFFFFFFFFFFFFFFFFFFFFFF AND PUSH20 0xFFFFFFFFFFFFFFFFFFFFFFFFFFFFFFFFFFFFFFFF AND DUP2 MSTORE PUSH1 0x20 ADD SWAP1 DUP2 MSTORE PUSH1 0x20 ADD PUSH0 KECCAK256 PUSH0 DUP3 DUP3 SLOAD ADD SWAP3 POP POP DUP2 SWAP1 SSTORE POP DUP2 PUSH20 0xFFFFFFFFFFFFFFFFFFFFFFFFFFFFFFFFFFFFFFFF AND PUSH0 PUSH20 0xFFFFFFFFFFFFFFFFFFFFFFFFFFFFFFFFFFFFFFFF AND PUSH32 0xDDF252AD1BE2C89B69C2B068FC378DAA952BA7F163C4A11628F55A4DF523B3EF DUP4 PUSH1 0x40 MLOAD PUSH2 0x2BDF SWAP2 SWAP1 PUSH2 0x3359 JUMP JUMPDEST PUSH1 0x40 MLOAD DUP1 SWAP2 SUB SWAP1 LOG3 PUSH2 0x2BF2 PUSH0 DUP4 DUP4 PUSH2 0x221E JUMP JUMPDEST POP POP JUMP JUMPDEST PUSH0 PUSH28 0xFFFFFFFFFFFFFFFFFFFFFFFFFFFFFFFFFFFFFFFFFFFFFFFFFFFFFFFF SWAP1 POP SWAP1 JUMP JUMPDEST PUSH0 DUP1 PUSH0 DUP6 DUP1 SLOAD SWAP1 POP SWAP1 POP PUSH0 DUP1 DUP3 EQ PUSH2 0x2CD9 JUMPI PUSH2 0x2C38 DUP8 PUSH1 0x1 DUP5 SUB PUSH2 0x23B9 JUMP JUMPDEST PUSH1 0x40 MLOAD DUP1 PUSH1 0x40 ADD PUSH1 0x40 MSTORE SWAP1 DUP2 PUSH0 DUP3 ADD PUSH0 SWAP1 SLOAD SWAP1 PUSH2 0x100 EXP SWAP1 DIV PUSH4 0xFFFFFFFF AND PUSH4 0xFFFFFFFF AND PUSH4 0xFFFFFFFF AND DUP2 MSTORE PUSH1 0x20 ADD PUSH0 DUP3 ADD PUSH1 0x4 SWAP1 SLOAD SWAP1 PUSH2 0x100 EXP SWAP1 DIV PUSH28 0xFFFFFFFFFFFFFFFFFFFFFFFFFFFFFFFFFFFFFFFFFFFFFFFFFFFFFFFF AND PUSH28 0xFFFFFFFFFFFFFFFFFFFFFFFFFFFFFFFFFFFFFFFFFFFFFFFFFFFFFFFF AND PUSH28 0xFFFFFFFFFFFFFFFFFFFFFFFFFFFFFFFFFFFFFFFFFFFFFFFFFFFFFFFF AND DUP2 MSTORE POP POP PUSH2 0x2D13 JUMP JUMPDEST PUSH1 0x40 MLOAD DUP1 PUSH1 0x40 ADD PUSH1 0x40 MSTORE DUP1 PUSH0 PUSH4 0xFFFFFFFF AND DUP2 MSTORE PUSH1 0x20 ADD PUSH0 PUSH28 0xFFFFFFFFFFFFFFFFFFFFFFFFFFFFFFFFFFFFFFFFFFFFFFFFFFFFFFFF AND DUP2 MSTORE POP JUMPDEST SWAP1 POP DUP1 PUSH1 0x20 ADD MLOAD PUSH28 0xFFFFFFFFFFFFFFFFFFFFFFFFFFFFFFFFFFFFFFFFFFFFFFFFFFFFFFFF AND SWAP4 POP PUSH2 0x2D48 DUP5 DUP7 DUP9 PUSH4 0xFFFFFFFF AND JUMP JUMPDEST SWAP3 POP PUSH0 DUP3 GT DUP1 ISZERO PUSH2 0x2D70 JUMPI POP PUSH2 0x2D5C PUSH2 0x104A JUMP JUMPDEST PUSH6 0xFFFFFFFFFFFF AND DUP2 PUSH0 ADD MLOAD PUSH4 0xFFFFFFFF AND EQ JUMPDEST ISZERO PUSH2 0x2DE0 JUMPI PUSH2 0x2D7E DUP4 PUSH2 0x30F8 JUMP JUMPDEST PUSH2 0x2D8B DUP9 PUSH1 0x1 DUP6 SUB PUSH2 0x23B9 JUMP JUMPDEST PUSH0 ADD PUSH1 0x4 PUSH2 0x100 EXP DUP2 SLOAD DUP2 PUSH28 0xFFFFFFFFFFFFFFFFFFFFFFFFFFFFFFFFFFFFFFFFFFFFFFFFFFFFFFFF MUL NOT AND SWAP1 DUP4 PUSH28 0xFFFFFFFFFFFFFFFFFFFFFFFFFFFFFFFFFFFFFFFFFFFFFFFFFFFFFFFF AND MUL OR SWAP1 SSTORE POP PUSH2 0x2ED8 JUMP JUMPDEST DUP7 PUSH1 0x40 MLOAD DUP1 PUSH1 0x40 ADD PUSH1 0x40 MSTORE DUP1 PUSH2 0x2E04 PUSH2 0x2DF7 PUSH2 0x104A JUMP JUMPDEST PUSH6 0xFFFFFFFFFFFF AND PUSH2 0x1F5A JUMP JUMPDEST PUSH4 0xFFFFFFFF AND DUP2 MSTORE PUSH1 0x20 ADD PUSH2 0x2E18 DUP7 PUSH2 0x30F8 JUMP JUMPDEST PUSH28 0xFFFFFFFFFFFFFFFFFFFFFFFFFFFFFFFFFFFFFFFFFFFFFFFFFFFFFFFF AND DUP2 MSTORE POP SWAP1 DUP1 PUSH1 0x1 DUP2 SLOAD ADD DUP1 DUP3 SSTORE DUP1 SWAP2 POP POP PUSH1 0x1 SWAP1 SUB SWAP1 PUSH0 MSTORE PUSH1 0x20 PUSH0 KECCAK256 ADD PUSH0 SWAP1 SWAP2 SWAP1 SWAP2 SWAP1 SWAP2 POP PUSH0 DUP3 ADD MLOAD DUP2 PUSH0 ADD PUSH0 PUSH2 0x100 EXP DUP2 SLOAD DUP2 PUSH4 0xFFFFFFFF MUL NOT AND SWAP1 DUP4 PUSH4 0xFFFFFFFF AND MUL OR SWAP1 SSTORE POP PUSH1 0x20 DUP3 ADD MLOAD DUP2 PUSH0 ADD PUSH1 0x4 PUSH2 0x100 EXP DUP2 SLOAD DUP2 PUSH28 0xFFFFFFFFFFFFFFFFFFFFFFFFFFFFFFFFFFFFFFFFFFFFFFFFFFFFFFFF MUL NOT AND SWAP1 DUP4 PUSH28 0xFFFFFFFFFFFFFFFFFFFFFFFFFFFFFFFFFFFFFFFFFFFFFFFFFFFFFFFF AND MUL OR SWAP1 SSTORE POP POP POP JUMPDEST POP POP SWAP4 POP SWAP4 SWAP2 POP POP JUMP JUMPDEST PUSH0 PUSH20 0xFFFFFFFFFFFFFFFFFFFFFFFFFFFFFFFFFFFFFFFF AND DUP3 PUSH20 0xFFFFFFFFFFFFFFFFFFFFFFFFFFFFFFFFFFFFFFFF AND SUB PUSH2 0x2F50 JUMPI PUSH1 0x40 MLOAD PUSH32 0x8C379A000000000000000000000000000000000000000000000000000000000 DUP2 MSTORE PUSH1 0x4 ADD PUSH2 0x2F47 SWAP1 PUSH2 0x48DF JUMP JUMPDEST PUSH1 0x40 MLOAD DUP1 SWAP2 SUB SWAP1 REVERT JUMPDEST PUSH2 0x2F5B DUP3 PUSH0 DUP4 PUSH2 0x2219 JUMP JUMPDEST PUSH0 DUP1 PUSH0 DUP5 PUSH20 0xFFFFFFFFFFFFFFFFFFFFFFFFFFFFFFFFFFFFFFFF AND PUSH20 0xFFFFFFFFFFFFFFFFFFFFFFFFFFFFFFFFFFFFFFFF AND DUP2 MSTORE PUSH1 0x20 ADD SWAP1 DUP2 MSTORE PUSH1 0x20 ADD PUSH0 KECCAK256 SLOAD SWAP1 POP DUP2 DUP2 LT ISZERO PUSH2 0x2FDE JUMPI PUSH1 0x40 MLOAD PUSH32 0x8C379A000000000000000000000000000000000000000000000000000000000 DUP2 MSTORE PUSH1 0x4 ADD PUSH2 0x2FD5 SWAP1 PUSH2 0x496D JUMP JUMPDEST PUSH1 0x40 MLOAD DUP1 SWAP2 SUB SWAP1 REVERT JUMPDEST DUP2 DUP2 SUB PUSH0 DUP1 DUP6 PUSH20 0xFFFFFFFFFFFFFFFFFFFFFFFFFFFFFFFFFFFFFFFF AND PUSH20 0xFFFFFFFFFFFFFFFFFFFFFFFFFFFFFFFFFFFFFFFF AND DUP2 MSTORE PUSH1 0x20 ADD SWAP1 DUP2 MSTORE PUSH1 0x20 ADD PUSH0 KECCAK256 DUP2 SWAP1 SSTORE POP DUP2 PUSH1 0x2 PUSH0 DUP3 DUP3 SLOAD SUB SWAP3 POP POP DUP2 SWAP1 SSTORE POP PUSH0 PUSH20 0xFFFFFFFFFFFFFFFFFFFFFFFFFFFFFFFFFFFFFFFF AND DUP4 PUSH20 0xFFFFFFFFFFFFFFFFFFFFFFFFFFFFFFFFFFFFFFFF AND PUSH32 0xDDF252AD1BE2C89B69C2B068FC378DAA952BA7F163C4A11628F55A4DF523B3EF DUP5 PUSH1 0x40 MLOAD PUSH2 0x308D SWAP2 SWAP1 PUSH2 0x3359 JUMP JUMPDEST PUSH1 0x40 MLOAD DUP1 SWAP2 SUB SWAP1 LOG3 PUSH2 0x30A0 DUP4 PUSH0 DUP5 PUSH2 0x221E JUMP JUMPDEST POP POP POP JUMP JUMPDEST PUSH0 DUP1 PUSH1 0xFF DUP4 PUSH0 SHR AND SWAP1 POP PUSH1 0x1F DUP2 GT ISZERO PUSH2 0x30EA JUMPI PUSH1 0x40 MLOAD PUSH32 0xB3512B0C00000000000000000000000000000000000000000000000000000000 DUP2 MSTORE PUSH1 0x4 ADD PUSH1 0x40 MLOAD DUP1 SWAP2 SUB SWAP1 REVERT JUMPDEST DUP1 SWAP2 POP POP SWAP2 SWAP1 POP JUMP JUMPDEST POP POP POP JUMP JUMPDEST PUSH0 PUSH28 0xFFFFFFFFFFFFFFFFFFFFFFFFFFFFFFFFFFFFFFFFFFFFFFFFFFFFFFFF DUP1 AND DUP3 GT ISZERO PUSH2 0x315A JUMPI PUSH1 0x40 MLOAD PUSH32 0x8C379A000000000000000000000000000000000000000000000000000000000 DUP2 MSTORE PUSH1 0x4 ADD PUSH2 0x3151 SWAP1 PUSH2 0x49FB JUMP JUMPDEST PUSH1 0x40 MLOAD DUP1 SWAP2 SUB SWAP1 REVERT JUMPDEST DUP2 SWAP1 POP SWAP2 SWAP1 POP JUMP JUMPDEST PUSH1 0x40 MLOAD DUP1 PUSH1 0x40 ADD PUSH1 0x40 MSTORE DUP1 PUSH0 PUSH4 0xFFFFFFFF AND DUP2 MSTORE PUSH1 0x20 ADD PUSH0 PUSH28 0xFFFFFFFFFFFFFFFFFFFFFFFFFFFFFFFFFFFFFFFFFFFFFFFFFFFFFFFF AND DUP2 MSTORE POP SWAP1 JUMP JUMPDEST PUSH0 DUP2 MLOAD SWAP1 POP SWAP2 SWAP1 POP JUMP JUMPDEST PUSH0 DUP3 DUP3 MSTORE PUSH1 0x20 DUP3 ADD SWAP1 POP SWAP3 SWAP2 POP POP JUMP JUMPDEST PUSH0 JUMPDEST DUP4 DUP2 LT ISZERO PUSH2 0x31D5 JUMPI DUP1 DUP3 ADD MLOAD DUP2 DUP5 ADD MSTORE PUSH1 0x20 DUP2 ADD SWAP1 POP PUSH2 0x31BA JUMP JUMPDEST PUSH0 DUP5 DUP5 ADD MSTORE POP POP POP POP JUMP JUMPDEST PUSH0 PUSH1 0x1F NOT PUSH1 0x1F DUP4 ADD AND SWAP1 POP SWAP2 SWAP1 POP JUMP JUMPDEST PUSH0 PUSH2 0x31FA DUP3 PUSH2 0x319E JUMP JUMPDEST PUSH2 0x3204 DUP2 DUP6 PUSH2 0x31A8 JUMP JUMPDEST SWAP4 POP PUSH2 0x3214 DUP2 DUP6 PUSH1 0x20 DUP7 ADD PUSH2 0x31B8 JUMP JUMPDEST PUSH2 0x321D DUP2 PUSH2 0x31E0 JUMP JUMPDEST DUP5 ADD SWAP2 POP POP SWAP3 SWAP2 POP POP JUMP JUMPDEST PUSH0 PUSH1 0x20 DUP3 ADD SWAP1 POP DUP2 DUP2 SUB PUSH0 DUP4 ADD MSTORE PUSH2 0x3240 DUP2 DUP5 PUSH2 0x31F0 JUMP JUMPDEST SWAP1 POP SWAP3 SWAP2 POP POP JUMP JUMPDEST PUSH0 DUP1 REVERT JUMPDEST PUSH0 PUSH20 0xFFFFFFFFFFFFFFFFFFFFFFFFFFFFFFFFFFFFFFFF DUP3 AND SWAP1 POP SWAP2 SWAP1 POP JUMP JUMPDEST PUSH0 PUSH2 0x3275 DUP3 PUSH2 0x324C JUMP JUMPDEST SWAP1 POP SWAP2 SWAP1 POP JUMP JUMPDEST PUSH2 0x3285 DUP2 PUSH2 0x326B JUMP JUMPDEST DUP2 EQ PUSH2 0x328F JUMPI PUSH0 DUP1 REVERT JUMPDEST POP JUMP JUMPDEST PUSH0 DUP2 CALLDATALOAD SWAP1 POP PUSH2 0x32A0 DUP2 PUSH2 0x327C JUMP JUMPDEST SWAP3 SWAP2 POP POP JUMP JUMPDEST PUSH0 DUP2 SWAP1 POP SWAP2 SWAP1 POP JUMP JUMPDEST PUSH2 0x32B8 DUP2 PUSH2 0x32A6 JUMP JUMPDEST DUP2 EQ PUSH2 0x32C2 JUMPI PUSH0 DUP1 REVERT JUMPDEST POP JUMP JUMPDEST PUSH0 DUP2 CALLDATALOAD SWAP1 POP PUSH2 0x32D3 DUP2 PUSH2 0x32AF JUMP JUMPDEST SWAP3 SWAP2 POP POP JUMP JUMPDEST PUSH0 DUP1 PUSH1 0x40 DUP4 DUP6 SUB SLT ISZERO PUSH2 0x32EF JUMPI PUSH2 0x32EE PUSH2 0x3248 JUMP JUMPDEST JUMPDEST PUSH0 PUSH2 0x32FC DUP6 DUP3 DUP7 ADD PUSH2 0x3292 JUMP JUMPDEST SWAP3 POP POP PUSH1 0x20 PUSH2 0x330D DUP6 DUP3 DUP7 ADD PUSH2 0x32C5 JUMP JUMPDEST SWAP2 POP POP SWAP3 POP SWAP3 SWAP1 POP JUMP JUMPDEST PUSH0 DUP2 ISZERO ISZERO SWAP1 POP SWAP2 SWAP1 POP JUMP JUMPDEST PUSH2 0x332B DUP2 PUSH2 0x3317 JUMP JUMPDEST DUP3 MSTORE POP POP JUMP JUMPDEST PUSH0 PUSH1 0x20 DUP3 ADD SWAP1 POP PUSH2 0x3344 PUSH0 DUP4 ADD DUP5 PUSH2 0x3322 JUMP JUMPDEST SWAP3 SWAP2 POP POP JUMP JUMPDEST PUSH2 0x3353 DUP2 PUSH2 0x32A6 JUMP JUMPDEST DUP3 MSTORE POP POP JUMP JUMPDEST PUSH0 PUSH1 0x20 DUP3 ADD SWAP1 POP PUSH2 0x336C PUSH0 DUP4 ADD DUP5 PUSH2 0x334A JUMP JUMPDEST SWAP3 SWAP2 POP POP JUMP JUMPDEST PUSH0 DUP1 PUSH0 PUSH1 0x60 DUP5 DUP7 SUB SLT ISZERO PUSH2 0x3389 JUMPI PUSH2 0x3388 PUSH2 0x3248 JUMP JUMPDEST JUMPDEST PUSH0 PUSH2 0x3396 DUP7 DUP3 DUP8 ADD PUSH2 0x3292 JUMP JUMPDEST SWAP4 POP POP PUSH1 0x20 PUSH2 0x33A7 DUP7 DUP3 DUP8 ADD PUSH2 0x3292 JUMP JUMPDEST SWAP3 POP POP PUSH1 0x40 PUSH2 0x33B8 DUP7 DUP3 DUP8 ADD PUSH2 0x32C5 JUMP JUMPDEST SWAP2 POP POP SWAP3 POP SWAP3 POP SWAP3 JUMP JUMPDEST PUSH0 PUSH1 0xFF DUP3 AND SWAP1 POP SWAP2 SWAP1 POP JUMP JUMPDEST PUSH2 0x33D7 DUP2 PUSH2 0x33C2 JUMP JUMPDEST DUP3 MSTORE POP POP JUMP JUMPDEST PUSH0 PUSH1 0x20 DUP3 ADD SWAP1 POP PUSH2 0x33F0 PUSH0 DUP4 ADD DUP5 PUSH2 0x33CE JUMP JUMPDEST SWAP3 SWAP2 POP POP JUMP JUMPDEST PUSH0 PUSH1 0x20 DUP3 DUP5 SUB SLT ISZERO PUSH2 0x340B JUMPI PUSH2 0x340A PUSH2 0x3248 JUMP JUMPDEST JUMPDEST PUSH0 PUSH2 0x3418 DUP5 DUP3 DUP6 ADD PUSH2 0x32C5 JUMP JUMPDEST SWAP2 POP POP SWAP3 SWAP2 POP POP JUMP JUMPDEST PUSH0 DUP2 SWAP1 POP SWAP2 SWAP1 POP JUMP JUMPDEST PUSH2 0x3433 DUP2 PUSH2 0x3421 JUMP JUMPDEST DUP3 MSTORE POP POP JUMP JUMPDEST PUSH0 PUSH1 0x20 DUP3 ADD SWAP1 POP PUSH2 0x344C PUSH0 DUP4 ADD DUP5 PUSH2 0x342A JUMP JUMPDEST SWAP3 SWAP2 POP POP JUMP JUMPDEST PUSH0 PUSH1 0x20 DUP3 DUP5 SUB SLT ISZERO PUSH2 0x3467 JUMPI PUSH2 0x3466 PUSH2 0x3248 JUMP JUMPDEST JUMPDEST PUSH0 PUSH2 0x3474 DUP5 DUP3 DUP6 ADD PUSH2 0x3292 JUMP JUMPDEST SWAP2 POP POP SWAP3 SWAP2 POP POP JUMP JUMPDEST PUSH2 0x3486 DUP2 PUSH2 0x326B JUMP JUMPDEST DUP3 MSTORE POP POP JUMP JUMPDEST PUSH0 PUSH1 0x20 DUP3 ADD SWAP1 POP PUSH2 0x349F PUSH0 DUP4 ADD DUP5 PUSH2 0x347D JUMP JUMPDEST SWAP3 SWAP2 POP POP JUMP JUMPDEST PUSH0 PUSH4 0xFFFFFFFF DUP3 AND SWAP1 POP SWAP2 SWAP1 POP JUMP JUMPDEST PUSH2 0x34BD DUP2 PUSH2 0x34A5 JUMP JUMPDEST DUP3 MSTORE POP POP JUMP JUMPDEST PUSH0 PUSH1 0x20 DUP3 ADD SWAP1 POP PUSH2 0x34D6 PUSH0 DUP4 ADD DUP5 PUSH2 0x34B4 JUMP JUMPDEST SWAP3 SWAP2 POP POP JUMP JUMPDEST PUSH0 PUSH32 0xFF00000000000000000000000000000000000000000000000000000000000000 DUP3 AND SWAP1 POP SWAP2 SWAP1 POP JUMP JUMPDEST PUSH2 0x3510 DUP2 PUSH2 0x34DC JUMP JUMPDEST DUP3 MSTORE POP POP JUMP JUMPDEST PUSH0 DUP2 MLOAD SWAP1 POP SWAP2 SWAP1 POP JUMP JUMPDEST PUSH0 DUP3 DUP3 MSTORE PUSH1 0x20 DUP3 ADD SWAP1 POP SWAP3 SWAP2 POP POP JUMP JUMPDEST PUSH0 DUP2 SWAP1 POP PUSH1 0x20 DUP3 ADD SWAP1 POP SWAP2 SWAP1 POP JUMP JUMPDEST PUSH2 0x3548 DUP2 PUSH2 0x32A6 JUMP JUMPDEST DUP3 MSTORE POP POP JUMP JUMPDEST PUSH0 PUSH2 0x3559 DUP4 DUP4 PUSH2 0x353F JUMP JUMPDEST PUSH1 0x20 DUP4 ADD SWAP1 POP SWAP3 SWAP2 POP POP JUMP JUMPDEST PUSH0 PUSH1 0x20 DUP3 ADD SWAP1 POP SWAP2 SWAP1 POP JUMP JUMPDEST PUSH0 PUSH2 0x357B DUP3 PUSH2 0x3516 JUMP JUMPDEST PUSH2 0x3585 DUP2 DUP6 PUSH2 0x3520 JUMP JUMPDEST SWAP4 POP PUSH2 0x3590 DUP4 PUSH2 0x3530 JUMP JUMPDEST DUP1 PUSH0 JUMPDEST DUP4 DUP2 LT ISZERO PUSH2 0x35C0 JUMPI DUP2 MLOAD PUSH2 0x35A7 DUP9 DUP3 PUSH2 0x354E JUMP JUMPDEST SWAP8 POP PUSH2 0x35B2 DUP4 PUSH2 0x3565 JUMP JUMPDEST SWAP3 POP POP PUSH1 0x1 DUP2 ADD SWAP1 POP PUSH2 0x3593 JUMP JUMPDEST POP DUP6 SWAP4 POP POP POP POP SWAP3 SWAP2 POP POP JUMP JUMPDEST PUSH0 PUSH1 0xE0 DUP3 ADD SWAP1 POP PUSH2 0x35E0 PUSH0 DUP4 ADD DUP11 PUSH2 0x3507 JUMP JUMPDEST DUP2 DUP2 SUB PUSH1 0x20 DUP4 ADD MSTORE PUSH2 0x35F2 DUP2 DUP10 PUSH2 0x31F0 JUMP JUMPDEST SWAP1 POP DUP2 DUP2 SUB PUSH1 0x40 DUP4 ADD MSTORE PUSH2 0x3606 DUP2 DUP9 PUSH2 0x31F0 JUMP JUMPDEST SWAP1 POP PUSH2 0x3615 PUSH1 0x60 DUP4 ADD DUP8 PUSH2 0x334A JUMP JUMPDEST PUSH2 0x3622 PUSH1 0x80 DUP4 ADD DUP7 PUSH2 0x347D JUMP JUMPDEST PUSH2 0x362F PUSH1 0xA0 DUP4 ADD DUP6 PUSH2 0x342A JUMP JUMPDEST DUP2 DUP2 SUB PUSH1 0xC0 DUP4 ADD MSTORE PUSH2 0x3641 DUP2 DUP5 PUSH2 0x3571 JUMP JUMPDEST SWAP1 POP SWAP9 SWAP8 POP POP POP POP POP POP POP POP JUMP JUMPDEST PUSH0 PUSH6 0xFFFFFFFFFFFF DUP3 AND SWAP1 POP SWAP2 SWAP1 POP JUMP JUMPDEST PUSH2 0x3669 DUP2 PUSH2 0x364F JUMP JUMPDEST DUP3 MSTORE POP POP JUMP JUMPDEST PUSH0 PUSH1 0x20 DUP3 ADD SWAP1 POP PUSH2 0x3682 PUSH0 DUP4 ADD DUP5 PUSH2 0x3660 JUMP JUMPDEST SWAP3 SWAP2 POP POP JUMP JUMPDEST PUSH2 0x3691 DUP2 PUSH2 0x33C2 JUMP JUMPDEST DUP2 EQ PUSH2 0x369B JUMPI PUSH0 DUP1 REVERT JUMPDEST POP JUMP JUMPDEST PUSH0 DUP2 CALLDATALOAD SWAP1 POP PUSH2 0x36AC DUP2 PUSH2 0x3688 JUMP JUMPDEST SWAP3 SWAP2 POP POP JUMP JUMPDEST PUSH2 0x36BB DUP2 PUSH2 0x3421 JUMP JUMPDEST DUP2 EQ PUSH2 0x36C5 JUMPI PUSH0 DUP1 REVERT JUMPDEST POP JUMP JUMPDEST PUSH0 DUP2 CALLDATALOAD SWAP1 POP PUSH2 0x36D6 DUP2 PUSH2 0x36B2 JUMP JUMPDEST SWAP3 SWAP2 POP POP JUMP JUMPDEST PUSH0 DUP1 PUSH0 DUP1 PUSH0 DUP1 PUSH1 0xC0 DUP8 DUP10 SUB SLT ISZERO PUSH2 0x36F6 JUMPI PUSH2 0x36F5 PUSH2 0x3248 JUMP JUMPDEST JUMPDEST PUSH0 PUSH2 0x3703 DUP10 DUP3 DUP11 ADD PUSH2 0x3292 JUMP JUMPDEST SWAP7 POP POP PUSH1 0x20 PUSH2 0x3714 DUP10 DUP3 DUP11 ADD PUSH2 0x32C5 JUMP JUMPDEST SWAP6 POP POP PUSH1 0x40 PUSH2 0x3725 DUP10 DUP3 DUP11 ADD PUSH2 0x32C5 JUMP JUMPDEST SWAP5 POP POP PUSH1 0x60 PUSH2 0x3736 DUP10 DUP3 DUP11 ADD PUSH2 0x369E JUMP JUMPDEST SWAP4 POP POP PUSH1 0x80 PUSH2 0x3747 DUP10 DUP3 DUP11 ADD PUSH2 0x36C8 JUMP JUMPDEST SWAP3 POP POP PUSH1 0xA0 PUSH2 0x3758 DUP10 DUP3 DUP11 ADD PUSH2 0x36C8 JUMP JUMPDEST SWAP2 POP POP SWAP3 SWAP6 POP SWAP3 SWAP6 POP SWAP3 SWAP6 JUMP JUMPDEST PUSH0 DUP1 PUSH0 DUP1 PUSH0 DUP1 PUSH0 PUSH1 0xE0 DUP9 DUP11 SUB SLT ISZERO PUSH2 0x3780 JUMPI PUSH2 0x377F PUSH2 0x3248 JUMP JUMPDEST JUMPDEST PUSH0 PUSH2 0x378D DUP11 DUP3 DUP12 ADD PUSH2 0x3292 JUMP JUMPDEST SWAP8 POP POP PUSH1 0x20 PUSH2 0x379E DUP11 DUP3 DUP12 ADD PUSH2 0x3292 JUMP JUMPDEST SWAP7 POP POP PUSH1 0x40 PUSH2 0x37AF DUP11 DUP3 DUP12 ADD PUSH2 0x32C5 JUMP JUMPDEST SWAP6 POP POP PUSH1 0x60 PUSH2 0x37C0 DUP11 DUP3 DUP12 ADD PUSH2 0x32C5 JUMP JUMPDEST SWAP5 POP POP PUSH1 0x80 PUSH2 0x37D1 DUP11 DUP3 DUP12 ADD PUSH2 0x369E JUMP JUMPDEST SWAP4 POP POP PUSH1 0xA0 PUSH2 0x37E2 DUP11 DUP3 DUP12 ADD PUSH2 0x36C8 JUMP JUMPDEST SWAP3 POP POP PUSH1 0xC0 PUSH2 0x37F3 DUP11 DUP3 DUP12 ADD PUSH2 0x36C8 JUMP JUMPDEST SWAP2 POP POP SWAP3 SWAP6 SWAP9 SWAP2 SWAP5 SWAP8 POP SWAP3 SWAP6 POP JUMP JUMPDEST PUSH0 DUP1 PUSH1 0x40 DUP4 DUP6 SUB SLT ISZERO PUSH2 0x3818 JUMPI PUSH2 0x3817 PUSH2 0x3248 JUMP JUMPDEST JUMPDEST PUSH0 PUSH2 0x3825 DUP6 DUP3 DUP7 ADD PUSH2 0x3292 JUMP JUMPDEST SWAP3 POP POP PUSH1 0x20 PUSH2 0x3836 DUP6 DUP3 DUP7 ADD PUSH2 0x3292 JUMP JUMPDEST SWAP2 POP POP SWAP3 POP SWAP3 SWAP1 POP JUMP JUMPDEST PUSH2 0x3849 DUP2 PUSH2 0x34A5 JUMP JUMPDEST DUP2 EQ PUSH2 0x3853 JUMPI PUSH0 DUP1 REVERT JUMPDEST POP JUMP JUMPDEST PUSH0 DUP2 CALLDATALOAD SWAP1 POP PUSH2 0x3864 DUP2 PUSH2 0x3840 JUMP JUMPDEST SWAP3 SWAP2 POP POP JUMP JUMPDEST PUSH0 DUP1 PUSH1 0x40 DUP4 DUP6 SUB SLT ISZERO PUSH2 0x3880 JUMPI PUSH2 0x387F PUSH2 0x3248 JUMP JUMPDEST JUMPDEST PUSH0 PUSH2 0x388D DUP6 DUP3 DUP7 ADD PUSH2 0x3292 JUMP JUMPDEST SWAP3 POP POP PUSH1 0x20 PUSH2 0x389E DUP6 DUP3 DUP7 ADD PUSH2 0x3856 JUMP JUMPDEST SWAP2 POP POP SWAP3 POP SWAP3 SWAP1 POP JUMP JUMPDEST PUSH2 0x38B1 DUP2 PUSH2 0x34A5 JUMP JUMPDEST DUP3 MSTORE POP POP JUMP JUMPDEST PUSH0 PUSH28 0xFFFFFFFFFFFFFFFFFFFFFFFFFFFFFFFFFFFFFFFFFFFFFFFFFFFFFFFF DUP3 AND SWAP1 POP SWAP2 SWAP1 POP JUMP JUMPDEST PUSH2 0x38E7 DUP2 PUSH2 0x38B7 JUMP JUMPDEST DUP3 MSTORE POP POP JUMP JUMPDEST PUSH1 0x40 DUP3 ADD PUSH0 DUP3 ADD MLOAD PUSH2 0x3901 PUSH0 DUP6 ADD DUP3 PUSH2 0x38A8 JUMP JUMPDEST POP PUSH1 0x20 DUP3 ADD MLOAD PUSH2 0x3914 PUSH1 0x20 DUP6 ADD DUP3 PUSH2 0x38DE JUMP JUMPDEST POP POP POP POP JUMP JUMPDEST PUSH0 PUSH1 0x40 DUP3 ADD SWAP1 POP PUSH2 0x392D PUSH0 DUP4 ADD DUP5 PUSH2 0x38ED JUMP JUMPDEST SWAP3 SWAP2 POP POP JUMP JUMPDEST PUSH32 0x4E487B7100000000000000000000000000000000000000000000000000000000 PUSH0 MSTORE PUSH1 0x22 PUSH1 0x4 MSTORE PUSH1 0x24 PUSH0 REVERT JUMPDEST PUSH0 PUSH1 0x2 DUP3 DIV SWAP1 POP PUSH1 0x1 DUP3 AND DUP1 PUSH2 0x3977 JUMPI PUSH1 0x7F DUP3 AND SWAP2 POP JUMPDEST PUSH1 0x20 DUP3 LT DUP2 SUB PUSH2 0x398A JUMPI PUSH2 0x3989 PUSH2 0x3933 JUMP JUMPDEST JUMPDEST POP SWAP2 SWAP1 POP JUMP JUMPDEST PUSH32 0x416D6F756E74206D7573742062652067726561746572207468616E207A65726F PUSH0 DUP3 ADD MSTORE POP JUMP JUMPDEST PUSH0 PUSH2 0x39C4 PUSH1 0x20 DUP4 PUSH2 0x31A8 JUMP JUMPDEST SWAP2 POP PUSH2 0x39CF DUP3 PUSH2 0x3990 JUMP JUMPDEST PUSH1 0x20 DUP3 ADD SWAP1 POP SWAP2 SWAP1 POP JUMP JUMPDEST PUSH0 PUSH1 0x20 DUP3 ADD SWAP1 POP DUP2 DUP2 SUB PUSH0 DUP4 ADD MSTORE PUSH2 0x39F1 DUP2 PUSH2 0x39B8 JUMP JUMPDEST SWAP1 POP SWAP2 SWAP1 POP JUMP JUMPDEST PUSH32 0x4E487B7100000000000000000000000000000000000000000000000000000000 PUSH0 MSTORE PUSH1 0x11 PUSH1 0x4 MSTORE PUSH1 0x24 PUSH0 REVERT JUMPDEST PUSH0 PUSH2 0x3A2F DUP3 PUSH2 0x32A6 JUMP JUMPDEST SWAP2 POP PUSH2 0x3A3A DUP4 PUSH2 0x32A6 JUMP JUMPDEST SWAP3 POP DUP3 DUP3 MUL PUSH2 0x3A48 DUP2 PUSH2 0x32A6 JUMP JUMPDEST SWAP2 POP DUP3 DUP3 DIV DUP5 EQ DUP4 ISZERO OR PUSH2 0x3A5F JUMPI PUSH2 0x3A5E PUSH2 0x39F8 JUMP JUMPDEST JUMPDEST POP SWAP3 SWAP2 POP POP JUMP JUMPDEST PUSH32 0x496E73756666696369656E74207061796D656E74000000000000000000000000 PUSH0 DUP3 ADD MSTORE POP JUMP JUMPDEST PUSH0 PUSH2 0x3A9A PUSH1 0x14 DUP4 PUSH2 0x31A8 JUMP JUMPDEST SWAP2 POP PUSH2 0x3AA5 DUP3 PUSH2 0x3A66 JUMP JUMPDEST PUSH1 0x20 DUP3 ADD SWAP1 POP SWAP2 SWAP1 POP JUMP JUMPDEST PUSH0 PUSH1 0x20 DUP3 ADD SWAP1 POP DUP2 DUP2 SUB PUSH0 DUP4 ADD MSTORE PUSH2 0x3AC7 DUP2 PUSH2 0x3A8E JUMP JUMPDEST SWAP1 POP SWAP2 SWAP1 POP JUMP JUMPDEST PUSH0 PUSH2 0x3AD8 DUP3 PUSH2 0x32A6 JUMP JUMPDEST SWAP2 POP PUSH2 0x3AE3 DUP4 PUSH2 0x32A6 JUMP JUMPDEST SWAP3 POP DUP3 DUP3 ADD SWAP1 POP DUP1 DUP3 GT ISZERO PUSH2 0x3AFB JUMPI PUSH2 0x3AFA PUSH2 0x39F8 JUMP JUMPDEST JUMPDEST SWAP3 SWAP2 POP POP JUMP JUMPDEST PUSH32 0x4552433230566F7465733A20667574757265206C6F6F6B757000000000000000 PUSH0 DUP3 ADD MSTORE POP JUMP JUMPDEST PUSH0 PUSH2 0x3B35 PUSH1 0x19 DUP4 PUSH2 0x31A8 JUMP JUMPDEST SWAP2 POP PUSH2 0x3B40 DUP3 PUSH2 0x3B01 JUMP JUMPDEST PUSH1 0x20 DUP3 ADD SWAP1 POP SWAP2 SWAP1 POP JUMP JUMPDEST PUSH0 PUSH1 0x20 DUP3 ADD SWAP1 POP DUP2 DUP2 SUB PUSH0 DUP4 ADD MSTORE PUSH2 0x3B62 DUP2 PUSH2 0x3B29 JUMP JUMPDEST SWAP1 POP SWAP2 SWAP1 POP JUMP JUMPDEST PUSH32 0x4552433230566F7465733A2062726F6B656E20636C6F636B206D6F6465000000 PUSH0 DUP3 ADD MSTORE POP JUMP JUMPDEST PUSH0 PUSH2 0x3B9D PUSH1 0x1D DUP4 PUSH2 0x31A8 JUMP JUMPDEST SWAP2 POP PUSH2 0x3BA8 DUP3 PUSH2 0x3B69 JUMP JUMPDEST PUSH1 0x20 DUP3 ADD SWAP1 POP SWAP2 SWAP1 POP JUMP JUMPDEST PUSH0 PUSH1 0x20 DUP3 ADD SWAP1 POP DUP2 DUP2 SUB PUSH0 DUP4 ADD MSTORE PUSH2 0x3BCA DUP2 PUSH2 0x3B91 JUMP JUMPDEST SWAP1 POP SWAP2 SWAP1 POP JUMP JUMPDEST PUSH32 0x496E73756666696369656E742062616C616E6365000000000000000000000000 PUSH0 DUP3 ADD MSTORE POP JUMP JUMPDEST PUSH0 PUSH2 0x3C05 PUSH1 0x14 DUP4 PUSH2 0x31A8 JUMP JUMPDEST SWAP2 POP PUSH2 0x3C10 DUP3 PUSH2 0x3BD1 JUMP JUMPDEST PUSH1 0x20 DUP3 ADD SWAP1 POP SWAP2 SWAP1 POP JUMP JUMPDEST PUSH0 PUSH1 0x20 DUP3 ADD SWAP1 POP DUP2 DUP2 SUB PUSH0 DUP4 ADD MSTORE PUSH2 0x3C32 DUP2 PUSH2 0x3BF9 JUMP JUMPDEST SWAP1 POP SWAP2 SWAP1 POP JUMP JUMPDEST PUSH32 0x4E487B7100000000000000000000000000000000000000000000000000000000 PUSH0 MSTORE PUSH1 0x41 PUSH1 0x4 MSTORE PUSH1 0x24 PUSH0 REVERT JUMPDEST PUSH32 0x4E487B7100000000000000000000000000000000000000000000000000000000 PUSH0 MSTORE PUSH1 0x32 PUSH1 0x4 MSTORE PUSH1 0x24 PUSH0 REVERT JUMPDEST PUSH32 0x45524332303A2064656372656173656420616C6C6F77616E63652062656C6F77 PUSH0 DUP3 ADD MSTORE PUSH32 0x207A65726F000000000000000000000000000000000000000000000000000000 PUSH1 0x20 DUP3 ADD MSTORE POP JUMP JUMPDEST PUSH0 PUSH2 0x3CED PUSH1 0x25 DUP4 PUSH2 0x31A8 JUMP JUMPDEST SWAP2 POP PUSH2 0x3CF8 DUP3 PUSH2 0x3C93 JUMP JUMPDEST PUSH1 0x40 DUP3 ADD SWAP1 POP SWAP2 SWAP1 POP JUMP JUMPDEST PUSH0 PUSH1 0x20 DUP3 ADD SWAP1 POP DUP2 DUP2 SUB PUSH0 DUP4 ADD MSTORE PUSH2 0x3D1A DUP2 PUSH2 0x3CE1 JUMP JUMPDEST SWAP1 POP SWAP2 SWAP1 POP JUMP JUMPDEST PUSH32 0x4552433230566F7465733A207369676E61747572652065787069726564000000 PUSH0 DUP3 ADD MSTORE POP JUMP JUMPDEST PUSH0 PUSH2 0x3D55 PUSH1 0x1D DUP4 PUSH2 0x31A8 JUMP JUMPDEST SWAP2 POP PUSH2 0x3D60 DUP3 PUSH2 0x3D21 JUMP JUMPDEST PUSH1 0x20 DUP3 ADD SWAP1 POP SWAP2 SWAP1 POP JUMP JUMPDEST PUSH0 PUSH1 0x20 DUP3 ADD SWAP1 POP DUP2 DUP2 SUB PUSH0 DUP4 ADD MSTORE PUSH2 0x3D82 DUP2 PUSH2 0x3D49 JUMP JUMPDEST SWAP1 POP SWAP2 SWAP1 POP JUMP JUMPDEST PUSH0 PUSH1 0x80 DUP3 ADD SWAP1 POP PUSH2 0x3D9C PUSH0 DUP4 ADD DUP8 PUSH2 0x342A JUMP JUMPDEST PUSH2 0x3DA9 PUSH1 0x20 DUP4 ADD DUP7 PUSH2 0x347D JUMP JUMPDEST PUSH2 0x3DB6 PUSH1 0x40 DUP4 ADD DUP6 PUSH2 0x334A JUMP JUMPDEST PUSH2 0x3DC3 PUSH1 0x60 DUP4 ADD DUP5 PUSH2 0x334A JUMP JUMPDEST SWAP6 SWAP5 POP POP POP POP POP JUMP JUMPDEST PUSH32 0x4552433230566F7465733A20696E76616C6964206E6F6E636500000000000000 PUSH0 DUP3 ADD MSTORE POP JUMP JUMPDEST PUSH0 PUSH2 0x3E00 PUSH1 0x19 DUP4 PUSH2 0x31A8 JUMP JUMPDEST SWAP2 POP PUSH2 0x3E0B DUP3 PUSH2 0x3DCC JUMP JUMPDEST PUSH1 0x20 DUP3 ADD SWAP1 POP SWAP2 SWAP1 POP JUMP JUMPDEST PUSH0 PUSH1 0x20 DUP3 ADD SWAP1 POP DUP2 DUP2 SUB PUSH0 DUP4 ADD MSTORE PUSH2 0x3E2D DUP2 PUSH2 0x3DF4 JUMP JUMPDEST SWAP1 POP SWAP2 SWAP1 POP JUMP JUMPDEST PUSH32 0x45524332305065726D69743A206578706972656420646561646C696E65000000 PUSH0 DUP3 ADD MSTORE POP JUMP JUMPDEST PUSH0 PUSH2 0x3E68 PUSH1 0x1D DUP4 PUSH2 0x31A8 JUMP JUMPDEST SWAP2 POP PUSH2 0x3E73 DUP3 PUSH2 0x3E34 JUMP JUMPDEST PUSH1 0x20 DUP3 ADD SWAP1 POP SWAP2 SWAP1 POP JUMP JUMPDEST PUSH0 PUSH1 0x20 DUP3 ADD SWAP1 POP DUP2 DUP2 SUB PUSH0 DUP4 ADD MSTORE PUSH2 0x3E95 DUP2 PUSH2 0x3E5C JUMP JUMPDEST SWAP1 POP SWAP2 SWAP1 POP JUMP JUMPDEST PUSH0 PUSH1 0xC0 DUP3 ADD SWAP1 POP PUSH2 0x3EAF PUSH0 DUP4 ADD DUP10 PUSH2 0x342A JUMP JUMPDEST PUSH2 0x3EBC PUSH1 0x20 DUP4 ADD DUP9 PUSH2 0x347D JUMP JUMPDEST PUSH2 0x3EC9 PUSH1 0x40 DUP4 ADD DUP8 PUSH2 0x347D JUMP JUMPDEST PUSH2 0x3ED6 PUSH1 0x60 DUP4 ADD DUP7 PUSH2 0x334A JUMP JUMPDEST PUSH2 0x3EE3 PUSH1 0x80 DUP4 ADD DUP6 PUSH2 0x334A JUMP JUMPDEST PUSH2 0x3EF0 PUSH1 0xA0 DUP4 ADD DUP5 PUSH2 0x334A JUMP JUMPDEST SWAP8 SWAP7 POP POP POP POP POP POP POP JUMP JUMPDEST PUSH32 0x45524332305065726D69743A20696E76616C6964207369676E61747572650000 PUSH0 DUP3 ADD MSTORE POP JUMP JUMPDEST PUSH0 PUSH2 0x3F2F PUSH1 0x1E DUP4 PUSH2 0x31A8 JUMP JUMPDEST SWAP2 POP PUSH2 0x3F3A DUP3 PUSH2 0x3EFB JUMP JUMPDEST PUSH1 0x20 DUP3 ADD SWAP1 POP SWAP2 SWAP1 POP JUMP JUMPDEST PUSH0 PUSH1 0x20 DUP3 ADD SWAP1 POP DUP2 DUP2 SUB PUSH0 DUP4 ADD MSTORE PUSH2 0x3F5C DUP2 PUSH2 0x3F23 JUMP JUMPDEST SWAP1 POP SWAP2 SWAP1 POP JUMP JUMPDEST PUSH32 0x4F776E61626C653A206E6577206F776E657220697320746865207A65726F2061 PUSH0 DUP3 ADD MSTORE PUSH32 0x6464726573730000000000000000000000000000000000000000000000000000 PUSH1 0x20 DUP3 ADD MSTORE POP JUMP JUMPDEST PUSH0 PUSH2 0x3FBD PUSH1 0x26 DUP4 PUSH2 0x31A8 JUMP JUMPDEST SWAP2 POP PUSH2 0x3FC8 DUP3 PUSH2 0x3F63 JUMP JUMPDEST PUSH1 0x40 DUP3 ADD SWAP1 POP SWAP2 SWAP1 POP JUMP JUMPDEST PUSH0 PUSH1 0x20 DUP3 ADD SWAP1 POP DUP2 DUP2 SUB PUSH0 DUP4 ADD MSTORE PUSH2 0x3FEA DUP2 PUSH2 0x3FB1 JUMP JUMPDEST SWAP1 POP SWAP2 SWAP1 POP JUMP JUMPDEST PUSH0 PUSH2 0x3FFB DUP3 PUSH2 0x32A6 JUMP JUMPDEST SWAP2 POP PUSH2 0x4006 DUP4 PUSH2 0x32A6 JUMP JUMPDEST SWAP3 POP DUP3 DUP3 SUB SWAP1 POP DUP2 DUP2 GT ISZERO PUSH2 0x401E JUMPI PUSH2 0x401D PUSH2 0x39F8 JUMP JUMPDEST JUMPDEST SWAP3 SWAP2 POP POP JUMP JUMPDEST PUSH32 0x45524332303A20617070726F76652066726F6D20746865207A65726F20616464 PUSH0 DUP3 ADD MSTORE PUSH32 0x7265737300000000000000000000000000000000000000000000000000000000 PUSH1 0x20 DUP3 ADD MSTORE POP JUMP JUMPDEST PUSH0 PUSH2 0x407E PUSH1 0x24 DUP4 PUSH2 0x31A8 JUMP JUMPDEST SWAP2 POP PUSH2 0x4089 DUP3 PUSH2 0x4024 JUMP JUMPDEST PUSH1 0x40 DUP3 ADD SWAP1 POP SWAP2 SWAP1 POP JUMP JUMPDEST PUSH0 PUSH1 0x20 DUP3 ADD SWAP1 POP DUP2 DUP2 SUB PUSH0 DUP4 ADD MSTORE PUSH2 0x40AB DUP2 PUSH2 0x4072 JUMP JUMPDEST SWAP1 POP SWAP2 SWAP1 POP JUMP JUMPDEST PUSH32 0x45524332303A20617070726F766520746F20746865207A65726F206164647265 PUSH0 DUP3 ADD MSTORE PUSH32 0x7373000000000000000000000000000000000000000000000000000000000000 PUSH1 0x20 DUP3 ADD MSTORE POP JUMP JUMPDEST PUSH0 PUSH2 0x410C PUSH1 0x22 DUP4 PUSH2 0x31A8 JUMP JUMPDEST SWAP2 POP PUSH2 0x4117 DUP3 PUSH2 0x40B2 JUMP JUMPDEST PUSH1 0x40 DUP3 ADD SWAP1 POP SWAP2 SWAP1 POP JUMP JUMPDEST PUSH0 PUSH1 0x20 DUP3 ADD SWAP1 POP DUP2 DUP2 SUB PUSH0 DUP4 ADD MSTORE PUSH2 0x4139 DUP2 PUSH2 0x4100 JUMP JUMPDEST SWAP1 POP SWAP2 SWAP1 POP JUMP JUMPDEST PUSH32 0x45524332303A20696E73756666696369656E7420616C6C6F77616E6365000000 PUSH0 DUP3 ADD MSTORE POP JUMP JUMPDEST PUSH0 PUSH2 0x4174 PUSH1 0x1D DUP4 PUSH2 0x31A8 JUMP JUMPDEST SWAP2 POP PUSH2 0x417F DUP3 PUSH2 0x4140 JUMP JUMPDEST PUSH1 0x20 DUP3 ADD SWAP1 POP SWAP2 SWAP1 POP JUMP JUMPDEST PUSH0 PUSH1 0x20 DUP3 ADD SWAP1 POP DUP2 DUP2 SUB PUSH0 DUP4 ADD MSTORE PUSH2 0x41A1 DUP2 PUSH2 0x4168 JUMP JUMPDEST SWAP1 POP SWAP2 SWAP1 POP JUMP JUMPDEST PUSH32 0x45524332303A207472616E736665722066726F6D20746865207A65726F206164 PUSH0 DUP3 ADD MSTORE PUSH32 0x6472657373000000000000000000000000000000000000000000000000000000 PUSH1 0x20 DUP3 ADD MSTORE POP JUMP JUMPDEST PUSH0 PUSH2 0x4202 PUSH1 0x25 DUP4 PUSH2 0x31A8 JUMP JUMPDEST SWAP2 POP PUSH2 0x420D DUP3 PUSH2 0x41A8 JUMP JUMPDEST PUSH1 0x40 DUP3 ADD SWAP1 POP SWAP2 SWAP1 POP JUMP JUMPDEST PUSH0 PUSH1 0x20 DUP3 ADD SWAP1 POP DUP2 DUP2 SUB PUSH0 DUP4 ADD MSTORE PUSH2 0x422F DUP2 PUSH2 0x41F6 JUMP JUMPDEST SWAP1 POP SWAP2 SWAP1 POP JUMP JUMPDEST PUSH32 0x45524332303A207472616E7366657220746F20746865207A65726F2061646472 PUSH0 DUP3 ADD MSTORE PUSH32 0x6573730000000000000000000000000000000000000000000000000000000000 PUSH1 0x20 DUP3 ADD MSTORE POP JUMP JUMPDEST PUSH0 PUSH2 0x4290 PUSH1 0x23 DUP4 PUSH2 0x31A8 JUMP JUMPDEST SWAP2 POP PUSH2 0x429B DUP3 PUSH2 0x4236 JUMP JUMPDEST PUSH1 0x40 DUP3 ADD SWAP1 POP SWAP2 SWAP1 POP JUMP JUMPDEST PUSH0 PUSH1 0x20 DUP3 ADD SWAP1 POP DUP2 DUP2 SUB PUSH0 DUP4 ADD MSTORE PUSH2 0x42BD DUP2 PUSH2 0x4284 JUMP JUMPDEST SWAP1 POP SWAP2 SWAP1 POP JUMP JUMPDEST PUSH32 0x45524332303A207472616E7366657220616D6F756E7420657863656564732062 PUSH0 DUP3 ADD MSTORE PUSH32 0x616C616E63650000000000000000000000000000000000000000000000000000 PUSH1 0x20 DUP3 ADD MSTORE POP JUMP JUMPDEST PUSH0 PUSH2 0x431E PUSH1 0x26 DUP4 PUSH2 0x31A8 JUMP JUMPDEST SWAP2 POP PUSH2 0x4329 DUP3 PUSH2 0x42C4 JUMP JUMPDEST PUSH1 0x40 DUP3 ADD SWAP1 POP SWAP2 SWAP1 POP JUMP JUMPDEST PUSH0 PUSH1 0x20 DUP3 ADD SWAP1 POP DUP2 DUP2 SUB PUSH0 DUP4 ADD MSTORE PUSH2 0x434B DUP2 PUSH2 0x4312 JUMP JUMPDEST SWAP1 POP SWAP2 SWAP1 POP JUMP JUMPDEST PUSH32 0x4F776E61626C653A2063616C6C6572206973206E6F7420746865206F776E6572 PUSH0 DUP3 ADD MSTORE POP JUMP JUMPDEST PUSH0 PUSH2 0x4386 PUSH1 0x20 DUP4 PUSH2 0x31A8 JUMP JUMPDEST SWAP2 POP PUSH2 0x4391 DUP3 PUSH2 0x4352 JUMP JUMPDEST PUSH1 0x20 DUP3 ADD SWAP1 POP SWAP2 SWAP1 POP JUMP JUMPDEST PUSH0 PUSH1 0x20 DUP3 ADD SWAP1 POP DUP2 DUP2 SUB PUSH0 DUP4 ADD MSTORE PUSH2 0x43B3 DUP2 PUSH2 0x437A JUMP JUMPDEST SWAP1 POP SWAP2 SWAP1 POP JUMP JUMPDEST PUSH32 0x53616665436173743A2076616C756520646F65736E27742066697420696E2033 PUSH0 DUP3 ADD MSTORE PUSH32 0x3220626974730000000000000000000000000000000000000000000000000000 PUSH1 0x20 DUP3 ADD MSTORE POP JUMP JUMPDEST PUSH0 PUSH2 0x4414 PUSH1 0x26 DUP4 PUSH2 0x31A8 JUMP JUMPDEST SWAP2 POP PUSH2 0x441F DUP3 PUSH2 0x43BA JUMP JUMPDEST PUSH1 0x40 DUP3 ADD SWAP1 POP SWAP2 SWAP1 POP JUMP JUMPDEST PUSH0 PUSH1 0x20 DUP3 ADD SWAP1 POP DUP2 DUP2 SUB PUSH0 DUP4 ADD MSTORE PUSH2 0x4441 DUP2 PUSH2 0x4408 JUMP JUMPDEST SWAP1 POP SWAP2 SWAP1 POP JUMP JUMPDEST PUSH32 0x53616665436173743A2076616C756520646F65736E27742066697420696E2034 PUSH0 DUP3 ADD MSTORE PUSH32 0x3820626974730000000000000000000000000000000000000000000000000000 PUSH1 0x20 DUP3 ADD MSTORE POP JUMP JUMPDEST PUSH0 PUSH2 0x44A2 PUSH1 0x26 DUP4 PUSH2 0x31A8 JUMP JUMPDEST SWAP2 POP PUSH2 0x44AD DUP3 PUSH2 0x4448 JUMP JUMPDEST PUSH1 0x40 DUP3 ADD SWAP1 POP SWAP2 SWAP1 POP JUMP JUMPDEST PUSH0 PUSH1 0x20 DUP3 ADD SWAP1 POP DUP2 DUP2 SUB PUSH0 DUP4 ADD MSTORE PUSH2 0x44CF DUP2 PUSH2 0x4496 JUMP JUMPDEST SWAP1 POP SWAP2 SWAP1 POP JUMP JUMPDEST PUSH0 PUSH1 0xA0 DUP3 ADD SWAP1 POP PUSH2 0x44E9 PUSH0 DUP4 ADD DUP9 PUSH2 0x342A JUMP JUMPDEST PUSH2 0x44F6 PUSH1 0x20 DUP4 ADD DUP8 PUSH2 0x342A JUMP JUMPDEST PUSH2 0x4503 PUSH1 0x40 DUP4 ADD DUP7 PUSH2 0x342A JUMP JUMPDEST PUSH2 0x4510 PUSH1 0x60 DUP4 ADD DUP6 PUSH2 0x334A JUMP JUMPDEST PUSH2 0x451D PUSH1 0x80 DUP4 ADD DUP5 PUSH2 0x347D JUMP JUMPDEST SWAP7 SWAP6 POP POP POP POP POP POP JUMP JUMPDEST PUSH32 0x4E487B7100000000000000000000000000000000000000000000000000000000 PUSH0 MSTORE PUSH1 0x12 PUSH1 0x4 MSTORE PUSH1 0x24 PUSH0 REVERT JUMPDEST PUSH0 PUSH2 0x455E DUP3 PUSH2 0x32A6 JUMP JUMPDEST SWAP2 POP PUSH2 0x4569 DUP4 PUSH2 0x32A6 JUMP JUMPDEST SWAP3 POP DUP3 PUSH2 0x4579 JUMPI PUSH2 0x4578 PUSH2 0x4527 JUMP JUMPDEST JUMPDEST DUP3 DUP3 DIV SWAP1 POP SWAP3 SWAP2 POP POP JUMP JUMPDEST PUSH32 0x4552433230566F7465733A20746F74616C20737570706C79207269736B73206F PUSH0 DUP3 ADD MSTORE PUSH32 0x766572666C6F77696E6720766F74657300000000000000000000000000000000 PUSH1 0x20 DUP3 ADD MSTORE POP JUMP JUMPDEST PUSH0 PUSH2 0x45DE PUSH1 0x30 DUP4 PUSH2 0x31A8 JUMP JUMPDEST SWAP2 POP PUSH2 0x45E9 DUP3 PUSH2 0x4584 JUMP JUMPDEST PUSH1 0x40 DUP3 ADD SWAP1 POP SWAP2 SWAP1 POP JUMP JUMPDEST PUSH0 PUSH1 0x20 DUP3 ADD SWAP1 POP DUP2 DUP2 SUB PUSH0 DUP4 ADD MSTORE PUSH2 0x460B DUP2 PUSH2 0x45D2 JUMP JUMPDEST SWAP1 POP SWAP2 SWAP1 POP JUMP JUMPDEST PUSH0 PUSH1 0x40 DUP3 ADD SWAP1 POP PUSH2 0x4625 PUSH0 DUP4 ADD DUP6 PUSH2 0x334A JUMP JUMPDEST PUSH2 0x4632 PUSH1 0x20 DUP4 ADD DUP5 PUSH2 0x334A JUMP JUMPDEST SWAP4 SWAP3 POP POP POP JUMP JUMPDEST PUSH0 PUSH1 0x80 DUP3 ADD SWAP1 POP PUSH2 0x464C PUSH0 DUP4 ADD DUP8 PUSH2 0x342A JUMP JUMPDEST PUSH2 0x4659 PUSH1 0x20 DUP4 ADD DUP7 PUSH2 0x33CE JUMP JUMPDEST PUSH2 0x4666 PUSH1 0x40 DUP4 ADD DUP6 PUSH2 0x342A JUMP JUMPDEST PUSH2 0x4673 PUSH1 0x60 DUP4 ADD DUP5 PUSH2 0x342A JUMP JUMPDEST SWAP6 SWAP5 POP POP POP POP POP JUMP JUMPDEST PUSH32 0x4E487B7100000000000000000000000000000000000000000000000000000000 PUSH0 MSTORE PUSH1 0x21 PUSH1 0x4 MSTORE PUSH1 0x24 PUSH0 REVERT JUMPDEST PUSH32 0x45434453413A20696E76616C6964207369676E61747572650000000000000000 PUSH0 DUP3 ADD MSTORE POP JUMP JUMPDEST PUSH0 PUSH2 0x46DD PUSH1 0x18 DUP4 PUSH2 0x31A8 JUMP JUMPDEST SWAP2 POP PUSH2 0x46E8 DUP3 PUSH2 0x46A9 JUMP JUMPDEST PUSH1 0x20 DUP3 ADD SWAP1 POP SWAP2 SWAP1 POP JUMP JUMPDEST PUSH0 PUSH1 0x20 DUP3 ADD SWAP1 POP DUP2 DUP2 SUB PUSH0 DUP4 ADD MSTORE PUSH2 0x470A DUP2 PUSH2 0x46D1 JUMP JUMPDEST SWAP1 POP SWAP2 SWAP1 POP JUMP JUMPDEST PUSH32 0x45434453413A20696E76616C6964207369676E6174757265206C656E67746800 PUSH0 DUP3 ADD MSTORE POP JUMP JUMPDEST PUSH0 PUSH2 0x4745 PUSH1 0x1F DUP4 PUSH2 0x31A8 JUMP JUMPDEST SWAP2 POP PUSH2 0x4750 DUP3 PUSH2 0x4711 JUMP JUMPDEST PUSH1 0x20 DUP3 ADD SWAP1 POP SWAP2 SWAP1 POP JUMP JUMPDEST PUSH0 PUSH1 0x20 DUP3 ADD SWAP1 POP DUP2 DUP2 SUB PUSH0 DUP4 ADD MSTORE PUSH2 0x4772 DUP2 PUSH2 0x4739 JUMP JUMPDEST SWAP1 POP SWAP2 SWAP1 POP JUMP JUMPDEST PUSH32 0x45434453413A20696E76616C6964207369676E6174757265202773272076616C PUSH0 DUP3 ADD MSTORE PUSH32 0x7565000000000000000000000000000000000000000000000000000000000000 PUSH1 0x20 DUP3 ADD MSTORE POP JUMP JUMPDEST PUSH0 PUSH2 0x47D3 PUSH1 0x22 DUP4 PUSH2 0x31A8 JUMP JUMPDEST SWAP2 POP PUSH2 0x47DE DUP3 PUSH2 0x4779 JUMP JUMPDEST PUSH1 0x40 DUP3 ADD SWAP1 POP SWAP2 SWAP1 POP JUMP JUMPDEST PUSH0 PUSH1 0x20 DUP3 ADD SWAP1 POP DUP2 DUP2 SUB PUSH0 DUP4 ADD MSTORE PUSH2 0x4800 DUP2 PUSH2 0x47C7 JUMP JUMPDEST SWAP1 POP SWAP2 SWAP1 POP JUMP JUMPDEST PUSH32 0x45524332303A206D696E7420746F20746865207A65726F206164647265737300 PUSH0 DUP3 ADD MSTORE POP JUMP JUMPDEST PUSH0 PUSH2 0x483B PUSH1 0x1F DUP4 PUSH2 0x31A8 JUMP JUMPDEST SWAP2 POP PUSH2 0x4846 DUP3 PUSH2 0x4807 JUMP JUMPDEST PUSH1 0x20 DUP3 ADD SWAP1 POP SWAP2 SWAP1 POP JUMP JUMPDEST PUSH0 PUSH1 0x20 DUP3 ADD SWAP1 POP DUP2 DUP2 SUB PUSH0 DUP4 ADD MSTORE PUSH2 0x4868 DUP2 PUSH2 0x482F JUMP JUMPDEST SWAP1 POP SWAP2 SWAP1 POP JUMP JUMPDEST PUSH32 0x45524332303A206275726E2066726F6D20746865207A65726F20616464726573 PUSH0 DUP3 ADD MSTORE PUSH32 0x7300000000000000000000000000000000000000000000000000000000000000 PUSH1 0x20 DUP3 ADD MSTORE POP JUMP JUMPDEST PUSH0 PUSH2 0x48C9 PUSH1 0x21 DUP4 PUSH2 0x31A8 JUMP JUMPDEST SWAP2 POP PUSH2 0x48D4 DUP3 PUSH2 0x486F JUMP JUMPDEST PUSH1 0x40 DUP3 ADD SWAP1 POP SWAP2 SWAP1 POP JUMP JUMPDEST PUSH0 PUSH1 0x20 DUP3 ADD SWAP1 POP DUP2 DUP2 SUB PUSH0 DUP4 ADD MSTORE PUSH2 0x48F6 DUP2 PUSH2 0x48BD JUMP JUMPDEST SWAP1 POP SWAP2 SWAP1 POP JUMP JUMPDEST PUSH32 0x45524332303A206275726E20616D6F756E7420657863656564732062616C616E PUSH0 DUP3 ADD MSTORE PUSH32 0x6365000000000000000000000000000000000000000000000000000000000000 PUSH1 0x20 DUP3 ADD MSTORE POP JUMP JUMPDEST PUSH0 PUSH2 0x4957 PUSH1 0x22 DUP4 PUSH2 0x31A8 JUMP JUMPDEST SWAP2 POP PUSH2 0x4962 DUP3 PUSH2 0x48FD JUMP JUMPDEST PUSH1 0x40 DUP3 ADD SWAP1 POP SWAP2 SWAP1 POP JUMP JUMPDEST PUSH0 PUSH1 0x20 DUP3 ADD SWAP1 POP DUP2 DUP2 SUB PUSH0 DUP4 ADD MSTORE PUSH2 0x4984 DUP2 PUSH2 0x494B JUMP JUMPDEST SWAP1 POP SWAP2 SWAP1 POP JUMP JUMPDEST PUSH32 0x53616665436173743A2076616C756520646F65736E27742066697420696E2032 PUSH0 DUP3 ADD MSTORE PUSH32 0x3234206269747300000000000000000000000000000000000000000000000000 PUSH1 0x20 DUP3 ADD MSTORE POP JUMP JUMPDEST PUSH0 PUSH2 0x49E5 PUSH1 0x27 DUP4 PUSH2 0x31A8 JUMP JUMPDEST SWAP2 POP PUSH2 0x49F0 DUP3 PUSH2 0x498B JUMP JUMPDEST PUSH1 0x40 DUP3 ADD SWAP1 POP SWAP2 SWAP1 POP JUMP JUMPDEST PUSH0 PUSH1 0x20 DUP3 ADD SWAP1 POP DUP2 DUP2 SUB PUSH0 DUP4 ADD MSTORE PUSH2 0x4A12 DUP2 PUSH2 0x49D9 JUMP JUMPDEST SWAP1 POP SWAP2 SWAP1 POP JUMP INVALID LOG2 PUSH5 0x6970667358 0x22 SLT KECCAK256 PUSH27 0x5BE4160258882F5FECC5AD1DB2806F110EBB550DE2DFDF399E1AED 0xD0 DUP11 0xBA SWAP2 PUSH5 0x736F6C6343 STOP ADDMOD XOR STOP CALLER "
		},
		"gasEstimates": {
			"creation": {
				"codeDepositCost": "3804600",
				"executionCost": "infinite",
				"totalCost": "infinite"
			},
			"external": {
				"CLOCK_MODE()": "infinite",
				"DOMAIN_SEPARATOR()": "infinite",
				"allowance(address,address)": "infinite",
				"approve(address,uint256)": "infinite",
				"balanceOf(address)": "2897",
				"burn(uint256)": "infinite",
				"burnFrom(address,uint256)": "infinite",
				"buyTokens(uint256)": "infinite",
				"checkpoints(address,uint32)": "infinite",
				"clock()": "631",
				"decimals()": "384",
				"decreaseAllowance(address,uint256)": "infinite",
				"delegate(address)": "infinite",
				"delegateBySig(address,uint256,uint256,uint8,bytes32,bytes32)": "infinite",
				"delegates(address)": "infinite",
				"eip712Domain()": "infinite",
				"getPastTotalSupply(uint256)": "infinite",
				"getPastVotes(address,uint256)": "infinite",
				"getTokenPrice()": "2544",
				"getVotes(address)": "7419",
				"increaseAllowance(address,uint256)": "infinite",
				"mint(address,uint256)": "infinite",
				"name()": "infinite",
				"nonces(address)": "2921",
				"numCheckpoints(address)": "3045",
				"owner()": "2604",
				"permit(address,address,uint256,uint256,uint8,bytes32,bytes32)": "infinite",
				"renounceOwnership()": "30480",
				"sellTokens(uint256)": "infinite",
				"setTokenPrice(uint256)": "24887",
				"symbol()": "infinite",
				"totalSupply()": "2523",
				"transfer(address,uint256)": "infinite",
				"transferFrom(address,address,uint256)": "infinite",
				"transferOwnership(address)": "30863"
			},
			"internal": {
				"_afterTokenTransfer(address,address,uint256)": "infinite",
				"_burn(address,uint256)": "infinite",
				"_mint(address,uint256)": "infinite"
			}
		},
		"methodIdentifiers": {
			"CLOCK_MODE()": "4bf5d7e9",
			"DOMAIN_SEPARATOR()": "3644e515",
			"allowance(address,address)": "dd62ed3e",
			"approve(address,uint256)": "095ea7b3",
			"balanceOf(address)": "70a08231",
			"burn(uint256)": "42966c68",
			"burnFrom(address,uint256)": "79cc6790",
			"buyTokens(uint256)": "3610724e",
			"checkpoints(address,uint32)": "f1127ed8",
			"clock()": "91ddadf4",
			"decimals()": "313ce567",
			"decreaseAllowance(address,uint256)": "a457c2d7",
			"delegate(address)": "5c19a95c",
			"delegateBySig(address,uint256,uint256,uint8,bytes32,bytes32)": "c3cda520",
			"delegates(address)": "587cde1e",
			"eip712Domain()": "84b0196e",
			"getPastTotalSupply(uint256)": "8e539e8c",
			"getPastVotes(address,uint256)": "3a46b1a8",
			"getTokenPrice()": "4b94f50e",
			"getVotes(address)": "9ab24eb0",
			"increaseAllowance(address,uint256)": "39509351",
			"mint(address,uint256)": "40c10f19",
			"name()": "06fdde03",
			"nonces(address)": "7ecebe00",
			"numCheckpoints(address)": "6fcfff45",
			"owner()": "8da5cb5b",
			"permit(address,address,uint256,uint256,uint8,bytes32,bytes32)": "d505accf",
			"renounceOwnership()": "715018a6",
			"sellTokens(uint256)": "6c11bcd3",
			"setTokenPrice(uint256)": "6a61e5fc",
			"symbol()": "95d89b41",
			"totalSupply()": "18160ddd",
			"transfer(address,uint256)": "a9059cbb",
			"transferFrom(address,address,uint256)": "23b872dd",
			"transferOwnership(address)": "f2fde38b"
		}
	},
	"abi": [
		{
			"inputs": [],
			"stateMutability": "nonpayable",
			"type": "constructor"
		},
		{
			"inputs": [],
			"name": "InvalidShortString",
			"type": "error"
		},
		{
			"inputs": [
				{
					"internalType": "string",
					"name": "str",
					"type": "string"
				}
			],
			"name": "StringTooLong",
			"type": "error"
		},
		{
			"anonymous": false,
			"inputs": [
				{
					"indexed": true,
					"internalType": "address",
					"name": "owner",
					"type": "address"
				},
				{
					"indexed": true,
					"internalType": "address",
					"name": "spender",
					"type": "address"
				},
				{
					"indexed": false,
					"internalType": "uint256",
					"name": "value",
					"type": "uint256"
				}
			],
			"name": "Approval",
			"type": "event"
		},
		{
			"anonymous": false,
			"inputs": [
				{
					"indexed": true,
					"internalType": "address",
					"name": "delegator",
					"type": "address"
				},
				{
					"indexed": true,
					"internalType": "address",
					"name": "fromDelegate",
					"type": "address"
				},
				{
					"indexed": true,
					"internalType": "address",
					"name": "toDelegate",
					"type": "address"
				}
			],
			"name": "DelegateChanged",
			"type": "event"
		},
		{
			"anonymous": false,
			"inputs": [
				{
					"indexed": true,
					"internalType": "address",
					"name": "delegate",
					"type": "address"
				},
				{
					"indexed": false,
					"internalType": "uint256",
					"name": "previousBalance",
					"type": "uint256"
				},
				{
					"indexed": false,
					"internalType": "uint256",
					"name": "newBalance",
					"type": "uint256"
				}
			],
			"name": "DelegateVotesChanged",
			"type": "event"
		},
		{
			"anonymous": false,
			"inputs": [],
			"name": "EIP712DomainChanged",
			"type": "event"
		},
		{
			"anonymous": false,
			"inputs": [
				{
					"indexed": true,
					"internalType": "address",
					"name": "previousOwner",
					"type": "address"
				},
				{
					"indexed": true,
					"internalType": "address",
					"name": "newOwner",
					"type": "address"
				}
			],
			"name": "OwnershipTransferred",
			"type": "event"
		},
		{
			"anonymous": false,
			"inputs": [
				{
					"indexed": true,
					"internalType": "address",
					"name": "from",
					"type": "address"
				},
				{
					"indexed": true,
					"internalType": "address",
					"name": "to",
					"type": "address"
				},
				{
					"indexed": false,
					"internalType": "uint256",
					"name": "value",
					"type": "uint256"
				}
			],
			"name": "Transfer",
			"type": "event"
		},
		{
			"inputs": [],
			"name": "CLOCK_MODE",
			"outputs": [
				{
					"internalType": "string",
					"name": "",
					"type": "string"
				}
			],
			"stateMutability": "view",
			"type": "function"
		},
		{
			"inputs": [],
			"name": "DOMAIN_SEPARATOR",
			"outputs": [
				{
					"internalType": "bytes32",
					"name": "",
					"type": "bytes32"
				}
			],
			"stateMutability": "view",
			"type": "function"
		},
		{
			"inputs": [
				{
					"internalType": "address",
					"name": "owner",
					"type": "address"
				},
				{
					"internalType": "address",
					"name": "spender",
					"type": "address"
				}
			],
			"name": "allowance",
			"outputs": [
				{
					"internalType": "uint256",
					"name": "",
					"type": "uint256"
				}
			],
			"stateMutability": "view",
			"type": "function"
		},
		{
			"inputs": [
				{
					"internalType": "address",
					"name": "spender",
					"type": "address"
				},
				{
					"internalType": "uint256",
					"name": "amount",
					"type": "uint256"
				}
			],
			"name": "approve",
			"outputs": [
				{
					"internalType": "bool",
					"name": "",
					"type": "bool"
				}
			],
			"stateMutability": "nonpayable",
			"type": "function"
		},
		{
			"inputs": [
				{
					"internalType": "address",
					"name": "account",
					"type": "address"
				}
			],
			"name": "balanceOf",
			"outputs": [
				{
					"internalType": "uint256",
					"name": "",
					"type": "uint256"
				}
			],
			"stateMutability": "view",
			"type": "function"
		},
		{
			"inputs": [
				{
					"internalType": "uint256",
					"name": "amount",
					"type": "uint256"
				}
			],
			"name": "burn",
			"outputs": [],
			"stateMutability": "nonpayable",
			"type": "function"
		},
		{
			"inputs": [
				{
					"internalType": "address",
					"name": "account",
					"type": "address"
				},
				{
					"internalType": "uint256",
					"name": "amount",
					"type": "uint256"
				}
			],
			"name": "burnFrom",
			"outputs": [],
			"stateMutability": "nonpayable",
			"type": "function"
		},
		{
			"inputs": [
				{
					"internalType": "uint256",
					"name": "amount",
					"type": "uint256"
				}
			],
			"name": "buyTokens",
			"outputs": [],
			"stateMutability": "payable",
			"type": "function"
		},
		{
			"inputs": [
				{
					"internalType": "address",
					"name": "account",
					"type": "address"
				},
				{
					"internalType": "uint32",
					"name": "pos",
					"type": "uint32"
				}
			],
			"name": "checkpoints",
			"outputs": [
				{
					"components": [
						{
							"internalType": "uint32",
							"name": "fromBlock",
							"type": "uint32"
						},
						{
							"internalType": "uint224",
							"name": "votes",
							"type": "uint224"
						}
					],
					"internalType": "struct ERC20Votes.Checkpoint",
					"name": "",
					"type": "tuple"
				}
			],
			"stateMutability": "view",
			"type": "function"
		},
		{
			"inputs": [],
			"name": "clock",
			"outputs": [
				{
					"internalType": "uint48",
					"name": "",
					"type": "uint48"
				}
			],
			"stateMutability": "view",
			"type": "function"
		},
		{
			"inputs": [],
			"name": "decimals",
			"outputs": [
				{
					"internalType": "uint8",
					"name": "",
					"type": "uint8"
				}
			],
			"stateMutability": "view",
			"type": "function"
		},
		{
			"inputs": [
				{
					"internalType": "address",
					"name": "spender",
					"type": "address"
				},
				{
					"internalType": "uint256",
					"name": "subtractedValue",
					"type": "uint256"
				}
			],
			"name": "decreaseAllowance",
			"outputs": [
				{
					"internalType": "bool",
					"name": "",
					"type": "bool"
				}
			],
			"stateMutability": "nonpayable",
			"type": "function"
		},
		{
			"inputs": [
				{
					"internalType": "address",
					"name": "delegatee",
					"type": "address"
				}
			],
			"name": "delegate",
			"outputs": [],
			"stateMutability": "nonpayable",
			"type": "function"
		},
		{
			"inputs": [
				{
					"internalType": "address",
					"name": "delegatee",
					"type": "address"
				},
				{
					"internalType": "uint256",
					"name": "nonce",
					"type": "uint256"
				},
				{
					"internalType": "uint256",
					"name": "expiry",
					"type": "uint256"
				},
				{
					"internalType": "uint8",
					"name": "v",
					"type": "uint8"
				},
				{
					"internalType": "bytes32",
					"name": "r",
					"type": "bytes32"
				},
				{
					"internalType": "bytes32",
					"name": "s",
					"type": "bytes32"
				}
			],
			"name": "delegateBySig",
			"outputs": [],
			"stateMutability": "nonpayable",
			"type": "function"
		},
		{
			"inputs": [
				{
					"internalType": "address",
					"name": "account",
					"type": "address"
				}
			],
			"name": "delegates",
			"outputs": [
				{
					"internalType": "address",
					"name": "",
					"type": "address"
				}
			],
			"stateMutability": "view",
			"type": "function"
		},
		{
			"inputs": [],
			"name": "eip712Domain",
			"outputs": [
				{
					"internalType": "bytes1",
					"name": "fields",
					"type": "bytes1"
				},
				{
					"internalType": "string",
					"name": "name",
					"type": "string"
				},
				{
					"internalType": "string",
					"name": "version",
					"type": "string"
				},
				{
					"internalType": "uint256",
					"name": "chainId",
					"type": "uint256"
				},
				{
					"internalType": "address",
					"name": "verifyingContract",
					"type": "address"
				},
				{
					"internalType": "bytes32",
					"name": "salt",
					"type": "bytes32"
				},
				{
					"internalType": "uint256[]",
					"name": "extensions",
					"type": "uint256[]"
				}
			],
			"stateMutability": "view",
			"type": "function"
		},
		{
			"inputs": [
				{
					"internalType": "uint256",
					"name": "timepoint",
					"type": "uint256"
				}
			],
			"name": "getPastTotalSupply",
			"outputs": [
				{
					"internalType": "uint256",
					"name": "",
					"type": "uint256"
				}
			],
			"stateMutability": "view",
			"type": "function"
		},
		{
			"inputs": [
				{
					"internalType": "address",
					"name": "account",
					"type": "address"
				},
				{
					"internalType": "uint256",
					"name": "timepoint",
					"type": "uint256"
				}
			],
			"name": "getPastVotes",
			"outputs": [
				{
					"internalType": "uint256",
					"name": "",
					"type": "uint256"
				}
			],
			"stateMutability": "view",
			"type": "function"
		},
		{
			"inputs": [],
			"name": "getTokenPrice",
			"outputs": [
				{
					"internalType": "uint256",
					"name": "",
					"type": "uint256"
				}
			],
			"stateMutability": "view",
			"type": "function"
		},
		{
			"inputs": [
				{
					"internalType": "address",
					"name": "account",
					"type": "address"
				}
			],
			"name": "getVotes",
			"outputs": [
				{
					"internalType": "uint256",
					"name": "",
					"type": "uint256"
				}
			],
			"stateMutability": "view",
			"type": "function"
		},
		{
			"inputs": [
				{
					"internalType": "address",
					"name": "spender",
					"type": "address"
				},
				{
					"internalType": "uint256",
					"name": "addedValue",
					"type": "uint256"
				}
			],
			"name": "increaseAllowance",
			"outputs": [
				{
					"internalType": "bool",
					"name": "",
					"type": "bool"
				}
			],
			"stateMutability": "nonpayable",
			"type": "function"
		},
		{
			"inputs": [
				{
					"internalType": "address",
					"name": "to",
					"type": "address"
				},
				{
					"internalType": "uint256",
					"name": "amount",
					"type": "uint256"
				}
			],
			"name": "mint",
			"outputs": [],
			"stateMutability": "nonpayable",
			"type": "function"
		},
		{
			"inputs": [],
			"name": "name",
			"outputs": [
				{
					"internalType": "string",
					"name": "",
					"type": "string"
				}
			],
			"stateMutability": "view",
			"type": "function"
		},
		{
			"inputs": [
				{
					"internalType": "address",
					"name": "owner",
					"type": "address"
				}
			],
			"name": "nonces",
			"outputs": [
				{
					"internalType": "uint256",
					"name": "",
					"type": "uint256"
				}
			],
			"stateMutability": "view",
			"type": "function"
		},
		{
			"inputs": [
				{
					"internalType": "address",
					"name": "account",
					"type": "address"
				}
			],
			"name": "numCheckpoints",
			"outputs": [
				{
					"internalType": "uint32",
					"name": "",
					"type": "uint32"
				}
			],
			"stateMutability": "view",
			"type": "function"
		},
		{
			"inputs": [],
			"name": "owner",
			"outputs": [
				{
					"internalType": "address",
					"name": "",
					"type": "address"
				}
			],
			"stateMutability": "view",
			"type": "function"
		},
		{
			"inputs": [
				{
					"internalType": "address",
					"name": "owner",
					"type": "address"
				},
				{
					"internalType": "address",
					"name": "spender",
					"type": "address"
				},
				{
					"internalType": "uint256",
					"name": "value",
					"type": "uint256"
				},
				{
					"internalType": "uint256",
					"name": "deadline",
					"type": "uint256"
				},
				{
					"internalType": "uint8",
					"name": "v",
					"type": "uint8"
				},
				{
					"internalType": "bytes32",
					"name": "r",
					"type": "bytes32"
				},
				{
					"internalType": "bytes32",
					"name": "s",
					"type": "bytes32"
				}
			],
			"name": "permit",
			"outputs": [],
			"stateMutability": "nonpayable",
			"type": "function"
		},
		{
			"inputs": [],
			"name": "renounceOwnership",
			"outputs": [],
			"stateMutability": "nonpayable",
			"type": "function"
		},
		{
			"inputs": [
				{
					"internalType": "uint256",
					"name": "amount",
					"type": "uint256"
				}
			],
			"name": "sellTokens",
			"outputs": [],
			"stateMutability": "nonpayable",
			"type": "function"
		},
		{
			"inputs": [
				{
					"internalType": "uint256",
					"name": "price",
					"type": "uint256"
				}
			],
			"name": "setTokenPrice",
			"outputs": [],
			"stateMutability": "nonpayable",
			"type": "function"
		},
		{
			"inputs": [],
			"name": "symbol",
			"outputs": [
				{
					"internalType": "string",
					"name": "",
					"type": "string"
				}
			],
			"stateMutability": "view",
			"type": "function"
		},
		{
			"inputs": [],
			"name": "totalSupply",
			"outputs": [
				{
					"internalType": "uint256",
					"name": "",
					"type": "uint256"
				}
			],
			"stateMutability": "view",
			"type": "function"
		},
		{
			"inputs": [
				{
					"internalType": "address",
					"name": "to",
					"type": "address"
				},
				{
					"internalType": "uint256",
					"name": "amount",
					"type": "uint256"
				}
			],
			"name": "transfer",
			"outputs": [
				{
					"internalType": "bool",
					"name": "",
					"type": "bool"
				}
			],
			"stateMutability": "nonpayable",
			"type": "function"
		},
		{
			"inputs": [
				{
					"internalType": "address",
					"name": "from",
					"type": "address"
				},
				{
					"internalType": "address",
					"name": "to",
					"type": "address"
				},
				{
					"internalType": "uint256",
					"name": "amount",
					"type": "uint256"
				}
			],
			"name": "transferFrom",
			"outputs": [
				{
					"internalType": "bool",
					"name": "",
					"type": "bool"
				}
			],
			"stateMutability": "nonpayable",
			"type": "function"
		},
		{
			"inputs": [
				{
					"internalType": "address",
					"name": "newOwner",
					"type": "address"
				}
			],
			"name": "transferOwnership",
			"outputs": [],
			"stateMutability": "nonpayable",
			"type": "function"
		}
	]
}