{
	"data": {
		"bytecode": {
			"linkReferences": {},
			"object": "61010060405234801562000011575f80fd5b506040518060400160405280601381526020017f53656d692046756e6769626c6520546f6b656e000000000000000000000000008152506040518060400160405280600481526020017f53454d490000000000000000000000000000000000000000000000000000000081525060128260029081620000919190620017cf565b508160039081620000a39190620017cf565b5060128160ff161015620000e3576040517f98790fd500000000000000000000000000000000000000000000000000000000815260040160405180910390fd5b8060ff1660808160ff1681525050608051600a62000102919062001a3c565b60a081815250504660c08181525050620001216200016760201b60201c565b60e081815250505050506200013e336001620001f660201b60201c565b620001613360a05161271062000155919062001a8c565b620002e460201b60201c565b62001df8565b5f7f8b73c3c69bb8fe3d512ecc4cf759cc79239f7b179b0ffacaa9a75d522b39400f60026040516200019a919062001b7e565b60405180910390207fc89efdaa54c0f20c7adf612882df0950f5a951637e0307cdcb4c672f298b8bc64630604051602001620001db95949392919062001c04565b60405160208183030381529060405280519060200120905090565b5f73ffffffffffffffffffffffffffffffffffffffff168273ffffffffffffffffffffffffffffffffffffffff16036200025c576040517fa41e3d3f00000000000000000000000000000000000000000000000000000000815260040160405180910390fd5b80156200027a576200027482620003cc60201b60201c565b6200028c565b6200028b826200040d60201b60201c565b5b80600c5f8473ffffffffffffffffffffffffffffffffffffffff1673ffffffffffffffffffffffffffffffffffffffff1681526020019081526020015f205f6101000a81548160ff0219169083151502179055505050565b5f73ffffffffffffffffffffffffffffffffffffffff168273ffffffffffffffffffffffffffffffffffffffff16036200034a576040517f9c8d2cd200000000000000000000000000000000000000000000000000000000815260040160405180910390fd5b7f8000000000000000000000000000000000000000000000000000000000000000816004546200037b919062001c5f565b1115620003b4576040517f303b682f00000000000000000000000000000000000000000000000000000000815260040160405180910390fd5b620003c75f83836200047f60201b60201c565b505050565b5f620003de82620007e860201b60201c565b90505f5b818110156200040857620003fc836200083160201b60201c565b806001019050620003e2565b505050565b5f60a05162000422836200096f60201b60201c565b6200042e919062001cc6565b90505f6200044283620007e860201b60201c565b90505f5b818362000454919062001cfd565b81101562000479576200046d84620009b560201b60201c565b80600101905062000446565b50505050565b5f8062000492856200096f60201b60201c565b90505f620004a6856200096f60201b60201c565b9050620004bb86868662000b8360201b60201c565b5f620004cd8762000ce360201b60201c565b90505f620004e18762000ce360201b60201c565b9050818015620004ee5750805b620007d957811562000596575f60a051846200050b919062001cc6565b60a05160065f8b73ffffffffffffffffffffffffffffffffffffffff1673ffffffffffffffffffffffffffffffffffffffff1681526020019081526020015f205462000558919062001cc6565b62000564919062001cfd565b90505f5b818110156200058e576200058289620009b560201b60201c565b80600101905062000568565b5050620007d8565b801562000639575f60a05160065f8b73ffffffffffffffffffffffffffffffffffffffff1673ffffffffffffffffffffffffffffffffffffffff1681526020019081526020015f2054620005eb919062001cc6565b60a05186620005fb919062001cc6565b62000607919062001cfd565b90505f5b818110156200063157620006258a6200083160201b60201c565b8060010190506200060b565b5050620007d7565b5f60a051876200064a919062001cc6565b90505f5b8181101562000728575f6001600b5f8d73ffffffffffffffffffffffffffffffffffffffff1673ffffffffffffffffffffffffffffffffffffffff1681526020019081526020015f2080549050620006a7919062001cfd565b90505f600b5f8d73ffffffffffffffffffffffffffffffffffffffff1673ffffffffffffffffffffffffffffffffffffffff1681526020019081526020015f208281548110620006fc57620006fb62001d37565b5b905f5260205f20015490506200071a8c8c8362000d6c60201b60201c565b82600101925050506200064e565b508060a0516200073e8b6200096f60201b60201c565b6200074a919062001cc6565b60a051876200075a919062001cc6565b62000766919062001cfd565b11156200077f576200077e896200083160201b60201c565b5b8060a0518562000790919062001cc6565b60a051620007a48b6200096f60201b60201c565b620007b0919062001cc6565b620007bc919062001cfd565b1115620007d557620007d488620009b560201b60201c565b5b505b5b5b60019450505050509392505050565b5f600b5f8373ffffffffffffffffffffffffffffffffffffffff1673ffffffffffffffffffffffffffffffffffffffff1681526020019081526020015f20805490509050919050565b5f73ffffffffffffffffffffffffffffffffffffffff168173ffffffffffffffffffffffffffffffffffffffff160362000897576040517fddb5de5e00000000000000000000000000000000000000000000000000000000815260040160405180910390fd5b5f600b5f8373ffffffffffffffffffffffffffffffffffffffff1673ffffffffffffffffffffffffffffffffffffffff1681526020019081526020015f206001600b5f8573ffffffffffffffffffffffffffffffffffffffff1673ffffffffffffffffffffffffffffffffffffffff1681526020019081526020015f208054905062000924919062001cfd565b8154811062000938576200093762001d37565b5b905f5260205f200154905062000956825f8362000d6c60201b60201c565b6200096b815f620010f560201b90919060201c565b5050565b5f60065f8373ffffffffffffffffffffffffffffffffffffffff1673ffffffffffffffffffffffffffffffffffffffff1681526020019081526020015f20549050919050565b5f73ffffffffffffffffffffffffffffffffffffffff168173ffffffffffffffffffffffffffffffffffffffff160362000a1b576040517f9c8d2cd200000000000000000000000000000000000000000000000000000000815260040160405180910390fd5b5f62000a2d5f6200121160201b60201c565b62000a4b5762000a435f6200127d60201b60201c565b905062000af1565b60055f815462000a5b9062001d64565b919050819055507fffffffffffffffffffffffffffffffffffffffffffffffffffffffffffffffff6005540362000abe576040517f303b682f00000000000000000000000000000000000000000000000000000000815260040160405180910390fd5b6005547f800000000000000000000000000000000000000000000000000000000000000062000aee919062001c5f565b90505b5f62000b0382620013d860201b60201c565b90505f73ffffffffffffffffffffffffffffffffffffffff168173ffffffffffffffffffffffffffffffffffffffff161462000b6b576040517f23369fa600000000000000000000000000000000000000000000000000000000815260040160405180910390fd5b62000b7e81848462000d6c60201b60201c565b505050565b5f73ffffffffffffffffffffffffffffffffffffffff168373ffffffffffffffffffffffffffffffffffffffff160362000bd7578060045f82825462000bca919062001c5f565b9250508190555062000c2d565b8060065f8573ffffffffffffffffffffffffffffffffffffffff1673ffffffffffffffffffffffffffffffffffffffff1681526020019081526020015f205f82825462000c25919062001cfd565b925050819055505b8060065f8473ffffffffffffffffffffffffffffffffffffffff1673ffffffffffffffffffffffffffffffffffffffff1681526020019081526020015f205f82825401925050819055508173ffffffffffffffffffffffffffffffffffffffff168373ffffffffffffffffffffffffffffffffffffffff167fddf252ad1be2c89b69c2b068fc378daa952ba7f163c4a11628f55a4df523b3ef8360405162000cd6919062001db0565b60405180910390a3505050565b5f8073ffffffffffffffffffffffffffffffffffffffff168273ffffffffffffffffffffffffffffffffffffffff16148062000d655750600c5f8373ffffffffffffffffffffffffffffffffffffffff1673ffffffffffffffffffffffffffffffffffffffff1681526020019081526020015f205f9054906101000a900460ff165b9050919050565b5f73ffffffffffffffffffffffffffffffffffffffff168373ffffffffffffffffffffffffffffffffffffffff161462000f735760085f8281526020019081526020015f205f6101000a81549073ffffffffffffffffffffffffffffffffffffffff02191690555f600b5f8573ffffffffffffffffffffffffffffffffffffffff1673ffffffffffffffffffffffffffffffffffffffff1681526020019081526020015f206001600b5f8773ffffffffffffffffffffffffffffffffffffffff1673ffffffffffffffffffffffffffffffffffffffff1681526020019081526020015f208054905062000e60919062001cfd565b8154811062000e745762000e7362001d37565b5b905f5260205f200154905081811462000f0e575f62000e99836200140d60201b60201c565b905081600b5f8773ffffffffffffffffffffffffffffffffffffffff1673ffffffffffffffffffffffffffffffffffffffff1681526020019081526020015f20828154811062000eee5762000eed62001d37565b5b905f5260205f20018190555062000f0c82826200142f60201b60201c565b505b600b5f8573ffffffffffffffffffffffffffffffffffffffff1673ffffffffffffffffffffffffffffffffffffffff1681526020019081526020015f2080548062000f5e5762000f5d62001dcb565b5b600190038181905f5260205f20015f90559055505b5f73ffffffffffffffffffffffffffffffffffffffff168273ffffffffffffffffffffffffffffffffffffffff1614620010805762000fb98183620014fe60201b60201c565b600b5f8373ffffffffffffffffffffffffffffffffffffffff1673ffffffffffffffffffffffffffffffffffffffff1681526020019081526020015f2081908060018154018082558091505060019003905f5260205f20015f90919091909150556200107a816001600b5f8673ffffffffffffffffffffffffffffffffffffffff1673ffffffffffffffffffffffffffffffffffffffff1681526020019081526020015f20805490506200106e919062001cfd565b6200142f60201b60201c565b62001095565b600a5f8281526020019081526020015f205f90555b808273ffffffffffffffffffffffffffffffffffffffff168473ffffffffffffffffffffffffffffffffffffffff167fddf252ad1be2c89b69c2b068fc378daa952ba7f163c4a11628f55a4df523b3ef60405160405180910390a4505050565b5f6001835f015f9054906101000a90046fffffffffffffffffffffffffffffffff16039050825f0160109054906101000a90046fffffffffffffffffffffffffffffffff166fffffffffffffffffffffffffffffffff16816fffffffffffffffffffffffffffffffff160362001197576040517f8acb5f2700000000000000000000000000000000000000000000000000000000815260040160405180910390fd5b81836001015f836fffffffffffffffffffffffffffffffff166fffffffffffffffffffffffffffffffff1681526020019081526020015f208190555080835f015f6101000a8154816fffffffffffffffffffffffffffffffff02191690836fffffffffffffffffffffffffffffffff160217905550505050565b5f815f015f9054906101000a90046fffffffffffffffffffffffffffffffff166fffffffffffffffffffffffffffffffff16825f0160109054906101000a90046fffffffffffffffffffffffffffffffff166fffffffffffffffffffffffffffffffff16149050919050565b5f80825f0160109054906101000a90046fffffffffffffffffffffffffffffffff169050825f015f9054906101000a90046fffffffffffffffffffffffffffffffff166fffffffffffffffffffffffffffffffff16816fffffffffffffffffffffffffffffffff16036200131d576040517f75e52f4f00000000000000000000000000000000000000000000000000000000815260040160405180910390fd5b80600190039050826001015f826fffffffffffffffffffffffffffffffff166fffffffffffffffffffffffffffffffff1681526020019081526020015f20549150826001015f826fffffffffffffffffffffffffffffffff166fffffffffffffffffffffffffffffffff1681526020019081526020015f205f905580835f0160106101000a8154816fffffffffffffffffffffffffffffffff02191690836fffffffffffffffffffffffffffffffff16021790555050919050565b5f80600a5f8481526020019081526020015f2054905073ffffffffffffffffffffffffffffffffffffffff8116915050919050565b5f80600a5f8481526020019081526020015f205490508060a01c915050919050565b5f600a5f8481526020019081526020015f2054905060a07fffffffffffffffffffffffff0000000000000000000000000000000000000000901c821115620014a3576040517ffcb3438c00000000000000000000000000000000000000000000000000000000815260040160405180910390fd5b7fffffffffffffffffffffffff00000000000000000000000000000000000000008260a01b1673ffffffffffffffffffffffffffffffffffffffff821601905080600a5f8581526020019081526020015f2081905550505050565b5f600a5f8481526020019081526020015f2054905073ffffffffffffffffffffffffffffffffffffffff82167fffffffffffffffffffffffff0000000000000000000000000000000000000000821601905080600a5f8581526020019081526020015f2081905550505050565b5f81519050919050565b7f4e487b71000000000000000000000000000000000000000000000000000000005f52604160045260245ffd5b7f4e487b71000000000000000000000000000000000000000000000000000000005f52602260045260245ffd5b5f6002820490506001821680620015e757607f821691505b602082108103620015fd57620015fc620015a2565b5b50919050565b5f819050815f5260205f209050919050565b5f6020601f8301049050919050565b5f82821b905092915050565b5f60088302620016617fffffffffffffffffffffffffffffffffffffffffffffffffffffffffffffffff8262001624565b6200166d868362001624565b95508019841693508086168417925050509392505050565b5f819050919050565b5f819050919050565b5f620016b7620016b1620016ab8462001685565b6200168e565b62001685565b9050919050565b5f819050919050565b620016d28362001697565b620016ea620016e182620016be565b84845462001630565b825550505050565b5f90565b62001700620016f2565b6200170d818484620016c7565b505050565b5b818110156200173457620017285f82620016f6565b60018101905062001713565b5050565b601f82111562001783576200174d8162001603565b620017588462001615565b8101602085101562001768578190505b62001780620017778562001615565b83018262001712565b50505b505050565b5f82821c905092915050565b5f620017a55f198460080262001788565b1980831691505092915050565b5f620017bf838362001794565b9150826002028217905092915050565b620017da826200156b565b67ffffffffffffffff811115620017f657620017f562001575565b5b620018028254620015cf565b6200180f82828562001738565b5f60209050601f83116001811462001845575f841562001830578287015190505b6200183c8582620017b2565b865550620018ab565b601f198416620018558662001603565b5f5b828110156200187e5784890151825560018201915060208501945060208101905062001857565b868310156200189e57848901516200189a601f89168262001794565b8355505b6001600288020188555050505b505050505050565b7f4e487b71000000000000000000000000000000000000000000000000000000005f52601160045260245ffd5b5f8160011c9050919050565b5f808291508390505b60018511156200193d57808604811115620019155762001914620018b3565b5b6001851615620019255780820291505b80810290506200193585620018e0565b9450620018f5565b94509492505050565b5f8262001957576001905062001a29565b8162001966575f905062001a29565b81600181146200197f57600281146200198a57620019c0565b600191505062001a29565b60ff8411156200199f576200199e620018b3565b5b8360020a915084821115620019b957620019b8620018b3565b5b5062001a29565b5060208310610133831016604e8410600b8410161715620019fa5782820a905083811115620019f457620019f3620018b3565b5b62001a29565b62001a098484846001620018ec565b9250905081840481111562001a235762001a22620018b3565b5b81810290505b9392505050565b5f60ff82169050919050565b5f62001a488262001685565b915062001a558362001a30565b925062001a847fffffffffffffffffffffffffffffffffffffffffffffffffffffffffffffffff848462001946565b905092915050565b5f62001a988262001685565b915062001aa58362001685565b925082820262001ab58162001685565b9150828204841483151762001acf5762001ace620018b3565b5b5092915050565b5f81905092915050565b5f819050815f5260205f209050919050565b5f815462001b0081620015cf565b62001b0c818662001ad6565b9450600182165f811462001b29576001811462001b3f5762001b75565b60ff198316865281151582028601935062001b75565b62001b4a8562001ae0565b5f5b8381101562001b6d5781548189015260018201915060208101905062001b4c565b838801955050505b50505092915050565b5f62001b8b828462001af2565b915081905092915050565b5f819050919050565b62001baa8162001b96565b82525050565b62001bbb8162001685565b82525050565b5f73ffffffffffffffffffffffffffffffffffffffff82169050919050565b5f62001bec8262001bc1565b9050919050565b62001bfe8162001be0565b82525050565b5f60a08201905062001c195f83018862001b9f565b62001c28602083018762001b9f565b62001c37604083018662001b9f565b62001c46606083018562001bb0565b62001c55608083018462001bf3565b9695505050505050565b5f62001c6b8262001685565b915062001c788362001685565b925082820190508082111562001c935762001c92620018b3565b5b92915050565b7f4e487b71000000000000000000000000000000000000000000000000000000005f52601260045260245ffd5b5f62001cd28262001685565b915062001cdf8362001685565b92508262001cf25762001cf162001c99565b5b828204905092915050565b5f62001d098262001685565b915062001d168362001685565b925082820390508181111562001d315762001d30620018b3565b5b92915050565b7f4e487b71000000000000000000000000000000000000000000000000000000005f52603260045260245ffd5b5f62001d708262001685565b91507fffffffffffffffffffffffffffffffffffffffffffffffffffffffffffffffff820362001da55762001da4620018b3565b5b600182019050919050565b5f60208201905062001dc55f83018462001bb0565b92915050565b7f4e487b71000000000000000000000000000000000000000000000000000000005f52603160045260245ffd5b60805160a05160c05160e05161411462001e795f395f610ace01525f610a9a01525f8181610e1101528181611b180152818161207e015281816120aa0152818161214b015281816121b4015281816122120152818161230f015281816123430152818161238a015281816123b60152612a6301525f610a7501526141145ff3fe608060405234801561000f575f80fd5b506004361061021a575f3560e01c806389fb4c6611610123578063c5ab3ba6116100ab578063dd62ed3e1161007a578063dd62ed3e146106c4578063dd637699146106f4578063dfabc03314610710578063e985e9c51461072c578063f780bc1a1461075c5761021a565b8063c5ab3ba61461062a578063c87b56dd14610648578063d505accf14610678578063d96ca0b9146106945761021a565b8063a22cb465116100f2578063a22cb46514610562578063a9059cbb1461057e578063b1ab9317146105ae578063b3f9ea34146105de578063b88d4fde1461060e5761021a565b806389fb4c66146104ec5780638a696e501461050a57806395d89b4114610526578063976a8435146105445761021a565b8063313ce567116101a65780634f02c420116101755780634f02c420146104205780636352211e1461043e5780636e8f624b1461046e57806370a082311461048c5780637ecebe00146104bc5761021a565b8063313ce567146103985780633644e515146103b657806342842e0e146103d45780634d966072146103f05761021a565b8063095ea7b3116101ed578063095ea7b3146102cc57806309674eb0146102fc57806309f0ef651461031a57806318160ddd1461034a57806323b872dd146103685761021a565b806301ffc9a71461021e57806302519da31461024e57806306fdde031461027e578063081812fc1461029c575b5f80fd5b6102386004803603810190610233919061339a565b61078c565b60405161024591906133df565b60405180910390f35b61026860048036038101906102639190613452565b61085d565b6040516102759190613495565b60405180910390f35b6102866108a3565b6040516102939190613538565b60405180910390f35b6102b660048036038101906102b19190613582565b61092f565b6040516102c391906135bc565b60405180910390f35b6102e660048036038101906102e191906135d5565b61095f565b6040516102f391906133df565b60405180910390f35b610304610999565b6040516103119190613495565b60405180910390f35b610334600480360381019061032f9190613452565b6109a8565b60405161034191906133df565b60405180910390f35b610352610a30565b60405161035f9190613495565b60405180910390f35b610382600480360381019061037d9190613613565b610a36565b60405161038f91906133df565b60405180910390f35b6103a0610a73565b6040516103ad919061367e565b60405180910390f35b6103be610a97565b6040516103cb91906136af565b60405180910390f35b6103ee60048036038101906103e99190613613565b610af3565b005b61040a600480360381019061040591906135d5565b610b12565b60405161041791906133df565b60405180910390f35b610428610c64565b6040516104359190613495565b60405180910390f35b61045860048036038101906104539190613582565b610c6a565b60405161046591906135bc565b60405180910390f35b610476610d1f565b6040516104839190613495565b60405180910390f35b6104a660048036038101906104a19190613452565b610d43565b6040516104b39190613495565b60405180910390f35b6104d660048036038101906104d19190613452565b610d58565b6040516104e39190613495565b60405180910390f35b6104f4610d6d565b6040516105019190613495565b60405180910390f35b610524600480360381019061051f91906136f2565b610d76565b005b61052e610d83565b60405161053b9190613538565b60405180910390f35b61054c610e0f565b6040516105599190613495565b60405180910390f35b61057c6004803603810190610577919061371d565b610e33565b005b610598600480360381019061059391906135d5565b610f90565b6040516105a591906133df565b60405180910390f35b6105c860048036038101906105c39190613452565b611009565b6040516105d59190613812565b60405180910390f35b6105f860048036038101906105f39190613452565b61109c565b6040516106059190613495565b60405180910390f35b6106286004803603810190610623919061395e565b6110e5565b005b610632611257565b60405161063f9190613495565b60405180910390f35b610662600480360381019061065d9190613582565b611260565b60405161066f9190613538565b60405180910390f35b610692600480360381019061068d9190613a32565b611291565b005b6106ae60048036038101906106a99190613613565b611611565b6040516106bb91906133df565b60405180910390f35b6106de60048036038101906106d99190613acf565b61181d565b6040516106eb9190613495565b60405180910390f35b61070e60048036038101906107099190613613565b61183d565b005b61072a600480360381019061072591906135d5565b611b4c565b005b61074660048036038101906107419190613acf565b611cfc565b60405161075391906133df565b60405180910390f35b61077660048036038101906107719190613b0d565b611d26565b6040516107839190613812565b60405180910390f35b5f7fcaf91ff5000000000000000000000000000000000000000000000000000000007bffffffffffffffffffffffffffffffffffffffffffffffffffffffff1916827bffffffffffffffffffffffffffffffffffffffffffffffffffffffff1916148061085657507f01ffc9a7000000000000000000000000000000000000000000000000000000007bffffffffffffffffffffffffffffffffffffffffffffffffffffffff1916827bffffffffffffffffffffffffffffffffffffffffffffffffffffffff1916145b9050919050565b5f60065f8373ffffffffffffffffffffffffffffffffffffffff1673ffffffffffffffffffffffffffffffffffffffff1681526020019081526020015f20549050919050565b600280546108b090613b78565b80601f01602080910402602001604051908101604052809291908181526020018280546108dc90613b78565b80156109275780601f106108fe57610100808354040283529160200191610927565b820191905f5260205f20905b81548152906001019060200180831161090a57829003601f168201915b505050505081565b6008602052805f5260405f205f915054906101000a900473ffffffffffffffffffffffffffffffffffffffff1681565b5f61096982611ddf565b1561097d576109788383611b4c565b61098e565b6109878383610b12565b9050610993565b600190505b92915050565b5f6109a35f611e36565b905090565b5f8073ffffffffffffffffffffffffffffffffffffffff168273ffffffffffffffffffffffffffffffffffffffff161480610a295750600c5f8373ffffffffffffffffffffffffffffffffffffffff1673ffffffffffffffffffffffffffffffffffffffff1681526020019081526020015f205f9054906101000a900460ff165b9050919050565b60045481565b5f610a4082611ddf565b15610a5557610a5084848461183d565b610a67565b610a60848484611611565b9050610a6c565b600190505b9392505050565b7f000000000000000000000000000000000000000000000000000000000000000081565b5f7f00000000000000000000000000000000000000000000000000000000000000004614610acc57610ac7611e90565b610aee565b7f00000000000000000000000000000000000000000000000000000000000000005b905090565b610b0d83838360405180602001604052805f8152506110e5565b505050565b5f8073ffffffffffffffffffffffffffffffffffffffff168373ffffffffffffffffffffffffffffffffffffffff1603610b78576040517f5461585f00000000000000000000000000000000000000000000000000000000815260040160405180910390fd5b8160075f3373ffffffffffffffffffffffffffffffffffffffff1673ffffffffffffffffffffffffffffffffffffffff1681526020019081526020015f205f8573ffffffffffffffffffffffffffffffffffffffff1673ffffffffffffffffffffffffffffffffffffffff1681526020019081526020015f20819055508273ffffffffffffffffffffffffffffffffffffffff163373ffffffffffffffffffffffffffffffffffffffff167f8c5be1e5ebec7d5bd14f71427d1e84f3dd0314c0f7b2291e5b200ac8c7c3b92584604051610c529190613495565b60405180910390a36001905092915050565b60055481565b5f610c7482611f1b565b9050610c7f82611ddf565b610cb5576040517f3f6cc76800000000000000000000000000000000000000000000000000000000815260040160405180910390fd5b5f73ffffffffffffffffffffffffffffffffffffffff168173ffffffffffffffffffffffffffffffffffffffff1603610d1a576040517fc5723b5100000000000000000000000000000000000000000000000000000000815260040160405180910390fd5b919050565b7f800000000000000000000000000000000000000000000000000000000000000081565b6006602052805f5260405f205f915090505481565b600d602052805f5260405f205f915090505481565b5f600454905090565b610d803382611f50565b50565b60038054610d9090613b78565b80601f0160208091040260200160405190810160405280929190818152602001828054610dbc90613b78565b8015610e075780601f10610dde57610100808354040283529160200191610e07565b820191905f5260205f20905b815481529060010190602001808311610dea57829003601f168201915b505050505081565b7f000000000000000000000000000000000000000000000000000000000000000081565b5f73ffffffffffffffffffffffffffffffffffffffff168273ffffffffffffffffffffffffffffffffffffffff1603610e98576040517fccea9e6f00000000000000000000000000000000000000000000000000000000815260040160405180910390fd5b8060095f3373ffffffffffffffffffffffffffffffffffffffff1673ffffffffffffffffffffffffffffffffffffffff1681526020019081526020015f205f8473ffffffffffffffffffffffffffffffffffffffff1673ffffffffffffffffffffffffffffffffffffffff1681526020019081526020015f205f6101000a81548160ff0219169083151502179055508173ffffffffffffffffffffffffffffffffffffffff163373ffffffffffffffffffffffffffffffffffffffff167f17307eab39ab6107e8899845ad3d59bd9653f200f220920489ca2b5937696c3183604051610f8491906133df565b60405180910390a35050565b5f8073ffffffffffffffffffffffffffffffffffffffff168373ffffffffffffffffffffffffffffffffffffffff1603610ff6576040517f9c8d2cd200000000000000000000000000000000000000000000000000000000815260040160405180910390fd5b61100133848461202b565b905092915050565b6060600b5f8373ffffffffffffffffffffffffffffffffffffffff1673ffffffffffffffffffffffffffffffffffffffff1681526020019081526020015f2080548060200260200160405190810160405280929190818152602001828054801561109057602002820191905f5260205f20905b81548152602001906001019080831161107c575b50505050509050919050565b5f600b5f8373ffffffffffffffffffffffffffffffffffffffff1673ffffffffffffffffffffffffffffffffffffffff1681526020019081526020015f20805490509050919050565b6110ee82611ddf565b611124576040517f3f6cc76800000000000000000000000000000000000000000000000000000000815260040160405180910390fd5b61112f848484610a36565b505f8373ffffffffffffffffffffffffffffffffffffffff163b1415801561121a575063150b7a0260e01b7bffffffffffffffffffffffffffffffffffffffffffffffffffffffff19168373ffffffffffffffffffffffffffffffffffffffff1663150b7a02338786866040518563ffffffff1660e01b81526004016111b89493929190613bfa565b6020604051808303815f875af11580156111d4573d5f803e3d5ffd5b505050506040513d601f19601f820116820180604052508101906111f89190613c58565b7bffffffffffffffffffffffffffffffffffffffffffffffffffffffff191614155b15611251576040517f3da6393100000000000000000000000000000000000000000000000000000000815260040160405180910390fd5b50505050565b5f600554905090565b606061126b82612415565b60405160200161127b9190613ce3565b6040516020818303038152906040529050919050565b428410156112cb576040517f05787bdf00000000000000000000000000000000000000000000000000000000815260040160405180910390fd5b6112d485611ddf565b1561130b576040517f1f3e0de800000000000000000000000000000000000000000000000000000000815260040160405180910390fd5b5f73ffffffffffffffffffffffffffffffffffffffff168673ffffffffffffffffffffffffffffffffffffffff1603611370576040517f5461585f00000000000000000000000000000000000000000000000000000000815260040160405180910390fd5b5f600161137b610a97565b7f6e71edae12b1b97f4d1f60370fef10105fa2faae0126114a169c64845d6126c98a8a8a600d5f8f73ffffffffffffffffffffffffffffffffffffffff1673ffffffffffffffffffffffffffffffffffffffff1681526020019081526020015f205f815480929190600101919050558b60405160200161140096959493929190613d08565b60405160208183030381529060405280519060200120604051602001611427929190613dd1565b604051602081830303815290604052805190602001208585856040515f815260200160405260405161145c9493929190613e07565b6020604051602081039080840390855afa15801561147c573d5f803e3d5ffd5b5050506020604051035190505f73ffffffffffffffffffffffffffffffffffffffff168173ffffffffffffffffffffffffffffffffffffffff1614806114ee57508773ffffffffffffffffffffffffffffffffffffffff168173ffffffffffffffffffffffffffffffffffffffff1614155b15611525576040517f815e1d6400000000000000000000000000000000000000000000000000000000815260040160405180910390fd5b8560075f8373ffffffffffffffffffffffffffffffffffffffff1673ffffffffffffffffffffffffffffffffffffffff1681526020019081526020015f205f8973ffffffffffffffffffffffffffffffffffffffff1673ffffffffffffffffffffffffffffffffffffffff1681526020019081526020015f2081905550508573ffffffffffffffffffffffffffffffffffffffff168773ffffffffffffffffffffffffffffffffffffffff167f8c5be1e5ebec7d5bd14f71427d1e84f3dd0314c0f7b2291e5b200ac8c7c3b925876040516116009190613495565b60405180910390a350505050505050565b5f8073ffffffffffffffffffffffffffffffffffffffff168473ffffffffffffffffffffffffffffffffffffffff1603611677576040517fddb5de5e00000000000000000000000000000000000000000000000000000000815260040160405180910390fd5b5f73ffffffffffffffffffffffffffffffffffffffff168373ffffffffffffffffffffffffffffffffffffffff16036116dc576040517f9c8d2cd200000000000000000000000000000000000000000000000000000000815260040160405180910390fd5b5f60075f8673ffffffffffffffffffffffffffffffffffffffff1673ffffffffffffffffffffffffffffffffffffffff1681526020019081526020015f205f3373ffffffffffffffffffffffffffffffffffffffff1673ffffffffffffffffffffffffffffffffffffffff1681526020019081526020015f205490507fffffffffffffffffffffffffffffffffffffffffffffffffffffffffffffffff811461180857828161178b9190613e77565b60075f8773ffffffffffffffffffffffffffffffffffffffff1673ffffffffffffffffffffffffffffffffffffffff1681526020019081526020015f205f3373ffffffffffffffffffffffffffffffffffffffff1673ffffffffffffffffffffffffffffffffffffffff1681526020019081526020015f20819055505b61181385858561202b565b9150509392505050565b6007602052815f5260405f20602052805f5260405f205f91509150505481565b5f73ffffffffffffffffffffffffffffffffffffffff168373ffffffffffffffffffffffffffffffffffffffff16036118a2576040517fddb5de5e00000000000000000000000000000000000000000000000000000000815260040160405180910390fd5b5f73ffffffffffffffffffffffffffffffffffffffff168273ffffffffffffffffffffffffffffffffffffffff1603611907576040517f9c8d2cd200000000000000000000000000000000000000000000000000000000815260040160405180910390fd5b61191081611f1b565b73ffffffffffffffffffffffffffffffffffffffff168373ffffffffffffffffffffffffffffffffffffffff1614611974576040517f82b4290000000000000000000000000000000000000000000000000000000000815260040160405180910390fd5b8273ffffffffffffffffffffffffffffffffffffffff163373ffffffffffffffffffffffffffffffffffffffff1614158015611a32575060095f8473ffffffffffffffffffffffffffffffffffffffff1673ffffffffffffffffffffffffffffffffffffffff1681526020019081526020015f205f3373ffffffffffffffffffffffffffffffffffffffff1673ffffffffffffffffffffffffffffffffffffffff1681526020019081526020015f205f9054906101000a900460ff16155b8015611a9a575060085f8281526020019081526020015f205f9054906101000a900473ffffffffffffffffffffffffffffffffffffffff1673ffffffffffffffffffffffffffffffffffffffff163373ffffffffffffffffffffffffffffffffffffffff1614155b15611ad1576040517f82b4290000000000000000000000000000000000000000000000000000000000815260040160405180910390fd5b611ada826109a8565b15611b11576040517f5ce7539700000000000000000000000000000000000000000000000000000000815260040160405180910390fd5b611b3c83837f00000000000000000000000000000000000000000000000000000000000000006124df565b611b47838383612637565b505050565b5f611b5682611f1b565b90508073ffffffffffffffffffffffffffffffffffffffff163373ffffffffffffffffffffffffffffffffffffffff1614158015611c16575060095f8273ffffffffffffffffffffffffffffffffffffffff1673ffffffffffffffffffffffffffffffffffffffff1681526020019081526020015f205f3373ffffffffffffffffffffffffffffffffffffffff1673ffffffffffffffffffffffffffffffffffffffff1681526020019081526020015f205f9054906101000a900460ff16155b15611c4d576040517f82b4290000000000000000000000000000000000000000000000000000000000815260040160405180910390fd5b8260085f8481526020019081526020015f205f6101000a81548173ffffffffffffffffffffffffffffffffffffffff021916908373ffffffffffffffffffffffffffffffffffffffff160217905550818373ffffffffffffffffffffffffffffffffffffffff168273ffffffffffffffffffffffffffffffffffffffff167f8c5be1e5ebec7d5bd14f71427d1e84f3dd0314c0f7b2291e5b200ac8c7c3b92560405160405180910390a4505050565b6009602052815f5260405f20602052805f5260405f205f915091509054906101000a900460ff1681565b60605f8267ffffffffffffffff811115611d4357611d4261383a565b5b604051908082528060200260200182016040528015611d715781602001602082028036833780820191505090505b5090505f8490505b8385611d859190613eaa565b811015611dd457611d9f815f61298f90919063ffffffff16565b828683611dac9190613e77565b81518110611dbd57611dbc613edd565b5b602002602001018181525050806001019050611d79565b508091505092915050565b5f7f800000000000000000000000000000000000000000000000000000000000000082118015611e2f57507fffffffffffffffffffffffffffffffffffffffffffffffffffffffffffffffff8214155b9050919050565b5f815f015f9054906101000a90046fffffffffffffffffffffffffffffffff16825f0160109054906101000a90046fffffffffffffffffffffffffffffffff16036fffffffffffffffffffffffffffffffff169050919050565b5f7f8b73c3c69bb8fe3d512ecc4cf759cc79239f7b179b0ffacaa9a75d522b39400f6002604051611ec19190613fa6565b60405180910390207fc89efdaa54c0f20c7adf612882df0950f5a951637e0307cdcb4c672f298b8bc64630604051602001611f00959493929190613fbc565b60405160208183030381529060405280519060200120905090565b5f80600a5f8481526020019081526020015f2054905073ffffffffffffffffffffffffffffffffffffffff8116915050919050565b5f73ffffffffffffffffffffffffffffffffffffffff168273ffffffffffffffffffffffffffffffffffffffff1603611fb5576040517fa41e3d3f00000000000000000000000000000000000000000000000000000000815260040160405180910390fd5b8015611fc957611fc482612a31565b611fd3565b611fd282612a60565b5b80600c5f8473ffffffffffffffffffffffffffffffffffffffff1673ffffffffffffffffffffffffffffffffffffffff1681526020019081526020015f205f6101000a81548160ff0219169083151502179055505050565b5f806120368561085d565b90505f6120428561085d565b905061204f8686866124df565b5f612059876109a8565b90505f612065876109a8565b90508180156120715750805b612406578115612142575f7f0000000000000000000000000000000000000000000000000000000000000000846120a8919061403a565b7f000000000000000000000000000000000000000000000000000000000000000060065f8b73ffffffffffffffffffffffffffffffffffffffff1673ffffffffffffffffffffffffffffffffffffffff1681526020019081526020015f2054612111919061403a565b61211b9190613e77565b90505f5b8181101561213b5761213089612ad2565b80600101905061211f565b5050612405565b801561220f575f7f000000000000000000000000000000000000000000000000000000000000000060065f8b73ffffffffffffffffffffffffffffffffffffffff1673ffffffffffffffffffffffffffffffffffffffff1681526020019081526020015f20546121b2919061403a565b7f0000000000000000000000000000000000000000000000000000000000000000866121de919061403a565b6121e89190613e77565b90505f5b81811015612208576121fd8a612c77565b8060010190506121ec565b5050612404565b5f7f00000000000000000000000000000000000000000000000000000000000000008761223c919061403a565b90505f5b8181101561230b575f6001600b5f8d73ffffffffffffffffffffffffffffffffffffffff1673ffffffffffffffffffffffffffffffffffffffff1681526020019081526020015f20805490506122969190613e77565b90505f600b5f8d73ffffffffffffffffffffffffffffffffffffffff1673ffffffffffffffffffffffffffffffffffffffff1681526020019081526020015f2082815481106122e8576122e7613edd565b5b905f5260205f20015490506122fe8c8c83612637565b8260010192505050612240565b50807f00000000000000000000000000000000000000000000000000000000000000006123378b61085d565b612341919061403a565b7f00000000000000000000000000000000000000000000000000000000000000008761236d919061403a565b6123779190613e77565b11156123875761238689612c77565b5b807f0000000000000000000000000000000000000000000000000000000000000000856123b4919061403a565b7f00000000000000000000000000000000000000000000000000000000000000006123de8b61085d565b6123e8919061403a565b6123f29190613e77565b11156124025761240188612ad2565b5b505b5b5b60019450505050509392505050565b60605f600161242384612da5565b0190505f8167ffffffffffffffff8111156124415761244061383a565b5b6040519080825280601f01601f1916602001820160405280156124735781602001600182028036833780820191505090505b5090505f82602001820190505b6001156124d4578080600190039150507f3031323334353637383961626364656600000000000000000000000000000000600a86061a8153600a85816124c9576124c861400d565b5b0494505f8503612480575b819350505050919050565b5f73ffffffffffffffffffffffffffffffffffffffff168373ffffffffffffffffffffffffffffffffffffffff160361252f578060045f8282546125239190613eaa565b92505081905550612583565b8060065f8573ffffffffffffffffffffffffffffffffffffffff1673ffffffffffffffffffffffffffffffffffffffff1681526020019081526020015f205f82825461257b9190613e77565b925050819055505b8060065f8473ffffffffffffffffffffffffffffffffffffffff1673ffffffffffffffffffffffffffffffffffffffff1681526020019081526020015f205f82825401925050819055508173ffffffffffffffffffffffffffffffffffffffff168373ffffffffffffffffffffffffffffffffffffffff167fddf252ad1be2c89b69c2b068fc378daa952ba7f163c4a11628f55a4df523b3ef8360405161262a9190613495565b60405180910390a3505050565b5f73ffffffffffffffffffffffffffffffffffffffff168373ffffffffffffffffffffffffffffffffffffffff16146128215760085f8281526020019081526020015f205f6101000a81549073ffffffffffffffffffffffffffffffffffffffff02191690555f600b5f8573ffffffffffffffffffffffffffffffffffffffff1673ffffffffffffffffffffffffffffffffffffffff1681526020019081526020015f206001600b5f8773ffffffffffffffffffffffffffffffffffffffff1673ffffffffffffffffffffffffffffffffffffffff1681526020019081526020015f20805490506127289190613e77565b8154811061273957612738613edd565b5b905f5260205f20015490508181146127bf575f61275583612ef6565b905081600b5f8773ffffffffffffffffffffffffffffffffffffffff1673ffffffffffffffffffffffffffffffffffffffff1681526020019081526020015f2082815481106127a7576127a6613edd565b5b905f5260205f2001819055506127bd8282612f18565b505b600b5f8573ffffffffffffffffffffffffffffffffffffffff1673ffffffffffffffffffffffffffffffffffffffff1681526020019081526020015f2080548061280c5761280b61406a565b5b600190038181905f5260205f20015f90559055505b5f73ffffffffffffffffffffffffffffffffffffffff168273ffffffffffffffffffffffffffffffffffffffff161461291a5761285e8183612fe6565b600b5f8373ffffffffffffffffffffffffffffffffffffffff1673ffffffffffffffffffffffffffffffffffffffff1681526020019081526020015f2081908060018154018082558091505060019003905f5260205f20015f9091909190915055612915816001600b5f8673ffffffffffffffffffffffffffffffffffffffff1673ffffffffffffffffffffffffffffffffffffffff1681526020019081526020015f20805490506129109190613e77565b612f18565b61292f565b600a5f8281526020019081526020015f205f90555b808273ffffffffffffffffffffffffffffffffffffffff168473ffffffffffffffffffffffffffffffffffffffff167fddf252ad1be2c89b69c2b068fc378daa952ba7f163c4a11628f55a4df523b3ef60405160405180910390a4505050565b5f61299983611e36565b82106129d1576040517f580821e700000000000000000000000000000000000000000000000000000000815260040160405180910390fd5b826001015f83855f015f9054906101000a90046fffffffffffffffffffffffffffffffff16016fffffffffffffffffffffffffffffffff166fffffffffffffffffffffffffffffffff1681526020019081526020015f2054905092915050565b5f612a3b8261109c565b90505f5b81811015612a5b57612a5083612c77565b806001019050612a3f565b505050565b5f7f0000000000000000000000000000000000000000000000000000000000000000612a8b8361085d565b612a95919061403a565b90505f612aa18361109c565b90505f5b8183612ab19190613e77565b811015612acc57612ac184612ad2565b806001019050612aa5565b50505050565b5f73ffffffffffffffffffffffffffffffffffffffff168173ffffffffffffffffffffffffffffffffffffffff1603612b37576040517f9c8d2cd200000000000000000000000000000000000000000000000000000000815260040160405180910390fd5b5f612b415f613053565b612b5557612b4e5f6130bf565b9050612bf6565b60055f8154612b6390614097565b919050819055507fffffffffffffffffffffffffffffffffffffffffffffffffffffffffffffffff60055403612bc5576040517f303b682f00000000000000000000000000000000000000000000000000000000815260040160405180910390fd5b6005547f8000000000000000000000000000000000000000000000000000000000000000612bf39190613eaa565b90505b5f612c0082611f1b565b90505f73ffffffffffffffffffffffffffffffffffffffff168173ffffffffffffffffffffffffffffffffffffffff1614612c67576040517f23369fa600000000000000000000000000000000000000000000000000000000815260040160405180910390fd5b612c72818484612637565b505050565b5f73ffffffffffffffffffffffffffffffffffffffff168173ffffffffffffffffffffffffffffffffffffffff1603612cdc576040517fddb5de5e00000000000000000000000000000000000000000000000000000000815260040160405180910390fd5b5f600b5f8373ffffffffffffffffffffffffffffffffffffffff1673ffffffffffffffffffffffffffffffffffffffff1681526020019081526020015f206001600b5f8573ffffffffffffffffffffffffffffffffffffffff1673ffffffffffffffffffffffffffffffffffffffff1681526020019081526020015f2080549050612d679190613e77565b81548110612d7857612d77613edd565b5b905f5260205f2001549050612d8e825f83612637565b612da1815f61321990919063ffffffff16565b5050565b5f805f90507a184f03e93ff9f4daa797ed6e38ed64bf6a1f0100000000000000008310612e01577a184f03e93ff9f4daa797ed6e38ed64bf6a1f0100000000000000008381612df757612df661400d565b5b0492506040810190505b6d04ee2d6d415b85acef81000000008310612e3e576d04ee2d6d415b85acef81000000008381612e3457612e3361400d565b5b0492506020810190505b662386f26fc100008310612e6d57662386f26fc100008381612e6357612e6261400d565b5b0492506010810190505b6305f5e1008310612e96576305f5e1008381612e8c57612e8b61400d565b5b0492506008810190505b6127108310612ebb576127108381612eb157612eb061400d565b5b0492506004810190505b60648310612ede5760648381612ed457612ed361400d565b5b0492506002810190505b600a8310612eed576001810190505b80915050919050565b5f80600a5f8481526020019081526020015f205490508060a01c915050919050565b5f600a5f8481526020019081526020015f2054905060a07fffffffffffffffffffffffff0000000000000000000000000000000000000000901c821115612f8b576040517ffcb3438c00000000000000000000000000000000000000000000000000000000815260040160405180910390fd5b7fffffffffffffffffffffffff00000000000000000000000000000000000000008260a01b1673ffffffffffffffffffffffffffffffffffffffff821601905080600a5f8581526020019081526020015f2081905550505050565b5f600a5f8481526020019081526020015f2054905073ffffffffffffffffffffffffffffffffffffffff82167fffffffffffffffffffffffff0000000000000000000000000000000000000000821601905080600a5f8581526020019081526020015f2081905550505050565b5f815f015f9054906101000a90046fffffffffffffffffffffffffffffffff166fffffffffffffffffffffffffffffffff16825f0160109054906101000a90046fffffffffffffffffffffffffffffffff166fffffffffffffffffffffffffffffffff16149050919050565b5f80825f0160109054906101000a90046fffffffffffffffffffffffffffffffff169050825f015f9054906101000a90046fffffffffffffffffffffffffffffffff166fffffffffffffffffffffffffffffffff16816fffffffffffffffffffffffffffffffff160361315e576040517f75e52f4f00000000000000000000000000000000000000000000000000000000815260040160405180910390fd5b80600190039050826001015f826fffffffffffffffffffffffffffffffff166fffffffffffffffffffffffffffffffff1681526020019081526020015f20549150826001015f826fffffffffffffffffffffffffffffffff166fffffffffffffffffffffffffffffffff1681526020019081526020015f205f905580835f0160106101000a8154816fffffffffffffffffffffffffffffffff02191690836fffffffffffffffffffffffffffffffff16021790555050919050565b5f6001835f015f9054906101000a90046fffffffffffffffffffffffffffffffff16039050825f0160109054906101000a90046fffffffffffffffffffffffffffffffff166fffffffffffffffffffffffffffffffff16816fffffffffffffffffffffffffffffffff16036132ba576040517f8acb5f2700000000000000000000000000000000000000000000000000000000815260040160405180910390fd5b81836001015f836fffffffffffffffffffffffffffffffff166fffffffffffffffffffffffffffffffff1681526020019081526020015f208190555080835f015f6101000a8154816fffffffffffffffffffffffffffffffff02191690836fffffffffffffffffffffffffffffffff160217905550505050565b5f604051905090565b5f80fd5b5f80fd5b5f7fffffffff0000000000000000000000000000000000000000000000000000000082169050919050565b61337981613345565b8114613383575f80fd5b50565b5f8135905061339481613370565b92915050565b5f602082840312156133af576133ae61333d565b5b5f6133bc84828501613386565b91505092915050565b5f8115159050919050565b6133d9816133c5565b82525050565b5f6020820190506133f25f8301846133d0565b92915050565b5f73ffffffffffffffffffffffffffffffffffffffff82169050919050565b5f613421826133f8565b9050919050565b61343181613417565b811461343b575f80fd5b50565b5f8135905061344c81613428565b92915050565b5f602082840312156134675761346661333d565b5b5f6134748482850161343e565b91505092915050565b5f819050919050565b61348f8161347d565b82525050565b5f6020820190506134a85f830184613486565b92915050565b5f81519050919050565b5f82825260208201905092915050565b5f5b838110156134e55780820151818401526020810190506134ca565b5f8484015250505050565b5f601f19601f8301169050919050565b5f61350a826134ae565b61351481856134b8565b93506135248185602086016134c8565b61352d816134f0565b840191505092915050565b5f6020820190508181035f8301526135508184613500565b905092915050565b6135618161347d565b811461356b575f80fd5b50565b5f8135905061357c81613558565b92915050565b5f602082840312156135975761359661333d565b5b5f6135a48482850161356e565b91505092915050565b6135b681613417565b82525050565b5f6020820190506135cf5f8301846135ad565b92915050565b5f80604083850312156135eb576135ea61333d565b5b5f6135f88582860161343e565b92505060206136098582860161356e565b9150509250929050565b5f805f6060848603121561362a5761362961333d565b5b5f6136378682870161343e565b93505060206136488682870161343e565b92505060406136598682870161356e565b9150509250925092565b5f60ff82169050919050565b61367881613663565b82525050565b5f6020820190506136915f83018461366f565b92915050565b5f819050919050565b6136a981613697565b82525050565b5f6020820190506136c25f8301846136a0565b92915050565b6136d1816133c5565b81146136db575f80fd5b50565b5f813590506136ec816136c8565b92915050565b5f602082840312156137075761370661333d565b5b5f613714848285016136de565b91505092915050565b5f80604083850312156137335761373261333d565b5b5f6137408582860161343e565b9250506020613751858286016136de565b9150509250929050565b5f81519050919050565b5f82825260208201905092915050565b5f819050602082019050919050565b61378d8161347d565b82525050565b5f61379e8383613784565b60208301905092915050565b5f602082019050919050565b5f6137c08261375b565b6137ca8185613765565b93506137d583613775565b805f5b838110156138055781516137ec8882613793565b97506137f7836137aa565b9250506001810190506137d8565b5085935050505092915050565b5f6020820190508181035f83015261382a81846137b6565b905092915050565b5f80fd5b5f80fd5b7f4e487b71000000000000000000000000000000000000000000000000000000005f52604160045260245ffd5b613870826134f0565b810181811067ffffffffffffffff8211171561388f5761388e61383a565b5b80604052505050565b5f6138a1613334565b90506138ad8282613867565b919050565b5f67ffffffffffffffff8211156138cc576138cb61383a565b5b6138d5826134f0565b9050602081019050919050565b828183375f83830152505050565b5f6139026138fd846138b2565b613898565b90508281526020810184848401111561391e5761391d613836565b5b6139298482856138e2565b509392505050565b5f82601f83011261394557613944613832565b5b81356139558482602086016138f0565b91505092915050565b5f805f80608085870312156139765761397561333d565b5b5f6139838782880161343e565b94505060206139948782880161343e565b93505060406139a58782880161356e565b925050606085013567ffffffffffffffff8111156139c6576139c5613341565b5b6139d287828801613931565b91505092959194509250565b6139e781613663565b81146139f1575f80fd5b50565b5f81359050613a02816139de565b92915050565b613a1181613697565b8114613a1b575f80fd5b50565b5f81359050613a2c81613a08565b92915050565b5f805f805f805f60e0888a031215613a4d57613a4c61333d565b5b5f613a5a8a828b0161343e565b9750506020613a6b8a828b0161343e565b9650506040613a7c8a828b0161356e565b9550506060613a8d8a828b0161356e565b9450506080613a9e8a828b016139f4565b93505060a0613aaf8a828b01613a1e565b92505060c0613ac08a828b01613a1e565b91505092959891949750929550565b5f8060408385031215613ae557613ae461333d565b5b5f613af28582860161343e565b9250506020613b038582860161343e565b9150509250929050565b5f8060408385031215613b2357613b2261333d565b5b5f613b308582860161356e565b9250506020613b418582860161356e565b9150509250929050565b7f4e487b71000000000000000000000000000000000000000000000000000000005f52602260045260245ffd5b5f6002820490506001821680613b8f57607f821691505b602082108103613ba257613ba1613b4b565b5b50919050565b5f81519050919050565b5f82825260208201905092915050565b5f613bcc82613ba8565b613bd68185613bb2565b9350613be68185602086016134c8565b613bef816134f0565b840191505092915050565b5f608082019050613c0d5f8301876135ad565b613c1a60208301866135ad565b613c276040830185613486565b8181036060830152613c398184613bc2565b905095945050505050565b5f81519050613c5281613370565b92915050565b5f60208284031215613c6d57613c6c61333d565b5b5f613c7a84828501613c44565b91505092915050565b7f68747470733a2f2f6a616d657362616368696e692e636f6d2f00000000000000815250565b5f81905092915050565b5f613cbd826134ae565b613cc78185613ca9565b9350613cd78185602086016134c8565b80840191505092915050565b5f613ced82613c83565b601982019150613cfd8284613cb3565b915081905092915050565b5f60c082019050613d1b5f8301896136a0565b613d2860208301886135ad565b613d3560408301876135ad565b613d426060830186613486565b613d4f6080830185613486565b613d5c60a0830184613486565b979650505050505050565b7f19010000000000000000000000000000000000000000000000000000000000005f82015250565b5f613d9b600283613ca9565b9150613da682613d67565b600282019050919050565b5f819050919050565b613dcb613dc682613697565b613db1565b82525050565b5f613ddb82613d8f565b9150613de78285613dba565b602082019150613df78284613dba565b6020820191508190509392505050565b5f608082019050613e1a5f8301876136a0565b613e27602083018661366f565b613e3460408301856136a0565b613e4160608301846136a0565b95945050505050565b7f4e487b71000000000000000000000000000000000000000000000000000000005f52601160045260245ffd5b5f613e818261347d565b9150613e8c8361347d565b9250828203905081811115613ea457613ea3613e4a565b5b92915050565b5f613eb48261347d565b9150613ebf8361347d565b9250828201905080821115613ed757613ed6613e4a565b5b92915050565b7f4e487b71000000000000000000000000000000000000000000000000000000005f52603260045260245ffd5b5f81905092915050565b5f819050815f5260205f209050919050565b5f8154613f3281613b78565b613f3c8186613f0a565b9450600182165f8114613f565760018114613f6b57613f9d565b60ff1983168652811515820286019350613f9d565b613f7485613f14565b5f5b83811015613f9557815481890152600182019150602081019050613f76565b838801955050505b50505092915050565b5f613fb18284613f26565b915081905092915050565b5f60a082019050613fcf5f8301886136a0565b613fdc60208301876136a0565b613fe960408301866136a0565b613ff66060830185613486565b61400360808301846135ad565b9695505050505050565b7f4e487b71000000000000000000000000000000000000000000000000000000005f52601260045260245ffd5b5f6140448261347d565b915061404f8361347d565b92508261405f5761405e61400d565b5b828204905092915050565b7f4e487b71000000000000000000000000000000000000000000000000000000005f52603160045260245ffd5b5f6140a18261347d565b91507fffffffffffffffffffffffffffffffffffffffffffffffffffffffffffffffff82036140d3576140d2613e4a565b5b60018201905091905056fea2646970667358221220e4d8719997ade519f2c09230b0e92c6b0244f715cd127ffd1feea7c0f68a04b464736f6c63430008180033",
			"opcodes": "PUSH2 0x100 PUSH1 0x40 MSTORE CALLVALUE DUP1 ISZERO PUSH3 0x11 JUMPI PUSH0 DUP1 REVERT JUMPDEST POP PUSH1 0x40 MLOAD DUP1 PUSH1 0x40 ADD PUSH1 0x40 MSTORE DUP1 PUSH1 0x13 DUP2 MSTORE PUSH1 0x20 ADD PUSH32 0x53656D692046756E6769626C6520546F6B656E00000000000000000000000000 DUP2 MSTORE POP PUSH1 0x40 MLOAD DUP1 PUSH1 0x40 ADD PUSH1 0x40 MSTORE DUP1 PUSH1 0x4 DUP2 MSTORE PUSH1 0x20 ADD PUSH32 0x53454D4900000000000000000000000000000000000000000000000000000000 DUP2 MSTORE POP PUSH1 0x12 DUP3 PUSH1 0x2 SWAP1 DUP2 PUSH3 0x91 SWAP2 SWAP1 PUSH3 0x17CF JUMP JUMPDEST POP DUP2 PUSH1 0x3 SWAP1 DUP2 PUSH3 0xA3 SWAP2 SWAP1 PUSH3 0x17CF JUMP JUMPDEST POP PUSH1 0x12 DUP2 PUSH1 0xFF AND LT ISZERO PUSH3 0xE3 JUMPI PUSH1 0x40 MLOAD PUSH32 0x98790FD500000000000000000000000000000000000000000000000000000000 DUP2 MSTORE PUSH1 0x4 ADD PUSH1 0x40 MLOAD DUP1 SWAP2 SUB SWAP1 REVERT JUMPDEST DUP1 PUSH1 0xFF AND PUSH1 0x80 DUP2 PUSH1 0xFF AND DUP2 MSTORE POP POP PUSH1 0x80 MLOAD PUSH1 0xA PUSH3 0x102 SWAP2 SWAP1 PUSH3 0x1A3C JUMP JUMPDEST PUSH1 0xA0 DUP2 DUP2 MSTORE POP POP CHAINID PUSH1 0xC0 DUP2 DUP2 MSTORE POP POP PUSH3 0x121 PUSH3 0x167 PUSH1 0x20 SHL PUSH1 0x20 SHR JUMP JUMPDEST PUSH1 0xE0 DUP2 DUP2 MSTORE POP POP POP POP POP PUSH3 0x13E CALLER PUSH1 0x1 PUSH3 0x1F6 PUSH1 0x20 SHL PUSH1 0x20 SHR JUMP JUMPDEST PUSH3 0x161 CALLER PUSH1 0xA0 MLOAD PUSH2 0x2710 PUSH3 0x155 SWAP2 SWAP1 PUSH3 0x1A8C JUMP JUMPDEST PUSH3 0x2E4 PUSH1 0x20 SHL PUSH1 0x20 SHR JUMP JUMPDEST PUSH3 0x1DF8 JUMP JUMPDEST PUSH0 PUSH32 0x8B73C3C69BB8FE3D512ECC4CF759CC79239F7B179B0FFACAA9A75D522B39400F PUSH1 0x2 PUSH1 0x40 MLOAD PUSH3 0x19A SWAP2 SWAP1 PUSH3 0x1B7E JUMP JUMPDEST PUSH1 0x40 MLOAD DUP1 SWAP2 SUB SWAP1 KECCAK256 PUSH32 0xC89EFDAA54C0F20C7ADF612882DF0950F5A951637E0307CDCB4C672F298B8BC6 CHAINID ADDRESS PUSH1 0x40 MLOAD PUSH1 0x20 ADD PUSH3 0x1DB SWAP6 SWAP5 SWAP4 SWAP3 SWAP2 SWAP1 PUSH3 0x1C04 JUMP JUMPDEST PUSH1 0x40 MLOAD PUSH1 0x20 DUP2 DUP4 SUB SUB DUP2 MSTORE SWAP1 PUSH1 0x40 MSTORE DUP1 MLOAD SWAP1 PUSH1 0x20 ADD KECCAK256 SWAP1 POP SWAP1 JUMP JUMPDEST PUSH0 PUSH20 0xFFFFFFFFFFFFFFFFFFFFFFFFFFFFFFFFFFFFFFFF AND DUP3 PUSH20 0xFFFFFFFFFFFFFFFFFFFFFFFFFFFFFFFFFFFFFFFF AND SUB PUSH3 0x25C JUMPI PUSH1 0x40 MLOAD PUSH32 0xA41E3D3F00000000000000000000000000000000000000000000000000000000 DUP2 MSTORE PUSH1 0x4 ADD PUSH1 0x40 MLOAD DUP1 SWAP2 SUB SWAP1 REVERT JUMPDEST DUP1 ISZERO PUSH3 0x27A JUMPI PUSH3 0x274 DUP3 PUSH3 0x3CC PUSH1 0x20 SHL PUSH1 0x20 SHR JUMP JUMPDEST PUSH3 0x28C JUMP JUMPDEST PUSH3 0x28B DUP3 PUSH3 0x40D PUSH1 0x20 SHL PUSH1 0x20 SHR JUMP JUMPDEST JUMPDEST DUP1 PUSH1 0xC PUSH0 DUP5 PUSH20 0xFFFFFFFFFFFFFFFFFFFFFFFFFFFFFFFFFFFFFFFF AND PUSH20 0xFFFFFFFFFFFFFFFFFFFFFFFFFFFFFFFFFFFFFFFF AND DUP2 MSTORE PUSH1 0x20 ADD SWAP1 DUP2 MSTORE PUSH1 0x20 ADD PUSH0 KECCAK256 PUSH0 PUSH2 0x100 EXP DUP2 SLOAD DUP2 PUSH1 0xFF MUL NOT AND SWAP1 DUP4 ISZERO ISZERO MUL OR SWAP1 SSTORE POP POP POP JUMP JUMPDEST PUSH0 PUSH20 0xFFFFFFFFFFFFFFFFFFFFFFFFFFFFFFFFFFFFFFFF AND DUP3 PUSH20 0xFFFFFFFFFFFFFFFFFFFFFFFFFFFFFFFFFFFFFFFF AND SUB PUSH3 0x34A JUMPI PUSH1 0x40 MLOAD PUSH32 0x9C8D2CD200000000000000000000000000000000000000000000000000000000 DUP2 MSTORE PUSH1 0x4 ADD PUSH1 0x40 MLOAD DUP1 SWAP2 SUB SWAP1 REVERT JUMPDEST PUSH32 0x8000000000000000000000000000000000000000000000000000000000000000 DUP2 PUSH1 0x4 SLOAD PUSH3 0x37B SWAP2 SWAP1 PUSH3 0x1C5F JUMP JUMPDEST GT ISZERO PUSH3 0x3B4 JUMPI PUSH1 0x40 MLOAD PUSH32 0x303B682F00000000000000000000000000000000000000000000000000000000 DUP2 MSTORE PUSH1 0x4 ADD PUSH1 0x40 MLOAD DUP1 SWAP2 SUB SWAP1 REVERT JUMPDEST PUSH3 0x3C7 PUSH0 DUP4 DUP4 PUSH3 0x47F PUSH1 0x20 SHL PUSH1 0x20 SHR JUMP JUMPDEST POP POP POP JUMP JUMPDEST PUSH0 PUSH3 0x3DE DUP3 PUSH3 0x7E8 PUSH1 0x20 SHL PUSH1 0x20 SHR JUMP JUMPDEST SWAP1 POP PUSH0 JUMPDEST DUP2 DUP2 LT ISZERO PUSH3 0x408 JUMPI PUSH3 0x3FC DUP4 PUSH3 0x831 PUSH1 0x20 SHL PUSH1 0x20 SHR JUMP JUMPDEST DUP1 PUSH1 0x1 ADD SWAP1 POP PUSH3 0x3E2 JUMP JUMPDEST POP POP POP JUMP JUMPDEST PUSH0 PUSH1 0xA0 MLOAD PUSH3 0x422 DUP4 PUSH3 0x96F PUSH1 0x20 SHL PUSH1 0x20 SHR JUMP JUMPDEST PUSH3 0x42E SWAP2 SWAP1 PUSH3 0x1CC6 JUMP JUMPDEST SWAP1 POP PUSH0 PUSH3 0x442 DUP4 PUSH3 0x7E8 PUSH1 0x20 SHL PUSH1 0x20 SHR JUMP JUMPDEST SWAP1 POP PUSH0 JUMPDEST DUP2 DUP4 PUSH3 0x454 SWAP2 SWAP1 PUSH3 0x1CFD JUMP JUMPDEST DUP2 LT ISZERO PUSH3 0x479 JUMPI PUSH3 0x46D DUP5 PUSH3 0x9B5 PUSH1 0x20 SHL PUSH1 0x20 SHR JUMP JUMPDEST DUP1 PUSH1 0x1 ADD SWAP1 POP PUSH3 0x446 JUMP JUMPDEST POP POP POP POP JUMP JUMPDEST PUSH0 DUP1 PUSH3 0x492 DUP6 PUSH3 0x96F PUSH1 0x20 SHL PUSH1 0x20 SHR JUMP JUMPDEST SWAP1 POP PUSH0 PUSH3 0x4A6 DUP6 PUSH3 0x96F PUSH1 0x20 SHL PUSH1 0x20 SHR JUMP JUMPDEST SWAP1 POP PUSH3 0x4BB DUP7 DUP7 DUP7 PUSH3 0xB83 PUSH1 0x20 SHL PUSH1 0x20 SHR JUMP JUMPDEST PUSH0 PUSH3 0x4CD DUP8 PUSH3 0xCE3 PUSH1 0x20 SHL PUSH1 0x20 SHR JUMP JUMPDEST SWAP1 POP PUSH0 PUSH3 0x4E1 DUP8 PUSH3 0xCE3 PUSH1 0x20 SHL PUSH1 0x20 SHR JUMP JUMPDEST SWAP1 POP DUP2 DUP1 ISZERO PUSH3 0x4EE JUMPI POP DUP1 JUMPDEST PUSH3 0x7D9 JUMPI DUP2 ISZERO PUSH3 0x596 JUMPI PUSH0 PUSH1 0xA0 MLOAD DUP5 PUSH3 0x50B SWAP2 SWAP1 PUSH3 0x1CC6 JUMP JUMPDEST PUSH1 0xA0 MLOAD PUSH1 0x6 PUSH0 DUP12 PUSH20 0xFFFFFFFFFFFFFFFFFFFFFFFFFFFFFFFFFFFFFFFF AND PUSH20 0xFFFFFFFFFFFFFFFFFFFFFFFFFFFFFFFFFFFFFFFF AND DUP2 MSTORE PUSH1 0x20 ADD SWAP1 DUP2 MSTORE PUSH1 0x20 ADD PUSH0 KECCAK256 SLOAD PUSH3 0x558 SWAP2 SWAP1 PUSH3 0x1CC6 JUMP JUMPDEST PUSH3 0x564 SWAP2 SWAP1 PUSH3 0x1CFD JUMP JUMPDEST SWAP1 POP PUSH0 JUMPDEST DUP2 DUP2 LT ISZERO PUSH3 0x58E JUMPI PUSH3 0x582 DUP10 PUSH3 0x9B5 PUSH1 0x20 SHL PUSH1 0x20 SHR JUMP JUMPDEST DUP1 PUSH1 0x1 ADD SWAP1 POP PUSH3 0x568 JUMP JUMPDEST POP POP PUSH3 0x7D8 JUMP JUMPDEST DUP1 ISZERO PUSH3 0x639 JUMPI PUSH0 PUSH1 0xA0 MLOAD PUSH1 0x6 PUSH0 DUP12 PUSH20 0xFFFFFFFFFFFFFFFFFFFFFFFFFFFFFFFFFFFFFFFF AND PUSH20 0xFFFFFFFFFFFFFFFFFFFFFFFFFFFFFFFFFFFFFFFF AND DUP2 MSTORE PUSH1 0x20 ADD SWAP1 DUP2 MSTORE PUSH1 0x20 ADD PUSH0 KECCAK256 SLOAD PUSH3 0x5EB SWAP2 SWAP1 PUSH3 0x1CC6 JUMP JUMPDEST PUSH1 0xA0 MLOAD DUP7 PUSH3 0x5FB SWAP2 SWAP1 PUSH3 0x1CC6 JUMP JUMPDEST PUSH3 0x607 SWAP2 SWAP1 PUSH3 0x1CFD JUMP JUMPDEST SWAP1 POP PUSH0 JUMPDEST DUP2 DUP2 LT ISZERO PUSH3 0x631 JUMPI PUSH3 0x625 DUP11 PUSH3 0x831 PUSH1 0x20 SHL PUSH1 0x20 SHR JUMP JUMPDEST DUP1 PUSH1 0x1 ADD SWAP1 POP PUSH3 0x60B JUMP JUMPDEST POP POP PUSH3 0x7D7 JUMP JUMPDEST PUSH0 PUSH1 0xA0 MLOAD DUP8 PUSH3 0x64A SWAP2 SWAP1 PUSH3 0x1CC6 JUMP JUMPDEST SWAP1 POP PUSH0 JUMPDEST DUP2 DUP2 LT ISZERO PUSH3 0x728 JUMPI PUSH0 PUSH1 0x1 PUSH1 0xB PUSH0 DUP14 PUSH20 0xFFFFFFFFFFFFFFFFFFFFFFFFFFFFFFFFFFFFFFFF AND PUSH20 0xFFFFFFFFFFFFFFFFFFFFFFFFFFFFFFFFFFFFFFFF AND DUP2 MSTORE PUSH1 0x20 ADD SWAP1 DUP2 MSTORE PUSH1 0x20 ADD PUSH0 KECCAK256 DUP1 SLOAD SWAP1 POP PUSH3 0x6A7 SWAP2 SWAP1 PUSH3 0x1CFD JUMP JUMPDEST SWAP1 POP PUSH0 PUSH1 0xB PUSH0 DUP14 PUSH20 0xFFFFFFFFFFFFFFFFFFFFFFFFFFFFFFFFFFFFFFFF AND PUSH20 0xFFFFFFFFFFFFFFFFFFFFFFFFFFFFFFFFFFFFFFFF AND DUP2 MSTORE PUSH1 0x20 ADD SWAP1 DUP2 MSTORE PUSH1 0x20 ADD PUSH0 KECCAK256 DUP3 DUP2 SLOAD DUP2 LT PUSH3 0x6FC JUMPI PUSH3 0x6FB PUSH3 0x1D37 JUMP JUMPDEST JUMPDEST SWAP1 PUSH0 MSTORE PUSH1 0x20 PUSH0 KECCAK256 ADD SLOAD SWAP1 POP PUSH3 0x71A DUP13 DUP13 DUP4 PUSH3 0xD6C PUSH1 0x20 SHL PUSH1 0x20 SHR JUMP JUMPDEST DUP3 PUSH1 0x1 ADD SWAP3 POP POP POP PUSH3 0x64E JUMP JUMPDEST POP DUP1 PUSH1 0xA0 MLOAD PUSH3 0x73E DUP12 PUSH3 0x96F PUSH1 0x20 SHL PUSH1 0x20 SHR JUMP JUMPDEST PUSH3 0x74A SWAP2 SWAP1 PUSH3 0x1CC6 JUMP JUMPDEST PUSH1 0xA0 MLOAD DUP8 PUSH3 0x75A SWAP2 SWAP1 PUSH3 0x1CC6 JUMP JUMPDEST PUSH3 0x766 SWAP2 SWAP1 PUSH3 0x1CFD JUMP JUMPDEST GT ISZERO PUSH3 0x77F JUMPI PUSH3 0x77E DUP10 PUSH3 0x831 PUSH1 0x20 SHL PUSH1 0x20 SHR JUMP JUMPDEST JUMPDEST DUP1 PUSH1 0xA0 MLOAD DUP6 PUSH3 0x790 SWAP2 SWAP1 PUSH3 0x1CC6 JUMP JUMPDEST PUSH1 0xA0 MLOAD PUSH3 0x7A4 DUP12 PUSH3 0x96F PUSH1 0x20 SHL PUSH1 0x20 SHR JUMP JUMPDEST PUSH3 0x7B0 SWAP2 SWAP1 PUSH3 0x1CC6 JUMP JUMPDEST PUSH3 0x7BC SWAP2 SWAP1 PUSH3 0x1CFD JUMP JUMPDEST GT ISZERO PUSH3 0x7D5 JUMPI PUSH3 0x7D4 DUP9 PUSH3 0x9B5 PUSH1 0x20 SHL PUSH1 0x20 SHR JUMP JUMPDEST JUMPDEST POP JUMPDEST JUMPDEST JUMPDEST PUSH1 0x1 SWAP5 POP POP POP POP POP SWAP4 SWAP3 POP POP POP JUMP JUMPDEST PUSH0 PUSH1 0xB PUSH0 DUP4 PUSH20 0xFFFFFFFFFFFFFFFFFFFFFFFFFFFFFFFFFFFFFFFF AND PUSH20 0xFFFFFFFFFFFFFFFFFFFFFFFFFFFFFFFFFFFFFFFF AND DUP2 MSTORE PUSH1 0x20 ADD SWAP1 DUP2 MSTORE PUSH1 0x20 ADD PUSH0 KECCAK256 DUP1 SLOAD SWAP1 POP SWAP1 POP SWAP2 SWAP1 POP JUMP JUMPDEST PUSH0 PUSH20 0xFFFFFFFFFFFFFFFFFFFFFFFFFFFFFFFFFFFFFFFF AND DUP2 PUSH20 0xFFFFFFFFFFFFFFFFFFFFFFFFFFFFFFFFFFFFFFFF AND SUB PUSH3 0x897 JUMPI PUSH1 0x40 MLOAD PUSH32 0xDDB5DE5E00000000000000000000000000000000000000000000000000000000 DUP2 MSTORE PUSH1 0x4 ADD PUSH1 0x40 MLOAD DUP1 SWAP2 SUB SWAP1 REVERT JUMPDEST PUSH0 PUSH1 0xB PUSH0 DUP4 PUSH20 0xFFFFFFFFFFFFFFFFFFFFFFFFFFFFFFFFFFFFFFFF AND PUSH20 0xFFFFFFFFFFFFFFFFFFFFFFFFFFFFFFFFFFFFFFFF AND DUP2 MSTORE PUSH1 0x20 ADD SWAP1 DUP2 MSTORE PUSH1 0x20 ADD PUSH0 KECCAK256 PUSH1 0x1 PUSH1 0xB PUSH0 DUP6 PUSH20 0xFFFFFFFFFFFFFFFFFFFFFFFFFFFFFFFFFFFFFFFF AND PUSH20 0xFFFFFFFFFFFFFFFFFFFFFFFFFFFFFFFFFFFFFFFF AND DUP2 MSTORE PUSH1 0x20 ADD SWAP1 DUP2 MSTORE PUSH1 0x20 ADD PUSH0 KECCAK256 DUP1 SLOAD SWAP1 POP PUSH3 0x924 SWAP2 SWAP1 PUSH3 0x1CFD JUMP JUMPDEST DUP2 SLOAD DUP2 LT PUSH3 0x938 JUMPI PUSH3 0x937 PUSH3 0x1D37 JUMP JUMPDEST JUMPDEST SWAP1 PUSH0 MSTORE PUSH1 0x20 PUSH0 KECCAK256 ADD SLOAD SWAP1 POP PUSH3 0x956 DUP3 PUSH0 DUP4 PUSH3 0xD6C PUSH1 0x20 SHL PUSH1 0x20 SHR JUMP JUMPDEST PUSH3 0x96B DUP2 PUSH0 PUSH3 0x10F5 PUSH1 0x20 SHL SWAP1 SWAP2 SWAP1 PUSH1 0x20 SHR JUMP JUMPDEST POP POP JUMP JUMPDEST PUSH0 PUSH1 0x6 PUSH0 DUP4 PUSH20 0xFFFFFFFFFFFFFFFFFFFFFFFFFFFFFFFFFFFFFFFF AND PUSH20 0xFFFFFFFFFFFFFFFFFFFFFFFFFFFFFFFFFFFFFFFF AND DUP2 MSTORE PUSH1 0x20 ADD SWAP1 DUP2 MSTORE PUSH1 0x20 ADD PUSH0 KECCAK256 SLOAD SWAP1 POP SWAP2 SWAP1 POP JUMP JUMPDEST PUSH0 PUSH20 0xFFFFFFFFFFFFFFFFFFFFFFFFFFFFFFFFFFFFFFFF AND DUP2 PUSH20 0xFFFFFFFFFFFFFFFFFFFFFFFFFFFFFFFFFFFFFFFF AND SUB PUSH3 0xA1B JUMPI PUSH1 0x40 MLOAD PUSH32 0x9C8D2CD200000000000000000000000000000000000000000000000000000000 DUP2 MSTORE PUSH1 0x4 ADD PUSH1 0x40 MLOAD DUP1 SWAP2 SUB SWAP1 REVERT JUMPDEST PUSH0 PUSH3 0xA2D PUSH0 PUSH3 0x1211 PUSH1 0x20 SHL PUSH1 0x20 SHR JUMP JUMPDEST PUSH3 0xA4B JUMPI PUSH3 0xA43 PUSH0 PUSH3 0x127D PUSH1 0x20 SHL PUSH1 0x20 SHR JUMP JUMPDEST SWAP1 POP PUSH3 0xAF1 JUMP JUMPDEST PUSH1 0x5 PUSH0 DUP2 SLOAD PUSH3 0xA5B SWAP1 PUSH3 0x1D64 JUMP JUMPDEST SWAP2 SWAP1 POP DUP2 SWAP1 SSTORE POP PUSH32 0xFFFFFFFFFFFFFFFFFFFFFFFFFFFFFFFFFFFFFFFFFFFFFFFFFFFFFFFFFFFFFFFF PUSH1 0x5 SLOAD SUB PUSH3 0xABE JUMPI PUSH1 0x40 MLOAD PUSH32 0x303B682F00000000000000000000000000000000000000000000000000000000 DUP2 MSTORE PUSH1 0x4 ADD PUSH1 0x40 MLOAD DUP1 SWAP2 SUB SWAP1 REVERT JUMPDEST PUSH1 0x5 SLOAD PUSH32 0x8000000000000000000000000000000000000000000000000000000000000000 PUSH3 0xAEE SWAP2 SWAP1 PUSH3 0x1C5F JUMP JUMPDEST SWAP1 POP JUMPDEST PUSH0 PUSH3 0xB03 DUP3 PUSH3 0x13D8 PUSH1 0x20 SHL PUSH1 0x20 SHR JUMP JUMPDEST SWAP1 POP PUSH0 PUSH20 0xFFFFFFFFFFFFFFFFFFFFFFFFFFFFFFFFFFFFFFFF AND DUP2 PUSH20 0xFFFFFFFFFFFFFFFFFFFFFFFFFFFFFFFFFFFFFFFF AND EQ PUSH3 0xB6B JUMPI PUSH1 0x40 MLOAD PUSH32 0x23369FA600000000000000000000000000000000000000000000000000000000 DUP2 MSTORE PUSH1 0x4 ADD PUSH1 0x40 MLOAD DUP1 SWAP2 SUB SWAP1 REVERT JUMPDEST PUSH3 0xB7E DUP2 DUP5 DUP5 PUSH3 0xD6C PUSH1 0x20 SHL PUSH1 0x20 SHR JUMP JUMPDEST POP POP POP JUMP JUMPDEST PUSH0 PUSH20 0xFFFFFFFFFFFFFFFFFFFFFFFFFFFFFFFFFFFFFFFF AND DUP4 PUSH20 0xFFFFFFFFFFFFFFFFFFFFFFFFFFFFFFFFFFFFFFFF AND SUB PUSH3 0xBD7 JUMPI DUP1 PUSH1 0x4 PUSH0 DUP3 DUP3 SLOAD PUSH3 0xBCA SWAP2 SWAP1 PUSH3 0x1C5F JUMP JUMPDEST SWAP3 POP POP DUP2 SWAP1 SSTORE POP PUSH3 0xC2D JUMP JUMPDEST DUP1 PUSH1 0x6 PUSH0 DUP6 PUSH20 0xFFFFFFFFFFFFFFFFFFFFFFFFFFFFFFFFFFFFFFFF AND PUSH20 0xFFFFFFFFFFFFFFFFFFFFFFFFFFFFFFFFFFFFFFFF AND DUP2 MSTORE PUSH1 0x20 ADD SWAP1 DUP2 MSTORE PUSH1 0x20 ADD PUSH0 KECCAK256 PUSH0 DUP3 DUP3 SLOAD PUSH3 0xC25 SWAP2 SWAP1 PUSH3 0x1CFD JUMP JUMPDEST SWAP3 POP POP DUP2 SWAP1 SSTORE POP JUMPDEST DUP1 PUSH1 0x6 PUSH0 DUP5 PUSH20 0xFFFFFFFFFFFFFFFFFFFFFFFFFFFFFFFFFFFFFFFF AND PUSH20 0xFFFFFFFFFFFFFFFFFFFFFFFFFFFFFFFFFFFFFFFF AND DUP2 MSTORE PUSH1 0x20 ADD SWAP1 DUP2 MSTORE PUSH1 0x20 ADD PUSH0 KECCAK256 PUSH0 DUP3 DUP3 SLOAD ADD SWAP3 POP POP DUP2 SWAP1 SSTORE POP DUP2 PUSH20 0xFFFFFFFFFFFFFFFFFFFFFFFFFFFFFFFFFFFFFFFF AND DUP4 PUSH20 0xFFFFFFFFFFFFFFFFFFFFFFFFFFFFFFFFFFFFFFFF AND PUSH32 0xDDF252AD1BE2C89B69C2B068FC378DAA952BA7F163C4A11628F55A4DF523B3EF DUP4 PUSH1 0x40 MLOAD PUSH3 0xCD6 SWAP2 SWAP1 PUSH3 0x1DB0 JUMP JUMPDEST PUSH1 0x40 MLOAD DUP1 SWAP2 SUB SWAP1 LOG3 POP POP POP JUMP JUMPDEST PUSH0 DUP1 PUSH20 0xFFFFFFFFFFFFFFFFFFFFFFFFFFFFFFFFFFFFFFFF AND DUP3 PUSH20 0xFFFFFFFFFFFFFFFFFFFFFFFFFFFFFFFFFFFFFFFF AND EQ DUP1 PUSH3 0xD65 JUMPI POP PUSH1 0xC PUSH0 DUP4 PUSH20 0xFFFFFFFFFFFFFFFFFFFFFFFFFFFFFFFFFFFFFFFF AND PUSH20 0xFFFFFFFFFFFFFFFFFFFFFFFFFFFFFFFFFFFFFFFF AND DUP2 MSTORE PUSH1 0x20 ADD SWAP1 DUP2 MSTORE PUSH1 0x20 ADD PUSH0 KECCAK256 PUSH0 SWAP1 SLOAD SWAP1 PUSH2 0x100 EXP SWAP1 DIV PUSH1 0xFF AND JUMPDEST SWAP1 POP SWAP2 SWAP1 POP JUMP JUMPDEST PUSH0 PUSH20 0xFFFFFFFFFFFFFFFFFFFFFFFFFFFFFFFFFFFFFFFF AND DUP4 PUSH20 0xFFFFFFFFFFFFFFFFFFFFFFFFFFFFFFFFFFFFFFFF AND EQ PUSH3 0xF73 JUMPI PUSH1 0x8 PUSH0 DUP3 DUP2 MSTORE PUSH1 0x20 ADD SWAP1 DUP2 MSTORE PUSH1 0x20 ADD PUSH0 KECCAK256 PUSH0 PUSH2 0x100 EXP DUP2 SLOAD SWAP1 PUSH20 0xFFFFFFFFFFFFFFFFFFFFFFFFFFFFFFFFFFFFFFFF MUL NOT AND SWAP1 SSTORE PUSH0 PUSH1 0xB PUSH0 DUP6 PUSH20 0xFFFFFFFFFFFFFFFFFFFFFFFFFFFFFFFFFFFFFFFF AND PUSH20 0xFFFFFFFFFFFFFFFFFFFFFFFFFFFFFFFFFFFFFFFF AND DUP2 MSTORE PUSH1 0x20 ADD SWAP1 DUP2 MSTORE PUSH1 0x20 ADD PUSH0 KECCAK256 PUSH1 0x1 PUSH1 0xB PUSH0 DUP8 PUSH20 0xFFFFFFFFFFFFFFFFFFFFFFFFFFFFFFFFFFFFFFFF AND PUSH20 0xFFFFFFFFFFFFFFFFFFFFFFFFFFFFFFFFFFFFFFFF AND DUP2 MSTORE PUSH1 0x20 ADD SWAP1 DUP2 MSTORE PUSH1 0x20 ADD PUSH0 KECCAK256 DUP1 SLOAD SWAP1 POP PUSH3 0xE60 SWAP2 SWAP1 PUSH3 0x1CFD JUMP JUMPDEST DUP2 SLOAD DUP2 LT PUSH3 0xE74 JUMPI PUSH3 0xE73 PUSH3 0x1D37 JUMP JUMPDEST JUMPDEST SWAP1 PUSH0 MSTORE PUSH1 0x20 PUSH0 KECCAK256 ADD SLOAD SWAP1 POP DUP2 DUP2 EQ PUSH3 0xF0E JUMPI PUSH0 PUSH3 0xE99 DUP4 PUSH3 0x140D PUSH1 0x20 SHL PUSH1 0x20 SHR JUMP JUMPDEST SWAP1 POP DUP2 PUSH1 0xB PUSH0 DUP8 PUSH20 0xFFFFFFFFFFFFFFFFFFFFFFFFFFFFFFFFFFFFFFFF AND PUSH20 0xFFFFFFFFFFFFFFFFFFFFFFFFFFFFFFFFFFFFFFFF AND DUP2 MSTORE PUSH1 0x20 ADD SWAP1 DUP2 MSTORE PUSH1 0x20 ADD PUSH0 KECCAK256 DUP3 DUP2 SLOAD DUP2 LT PUSH3 0xEEE JUMPI PUSH3 0xEED PUSH3 0x1D37 JUMP JUMPDEST JUMPDEST SWAP1 PUSH0 MSTORE PUSH1 0x20 PUSH0 KECCAK256 ADD DUP2 SWAP1 SSTORE POP PUSH3 0xF0C DUP3 DUP3 PUSH3 0x142F PUSH1 0x20 SHL PUSH1 0x20 SHR JUMP JUMPDEST POP JUMPDEST PUSH1 0xB PUSH0 DUP6 PUSH20 0xFFFFFFFFFFFFFFFFFFFFFFFFFFFFFFFFFFFFFFFF AND PUSH20 0xFFFFFFFFFFFFFFFFFFFFFFFFFFFFFFFFFFFFFFFF AND DUP2 MSTORE PUSH1 0x20 ADD SWAP1 DUP2 MSTORE PUSH1 0x20 ADD PUSH0 KECCAK256 DUP1 SLOAD DUP1 PUSH3 0xF5E JUMPI PUSH3 0xF5D PUSH3 0x1DCB JUMP JUMPDEST JUMPDEST PUSH1 0x1 SWAP1 SUB DUP2 DUP2 SWAP1 PUSH0 MSTORE PUSH1 0x20 PUSH0 KECCAK256 ADD PUSH0 SWAP1 SSTORE SWAP1 SSTORE POP JUMPDEST PUSH0 PUSH20 0xFFFFFFFFFFFFFFFFFFFFFFFFFFFFFFFFFFFFFFFF AND DUP3 PUSH20 0xFFFFFFFFFFFFFFFFFFFFFFFFFFFFFFFFFFFFFFFF AND EQ PUSH3 0x1080 JUMPI PUSH3 0xFB9 DUP2 DUP4 PUSH3 0x14FE PUSH1 0x20 SHL PUSH1 0x20 SHR JUMP JUMPDEST PUSH1 0xB PUSH0 DUP4 PUSH20 0xFFFFFFFFFFFFFFFFFFFFFFFFFFFFFFFFFFFFFFFF AND PUSH20 0xFFFFFFFFFFFFFFFFFFFFFFFFFFFFFFFFFFFFFFFF AND DUP2 MSTORE PUSH1 0x20 ADD SWAP1 DUP2 MSTORE PUSH1 0x20 ADD PUSH0 KECCAK256 DUP2 SWAP1 DUP1 PUSH1 0x1 DUP2 SLOAD ADD DUP1 DUP3 SSTORE DUP1 SWAP2 POP POP PUSH1 0x1 SWAP1 SUB SWAP1 PUSH0 MSTORE PUSH1 0x20 PUSH0 KECCAK256 ADD PUSH0 SWAP1 SWAP2 SWAP1 SWAP2 SWAP1 SWAP2 POP SSTORE PUSH3 0x107A DUP2 PUSH1 0x1 PUSH1 0xB PUSH0 DUP7 PUSH20 0xFFFFFFFFFFFFFFFFFFFFFFFFFFFFFFFFFFFFFFFF AND PUSH20 0xFFFFFFFFFFFFFFFFFFFFFFFFFFFFFFFFFFFFFFFF AND DUP2 MSTORE PUSH1 0x20 ADD SWAP1 DUP2 MSTORE PUSH1 0x20 ADD PUSH0 KECCAK256 DUP1 SLOAD SWAP1 POP PUSH3 0x106E SWAP2 SWAP1 PUSH3 0x1CFD JUMP JUMPDEST PUSH3 0x142F PUSH1 0x20 SHL PUSH1 0x20 SHR JUMP JUMPDEST PUSH3 0x1095 JUMP JUMPDEST PUSH1 0xA PUSH0 DUP3 DUP2 MSTORE PUSH1 0x20 ADD SWAP1 DUP2 MSTORE PUSH1 0x20 ADD PUSH0 KECCAK256 PUSH0 SWAP1 SSTORE JUMPDEST DUP1 DUP3 PUSH20 0xFFFFFFFFFFFFFFFFFFFFFFFFFFFFFFFFFFFFFFFF AND DUP5 PUSH20 0xFFFFFFFFFFFFFFFFFFFFFFFFFFFFFFFFFFFFFFFF AND PUSH32 0xDDF252AD1BE2C89B69C2B068FC378DAA952BA7F163C4A11628F55A4DF523B3EF PUSH1 0x40 MLOAD PUSH1 0x40 MLOAD DUP1 SWAP2 SUB SWAP1 LOG4 POP POP POP JUMP JUMPDEST PUSH0 PUSH1 0x1 DUP4 PUSH0 ADD PUSH0 SWAP1 SLOAD SWAP1 PUSH2 0x100 EXP SWAP1 DIV PUSH16 0xFFFFFFFFFFFFFFFFFFFFFFFFFFFFFFFF AND SUB SWAP1 POP DUP3 PUSH0 ADD PUSH1 0x10 SWAP1 SLOAD SWAP1 PUSH2 0x100 EXP SWAP1 DIV PUSH16 0xFFFFFFFFFFFFFFFFFFFFFFFFFFFFFFFF AND PUSH16 0xFFFFFFFFFFFFFFFFFFFFFFFFFFFFFFFF AND DUP2 PUSH16 0xFFFFFFFFFFFFFFFFFFFFFFFFFFFFFFFF AND SUB PUSH3 0x1197 JUMPI PUSH1 0x40 MLOAD PUSH32 0x8ACB5F2700000000000000000000000000000000000000000000000000000000 DUP2 MSTORE PUSH1 0x4 ADD PUSH1 0x40 MLOAD DUP1 SWAP2 SUB SWAP1 REVERT JUMPDEST DUP2 DUP4 PUSH1 0x1 ADD PUSH0 DUP4 PUSH16 0xFFFFFFFFFFFFFFFFFFFFFFFFFFFFFFFF AND PUSH16 0xFFFFFFFFFFFFFFFFFFFFFFFFFFFFFFFF AND DUP2 MSTORE PUSH1 0x20 ADD SWAP1 DUP2 MSTORE PUSH1 0x20 ADD PUSH0 KECCAK256 DUP2 SWAP1 SSTORE POP DUP1 DUP4 PUSH0 ADD PUSH0 PUSH2 0x100 EXP DUP2 SLOAD DUP2 PUSH16 0xFFFFFFFFFFFFFFFFFFFFFFFFFFFFFFFF MUL NOT AND SWAP1 DUP4 PUSH16 0xFFFFFFFFFFFFFFFFFFFFFFFFFFFFFFFF AND MUL OR SWAP1 SSTORE POP POP POP POP JUMP JUMPDEST PUSH0 DUP2 PUSH0 ADD PUSH0 SWAP1 SLOAD SWAP1 PUSH2 0x100 EXP SWAP1 DIV PUSH16 0xFFFFFFFFFFFFFFFFFFFFFFFFFFFFFFFF AND PUSH16 0xFFFFFFFFFFFFFFFFFFFFFFFFFFFFFFFF AND DUP3 PUSH0 ADD PUSH1 0x10 SWAP1 SLOAD SWAP1 PUSH2 0x100 EXP SWAP1 DIV PUSH16 0xFFFFFFFFFFFFFFFFFFFFFFFFFFFFFFFF AND PUSH16 0xFFFFFFFFFFFFFFFFFFFFFFFFFFFFFFFF AND EQ SWAP1 POP SWAP2 SWAP1 POP JUMP JUMPDEST PUSH0 DUP1 DUP3 PUSH0 ADD PUSH1 0x10 SWAP1 SLOAD SWAP1 PUSH2 0x100 EXP SWAP1 DIV PUSH16 0xFFFFFFFFFFFFFFFFFFFFFFFFFFFFFFFF AND SWAP1 POP DUP3 PUSH0 ADD PUSH0 SWAP1 SLOAD SWAP1 PUSH2 0x100 EXP SWAP1 DIV PUSH16 0xFFFFFFFFFFFFFFFFFFFFFFFFFFFFFFFF AND PUSH16 0xFFFFFFFFFFFFFFFFFFFFFFFFFFFFFFFF AND DUP2 PUSH16 0xFFFFFFFFFFFFFFFFFFFFFFFFFFFFFFFF AND SUB PUSH3 0x131D JUMPI PUSH1 0x40 MLOAD PUSH32 0x75E52F4F00000000000000000000000000000000000000000000000000000000 DUP2 MSTORE PUSH1 0x4 ADD PUSH1 0x40 MLOAD DUP1 SWAP2 SUB SWAP1 REVERT JUMPDEST DUP1 PUSH1 0x1 SWAP1 SUB SWAP1 POP DUP3 PUSH1 0x1 ADD PUSH0 DUP3 PUSH16 0xFFFFFFFFFFFFFFFFFFFFFFFFFFFFFFFF AND PUSH16 0xFFFFFFFFFFFFFFFFFFFFFFFFFFFFFFFF AND DUP2 MSTORE PUSH1 0x20 ADD SWAP1 DUP2 MSTORE PUSH1 0x20 ADD PUSH0 KECCAK256 SLOAD SWAP2 POP DUP3 PUSH1 0x1 ADD PUSH0 DUP3 PUSH16 0xFFFFFFFFFFFFFFFFFFFFFFFFFFFFFFFF AND PUSH16 0xFFFFFFFFFFFFFFFFFFFFFFFFFFFFFFFF AND DUP2 MSTORE PUSH1 0x20 ADD SWAP1 DUP2 MSTORE PUSH1 0x20 ADD PUSH0 KECCAK256 PUSH0 SWAP1 SSTORE DUP1 DUP4 PUSH0 ADD PUSH1 0x10 PUSH2 0x100 EXP DUP2 SLOAD DUP2 PUSH16 0xFFFFFFFFFFFFFFFFFFFFFFFFFFFFFFFF MUL NOT AND SWAP1 DUP4 PUSH16 0xFFFFFFFFFFFFFFFFFFFFFFFFFFFFFFFF AND MUL OR SWAP1 SSTORE POP POP SWAP2 SWAP1 POP JUMP JUMPDEST PUSH0 DUP1 PUSH1 0xA PUSH0 DUP5 DUP2 MSTORE PUSH1 0x20 ADD SWAP1 DUP2 MSTORE PUSH1 0x20 ADD PUSH0 KECCAK256 SLOAD SWAP1 POP PUSH20 0xFFFFFFFFFFFFFFFFFFFFFFFFFFFFFFFFFFFFFFFF DUP2 AND SWAP2 POP POP SWAP2 SWAP1 POP JUMP JUMPDEST PUSH0 DUP1 PUSH1 0xA PUSH0 DUP5 DUP2 MSTORE PUSH1 0x20 ADD SWAP1 DUP2 MSTORE PUSH1 0x20 ADD PUSH0 KECCAK256 SLOAD SWAP1 POP DUP1 PUSH1 0xA0 SHR SWAP2 POP POP SWAP2 SWAP1 POP JUMP JUMPDEST PUSH0 PUSH1 0xA PUSH0 DUP5 DUP2 MSTORE PUSH1 0x20 ADD SWAP1 DUP2 MSTORE PUSH1 0x20 ADD PUSH0 KECCAK256 SLOAD SWAP1 POP PUSH1 0xA0 PUSH32 0xFFFFFFFFFFFFFFFFFFFFFFFF0000000000000000000000000000000000000000 SWAP1 SHR DUP3 GT ISZERO PUSH3 0x14A3 JUMPI PUSH1 0x40 MLOAD PUSH32 0xFCB3438C00000000000000000000000000000000000000000000000000000000 DUP2 MSTORE PUSH1 0x4 ADD PUSH1 0x40 MLOAD DUP1 SWAP2 SUB SWAP1 REVERT JUMPDEST PUSH32 0xFFFFFFFFFFFFFFFFFFFFFFFF0000000000000000000000000000000000000000 DUP3 PUSH1 0xA0 SHL AND PUSH20 0xFFFFFFFFFFFFFFFFFFFFFFFFFFFFFFFFFFFFFFFF DUP3 AND ADD SWAP1 POP DUP1 PUSH1 0xA PUSH0 DUP6 DUP2 MSTORE PUSH1 0x20 ADD SWAP1 DUP2 MSTORE PUSH1 0x20 ADD PUSH0 KECCAK256 DUP2 SWAP1 SSTORE POP POP POP POP JUMP JUMPDEST PUSH0 PUSH1 0xA PUSH0 DUP5 DUP2 MSTORE PUSH1 0x20 ADD SWAP1 DUP2 MSTORE PUSH1 0x20 ADD PUSH0 KECCAK256 SLOAD SWAP1 POP PUSH20 0xFFFFFFFFFFFFFFFFFFFFFFFFFFFFFFFFFFFFFFFF DUP3 AND PUSH32 0xFFFFFFFFFFFFFFFFFFFFFFFF0000000000000000000000000000000000000000 DUP3 AND ADD SWAP1 POP DUP1 PUSH1 0xA PUSH0 DUP6 DUP2 MSTORE PUSH1 0x20 ADD SWAP1 DUP2 MSTORE PUSH1 0x20 ADD PUSH0 KECCAK256 DUP2 SWAP1 SSTORE POP POP POP POP JUMP JUMPDEST PUSH0 DUP2 MLOAD SWAP1 POP SWAP2 SWAP1 POP JUMP JUMPDEST PUSH32 0x4E487B7100000000000000000000000000000000000000000000000000000000 PUSH0 MSTORE PUSH1 0x41 PUSH1 0x4 MSTORE PUSH1 0x24 PUSH0 REVERT JUMPDEST PUSH32 0x4E487B7100000000000000000000000000000000000000000000000000000000 PUSH0 MSTORE PUSH1 0x22 PUSH1 0x4 MSTORE PUSH1 0x24 PUSH0 REVERT JUMPDEST PUSH0 PUSH1 0x2 DUP3 DIV SWAP1 POP PUSH1 0x1 DUP3 AND DUP1 PUSH3 0x15E7 JUMPI PUSH1 0x7F DUP3 AND SWAP2 POP JUMPDEST PUSH1 0x20 DUP3 LT DUP2 SUB PUSH3 0x15FD JUMPI PUSH3 0x15FC PUSH3 0x15A2 JUMP JUMPDEST JUMPDEST POP SWAP2 SWAP1 POP JUMP JUMPDEST PUSH0 DUP2 SWAP1 POP DUP2 PUSH0 MSTORE PUSH1 0x20 PUSH0 KECCAK256 SWAP1 POP SWAP2 SWAP1 POP JUMP JUMPDEST PUSH0 PUSH1 0x20 PUSH1 0x1F DUP4 ADD DIV SWAP1 POP SWAP2 SWAP1 POP JUMP JUMPDEST PUSH0 DUP3 DUP3 SHL SWAP1 POP SWAP3 SWAP2 POP POP JUMP JUMPDEST PUSH0 PUSH1 0x8 DUP4 MUL PUSH3 0x1661 PUSH32 0xFFFFFFFFFFFFFFFFFFFFFFFFFFFFFFFFFFFFFFFFFFFFFFFFFFFFFFFFFFFFFFFF DUP3 PUSH3 0x1624 JUMP JUMPDEST PUSH3 0x166D DUP7 DUP4 PUSH3 0x1624 JUMP JUMPDEST SWAP6 POP DUP1 NOT DUP5 AND SWAP4 POP DUP1 DUP7 AND DUP5 OR SWAP3 POP POP POP SWAP4 SWAP3 POP POP POP JUMP JUMPDEST PUSH0 DUP2 SWAP1 POP SWAP2 SWAP1 POP JUMP JUMPDEST PUSH0 DUP2 SWAP1 POP SWAP2 SWAP1 POP JUMP JUMPDEST PUSH0 PUSH3 0x16B7 PUSH3 0x16B1 PUSH3 0x16AB DUP5 PUSH3 0x1685 JUMP JUMPDEST PUSH3 0x168E JUMP JUMPDEST PUSH3 0x1685 JUMP JUMPDEST SWAP1 POP SWAP2 SWAP1 POP JUMP JUMPDEST PUSH0 DUP2 SWAP1 POP SWAP2 SWAP1 POP JUMP JUMPDEST PUSH3 0x16D2 DUP4 PUSH3 0x1697 JUMP JUMPDEST PUSH3 0x16EA PUSH3 0x16E1 DUP3 PUSH3 0x16BE JUMP JUMPDEST DUP5 DUP5 SLOAD PUSH3 0x1630 JUMP JUMPDEST DUP3 SSTORE POP POP POP POP JUMP JUMPDEST PUSH0 SWAP1 JUMP JUMPDEST PUSH3 0x1700 PUSH3 0x16F2 JUMP JUMPDEST PUSH3 0x170D DUP2 DUP5 DUP5 PUSH3 0x16C7 JUMP JUMPDEST POP POP POP JUMP JUMPDEST JUMPDEST DUP2 DUP2 LT ISZERO PUSH3 0x1734 JUMPI PUSH3 0x1728 PUSH0 DUP3 PUSH3 0x16F6 JUMP JUMPDEST PUSH1 0x1 DUP2 ADD SWAP1 POP PUSH3 0x1713 JUMP JUMPDEST POP POP JUMP JUMPDEST PUSH1 0x1F DUP3 GT ISZERO PUSH3 0x1783 JUMPI PUSH3 0x174D DUP2 PUSH3 0x1603 JUMP JUMPDEST PUSH3 0x1758 DUP5 PUSH3 0x1615 JUMP JUMPDEST DUP2 ADD PUSH1 0x20 DUP6 LT ISZERO PUSH3 0x1768 JUMPI DUP2 SWAP1 POP JUMPDEST PUSH3 0x1780 PUSH3 0x1777 DUP6 PUSH3 0x1615 JUMP JUMPDEST DUP4 ADD DUP3 PUSH3 0x1712 JUMP JUMPDEST POP POP JUMPDEST POP POP POP JUMP JUMPDEST PUSH0 DUP3 DUP3 SHR SWAP1 POP SWAP3 SWAP2 POP POP JUMP JUMPDEST PUSH0 PUSH3 0x17A5 PUSH0 NOT DUP5 PUSH1 0x8 MUL PUSH3 0x1788 JUMP JUMPDEST NOT DUP1 DUP4 AND SWAP2 POP POP SWAP3 SWAP2 POP POP JUMP JUMPDEST PUSH0 PUSH3 0x17BF DUP4 DUP4 PUSH3 0x1794 JUMP JUMPDEST SWAP2 POP DUP3 PUSH1 0x2 MUL DUP3 OR SWAP1 POP SWAP3 SWAP2 POP POP JUMP JUMPDEST PUSH3 0x17DA DUP3 PUSH3 0x156B JUMP JUMPDEST PUSH8 0xFFFFFFFFFFFFFFFF DUP2 GT ISZERO PUSH3 0x17F6 JUMPI PUSH3 0x17F5 PUSH3 0x1575 JUMP JUMPDEST JUMPDEST PUSH3 0x1802 DUP3 SLOAD PUSH3 0x15CF JUMP JUMPDEST PUSH3 0x180F DUP3 DUP3 DUP6 PUSH3 0x1738 JUMP JUMPDEST PUSH0 PUSH1 0x20 SWAP1 POP PUSH1 0x1F DUP4 GT PUSH1 0x1 DUP2 EQ PUSH3 0x1845 JUMPI PUSH0 DUP5 ISZERO PUSH3 0x1830 JUMPI DUP3 DUP8 ADD MLOAD SWAP1 POP JUMPDEST PUSH3 0x183C DUP6 DUP3 PUSH3 0x17B2 JUMP JUMPDEST DUP7 SSTORE POP PUSH3 0x18AB JUMP JUMPDEST PUSH1 0x1F NOT DUP5 AND PUSH3 0x1855 DUP7 PUSH3 0x1603 JUMP JUMPDEST PUSH0 JUMPDEST DUP3 DUP2 LT ISZERO PUSH3 0x187E JUMPI DUP5 DUP10 ADD MLOAD DUP3 SSTORE PUSH1 0x1 DUP3 ADD SWAP2 POP PUSH1 0x20 DUP6 ADD SWAP5 POP PUSH1 0x20 DUP2 ADD SWAP1 POP PUSH3 0x1857 JUMP JUMPDEST DUP7 DUP4 LT ISZERO PUSH3 0x189E JUMPI DUP5 DUP10 ADD MLOAD PUSH3 0x189A PUSH1 0x1F DUP10 AND DUP3 PUSH3 0x1794 JUMP JUMPDEST DUP4 SSTORE POP JUMPDEST PUSH1 0x1 PUSH1 0x2 DUP9 MUL ADD DUP9 SSTORE POP POP POP JUMPDEST POP POP POP POP POP POP JUMP JUMPDEST PUSH32 0x4E487B7100000000000000000000000000000000000000000000000000000000 PUSH0 MSTORE PUSH1 0x11 PUSH1 0x4 MSTORE PUSH1 0x24 PUSH0 REVERT JUMPDEST PUSH0 DUP2 PUSH1 0x1 SHR SWAP1 POP SWAP2 SWAP1 POP JUMP JUMPDEST PUSH0 DUP1 DUP3 SWAP2 POP DUP4 SWAP1 POP JUMPDEST PUSH1 0x1 DUP6 GT ISZERO PUSH3 0x193D JUMPI DUP1 DUP7 DIV DUP2 GT ISZERO PUSH3 0x1915 JUMPI PUSH3 0x1914 PUSH3 0x18B3 JUMP JUMPDEST JUMPDEST PUSH1 0x1 DUP6 AND ISZERO PUSH3 0x1925 JUMPI DUP1 DUP3 MUL SWAP2 POP JUMPDEST DUP1 DUP2 MUL SWAP1 POP PUSH3 0x1935 DUP6 PUSH3 0x18E0 JUMP JUMPDEST SWAP5 POP PUSH3 0x18F5 JUMP JUMPDEST SWAP5 POP SWAP5 SWAP3 POP POP POP JUMP JUMPDEST PUSH0 DUP3 PUSH3 0x1957 JUMPI PUSH1 0x1 SWAP1 POP PUSH3 0x1A29 JUMP JUMPDEST DUP2 PUSH3 0x1966 JUMPI PUSH0 SWAP1 POP PUSH3 0x1A29 JUMP JUMPDEST DUP2 PUSH1 0x1 DUP2 EQ PUSH3 0x197F JUMPI PUSH1 0x2 DUP2 EQ PUSH3 0x198A JUMPI PUSH3 0x19C0 JUMP JUMPDEST PUSH1 0x1 SWAP2 POP POP PUSH3 0x1A29 JUMP JUMPDEST PUSH1 0xFF DUP5 GT ISZERO PUSH3 0x199F JUMPI PUSH3 0x199E PUSH3 0x18B3 JUMP JUMPDEST JUMPDEST DUP4 PUSH1 0x2 EXP SWAP2 POP DUP5 DUP3 GT ISZERO PUSH3 0x19B9 JUMPI PUSH3 0x19B8 PUSH3 0x18B3 JUMP JUMPDEST JUMPDEST POP PUSH3 0x1A29 JUMP JUMPDEST POP PUSH1 0x20 DUP4 LT PUSH2 0x133 DUP4 LT AND PUSH1 0x4E DUP5 LT PUSH1 0xB DUP5 LT AND OR ISZERO PUSH3 0x19FA JUMPI DUP3 DUP3 EXP SWAP1 POP DUP4 DUP2 GT ISZERO PUSH3 0x19F4 JUMPI PUSH3 0x19F3 PUSH3 0x18B3 JUMP JUMPDEST JUMPDEST PUSH3 0x1A29 JUMP JUMPDEST PUSH3 0x1A09 DUP5 DUP5 DUP5 PUSH1 0x1 PUSH3 0x18EC JUMP JUMPDEST SWAP3 POP SWAP1 POP DUP2 DUP5 DIV DUP2 GT ISZERO PUSH3 0x1A23 JUMPI PUSH3 0x1A22 PUSH3 0x18B3 JUMP JUMPDEST JUMPDEST DUP2 DUP2 MUL SWAP1 POP JUMPDEST SWAP4 SWAP3 POP POP POP JUMP JUMPDEST PUSH0 PUSH1 0xFF DUP3 AND SWAP1 POP SWAP2 SWAP1 POP JUMP JUMPDEST PUSH0 PUSH3 0x1A48 DUP3 PUSH3 0x1685 JUMP JUMPDEST SWAP2 POP PUSH3 0x1A55 DUP4 PUSH3 0x1A30 JUMP JUMPDEST SWAP3 POP PUSH3 0x1A84 PUSH32 0xFFFFFFFFFFFFFFFFFFFFFFFFFFFFFFFFFFFFFFFFFFFFFFFFFFFFFFFFFFFFFFFF DUP5 DUP5 PUSH3 0x1946 JUMP JUMPDEST SWAP1 POP SWAP3 SWAP2 POP POP JUMP JUMPDEST PUSH0 PUSH3 0x1A98 DUP3 PUSH3 0x1685 JUMP JUMPDEST SWAP2 POP PUSH3 0x1AA5 DUP4 PUSH3 0x1685 JUMP JUMPDEST SWAP3 POP DUP3 DUP3 MUL PUSH3 0x1AB5 DUP2 PUSH3 0x1685 JUMP JUMPDEST SWAP2 POP DUP3 DUP3 DIV DUP5 EQ DUP4 ISZERO OR PUSH3 0x1ACF JUMPI PUSH3 0x1ACE PUSH3 0x18B3 JUMP JUMPDEST JUMPDEST POP SWAP3 SWAP2 POP POP JUMP JUMPDEST PUSH0 DUP2 SWAP1 POP SWAP3 SWAP2 POP POP JUMP JUMPDEST PUSH0 DUP2 SWAP1 POP DUP2 PUSH0 MSTORE PUSH1 0x20 PUSH0 KECCAK256 SWAP1 POP SWAP2 SWAP1 POP JUMP JUMPDEST PUSH0 DUP2 SLOAD PUSH3 0x1B00 DUP2 PUSH3 0x15CF JUMP JUMPDEST PUSH3 0x1B0C DUP2 DUP7 PUSH3 0x1AD6 JUMP JUMPDEST SWAP5 POP PUSH1 0x1 DUP3 AND PUSH0 DUP2 EQ PUSH3 0x1B29 JUMPI PUSH1 0x1 DUP2 EQ PUSH3 0x1B3F JUMPI PUSH3 0x1B75 JUMP JUMPDEST PUSH1 0xFF NOT DUP4 AND DUP7 MSTORE DUP2 ISZERO ISZERO DUP3 MUL DUP7 ADD SWAP4 POP PUSH3 0x1B75 JUMP JUMPDEST PUSH3 0x1B4A DUP6 PUSH3 0x1AE0 JUMP JUMPDEST PUSH0 JUMPDEST DUP4 DUP2 LT ISZERO PUSH3 0x1B6D JUMPI DUP2 SLOAD DUP2 DUP10 ADD MSTORE PUSH1 0x1 DUP3 ADD SWAP2 POP PUSH1 0x20 DUP2 ADD SWAP1 POP PUSH3 0x1B4C JUMP JUMPDEST DUP4 DUP9 ADD SWAP6 POP POP POP JUMPDEST POP POP POP SWAP3 SWAP2 POP POP JUMP JUMPDEST PUSH0 PUSH3 0x1B8B DUP3 DUP5 PUSH3 0x1AF2 JUMP JUMPDEST SWAP2 POP DUP2 SWAP1 POP SWAP3 SWAP2 POP POP JUMP JUMPDEST PUSH0 DUP2 SWAP1 POP SWAP2 SWAP1 POP JUMP JUMPDEST PUSH3 0x1BAA DUP2 PUSH3 0x1B96 JUMP JUMPDEST DUP3 MSTORE POP POP JUMP JUMPDEST PUSH3 0x1BBB DUP2 PUSH3 0x1685 JUMP JUMPDEST DUP3 MSTORE POP POP JUMP JUMPDEST PUSH0 PUSH20 0xFFFFFFFFFFFFFFFFFFFFFFFFFFFFFFFFFFFFFFFF DUP3 AND SWAP1 POP SWAP2 SWAP1 POP JUMP JUMPDEST PUSH0 PUSH3 0x1BEC DUP3 PUSH3 0x1BC1 JUMP JUMPDEST SWAP1 POP SWAP2 SWAP1 POP JUMP JUMPDEST PUSH3 0x1BFE DUP2 PUSH3 0x1BE0 JUMP JUMPDEST DUP3 MSTORE POP POP JUMP JUMPDEST PUSH0 PUSH1 0xA0 DUP3 ADD SWAP1 POP PUSH3 0x1C19 PUSH0 DUP4 ADD DUP9 PUSH3 0x1B9F JUMP JUMPDEST PUSH3 0x1C28 PUSH1 0x20 DUP4 ADD DUP8 PUSH3 0x1B9F JUMP JUMPDEST PUSH3 0x1C37 PUSH1 0x40 DUP4 ADD DUP7 PUSH3 0x1B9F JUMP JUMPDEST PUSH3 0x1C46 PUSH1 0x60 DUP4 ADD DUP6 PUSH3 0x1BB0 JUMP JUMPDEST PUSH3 0x1C55 PUSH1 0x80 DUP4 ADD DUP5 PUSH3 0x1BF3 JUMP JUMPDEST SWAP7 SWAP6 POP POP POP POP POP POP JUMP JUMPDEST PUSH0 PUSH3 0x1C6B DUP3 PUSH3 0x1685 JUMP JUMPDEST SWAP2 POP PUSH3 0x1C78 DUP4 PUSH3 0x1685 JUMP JUMPDEST SWAP3 POP DUP3 DUP3 ADD SWAP1 POP DUP1 DUP3 GT ISZERO PUSH3 0x1C93 JUMPI PUSH3 0x1C92 PUSH3 0x18B3 JUMP JUMPDEST JUMPDEST SWAP3 SWAP2 POP POP JUMP JUMPDEST PUSH32 0x4E487B7100000000000000000000000000000000000000000000000000000000 PUSH0 MSTORE PUSH1 0x12 PUSH1 0x4 MSTORE PUSH1 0x24 PUSH0 REVERT JUMPDEST PUSH0 PUSH3 0x1CD2 DUP3 PUSH3 0x1685 JUMP JUMPDEST SWAP2 POP PUSH3 0x1CDF DUP4 PUSH3 0x1685 JUMP JUMPDEST SWAP3 POP DUP3 PUSH3 0x1CF2 JUMPI PUSH3 0x1CF1 PUSH3 0x1C99 JUMP JUMPDEST JUMPDEST DUP3 DUP3 DIV SWAP1 POP SWAP3 SWAP2 POP POP JUMP JUMPDEST PUSH0 PUSH3 0x1D09 DUP3 PUSH3 0x1685 JUMP JUMPDEST SWAP2 POP PUSH3 0x1D16 DUP4 PUSH3 0x1685 JUMP JUMPDEST SWAP3 POP DUP3 DUP3 SUB SWAP1 POP DUP2 DUP2 GT ISZERO PUSH3 0x1D31 JUMPI PUSH3 0x1D30 PUSH3 0x18B3 JUMP JUMPDEST JUMPDEST SWAP3 SWAP2 POP POP JUMP JUMPDEST PUSH32 0x4E487B7100000000000000000000000000000000000000000000000000000000 PUSH0 MSTORE PUSH1 0x32 PUSH1 0x4 MSTORE PUSH1 0x24 PUSH0 REVERT JUMPDEST PUSH0 PUSH3 0x1D70 DUP3 PUSH3 0x1685 JUMP JUMPDEST SWAP2 POP PUSH32 0xFFFFFFFFFFFFFFFFFFFFFFFFFFFFFFFFFFFFFFFFFFFFFFFFFFFFFFFFFFFFFFFF DUP3 SUB PUSH3 0x1DA5 JUMPI PUSH3 0x1DA4 PUSH3 0x18B3 JUMP JUMPDEST JUMPDEST PUSH1 0x1 DUP3 ADD SWAP1 POP SWAP2 SWAP1 POP JUMP JUMPDEST PUSH0 PUSH1 0x20 DUP3 ADD SWAP1 POP PUSH3 0x1DC5 PUSH0 DUP4 ADD DUP5 PUSH3 0x1BB0 JUMP JUMPDEST SWAP3 SWAP2 POP POP JUMP JUMPDEST PUSH32 0x4E487B7100000000000000000000000000000000000000000000000000000000 PUSH0 MSTORE PUSH1 0x31 PUSH1 0x4 MSTORE PUSH1 0x24 PUSH0 REVERT JUMPDEST PUSH1 0x80 MLOAD PUSH1 0xA0 MLOAD PUSH1 0xC0 MLOAD PUSH1 0xE0 MLOAD PUSH2 0x4114 PUSH3 0x1E79 PUSH0 CODECOPY PUSH0 PUSH2 0xACE ADD MSTORE PUSH0 PUSH2 0xA9A ADD MSTORE PUSH0 DUP2 DUP2 PUSH2 0xE11 ADD MSTORE DUP2 DUP2 PUSH2 0x1B18 ADD MSTORE DUP2 DUP2 PUSH2 0x207E ADD MSTORE DUP2 DUP2 PUSH2 0x20AA ADD MSTORE DUP2 DUP2 PUSH2 0x214B ADD MSTORE DUP2 DUP2 PUSH2 0x21B4 ADD MSTORE DUP2 DUP2 PUSH2 0x2212 ADD MSTORE DUP2 DUP2 PUSH2 0x230F ADD MSTORE DUP2 DUP2 PUSH2 0x2343 ADD MSTORE DUP2 DUP2 PUSH2 0x238A ADD MSTORE DUP2 DUP2 PUSH2 0x23B6 ADD MSTORE PUSH2 0x2A63 ADD MSTORE PUSH0 PUSH2 0xA75 ADD MSTORE PUSH2 0x4114 PUSH0 RETURN INVALID PUSH1 0x80 PUSH1 0x40 MSTORE CALLVALUE DUP1 ISZERO PUSH2 0xF JUMPI PUSH0 DUP1 REVERT JUMPDEST POP PUSH1 0x4 CALLDATASIZE LT PUSH2 0x21A JUMPI PUSH0 CALLDATALOAD PUSH1 0xE0 SHR DUP1 PUSH4 0x89FB4C66 GT PUSH2 0x123 JUMPI DUP1 PUSH4 0xC5AB3BA6 GT PUSH2 0xAB JUMPI DUP1 PUSH4 0xDD62ED3E GT PUSH2 0x7A JUMPI DUP1 PUSH4 0xDD62ED3E EQ PUSH2 0x6C4 JUMPI DUP1 PUSH4 0xDD637699 EQ PUSH2 0x6F4 JUMPI DUP1 PUSH4 0xDFABC033 EQ PUSH2 0x710 JUMPI DUP1 PUSH4 0xE985E9C5 EQ PUSH2 0x72C JUMPI DUP1 PUSH4 0xF780BC1A EQ PUSH2 0x75C JUMPI PUSH2 0x21A JUMP JUMPDEST DUP1 PUSH4 0xC5AB3BA6 EQ PUSH2 0x62A JUMPI DUP1 PUSH4 0xC87B56DD EQ PUSH2 0x648 JUMPI DUP1 PUSH4 0xD505ACCF EQ PUSH2 0x678 JUMPI DUP1 PUSH4 0xD96CA0B9 EQ PUSH2 0x694 JUMPI PUSH2 0x21A JUMP JUMPDEST DUP1 PUSH4 0xA22CB465 GT PUSH2 0xF2 JUMPI DUP1 PUSH4 0xA22CB465 EQ PUSH2 0x562 JUMPI DUP1 PUSH4 0xA9059CBB EQ PUSH2 0x57E JUMPI DUP1 PUSH4 0xB1AB9317 EQ PUSH2 0x5AE JUMPI DUP1 PUSH4 0xB3F9EA34 EQ PUSH2 0x5DE JUMPI DUP1 PUSH4 0xB88D4FDE EQ PUSH2 0x60E JUMPI PUSH2 0x21A JUMP JUMPDEST DUP1 PUSH4 0x89FB4C66 EQ PUSH2 0x4EC JUMPI DUP1 PUSH4 0x8A696E50 EQ PUSH2 0x50A JUMPI DUP1 PUSH4 0x95D89B41 EQ PUSH2 0x526 JUMPI DUP1 PUSH4 0x976A8435 EQ PUSH2 0x544 JUMPI PUSH2 0x21A JUMP JUMPDEST DUP1 PUSH4 0x313CE567 GT PUSH2 0x1A6 JUMPI DUP1 PUSH4 0x4F02C420 GT PUSH2 0x175 JUMPI DUP1 PUSH4 0x4F02C420 EQ PUSH2 0x420 JUMPI DUP1 PUSH4 0x6352211E EQ PUSH2 0x43E JUMPI DUP1 PUSH4 0x6E8F624B EQ PUSH2 0x46E JUMPI DUP1 PUSH4 0x70A08231 EQ PUSH2 0x48C JUMPI DUP1 PUSH4 0x7ECEBE00 EQ PUSH2 0x4BC JUMPI PUSH2 0x21A JUMP JUMPDEST DUP1 PUSH4 0x313CE567 EQ PUSH2 0x398 JUMPI DUP1 PUSH4 0x3644E515 EQ PUSH2 0x3B6 JUMPI DUP1 PUSH4 0x42842E0E EQ PUSH2 0x3D4 JUMPI DUP1 PUSH4 0x4D966072 EQ PUSH2 0x3F0 JUMPI PUSH2 0x21A JUMP JUMPDEST DUP1 PUSH4 0x95EA7B3 GT PUSH2 0x1ED JUMPI DUP1 PUSH4 0x95EA7B3 EQ PUSH2 0x2CC JUMPI DUP1 PUSH4 0x9674EB0 EQ PUSH2 0x2FC JUMPI DUP1 PUSH4 0x9F0EF65 EQ PUSH2 0x31A JUMPI DUP1 PUSH4 0x18160DDD EQ PUSH2 0x34A JUMPI DUP1 PUSH4 0x23B872DD EQ PUSH2 0x368 JUMPI PUSH2 0x21A JUMP JUMPDEST DUP1 PUSH4 0x1FFC9A7 EQ PUSH2 0x21E JUMPI DUP1 PUSH4 0x2519DA3 EQ PUSH2 0x24E JUMPI DUP1 PUSH4 0x6FDDE03 EQ PUSH2 0x27E JUMPI DUP1 PUSH4 0x81812FC EQ PUSH2 0x29C JUMPI JUMPDEST PUSH0 DUP1 REVERT JUMPDEST PUSH2 0x238 PUSH1 0x4 DUP1 CALLDATASIZE SUB DUP2 ADD SWAP1 PUSH2 0x233 SWAP2 SWAP1 PUSH2 0x339A JUMP JUMPDEST PUSH2 0x78C JUMP JUMPDEST PUSH1 0x40 MLOAD PUSH2 0x245 SWAP2 SWAP1 PUSH2 0x33DF JUMP JUMPDEST PUSH1 0x40 MLOAD DUP1 SWAP2 SUB SWAP1 RETURN JUMPDEST PUSH2 0x268 PUSH1 0x4 DUP1 CALLDATASIZE SUB DUP2 ADD SWAP1 PUSH2 0x263 SWAP2 SWAP1 PUSH2 0x3452 JUMP JUMPDEST PUSH2 0x85D JUMP JUMPDEST PUSH1 0x40 MLOAD PUSH2 0x275 SWAP2 SWAP1 PUSH2 0x3495 JUMP JUMPDEST PUSH1 0x40 MLOAD DUP1 SWAP2 SUB SWAP1 RETURN JUMPDEST PUSH2 0x286 PUSH2 0x8A3 JUMP JUMPDEST PUSH1 0x40 MLOAD PUSH2 0x293 SWAP2 SWAP1 PUSH2 0x3538 JUMP JUMPDEST PUSH1 0x40 MLOAD DUP1 SWAP2 SUB SWAP1 RETURN JUMPDEST PUSH2 0x2B6 PUSH1 0x4 DUP1 CALLDATASIZE SUB DUP2 ADD SWAP1 PUSH2 0x2B1 SWAP2 SWAP1 PUSH2 0x3582 JUMP JUMPDEST PUSH2 0x92F JUMP JUMPDEST PUSH1 0x40 MLOAD PUSH2 0x2C3 SWAP2 SWAP1 PUSH2 0x35BC JUMP JUMPDEST PUSH1 0x40 MLOAD DUP1 SWAP2 SUB SWAP1 RETURN JUMPDEST PUSH2 0x2E6 PUSH1 0x4 DUP1 CALLDATASIZE SUB DUP2 ADD SWAP1 PUSH2 0x2E1 SWAP2 SWAP1 PUSH2 0x35D5 JUMP JUMPDEST PUSH2 0x95F JUMP JUMPDEST PUSH1 0x40 MLOAD PUSH2 0x2F3 SWAP2 SWAP1 PUSH2 0x33DF JUMP JUMPDEST PUSH1 0x40 MLOAD DUP1 SWAP2 SUB SWAP1 RETURN JUMPDEST PUSH2 0x304 PUSH2 0x999 JUMP JUMPDEST PUSH1 0x40 MLOAD PUSH2 0x311 SWAP2 SWAP1 PUSH2 0x3495 JUMP JUMPDEST PUSH1 0x40 MLOAD DUP1 SWAP2 SUB SWAP1 RETURN JUMPDEST PUSH2 0x334 PUSH1 0x4 DUP1 CALLDATASIZE SUB DUP2 ADD SWAP1 PUSH2 0x32F SWAP2 SWAP1 PUSH2 0x3452 JUMP JUMPDEST PUSH2 0x9A8 JUMP JUMPDEST PUSH1 0x40 MLOAD PUSH2 0x341 SWAP2 SWAP1 PUSH2 0x33DF JUMP JUMPDEST PUSH1 0x40 MLOAD DUP1 SWAP2 SUB SWAP1 RETURN JUMPDEST PUSH2 0x352 PUSH2 0xA30 JUMP JUMPDEST PUSH1 0x40 MLOAD PUSH2 0x35F SWAP2 SWAP1 PUSH2 0x3495 JUMP JUMPDEST PUSH1 0x40 MLOAD DUP1 SWAP2 SUB SWAP1 RETURN JUMPDEST PUSH2 0x382 PUSH1 0x4 DUP1 CALLDATASIZE SUB DUP2 ADD SWAP1 PUSH2 0x37D SWAP2 SWAP1 PUSH2 0x3613 JUMP JUMPDEST PUSH2 0xA36 JUMP JUMPDEST PUSH1 0x40 MLOAD PUSH2 0x38F SWAP2 SWAP1 PUSH2 0x33DF JUMP JUMPDEST PUSH1 0x40 MLOAD DUP1 SWAP2 SUB SWAP1 RETURN JUMPDEST PUSH2 0x3A0 PUSH2 0xA73 JUMP JUMPDEST PUSH1 0x40 MLOAD PUSH2 0x3AD SWAP2 SWAP1 PUSH2 0x367E JUMP JUMPDEST PUSH1 0x40 MLOAD DUP1 SWAP2 SUB SWAP1 RETURN JUMPDEST PUSH2 0x3BE PUSH2 0xA97 JUMP JUMPDEST PUSH1 0x40 MLOAD PUSH2 0x3CB SWAP2 SWAP1 PUSH2 0x36AF JUMP JUMPDEST PUSH1 0x40 MLOAD DUP1 SWAP2 SUB SWAP1 RETURN JUMPDEST PUSH2 0x3EE PUSH1 0x4 DUP1 CALLDATASIZE SUB DUP2 ADD SWAP1 PUSH2 0x3E9 SWAP2 SWAP1 PUSH2 0x3613 JUMP JUMPDEST PUSH2 0xAF3 JUMP JUMPDEST STOP JUMPDEST PUSH2 0x40A PUSH1 0x4 DUP1 CALLDATASIZE SUB DUP2 ADD SWAP1 PUSH2 0x405 SWAP2 SWAP1 PUSH2 0x35D5 JUMP JUMPDEST PUSH2 0xB12 JUMP JUMPDEST PUSH1 0x40 MLOAD PUSH2 0x417 SWAP2 SWAP1 PUSH2 0x33DF JUMP JUMPDEST PUSH1 0x40 MLOAD DUP1 SWAP2 SUB SWAP1 RETURN JUMPDEST PUSH2 0x428 PUSH2 0xC64 JUMP JUMPDEST PUSH1 0x40 MLOAD PUSH2 0x435 SWAP2 SWAP1 PUSH2 0x3495 JUMP JUMPDEST PUSH1 0x40 MLOAD DUP1 SWAP2 SUB SWAP1 RETURN JUMPDEST PUSH2 0x458 PUSH1 0x4 DUP1 CALLDATASIZE SUB DUP2 ADD SWAP1 PUSH2 0x453 SWAP2 SWAP1 PUSH2 0x3582 JUMP JUMPDEST PUSH2 0xC6A JUMP JUMPDEST PUSH1 0x40 MLOAD PUSH2 0x465 SWAP2 SWAP1 PUSH2 0x35BC JUMP JUMPDEST PUSH1 0x40 MLOAD DUP1 SWAP2 SUB SWAP1 RETURN JUMPDEST PUSH2 0x476 PUSH2 0xD1F JUMP JUMPDEST PUSH1 0x40 MLOAD PUSH2 0x483 SWAP2 SWAP1 PUSH2 0x3495 JUMP JUMPDEST PUSH1 0x40 MLOAD DUP1 SWAP2 SUB SWAP1 RETURN JUMPDEST PUSH2 0x4A6 PUSH1 0x4 DUP1 CALLDATASIZE SUB DUP2 ADD SWAP1 PUSH2 0x4A1 SWAP2 SWAP1 PUSH2 0x3452 JUMP JUMPDEST PUSH2 0xD43 JUMP JUMPDEST PUSH1 0x40 MLOAD PUSH2 0x4B3 SWAP2 SWAP1 PUSH2 0x3495 JUMP JUMPDEST PUSH1 0x40 MLOAD DUP1 SWAP2 SUB SWAP1 RETURN JUMPDEST PUSH2 0x4D6 PUSH1 0x4 DUP1 CALLDATASIZE SUB DUP2 ADD SWAP1 PUSH2 0x4D1 SWAP2 SWAP1 PUSH2 0x3452 JUMP JUMPDEST PUSH2 0xD58 JUMP JUMPDEST PUSH1 0x40 MLOAD PUSH2 0x4E3 SWAP2 SWAP1 PUSH2 0x3495 JUMP JUMPDEST PUSH1 0x40 MLOAD DUP1 SWAP2 SUB SWAP1 RETURN JUMPDEST PUSH2 0x4F4 PUSH2 0xD6D JUMP JUMPDEST PUSH1 0x40 MLOAD PUSH2 0x501 SWAP2 SWAP1 PUSH2 0x3495 JUMP JUMPDEST PUSH1 0x40 MLOAD DUP1 SWAP2 SUB SWAP1 RETURN JUMPDEST PUSH2 0x524 PUSH1 0x4 DUP1 CALLDATASIZE SUB DUP2 ADD SWAP1 PUSH2 0x51F SWAP2 SWAP1 PUSH2 0x36F2 JUMP JUMPDEST PUSH2 0xD76 JUMP JUMPDEST STOP JUMPDEST PUSH2 0x52E PUSH2 0xD83 JUMP JUMPDEST PUSH1 0x40 MLOAD PUSH2 0x53B SWAP2 SWAP1 PUSH2 0x3538 JUMP JUMPDEST PUSH1 0x40 MLOAD DUP1 SWAP2 SUB SWAP1 RETURN JUMPDEST PUSH2 0x54C PUSH2 0xE0F JUMP JUMPDEST PUSH1 0x40 MLOAD PUSH2 0x559 SWAP2 SWAP1 PUSH2 0x3495 JUMP JUMPDEST PUSH1 0x40 MLOAD DUP1 SWAP2 SUB SWAP1 RETURN JUMPDEST PUSH2 0x57C PUSH1 0x4 DUP1 CALLDATASIZE SUB DUP2 ADD SWAP1 PUSH2 0x577 SWAP2 SWAP1 PUSH2 0x371D JUMP JUMPDEST PUSH2 0xE33 JUMP JUMPDEST STOP JUMPDEST PUSH2 0x598 PUSH1 0x4 DUP1 CALLDATASIZE SUB DUP2 ADD SWAP1 PUSH2 0x593 SWAP2 SWAP1 PUSH2 0x35D5 JUMP JUMPDEST PUSH2 0xF90 JUMP JUMPDEST PUSH1 0x40 MLOAD PUSH2 0x5A5 SWAP2 SWAP1 PUSH2 0x33DF JUMP JUMPDEST PUSH1 0x40 MLOAD DUP1 SWAP2 SUB SWAP1 RETURN JUMPDEST PUSH2 0x5C8 PUSH1 0x4 DUP1 CALLDATASIZE SUB DUP2 ADD SWAP1 PUSH2 0x5C3 SWAP2 SWAP1 PUSH2 0x3452 JUMP JUMPDEST PUSH2 0x1009 JUMP JUMPDEST PUSH1 0x40 MLOAD PUSH2 0x5D5 SWAP2 SWAP1 PUSH2 0x3812 JUMP JUMPDEST PUSH1 0x40 MLOAD DUP1 SWAP2 SUB SWAP1 RETURN JUMPDEST PUSH2 0x5F8 PUSH1 0x4 DUP1 CALLDATASIZE SUB DUP2 ADD SWAP1 PUSH2 0x5F3 SWAP2 SWAP1 PUSH2 0x3452 JUMP JUMPDEST PUSH2 0x109C JUMP JUMPDEST PUSH1 0x40 MLOAD PUSH2 0x605 SWAP2 SWAP1 PUSH2 0x3495 JUMP JUMPDEST PUSH1 0x40 MLOAD DUP1 SWAP2 SUB SWAP1 RETURN JUMPDEST PUSH2 0x628 PUSH1 0x4 DUP1 CALLDATASIZE SUB DUP2 ADD SWAP1 PUSH2 0x623 SWAP2 SWAP1 PUSH2 0x395E JUMP JUMPDEST PUSH2 0x10E5 JUMP JUMPDEST STOP JUMPDEST PUSH2 0x632 PUSH2 0x1257 JUMP JUMPDEST PUSH1 0x40 MLOAD PUSH2 0x63F SWAP2 SWAP1 PUSH2 0x3495 JUMP JUMPDEST PUSH1 0x40 MLOAD DUP1 SWAP2 SUB SWAP1 RETURN JUMPDEST PUSH2 0x662 PUSH1 0x4 DUP1 CALLDATASIZE SUB DUP2 ADD SWAP1 PUSH2 0x65D SWAP2 SWAP1 PUSH2 0x3582 JUMP JUMPDEST PUSH2 0x1260 JUMP JUMPDEST PUSH1 0x40 MLOAD PUSH2 0x66F SWAP2 SWAP1 PUSH2 0x3538 JUMP JUMPDEST PUSH1 0x40 MLOAD DUP1 SWAP2 SUB SWAP1 RETURN JUMPDEST PUSH2 0x692 PUSH1 0x4 DUP1 CALLDATASIZE SUB DUP2 ADD SWAP1 PUSH2 0x68D SWAP2 SWAP1 PUSH2 0x3A32 JUMP JUMPDEST PUSH2 0x1291 JUMP JUMPDEST STOP JUMPDEST PUSH2 0x6AE PUSH1 0x4 DUP1 CALLDATASIZE SUB DUP2 ADD SWAP1 PUSH2 0x6A9 SWAP2 SWAP1 PUSH2 0x3613 JUMP JUMPDEST PUSH2 0x1611 JUMP JUMPDEST PUSH1 0x40 MLOAD PUSH2 0x6BB SWAP2 SWAP1 PUSH2 0x33DF JUMP JUMPDEST PUSH1 0x40 MLOAD DUP1 SWAP2 SUB SWAP1 RETURN JUMPDEST PUSH2 0x6DE PUSH1 0x4 DUP1 CALLDATASIZE SUB DUP2 ADD SWAP1 PUSH2 0x6D9 SWAP2 SWAP1 PUSH2 0x3ACF JUMP JUMPDEST PUSH2 0x181D JUMP JUMPDEST PUSH1 0x40 MLOAD PUSH2 0x6EB SWAP2 SWAP1 PUSH2 0x3495 JUMP JUMPDEST PUSH1 0x40 MLOAD DUP1 SWAP2 SUB SWAP1 RETURN JUMPDEST PUSH2 0x70E PUSH1 0x4 DUP1 CALLDATASIZE SUB DUP2 ADD SWAP1 PUSH2 0x709 SWAP2 SWAP1 PUSH2 0x3613 JUMP JUMPDEST PUSH2 0x183D JUMP JUMPDEST STOP JUMPDEST PUSH2 0x72A PUSH1 0x4 DUP1 CALLDATASIZE SUB DUP2 ADD SWAP1 PUSH2 0x725 SWAP2 SWAP1 PUSH2 0x35D5 JUMP JUMPDEST PUSH2 0x1B4C JUMP JUMPDEST STOP JUMPDEST PUSH2 0x746 PUSH1 0x4 DUP1 CALLDATASIZE SUB DUP2 ADD SWAP1 PUSH2 0x741 SWAP2 SWAP1 PUSH2 0x3ACF JUMP JUMPDEST PUSH2 0x1CFC JUMP JUMPDEST PUSH1 0x40 MLOAD PUSH2 0x753 SWAP2 SWAP1 PUSH2 0x33DF JUMP JUMPDEST PUSH1 0x40 MLOAD DUP1 SWAP2 SUB SWAP1 RETURN JUMPDEST PUSH2 0x776 PUSH1 0x4 DUP1 CALLDATASIZE SUB DUP2 ADD SWAP1 PUSH2 0x771 SWAP2 SWAP1 PUSH2 0x3B0D JUMP JUMPDEST PUSH2 0x1D26 JUMP JUMPDEST PUSH1 0x40 MLOAD PUSH2 0x783 SWAP2 SWAP1 PUSH2 0x3812 JUMP JUMPDEST PUSH1 0x40 MLOAD DUP1 SWAP2 SUB SWAP1 RETURN JUMPDEST PUSH0 PUSH32 0xCAF91FF500000000000000000000000000000000000000000000000000000000 PUSH28 0xFFFFFFFFFFFFFFFFFFFFFFFFFFFFFFFFFFFFFFFFFFFFFFFFFFFFFFFF NOT AND DUP3 PUSH28 0xFFFFFFFFFFFFFFFFFFFFFFFFFFFFFFFFFFFFFFFFFFFFFFFFFFFFFFFF NOT AND EQ DUP1 PUSH2 0x856 JUMPI POP PUSH32 0x1FFC9A700000000000000000000000000000000000000000000000000000000 PUSH28 0xFFFFFFFFFFFFFFFFFFFFFFFFFFFFFFFFFFFFFFFFFFFFFFFFFFFFFFFF NOT AND DUP3 PUSH28 0xFFFFFFFFFFFFFFFFFFFFFFFFFFFFFFFFFFFFFFFFFFFFFFFFFFFFFFFF NOT AND EQ JUMPDEST SWAP1 POP SWAP2 SWAP1 POP JUMP JUMPDEST PUSH0 PUSH1 0x6 PUSH0 DUP4 PUSH20 0xFFFFFFFFFFFFFFFFFFFFFFFFFFFFFFFFFFFFFFFF AND PUSH20 0xFFFFFFFFFFFFFFFFFFFFFFFFFFFFFFFFFFFFFFFF AND DUP2 MSTORE PUSH1 0x20 ADD SWAP1 DUP2 MSTORE PUSH1 0x20 ADD PUSH0 KECCAK256 SLOAD SWAP1 POP SWAP2 SWAP1 POP JUMP JUMPDEST PUSH1 0x2 DUP1 SLOAD PUSH2 0x8B0 SWAP1 PUSH2 0x3B78 JUMP JUMPDEST DUP1 PUSH1 0x1F ADD PUSH1 0x20 DUP1 SWAP2 DIV MUL PUSH1 0x20 ADD PUSH1 0x40 MLOAD SWAP1 DUP2 ADD PUSH1 0x40 MSTORE DUP1 SWAP3 SWAP2 SWAP1 DUP2 DUP2 MSTORE PUSH1 0x20 ADD DUP3 DUP1 SLOAD PUSH2 0x8DC SWAP1 PUSH2 0x3B78 JUMP JUMPDEST DUP1 ISZERO PUSH2 0x927 JUMPI DUP1 PUSH1 0x1F LT PUSH2 0x8FE JUMPI PUSH2 0x100 DUP1 DUP4 SLOAD DIV MUL DUP4 MSTORE SWAP2 PUSH1 0x20 ADD SWAP2 PUSH2 0x927 JUMP JUMPDEST DUP3 ADD SWAP2 SWAP1 PUSH0 MSTORE PUSH1 0x20 PUSH0 KECCAK256 SWAP1 JUMPDEST DUP2 SLOAD DUP2 MSTORE SWAP1 PUSH1 0x1 ADD SWAP1 PUSH1 0x20 ADD DUP1 DUP4 GT PUSH2 0x90A JUMPI DUP3 SWAP1 SUB PUSH1 0x1F AND DUP3 ADD SWAP2 JUMPDEST POP POP POP POP POP DUP2 JUMP JUMPDEST PUSH1 0x8 PUSH1 0x20 MSTORE DUP1 PUSH0 MSTORE PUSH1 0x40 PUSH0 KECCAK256 PUSH0 SWAP2 POP SLOAD SWAP1 PUSH2 0x100 EXP SWAP1 DIV PUSH20 0xFFFFFFFFFFFFFFFFFFFFFFFFFFFFFFFFFFFFFFFF AND DUP2 JUMP JUMPDEST PUSH0 PUSH2 0x969 DUP3 PUSH2 0x1DDF JUMP JUMPDEST ISZERO PUSH2 0x97D JUMPI PUSH2 0x978 DUP4 DUP4 PUSH2 0x1B4C JUMP JUMPDEST PUSH2 0x98E JUMP JUMPDEST PUSH2 0x987 DUP4 DUP4 PUSH2 0xB12 JUMP JUMPDEST SWAP1 POP PUSH2 0x993 JUMP JUMPDEST PUSH1 0x1 SWAP1 POP JUMPDEST SWAP3 SWAP2 POP POP JUMP JUMPDEST PUSH0 PUSH2 0x9A3 PUSH0 PUSH2 0x1E36 JUMP JUMPDEST SWAP1 POP SWAP1 JUMP JUMPDEST PUSH0 DUP1 PUSH20 0xFFFFFFFFFFFFFFFFFFFFFFFFFFFFFFFFFFFFFFFF AND DUP3 PUSH20 0xFFFFFFFFFFFFFFFFFFFFFFFFFFFFFFFFFFFFFFFF AND EQ DUP1 PUSH2 0xA29 JUMPI POP PUSH1 0xC PUSH0 DUP4 PUSH20 0xFFFFFFFFFFFFFFFFFFFFFFFFFFFFFFFFFFFFFFFF AND PUSH20 0xFFFFFFFFFFFFFFFFFFFFFFFFFFFFFFFFFFFFFFFF AND DUP2 MSTORE PUSH1 0x20 ADD SWAP1 DUP2 MSTORE PUSH1 0x20 ADD PUSH0 KECCAK256 PUSH0 SWAP1 SLOAD SWAP1 PUSH2 0x100 EXP SWAP1 DIV PUSH1 0xFF AND JUMPDEST SWAP1 POP SWAP2 SWAP1 POP JUMP JUMPDEST PUSH1 0x4 SLOAD DUP2 JUMP JUMPDEST PUSH0 PUSH2 0xA40 DUP3 PUSH2 0x1DDF JUMP JUMPDEST ISZERO PUSH2 0xA55 JUMPI PUSH2 0xA50 DUP5 DUP5 DUP5 PUSH2 0x183D JUMP JUMPDEST PUSH2 0xA67 JUMP JUMPDEST PUSH2 0xA60 DUP5 DUP5 DUP5 PUSH2 0x1611 JUMP JUMPDEST SWAP1 POP PUSH2 0xA6C JUMP JUMPDEST PUSH1 0x1 SWAP1 POP JUMPDEST SWAP4 SWAP3 POP POP POP JUMP JUMPDEST PUSH32 0x0 DUP2 JUMP JUMPDEST PUSH0 PUSH32 0x0 CHAINID EQ PUSH2 0xACC JUMPI PUSH2 0xAC7 PUSH2 0x1E90 JUMP JUMPDEST PUSH2 0xAEE JUMP JUMPDEST PUSH32 0x0 JUMPDEST SWAP1 POP SWAP1 JUMP JUMPDEST PUSH2 0xB0D DUP4 DUP4 DUP4 PUSH1 0x40 MLOAD DUP1 PUSH1 0x20 ADD PUSH1 0x40 MSTORE DUP1 PUSH0 DUP2 MSTORE POP PUSH2 0x10E5 JUMP JUMPDEST POP POP POP JUMP JUMPDEST PUSH0 DUP1 PUSH20 0xFFFFFFFFFFFFFFFFFFFFFFFFFFFFFFFFFFFFFFFF AND DUP4 PUSH20 0xFFFFFFFFFFFFFFFFFFFFFFFFFFFFFFFFFFFFFFFF AND SUB PUSH2 0xB78 JUMPI PUSH1 0x40 MLOAD PUSH32 0x5461585F00000000000000000000000000000000000000000000000000000000 DUP2 MSTORE PUSH1 0x4 ADD PUSH1 0x40 MLOAD DUP1 SWAP2 SUB SWAP1 REVERT JUMPDEST DUP2 PUSH1 0x7 PUSH0 CALLER PUSH20 0xFFFFFFFFFFFFFFFFFFFFFFFFFFFFFFFFFFFFFFFF AND PUSH20 0xFFFFFFFFFFFFFFFFFFFFFFFFFFFFFFFFFFFFFFFF AND DUP2 MSTORE PUSH1 0x20 ADD SWAP1 DUP2 MSTORE PUSH1 0x20 ADD PUSH0 KECCAK256 PUSH0 DUP6 PUSH20 0xFFFFFFFFFFFFFFFFFFFFFFFFFFFFFFFFFFFFFFFF AND PUSH20 0xFFFFFFFFFFFFFFFFFFFFFFFFFFFFFFFFFFFFFFFF AND DUP2 MSTORE PUSH1 0x20 ADD SWAP1 DUP2 MSTORE PUSH1 0x20 ADD PUSH0 KECCAK256 DUP2 SWAP1 SSTORE POP DUP3 PUSH20 0xFFFFFFFFFFFFFFFFFFFFFFFFFFFFFFFFFFFFFFFF AND CALLER PUSH20 0xFFFFFFFFFFFFFFFFFFFFFFFFFFFFFFFFFFFFFFFF AND PUSH32 0x8C5BE1E5EBEC7D5BD14F71427D1E84F3DD0314C0F7B2291E5B200AC8C7C3B925 DUP5 PUSH1 0x40 MLOAD PUSH2 0xC52 SWAP2 SWAP1 PUSH2 0x3495 JUMP JUMPDEST PUSH1 0x40 MLOAD DUP1 SWAP2 SUB SWAP1 LOG3 PUSH1 0x1 SWAP1 POP SWAP3 SWAP2 POP POP JUMP JUMPDEST PUSH1 0x5 SLOAD DUP2 JUMP JUMPDEST PUSH0 PUSH2 0xC74 DUP3 PUSH2 0x1F1B JUMP JUMPDEST SWAP1 POP PUSH2 0xC7F DUP3 PUSH2 0x1DDF JUMP JUMPDEST PUSH2 0xCB5 JUMPI PUSH1 0x40 MLOAD PUSH32 0x3F6CC76800000000000000000000000000000000000000000000000000000000 DUP2 MSTORE PUSH1 0x4 ADD PUSH1 0x40 MLOAD DUP1 SWAP2 SUB SWAP1 REVERT JUMPDEST PUSH0 PUSH20 0xFFFFFFFFFFFFFFFFFFFFFFFFFFFFFFFFFFFFFFFF AND DUP2 PUSH20 0xFFFFFFFFFFFFFFFFFFFFFFFFFFFFFFFFFFFFFFFF AND SUB PUSH2 0xD1A JUMPI PUSH1 0x40 MLOAD PUSH32 0xC5723B5100000000000000000000000000000000000000000000000000000000 DUP2 MSTORE PUSH1 0x4 ADD PUSH1 0x40 MLOAD DUP1 SWAP2 SUB SWAP1 REVERT JUMPDEST SWAP2 SWAP1 POP JUMP JUMPDEST PUSH32 0x8000000000000000000000000000000000000000000000000000000000000000 DUP2 JUMP JUMPDEST PUSH1 0x6 PUSH1 0x20 MSTORE DUP1 PUSH0 MSTORE PUSH1 0x40 PUSH0 KECCAK256 PUSH0 SWAP2 POP SWAP1 POP SLOAD DUP2 JUMP JUMPDEST PUSH1 0xD PUSH1 0x20 MSTORE DUP1 PUSH0 MSTORE PUSH1 0x40 PUSH0 KECCAK256 PUSH0 SWAP2 POP SWAP1 POP SLOAD DUP2 JUMP JUMPDEST PUSH0 PUSH1 0x4 SLOAD SWAP1 POP SWAP1 JUMP JUMPDEST PUSH2 0xD80 CALLER DUP3 PUSH2 0x1F50 JUMP JUMPDEST POP JUMP JUMPDEST PUSH1 0x3 DUP1 SLOAD PUSH2 0xD90 SWAP1 PUSH2 0x3B78 JUMP JUMPDEST DUP1 PUSH1 0x1F ADD PUSH1 0x20 DUP1 SWAP2 DIV MUL PUSH1 0x20 ADD PUSH1 0x40 MLOAD SWAP1 DUP2 ADD PUSH1 0x40 MSTORE DUP1 SWAP3 SWAP2 SWAP1 DUP2 DUP2 MSTORE PUSH1 0x20 ADD DUP3 DUP1 SLOAD PUSH2 0xDBC SWAP1 PUSH2 0x3B78 JUMP JUMPDEST DUP1 ISZERO PUSH2 0xE07 JUMPI DUP1 PUSH1 0x1F LT PUSH2 0xDDE JUMPI PUSH2 0x100 DUP1 DUP4 SLOAD DIV MUL DUP4 MSTORE SWAP2 PUSH1 0x20 ADD SWAP2 PUSH2 0xE07 JUMP JUMPDEST DUP3 ADD SWAP2 SWAP1 PUSH0 MSTORE PUSH1 0x20 PUSH0 KECCAK256 SWAP1 JUMPDEST DUP2 SLOAD DUP2 MSTORE SWAP1 PUSH1 0x1 ADD SWAP1 PUSH1 0x20 ADD DUP1 DUP4 GT PUSH2 0xDEA JUMPI DUP3 SWAP1 SUB PUSH1 0x1F AND DUP3 ADD SWAP2 JUMPDEST POP POP POP POP POP DUP2 JUMP JUMPDEST PUSH32 0x0 DUP2 JUMP JUMPDEST PUSH0 PUSH20 0xFFFFFFFFFFFFFFFFFFFFFFFFFFFFFFFFFFFFFFFF AND DUP3 PUSH20 0xFFFFFFFFFFFFFFFFFFFFFFFFFFFFFFFFFFFFFFFF AND SUB PUSH2 0xE98 JUMPI PUSH1 0x40 MLOAD PUSH32 0xCCEA9E6F00000000000000000000000000000000000000000000000000000000 DUP2 MSTORE PUSH1 0x4 ADD PUSH1 0x40 MLOAD DUP1 SWAP2 SUB SWAP1 REVERT JUMPDEST DUP1 PUSH1 0x9 PUSH0 CALLER PUSH20 0xFFFFFFFFFFFFFFFFFFFFFFFFFFFFFFFFFFFFFFFF AND PUSH20 0xFFFFFFFFFFFFFFFFFFFFFFFFFFFFFFFFFFFFFFFF AND DUP2 MSTORE PUSH1 0x20 ADD SWAP1 DUP2 MSTORE PUSH1 0x20 ADD PUSH0 KECCAK256 PUSH0 DUP5 PUSH20 0xFFFFFFFFFFFFFFFFFFFFFFFFFFFFFFFFFFFFFFFF AND PUSH20 0xFFFFFFFFFFFFFFFFFFFFFFFFFFFFFFFFFFFFFFFF AND DUP2 MSTORE PUSH1 0x20 ADD SWAP1 DUP2 MSTORE PUSH1 0x20 ADD PUSH0 KECCAK256 PUSH0 PUSH2 0x100 EXP DUP2 SLOAD DUP2 PUSH1 0xFF MUL NOT AND SWAP1 DUP4 ISZERO ISZERO MUL OR SWAP1 SSTORE POP DUP2 PUSH20 0xFFFFFFFFFFFFFFFFFFFFFFFFFFFFFFFFFFFFFFFF AND CALLER PUSH20 0xFFFFFFFFFFFFFFFFFFFFFFFFFFFFFFFFFFFFFFFF AND PUSH32 0x17307EAB39AB6107E8899845AD3D59BD9653F200F220920489CA2B5937696C31 DUP4 PUSH1 0x40 MLOAD PUSH2 0xF84 SWAP2 SWAP1 PUSH2 0x33DF JUMP JUMPDEST PUSH1 0x40 MLOAD DUP1 SWAP2 SUB SWAP1 LOG3 POP POP JUMP JUMPDEST PUSH0 DUP1 PUSH20 0xFFFFFFFFFFFFFFFFFFFFFFFFFFFFFFFFFFFFFFFF AND DUP4 PUSH20 0xFFFFFFFFFFFFFFFFFFFFFFFFFFFFFFFFFFFFFFFF AND SUB PUSH2 0xFF6 JUMPI PUSH1 0x40 MLOAD PUSH32 0x9C8D2CD200000000000000000000000000000000000000000000000000000000 DUP2 MSTORE PUSH1 0x4 ADD PUSH1 0x40 MLOAD DUP1 SWAP2 SUB SWAP1 REVERT JUMPDEST PUSH2 0x1001 CALLER DUP5 DUP5 PUSH2 0x202B JUMP JUMPDEST SWAP1 POP SWAP3 SWAP2 POP POP JUMP JUMPDEST PUSH1 0x60 PUSH1 0xB PUSH0 DUP4 PUSH20 0xFFFFFFFFFFFFFFFFFFFFFFFFFFFFFFFFFFFFFFFF AND PUSH20 0xFFFFFFFFFFFFFFFFFFFFFFFFFFFFFFFFFFFFFFFF AND DUP2 MSTORE PUSH1 0x20 ADD SWAP1 DUP2 MSTORE PUSH1 0x20 ADD PUSH0 KECCAK256 DUP1 SLOAD DUP1 PUSH1 0x20 MUL PUSH1 0x20 ADD PUSH1 0x40 MLOAD SWAP1 DUP2 ADD PUSH1 0x40 MSTORE DUP1 SWAP3 SWAP2 SWAP1 DUP2 DUP2 MSTORE PUSH1 0x20 ADD DUP3 DUP1 SLOAD DUP1 ISZERO PUSH2 0x1090 JUMPI PUSH1 0x20 MUL DUP3 ADD SWAP2 SWAP1 PUSH0 MSTORE PUSH1 0x20 PUSH0 KECCAK256 SWAP1 JUMPDEST DUP2 SLOAD DUP2 MSTORE PUSH1 0x20 ADD SWAP1 PUSH1 0x1 ADD SWAP1 DUP1 DUP4 GT PUSH2 0x107C JUMPI JUMPDEST POP POP POP POP POP SWAP1 POP SWAP2 SWAP1 POP JUMP JUMPDEST PUSH0 PUSH1 0xB PUSH0 DUP4 PUSH20 0xFFFFFFFFFFFFFFFFFFFFFFFFFFFFFFFFFFFFFFFF AND PUSH20 0xFFFFFFFFFFFFFFFFFFFFFFFFFFFFFFFFFFFFFFFF AND DUP2 MSTORE PUSH1 0x20 ADD SWAP1 DUP2 MSTORE PUSH1 0x20 ADD PUSH0 KECCAK256 DUP1 SLOAD SWAP1 POP SWAP1 POP SWAP2 SWAP1 POP JUMP JUMPDEST PUSH2 0x10EE DUP3 PUSH2 0x1DDF JUMP JUMPDEST PUSH2 0x1124 JUMPI PUSH1 0x40 MLOAD PUSH32 0x3F6CC76800000000000000000000000000000000000000000000000000000000 DUP2 MSTORE PUSH1 0x4 ADD PUSH1 0x40 MLOAD DUP1 SWAP2 SUB SWAP1 REVERT JUMPDEST PUSH2 0x112F DUP5 DUP5 DUP5 PUSH2 0xA36 JUMP JUMPDEST POP PUSH0 DUP4 PUSH20 0xFFFFFFFFFFFFFFFFFFFFFFFFFFFFFFFFFFFFFFFF AND EXTCODESIZE EQ ISZERO DUP1 ISZERO PUSH2 0x121A JUMPI POP PUSH4 0x150B7A02 PUSH1 0xE0 SHL PUSH28 0xFFFFFFFFFFFFFFFFFFFFFFFFFFFFFFFFFFFFFFFFFFFFFFFFFFFFFFFF NOT AND DUP4 PUSH20 0xFFFFFFFFFFFFFFFFFFFFFFFFFFFFFFFFFFFFFFFF AND PUSH4 0x150B7A02 CALLER DUP8 DUP7 DUP7 PUSH1 0x40 MLOAD DUP6 PUSH4 0xFFFFFFFF AND PUSH1 0xE0 SHL DUP2 MSTORE PUSH1 0x4 ADD PUSH2 0x11B8 SWAP5 SWAP4 SWAP3 SWAP2 SWAP1 PUSH2 0x3BFA JUMP JUMPDEST PUSH1 0x20 PUSH1 0x40 MLOAD DUP1 DUP4 SUB DUP2 PUSH0 DUP8 GAS CALL ISZERO DUP1 ISZERO PUSH2 0x11D4 JUMPI RETURNDATASIZE PUSH0 DUP1 RETURNDATACOPY RETURNDATASIZE PUSH0 REVERT JUMPDEST POP POP POP POP PUSH1 0x40 MLOAD RETURNDATASIZE PUSH1 0x1F NOT PUSH1 0x1F DUP3 ADD AND DUP3 ADD DUP1 PUSH1 0x40 MSTORE POP DUP2 ADD SWAP1 PUSH2 0x11F8 SWAP2 SWAP1 PUSH2 0x3C58 JUMP JUMPDEST PUSH28 0xFFFFFFFFFFFFFFFFFFFFFFFFFFFFFFFFFFFFFFFFFFFFFFFFFFFFFFFF NOT AND EQ ISZERO JUMPDEST ISZERO PUSH2 0x1251 JUMPI PUSH1 0x40 MLOAD PUSH32 0x3DA6393100000000000000000000000000000000000000000000000000000000 DUP2 MSTORE PUSH1 0x4 ADD PUSH1 0x40 MLOAD DUP1 SWAP2 SUB SWAP1 REVERT JUMPDEST POP POP POP POP JUMP JUMPDEST PUSH0 PUSH1 0x5 SLOAD SWAP1 POP SWAP1 JUMP JUMPDEST PUSH1 0x60 PUSH2 0x126B DUP3 PUSH2 0x2415 JUMP JUMPDEST PUSH1 0x40 MLOAD PUSH1 0x20 ADD PUSH2 0x127B SWAP2 SWAP1 PUSH2 0x3CE3 JUMP JUMPDEST PUSH1 0x40 MLOAD PUSH1 0x20 DUP2 DUP4 SUB SUB DUP2 MSTORE SWAP1 PUSH1 0x40 MSTORE SWAP1 POP SWAP2 SWAP1 POP JUMP JUMPDEST TIMESTAMP DUP5 LT ISZERO PUSH2 0x12CB JUMPI PUSH1 0x40 MLOAD PUSH32 0x5787BDF00000000000000000000000000000000000000000000000000000000 DUP2 MSTORE PUSH1 0x4 ADD PUSH1 0x40 MLOAD DUP1 SWAP2 SUB SWAP1 REVERT JUMPDEST PUSH2 0x12D4 DUP6 PUSH2 0x1DDF JUMP JUMPDEST ISZERO PUSH2 0x130B JUMPI PUSH1 0x40 MLOAD PUSH32 0x1F3E0DE800000000000000000000000000000000000000000000000000000000 DUP2 MSTORE PUSH1 0x4 ADD PUSH1 0x40 MLOAD DUP1 SWAP2 SUB SWAP1 REVERT JUMPDEST PUSH0 PUSH20 0xFFFFFFFFFFFFFFFFFFFFFFFFFFFFFFFFFFFFFFFF AND DUP7 PUSH20 0xFFFFFFFFFFFFFFFFFFFFFFFFFFFFFFFFFFFFFFFF AND SUB PUSH2 0x1370 JUMPI PUSH1 0x40 MLOAD PUSH32 0x5461585F00000000000000000000000000000000000000000000000000000000 DUP2 MSTORE PUSH1 0x4 ADD PUSH1 0x40 MLOAD DUP1 SWAP2 SUB SWAP1 REVERT JUMPDEST PUSH0 PUSH1 0x1 PUSH2 0x137B PUSH2 0xA97 JUMP JUMPDEST PUSH32 0x6E71EDAE12B1B97F4D1F60370FEF10105FA2FAAE0126114A169C64845D6126C9 DUP11 DUP11 DUP11 PUSH1 0xD PUSH0 DUP16 PUSH20 0xFFFFFFFFFFFFFFFFFFFFFFFFFFFFFFFFFFFFFFFF AND PUSH20 0xFFFFFFFFFFFFFFFFFFFFFFFFFFFFFFFFFFFFFFFF AND DUP2 MSTORE PUSH1 0x20 ADD SWAP1 DUP2 MSTORE PUSH1 0x20 ADD PUSH0 KECCAK256 PUSH0 DUP2 SLOAD DUP1 SWAP3 SWAP2 SWAP1 PUSH1 0x1 ADD SWAP2 SWAP1 POP SSTORE DUP12 PUSH1 0x40 MLOAD PUSH1 0x20 ADD PUSH2 0x1400 SWAP7 SWAP6 SWAP5 SWAP4 SWAP3 SWAP2 SWAP1 PUSH2 0x3D08 JUMP JUMPDEST PUSH1 0x40 MLOAD PUSH1 0x20 DUP2 DUP4 SUB SUB DUP2 MSTORE SWAP1 PUSH1 0x40 MSTORE DUP1 MLOAD SWAP1 PUSH1 0x20 ADD KECCAK256 PUSH1 0x40 MLOAD PUSH1 0x20 ADD PUSH2 0x1427 SWAP3 SWAP2 SWAP1 PUSH2 0x3DD1 JUMP JUMPDEST PUSH1 0x40 MLOAD PUSH1 0x20 DUP2 DUP4 SUB SUB DUP2 MSTORE SWAP1 PUSH1 0x40 MSTORE DUP1 MLOAD SWAP1 PUSH1 0x20 ADD KECCAK256 DUP6 DUP6 DUP6 PUSH1 0x40 MLOAD PUSH0 DUP2 MSTORE PUSH1 0x20 ADD PUSH1 0x40 MSTORE PUSH1 0x40 MLOAD PUSH2 0x145C SWAP5 SWAP4 SWAP3 SWAP2 SWAP1 PUSH2 0x3E07 JUMP JUMPDEST PUSH1 0x20 PUSH1 0x40 MLOAD PUSH1 0x20 DUP2 SUB SWAP1 DUP1 DUP5 SUB SWAP1 DUP6 GAS STATICCALL ISZERO DUP1 ISZERO PUSH2 0x147C JUMPI RETURNDATASIZE PUSH0 DUP1 RETURNDATACOPY RETURNDATASIZE PUSH0 REVERT JUMPDEST POP POP POP PUSH1 0x20 PUSH1 0x40 MLOAD SUB MLOAD SWAP1 POP PUSH0 PUSH20 0xFFFFFFFFFFFFFFFFFFFFFFFFFFFFFFFFFFFFFFFF AND DUP2 PUSH20 0xFFFFFFFFFFFFFFFFFFFFFFFFFFFFFFFFFFFFFFFF AND EQ DUP1 PUSH2 0x14EE JUMPI POP DUP8 PUSH20 0xFFFFFFFFFFFFFFFFFFFFFFFFFFFFFFFFFFFFFFFF AND DUP2 PUSH20 0xFFFFFFFFFFFFFFFFFFFFFFFFFFFFFFFFFFFFFFFF AND EQ ISZERO JUMPDEST ISZERO PUSH2 0x1525 JUMPI PUSH1 0x40 MLOAD PUSH32 0x815E1D6400000000000000000000000000000000000000000000000000000000 DUP2 MSTORE PUSH1 0x4 ADD PUSH1 0x40 MLOAD DUP1 SWAP2 SUB SWAP1 REVERT JUMPDEST DUP6 PUSH1 0x7 PUSH0 DUP4 PUSH20 0xFFFFFFFFFFFFFFFFFFFFFFFFFFFFFFFFFFFFFFFF AND PUSH20 0xFFFFFFFFFFFFFFFFFFFFFFFFFFFFFFFFFFFFFFFF AND DUP2 MSTORE PUSH1 0x20 ADD SWAP1 DUP2 MSTORE PUSH1 0x20 ADD PUSH0 KECCAK256 PUSH0 DUP10 PUSH20 0xFFFFFFFFFFFFFFFFFFFFFFFFFFFFFFFFFFFFFFFF AND PUSH20 0xFFFFFFFFFFFFFFFFFFFFFFFFFFFFFFFFFFFFFFFF AND DUP2 MSTORE PUSH1 0x20 ADD SWAP1 DUP2 MSTORE PUSH1 0x20 ADD PUSH0 KECCAK256 DUP2 SWAP1 SSTORE POP POP DUP6 PUSH20 0xFFFFFFFFFFFFFFFFFFFFFFFFFFFFFFFFFFFFFFFF AND DUP8 PUSH20 0xFFFFFFFFFFFFFFFFFFFFFFFFFFFFFFFFFFFFFFFF AND PUSH32 0x8C5BE1E5EBEC7D5BD14F71427D1E84F3DD0314C0F7B2291E5B200AC8C7C3B925 DUP8 PUSH1 0x40 MLOAD PUSH2 0x1600 SWAP2 SWAP1 PUSH2 0x3495 JUMP JUMPDEST PUSH1 0x40 MLOAD DUP1 SWAP2 SUB SWAP1 LOG3 POP POP POP POP POP POP POP JUMP JUMPDEST PUSH0 DUP1 PUSH20 0xFFFFFFFFFFFFFFFFFFFFFFFFFFFFFFFFFFFFFFFF AND DUP5 PUSH20 0xFFFFFFFFFFFFFFFFFFFFFFFFFFFFFFFFFFFFFFFF AND SUB PUSH2 0x1677 JUMPI PUSH1 0x40 MLOAD PUSH32 0xDDB5DE5E00000000000000000000000000000000000000000000000000000000 DUP2 MSTORE PUSH1 0x4 ADD PUSH1 0x40 MLOAD DUP1 SWAP2 SUB SWAP1 REVERT JUMPDEST PUSH0 PUSH20 0xFFFFFFFFFFFFFFFFFFFFFFFFFFFFFFFFFFFFFFFF AND DUP4 PUSH20 0xFFFFFFFFFFFFFFFFFFFFFFFFFFFFFFFFFFFFFFFF AND SUB PUSH2 0x16DC JUMPI PUSH1 0x40 MLOAD PUSH32 0x9C8D2CD200000000000000000000000000000000000000000000000000000000 DUP2 MSTORE PUSH1 0x4 ADD PUSH1 0x40 MLOAD DUP1 SWAP2 SUB SWAP1 REVERT JUMPDEST PUSH0 PUSH1 0x7 PUSH0 DUP7 PUSH20 0xFFFFFFFFFFFFFFFFFFFFFFFFFFFFFFFFFFFFFFFF AND PUSH20 0xFFFFFFFFFFFFFFFFFFFFFFFFFFFFFFFFFFFFFFFF AND DUP2 MSTORE PUSH1 0x20 ADD SWAP1 DUP2 MSTORE PUSH1 0x20 ADD PUSH0 KECCAK256 PUSH0 CALLER PUSH20 0xFFFFFFFFFFFFFFFFFFFFFFFFFFFFFFFFFFFFFFFF AND PUSH20 0xFFFFFFFFFFFFFFFFFFFFFFFFFFFFFFFFFFFFFFFF AND DUP2 MSTORE PUSH1 0x20 ADD SWAP1 DUP2 MSTORE PUSH1 0x20 ADD PUSH0 KECCAK256 SLOAD SWAP1 POP PUSH32 0xFFFFFFFFFFFFFFFFFFFFFFFFFFFFFFFFFFFFFFFFFFFFFFFFFFFFFFFFFFFFFFFF DUP2 EQ PUSH2 0x1808 JUMPI DUP3 DUP2 PUSH2 0x178B SWAP2 SWAP1 PUSH2 0x3E77 JUMP JUMPDEST PUSH1 0x7 PUSH0 DUP8 PUSH20 0xFFFFFFFFFFFFFFFFFFFFFFFFFFFFFFFFFFFFFFFF AND PUSH20 0xFFFFFFFFFFFFFFFFFFFFFFFFFFFFFFFFFFFFFFFF AND DUP2 MSTORE PUSH1 0x20 ADD SWAP1 DUP2 MSTORE PUSH1 0x20 ADD PUSH0 KECCAK256 PUSH0 CALLER PUSH20 0xFFFFFFFFFFFFFFFFFFFFFFFFFFFFFFFFFFFFFFFF AND PUSH20 0xFFFFFFFFFFFFFFFFFFFFFFFFFFFFFFFFFFFFFFFF AND DUP2 MSTORE PUSH1 0x20 ADD SWAP1 DUP2 MSTORE PUSH1 0x20 ADD PUSH0 KECCAK256 DUP2 SWAP1 SSTORE POP JUMPDEST PUSH2 0x1813 DUP6 DUP6 DUP6 PUSH2 0x202B JUMP JUMPDEST SWAP2 POP POP SWAP4 SWAP3 POP POP POP JUMP JUMPDEST PUSH1 0x7 PUSH1 0x20 MSTORE DUP2 PUSH0 MSTORE PUSH1 0x40 PUSH0 KECCAK256 PUSH1 0x20 MSTORE DUP1 PUSH0 MSTORE PUSH1 0x40 PUSH0 KECCAK256 PUSH0 SWAP2 POP SWAP2 POP POP SLOAD DUP2 JUMP JUMPDEST PUSH0 PUSH20 0xFFFFFFFFFFFFFFFFFFFFFFFFFFFFFFFFFFFFFFFF AND DUP4 PUSH20 0xFFFFFFFFFFFFFFFFFFFFFFFFFFFFFFFFFFFFFFFF AND SUB PUSH2 0x18A2 JUMPI PUSH1 0x40 MLOAD PUSH32 0xDDB5DE5E00000000000000000000000000000000000000000000000000000000 DUP2 MSTORE PUSH1 0x4 ADD PUSH1 0x40 MLOAD DUP1 SWAP2 SUB SWAP1 REVERT JUMPDEST PUSH0 PUSH20 0xFFFFFFFFFFFFFFFFFFFFFFFFFFFFFFFFFFFFFFFF AND DUP3 PUSH20 0xFFFFFFFFFFFFFFFFFFFFFFFFFFFFFFFFFFFFFFFF AND SUB PUSH2 0x1907 JUMPI PUSH1 0x40 MLOAD PUSH32 0x9C8D2CD200000000000000000000000000000000000000000000000000000000 DUP2 MSTORE PUSH1 0x4 ADD PUSH1 0x40 MLOAD DUP1 SWAP2 SUB SWAP1 REVERT JUMPDEST PUSH2 0x1910 DUP2 PUSH2 0x1F1B JUMP JUMPDEST PUSH20 0xFFFFFFFFFFFFFFFFFFFFFFFFFFFFFFFFFFFFFFFF AND DUP4 PUSH20 0xFFFFFFFFFFFFFFFFFFFFFFFFFFFFFFFFFFFFFFFF AND EQ PUSH2 0x1974 JUMPI PUSH1 0x40 MLOAD PUSH32 0x82B4290000000000000000000000000000000000000000000000000000000000 DUP2 MSTORE PUSH1 0x4 ADD PUSH1 0x40 MLOAD DUP1 SWAP2 SUB SWAP1 REVERT JUMPDEST DUP3 PUSH20 0xFFFFFFFFFFFFFFFFFFFFFFFFFFFFFFFFFFFFFFFF AND CALLER PUSH20 0xFFFFFFFFFFFFFFFFFFFFFFFFFFFFFFFFFFFFFFFF AND EQ ISZERO DUP1 ISZERO PUSH2 0x1A32 JUMPI POP PUSH1 0x9 PUSH0 DUP5 PUSH20 0xFFFFFFFFFFFFFFFFFFFFFFFFFFFFFFFFFFFFFFFF AND PUSH20 0xFFFFFFFFFFFFFFFFFFFFFFFFFFFFFFFFFFFFFFFF AND DUP2 MSTORE PUSH1 0x20 ADD SWAP1 DUP2 MSTORE PUSH1 0x20 ADD PUSH0 KECCAK256 PUSH0 CALLER PUSH20 0xFFFFFFFFFFFFFFFFFFFFFFFFFFFFFFFFFFFFFFFF AND PUSH20 0xFFFFFFFFFFFFFFFFFFFFFFFFFFFFFFFFFFFFFFFF AND DUP2 MSTORE PUSH1 0x20 ADD SWAP1 DUP2 MSTORE PUSH1 0x20 ADD PUSH0 KECCAK256 PUSH0 SWAP1 SLOAD SWAP1 PUSH2 0x100 EXP SWAP1 DIV PUSH1 0xFF AND ISZERO JUMPDEST DUP1 ISZERO PUSH2 0x1A9A JUMPI POP PUSH1 0x8 PUSH0 DUP3 DUP2 MSTORE PUSH1 0x20 ADD SWAP1 DUP2 MSTORE PUSH1 0x20 ADD PUSH0 KECCAK256 PUSH0 SWAP1 SLOAD SWAP1 PUSH2 0x100 EXP SWAP1 DIV PUSH20 0xFFFFFFFFFFFFFFFFFFFFFFFFFFFFFFFFFFFFFFFF AND PUSH20 0xFFFFFFFFFFFFFFFFFFFFFFFFFFFFFFFFFFFFFFFF AND CALLER PUSH20 0xFFFFFFFFFFFFFFFFFFFFFFFFFFFFFFFFFFFFFFFF AND EQ ISZERO JUMPDEST ISZERO PUSH2 0x1AD1 JUMPI PUSH1 0x40 MLOAD PUSH32 0x82B4290000000000000000000000000000000000000000000000000000000000 DUP2 MSTORE PUSH1 0x4 ADD PUSH1 0x40 MLOAD DUP1 SWAP2 SUB SWAP1 REVERT JUMPDEST PUSH2 0x1ADA DUP3 PUSH2 0x9A8 JUMP JUMPDEST ISZERO PUSH2 0x1B11 JUMPI PUSH1 0x40 MLOAD PUSH32 0x5CE7539700000000000000000000000000000000000000000000000000000000 DUP2 MSTORE PUSH1 0x4 ADD PUSH1 0x40 MLOAD DUP1 SWAP2 SUB SWAP1 REVERT JUMPDEST PUSH2 0x1B3C DUP4 DUP4 PUSH32 0x0 PUSH2 0x24DF JUMP JUMPDEST PUSH2 0x1B47 DUP4 DUP4 DUP4 PUSH2 0x2637 JUMP JUMPDEST POP POP POP JUMP JUMPDEST PUSH0 PUSH2 0x1B56 DUP3 PUSH2 0x1F1B JUMP JUMPDEST SWAP1 POP DUP1 PUSH20 0xFFFFFFFFFFFFFFFFFFFFFFFFFFFFFFFFFFFFFFFF AND CALLER PUSH20 0xFFFFFFFFFFFFFFFFFFFFFFFFFFFFFFFFFFFFFFFF AND EQ ISZERO DUP1 ISZERO PUSH2 0x1C16 JUMPI POP PUSH1 0x9 PUSH0 DUP3 PUSH20 0xFFFFFFFFFFFFFFFFFFFFFFFFFFFFFFFFFFFFFFFF AND PUSH20 0xFFFFFFFFFFFFFFFFFFFFFFFFFFFFFFFFFFFFFFFF AND DUP2 MSTORE PUSH1 0x20 ADD SWAP1 DUP2 MSTORE PUSH1 0x20 ADD PUSH0 KECCAK256 PUSH0 CALLER PUSH20 0xFFFFFFFFFFFFFFFFFFFFFFFFFFFFFFFFFFFFFFFF AND PUSH20 0xFFFFFFFFFFFFFFFFFFFFFFFFFFFFFFFFFFFFFFFF AND DUP2 MSTORE PUSH1 0x20 ADD SWAP1 DUP2 MSTORE PUSH1 0x20 ADD PUSH0 KECCAK256 PUSH0 SWAP1 SLOAD SWAP1 PUSH2 0x100 EXP SWAP1 DIV PUSH1 0xFF AND ISZERO JUMPDEST ISZERO PUSH2 0x1C4D JUMPI PUSH1 0x40 MLOAD PUSH32 0x82B4290000000000000000000000000000000000000000000000000000000000 DUP2 MSTORE PUSH1 0x4 ADD PUSH1 0x40 MLOAD DUP1 SWAP2 SUB SWAP1 REVERT JUMPDEST DUP3 PUSH1 0x8 PUSH0 DUP5 DUP2 MSTORE PUSH1 0x20 ADD SWAP1 DUP2 MSTORE PUSH1 0x20 ADD PUSH0 KECCAK256 PUSH0 PUSH2 0x100 EXP DUP2 SLOAD DUP2 PUSH20 0xFFFFFFFFFFFFFFFFFFFFFFFFFFFFFFFFFFFFFFFF MUL NOT AND SWAP1 DUP4 PUSH20 0xFFFFFFFFFFFFFFFFFFFFFFFFFFFFFFFFFFFFFFFF AND MUL OR SWAP1 SSTORE POP DUP2 DUP4 PUSH20 0xFFFFFFFFFFFFFFFFFFFFFFFFFFFFFFFFFFFFFFFF AND DUP3 PUSH20 0xFFFFFFFFFFFFFFFFFFFFFFFFFFFFFFFFFFFFFFFF AND PUSH32 0x8C5BE1E5EBEC7D5BD14F71427D1E84F3DD0314C0F7B2291E5B200AC8C7C3B925 PUSH1 0x40 MLOAD PUSH1 0x40 MLOAD DUP1 SWAP2 SUB SWAP1 LOG4 POP POP POP JUMP JUMPDEST PUSH1 0x9 PUSH1 0x20 MSTORE DUP2 PUSH0 MSTORE PUSH1 0x40 PUSH0 KECCAK256 PUSH1 0x20 MSTORE DUP1 PUSH0 MSTORE PUSH1 0x40 PUSH0 KECCAK256 PUSH0 SWAP2 POP SWAP2 POP SWAP1 SLOAD SWAP1 PUSH2 0x100 EXP SWAP1 DIV PUSH1 0xFF AND DUP2 JUMP JUMPDEST PUSH1 0x60 PUSH0 DUP3 PUSH8 0xFFFFFFFFFFFFFFFF DUP2 GT ISZERO PUSH2 0x1D43 JUMPI PUSH2 0x1D42 PUSH2 0x383A JUMP JUMPDEST JUMPDEST PUSH1 0x40 MLOAD SWAP1 DUP1 DUP3 MSTORE DUP1 PUSH1 0x20 MUL PUSH1 0x20 ADD DUP3 ADD PUSH1 0x40 MSTORE DUP1 ISZERO PUSH2 0x1D71 JUMPI DUP2 PUSH1 0x20 ADD PUSH1 0x20 DUP3 MUL DUP1 CALLDATASIZE DUP4 CALLDATACOPY DUP1 DUP3 ADD SWAP2 POP POP SWAP1 POP JUMPDEST POP SWAP1 POP PUSH0 DUP5 SWAP1 POP JUMPDEST DUP4 DUP6 PUSH2 0x1D85 SWAP2 SWAP1 PUSH2 0x3EAA JUMP JUMPDEST DUP2 LT ISZERO PUSH2 0x1DD4 JUMPI PUSH2 0x1D9F DUP2 PUSH0 PUSH2 0x298F SWAP1 SWAP2 SWAP1 PUSH4 0xFFFFFFFF AND JUMP JUMPDEST DUP3 DUP7 DUP4 PUSH2 0x1DAC SWAP2 SWAP1 PUSH2 0x3E77 JUMP JUMPDEST DUP2 MLOAD DUP2 LT PUSH2 0x1DBD JUMPI PUSH2 0x1DBC PUSH2 0x3EDD JUMP JUMPDEST JUMPDEST PUSH1 0x20 MUL PUSH1 0x20 ADD ADD DUP2 DUP2 MSTORE POP POP DUP1 PUSH1 0x1 ADD SWAP1 POP PUSH2 0x1D79 JUMP JUMPDEST POP DUP1 SWAP2 POP POP SWAP3 SWAP2 POP POP JUMP JUMPDEST PUSH0 PUSH32 0x8000000000000000000000000000000000000000000000000000000000000000 DUP3 GT DUP1 ISZERO PUSH2 0x1E2F JUMPI POP PUSH32 0xFFFFFFFFFFFFFFFFFFFFFFFFFFFFFFFFFFFFFFFFFFFFFFFFFFFFFFFFFFFFFFFF DUP3 EQ ISZERO JUMPDEST SWAP1 POP SWAP2 SWAP1 POP JUMP JUMPDEST PUSH0 DUP2 PUSH0 ADD PUSH0 SWAP1 SLOAD SWAP1 PUSH2 0x100 EXP SWAP1 DIV PUSH16 0xFFFFFFFFFFFFFFFFFFFFFFFFFFFFFFFF AND DUP3 PUSH0 ADD PUSH1 0x10 SWAP1 SLOAD SWAP1 PUSH2 0x100 EXP SWAP1 DIV PUSH16 0xFFFFFFFFFFFFFFFFFFFFFFFFFFFFFFFF AND SUB PUSH16 0xFFFFFFFFFFFFFFFFFFFFFFFFFFFFFFFF AND SWAP1 POP SWAP2 SWAP1 POP JUMP JUMPDEST PUSH0 PUSH32 0x8B73C3C69BB8FE3D512ECC4CF759CC79239F7B179B0FFACAA9A75D522B39400F PUSH1 0x2 PUSH1 0x40 MLOAD PUSH2 0x1EC1 SWAP2 SWAP1 PUSH2 0x3FA6 JUMP JUMPDEST PUSH1 0x40 MLOAD DUP1 SWAP2 SUB SWAP1 KECCAK256 PUSH32 0xC89EFDAA54C0F20C7ADF612882DF0950F5A951637E0307CDCB4C672F298B8BC6 CHAINID ADDRESS PUSH1 0x40 MLOAD PUSH1 0x20 ADD PUSH2 0x1F00 SWAP6 SWAP5 SWAP4 SWAP3 SWAP2 SWAP1 PUSH2 0x3FBC JUMP JUMPDEST PUSH1 0x40 MLOAD PUSH1 0x20 DUP2 DUP4 SUB SUB DUP2 MSTORE SWAP1 PUSH1 0x40 MSTORE DUP1 MLOAD SWAP1 PUSH1 0x20 ADD KECCAK256 SWAP1 POP SWAP1 JUMP JUMPDEST PUSH0 DUP1 PUSH1 0xA PUSH0 DUP5 DUP2 MSTORE PUSH1 0x20 ADD SWAP1 DUP2 MSTORE PUSH1 0x20 ADD PUSH0 KECCAK256 SLOAD SWAP1 POP PUSH20 0xFFFFFFFFFFFFFFFFFFFFFFFFFFFFFFFFFFFFFFFF DUP2 AND SWAP2 POP POP SWAP2 SWAP1 POP JUMP JUMPDEST PUSH0 PUSH20 0xFFFFFFFFFFFFFFFFFFFFFFFFFFFFFFFFFFFFFFFF AND DUP3 PUSH20 0xFFFFFFFFFFFFFFFFFFFFFFFFFFFFFFFFFFFFFFFF AND SUB PUSH2 0x1FB5 JUMPI PUSH1 0x40 MLOAD PUSH32 0xA41E3D3F00000000000000000000000000000000000000000000000000000000 DUP2 MSTORE PUSH1 0x4 ADD PUSH1 0x40 MLOAD DUP1 SWAP2 SUB SWAP1 REVERT JUMPDEST DUP1 ISZERO PUSH2 0x1FC9 JUMPI PUSH2 0x1FC4 DUP3 PUSH2 0x2A31 JUMP JUMPDEST PUSH2 0x1FD3 JUMP JUMPDEST PUSH2 0x1FD2 DUP3 PUSH2 0x2A60 JUMP JUMPDEST JUMPDEST DUP1 PUSH1 0xC PUSH0 DUP5 PUSH20 0xFFFFFFFFFFFFFFFFFFFFFFFFFFFFFFFFFFFFFFFF AND PUSH20 0xFFFFFFFFFFFFFFFFFFFFFFFFFFFFFFFFFFFFFFFF AND DUP2 MSTORE PUSH1 0x20 ADD SWAP1 DUP2 MSTORE PUSH1 0x20 ADD PUSH0 KECCAK256 PUSH0 PUSH2 0x100 EXP DUP2 SLOAD DUP2 PUSH1 0xFF MUL NOT AND SWAP1 DUP4 ISZERO ISZERO MUL OR SWAP1 SSTORE POP POP POP JUMP JUMPDEST PUSH0 DUP1 PUSH2 0x2036 DUP6 PUSH2 0x85D JUMP JUMPDEST SWAP1 POP PUSH0 PUSH2 0x2042 DUP6 PUSH2 0x85D JUMP JUMPDEST SWAP1 POP PUSH2 0x204F DUP7 DUP7 DUP7 PUSH2 0x24DF JUMP JUMPDEST PUSH0 PUSH2 0x2059 DUP8 PUSH2 0x9A8 JUMP JUMPDEST SWAP1 POP PUSH0 PUSH2 0x2065 DUP8 PUSH2 0x9A8 JUMP JUMPDEST SWAP1 POP DUP2 DUP1 ISZERO PUSH2 0x2071 JUMPI POP DUP1 JUMPDEST PUSH2 0x2406 JUMPI DUP2 ISZERO PUSH2 0x2142 JUMPI PUSH0 PUSH32 0x0 DUP5 PUSH2 0x20A8 SWAP2 SWAP1 PUSH2 0x403A JUMP JUMPDEST PUSH32 0x0 PUSH1 0x6 PUSH0 DUP12 PUSH20 0xFFFFFFFFFFFFFFFFFFFFFFFFFFFFFFFFFFFFFFFF AND PUSH20 0xFFFFFFFFFFFFFFFFFFFFFFFFFFFFFFFFFFFFFFFF AND DUP2 MSTORE PUSH1 0x20 ADD SWAP1 DUP2 MSTORE PUSH1 0x20 ADD PUSH0 KECCAK256 SLOAD PUSH2 0x2111 SWAP2 SWAP1 PUSH2 0x403A JUMP JUMPDEST PUSH2 0x211B SWAP2 SWAP1 PUSH2 0x3E77 JUMP JUMPDEST SWAP1 POP PUSH0 JUMPDEST DUP2 DUP2 LT ISZERO PUSH2 0x213B JUMPI PUSH2 0x2130 DUP10 PUSH2 0x2AD2 JUMP JUMPDEST DUP1 PUSH1 0x1 ADD SWAP1 POP PUSH2 0x211F JUMP JUMPDEST POP POP PUSH2 0x2405 JUMP JUMPDEST DUP1 ISZERO PUSH2 0x220F JUMPI PUSH0 PUSH32 0x0 PUSH1 0x6 PUSH0 DUP12 PUSH20 0xFFFFFFFFFFFFFFFFFFFFFFFFFFFFFFFFFFFFFFFF AND PUSH20 0xFFFFFFFFFFFFFFFFFFFFFFFFFFFFFFFFFFFFFFFF AND DUP2 MSTORE PUSH1 0x20 ADD SWAP1 DUP2 MSTORE PUSH1 0x20 ADD PUSH0 KECCAK256 SLOAD PUSH2 0x21B2 SWAP2 SWAP1 PUSH2 0x403A JUMP JUMPDEST PUSH32 0x0 DUP7 PUSH2 0x21DE SWAP2 SWAP1 PUSH2 0x403A JUMP JUMPDEST PUSH2 0x21E8 SWAP2 SWAP1 PUSH2 0x3E77 JUMP JUMPDEST SWAP1 POP PUSH0 JUMPDEST DUP2 DUP2 LT ISZERO PUSH2 0x2208 JUMPI PUSH2 0x21FD DUP11 PUSH2 0x2C77 JUMP JUMPDEST DUP1 PUSH1 0x1 ADD SWAP1 POP PUSH2 0x21EC JUMP JUMPDEST POP POP PUSH2 0x2404 JUMP JUMPDEST PUSH0 PUSH32 0x0 DUP8 PUSH2 0x223C SWAP2 SWAP1 PUSH2 0x403A JUMP JUMPDEST SWAP1 POP PUSH0 JUMPDEST DUP2 DUP2 LT ISZERO PUSH2 0x230B JUMPI PUSH0 PUSH1 0x1 PUSH1 0xB PUSH0 DUP14 PUSH20 0xFFFFFFFFFFFFFFFFFFFFFFFFFFFFFFFFFFFFFFFF AND PUSH20 0xFFFFFFFFFFFFFFFFFFFFFFFFFFFFFFFFFFFFFFFF AND DUP2 MSTORE PUSH1 0x20 ADD SWAP1 DUP2 MSTORE PUSH1 0x20 ADD PUSH0 KECCAK256 DUP1 SLOAD SWAP1 POP PUSH2 0x2296 SWAP2 SWAP1 PUSH2 0x3E77 JUMP JUMPDEST SWAP1 POP PUSH0 PUSH1 0xB PUSH0 DUP14 PUSH20 0xFFFFFFFFFFFFFFFFFFFFFFFFFFFFFFFFFFFFFFFF AND PUSH20 0xFFFFFFFFFFFFFFFFFFFFFFFFFFFFFFFFFFFFFFFF AND DUP2 MSTORE PUSH1 0x20 ADD SWAP1 DUP2 MSTORE PUSH1 0x20 ADD PUSH0 KECCAK256 DUP3 DUP2 SLOAD DUP2 LT PUSH2 0x22E8 JUMPI PUSH2 0x22E7 PUSH2 0x3EDD JUMP JUMPDEST JUMPDEST SWAP1 PUSH0 MSTORE PUSH1 0x20 PUSH0 KECCAK256 ADD SLOAD SWAP1 POP PUSH2 0x22FE DUP13 DUP13 DUP4 PUSH2 0x2637 JUMP JUMPDEST DUP3 PUSH1 0x1 ADD SWAP3 POP POP POP PUSH2 0x2240 JUMP JUMPDEST POP DUP1 PUSH32 0x0 PUSH2 0x2337 DUP12 PUSH2 0x85D JUMP JUMPDEST PUSH2 0x2341 SWAP2 SWAP1 PUSH2 0x403A JUMP JUMPDEST PUSH32 0x0 DUP8 PUSH2 0x236D SWAP2 SWAP1 PUSH2 0x403A JUMP JUMPDEST PUSH2 0x2377 SWAP2 SWAP1 PUSH2 0x3E77 JUMP JUMPDEST GT ISZERO PUSH2 0x2387 JUMPI PUSH2 0x2386 DUP10 PUSH2 0x2C77 JUMP JUMPDEST JUMPDEST DUP1 PUSH32 0x0 DUP6 PUSH2 0x23B4 SWAP2 SWAP1 PUSH2 0x403A JUMP JUMPDEST PUSH32 0x0 PUSH2 0x23DE DUP12 PUSH2 0x85D JUMP JUMPDEST PUSH2 0x23E8 SWAP2 SWAP1 PUSH2 0x403A JUMP JUMPDEST PUSH2 0x23F2 SWAP2 SWAP1 PUSH2 0x3E77 JUMP JUMPDEST GT ISZERO PUSH2 0x2402 JUMPI PUSH2 0x2401 DUP9 PUSH2 0x2AD2 JUMP JUMPDEST JUMPDEST POP JUMPDEST JUMPDEST JUMPDEST PUSH1 0x1 SWAP5 POP POP POP POP POP SWAP4 SWAP3 POP POP POP JUMP JUMPDEST PUSH1 0x60 PUSH0 PUSH1 0x1 PUSH2 0x2423 DUP5 PUSH2 0x2DA5 JUMP JUMPDEST ADD SWAP1 POP PUSH0 DUP2 PUSH8 0xFFFFFFFFFFFFFFFF DUP2 GT ISZERO PUSH2 0x2441 JUMPI PUSH2 0x2440 PUSH2 0x383A JUMP JUMPDEST JUMPDEST PUSH1 0x40 MLOAD SWAP1 DUP1 DUP3 MSTORE DUP1 PUSH1 0x1F ADD PUSH1 0x1F NOT AND PUSH1 0x20 ADD DUP3 ADD PUSH1 0x40 MSTORE DUP1 ISZERO PUSH2 0x2473 JUMPI DUP2 PUSH1 0x20 ADD PUSH1 0x1 DUP3 MUL DUP1 CALLDATASIZE DUP4 CALLDATACOPY DUP1 DUP3 ADD SWAP2 POP POP SWAP1 POP JUMPDEST POP SWAP1 POP PUSH0 DUP3 PUSH1 0x20 ADD DUP3 ADD SWAP1 POP JUMPDEST PUSH1 0x1 ISZERO PUSH2 0x24D4 JUMPI DUP1 DUP1 PUSH1 0x1 SWAP1 SUB SWAP2 POP POP PUSH32 0x3031323334353637383961626364656600000000000000000000000000000000 PUSH1 0xA DUP7 MOD BYTE DUP2 MSTORE8 PUSH1 0xA DUP6 DUP2 PUSH2 0x24C9 JUMPI PUSH2 0x24C8 PUSH2 0x400D JUMP JUMPDEST JUMPDEST DIV SWAP5 POP PUSH0 DUP6 SUB PUSH2 0x2480 JUMPI JUMPDEST DUP2 SWAP4 POP POP POP POP SWAP2 SWAP1 POP JUMP JUMPDEST PUSH0 PUSH20 0xFFFFFFFFFFFFFFFFFFFFFFFFFFFFFFFFFFFFFFFF AND DUP4 PUSH20 0xFFFFFFFFFFFFFFFFFFFFFFFFFFFFFFFFFFFFFFFF AND SUB PUSH2 0x252F JUMPI DUP1 PUSH1 0x4 PUSH0 DUP3 DUP3 SLOAD PUSH2 0x2523 SWAP2 SWAP1 PUSH2 0x3EAA JUMP JUMPDEST SWAP3 POP POP DUP2 SWAP1 SSTORE POP PUSH2 0x2583 JUMP JUMPDEST DUP1 PUSH1 0x6 PUSH0 DUP6 PUSH20 0xFFFFFFFFFFFFFFFFFFFFFFFFFFFFFFFFFFFFFFFF AND PUSH20 0xFFFFFFFFFFFFFFFFFFFFFFFFFFFFFFFFFFFFFFFF AND DUP2 MSTORE PUSH1 0x20 ADD SWAP1 DUP2 MSTORE PUSH1 0x20 ADD PUSH0 KECCAK256 PUSH0 DUP3 DUP3 SLOAD PUSH2 0x257B SWAP2 SWAP1 PUSH2 0x3E77 JUMP JUMPDEST SWAP3 POP POP DUP2 SWAP1 SSTORE POP JUMPDEST DUP1 PUSH1 0x6 PUSH0 DUP5 PUSH20 0xFFFFFFFFFFFFFFFFFFFFFFFFFFFFFFFFFFFFFFFF AND PUSH20 0xFFFFFFFFFFFFFFFFFFFFFFFFFFFFFFFFFFFFFFFF AND DUP2 MSTORE PUSH1 0x20 ADD SWAP1 DUP2 MSTORE PUSH1 0x20 ADD PUSH0 KECCAK256 PUSH0 DUP3 DUP3 SLOAD ADD SWAP3 POP POP DUP2 SWAP1 SSTORE POP DUP2 PUSH20 0xFFFFFFFFFFFFFFFFFFFFFFFFFFFFFFFFFFFFFFFF AND DUP4 PUSH20 0xFFFFFFFFFFFFFFFFFFFFFFFFFFFFFFFFFFFFFFFF AND PUSH32 0xDDF252AD1BE2C89B69C2B068FC378DAA952BA7F163C4A11628F55A4DF523B3EF DUP4 PUSH1 0x40 MLOAD PUSH2 0x262A SWAP2 SWAP1 PUSH2 0x3495 JUMP JUMPDEST PUSH1 0x40 MLOAD DUP1 SWAP2 SUB SWAP1 LOG3 POP POP POP JUMP JUMPDEST PUSH0 PUSH20 0xFFFFFFFFFFFFFFFFFFFFFFFFFFFFFFFFFFFFFFFF AND DUP4 PUSH20 0xFFFFFFFFFFFFFFFFFFFFFFFFFFFFFFFFFFFFFFFF AND EQ PUSH2 0x2821 JUMPI PUSH1 0x8 PUSH0 DUP3 DUP2 MSTORE PUSH1 0x20 ADD SWAP1 DUP2 MSTORE PUSH1 0x20 ADD PUSH0 KECCAK256 PUSH0 PUSH2 0x100 EXP DUP2 SLOAD SWAP1 PUSH20 0xFFFFFFFFFFFFFFFFFFFFFFFFFFFFFFFFFFFFFFFF MUL NOT AND SWAP1 SSTORE PUSH0 PUSH1 0xB PUSH0 DUP6 PUSH20 0xFFFFFFFFFFFFFFFFFFFFFFFFFFFFFFFFFFFFFFFF AND PUSH20 0xFFFFFFFFFFFFFFFFFFFFFFFFFFFFFFFFFFFFFFFF AND DUP2 MSTORE PUSH1 0x20 ADD SWAP1 DUP2 MSTORE PUSH1 0x20 ADD PUSH0 KECCAK256 PUSH1 0x1 PUSH1 0xB PUSH0 DUP8 PUSH20 0xFFFFFFFFFFFFFFFFFFFFFFFFFFFFFFFFFFFFFFFF AND PUSH20 0xFFFFFFFFFFFFFFFFFFFFFFFFFFFFFFFFFFFFFFFF AND DUP2 MSTORE PUSH1 0x20 ADD SWAP1 DUP2 MSTORE PUSH1 0x20 ADD PUSH0 KECCAK256 DUP1 SLOAD SWAP1 POP PUSH2 0x2728 SWAP2 SWAP1 PUSH2 0x3E77 JUMP JUMPDEST DUP2 SLOAD DUP2 LT PUSH2 0x2739 JUMPI PUSH2 0x2738 PUSH2 0x3EDD JUMP JUMPDEST JUMPDEST SWAP1 PUSH0 MSTORE PUSH1 0x20 PUSH0 KECCAK256 ADD SLOAD SWAP1 POP DUP2 DUP2 EQ PUSH2 0x27BF JUMPI PUSH0 PUSH2 0x2755 DUP4 PUSH2 0x2EF6 JUMP JUMPDEST SWAP1 POP DUP2 PUSH1 0xB PUSH0 DUP8 PUSH20 0xFFFFFFFFFFFFFFFFFFFFFFFFFFFFFFFFFFFFFFFF AND PUSH20 0xFFFFFFFFFFFFFFFFFFFFFFFFFFFFFFFFFFFFFFFF AND DUP2 MSTORE PUSH1 0x20 ADD SWAP1 DUP2 MSTORE PUSH1 0x20 ADD PUSH0 KECCAK256 DUP3 DUP2 SLOAD DUP2 LT PUSH2 0x27A7 JUMPI PUSH2 0x27A6 PUSH2 0x3EDD JUMP JUMPDEST JUMPDEST SWAP1 PUSH0 MSTORE PUSH1 0x20 PUSH0 KECCAK256 ADD DUP2 SWAP1 SSTORE POP PUSH2 0x27BD DUP3 DUP3 PUSH2 0x2F18 JUMP JUMPDEST POP JUMPDEST PUSH1 0xB PUSH0 DUP6 PUSH20 0xFFFFFFFFFFFFFFFFFFFFFFFFFFFFFFFFFFFFFFFF AND PUSH20 0xFFFFFFFFFFFFFFFFFFFFFFFFFFFFFFFFFFFFFFFF AND DUP2 MSTORE PUSH1 0x20 ADD SWAP1 DUP2 MSTORE PUSH1 0x20 ADD PUSH0 KECCAK256 DUP1 SLOAD DUP1 PUSH2 0x280C JUMPI PUSH2 0x280B PUSH2 0x406A JUMP JUMPDEST JUMPDEST PUSH1 0x1 SWAP1 SUB DUP2 DUP2 SWAP1 PUSH0 MSTORE PUSH1 0x20 PUSH0 KECCAK256 ADD PUSH0 SWAP1 SSTORE SWAP1 SSTORE POP JUMPDEST PUSH0 PUSH20 0xFFFFFFFFFFFFFFFFFFFFFFFFFFFFFFFFFFFFFFFF AND DUP3 PUSH20 0xFFFFFFFFFFFFFFFFFFFFFFFFFFFFFFFFFFFFFFFF AND EQ PUSH2 0x291A JUMPI PUSH2 0x285E DUP2 DUP4 PUSH2 0x2FE6 JUMP JUMPDEST PUSH1 0xB PUSH0 DUP4 PUSH20 0xFFFFFFFFFFFFFFFFFFFFFFFFFFFFFFFFFFFFFFFF AND PUSH20 0xFFFFFFFFFFFFFFFFFFFFFFFFFFFFFFFFFFFFFFFF AND DUP2 MSTORE PUSH1 0x20 ADD SWAP1 DUP2 MSTORE PUSH1 0x20 ADD PUSH0 KECCAK256 DUP2 SWAP1 DUP1 PUSH1 0x1 DUP2 SLOAD ADD DUP1 DUP3 SSTORE DUP1 SWAP2 POP POP PUSH1 0x1 SWAP1 SUB SWAP1 PUSH0 MSTORE PUSH1 0x20 PUSH0 KECCAK256 ADD PUSH0 SWAP1 SWAP2 SWAP1 SWAP2 SWAP1 SWAP2 POP SSTORE PUSH2 0x2915 DUP2 PUSH1 0x1 PUSH1 0xB PUSH0 DUP7 PUSH20 0xFFFFFFFFFFFFFFFFFFFFFFFFFFFFFFFFFFFFFFFF AND PUSH20 0xFFFFFFFFFFFFFFFFFFFFFFFFFFFFFFFFFFFFFFFF AND DUP2 MSTORE PUSH1 0x20 ADD SWAP1 DUP2 MSTORE PUSH1 0x20 ADD PUSH0 KECCAK256 DUP1 SLOAD SWAP1 POP PUSH2 0x2910 SWAP2 SWAP1 PUSH2 0x3E77 JUMP JUMPDEST PUSH2 0x2F18 JUMP JUMPDEST PUSH2 0x292F JUMP JUMPDEST PUSH1 0xA PUSH0 DUP3 DUP2 MSTORE PUSH1 0x20 ADD SWAP1 DUP2 MSTORE PUSH1 0x20 ADD PUSH0 KECCAK256 PUSH0 SWAP1 SSTORE JUMPDEST DUP1 DUP3 PUSH20 0xFFFFFFFFFFFFFFFFFFFFFFFFFFFFFFFFFFFFFFFF AND DUP5 PUSH20 0xFFFFFFFFFFFFFFFFFFFFFFFFFFFFFFFFFFFFFFFF AND PUSH32 0xDDF252AD1BE2C89B69C2B068FC378DAA952BA7F163C4A11628F55A4DF523B3EF PUSH1 0x40 MLOAD PUSH1 0x40 MLOAD DUP1 SWAP2 SUB SWAP1 LOG4 POP POP POP JUMP JUMPDEST PUSH0 PUSH2 0x2999 DUP4 PUSH2 0x1E36 JUMP JUMPDEST DUP3 LT PUSH2 0x29D1 JUMPI PUSH1 0x40 MLOAD PUSH32 0x580821E700000000000000000000000000000000000000000000000000000000 DUP2 MSTORE PUSH1 0x4 ADD PUSH1 0x40 MLOAD DUP1 SWAP2 SUB SWAP1 REVERT JUMPDEST DUP3 PUSH1 0x1 ADD PUSH0 DUP4 DUP6 PUSH0 ADD PUSH0 SWAP1 SLOAD SWAP1 PUSH2 0x100 EXP SWAP1 DIV PUSH16 0xFFFFFFFFFFFFFFFFFFFFFFFFFFFFFFFF AND ADD PUSH16 0xFFFFFFFFFFFFFFFFFFFFFFFFFFFFFFFF AND PUSH16 0xFFFFFFFFFFFFFFFFFFFFFFFFFFFFFFFF AND DUP2 MSTORE PUSH1 0x20 ADD SWAP1 DUP2 MSTORE PUSH1 0x20 ADD PUSH0 KECCAK256 SLOAD SWAP1 POP SWAP3 SWAP2 POP POP JUMP JUMPDEST PUSH0 PUSH2 0x2A3B DUP3 PUSH2 0x109C JUMP JUMPDEST SWAP1 POP PUSH0 JUMPDEST DUP2 DUP2 LT ISZERO PUSH2 0x2A5B JUMPI PUSH2 0x2A50 DUP4 PUSH2 0x2C77 JUMP JUMPDEST DUP1 PUSH1 0x1 ADD SWAP1 POP PUSH2 0x2A3F JUMP JUMPDEST POP POP POP JUMP JUMPDEST PUSH0 PUSH32 0x0 PUSH2 0x2A8B DUP4 PUSH2 0x85D JUMP JUMPDEST PUSH2 0x2A95 SWAP2 SWAP1 PUSH2 0x403A JUMP JUMPDEST SWAP1 POP PUSH0 PUSH2 0x2AA1 DUP4 PUSH2 0x109C JUMP JUMPDEST SWAP1 POP PUSH0 JUMPDEST DUP2 DUP4 PUSH2 0x2AB1 SWAP2 SWAP1 PUSH2 0x3E77 JUMP JUMPDEST DUP2 LT ISZERO PUSH2 0x2ACC JUMPI PUSH2 0x2AC1 DUP5 PUSH2 0x2AD2 JUMP JUMPDEST DUP1 PUSH1 0x1 ADD SWAP1 POP PUSH2 0x2AA5 JUMP JUMPDEST POP POP POP POP JUMP JUMPDEST PUSH0 PUSH20 0xFFFFFFFFFFFFFFFFFFFFFFFFFFFFFFFFFFFFFFFF AND DUP2 PUSH20 0xFFFFFFFFFFFFFFFFFFFFFFFFFFFFFFFFFFFFFFFF AND SUB PUSH2 0x2B37 JUMPI PUSH1 0x40 MLOAD PUSH32 0x9C8D2CD200000000000000000000000000000000000000000000000000000000 DUP2 MSTORE PUSH1 0x4 ADD PUSH1 0x40 MLOAD DUP1 SWAP2 SUB SWAP1 REVERT JUMPDEST PUSH0 PUSH2 0x2B41 PUSH0 PUSH2 0x3053 JUMP JUMPDEST PUSH2 0x2B55 JUMPI PUSH2 0x2B4E PUSH0 PUSH2 0x30BF JUMP JUMPDEST SWAP1 POP PUSH2 0x2BF6 JUMP JUMPDEST PUSH1 0x5 PUSH0 DUP2 SLOAD PUSH2 0x2B63 SWAP1 PUSH2 0x4097 JUMP JUMPDEST SWAP2 SWAP1 POP DUP2 SWAP1 SSTORE POP PUSH32 0xFFFFFFFFFFFFFFFFFFFFFFFFFFFFFFFFFFFFFFFFFFFFFFFFFFFFFFFFFFFFFFFF PUSH1 0x5 SLOAD SUB PUSH2 0x2BC5 JUMPI PUSH1 0x40 MLOAD PUSH32 0x303B682F00000000000000000000000000000000000000000000000000000000 DUP2 MSTORE PUSH1 0x4 ADD PUSH1 0x40 MLOAD DUP1 SWAP2 SUB SWAP1 REVERT JUMPDEST PUSH1 0x5 SLOAD PUSH32 0x8000000000000000000000000000000000000000000000000000000000000000 PUSH2 0x2BF3 SWAP2 SWAP1 PUSH2 0x3EAA JUMP JUMPDEST SWAP1 POP JUMPDEST PUSH0 PUSH2 0x2C00 DUP3 PUSH2 0x1F1B JUMP JUMPDEST SWAP1 POP PUSH0 PUSH20 0xFFFFFFFFFFFFFFFFFFFFFFFFFFFFFFFFFFFFFFFF AND DUP2 PUSH20 0xFFFFFFFFFFFFFFFFFFFFFFFFFFFFFFFFFFFFFFFF AND EQ PUSH2 0x2C67 JUMPI PUSH1 0x40 MLOAD PUSH32 0x23369FA600000000000000000000000000000000000000000000000000000000 DUP2 MSTORE PUSH1 0x4 ADD PUSH1 0x40 MLOAD DUP1 SWAP2 SUB SWAP1 REVERT JUMPDEST PUSH2 0x2C72 DUP2 DUP5 DUP5 PUSH2 0x2637 JUMP JUMPDEST POP POP POP JUMP JUMPDEST PUSH0 PUSH20 0xFFFFFFFFFFFFFFFFFFFFFFFFFFFFFFFFFFFFFFFF AND DUP2 PUSH20 0xFFFFFFFFFFFFFFFFFFFFFFFFFFFFFFFFFFFFFFFF AND SUB PUSH2 0x2CDC JUMPI PUSH1 0x40 MLOAD PUSH32 0xDDB5DE5E00000000000000000000000000000000000000000000000000000000 DUP2 MSTORE PUSH1 0x4 ADD PUSH1 0x40 MLOAD DUP1 SWAP2 SUB SWAP1 REVERT JUMPDEST PUSH0 PUSH1 0xB PUSH0 DUP4 PUSH20 0xFFFFFFFFFFFFFFFFFFFFFFFFFFFFFFFFFFFFFFFF AND PUSH20 0xFFFFFFFFFFFFFFFFFFFFFFFFFFFFFFFFFFFFFFFF AND DUP2 MSTORE PUSH1 0x20 ADD SWAP1 DUP2 MSTORE PUSH1 0x20 ADD PUSH0 KECCAK256 PUSH1 0x1 PUSH1 0xB PUSH0 DUP6 PUSH20 0xFFFFFFFFFFFFFFFFFFFFFFFFFFFFFFFFFFFFFFFF AND PUSH20 0xFFFFFFFFFFFFFFFFFFFFFFFFFFFFFFFFFFFFFFFF AND DUP2 MSTORE PUSH1 0x20 ADD SWAP1 DUP2 MSTORE PUSH1 0x20 ADD PUSH0 KECCAK256 DUP1 SLOAD SWAP1 POP PUSH2 0x2D67 SWAP2 SWAP1 PUSH2 0x3E77 JUMP JUMPDEST DUP2 SLOAD DUP2 LT PUSH2 0x2D78 JUMPI PUSH2 0x2D77 PUSH2 0x3EDD JUMP JUMPDEST JUMPDEST SWAP1 PUSH0 MSTORE PUSH1 0x20 PUSH0 KECCAK256 ADD SLOAD SWAP1 POP PUSH2 0x2D8E DUP3 PUSH0 DUP4 PUSH2 0x2637 JUMP JUMPDEST PUSH2 0x2DA1 DUP2 PUSH0 PUSH2 0x3219 SWAP1 SWAP2 SWAP1 PUSH4 0xFFFFFFFF AND JUMP JUMPDEST POP POP JUMP JUMPDEST PUSH0 DUP1 PUSH0 SWAP1 POP PUSH27 0x184F03E93FF9F4DAA797ED6E38ED64BF6A1F010000000000000000 DUP4 LT PUSH2 0x2E01 JUMPI PUSH27 0x184F03E93FF9F4DAA797ED6E38ED64BF6A1F010000000000000000 DUP4 DUP2 PUSH2 0x2DF7 JUMPI PUSH2 0x2DF6 PUSH2 0x400D JUMP JUMPDEST JUMPDEST DIV SWAP3 POP PUSH1 0x40 DUP2 ADD SWAP1 POP JUMPDEST PUSH14 0x4EE2D6D415B85ACEF8100000000 DUP4 LT PUSH2 0x2E3E JUMPI PUSH14 0x4EE2D6D415B85ACEF8100000000 DUP4 DUP2 PUSH2 0x2E34 JUMPI PUSH2 0x2E33 PUSH2 0x400D JUMP JUMPDEST JUMPDEST DIV SWAP3 POP PUSH1 0x20 DUP2 ADD SWAP1 POP JUMPDEST PUSH7 0x2386F26FC10000 DUP4 LT PUSH2 0x2E6D JUMPI PUSH7 0x2386F26FC10000 DUP4 DUP2 PUSH2 0x2E63 JUMPI PUSH2 0x2E62 PUSH2 0x400D JUMP JUMPDEST JUMPDEST DIV SWAP3 POP PUSH1 0x10 DUP2 ADD SWAP1 POP JUMPDEST PUSH4 0x5F5E100 DUP4 LT PUSH2 0x2E96 JUMPI PUSH4 0x5F5E100 DUP4 DUP2 PUSH2 0x2E8C JUMPI PUSH2 0x2E8B PUSH2 0x400D JUMP JUMPDEST JUMPDEST DIV SWAP3 POP PUSH1 0x8 DUP2 ADD SWAP1 POP JUMPDEST PUSH2 0x2710 DUP4 LT PUSH2 0x2EBB JUMPI PUSH2 0x2710 DUP4 DUP2 PUSH2 0x2EB1 JUMPI PUSH2 0x2EB0 PUSH2 0x400D JUMP JUMPDEST JUMPDEST DIV SWAP3 POP PUSH1 0x4 DUP2 ADD SWAP1 POP JUMPDEST PUSH1 0x64 DUP4 LT PUSH2 0x2EDE JUMPI PUSH1 0x64 DUP4 DUP2 PUSH2 0x2ED4 JUMPI PUSH2 0x2ED3 PUSH2 0x400D JUMP JUMPDEST JUMPDEST DIV SWAP3 POP PUSH1 0x2 DUP2 ADD SWAP1 POP JUMPDEST PUSH1 0xA DUP4 LT PUSH2 0x2EED JUMPI PUSH1 0x1 DUP2 ADD SWAP1 POP JUMPDEST DUP1 SWAP2 POP POP SWAP2 SWAP1 POP JUMP JUMPDEST PUSH0 DUP1 PUSH1 0xA PUSH0 DUP5 DUP2 MSTORE PUSH1 0x20 ADD SWAP1 DUP2 MSTORE PUSH1 0x20 ADD PUSH0 KECCAK256 SLOAD SWAP1 POP DUP1 PUSH1 0xA0 SHR SWAP2 POP POP SWAP2 SWAP1 POP JUMP JUMPDEST PUSH0 PUSH1 0xA PUSH0 DUP5 DUP2 MSTORE PUSH1 0x20 ADD SWAP1 DUP2 MSTORE PUSH1 0x20 ADD PUSH0 KECCAK256 SLOAD SWAP1 POP PUSH1 0xA0 PUSH32 0xFFFFFFFFFFFFFFFFFFFFFFFF0000000000000000000000000000000000000000 SWAP1 SHR DUP3 GT ISZERO PUSH2 0x2F8B JUMPI PUSH1 0x40 MLOAD PUSH32 0xFCB3438C00000000000000000000000000000000000000000000000000000000 DUP2 MSTORE PUSH1 0x4 ADD PUSH1 0x40 MLOAD DUP1 SWAP2 SUB SWAP1 REVERT JUMPDEST PUSH32 0xFFFFFFFFFFFFFFFFFFFFFFFF0000000000000000000000000000000000000000 DUP3 PUSH1 0xA0 SHL AND PUSH20 0xFFFFFFFFFFFFFFFFFFFFFFFFFFFFFFFFFFFFFFFF DUP3 AND ADD SWAP1 POP DUP1 PUSH1 0xA PUSH0 DUP6 DUP2 MSTORE PUSH1 0x20 ADD SWAP1 DUP2 MSTORE PUSH1 0x20 ADD PUSH0 KECCAK256 DUP2 SWAP1 SSTORE POP POP POP POP JUMP JUMPDEST PUSH0 PUSH1 0xA PUSH0 DUP5 DUP2 MSTORE PUSH1 0x20 ADD SWAP1 DUP2 MSTORE PUSH1 0x20 ADD PUSH0 KECCAK256 SLOAD SWAP1 POP PUSH20 0xFFFFFFFFFFFFFFFFFFFFFFFFFFFFFFFFFFFFFFFF DUP3 AND PUSH32 0xFFFFFFFFFFFFFFFFFFFFFFFF0000000000000000000000000000000000000000 DUP3 AND ADD SWAP1 POP DUP1 PUSH1 0xA PUSH0 DUP6 DUP2 MSTORE PUSH1 0x20 ADD SWAP1 DUP2 MSTORE PUSH1 0x20 ADD PUSH0 KECCAK256 DUP2 SWAP1 SSTORE POP POP POP POP JUMP JUMPDEST PUSH0 DUP2 PUSH0 ADD PUSH0 SWAP1 SLOAD SWAP1 PUSH2 0x100 EXP SWAP1 DIV PUSH16 0xFFFFFFFFFFFFFFFFFFFFFFFFFFFFFFFF AND PUSH16 0xFFFFFFFFFFFFFFFFFFFFFFFFFFFFFFFF AND DUP3 PUSH0 ADD PUSH1 0x10 SWAP1 SLOAD SWAP1 PUSH2 0x100 EXP SWAP1 DIV PUSH16 0xFFFFFFFFFFFFFFFFFFFFFFFFFFFFFFFF AND PUSH16 0xFFFFFFFFFFFFFFFFFFFFFFFFFFFFFFFF AND EQ SWAP1 POP SWAP2 SWAP1 POP JUMP JUMPDEST PUSH0 DUP1 DUP3 PUSH0 ADD PUSH1 0x10 SWAP1 SLOAD SWAP1 PUSH2 0x100 EXP SWAP1 DIV PUSH16 0xFFFFFFFFFFFFFFFFFFFFFFFFFFFFFFFF AND SWAP1 POP DUP3 PUSH0 ADD PUSH0 SWAP1 SLOAD SWAP1 PUSH2 0x100 EXP SWAP1 DIV PUSH16 0xFFFFFFFFFFFFFFFFFFFFFFFFFFFFFFFF AND PUSH16 0xFFFFFFFFFFFFFFFFFFFFFFFFFFFFFFFF AND DUP2 PUSH16 0xFFFFFFFFFFFFFFFFFFFFFFFFFFFFFFFF AND SUB PUSH2 0x315E JUMPI PUSH1 0x40 MLOAD PUSH32 0x75E52F4F00000000000000000000000000000000000000000000000000000000 DUP2 MSTORE PUSH1 0x4 ADD PUSH1 0x40 MLOAD DUP1 SWAP2 SUB SWAP1 REVERT JUMPDEST DUP1 PUSH1 0x1 SWAP1 SUB SWAP1 POP DUP3 PUSH1 0x1 ADD PUSH0 DUP3 PUSH16 0xFFFFFFFFFFFFFFFFFFFFFFFFFFFFFFFF AND PUSH16 0xFFFFFFFFFFFFFFFFFFFFFFFFFFFFFFFF AND DUP2 MSTORE PUSH1 0x20 ADD SWAP1 DUP2 MSTORE PUSH1 0x20 ADD PUSH0 KECCAK256 SLOAD SWAP2 POP DUP3 PUSH1 0x1 ADD PUSH0 DUP3 PUSH16 0xFFFFFFFFFFFFFFFFFFFFFFFFFFFFFFFF AND PUSH16 0xFFFFFFFFFFFFFFFFFFFFFFFFFFFFFFFF AND DUP2 MSTORE PUSH1 0x20 ADD SWAP1 DUP2 MSTORE PUSH1 0x20 ADD PUSH0 KECCAK256 PUSH0 SWAP1 SSTORE DUP1 DUP4 PUSH0 ADD PUSH1 0x10 PUSH2 0x100 EXP DUP2 SLOAD DUP2 PUSH16 0xFFFFFFFFFFFFFFFFFFFFFFFFFFFFFFFF MUL NOT AND SWAP1 DUP4 PUSH16 0xFFFFFFFFFFFFFFFFFFFFFFFFFFFFFFFF AND MUL OR SWAP1 SSTORE POP POP SWAP2 SWAP1 POP JUMP JUMPDEST PUSH0 PUSH1 0x1 DUP4 PUSH0 ADD PUSH0 SWAP1 SLOAD SWAP1 PUSH2 0x100 EXP SWAP1 DIV PUSH16 0xFFFFFFFFFFFFFFFFFFFFFFFFFFFFFFFF AND SUB SWAP1 POP DUP3 PUSH0 ADD PUSH1 0x10 SWAP1 SLOAD SWAP1 PUSH2 0x100 EXP SWAP1 DIV PUSH16 0xFFFFFFFFFFFFFFFFFFFFFFFFFFFFFFFF AND PUSH16 0xFFFFFFFFFFFFFFFFFFFFFFFFFFFFFFFF AND DUP2 PUSH16 0xFFFFFFFFFFFFFFFFFFFFFFFFFFFFFFFF AND SUB PUSH2 0x32BA JUMPI PUSH1 0x40 MLOAD PUSH32 0x8ACB5F2700000000000000000000000000000000000000000000000000000000 DUP2 MSTORE PUSH1 0x4 ADD PUSH1 0x40 MLOAD DUP1 SWAP2 SUB SWAP1 REVERT JUMPDEST DUP2 DUP4 PUSH1 0x1 ADD PUSH0 DUP4 PUSH16 0xFFFFFFFFFFFFFFFFFFFFFFFFFFFFFFFF AND PUSH16 0xFFFFFFFFFFFFFFFFFFFFFFFFFFFFFFFF AND DUP2 MSTORE PUSH1 0x20 ADD SWAP1 DUP2 MSTORE PUSH1 0x20 ADD PUSH0 KECCAK256 DUP2 SWAP1 SSTORE POP DUP1 DUP4 PUSH0 ADD PUSH0 PUSH2 0x100 EXP DUP2 SLOAD DUP2 PUSH16 0xFFFFFFFFFFFFFFFFFFFFFFFFFFFFFFFF MUL NOT AND SWAP1 DUP4 PUSH16 0xFFFFFFFFFFFFFFFFFFFFFFFFFFFFFFFF AND MUL OR SWAP1 SSTORE POP POP POP POP JUMP JUMPDEST PUSH0 PUSH1 0x40 MLOAD SWAP1 POP SWAP1 JUMP JUMPDEST PUSH0 DUP1 REVERT JUMPDEST PUSH0 DUP1 REVERT JUMPDEST PUSH0 PUSH32 0xFFFFFFFF00000000000000000000000000000000000000000000000000000000 DUP3 AND SWAP1 POP SWAP2 SWAP1 POP JUMP JUMPDEST PUSH2 0x3379 DUP2 PUSH2 0x3345 JUMP JUMPDEST DUP2 EQ PUSH2 0x3383 JUMPI PUSH0 DUP1 REVERT JUMPDEST POP JUMP JUMPDEST PUSH0 DUP2 CALLDATALOAD SWAP1 POP PUSH2 0x3394 DUP2 PUSH2 0x3370 JUMP JUMPDEST SWAP3 SWAP2 POP POP JUMP JUMPDEST PUSH0 PUSH1 0x20 DUP3 DUP5 SUB SLT ISZERO PUSH2 0x33AF JUMPI PUSH2 0x33AE PUSH2 0x333D JUMP JUMPDEST JUMPDEST PUSH0 PUSH2 0x33BC DUP5 DUP3 DUP6 ADD PUSH2 0x3386 JUMP JUMPDEST SWAP2 POP POP SWAP3 SWAP2 POP POP JUMP JUMPDEST PUSH0 DUP2 ISZERO ISZERO SWAP1 POP SWAP2 SWAP1 POP JUMP JUMPDEST PUSH2 0x33D9 DUP2 PUSH2 0x33C5 JUMP JUMPDEST DUP3 MSTORE POP POP JUMP JUMPDEST PUSH0 PUSH1 0x20 DUP3 ADD SWAP1 POP PUSH2 0x33F2 PUSH0 DUP4 ADD DUP5 PUSH2 0x33D0 JUMP JUMPDEST SWAP3 SWAP2 POP POP JUMP JUMPDEST PUSH0 PUSH20 0xFFFFFFFFFFFFFFFFFFFFFFFFFFFFFFFFFFFFFFFF DUP3 AND SWAP1 POP SWAP2 SWAP1 POP JUMP JUMPDEST PUSH0 PUSH2 0x3421 DUP3 PUSH2 0x33F8 JUMP JUMPDEST SWAP1 POP SWAP2 SWAP1 POP JUMP JUMPDEST PUSH2 0x3431 DUP2 PUSH2 0x3417 JUMP JUMPDEST DUP2 EQ PUSH2 0x343B JUMPI PUSH0 DUP1 REVERT JUMPDEST POP JUMP JUMPDEST PUSH0 DUP2 CALLDATALOAD SWAP1 POP PUSH2 0x344C DUP2 PUSH2 0x3428 JUMP JUMPDEST SWAP3 SWAP2 POP POP JUMP JUMPDEST PUSH0 PUSH1 0x20 DUP3 DUP5 SUB SLT ISZERO PUSH2 0x3467 JUMPI PUSH2 0x3466 PUSH2 0x333D JUMP JUMPDEST JUMPDEST PUSH0 PUSH2 0x3474 DUP5 DUP3 DUP6 ADD PUSH2 0x343E JUMP JUMPDEST SWAP2 POP POP SWAP3 SWAP2 POP POP JUMP JUMPDEST PUSH0 DUP2 SWAP1 POP SWAP2 SWAP1 POP JUMP JUMPDEST PUSH2 0x348F DUP2 PUSH2 0x347D JUMP JUMPDEST DUP3 MSTORE POP POP JUMP JUMPDEST PUSH0 PUSH1 0x20 DUP3 ADD SWAP1 POP PUSH2 0x34A8 PUSH0 DUP4 ADD DUP5 PUSH2 0x3486 JUMP JUMPDEST SWAP3 SWAP2 POP POP JUMP JUMPDEST PUSH0 DUP2 MLOAD SWAP1 POP SWAP2 SWAP1 POP JUMP JUMPDEST PUSH0 DUP3 DUP3 MSTORE PUSH1 0x20 DUP3 ADD SWAP1 POP SWAP3 SWAP2 POP POP JUMP JUMPDEST PUSH0 JUMPDEST DUP4 DUP2 LT ISZERO PUSH2 0x34E5 JUMPI DUP1 DUP3 ADD MLOAD DUP2 DUP5 ADD MSTORE PUSH1 0x20 DUP2 ADD SWAP1 POP PUSH2 0x34CA JUMP JUMPDEST PUSH0 DUP5 DUP5 ADD MSTORE POP POP POP POP JUMP JUMPDEST PUSH0 PUSH1 0x1F NOT PUSH1 0x1F DUP4 ADD AND SWAP1 POP SWAP2 SWAP1 POP JUMP JUMPDEST PUSH0 PUSH2 0x350A DUP3 PUSH2 0x34AE JUMP JUMPDEST PUSH2 0x3514 DUP2 DUP6 PUSH2 0x34B8 JUMP JUMPDEST SWAP4 POP PUSH2 0x3524 DUP2 DUP6 PUSH1 0x20 DUP7 ADD PUSH2 0x34C8 JUMP JUMPDEST PUSH2 0x352D DUP2 PUSH2 0x34F0 JUMP JUMPDEST DUP5 ADD SWAP2 POP POP SWAP3 SWAP2 POP POP JUMP JUMPDEST PUSH0 PUSH1 0x20 DUP3 ADD SWAP1 POP DUP2 DUP2 SUB PUSH0 DUP4 ADD MSTORE PUSH2 0x3550 DUP2 DUP5 PUSH2 0x3500 JUMP JUMPDEST SWAP1 POP SWAP3 SWAP2 POP POP JUMP JUMPDEST PUSH2 0x3561 DUP2 PUSH2 0x347D JUMP JUMPDEST DUP2 EQ PUSH2 0x356B JUMPI PUSH0 DUP1 REVERT JUMPDEST POP JUMP JUMPDEST PUSH0 DUP2 CALLDATALOAD SWAP1 POP PUSH2 0x357C DUP2 PUSH2 0x3558 JUMP JUMPDEST SWAP3 SWAP2 POP POP JUMP JUMPDEST PUSH0 PUSH1 0x20 DUP3 DUP5 SUB SLT ISZERO PUSH2 0x3597 JUMPI PUSH2 0x3596 PUSH2 0x333D JUMP JUMPDEST JUMPDEST PUSH0 PUSH2 0x35A4 DUP5 DUP3 DUP6 ADD PUSH2 0x356E JUMP JUMPDEST SWAP2 POP POP SWAP3 SWAP2 POP POP JUMP JUMPDEST PUSH2 0x35B6 DUP2 PUSH2 0x3417 JUMP JUMPDEST DUP3 MSTORE POP POP JUMP JUMPDEST PUSH0 PUSH1 0x20 DUP3 ADD SWAP1 POP PUSH2 0x35CF PUSH0 DUP4 ADD DUP5 PUSH2 0x35AD JUMP JUMPDEST SWAP3 SWAP2 POP POP JUMP JUMPDEST PUSH0 DUP1 PUSH1 0x40 DUP4 DUP6 SUB SLT ISZERO PUSH2 0x35EB JUMPI PUSH2 0x35EA PUSH2 0x333D JUMP JUMPDEST JUMPDEST PUSH0 PUSH2 0x35F8 DUP6 DUP3 DUP7 ADD PUSH2 0x343E JUMP JUMPDEST SWAP3 POP POP PUSH1 0x20 PUSH2 0x3609 DUP6 DUP3 DUP7 ADD PUSH2 0x356E JUMP JUMPDEST SWAP2 POP POP SWAP3 POP SWAP3 SWAP1 POP JUMP JUMPDEST PUSH0 DUP1 PUSH0 PUSH1 0x60 DUP5 DUP7 SUB SLT ISZERO PUSH2 0x362A JUMPI PUSH2 0x3629 PUSH2 0x333D JUMP JUMPDEST JUMPDEST PUSH0 PUSH2 0x3637 DUP7 DUP3 DUP8 ADD PUSH2 0x343E JUMP JUMPDEST SWAP4 POP POP PUSH1 0x20 PUSH2 0x3648 DUP7 DUP3 DUP8 ADD PUSH2 0x343E JUMP JUMPDEST SWAP3 POP POP PUSH1 0x40 PUSH2 0x3659 DUP7 DUP3 DUP8 ADD PUSH2 0x356E JUMP JUMPDEST SWAP2 POP POP SWAP3 POP SWAP3 POP SWAP3 JUMP JUMPDEST PUSH0 PUSH1 0xFF DUP3 AND SWAP1 POP SWAP2 SWAP1 POP JUMP JUMPDEST PUSH2 0x3678 DUP2 PUSH2 0x3663 JUMP JUMPDEST DUP3 MSTORE POP POP JUMP JUMPDEST PUSH0 PUSH1 0x20 DUP3 ADD SWAP1 POP PUSH2 0x3691 PUSH0 DUP4 ADD DUP5 PUSH2 0x366F JUMP JUMPDEST SWAP3 SWAP2 POP POP JUMP JUMPDEST PUSH0 DUP2 SWAP1 POP SWAP2 SWAP1 POP JUMP JUMPDEST PUSH2 0x36A9 DUP2 PUSH2 0x3697 JUMP JUMPDEST DUP3 MSTORE POP POP JUMP JUMPDEST PUSH0 PUSH1 0x20 DUP3 ADD SWAP1 POP PUSH2 0x36C2 PUSH0 DUP4 ADD DUP5 PUSH2 0x36A0 JUMP JUMPDEST SWAP3 SWAP2 POP POP JUMP JUMPDEST PUSH2 0x36D1 DUP2 PUSH2 0x33C5 JUMP JUMPDEST DUP2 EQ PUSH2 0x36DB JUMPI PUSH0 DUP1 REVERT JUMPDEST POP JUMP JUMPDEST PUSH0 DUP2 CALLDATALOAD SWAP1 POP PUSH2 0x36EC DUP2 PUSH2 0x36C8 JUMP JUMPDEST SWAP3 SWAP2 POP POP JUMP JUMPDEST PUSH0 PUSH1 0x20 DUP3 DUP5 SUB SLT ISZERO PUSH2 0x3707 JUMPI PUSH2 0x3706 PUSH2 0x333D JUMP JUMPDEST JUMPDEST PUSH0 PUSH2 0x3714 DUP5 DUP3 DUP6 ADD PUSH2 0x36DE JUMP JUMPDEST SWAP2 POP POP SWAP3 SWAP2 POP POP JUMP JUMPDEST PUSH0 DUP1 PUSH1 0x40 DUP4 DUP6 SUB SLT ISZERO PUSH2 0x3733 JUMPI PUSH2 0x3732 PUSH2 0x333D JUMP JUMPDEST JUMPDEST PUSH0 PUSH2 0x3740 DUP6 DUP3 DUP7 ADD PUSH2 0x343E JUMP JUMPDEST SWAP3 POP POP PUSH1 0x20 PUSH2 0x3751 DUP6 DUP3 DUP7 ADD PUSH2 0x36DE JUMP JUMPDEST SWAP2 POP POP SWAP3 POP SWAP3 SWAP1 POP JUMP JUMPDEST PUSH0 DUP2 MLOAD SWAP1 POP SWAP2 SWAP1 POP JUMP JUMPDEST PUSH0 DUP3 DUP3 MSTORE PUSH1 0x20 DUP3 ADD SWAP1 POP SWAP3 SWAP2 POP POP JUMP JUMPDEST PUSH0 DUP2 SWAP1 POP PUSH1 0x20 DUP3 ADD SWAP1 POP SWAP2 SWAP1 POP JUMP JUMPDEST PUSH2 0x378D DUP2 PUSH2 0x347D JUMP JUMPDEST DUP3 MSTORE POP POP JUMP JUMPDEST PUSH0 PUSH2 0x379E DUP4 DUP4 PUSH2 0x3784 JUMP JUMPDEST PUSH1 0x20 DUP4 ADD SWAP1 POP SWAP3 SWAP2 POP POP JUMP JUMPDEST PUSH0 PUSH1 0x20 DUP3 ADD SWAP1 POP SWAP2 SWAP1 POP JUMP JUMPDEST PUSH0 PUSH2 0x37C0 DUP3 PUSH2 0x375B JUMP JUMPDEST PUSH2 0x37CA DUP2 DUP6 PUSH2 0x3765 JUMP JUMPDEST SWAP4 POP PUSH2 0x37D5 DUP4 PUSH2 0x3775 JUMP JUMPDEST DUP1 PUSH0 JUMPDEST DUP4 DUP2 LT ISZERO PUSH2 0x3805 JUMPI DUP2 MLOAD PUSH2 0x37EC DUP9 DUP3 PUSH2 0x3793 JUMP JUMPDEST SWAP8 POP PUSH2 0x37F7 DUP4 PUSH2 0x37AA JUMP JUMPDEST SWAP3 POP POP PUSH1 0x1 DUP2 ADD SWAP1 POP PUSH2 0x37D8 JUMP JUMPDEST POP DUP6 SWAP4 POP POP POP POP SWAP3 SWAP2 POP POP JUMP JUMPDEST PUSH0 PUSH1 0x20 DUP3 ADD SWAP1 POP DUP2 DUP2 SUB PUSH0 DUP4 ADD MSTORE PUSH2 0x382A DUP2 DUP5 PUSH2 0x37B6 JUMP JUMPDEST SWAP1 POP SWAP3 SWAP2 POP POP JUMP JUMPDEST PUSH0 DUP1 REVERT JUMPDEST PUSH0 DUP1 REVERT JUMPDEST PUSH32 0x4E487B7100000000000000000000000000000000000000000000000000000000 PUSH0 MSTORE PUSH1 0x41 PUSH1 0x4 MSTORE PUSH1 0x24 PUSH0 REVERT JUMPDEST PUSH2 0x3870 DUP3 PUSH2 0x34F0 JUMP JUMPDEST DUP2 ADD DUP2 DUP2 LT PUSH8 0xFFFFFFFFFFFFFFFF DUP3 GT OR ISZERO PUSH2 0x388F JUMPI PUSH2 0x388E PUSH2 0x383A JUMP JUMPDEST JUMPDEST DUP1 PUSH1 0x40 MSTORE POP POP POP JUMP JUMPDEST PUSH0 PUSH2 0x38A1 PUSH2 0x3334 JUMP JUMPDEST SWAP1 POP PUSH2 0x38AD DUP3 DUP3 PUSH2 0x3867 JUMP JUMPDEST SWAP2 SWAP1 POP JUMP JUMPDEST PUSH0 PUSH8 0xFFFFFFFFFFFFFFFF DUP3 GT ISZERO PUSH2 0x38CC JUMPI PUSH2 0x38CB PUSH2 0x383A JUMP JUMPDEST JUMPDEST PUSH2 0x38D5 DUP3 PUSH2 0x34F0 JUMP JUMPDEST SWAP1 POP PUSH1 0x20 DUP2 ADD SWAP1 POP SWAP2 SWAP1 POP JUMP JUMPDEST DUP3 DUP2 DUP4 CALLDATACOPY PUSH0 DUP4 DUP4 ADD MSTORE POP POP POP JUMP JUMPDEST PUSH0 PUSH2 0x3902 PUSH2 0x38FD DUP5 PUSH2 0x38B2 JUMP JUMPDEST PUSH2 0x3898 JUMP JUMPDEST SWAP1 POP DUP3 DUP2 MSTORE PUSH1 0x20 DUP2 ADD DUP5 DUP5 DUP5 ADD GT ISZERO PUSH2 0x391E JUMPI PUSH2 0x391D PUSH2 0x3836 JUMP JUMPDEST JUMPDEST PUSH2 0x3929 DUP5 DUP3 DUP6 PUSH2 0x38E2 JUMP JUMPDEST POP SWAP4 SWAP3 POP POP POP JUMP JUMPDEST PUSH0 DUP3 PUSH1 0x1F DUP4 ADD SLT PUSH2 0x3945 JUMPI PUSH2 0x3944 PUSH2 0x3832 JUMP JUMPDEST JUMPDEST DUP2 CALLDATALOAD PUSH2 0x3955 DUP5 DUP3 PUSH1 0x20 DUP7 ADD PUSH2 0x38F0 JUMP JUMPDEST SWAP2 POP POP SWAP3 SWAP2 POP POP JUMP JUMPDEST PUSH0 DUP1 PUSH0 DUP1 PUSH1 0x80 DUP6 DUP8 SUB SLT ISZERO PUSH2 0x3976 JUMPI PUSH2 0x3975 PUSH2 0x333D JUMP JUMPDEST JUMPDEST PUSH0 PUSH2 0x3983 DUP8 DUP3 DUP9 ADD PUSH2 0x343E JUMP JUMPDEST SWAP5 POP POP PUSH1 0x20 PUSH2 0x3994 DUP8 DUP3 DUP9 ADD PUSH2 0x343E JUMP JUMPDEST SWAP4 POP POP PUSH1 0x40 PUSH2 0x39A5 DUP8 DUP3 DUP9 ADD PUSH2 0x356E JUMP JUMPDEST SWAP3 POP POP PUSH1 0x60 DUP6 ADD CALLDATALOAD PUSH8 0xFFFFFFFFFFFFFFFF DUP2 GT ISZERO PUSH2 0x39C6 JUMPI PUSH2 0x39C5 PUSH2 0x3341 JUMP JUMPDEST JUMPDEST PUSH2 0x39D2 DUP8 DUP3 DUP9 ADD PUSH2 0x3931 JUMP JUMPDEST SWAP2 POP POP SWAP3 SWAP6 SWAP2 SWAP5 POP SWAP3 POP JUMP JUMPDEST PUSH2 0x39E7 DUP2 PUSH2 0x3663 JUMP JUMPDEST DUP2 EQ PUSH2 0x39F1 JUMPI PUSH0 DUP1 REVERT JUMPDEST POP JUMP JUMPDEST PUSH0 DUP2 CALLDATALOAD SWAP1 POP PUSH2 0x3A02 DUP2 PUSH2 0x39DE JUMP JUMPDEST SWAP3 SWAP2 POP POP JUMP JUMPDEST PUSH2 0x3A11 DUP2 PUSH2 0x3697 JUMP JUMPDEST DUP2 EQ PUSH2 0x3A1B JUMPI PUSH0 DUP1 REVERT JUMPDEST POP JUMP JUMPDEST PUSH0 DUP2 CALLDATALOAD SWAP1 POP PUSH2 0x3A2C DUP2 PUSH2 0x3A08 JUMP JUMPDEST SWAP3 SWAP2 POP POP JUMP JUMPDEST PUSH0 DUP1 PUSH0 DUP1 PUSH0 DUP1 PUSH0 PUSH1 0xE0 DUP9 DUP11 SUB SLT ISZERO PUSH2 0x3A4D JUMPI PUSH2 0x3A4C PUSH2 0x333D JUMP JUMPDEST JUMPDEST PUSH0 PUSH2 0x3A5A DUP11 DUP3 DUP12 ADD PUSH2 0x343E JUMP JUMPDEST SWAP8 POP POP PUSH1 0x20 PUSH2 0x3A6B DUP11 DUP3 DUP12 ADD PUSH2 0x343E JUMP JUMPDEST SWAP7 POP POP PUSH1 0x40 PUSH2 0x3A7C DUP11 DUP3 DUP12 ADD PUSH2 0x356E JUMP JUMPDEST SWAP6 POP POP PUSH1 0x60 PUSH2 0x3A8D DUP11 DUP3 DUP12 ADD PUSH2 0x356E JUMP JUMPDEST SWAP5 POP POP PUSH1 0x80 PUSH2 0x3A9E DUP11 DUP3 DUP12 ADD PUSH2 0x39F4 JUMP JUMPDEST SWAP4 POP POP PUSH1 0xA0 PUSH2 0x3AAF DUP11 DUP3 DUP12 ADD PUSH2 0x3A1E JUMP JUMPDEST SWAP3 POP POP PUSH1 0xC0 PUSH2 0x3AC0 DUP11 DUP3 DUP12 ADD PUSH2 0x3A1E JUMP JUMPDEST SWAP2 POP POP SWAP3 SWAP6 SWAP9 SWAP2 SWAP5 SWAP8 POP SWAP3 SWAP6 POP JUMP JUMPDEST PUSH0 DUP1 PUSH1 0x40 DUP4 DUP6 SUB SLT ISZERO PUSH2 0x3AE5 JUMPI PUSH2 0x3AE4 PUSH2 0x333D JUMP JUMPDEST JUMPDEST PUSH0 PUSH2 0x3AF2 DUP6 DUP3 DUP7 ADD PUSH2 0x343E JUMP JUMPDEST SWAP3 POP POP PUSH1 0x20 PUSH2 0x3B03 DUP6 DUP3 DUP7 ADD PUSH2 0x343E JUMP JUMPDEST SWAP2 POP POP SWAP3 POP SWAP3 SWAP1 POP JUMP JUMPDEST PUSH0 DUP1 PUSH1 0x40 DUP4 DUP6 SUB SLT ISZERO PUSH2 0x3B23 JUMPI PUSH2 0x3B22 PUSH2 0x333D JUMP JUMPDEST JUMPDEST PUSH0 PUSH2 0x3B30 DUP6 DUP3 DUP7 ADD PUSH2 0x356E JUMP JUMPDEST SWAP3 POP POP PUSH1 0x20 PUSH2 0x3B41 DUP6 DUP3 DUP7 ADD PUSH2 0x356E JUMP JUMPDEST SWAP2 POP POP SWAP3 POP SWAP3 SWAP1 POP JUMP JUMPDEST PUSH32 0x4E487B7100000000000000000000000000000000000000000000000000000000 PUSH0 MSTORE PUSH1 0x22 PUSH1 0x4 MSTORE PUSH1 0x24 PUSH0 REVERT JUMPDEST PUSH0 PUSH1 0x2 DUP3 DIV SWAP1 POP PUSH1 0x1 DUP3 AND DUP1 PUSH2 0x3B8F JUMPI PUSH1 0x7F DUP3 AND SWAP2 POP JUMPDEST PUSH1 0x20 DUP3 LT DUP2 SUB PUSH2 0x3BA2 JUMPI PUSH2 0x3BA1 PUSH2 0x3B4B JUMP JUMPDEST JUMPDEST POP SWAP2 SWAP1 POP JUMP JUMPDEST PUSH0 DUP2 MLOAD SWAP1 POP SWAP2 SWAP1 POP JUMP JUMPDEST PUSH0 DUP3 DUP3 MSTORE PUSH1 0x20 DUP3 ADD SWAP1 POP SWAP3 SWAP2 POP POP JUMP JUMPDEST PUSH0 PUSH2 0x3BCC DUP3 PUSH2 0x3BA8 JUMP JUMPDEST PUSH2 0x3BD6 DUP2 DUP6 PUSH2 0x3BB2 JUMP JUMPDEST SWAP4 POP PUSH2 0x3BE6 DUP2 DUP6 PUSH1 0x20 DUP7 ADD PUSH2 0x34C8 JUMP JUMPDEST PUSH2 0x3BEF DUP2 PUSH2 0x34F0 JUMP JUMPDEST DUP5 ADD SWAP2 POP POP SWAP3 SWAP2 POP POP JUMP JUMPDEST PUSH0 PUSH1 0x80 DUP3 ADD SWAP1 POP PUSH2 0x3C0D PUSH0 DUP4 ADD DUP8 PUSH2 0x35AD JUMP JUMPDEST PUSH2 0x3C1A PUSH1 0x20 DUP4 ADD DUP7 PUSH2 0x35AD JUMP JUMPDEST PUSH2 0x3C27 PUSH1 0x40 DUP4 ADD DUP6 PUSH2 0x3486 JUMP JUMPDEST DUP2 DUP2 SUB PUSH1 0x60 DUP4 ADD MSTORE PUSH2 0x3C39 DUP2 DUP5 PUSH2 0x3BC2 JUMP JUMPDEST SWAP1 POP SWAP6 SWAP5 POP POP POP POP POP JUMP JUMPDEST PUSH0 DUP2 MLOAD SWAP1 POP PUSH2 0x3C52 DUP2 PUSH2 0x3370 JUMP JUMPDEST SWAP3 SWAP2 POP POP JUMP JUMPDEST PUSH0 PUSH1 0x20 DUP3 DUP5 SUB SLT ISZERO PUSH2 0x3C6D JUMPI PUSH2 0x3C6C PUSH2 0x333D JUMP JUMPDEST JUMPDEST PUSH0 PUSH2 0x3C7A DUP5 DUP3 DUP6 ADD PUSH2 0x3C44 JUMP JUMPDEST SWAP2 POP POP SWAP3 SWAP2 POP POP JUMP JUMPDEST PUSH32 0x68747470733A2F2F6A616D657362616368696E692E636F6D2F00000000000000 DUP2 MSTORE POP JUMP JUMPDEST PUSH0 DUP2 SWAP1 POP SWAP3 SWAP2 POP POP JUMP JUMPDEST PUSH0 PUSH2 0x3CBD DUP3 PUSH2 0x34AE JUMP JUMPDEST PUSH2 0x3CC7 DUP2 DUP6 PUSH2 0x3CA9 JUMP JUMPDEST SWAP4 POP PUSH2 0x3CD7 DUP2 DUP6 PUSH1 0x20 DUP7 ADD PUSH2 0x34C8 JUMP JUMPDEST DUP1 DUP5 ADD SWAP2 POP POP SWAP3 SWAP2 POP POP JUMP JUMPDEST PUSH0 PUSH2 0x3CED DUP3 PUSH2 0x3C83 JUMP JUMPDEST PUSH1 0x19 DUP3 ADD SWAP2 POP PUSH2 0x3CFD DUP3 DUP5 PUSH2 0x3CB3 JUMP JUMPDEST SWAP2 POP DUP2 SWAP1 POP SWAP3 SWAP2 POP POP JUMP JUMPDEST PUSH0 PUSH1 0xC0 DUP3 ADD SWAP1 POP PUSH2 0x3D1B PUSH0 DUP4 ADD DUP10 PUSH2 0x36A0 JUMP JUMPDEST PUSH2 0x3D28 PUSH1 0x20 DUP4 ADD DUP9 PUSH2 0x35AD JUMP JUMPDEST PUSH2 0x3D35 PUSH1 0x40 DUP4 ADD DUP8 PUSH2 0x35AD JUMP JUMPDEST PUSH2 0x3D42 PUSH1 0x60 DUP4 ADD DUP7 PUSH2 0x3486 JUMP JUMPDEST PUSH2 0x3D4F PUSH1 0x80 DUP4 ADD DUP6 PUSH2 0x3486 JUMP JUMPDEST PUSH2 0x3D5C PUSH1 0xA0 DUP4 ADD DUP5 PUSH2 0x3486 JUMP JUMPDEST SWAP8 SWAP7 POP POP POP POP POP POP POP JUMP JUMPDEST PUSH32 0x1901000000000000000000000000000000000000000000000000000000000000 PUSH0 DUP3 ADD MSTORE POP JUMP JUMPDEST PUSH0 PUSH2 0x3D9B PUSH1 0x2 DUP4 PUSH2 0x3CA9 JUMP JUMPDEST SWAP2 POP PUSH2 0x3DA6 DUP3 PUSH2 0x3D67 JUMP JUMPDEST PUSH1 0x2 DUP3 ADD SWAP1 POP SWAP2 SWAP1 POP JUMP JUMPDEST PUSH0 DUP2 SWAP1 POP SWAP2 SWAP1 POP JUMP JUMPDEST PUSH2 0x3DCB PUSH2 0x3DC6 DUP3 PUSH2 0x3697 JUMP JUMPDEST PUSH2 0x3DB1 JUMP JUMPDEST DUP3 MSTORE POP POP JUMP JUMPDEST PUSH0 PUSH2 0x3DDB DUP3 PUSH2 0x3D8F JUMP JUMPDEST SWAP2 POP PUSH2 0x3DE7 DUP3 DUP6 PUSH2 0x3DBA JUMP JUMPDEST PUSH1 0x20 DUP3 ADD SWAP2 POP PUSH2 0x3DF7 DUP3 DUP5 PUSH2 0x3DBA JUMP JUMPDEST PUSH1 0x20 DUP3 ADD SWAP2 POP DUP2 SWAP1 POP SWAP4 SWAP3 POP POP POP JUMP JUMPDEST PUSH0 PUSH1 0x80 DUP3 ADD SWAP1 POP PUSH2 0x3E1A PUSH0 DUP4 ADD DUP8 PUSH2 0x36A0 JUMP JUMPDEST PUSH2 0x3E27 PUSH1 0x20 DUP4 ADD DUP7 PUSH2 0x366F JUMP JUMPDEST PUSH2 0x3E34 PUSH1 0x40 DUP4 ADD DUP6 PUSH2 0x36A0 JUMP JUMPDEST PUSH2 0x3E41 PUSH1 0x60 DUP4 ADD DUP5 PUSH2 0x36A0 JUMP JUMPDEST SWAP6 SWAP5 POP POP POP POP POP JUMP JUMPDEST PUSH32 0x4E487B7100000000000000000000000000000000000000000000000000000000 PUSH0 MSTORE PUSH1 0x11 PUSH1 0x4 MSTORE PUSH1 0x24 PUSH0 REVERT JUMPDEST PUSH0 PUSH2 0x3E81 DUP3 PUSH2 0x347D JUMP JUMPDEST SWAP2 POP PUSH2 0x3E8C DUP4 PUSH2 0x347D JUMP JUMPDEST SWAP3 POP DUP3 DUP3 SUB SWAP1 POP DUP2 DUP2 GT ISZERO PUSH2 0x3EA4 JUMPI PUSH2 0x3EA3 PUSH2 0x3E4A JUMP JUMPDEST JUMPDEST SWAP3 SWAP2 POP POP JUMP JUMPDEST PUSH0 PUSH2 0x3EB4 DUP3 PUSH2 0x347D JUMP JUMPDEST SWAP2 POP PUSH2 0x3EBF DUP4 PUSH2 0x347D JUMP JUMPDEST SWAP3 POP DUP3 DUP3 ADD SWAP1 POP DUP1 DUP3 GT ISZERO PUSH2 0x3ED7 JUMPI PUSH2 0x3ED6 PUSH2 0x3E4A JUMP JUMPDEST JUMPDEST SWAP3 SWAP2 POP POP JUMP JUMPDEST PUSH32 0x4E487B7100000000000000000000000000000000000000000000000000000000 PUSH0 MSTORE PUSH1 0x32 PUSH1 0x4 MSTORE PUSH1 0x24 PUSH0 REVERT JUMPDEST PUSH0 DUP2 SWAP1 POP SWAP3 SWAP2 POP POP JUMP JUMPDEST PUSH0 DUP2 SWAP1 POP DUP2 PUSH0 MSTORE PUSH1 0x20 PUSH0 KECCAK256 SWAP1 POP SWAP2 SWAP1 POP JUMP JUMPDEST PUSH0 DUP2 SLOAD PUSH2 0x3F32 DUP2 PUSH2 0x3B78 JUMP JUMPDEST PUSH2 0x3F3C DUP2 DUP7 PUSH2 0x3F0A JUMP JUMPDEST SWAP5 POP PUSH1 0x1 DUP3 AND PUSH0 DUP2 EQ PUSH2 0x3F56 JUMPI PUSH1 0x1 DUP2 EQ PUSH2 0x3F6B JUMPI PUSH2 0x3F9D JUMP JUMPDEST PUSH1 0xFF NOT DUP4 AND DUP7 MSTORE DUP2 ISZERO ISZERO DUP3 MUL DUP7 ADD SWAP4 POP PUSH2 0x3F9D JUMP JUMPDEST PUSH2 0x3F74 DUP6 PUSH2 0x3F14 JUMP JUMPDEST PUSH0 JUMPDEST DUP4 DUP2 LT ISZERO PUSH2 0x3F95 JUMPI DUP2 SLOAD DUP2 DUP10 ADD MSTORE PUSH1 0x1 DUP3 ADD SWAP2 POP PUSH1 0x20 DUP2 ADD SWAP1 POP PUSH2 0x3F76 JUMP JUMPDEST DUP4 DUP9 ADD SWAP6 POP POP POP JUMPDEST POP POP POP SWAP3 SWAP2 POP POP JUMP JUMPDEST PUSH0 PUSH2 0x3FB1 DUP3 DUP5 PUSH2 0x3F26 JUMP JUMPDEST SWAP2 POP DUP2 SWAP1 POP SWAP3 SWAP2 POP POP JUMP JUMPDEST PUSH0 PUSH1 0xA0 DUP3 ADD SWAP1 POP PUSH2 0x3FCF PUSH0 DUP4 ADD DUP9 PUSH2 0x36A0 JUMP JUMPDEST PUSH2 0x3FDC PUSH1 0x20 DUP4 ADD DUP8 PUSH2 0x36A0 JUMP JUMPDEST PUSH2 0x3FE9 PUSH1 0x40 DUP4 ADD DUP7 PUSH2 0x36A0 JUMP JUMPDEST PUSH2 0x3FF6 PUSH1 0x60 DUP4 ADD DUP6 PUSH2 0x3486 JUMP JUMPDEST PUSH2 0x4003 PUSH1 0x80 DUP4 ADD DUP5 PUSH2 0x35AD JUMP JUMPDEST SWAP7 SWAP6 POP POP POP POP POP POP JUMP JUMPDEST PUSH32 0x4E487B7100000000000000000000000000000000000000000000000000000000 PUSH0 MSTORE PUSH1 0x12 PUSH1 0x4 MSTORE PUSH1 0x24 PUSH0 REVERT JUMPDEST PUSH0 PUSH2 0x4044 DUP3 PUSH2 0x347D JUMP JUMPDEST SWAP2 POP PUSH2 0x404F DUP4 PUSH2 0x347D JUMP JUMPDEST SWAP3 POP DUP3 PUSH2 0x405F JUMPI PUSH2 0x405E PUSH2 0x400D JUMP JUMPDEST JUMPDEST DUP3 DUP3 DIV SWAP1 POP SWAP3 SWAP2 POP POP JUMP JUMPDEST PUSH32 0x4E487B7100000000000000000000000000000000000000000000000000000000 PUSH0 MSTORE PUSH1 0x31 PUSH1 0x4 MSTORE PUSH1 0x24 PUSH0 REVERT JUMPDEST PUSH0 PUSH2 0x40A1 DUP3 PUSH2 0x347D JUMP JUMPDEST SWAP2 POP PUSH32 0xFFFFFFFFFFFFFFFFFFFFFFFFFFFFFFFFFFFFFFFFFFFFFFFFFFFFFFFFFFFFFFFF DUP3 SUB PUSH2 0x40D3 JUMPI PUSH2 0x40D2 PUSH2 0x3E4A JUMP JUMPDEST JUMPDEST PUSH1 0x1 DUP3 ADD SWAP1 POP SWAP2 SWAP1 POP JUMP INVALID LOG2 PUSH5 0x6970667358 0x22 SLT KECCAK256 0xE4 0xD8 PUSH18 0x9997ADE519F2C09230B0E92C6B0244F715CD SLT PUSH32 0xFD1FEEA7C0F68A04B464736F6C63430008180033000000000000000000000000 "
		},
		"gasEstimates": {
			"creation": {
				"codeDepositCost": "3332000",
				"executionCost": "infinite",
				"totalCost": "infinite"
			},
			"external": {
				"DOMAIN_SEPARATOR()": "infinite",
				"ID_ENCODING_PREFIX()": "414",
				"allowance(address,address)": "infinite",
				"approve(address,uint256)": "infinite",
				"balanceOf(address)": "2913",
				"decimals()": "infinite",
				"erc20Approve(address,uint256)": "infinite",
				"erc20BalanceOf(address)": "2898",
				"erc20TotalSupply()": "2478",
				"erc20TransferFrom(address,address,uint256)": "infinite",
				"erc721Approve(address,uint256)": "31600",
				"erc721BalanceOf(address)": "2948",
				"erc721TotalSupply()": "2477",
				"erc721TransferExempt(address)": "3000",
				"erc721TransferFrom(address,address,uint256)": "infinite",
				"getApproved(uint256)": "2940",
				"getERC721QueueLength()": "4784",
				"getERC721TokensInQueue(uint256,uint256)": "infinite",
				"isApprovedForAll(address,address)": "infinite",
				"minted()": "2470",
				"name()": "infinite",
				"nonces(address)": "2935",
				"owned(address)": "infinite",
				"ownerOf(uint256)": "3078",
				"permit(address,address,uint256,uint256,uint8,bytes32,bytes32)": "infinite",
				"safeTransferFrom(address,address,uint256)": "infinite",
				"safeTransferFrom(address,address,uint256,bytes)": "infinite",
				"setApprovalForAll(address,bool)": "infinite",
				"setSelfERC721TransferExempt(bool)": "infinite",
				"supportsInterface(bytes4)": "722",
				"symbol()": "infinite",
				"tokenURI(uint256)": "infinite",
				"totalSupply()": "2537",
				"transfer(address,uint256)": "infinite",
				"transferFrom(address,address,uint256)": "infinite",
				"units()": "infinite"
			}
		},
		"methodIdentifiers": {
			"DOMAIN_SEPARATOR()": "3644e515",
			"ID_ENCODING_PREFIX()": "6e8f624b",
			"allowance(address,address)": "dd62ed3e",
			"approve(address,uint256)": "095ea7b3",
			"balanceOf(address)": "70a08231",
			"decimals()": "313ce567",
			"erc20Approve(address,uint256)": "4d966072",
			"erc20BalanceOf(address)": "02519da3",
			"erc20TotalSupply()": "89fb4c66",
			"erc20TransferFrom(address,address,uint256)": "d96ca0b9",
			"erc721Approve(address,uint256)": "dfabc033",
			"erc721BalanceOf(address)": "b3f9ea34",
			"erc721TotalSupply()": "c5ab3ba6",
			"erc721TransferExempt(address)": "09f0ef65",
			"erc721TransferFrom(address,address,uint256)": "dd637699",
			"getApproved(uint256)": "081812fc",
			"getERC721QueueLength()": "09674eb0",
			"getERC721TokensInQueue(uint256,uint256)": "f780bc1a",
			"isApprovedForAll(address,address)": "e985e9c5",
			"minted()": "4f02c420",
			"name()": "06fdde03",
			"nonces(address)": "7ecebe00",
			"owned(address)": "b1ab9317",
			"ownerOf(uint256)": "6352211e",
			"permit(address,address,uint256,uint256,uint8,bytes32,bytes32)": "d505accf",
			"safeTransferFrom(address,address,uint256)": "42842e0e",
			"safeTransferFrom(address,address,uint256,bytes)": "b88d4fde",
			"setApprovalForAll(address,bool)": "a22cb465",
			"setSelfERC721TransferExempt(bool)": "8a696e50",
			"supportsInterface(bytes4)": "01ffc9a7",
			"symbol()": "95d89b41",
			"tokenURI(uint256)": "c87b56dd",
			"totalSupply()": "18160ddd",
			"transfer(address,uint256)": "a9059cbb",
			"transferFrom(address,address,uint256)": "23b872dd",
			"units()": "976a8435"
		}
	},
	"abi": [
		{
			"inputs": [],
			"stateMutability": "nonpayable",
			"type": "constructor"
		},
		{
			"inputs": [],
			"name": "AlreadyExists",
			"type": "error"
		},
		{
			"inputs": [],
			"name": "DecimalsTooLow",
			"type": "error"
		},
		{
			"inputs": [],
			"name": "InsufficientAllowance",
			"type": "error"
		},
		{
			"inputs": [],
			"name": "InvalidApproval",
			"type": "error"
		},
		{
			"inputs": [],
			"name": "InvalidExemption",
			"type": "error"
		},
		{
			"inputs": [],
			"name": "InvalidOperator",
			"type": "error"
		},
		{
			"inputs": [],
			"name": "InvalidRecipient",
			"type": "error"
		},
		{
			"inputs": [],
			"name": "InvalidSender",
			"type": "error"
		},
		{
			"inputs": [],
			"name": "InvalidSigner",
			"type": "error"
		},
		{
			"inputs": [],
			"name": "InvalidSpender",
			"type": "error"
		},
		{
			"inputs": [],
			"name": "InvalidTokenId",
			"type": "error"
		},
		{
			"inputs": [],
			"name": "MintLimitReached",
			"type": "error"
		},
		{
			"inputs": [],
			"name": "NotFound",
			"type": "error"
		},
		{
			"inputs": [],
			"name": "OwnedIndexOverflow",
			"type": "error"
		},
		{
			"inputs": [],
			"name": "PermitDeadlineExpired",
			"type": "error"
		},
		{
			"inputs": [],
			"name": "QueueEmpty",
			"type": "error"
		},
		{
			"inputs": [],
			"name": "QueueFull",
			"type": "error"
		},
		{
			"inputs": [],
			"name": "QueueOutOfBounds",
			"type": "error"
		},
		{
			"inputs": [],
			"name": "RecipientIsERC721TransferExempt",
			"type": "error"
		},
		{
			"inputs": [],
			"name": "Unauthorized",
			"type": "error"
		},
		{
			"inputs": [],
			"name": "UnsafeRecipient",
			"type": "error"
		},
		{
			"anonymous": false,
			"inputs": [
				{
					"indexed": true,
					"internalType": "address",
					"name": "owner",
					"type": "address"
				},
				{
					"indexed": true,
					"internalType": "address",
					"name": "spender",
					"type": "address"
				},
				{
					"indexed": false,
					"internalType": "uint256",
					"name": "value",
					"type": "uint256"
				}
			],
			"name": "Approval",
			"type": "event"
		},
		{
			"anonymous": false,
			"inputs": [
				{
					"indexed": true,
					"internalType": "address",
					"name": "owner",
					"type": "address"
				},
				{
					"indexed": true,
					"internalType": "address",
					"name": "spender",
					"type": "address"
				},
				{
					"indexed": true,
					"internalType": "uint256",
					"name": "id",
					"type": "uint256"
				}
			],
			"name": "Approval",
			"type": "event"
		},
		{
			"anonymous": false,
			"inputs": [
				{
					"indexed": true,
					"internalType": "address",
					"name": "owner",
					"type": "address"
				},
				{
					"indexed": true,
					"internalType": "address",
					"name": "operator",
					"type": "address"
				},
				{
					"indexed": false,
					"internalType": "bool",
					"name": "approved",
					"type": "bool"
				}
			],
			"name": "ApprovalForAll",
			"type": "event"
		},
		{
			"anonymous": false,
			"inputs": [
				{
					"indexed": true,
					"internalType": "address",
					"name": "from",
					"type": "address"
				},
				{
					"indexed": true,
					"internalType": "address",
					"name": "to",
					"type": "address"
				},
				{
					"indexed": false,
					"internalType": "uint256",
					"name": "amount",
					"type": "uint256"
				}
			],
			"name": "Transfer",
			"type": "event"
		},
		{
			"anonymous": false,
			"inputs": [
				{
					"indexed": true,
					"internalType": "address",
					"name": "from",
					"type": "address"
				},
				{
					"indexed": true,
					"internalType": "address",
					"name": "to",
					"type": "address"
				},
				{
					"indexed": true,
					"internalType": "uint256",
					"name": "id",
					"type": "uint256"
				}
			],
			"name": "Transfer",
			"type": "event"
		},
		{
			"inputs": [],
			"name": "DOMAIN_SEPARATOR",
			"outputs": [
				{
					"internalType": "bytes32",
					"name": "",
					"type": "bytes32"
				}
			],
			"stateMutability": "view",
			"type": "function"
		},
		{
			"inputs": [],
			"name": "ID_ENCODING_PREFIX",
			"outputs": [
				{
					"internalType": "uint256",
					"name": "",
					"type": "uint256"
				}
			],
			"stateMutability": "view",
			"type": "function"
		},
		{
			"inputs": [
				{
					"internalType": "address",
					"name": "",
					"type": "address"
				},
				{
					"internalType": "address",
					"name": "",
					"type": "address"
				}
			],
			"name": "allowance",
			"outputs": [
				{
					"internalType": "uint256",
					"name": "",
					"type": "uint256"
				}
			],
			"stateMutability": "view",
			"type": "function"
		},
		{
			"inputs": [
				{
					"internalType": "address",
					"name": "spender_",
					"type": "address"
				},
				{
					"internalType": "uint256",
					"name": "valueOrId_",
					"type": "uint256"
				}
			],
			"name": "approve",
			"outputs": [
				{
					"internalType": "bool",
					"name": "",
					"type": "bool"
				}
			],
			"stateMutability": "nonpayable",
			"type": "function"
		},
		{
			"inputs": [
				{
					"internalType": "address",
					"name": "",
					"type": "address"
				}
			],
			"name": "balanceOf",
			"outputs": [
				{
					"internalType": "uint256",
					"name": "",
					"type": "uint256"
				}
			],
			"stateMutability": "view",
			"type": "function"
		},
		{
			"inputs": [],
			"name": "decimals",
			"outputs": [
				{
					"internalType": "uint8",
					"name": "",
					"type": "uint8"
				}
			],
			"stateMutability": "view",
			"type": "function"
		},
		{
			"inputs": [
				{
					"internalType": "address",
					"name": "spender_",
					"type": "address"
				},
				{
					"internalType": "uint256",
					"name": "value_",
					"type": "uint256"
				}
			],
			"name": "erc20Approve",
			"outputs": [
				{
					"internalType": "bool",
					"name": "",
					"type": "bool"
				}
			],
			"stateMutability": "nonpayable",
			"type": "function"
		},
		{
			"inputs": [
				{
					"internalType": "address",
					"name": "owner_",
					"type": "address"
				}
			],
			"name": "erc20BalanceOf",
			"outputs": [
				{
					"internalType": "uint256",
					"name": "",
					"type": "uint256"
				}
			],
			"stateMutability": "view",
			"type": "function"
		},
		{
			"inputs": [],
			"name": "erc20TotalSupply",
			"outputs": [
				{
					"internalType": "uint256",
					"name": "",
					"type": "uint256"
				}
			],
			"stateMutability": "view",
			"type": "function"
		},
		{
			"inputs": [
				{
					"internalType": "address",
					"name": "from_",
					"type": "address"
				},
				{
					"internalType": "address",
					"name": "to_",
					"type": "address"
				},
				{
					"internalType": "uint256",
					"name": "value_",
					"type": "uint256"
				}
			],
			"name": "erc20TransferFrom",
			"outputs": [
				{
					"internalType": "bool",
					"name": "",
					"type": "bool"
				}
			],
			"stateMutability": "nonpayable",
			"type": "function"
		},
		{
			"inputs": [
				{
					"internalType": "address",
					"name": "spender_",
					"type": "address"
				},
				{
					"internalType": "uint256",
					"name": "id_",
					"type": "uint256"
				}
			],
			"name": "erc721Approve",
			"outputs": [],
			"stateMutability": "nonpayable",
			"type": "function"
		},
		{
			"inputs": [
				{
					"internalType": "address",
					"name": "owner_",
					"type": "address"
				}
			],
			"name": "erc721BalanceOf",
			"outputs": [
				{
					"internalType": "uint256",
					"name": "",
					"type": "uint256"
				}
			],
			"stateMutability": "view",
			"type": "function"
		},
		{
			"inputs": [],
			"name": "erc721TotalSupply",
			"outputs": [
				{
					"internalType": "uint256",
					"name": "",
					"type": "uint256"
				}
			],
			"stateMutability": "view",
			"type": "function"
		},
		{
			"inputs": [
				{
					"internalType": "address",
					"name": "target_",
					"type": "address"
				}
			],
			"name": "erc721TransferExempt",
			"outputs": [
				{
					"internalType": "bool",
					"name": "",
					"type": "bool"
				}
			],
			"stateMutability": "view",
			"type": "function"
		},
		{
			"inputs": [
				{
					"internalType": "address",
					"name": "from_",
					"type": "address"
				},
				{
					"internalType": "address",
					"name": "to_",
					"type": "address"
				},
				{
					"internalType": "uint256",
					"name": "id_",
					"type": "uint256"
				}
			],
			"name": "erc721TransferFrom",
			"outputs": [],
			"stateMutability": "nonpayable",
			"type": "function"
		},
		{
			"inputs": [
				{
					"internalType": "uint256",
					"name": "",
					"type": "uint256"
				}
			],
			"name": "getApproved",
			"outputs": [
				{
					"internalType": "address",
					"name": "",
					"type": "address"
				}
			],
			"stateMutability": "view",
			"type": "function"
		},
		{
			"inputs": [],
			"name": "getERC721QueueLength",
			"outputs": [
				{
					"internalType": "uint256",
					"name": "",
					"type": "uint256"
				}
			],
			"stateMutability": "view",
			"type": "function"
		},
		{
			"inputs": [
				{
					"internalType": "uint256",
					"name": "start_",
					"type": "uint256"
				},
				{
					"internalType": "uint256",
					"name": "count_",
					"type": "uint256"
				}
			],
			"name": "getERC721TokensInQueue",
			"outputs": [
				{
					"internalType": "uint256[]",
					"name": "",
					"type": "uint256[]"
				}
			],
			"stateMutability": "view",
			"type": "function"
		},
		{
			"inputs": [
				{
					"internalType": "address",
					"name": "",
					"type": "address"
				},
				{
					"internalType": "address",
					"name": "",
					"type": "address"
				}
			],
			"name": "isApprovedForAll",
			"outputs": [
				{
					"internalType": "bool",
					"name": "",
					"type": "bool"
				}
			],
			"stateMutability": "view",
			"type": "function"
		},
		{
			"inputs": [],
			"name": "minted",
			"outputs": [
				{
					"internalType": "uint256",
					"name": "",
					"type": "uint256"
				}
			],
			"stateMutability": "view",
			"type": "function"
		},
		{
			"inputs": [],
			"name": "name",
			"outputs": [
				{
					"internalType": "string",
					"name": "",
					"type": "string"
				}
			],
			"stateMutability": "view",
			"type": "function"
		},
		{
			"inputs": [
				{
					"internalType": "address",
					"name": "",
					"type": "address"
				}
			],
			"name": "nonces",
			"outputs": [
				{
					"internalType": "uint256",
					"name": "",
					"type": "uint256"
				}
			],
			"stateMutability": "view",
			"type": "function"
		},
		{
			"inputs": [
				{
					"internalType": "address",
					"name": "owner_",
					"type": "address"
				}
			],
			"name": "owned",
			"outputs": [
				{
					"internalType": "uint256[]",
					"name": "",
					"type": "uint256[]"
				}
			],
			"stateMutability": "view",
			"type": "function"
		},
		{
			"inputs": [
				{
					"internalType": "uint256",
					"name": "id_",
					"type": "uint256"
				}
			],
			"name": "ownerOf",
			"outputs": [
				{
					"internalType": "address",
					"name": "erc721Owner",
					"type": "address"
				}
			],
			"stateMutability": "view",
			"type": "function"
		},
		{
			"inputs": [
				{
					"internalType": "address",
					"name": "owner_",
					"type": "address"
				},
				{
					"internalType": "address",
					"name": "spender_",
					"type": "address"
				},
				{
					"internalType": "uint256",
					"name": "value_",
					"type": "uint256"
				},
				{
					"internalType": "uint256",
					"name": "deadline_",
					"type": "uint256"
				},
				{
					"internalType": "uint8",
					"name": "v_",
					"type": "uint8"
				},
				{
					"internalType": "bytes32",
					"name": "r_",
					"type": "bytes32"
				},
				{
					"internalType": "bytes32",
					"name": "s_",
					"type": "bytes32"
				}
			],
			"name": "permit",
			"outputs": [],
			"stateMutability": "nonpayable",
			"type": "function"
		},
		{
			"inputs": [
				{
					"internalType": "address",
					"name": "from_",
					"type": "address"
				},
				{
					"internalType": "address",
					"name": "to_",
					"type": "address"
				},
				{
					"internalType": "uint256",
					"name": "id_",
					"type": "uint256"
				}
			],
			"name": "safeTransferFrom",
			"outputs": [],
			"stateMutability": "nonpayable",
			"type": "function"
		},
		{
			"inputs": [
				{
					"internalType": "address",
					"name": "from_",
					"type": "address"
				},
				{
					"internalType": "address",
					"name": "to_",
					"type": "address"
				},
				{
					"internalType": "uint256",
					"name": "id_",
					"type": "uint256"
				},
				{
					"internalType": "bytes",
					"name": "data_",
					"type": "bytes"
				}
			],
			"name": "safeTransferFrom",
			"outputs": [],
			"stateMutability": "nonpayable",
			"type": "function"
		},
		{
			"inputs": [
				{
					"internalType": "address",
					"name": "operator_",
					"type": "address"
				},
				{
					"internalType": "bool",
					"name": "approved_",
					"type": "bool"
				}
			],
			"name": "setApprovalForAll",
			"outputs": [],
			"stateMutability": "nonpayable",
			"type": "function"
		},
		{
			"inputs": [
				{
					"internalType": "bool",
					"name": "state_",
					"type": "bool"
				}
			],
			"name": "setSelfERC721TransferExempt",
			"outputs": [],
			"stateMutability": "nonpayable",
			"type": "function"
		},
		{
			"inputs": [
				{
					"internalType": "bytes4",
					"name": "interfaceId",
					"type": "bytes4"
				}
			],
			"name": "supportsInterface",
			"outputs": [
				{
					"internalType": "bool",
					"name": "",
					"type": "bool"
				}
			],
			"stateMutability": "view",
			"type": "function"
		},
		{
			"inputs": [],
			"name": "symbol",
			"outputs": [
				{
					"internalType": "string",
					"name": "",
					"type": "string"
				}
			],
			"stateMutability": "view",
			"type": "function"
		},
		{
			"inputs": [
				{
					"internalType": "uint256",
					"name": "id_",
					"type": "uint256"
				}
			],
			"name": "tokenURI",
			"outputs": [
				{
					"internalType": "string",
					"name": "",
					"type": "string"
				}
			],
			"stateMutability": "pure",
			"type": "function"
		},
		{
			"inputs": [],
			"name": "totalSupply",
			"outputs": [
				{
					"internalType": "uint256",
					"name": "",
					"type": "uint256"
				}
			],
			"stateMutability": "view",
			"type": "function"
		},
		{
			"inputs": [
				{
					"internalType": "address",
					"name": "to_",
					"type": "address"
				},
				{
					"internalType": "uint256",
					"name": "value_",
					"type": "uint256"
				}
			],
			"name": "transfer",
			"outputs": [
				{
					"internalType": "bool",
					"name": "",
					"type": "bool"
				}
			],
			"stateMutability": "nonpayable",
			"type": "function"
		},
		{
			"inputs": [
				{
					"internalType": "address",
					"name": "from_",
					"type": "address"
				},
				{
					"internalType": "address",
					"name": "to_",
					"type": "address"
				},
				{
					"internalType": "uint256",
					"name": "valueOrId_",
					"type": "uint256"
				}
			],
			"name": "transferFrom",
			"outputs": [
				{
					"internalType": "bool",
					"name": "",
					"type": "bool"
				}
			],
			"stateMutability": "nonpayable",
			"type": "function"
		},
		{
			"inputs": [],
			"name": "units",
			"outputs": [
				{
					"internalType": "uint256",
					"name": "",
					"type": "uint256"
				}
			],
			"stateMutability": "view",
			"type": "function"
		}
	]
}